:02000002D0002C
:1040000000400D001CA90D00000006000C00050179
:084010000401DE0500000000C0
:0440180070930D0094
:10401C0009480A49884208B505D0094A824202D0AB
:10402C00121A05F057F80748074A0021121A05F032
:10403C005CF8014808BD00BF68C9032044A80D0006
:10404C0014CA032014CA0320F0E7032070B504F04F
:10405C004FFD074C074BE41AA40800251E46A54249
:10406C0004D056F8253098470135F8E770BD00BFED
:10407C0040A80D0008A80D0001F0C6B908B502F063
:10408C0007FEBDE8084004F0F5BC03F085BA03F068
:10409C008BBA03F089BA0078B0FA80F04009704707
:1040AC000123037070477047014B01221A7070474F
:1040BC0044CB0320034B044A1B7883F001031360A9
:1040CC00704700BF7CCA032020CB0320014B012288
:1040DC001A707047D2DA032003681847012A02D0FD
:1040EC00022A02D004E0016002E00B6800B1036018
:1040FC000020704737B50C460E480F4D05F026F8DA
:10410C00204605F06EF8204410F8013CA3F1230280
:10411C00534253412B7004F02BFC2B78074A002B95
:10412C0014BF59234E2300930121024B04F01BF9B9
:10413C0003B030BDFCDA032084D40320AC970D000F
:10414C00436913B183690C301847704713B50021CC
:10415C000446084602F032FF02A90023204641F82B
:10416C00043D02F043FF019C0CB10123237100219B
:10417C00012002F023FF2CB1236820469B6898474E
:10418C000023237102B010BD10B5054B002204466C
:10419C00114640F8043B03F011F9204610BD00BF56
:1041AC00A0930D0010B50446FFF7EEFF204620212A
:1041BC0004F013FE204610BD37B50C460E480F4DCB
:1041CC0004F0C4FF204605F00CF8204410F8013C24
:1041DC00A3F12302534253412B7004F0C9FB2B78FB
:1041EC00074A002B14BF59234E2300930121024B85
:1041FC0004F0B9F803B030BDFCDA032084D40320FA
:10420C00DF970D0010B58368044613B103220146F5
:10421C009847204610BD0368C9B29B681847000038
:10422C00F0B500258E461549057185604561016024
:10423C00044692E8030085B002AF04F10C0687E84F
:10424C00030096E8030082E8030097E8030086E881
:10425C0003009168606990606161D168A069D06069
:10426C00A1618DE82800064A2346714604F1080036
:10427C0002F0ACFE204605B0F0BD00BF8C930D00E3
:10428C0059410D0007B58068002340B18DE80A0044
:10429C001A46022102F0B2FEB0FA80F0400903B0D7
:1042AC005DF804FB38B50F4B0360836804469BB183
:1042BC006FF00041FFF7E6FF0021A06802F0B6FEA8
:1042CC00237903F0FF0513B102F060FEF8E72946ED
:1042DC00A06802F083FEA56004F10C00FFF792FFCA
:1042EC00204638BD8C930D0010B50446FFF7DAFF5D
:1042FC0020461C2104F071FD204610BD73B5064606
:10430C000D4611461446FFF7BDFFB068002340B1BF
:10431C00019300952246194602F070FEB0FA80F027
:10432C00400902B070BD000040F67263984270B54F
:10433C001CDC0F4A002352F8044BA04203F1010588
:10434C000FDC116888420CDD0A4E56F8232056F813
:10435C0025309D1A031B6B43081B93FBF0F0104494
:10436C0070BD142D2B46E6D1002070BD184670BDD3
:10437C00B8A30D0064A30D001FB50C2AA8BF0C2216
:10438C00014401A8144604F049FF04AB1C4401A8E5
:10439C00002304F80C3C04F087FE04B010BD30B5CB
:1043AC00002385B00C68055D954208BF002504F11B
:1043BC0001040DF803500C6002D001330E2BF1D127
:1043CC00684604F071FE05B030BD000010B5084C15
:1043DC0001444FF0FF32884208D010F8013B5340A3
:1043EC00DBB254F8233083EA1222F4E7D04310BD39
:1043FC00AC930D00021E30B516DB9110022329B1CF
:10440C00914203D0023342FA03F1F8E7023B002059
:10441C004000411C42FA03F401FB01F5A542D8BF50
:10442C000846023BF4D530BD4FF0FF3030BD0000E4
:10443C0008B504F059FC4FF46D7203490020BDE837
:10444C00084002F023BE00BF86D4032008B504F058
:10445C004BFC4FF46D7203490020BDE8084002F09C
:10446C001DBE00BF86D4032008B504F03DFCBDE89A
:10447C00084002F01BBE000008B5FFF7F5FF044B27
:10448C000C221A700E225A70FF229A7008BD00BFBF
:10449C0086D4032007B504F027FC01220DF1070197
:1044AC00002002F0F3FD9DF80730FF2B02D1FFF73F
:1044BC00E3FF07E0FFF7BCFF044B1A8840F60C63E0
:1044CC009A42F4D103B05DF804FB00BF86D40320FC
:1044DC00012870B50E461D4D1BD11D4B188804F0DC
:1044EC0097FB044640B904F043FA1A4903F011FF54
:1044FC00194B2C601C6016E02B68002B15DC04F0AB
:10450C0037FA164903F005FF134B0020286018609A
:10451C0070BD2A684AF227039A4206DD04F028FA95
:10452C000F4903F0F6FE002070BD0E4C01212088CF
:10453C0004F055FB304602F091FD0021208804F078
:10454C004EFB304602F08AFD012070BDD4DA032008
:10455C0098C9032015980D0024CB032031980D0029
:10456C0048980D0094C903202DE9F84F1C4BDFF837
:10457C007890C70F044688461888394604F02FFBFC
:10458C00184B84EAE4711A68A1EBE4711144192206
:10459C00002C91FBF2F64FF0000402FB16121A608D
:1045AC00B4BF6FF0180A4FF0190A1D46A346B44267
:1045BC0013DA41463846FFF78BFF58B1D9F8003073
:1045CC005344002B02DDC9F8003004E0C9F800B0F8
:1045DC00C5F800B034460134E9E7BDE8F88F00BFF8
:1045EC0074C9032024CB0320D4DA0320024B00210E
:1045FC00188804F0F4BA00BFA4C9032008B5054B11
:10460C000121188804F0EBFA0A20BDE8084002F0FA
:10461C00FBBF00BFA4C9032038B504460D46FFF705
:10462C00EDFF29462046FFF79FFFBDE83840FFF716
:10463C00DDBF0000134B10B54AF228021A60044685
:10464C00FFF7DCFF96211048FFF78EFF642002F085
:10465C00DBFF96214FF4FA60FFF786FF642002F02F
:10466C00D3FF4FF47A710948FFF77EFF4FF47A714C
:10467C0042F63020FFF778FF1CB1BDE81040FFF781
:10468C00B5BF10BDD4DA0320A015FFFF48F4FFFF1F
:10469C0038B5064C80F3080544F62062294620887C
:1046AC0004F006FB0123E560237238BD18CA032011
:1046BC0010B5044C0021208804F0D4FA0023237296
:1046CC00E36010BD18CA032070B5044602F0CEFC9E
:1046DC000F4D84F30804064644F6206221462888D0
:1046EC0004F0E6FA002C14BF01230023EC602B72BB
:1046FC0009D0084B1B7833B104F03AF92346064A2B
:10470C00012103F030FE02F0B1FC801B70BD00BF34
:10471C0018CA032075CB032063980D00024B014689
:10472C00188804F09FBA00BF68C90320024B0146E9
:10473C00188804F097BA00BF78C90320024B0146D1
:10474C00188804F08FBA00BF7CC903200346412BA4
:10475C00084601D1FFF7E2BF312B01D1FFF7E6BFCD
:10476C00322B01D1FFF7EABF70470000024B00214A
:10477C00188804F077BA00BF68C90320024B0021E7
:10478C00188804F06FBA00BF78C90320024B0021CF
:10479C00188804F067BA00BF7CC90320412801D1F6
:1047AC00FFF7E4BF312801D1FFF7E8BF322801D170
:1047BC00FFF7ECBF704710B504460846FFF7AEFF95
:1047CC00204602F021FFBDE81040FFF7CFBF10B527
:1047DC0004460846FFF7AAFF204602F015FFBDE885
:1047EC001040FFF7CBBF10B504460846FFF7A6FFF5
:1047FC00204602F009FFBDE81040FFF7C7BF38B5EF
:10480C000C4605460846FFF789FF2046FFF78EFF4A
:10481C002046FFF793FF284602F0F6FEFFF7A6FFAF
:10482C00FFF7ACFFBDE83840FFF7B0BF08B504F0A8
:10483C0089FA03F008FB88B904F084FA084903F0FC
:10484C00B5FA04F07FFA03F0B5FA642002F0DCFE4E
:10485C0004F078FABDE8084003F0F5BA08BD00BFD3
:10486C00A086010008B504F06DFABDE8084003F01D
:10487C00A7BA000008B5074B074800226FF00041AB
:10488C00DA61FFF73BFD04F073F80449BDE808401A
:10489C0003F03FBD18CA032028CB03207A980D00E3
:1048AC0008B56FF000410648FFF7ECFC0020FFF75D
:1048BC000BFF04F05DF80349BDE8084003F029BD87
:1048CC0028CB03209D980D0038B5114C0021208871
:1048DC0004F0C8F9A08804F0AEF9E1680546208818
:1048EC0004F0C0F91DB9FFF7DBFF00250EE02846E8
:1048FC00FFF71AFD052200EBC003B0F5167F93FB02
:10490C00F2F303F5A0732062A362ECDC284638BDF9
:10491C0018CA03202DE9F0432F4E8BB0F56802F036
:10492C00A5FBF769C7EB0009B9F57A7F80463446D9
:10493C004ED3FFF7C9FFC6F81C808046002847D02D
:10494C0017B97761B76143E0336A776AB569E26A90
:10495C00FF1A4FF47A7107FB09F393FBF1F31D4433
:10496C00B5617669636BBE1B6B434E437A43216B17
:10497C00A56B92FBF1F193FBF5F56A18E56B236CD3
:10498C0096FBF9F6754395FBF3F5144B1B78154420
:10499C00EBB103F0EDFFD4F820E0636A08950796BD
:1049AC00A16906910A2293FBF2F102FB11330393E6
:1049BC009EFBF2F302FB13E2029101920093059726
:1049CC00CDF810904346064A012103F0CCFC6761F8
:1049DC0028460BB0BDE8F08318CA032075CB032022
:1049EC00E0980D00254A2DE9F3410346044600F1F9
:1049FC001801164653F8040B42F8040B8B42F9D1FC
:104A0C0000271F4D37762068616877762B4602AEFB
:104A1C0003C3192346F8043D7C22314620462F72ED
:104A2C00FFF7BDFC314668727C222046FFF7B7FCCD
:104A3C00314680467C222046FFF7B1FC3146E860C7
:104A4C007C222046FFF7ABFC0199288286B23246C5
:104A5C00214405F1120004F0E1FBAB19314605F1DC
:104A6C0012009F74FFF7B2FC0028B8BF4042C8EB9D
:104A7C0000035842584102B0BDE8F0815CD30320DA
:104A8C0078CB0320F0B5054695B00E4601682B484F
:104A9C0004F083FB2A4A2B49002313702A4A04A8EA
:104AAC00137003F00FFD29460CA8049C03F049FD7C
:104ABC007C2108A803F069FD08A90CA803F08DFD62
:104ACC003146074610A803F0FDFC10A9384603F048
:104ADC0084FD1E4B026819781D4B1B780B438DF817
:104AEC00003021463C2302A802F062FF039C7CB1FB
:104AFC006368013B63605BB9236820469B689847F9
:104B0C00A368013BA3601BB923682046DB68984768
:104B1C0010A803F090FC08A803F08DFC0CA803F07F
:104B2C008AFC04A803F087FC03F022FF00962B6894
:104B3C00084A012103F017FC15B0F0BDB0DA0320D0
:104B4C0084D4032049990D00FCDA0320A0CA032069
:104B5C00E8CA03205E990D007FB503F009FF1549E3
:104B6C00154E164D03F0D5FB02F09EFC0446B0B179
:104B7C000123337002F07AFA114B124900F51C50E4
:104B8C0010301860002368462B7003F09BFC6846BD
:104B9C000D49FFF777FF684603F04DFC08E003F082
:104BAC00E7FE0A4903F0B5FB094B34702C701C70FE
:104BBC0004B070BD7D990D00C5CA03204CD40320F0
:104BCC000CCB032092990D00DCDA0320A5990D0083
:104BDC0045CB0320F8B50C4F06460024251D3D445B
:104BEC0029461822304604F004FB014638B9284601
:104BFC00EC2204F07AFABDE8F840FFF727BCEC345D
:104C0C00B4F56C7FEAD1F8BD86D40320F0B500244E
:104C1C00084F4454851A1446A01A884204F1010026
:104C2C0007DAE65D9E4208BF00262E5501D00446E9
:104C3C00F2E7F0BDFCDA0320034BEC2202FB003060
:104C4C000021043004F051BA86D4032008B50A4B75
:104C5C0000201870FFF7F0FF0120FFF7EDFF022096
:104C6C00FFF7EAFF0320FFF7E7FF044BFF229A70E0
:104C7C00BDE80840FFF7EABB10CB032086D4032025
:104C8C0038B5074C0749EC22054602FB00400430BE
:104C9C0004F020FAA570BDE83840FFF7D7BB00BF81
:104CAC0086D403205CD3032010B588B03A230A784D
:104CBC0007930B8906932C230593CC8804940393B8
:104CCC008C8802940193044C498800912044034938
:104CDC0002F07AFC08B010BD3AD80320D4990D002C
:104CEC002DE9F341154FEC26464341217C23BA199B
:104CFC008DE80A0004321249124802F065FC0025C6
:104D0C00044606F11E08AB193B449B7F412B02D095
:104D1C00313B012B06D808EB050120463944FFF73F
:104D2C00C3FF04440A35D22DEDD1064B1C4401209F
:104D3C00002304F8013C02B0BDE8F08186D40320C6
:104D4C00E9990D003AD8032010B5084B9C78FF2C3C
:104D5C001ABF013404F0030400242046FFF790FF2F
:104D6C002046BDE81040FFF7BBBF00BF86D4032030
:104D7C0070B5164B1B780E4633BB154B1A18927C2C
:104D8C007C2A21D03A2A1CD00446B4F5FA6F1ADAE0
:104D9C001A19927C3A2A06D1221A01460D48FFF7BD
:104DAC00EBFA30600FE02C2A04F1010507D1221A2E
:104DBC0001460848FFF7E0FA3060284670BD2C46E3
:104DCC00E3E7013070BD204670BD00BFD1DA03208F
:104DDC0078CB03208ACB032030B50029054685B05B
:104DEC0019481A4C01D1016018E0194BDA684FF4DC
:104DFC007A7303FB02F204DA4FF0FF330260236094
:104E0C000DE00368194464230160594391FBF2F1EE
:104E1C009942A8BF19462368994200D0216003F03B
:104E2C00A7FD0C4B196A0A2391FBF3F203FB121337
:104E3C000293236801920093074A2B68012103F027
:104E4C0092FA05B030BD00BFECCA032050D4032049
:104E5C0078CB032018CA0320F5990D0010B502F089
:104E6C0005F90A4B1B7804461BB9FFF753FDFFF7F6
:104E7C002BFC074B188803F0CBFE431E58425841BD
:104E8C00044B187002F0F2F8001B10BD7CCA032012
:104E9C0088C90320D1DA03202DE9F047DFF83CA0C4
:104EAC0005460E4690461F460024C0F100094445B5
:104EBC0012DA31462846FFF757FB0FB1FFF7CEFF4A
:104ECC0031464846FFF750FB0FB1FFF7C7FF9AF882
:104EDC0000300BB90134EAE7BDE8F087D1DA0320E2
:104EEC00F8B5114F044600254FF4FA7690FBF6F610
:104EFC00B54209DAFFF7B2FFC0F5FA7002F084FB95
:104F0C003B7883B90135F3E74FF4FA7294FBF2F373
:104F1C0002FB1344FFF7A2FF844204DD201ABDE814
:104F2C00F84002F071BBF8BDD1DA0320F0B516469B
:104F3C004A1C85B007460D4602D133600C4621E071
:104F4C000A462C2103F07FFB431C04460CD12A4655
:104F5C003946684603F0A6FB684603F0AAFB3060AE
:104F6C00684603F068FA0DE003462A46394668465F
:104F7C0003F078FB684603F09CFB3060684603F056
:104F8C005AFA0134204605B0F0BD000010B50120DE
:104F9C00FFF74CFC18B9BDE81040FFF763BC03F0F9
:104FAC00E7FC0F4903F0B5F9002403F0CBFE2146D2
:104FBC0002F03FFF03F0C6FE0021FFF72CF903F0CF
:104FCC00C1FE02F03DFF30B903F0D2FC2346054A86
:104FDC00012103F0C8F901347F2CE6D1DBE700BFD7
:104FEC001B9A0D00399A0D00124A134908B500237B
:104FFC001370124A0B701370114A0B721370114A12
:10500C001370114A1370114A1360114A1360114A3C
:10501C0013701376104A1370137653760F4A13706D
:10502C0082F86E3202F022F80D4B00F56A406030C7
:10503C00186008BD7FCA032078CB03207DCA0320EB
:10504C004CD4032084D403207CCA0320ECCA032054
:10505C0050D40320DCDA03205CD303203AD803209D
:10506C00F0CA032010B507220D490E4804F0C1F810
:10507C00044670B903F07CFC0B4903F04AF90B4B66
:10508C0001201C70FFF7D6FAFFF7AEFF084B1C602F
:10509C0010BD03F06DFC0749BDE8104003F039B9B1
:1050AC00589A0D00F5CA0320609A0D0074CB0320AA
:1050BC00F0CA03206E9A0D0010B507220D490E4858
:1050CC0004F097F8044670B903F052FC0B4903F056
:1050DC0020F90B4B01201C70FFF7ACFAFFF784FF93
:1050EC00084B1C6010BD03F043FC0749BDE81040A1
:1050FC0003F00FB9589A0D00F5CA0320829A0D00DF
:10510C001CCB0320F0CA0320919A0D001FB5174C3D
:10511C0003F02EFC214603F0FCF8154B01221A700B
:10512C0001F0A4FF134B00F51C5010301860214601
:10513C00684603F0C7F94FF0FF316846FFF74CFEA5
:10514C00684603F078F90C49684603F0BBF90B4943
:10515C006846FFF797FC684603F06DF9FFF746FACF
:10516C00074B00221A7004B010BD00BF829A0D00CC
:10517C001CCB032078CA0320A59A0D005CD3032016
:10518C0045CB03201FB503F0F3FB164903F0C1F820
:10519C00154B01221A7001F069FF144B144900F5EC
:1051AC001C5010301860684603F08CF94FF0FF313A
:1051BC006846FFF711FE684603F03DF90D49684655
:1051CC0003F080F90C496846FFF75CFC684603F075
:1051DC0032F9FFF70BFA094B00221A7005B05DF893
:1051EC0004FB00BFB19A0D0074CB032008CB032045
:1051FC00C09A0D00CE9A0D005CD3032045CB032042
:10520C0070B50E460446154603F0D8FC012E05D1A8
:10521C0029462046BDE8704003F024BD70BD70B532
:10522C000E460446154603F0C9FC012E05D129464D
:10523C002046BDE8704003F0D2BC70BD30B50022F2
:10524C008BB001215548564D02F0B8F800230422CA
:10525C005449554802F000F9544A5549554802F052
:10526C0087FA06A802F028F906A9284603F074F973
:10527C0006A803F0E0F8294602A803F062F94E49AB
:10528C0002A803F0B6F90024014606A803F059F968
:10529C0023462246494901940094069802F01CF9D1
:1052AC0006A803F0C8F802A803F0C5F8294602A81E
:1052BC0003F047F9424902A803F09BF9014606A8FE
:1052CC0003F03FF9224623463E4901940094069888
:1052DC0002F002F906A803F0AEF802A803F0ABF84E
:1052EC00394B0221188803F069FC384B02211888CD
:1052FC0003F064FC364B012211461888FFF78FFF30
:10530C00344B2146188803F059FC334B224618883D
:10531C000121FFF775FF314B224618880121FFF759
:10532C006FFF2F4B224618880121FFF769FF2D4B89
:10533C002146188803F042FC2B4B2146188803F0B9
:10534C003DFC2A4B2146188803F038FC284B22469A
:10535C0018880121FFF763FF264B2246188801218C
:10536C00FFF75DFF244B224618880121FFF757FFFA
:10537C00224B802218880121FFF742FF204B224646
:10538C0018880121FFF73CFF1E4B2246012118888B
:10539C00FFF736FFFFF77EF80BB030BD58D4032073
:1053AC0074D403203AD80320DA9A0D00E39A0D0046
:1053BC004D690D0051770D00EC9A0D00C5410D00A3
:1053CC00119B0D0001410D0098C9032088C90320D1
:1053DC009CC90320A0C9032068C9032078C90320F5
:1053EC007CC9032090C903206CC9032084C9032005
:1053FC00A4C9032094C9032074C9032080C90320C5
:10540C008CC9032070C9032008B5FFF717FF03F000
:10541C00AFFA4FF4E13103F09FFA034B01221A70FB
:10542C00024B00221A6008BDF4CA032018CB0320DB
:10543C0030B5144B144D1A7885B01C4622B101F0CE
:10544C0015FE2B6883421AD201F010FE00F5EA40DB
:10545C003030286041F2883002F0D6F802F024F89F
:10546C0068B1012309492370684603F02BF8084BF7
:10547C0068461968FFF706FB684602F0DCFF05B0CA
:10548C0030BD00BF7ECA032018CB0320339B0D0018
:10549C0074D4032007B5009313460A46012102F089
:1054AC0062FF03B05DF804FB38B50A4B1B78054668
:1054BC000C4633B103F05CFA23462A460649FFF743
:1054CC00E9FF064B2A4621461878BDE8384003F020
:1054DC0031B900BF75CB0320439B0D008CC9032051
:1054EC0073B5044603F02EFC214602F09EFC03F03B
:1054FC0029FC0021FEF78FFE064603F023FC002159
:10550C0002F09AFC054630B103F032FA2B463246D3
:10551C001549FFF7BFFF03F015FC2146042202F0EA
:10552C0081FC03F00FFC03685B699847044603F0A9
:10553C0009FC03685B6998470C4B1B78054643B123
:10554C0003F016FAE3B20093094AEBB2012102F020
:10555C000AFF6A0704D4E0B2C31E5842584100E067
:10556C00002002B070BD00BF759B0D0075CB0320F1
:10557C00969B0D007FB5124B1C680D46041B06460E
:10558C001049684602F09EFF84EAE473A3EBE473CF
:10559C006B43684646F2A81193FBF1F1FFF71CFC34
:1055AC00684602F048FF03F0E3F923463246064909
:1055BC00FFF770FF29462046FEF7D6FF04B070BDFA
:1055CC00D4DA0320AC9B0D00C79B0D00962144F24E
:1055DC005060FFF7CFBF962142F63020FFF7CABFCD
:1055EC000A46012102F0BFBE13460A46012102F011
:1055FC00BABE00002DE9F347444C23780646884692
:10560C0015462BB103F0B4F932464149FFF7ECFFD4
:10561C0003F098FB294602F00CFC03F093FB0021ED
:10562C00FEF7F9FD824603F08DFB0221FEF7F3FD38
:10563C00074603F087FB012102F0FEFB814650B1C7
:10564C00574403F095F9CDF8049000973346314A4E
:10565C00012102F088FE03F075FB294602F0E9FBFC
:10566C0003F070FB0621FEF7D6FD824603F06AFBC1
:10567C0003685FFA88F19B689847074603F062FB62
:10568C00012102F0D9FB814650B1574403F070F967
:10569C00CDF80490009733461E4A012102F063FEB8
:1056AC0003F050FB294602F0C4FB03F04BFB062130
:1056BC00FEF7B1FD074603F045FB002102F0BCFBF1
:1056CC00064630B103F054F933463A461249FFF717
:1056DC00E1FE03F037FBE9B2012202F0A3FB054621
:1056EC0003F030FB03685B699847237806464BB19F
:1056FC0003F03EF90196CDF800802B46074A0121B4
:10570C0002F031FE02B0BDE8F08700BF75CB03207C
:10571C00F29B0D00109C0D00759B0D00379C0D002D
:10572C002DE9F7435A4D5B4EDFF89C81DFF87491FD
:10573C0001232B7003F01CF9574902F0EAFD03F02A
:10574C0075F84FF4165103F067F803F011F953494B
:10575C0002F0DFFD0021308803F041FA01F086FCF5
:10576C0000F59C5403F004F94D4902F0D2FD0834C5
:10577C00B8F8000003F04CFA074603F0F9F82E21B4
:10578C0002F0B8FD01F072FCC9F8000001F074FEE3
:10579C00C82001F039FF012F424F03D001F066FC05
:1057AC00A042E5D303F0E4F8804603F03FF8036829
:1057BC001B699847002814BF59224E223A4940468B
:1057CC00FFF712FF0121308803F009FA03F0D0F83B
:1057DC00364902F09EFD03F029F803681B699847CF
:1057EC0048B901F043FC844205D901F03FFC386014
:1057FC0001F042FEEFE7642001F006FF03F0B8F879
:10580C002B492C4E02F085FD002403F0B1F82E211B
:10581C0002F070FD03F00AF803685B699847431CBB
:10582C001CBF3055013403F001F803681B6998471D
:10583C0008B1172CE9DD03F09BF802F05EFD172C84
:10584C001C4A0CDC1C4B114603F1180053F8046B7A
:10585C0041F8046B8342F9D1184B002119700026D2
:10586C00167603F085F8134B154A0094012102F0CB
:10587C007AFD02F0DBFF02F0D2FF03F079F8114958
:10588C00FFF7AEFE20462E7003B0BDE8F08300BFDC
:10589C0046CB03209CC903205A9C0D006D9C0D0027
:1058AC00849C0D0018E70320959C0D00BE9C0D00F8
:1058BC001F9D0D00DCDA0320D49C0D0045CB03208A
:1058CC00ED9C0D00059D0D00A0C9032070B58EB098
:1058DC000025014606460AA807950895099502F089
:1058EC0030FE2B4606AA29460AA8FFF71FFB0446E2
:1058FC000AA802F0A0FD069B013B202B00F274824B
:10590C00DFE813F021002400280057008500B000C8
:10591C00B500D000D500F70018013A015B017D01FC
:10592C00A001BA01D401D901EA01EE01F101F4019F
:10593C00F801720272027202FB01FE01330239029B
:10594C00720272023D02FFF781F94DE20120FEF76F
:10595C0071FE46E231460AA802F0F3FD002307AAC5
:10596C0021460AA8FFF7E2FA04460AA802F063FDF2
:10597C0031460AA802F0E5FD4FF47A7308AA2146D5
:10598C000AA8FFF7D3FA0AA802F055FD0899079860
:10599C00AF4CFEF741FE02F0EBFFAE4BAE4A1B687C
:1059AC000193236800930121079B02F0DCFC24681F
:1059BC001BE2FEF723FEFFF709FEFEF717FEA74BCF
:1059CC00002231460AA85A7602F0BBFDB62307AA7C
:1059DC0021460AA8FFF7AAFA04460AA802F02BFDF2
:1059EC0031460AA802F0ADFDFF2308AA21460AA8F9
:1059FC00FFF79CFA0AA802F01EFD994B079C1C604D
:105A0C00984B089A1A60984B01221A70EDE1FEF738
:105A1C0047FF924B31460AA85D7602F092FD07AA29
:105A2C00B62321460AA8FFF781FA04460AA802F019
:105A3C0002FD31460AA802F084FD08AA2146FF2384
:105A4C000AA8FFF773FA0AA802F0F5FC844B079C2E
:105A5C001C60844B089A1A60834B01221A70FEF763
:105A6C0009FFC2E1FEF700FD02F03CFE36E13146D3
:105A7C000AA802F066FD07AA21464FF4B9730AA8DA
:105A8C00FFF754FA0AA802F0D6FC02F071FF774B2C
:105A9C00196A0A2391FBF3F203FB12137449FFF703
:105AAC00F9FC24E0FEF7E8FC724B5C789DE1314692
:105ABC000AA802F046FD4FF4FA7307AA21460AA879
:105ACC00FFF734FA04460AA802F0B5FC31460AA8DE
:105ADC0002F037FD2146FF2308AA0AA8FFF726FA91
:105AEC000AA802F0A8FC08990798FEF764FE079C28
:105AFC007BE131460AA802F024FD07AA4FF4FA73A1
:105B0C0021460AA8FFF712FA04460AA802F093FCF1
:105B1C0031460AA802F015FD2146FF2308AA0AA85F
:105B2C00FFF704FA0AA802F086FC08990798FEF71A
:105B3C004EFE1FE031460AA802F003FD4FF4FA7343
:105B4C0007AA21460AA8FFF7F1F904460AA802F0B1
:105B5C0072FC31460AA802F0F4FC2146FF2308AA85
:105B6C000AA8FFF7E3F90AA802F065FC0899079860
:105B7C00FEF739FE089C38E131460AA802F0E1FC38
:105B8C0007AA4FF4FA7321460AA8FFF7CFF9044687
:105B9C000AA802F050FC31460AA802F0D2FC2146B9
:105BAC00FF2308AA0AA8FFF7C1F90AA802F043FCD0
:105BBC0008990798FEF723FEDCE731460AA802F0A5
:105BCC00C0FC07AA4FF4167321460AA8FFF7AEF9DA
:105BDC0004460AA802F02FFC31460AA802F0B1FCD8
:105BEC0021464FF47A7308AA0AA8FFF79FF90AA86E
:105BFC0002F021FC08990798FFF756FC77E731462D
:105C0C000AA802F09EFC07AA002321460AA8FFF767
:105C1C008DF904460AA802F00EFC31460AA802F0DF
:105C2C0090FC21464FF47A7308AA0AA8FFF77EF974
:105C3C000AA802F000FCFEF7E1FC08990798FFF7B0
:105C4C0099FCCCE0FEF7DAFCFFF7C5FCC7E000BF1F
:105C5C00D4DA032024CB03203C9D0D005CD303201D
:105C6C00ACDA032048D4032044CB032018CA032009
:105C7C006B9D0D0086D4032031460AA802F061FC0E
:105C8C004FF4B97307AA21460AA8FFF74FF90AA8DF
:105C9C0002F0D1FB079C40F25623621E9A4200F29E
:105CAC00A4805C4B00225C62DA619EE0FEF7A6FCED
:105CBC00FFF78CFC93E031460AA802F042FC8023EB
:105CCC0007AA21460AA8FFF731F90AA802F0B3FB8C
:105CDC000798FEF7DDFC0AE7FEF7EAFC012484E0F6
:105CEC00FEF7C8FDFAE7FEF7DBFDF7E74A4B0124A8
:105CFC001C707AE0484B1D7076E0FFF747F9EDE732
:105D0C00FEF77CFCFFF762FCFEF770FC31460AA83C
:105D1C0002F017FC07AAB62321460AA8FFF706F9DA
:105D2C0004460AA802F087FB31460AA802F009FCD7
:105D3C0008AA2146FF230AA8FFF7F8F80AA802F0E0
:105D4C007AFB354B0799354800221A70344B5A763A
:105D5C00344B1960344B08991960344B01246FF0A3
:105D6C0000411C70FEF7CAFA3FE06FF000412B486F
:105D7C00FEF788FAB2E7FFF7D3FC044635E031466C
:105D8C000AA802F0DEFB192307AA21460AA8FFF78E
:105D9C00CDF804460AA802F04EFB31460AA802F0E0
:105DAC00D0FB962308AA21460AA8FFF7BFF80446A1
:105DBC000AA802F040FB31460AA802F0C2FB0A23F3
:105DCC0009AA21460AA8FFF7B1F80AA802F033FB8A
:105DDC00FEF714FC07A8002307C8FFF75DF8FEF7D1
:105DEC0005FC134B1C6800E0002402F0C1FD0023ED
:105DFC0005930493099B0393089B0293079B0193C0
:105E0C000094069B0B4A012102F0ADFA20460EB01D
:105E1C0070BD00BF18CA032075CB03205CCA0320D9
:105E2C005CD30320ACDA032048D4032044CB0320FA
:105E3C00D4DA0320809D0D0010B5154B188802F0A4
:105E4C00E7FE144B021E0CBF0121002119701C46E9
:105E5C000CD10121104801F0B1FA4FF4C871084679
:105E6C00FFF722FB0D4B01221A7005E04FF49671DF
:105E7C004FF4C870FFF718FB02F07AFD237808493D
:105E8C00002B14BF59224E22FFF7AEFB10BD00BFF2
:105E9C0088C9032045CB032058D40320C4CA03204F
:105EAC00CA9D0D0010B51B4B1A7892B11A4C227872
:105EBC0052B1002222701A7002F05AFD174902F0FA
:105ECC0028FAFFF7B9FF04E0322001F09DFB012313
:105EDC002370134B1C785CB101F0C8F8114B1B6894
:105EEC00984216D902F044FD0F4902F012FA0AE06A
:105EFC000E4B1A786AB11C700D4B1B784BB1FFF727
:105F0C000FFC182803D1BDE81040FEF725BE094B45
:105F1C001C7010BDD2DA0320E9CA0320E09D0D00ED
:105F2C00C5CA03200CCB0320F89D0D00C4CA032066
:105F3C0045CB03204CD4032013460A46002102F023
:105F4C0012BA00002DE9F3470546174698460E464F
:105F5C0002F0F8FE294601F068FF02F0F3FE002182
:105F6C00FEF759F9824602F0EDFE8321FEF753F954
:105F7C00044602F0E7FE012101F05EFF814660B1AC
:105F8C00544402F0F5FCCDF8049000942B46754A6D
:105F9C00012102F0E8F90020E0E001F067F800F5DB
:105FAC009C5909F108092846FFF79AFA70B901F0D3
:105FBC005DF8484503D2642001F026FBF3E702F0BC
:105FCC00D7FC2A466849FFF70FFBE4E7674C2378B8
:105FDC002BB102F0CDFC2A466549FFF705FB02F018
:105FEC00B1FE294601F021FF02F0ACFE0021FEF7C4
:105FFC0012F9824602F0A6FE002101F01DFF814637
:10600C0030B102F0B5FC4B4652465A49FFF742FA02
:10601C0002F098FE29460A2201F004FF02F092FEDB
:10602C0003685B699847054602F08CFE03685B6960
:10603C009847237881464BB1EDB202F099FC00955C
:10604C005FFA89F34C4A012102F08DF902F07AFED5
:10605C0003685B6998472378C5B22BB102F088FCC2
:10606C002A464649FFF768FF02F06CFE03685B693D
:10607C0098472378814633B102F07AFC5FFA89F2B3
:10608C003E49FFF759FF4FEA092909F47F491423C8
:10609C004D4495FBF3F50A9B433D1D8002F052FEE7
:1060AC0003685B6998472378C5B22BB102F060FC9A
:1060BC002A463249FFF740FF02F044FE03685B6951
:1060CC00984723785FFA80F92BB102F051FC4A46CD
:1060DC002A49FFF731FF05EB0925358002F032FE26
:1060EC0003685B6998472378C5B22BB102F040FC7A
:1060FC002A462249FFF720FF02F024FE03685B6961
:10610C0098472378C6B22BB102F032FC32461B49B9
:10611C00FFF712FF05EB06253D8002F013FE036826
:10612C005B6998472378C5B22BB102F021FC2A4653
:10613C001249FFF701FF02F005FE03685B699847FF
:10614C002378C6B22BB102F013FC32460B49FFF791
:10615C004BFA05EB0625A8F80050012002B0BDE86B
:10616C00F08700BF3D9E0D009D9E0D0075CB03205A
:10617C006D9E0D00759B0D00969B0D00999E0D005C
:10618C002DE9F04F8DB041280746089114460AD0EE
:10619C0031280BD032280CD002F0EAFB3A464D499C
:1061AC00FFF722FA93E04FF0740A04E04FF0750AFF
:1061BC0001E04FF0760A484E737E1525B3FBF5F0DF
:1061CC0005FB103501337376444B01221A70FEF730
:1061DC006FFA21463846FEF7B9FAEDB264200A246C
:1061EC0001F012FA04FB05645246089938464FF048
:1061FC000009FFF7FFF90523A776E376C8464E465C
:10620C004D46CB46E27E934504F11B0320DA0AABE4
:10621C0000930BAA0DF12E030DF12A015046FFF746
:10622C0091FE60B1BDF82A301D44BDF82C301E44DF
:10623C00BDF82E309844BDF82830994405E002F0A2
:10624C0097FB3A462649FFF7CFF90BF1010BD9E73B
:10625C0096FBF2F6E683B6B295FBF2F57643A58390
:10626C00ADB298FBF2F005FB0565208480B299FB7A
:10627C00F2F900FB0050A4F822900993FEF7BAF84B
:10628C000546ADB202F074FB0795228C0692E28BA8
:10629C000592A28B04921FFA89F909EBC909052210
:1062AC0099FBF2F2203292B20392628C099B029219
:1062BC001B780193089B00930A4A3B46012102F08C
:1062CC0052F8064B002238461A70FEF767FA0DB0EA
:1062DC00BDE8F08FB89E0D005CD303207CCA032070
:1062EC00D49E0D00FB9E0D002DE9F04105460E4697
:1062FC00144600F0BBFE07460120FEF797FAE0B10A
:10630C00324629464120FFF73BFF0CB1FEF7A6FDB4
:10631C00324629463120FFF733FF0CB1FEF79EFDC4
:10632C00324629463220FFF72BFF0CB1FEF796FDC3
:10633C0002F01EFB01F0E1FF04E002F019FB0B4937
:10634C0001F0E7FFFEF78EFA094B1B7863B102F000
:10635C000FFB044600F08AFE064AC31B01212046AF
:10636C00BDE8F04101F0FFBFBDE8F0813A9F0D00A0
:10637C0075CB03206D9F0D00F0B5924B1D7889B045
:10638C000C461E46002D40F01A81042800F0C380F4
:10639C0043DC012800F0898011DC002840F00B81DF
:1063AC00894904A802F08EF841F2707104A8FEF736
:1063BC0013FD04A802F03FF84FF47A7086E002282F
:1063CC0000F08780032840F0F68001A92046FEF7F4
:1063DC00CFFC02A9FEF7CCFC03A9FEF7C9FC7B4954
:1063EC00044604A802F06EF8019B83EAE371A1EB6A
:1063FC00E371029B5943039B04A84B4346F2A8113B
:10640C0093FBF1F1FEF7E8FC04A802F014F801A8E4
:10641C00012307C8FEF740FDCDE0142800F0AC8046
:10642C0037DC0A2800F08F800B2840F0C48001A9CB
:10643C002046FEF79DFC02A9FEF79AFC644904462F
:10644C0004A802F03FF8634B1968A1F58C41503950
:10645C000029B8BF49429623594304A846F2A81311
:10646C0091FBF3F1FEF7B8FC04A801F0E4FFFFF791
:10647C00ADF8594904A802F025F841F2707104A84E
:10648C00FEF7AAFC04A801F0D6FF2A46029901984F
:10649C006FE0152800F08880632840F08C8002F0B3
:1064AC0067FA4E4901F035FF87E001A92046FEF757
:1064BC005FFC4B49044604A802F004F8019904A8B7
:1064CC00FEF78AFC04A801F0B6FF0198FEF708FD60
:1064DC0073E001A92046FEF74BFC02A9FEF748FC2D
:1064EC004049044604A801F0EDFF019B83EAE371E7
:1064FC00A1EBE371029B04A84B4346F2A81193FB5A
:10650C00F1F1FEF769FC04A801F095FF02990198DE
:10651C00FEF72AF84FE001A92046FEF729FC02A954
:10652C00FEF726FC3049044604A801F0CBFF019984
:10653C0004A8FEF751FC04A801F07DFF0299019814
:10654C00FEF7B2FF37E002F013FA2849FFF748F8DC
:10655C00FFF73CF8204904A801F0B4FF41F2707138
:10656C0004A8FEF739FC04A801F065FF2A46FF21B8
:10657C00B620FFF7B9FE20E001A92046FEF7F8FB94
:10658C00044602F0F5F9019B194A012101F0EBFEDA
:10659C00671C019BAB4210DD337873B9384600F0B1
:1065AC002BF801350446F4E702F0E2F9114901F049
:1065BC00B0FE604204E0FEF751FC601C00E00846AF
:1065CC0009B0F0BDD1DA03207E9F0D00969F0D001F
:1065DC00D69F0D00D4DA0320CE9F0D0007A00D002E
:1065EC00879F0D008F9F0D00A29F0D00AA9F0D008D
:1065FC00E09F0D00F99F0D0030B585B003A905464D
:10660C00FEF7B6FB014665B9039B53B1184B01224B
:10661C001A7002F0ADF9174901F07BFE4FF0FF3014
:10662C0023E00398FFF7A8FE044602F0A1F9039BB0
:10663C00019300942B46104A0D4D012101F093FE5D
:10664C00039B632B0DD0002C0BDD2B784BB903A9CE
:10665C002046FEF78DFB01460398FFF78DFE04469E
:10666C00EEE784EAE470A0EBE47005B030BD00BF47
:10667C00D1DA032013A00D002BA00D001FB52B4B5E
:10668C002B49012268461A7001F01CFF6846002154
:10669C00FEF7A2FB684601F0CEFE00F0FDFE4FF4C3
:1066AC00FA6000F0B1FF00F0FFFE044628B102F0E2
:1066BC005FF9204901F02DFEEFE7FDF7BBFF4FF42A
:1066CC0016714FF47A70FEF7EFFE40F2DC5000F0DA
:1066DC009BFFFEF7E5F82146204600F06FFC2046B4
:1066EC00FFF78AFF2146012000F068FCFEF72CFB27
:1066FC00FEF7C0F800F0C8FE4FF4FA6000F084FF1B
:10670C0000F0D2FE28B902F033F90B4901F001FE7A
:10671C00F0E70A4B0A4A1B780A4883F0010313700E
:10672C000121002200F04AFE04B010BD7FCA0320F4
:10673C004FA00D005CA00D005EA00D00D1DA03206F
:10674C00C6CA0320A8CA032013460A46012101F039
:10675C000ABE000007B502F00BF92F4901F0D9FD74
:10676C00FEF714FC02F004F92C4901F0D2FD0120D3
:10677C00FDF760FF02F0FCF8294901F0CAFDFF218A
:10678C004FF4FA70FEF717F84FF4FA7000F03CFF74
:10679C00FF214FF4FA70FEF71AF84FF4FA7000F07C
:1067AC0033FFFF214FF4FA70FEF71DF802F0E0F80A
:1067BC001C4901F0AEFD4FF4A571FA20FEF774FEF2
:1067CC00FEF712FCFFF738FB174B1849188800220C
:1067DC0000924FF0FF3301F03BFB02F0C9F8144B71
:1067EC0014491A68FFF7B0FF02F0C2F8124A917808
:1067FC0013780191527800920121104A01F0B3FDF7
:10680C00FEF738F800F032FC0D4B00F59C500830C8
:10681C00186003B05DF804FB60A00D0086A00D00AD
:10682C0096A00D00A29F0D0088C90320D9400D0031
:10683C0074D40320A6A00D0086D40320B4A00D00B0
:10684C00F8DA032010B502F093F80F49FEF7C8FEF2
:10685C000E4B0F490F4800221A70072202F0C9FC98
:10686C00044650B902F084F80B49FEF7B9FE0B4B05
:10687C001C70BDE81040FFF76DBF02F079F80849B5
:10688C00FEF7AEFE10BD00BF0DA10D007ECA0320A9
:10689C00589A0D00F5CA03202AA10D00F4CA032052
:1068AC0053A10D0030B5144B85B001220C461A7063
:1068BC00054600F0DBFB114B00F59C4020301860C6
:1068CC0002F056F822460E49FFF73EFF2846FEF727
:1068DC0007FA02F04DF80B4901F01BFD0A49684616
:1068EC0001F0F0FD21466846FEF7CCF8684601F051
:1068FC00A2FD05B030BD00BF10CB0320D8DA0320B9
:10690C0084A10D003AD80320A2A10D0010B502F00D
:10691C002FF8094901F0FDFC084B0020EC2202FB8A
:10692C0000310C7924B10431BDE81040FFF7BABF37
:10693C0001300428F3D110BDAEA10D0086D4032084
:10694C0010B58368182B11D10A4C1922214600234B
:10695C0001F061FE0023237602F00AF82246064974
:10696C00FFF7F2FEFEF7F8F8012010BD4FF0FF30F4
:10697C0010BD00BFDCDA0320CDA10D0070B500F016
:10698C0075FB124B1A6882421D461AD8104A002316
:10699C00EC2101FB032634794CB10E4B1C7894B1DD
:1069AC0001F0E6FF321D0C49FFF7CEFE0CE001337F
:1069BC00042BEED100F05AFB00F56A4060302860E1
:1069CC0002E0002400E00124204670BDF0CA032040
:1069DC0086D4032075CB0320EBA10D0038B51E4BDC
:1069EC001A78D2B11D4C257855B101F0C1FF1C4964
:1069FC0001F08FFC00232370BDE83840FEF786BB06
:106A0C00184C23783BB301F0B3FF174901F081FC1C
:106A1C002570BDE83840FEF7B5BB144B197821B191
:106A2C001A70BDE83840FFF729BE114B1B785BB1DB
:106A3C0000F01CFB0F4B1B6898420CD901F098FF1F
:106A4C000D4901F066FC02E0FFF798FF18B1BDE8B4
:106A5C003840FFF75BBF38BD7FCA0320D1DA032073
:106A6C0007A20D00C6CA032017A20D00F5DA0320F9
:106A7C0010CB0320D8DA032026A20D0038B507224C
:106A8C000D490E4802F0B5FB054668B90C4C01F0F7
:106A9C006FFF22680B49FFF757FE0B4B20681D70E8
:106AAC00BDE83840FEF796B801F062FF0749BDE833
:106ABC00384001F02EBC00BF589A0D00F5CA0320D7
:106ACC0070CB032042A20D0010CB03207AA20D0044
:106ADC001C4B1D491D48002270B51A70072202F08C
:106AEC0088FB1B4C1B4DB0FA80F04009207001F064
:106AFC003FFF23781849002B14BF59224E22FEF772
:106B0C0073FD2678AEB12868FDF76CFF064648B1D8
:106B1C00124B01221A7001F02BFF2A681049FFF763
:106B2C0013FE70BD01F024FF0E4901F0F2FB26703C
:106B3C0005E001F01DFF2A680B49FFF705FE0B4B22
:106B4C001E7070BDC5CA0320589A0D00F5CA0320EB
:106B5C004CD4032070CB03208EA20D00F5DA032059
:106B6C00A6A20D00D2A20D00EEA20D0045CB032073
:106B7C0030B53A4B3A4800221A7085B07C2320215C
:106B8C00FEF744F87C23024610213648FEF73EF807
:106B9C00354A364B111819601C4640F6C3139842FF
:106BAC0008DC115C232903D12F4B00221A5401E07D
:106BBC000130F4E701F0DCFE05462B4802F011FB36
:106BCC0023680293264C274B019301210346009422
:106BDC00274A284601F0C7FB2649204602F0D3FA83
:106BEC0040B101F0C5FE0094224B234A012101F073
:106BFC00BAFB31E02149204602F0C5FA20B905B0B4
:106C0C00BDE83040FFF71EBE1D49204602F0BBFA1E
:106C1C0020B905B0BDE83040FFF75ABF19492046EE
:106C2C0002F0B1FA20B905B0BDE83040FEF71ABA4F
:106C3C001549204602F0A7FA20B905B0BDE830404E
:106C4C00FEF73ABA1149204602F09DFA20B905B078
:106C5C00BDE83040FFF712BF05B030BD84D403202F
:106C6C00C7CA0320F5CA0320FCDA032070CB03202B
:106C7C0004A30D00B0DA032039A30D00339B0D00E3
:106C8C0092990D00CE9A0D00A59A0D00A2A10D00AF
:106C9C007FB53C4E3C4C01F06BFE03681B6998477A
:106CAC0040B301F065FE03685B6998472368F054B4
:106CBC0001F05EFE03681B6998472368054638B1EE
:106CCC000133282193FBF1F201FB12332360E2E73D
:106CDC00F05401F04DFE2B4901F01BFB29492560B6
:106CEC00684601F0EFFB6846FEF7F0FD684601F0E0
:106CFC00A2FBD0E7254B1B7813B1FFF739FF3FE020
:106D0C00234B1C7814B1FEF793FB12E0FFF7CAF883
:106D1C00FFF764FE1F4B1A785AB11C70FDF7C0FDCB
:106D2C001D4B19681D4B22461868FFF7DDFAFDF75D
:106D3C00A1FD1B4B1A682AB100221A60FDF7EAFD6F
:106D4C00FDF7C2FC174B1C781CB100220121164820
:106D5C0014E0164B164D1B6AB3F5B47F06DA00F03F
:106D6C0085F900F59C500830286009E000F07EF9A8
:106D7C002B68984204D90F482246012100F01EFBD3
:106D8C0004B070BD47CB0320C0E4032084D403209F
:106D9C00F4CA032044CB032048D40320ACDA0320EC
:106DAC0020CB032045CB032058D4032018CA032042
:106DBC0014CB0320A8CA03202DE9F0435A4B5B4F98
:106DCC005B4EDFF8B09101241C705A4B87B0022542
:106DDC001D7000F073F9282300932B46564D019437
:106DEC0022464FF47F01384601F0D2F8324629464C
:106DFC00384601F0EDFF00221421204600F010FB74
:106E0C004E4F01944FF01E080346CDF800802246E9
:106E1C004FF47F01384601F0BBF83246294638461C
:106E2C0001F0D6FF00221421204600F0F9FA444F5D
:106E3C00CDF800800346224601944FF47F4138463A
:106E4C0001F0A6F83246294638463E4D3E4FDFF853
:106E5C00288101F0BDFF3D4B029302AA002341F2B1
:106E6C00883128460497CDF81490FDF7D9F902A87B
:106E7C00FDF7C8F932464146284601F0A9FF344ACD
:106E8C00344B12681A60344A049712685A604FF4F3
:106E9C0048721A614FF4B97200254FF47A715A6234
:106EAC002E4F99636422DD601D725D619D61DA6213
:106EBC001C635C63DC631C64294B029302AA2B46A3
:106ECC003846CDF81490FDF7ABF902A8FDF79AF906
:106EDC003846244F3246414601F07AFF2249384663
:106EEC0001F0F0FA32462149384601F071FF204B8F
:106EFC000E225A702946FF220C2620461E709A70CC
:106F0C0000F076FA01F020FE2B462A4642F6A2311A
:106F1C0001F022FE01F018FE2B462A46314601F004
:106F2C0023FE07B0BDE8F083E8CA032080CA032023
:106F3C0014CA0320A0CA032095410D0054D4032089
:106F4C00A4CA03205CCA0320E9400D00B5400D0023
:106F5C0070C9032018CA032090C9032028CB032032
:106F6C00C1400D0074D4032034A50D0043840D00E2
:106F7C0086D40320E5400D00B1420D0008B5024B4C
:106F8C001B689B68019308BD4802030008B5024BBF
:106F9C001B68DB68019308BD4802030008B5024B6F
:106FAC001B681B69019308BD4802030008B5024B1E
:106FBC001B685B69019308BD4802030008B5024BCE
:106FCC001B68DB69019308BD4802030008B5024B3E
:106FDC001B681B6A019308BD4802030008B5024BED
:106FEC001B685B6A019308BD4802030008B5024B9D
:106FFC001B689B6A019308BD4802030008B5024B4D
:10700C001B68DB6A019308BD4802030008B5024BFC
:10701C001B685B6C019308BD4802030008B5024B6A
:10702C001B689B6C019308BD4802030008B5024B1A
:10703C001B681B6F019308BD4802030008B5024B87
:10704C001B689B6E019308BD3402030008B5024B0C
:10705C001B685B68019308BD1802030008B5024B5E
:10706C001B68DB68019308BD1802030008B5024BCE
:10707C001B685B69019308BD1802030008B5024B3D
:10708C001B689B6A019308BD1802030008B5024BEC
:10709C001B685B6C019308BD1802030008B5024B1A
:1070AC001B689B6C019308BD1802030008B5024BCA
:1070BC001B68DB6C019308BD1802030008B5024B7A
:1070CC001B681B68019308BD2C02030008B5024B1A
:1070DC001B685B68019308BD2C02030008B5024BCA
:1070EC001B689B68019308BD2C02030008B5024B7A
:1070FC001B68DB68019308BD2C02030008B5024B2A
:10710C001B681B69019308BD2C02030008B5024BD8
:10711C001B685B69019308BD2C02030008B5024B88
:10712C001B689B69019308BD2C02030008B5024B38
:10713C001B68DB69019308BD2C02030008B5024BE8
:10714C001B689B6A019308BD2C02030008B5024B17
:10715C001B681B6B019308BD2C02030008B5024B86
:10716C001B689B6F019308BD2C02030008B5024BF2
:10717C001B68DB6F019308BD2C02030008B5024BA2
:10718C001B681B68019308BD2802030008B5024B5D
:10719C001B68DB68019308BD2802030008B5024B8D
:1071AC001B681B69019308BD2802030008B5024B3C
:1071BC001B689B69019308BD2802030008B5024BAC
:1071CC001B68DB69019308BD2802030008B5024B5C
:1071DC001B681B6A019308BD2802030008B5024B0B
:1071EC001B685B6A019308BD2802030008B5024BBB
:1071FC001B689B6A019308BD2802030008B5024B6B
:10720C001B68DB6A019308BD2802030008B5024B1A
:10721C001B681B6B019308BD2802030008B5024BC9
:10722C001B685B6B019308BD2802030008B5024B79
:10723C001B681B6C019308BD2802030008B5024BA8
:10724C001B681B6D019308BD2802030008B5024B97
:10725C001B685B69019308BD6402030008B5024B0F
:10726C001B689B68019308BD6802030008B5024BBC
:10727C001B68DB68019308BD6802030008B5024B6C
:10728C001B681B68019308BD2402030008B5024B60
:10729C001B68DB69019308BD3002030008B5024B83
:1072AC001B681B6A019308BD3002030008B5024B32
:1072BC001B681B68019308BD3C02030008B5024B18
:1072CC001B689B68019308BD3C02030008B5024B88
:1072DC001B68DB68019308BD3C02030008B5024B38
:1072EC001B681B69019308BD3C02030008B5024BE7
:1072FC001B685B69019308BD3C02030008B5024B97
:10730C001B689B69019308BD3C02030008B5024B46
:10731C001B68DB69019308BD3C02030008B5024BF6
:10732C001B681B6A019308BD3C02030008B5024BA5
:10733C001B689B6A019308BD3C02030008B5024B15
:10734C001B68DB6A019308BD3C02030008B5024BC5
:10735C001B681B68019308BD4C02030008B5024B67
:10736C001B685B68019308BD4C02030008B5024B17
:10737C001B681B69019308BD4C02030008B5024B46
:10738C001B685B69019308BD4C02030008B5024BF6
:10739C001B689B69019308BD4C02030008B5024BA6
:1073AC001B68DB69019308BD4C02030008B5024B56
:1073BC001B681B6A019308BD4C02030008B5034B04
:1073CC001B68D3F88030019308BD000060020300F5
:1073DC0008B5024B1B685B68019308BD20020300D3
:1073EC0008B5024B1B685B69019308BD20020300C2
:1073FC0008B5024B1B68DB6A019308BD2002030031
:10740C0008B5024B1B68DB6C019308BD200203001E
:10741C0008B5024B1B685B6D019308BD200203008D
:10742C0008B5024B1B68DB6F019308BD20020300FB
:10743C0008B5034B1B68D3F88830019308BD0000D6
:10744C002002030008B5034B1B68D3F8943001935A
:10745C0008BD00002002030008B5024B1B681B6826
:10746C00019308BD4402030008B5024B1B685B681E
:10747C00019308BD4402030008B5024B1B689B68CE
:10748C00019308BD4402030008B5024B1B68DB687E
:10749C00019308BD4402030008B5024B1B681B692D
:1074AC00019308BD4402030008B5024B1B685B69DD
:1074BC00019308BD4402030008B5024B1B68DB694D
:1074CC00019308BD4402030008B5024B1B681B6AFC
:1074DC00019308BD4402030008B5024B1B685B6AAC
:1074EC00019308BD4402030008B5024B1B68DB6B1B
:1074FC00019308BD4402030008B5024B1B685B688E
:10750C00019308BD4002030008B5024B1B689B6841
:10751C00019308BD4002030008B5024B1B68DB68F1
:10752C00019308BD4002030008B5024B1B681B69A0
:10753C00019308BD4002030008B5024B1B685B6950
:10754C00019308BD4002030008B5024B1B689B6900
:10755C00019308BD4002030008B5024B1B68DB69B0
:10756C00019308BD4002030008B5024B1B681B6A5F
:10757C00019308BD4002030008B5024B1B681B6B4E
:10758C00019308BD4002030008B5024B1B685B6BFE
:10759C00019308BD4002030008B5024B1B681B6831
:1075AC00019308BD1C02030008B5024B1B685B6805
:1075BC00019308BD1C02030008B5024B1B689B68B5
:1075CC00019308BD1C02030008B5024B1B68DB6865
:1075DC00019308BD1C02030008B5024B1B685B6AD3
:1075EC00019308BD1C02030008B5024B1B68DB6A43
:1075FC00019308BD1C02030008B5024B1B681B6BF2
:10760C00019308BD1C0203000021FFF7E9BE10B571
:10761C00836804460BB901F0FCFBC3689847A36868
:10762C001BB1032221462046984720461021BDE875
:10763C00104001F0D2BB10B50446006808B1FFF74A
:10764C00EDFC204610BD10B5036804469B689847B6
:10765C00A368013BA3602BB923682046DB68BDE817
:10766C001040184710BD0B68036013B15A68013203
:10767C005A60704710B50446006828B14368013B56
:10768C0043600BB9FFF7DFFF204610BD10B5064C69
:10769C00002320462360FFF7B9FC2046034A044927
:1076AC00BDE8104001F094BBC4E4032014CA0320CD
:1076BC0043760D0070470020704710B5102104462A
:1076CC0001F08BFB204610BD08B508B1FFF7F5FFA4
:1076DC0008BD0022026010B54FF69C728280B1F991
:1076EC00044084808A8002680C6804600A6010BDC3
:1076FC0010B504460068FFF757FF204610BD38B59B
:10770C00C468F4B12378022B03D104F10C00FFF709
:10771C00EFFF656835B12846FCF774FD102128464B
:10772C0001F05BFBA56835B12846FCF76BFD102119
:10773C00284601F052FB20461421BDE8384001F0E8
:10774C004CBB38BD10B588B00446684600F0BAFE94
:10775C00694604A800F0F5FE04A8A047044604A856
:10776C0000F069FE684600F066FE204608B010BDC9
:10777C00F0B5102485B007460E461546002122466A
:10778C00684601F0B2FC002269461046ADF8004094
:10779C00029703960195FFF767FE05B0F0BD13B590
:1077AC00044691E8050000234B600B60206062608A
:1077BC0001A801930093FFF75DFF204602B010BDB6
:1077CC00F7B50C4602AD54F8043B45F8083D0646A7
:1077DC000F4601A82146FFF746FF29463046FFF722
:1077EC00DEFF01A8FFF746FF2046FFF743FF3846B0
:1077FC00082101F0F2FA304603B0F0BD13B50B4688
:10780C00044603C88DE8030093E8030084E80300F2
:10781C009DE8030083E8030002B010BD38B50023D7
:10782C000446036010200D46FCF72FFC28B1012301
:10783C0043608360024B0360C5602060204638BD06
:10784C0014A40D00826810B50AB901F0E2FAC368FD
:10785C00BDE81040184708B5006800F11001FFF7AB
:10786C00F1FF08BD826810B50AB901F0D2FAC368FD
:10787C00BDE81040184708B5006800F11001FFF78B
:10788C00F1FF08BD38B5002383608B6804460D46B4
:10789C002BB102229847EB68E360AB68A3602046EB
:1078AC0038BD0000F0B589B004686846FFF711FFD9
:1078BC0000238DF808304FF00202D4E84F3F002B24
:1078CC0003D1C4E8412F0029F7D102D08DF808303C
:1078DC0063E014F10C0503D069462846FFF7F9FE66
:1078EC00BFF35F8F01236370002004F10803BFF323
:1078FC005F8F53E8006F43E80002002AF9D1BFF311
:10790C005F8F002E49D0FFF77BFD20B12946304612
:10791C00FFF798FF3AE0314602A8FFF7B3FFE068A3
:10792C00B4F9105008B101F041FC06901020ADF8EC
:10793C001C50FCF7AAFB0546E8B10027876018200D
:10794C00FCF7A3FB044688B10146876002A8FFF749
:10795C0055FF049BA268A360059B049206A9E268EC
:10796C00E36004F110000592FFF7B3FE0D4BEB60E2
:10797C000D4B2C60AB6006A8FFF7BAFE02A8FCF713
:10798C0041FC002229460948FFF742FD3046FCF72E
:10799C0039FC1021304601F020FA6846FFF7A8FEAA
:1079AC0009B0F0BD63780D00D97A0D001B760D007F
:1079BC002DE9F04F8BB006460F46904699469DF840
:1079CC0050A0FFF771FD07AD834630BB4FF62E7309
:1079DC00059005A92846ADF81830FFF77AFE14205B
:1079EC00FCF753FB044658B1022303700123437088
:1079FC00C0F804B0C0F808B029460C30FFF769FE97
:107A0C003046214640F8044BFFF708FF2846FFF7A5
:107A1C006FFE05A8FFF76CFE52E000240C23142027
:107A2C006C60AC600793FCF730FB014618B1047036
:107A3C0044704460846004A80391FFF7EFFE224B6E
:107A4C0008930820FCF721FB044628B1039B40F85F
:107A5C00043B04A9FFF707FE00955FFA8AF34A4638
:107A6C00414638460994FFF72FFD20B9039B5B78FC
:107A7C0003F0FF0283B1039B059304A906A8FFF74B
:107A8C00F2FD05A93046FFF78AFE06A8FFF7F2FDC6
:107A9C0004A8FFF7EFFD13E04FF69C7305A903A8AC
:107AAC000592ADF81830FFF7FDFE05A8FFF720FE94
:107ABC0005A80999FFF784FE06A8FFF7DBFDDAE7B6
:107ACC0030460BB0BDE8F08F497C0D00022AF8B5AA
:107ADC00044606D0032A17D0012A22D10B68036072
:107AEC001FE018200E68FCF7D0FA054650B131465D
:107AFC00FFF7C8FE3069B6F9147008B101F056FBF7
:107B0C002861AF8225600CE0046854B104F11000C8
:107B1C00FFF7EEFD2046FCF775FB1821204601F01F
:107B2C005CF90020F8BD38B5002383608B680446EF
:107B3C000D462BB102229847EB68E360AB68A3605B
:107B4C00204638BD022A70B5044606D0032A11D04F
:107B5C00012A18D10B68036015E014200E68FCF79D
:107B6C0094FA054620B13146FFF7DDFF337C2B74C8
:107B7C00256008E0046834B12046FCF743FB14216F
:107B8C00204601F02AF9002070BD0000F0B500235A
:107B9C0087B00C46BFF35F8F50E8006F40E80032AF
:107BAC00002AF9D1BFF35F8F002E3FD01846FFF7A4
:107BBC0027FC074620B121463046FFF753FE2EE046
:107BCC00314601A8FFF7AFFF23788DF81430102051
:107BDC00FCF75BFA0546D0B187601420FCF755FA28
:107BEC00044678B18760014601A8FFF707FE039BA6
:107BFC00A268A360049B0392E268E3609DF81430D2
:107C0C00049223740A4BEB600A4B2C60AB6001A806
:107C1C00FCF7F8FA002229460748FFF7F9FB304633
:107C2C00FCF7F0FA1021304601F0D7F807B0F0BDA0
:107C3C0083780D00517B0D001B760D0030B585B09F
:107C4C0004460D4668461146FFF7BAFD7CB124B2D6
:107C5C0028460DB101F0AAFA029002A96846ADF8C7
:107C6C000C40FFF71FFE02A8FFF742FD1DE0009835
:107C7C008DF808404FF00102D0E84F3FA34203D1EA
:107C8C00C0E8412F0029F7D102D08DF808300CE064
:107C9C0010F10C014FF0010318BF0373BFF35F8F9A
:107CAC00043000F8033CFFF771FF01A8FFF7E2FC7A
:107CBC0005B030BD002211464068FFF755BC0022CC
:107CCC0011464068FFF760BC00224068FFF754BCC7
:107CDC00002281F001014068FFF73EBC00231A46E8
:107CEC0019464068FFF730BC00231A461946406815
:107CFC00FFF722BC002211464068FFF715BC00229A
:107D0C0011464068FFF700BC002202214068FFF7D3
:107D1C0003BC00231A464068FFF7EEBB024B03225C
:107D2C005A60024A1A607047C8E4032030A40D0060
:107D3C007047F8B5064615460C468F18BC4206D05F
:107D4C00336814F8011B9B6830469847F6E72846C1
:107D5C00F8BD0022007CFFF739BA0021007CFFF748
:107D6C003DBA0021007CFFF741BA0021007CFFF7EF
:107D7C0045BA0021007CFFF749BA10B5142104461E
:107D8C0001F02BF8204610BD10B5044600236360AB
:107D9C004FF47A73A360044B217408462360114698
:107DAC00FFF744FA204610BD64A40D000022007CAD
:107DBC00FFF7E4B900231A461946007CFFF7E6B931
:107DCC000021007CFFF7EAB970B50C4686B014258B
:107DDC0006462A46002101A801F087F923788DF880
:107DEC00083063680393E36804930022237A307CA1
:107DFC00ADF8045001A90593FFF720FA06B070BD49
:107E0C001FB500338DF800104FF06401039118BFBB
:107E1C000123694601928DF80830FFF7D5FF05B0B4
:107E2C005DF804FB0123FFF7EBBF0022007CFFF79A
:107E3C00BDB9C9B2FFF7F9BF0022007CFFF7BEB98C
:107E4C000121FFF7F9BF0021007CFFF7E7B90047DC
:107E5C00F0B585B01C460E4617460546FFF766F989
:107E6C00002084424FF0040303908DF80C30A5BF22
:107E7C009DF828308DF80E30034603AB0093324644
:107E8C003B460649A8BF8DF80D402846FFF746F93A
:107E9C00B0FA80F0400905B0F0BD00BF5B7E0D006C
:107EAC00704710B51821044600F097FF204610BD0E
:107EBC00F0B5037D062B8DB00E4600F104074FF094
:107ECC00000402D000F1080518E00CAD394605F8A5
:107EDC00304D2F232A460A20FFF7B8F9284601F027
:107EEC0080F933680246DB682946304698470FE034
:107EFC0024B12E21304600F0FDF9044415F8011D83
:107F0C000A22304600F00FFABD420444F0D120465C
:107F1C000DB0F0BD10B5054B0446112240F8043BE2
:107F2C00002101F0E2F8204610BD00BF8CA40D002A
:107F3C000346074A10B543F8042B01F1100251F81F
:107F4C00044B43F8044B9142F9D10A781A7010BDD6
:107F5C008CA40D0010B59DF8084044EA032343EAB5
:107F6C00024242EA016104234160037510BD37B53A
:107F7C000D788B784A78C97800912946FFF7EAFF8B
:107F8C0003B030BD0A680B4692680146184610478C
:107F9C0070B50E4C04601C2444609DF814409DF890
:107FAC00106004F0030444EA86040025E4B204746F
:107FBC00427485744161427C85600F2A08BF044B72
:107FCC00C56006BF8361C061038370BDA0930D00C3
:107FDC00917F0D00014B024A1A607047D0E40320D8
:107FEC0003A50D00002211464068FFF7BDBA002220
:107FFC0011464068FFF7C8BA00224068FFF7BCBAC8
:10800C00002281F001014068FFF7A6BA00231A464E
:10801C0001214068FFF798BA00231A4619464068B8
:10802C00FFF78ABA002211464068FFF77DBA00229A
:10803C0011464068FFF768BA002202214068FFF73A
:10804C006BBA00231A464068FFF756BA38B5054696
:10805C0088B104684CB1A3681BB1032221462046A9
:10806C0098471021204600F0B8FE28461421BDE8A0
:10807C00384000F0B2BE38BD10B103685B681847D9
:10808C00704710B503680446BBB15868FEF776FF1D
:10809C0078B923685A7C12B95868FEF77FFF2368B9
:1080AC005868FEF783FF20680023236028B1FFF790
:1080BC00CDFF206808B1FFF7C9FF204610BD38B5C9
:1080CC000446D0F8C40108B1FBF7E3FFD4F8C001B3
:1080DC0008B1FEF7A3FFD4F8BC5135B12846FFF721
:1080EC00D0FF0421284600F078FE206808B1FFF785
:1080FC00C3FF204638BD000010B5044B044640F8C1
:10810C00083BFFF7DCFF204610BD00BF74A50D0037
:10811C0038B50E4C0E4B23600025022304F5E47099
:10812C006360A560C4F8C451C4F8C851FEF76EFF73
:10813C00084BC4F8CC5184F8D05123602046064A31
:10814C000649BDE8384000F043BE00BFD4E403202C
:10815C00A8A50D0074A50D0014CA032005810D00FF
:10816C0000231A464068FFF7C7B900220221406875
:10817C00FFF7D2B9002211464068FFF7C5B90022BB
:10818C0011464068FFF7D0B900231A4619464068DB
:10819C00FFF7D2B900231A4619464068FFF7D4B945
:1081AC00002281F001014068FFF7D6B90022406837
:1081BC00FFF7E2B9002211464068FFF7E5B900224B
:1081CC0011464068FFF7D0B92DE9F043002495B073
:1081DC0016460D460746FFF79DFE214620220CA8A9
:1081EC00009400F082FF40230C9321466B460CAAAE
:1081FC003046FFF73BF80446002844D102460121E3
:10820C006868FFF791F90221804622466868FFF7FB
:10821C008BF9009E81462146002E34D0002932D1A4
:10822C007368022B02D00A2B09D02AE0B8F1000F98
:10823C0027D0716938460431FFF799FE20E0B9F177
:10824C00000F1ED07469112201A800F04EFF062306
:10825C008DF8143001AD04F108031834186859680E
:10826C002A4603C20833A3421546F7D101A906A832
:10827C0007ADFFF75DFE0FCD3C1D0FC42B682370BF
:10828C000121F669C8E70098FEF7E8FF384615B0FB
:10829C00BDE8F083024B034A1A6000225A60704713
:1082AC00A8E60320A8A50D00F8B506460D468F18C4
:1082BC000024BD420CD0336815F8011B9B68304676
:1082CC009847002801DB0444F3E7002C08BF044660
:1082DC002046F8BD70B505460C46084649B100F07D
:1082EC0080FF2B68024621462846DB68BDE87040BB
:1082FC00184770BD03689B68184738B50D210546B3
:10830C00FFF7F8FF0A2104462846FFF7F3FF204445
:10831C0038BD38B50546FFF7DDFF04462846FFF7A4
:10832C00ECFF204438BD30B58BB00B4600218DF8E6
:10833C002410012A98BF0A220DF12304B3FBF2F595
:10834C0005FB123303F0FF03092B94BF3033373393
:10835C00DBB2214604F801392B46002DEED1FFF794
:10836C00B9FF0BB030BD0CB42DE9F04387B000AFB2
:10837C0007F13804054654F8049B3C600E4623462E
:10838C004A461421381DFFF727F9132805D8391D43
:10839C002846FFF79FFF044613E000F1080323F083
:1083AC000703E846ADEB030D411C23464A466846DD
:1083BC003C60FFF711F969462846FFF78BFF04462E
:1083CC00C5461EB12846FFF798FF044420461C37CB
:1083DC00BD46BDE8F04302B0704710B50446FBF74C
:1083EC0011FF204610BD00000348044A0449002335
:1083FC00836000F0EDBC00BFB0E6032014CA03207C
:10840C00E7830D00704710B50C21044600F0E5FC25
:10841C00204610BD10B5054B03600446017108469B
:10842C00FEF734FF0023A360204610BDDCA50D0031
:10843C000079FEF733BF10B504460068FFF7B4F8B7
:10844C00204610BD10B50446006808B1FFF7ACF823
:10845C0000232360A360636010BD38B504460D464D
:10846C0000680131FFF7A8F810B184E82100012061
:10847C0038BD10B50368044613B143688B4207D26C
:10848C002046FFF7EAFF20B1A3680BB922681370EE
:10849C00012010BD70B50E46114604461546FFF777
:1084AC00E8FF18B92046FFF7CDFF09E02A46314610
:1084BC00A560206800F00EFE2268A3680021D1544C
:1084CC00204670BD38B500230446036043608360CA
:1084DC0003730D4639B1084600F083FE2946024667
:1084EC002046FFF7D7FF204638BD38B50546006853
:1084FC000C4660B16A688B689A4206D3096800F032
:10850C004CFEA368AB6000230AE0FFF74DF823682C
:10851C002B6063686B60A368AB60002323606360AF
:10852C00A36038BD884210B50B46044607D00968D5
:10853C0019B19A68FFF7AEFF01E0FFF783FF204601
:10854C0010BD10B5002304460360436083600373C1
:10855C00FFF7E8FF204610BD884210B5044601D055
:10856C00FFF7C3FF204610BD38B505460C4641B198
:10857C00084600F036FE214602462846FFF78AFFE1
:10858C0001E0FFF75FFF284638BD13B500238DF8D7
:10859C000410036043608360037301A904468DF8E3
:1085AC000530FFF7E1FF204602B010BD70B5044660
:1085BC000E4609B9002070BD6AB18368D5182946EA
:1085CC00FFF757FF0028F5D02068A3683146184400
:1085DC0000F0E3FDA560012070BD10B58A68096844
:1085EC000446FFF7E3FF10B92046FFF72BFF2046A8
:1085FC0010BD38B504460D4641B1084600F0F1FDFA
:10860C00294602462046FFF7D1FF10B92046FFF756
:10861C0019FF204638BD70B50E469AB191B18568E8
:10862C009D4202D800230B7070BD541EED1A0168D8
:10863C00AC4228BF2C4619442246304600F0EEFDD1
:10864C000023335570BD10B58368934206D9046876
:10865C00A01800F08AFD08B1001B10BD4FF0FF30D0
:10866C0010BD0000F8B59A420F461D460C4988BF54
:10867C0013461446064684BF2C461D46FFF722FFC0
:10868C00BA6894420AD83968954294BFC4EB050283
:10869C00C4EB020221443046FFF7FCFE3046F8BD25
:1086AC0034A50D0010B504468B68FFF7DBFF2046A0
:1086BC0010BD006808B100F0FBBC704710B5044653
:1086CC00006818B1FEF770FF0023236010BD10B5D1
:1086DC000446FFF7F3FF204610BD014600228C2014
:1086EC00FEF7ACBC0020FFF7F8BF000010B5094C3A
:1086FC0000204FF6FF732060A080A0712081638161
:10870C00FEF766FE2046044A0449BDE8104000F01E
:10871C005FBB00BFC0E6032014CA0320DB860D003C
:10872C00024B1A68024B1A60704700BFA8C903209D
:10873C00CCE60320F8B585B2044628460E4617460B
:10874C0000F01AFA60B102212846FEF7BFFC02289D
:10875C0006D13A4631462046BDE8F840FEF78EBDBC
:10876C00F8BD70474174704708B5007CFEF7DEFD1C
:10877C0020EAE07008BD08B5007CFEF7AFFD20EAEA
:10878C00E07008BD08B5007CFEF7B8FD30EA2000AB
:10879C0028BF4FF0FF3008BD08B5007CFEF7A6FDE2
:1087AC0030EA200028BF4FF0FF3008BD007CFEF7F8
:1087BC00ADBD10B51421044600F00FFB204610BDD2
:1087CC0070B5457C04460E4625B9007CFEF7AEFD1F
:1087DC00002805DD3146207CBDE87040FEF776BDF3
:1087EC00284670BD10B5044608461146002262604A
:1087FC004FF47A72A260054A2260012220746274DE
:10880C001A46FEF753FD204610BD00BF18A60D00FA
:10881C000023007CFEF792BD0022FFF7F9BF007C1D
:10882C00FEF74CBD007CFEF779BD0000F8B5194C85
:10883C0025684DB98420FBF728FC064618B1842224
:10884C00294600F052FC2660134D2E684EB9842048
:10885C00FBF71BFC074618B18422314600F045FC9F
:10886C002F600E4F396811F0010611D13846FBF715
:10887C0012FC68B122682B6809483146FFF7B2FF39
:10888C003846FBF70DFC074A0749054800F0A0FAEB
:10889C000348F8BDECE60320E4E60320E8E60320F9
:1088AC00D0E6032014CA03206F870D004174704773
:1088BC00704708B50021007CFEF768FD30EA200007
:1088CC0028BF4FF0FF3008BD08B50121007CFEF732
:1088DC005DFD30EA200028BF4FF0FF3008BD08B521
:1088EC00007CFEF74BFD20EAE07008BD08B5007C6B
:1088FC00FEF73CFD20EAE07008BD007CFEF756BD9B
:10890C0010B51421044600F068FA204610BD38B5A5
:10891C000446007C0D46FEF731FD002801DC607C2E
:10892C0028B12946207CFEF739FD20EAE07038BDDD
:10893C0010B50446002363604FF47A73A360054BB3
:10894C00236001230846217463741146FEF7FEFC74
:10895C00204610BD48A60D000022007CFEF7FEBC90
:10896C0010B514220446002100F0BFFB204610BDB8
:10897C0030B50E4D87B001A8FFF7F2FF296811F052
:10898C00010410D12846FBF786FB60B101AA2146F1
:10899C000748FFF7CDFF2846FBF782FB054A06493F
:1089AC00034800F015FA024807B030BDF0E603208A
:1089BC00F4E6032014CA0320BD880D0000221146E2
:1089CC004068FEF7B1BD002211464068FEF7CCBDF1
:1089DC00002211464068FEF7D7BD00224068FEF722
:1089EC00CBBD002281F001014068FEF7B5BD00232C
:1089FC001A4619464068FEF7A7BD00231A461946C9
:108A0C004068FEF799BD002211464068FEF77CBD18
:108A1C00002202214068FEF77FBD00231A46406801
:108A2C00FEF76ABD024B04225A60024A1A60704774
:108A3C0008E7032078A60D0008B50C4B33B1FFF7FF
:108A4C0097FF03681B699847002809DC084B63B142
:108A5C00FFF7ECFE03681B699847002803DC08BD90
:108A6C00AFF30080F2E7AFF3008008BD0000000018
:108A7C000000000008B5FFF7DFFFFEF7F7FA014B27
:108A8C00186008BD18E703200248034A0349121A6C
:108A9C0000F020BB00F4032004F4032040A80D00D8
:108AAC0007B5002300931A466FF07701FEF7CAFC56
:108ABC0003B05DF804FB000007B543880A2B08D00F
:108ACC00502B09D1094B1B683BB103B05DF804EB8B
:108ADC001847FFF7E5FF06E0002300931A466FF0F6
:108AEC007701FEF7AFFC03B05DF804FB10E7032041
:108AFC0038B5104C104D2368AB42104B0CBF012203
:108B0C0000221A7002D0FFF7BFFF2560FEF79EFA15
:108B1C00044600F0F3FA0A4B13B12046AFF3008081
:108B2C0000210748FEF7E0FC00210648BDE838406C
:108B3C00FEF77EBC00F403201E1C279A14E70320CA
:108B4C0000000000C58A0D0008B5024B1B681B68AD
:108B5C00019308BD5C02030008B5024B1B685B68FF
:108B6C00019308BD5C02030008B5024B1B689B68AF
:108B7C00019308BD5C02030010B5044600F008F92F
:108B8C00FFF756FC28B1A4F10B03022B01D80020EF
:108B9C0010BD00F0D7F8FFF756F908B1012CF6D943
:108BAC00FFF744FEFFF73EFE18B1A4F10903012BB9
:108BBC00EDD9232C8CBF0020012010BD232838B503
:108BCC0004460D460AD8FF2908D0FFF7D5FF28B177
:108BDC0029462046BDE83840FEF780BA38BD38B586
:108BEC0004460D46FEF782FAFF2810D0062804D85A
:108BFC004D2323FA00F0C30709D42046FFF7BCFF2E
:108C0C0028B129462046BDE83840FEF777BA38BD72
:108C1C0010B50446FEF76AFA0438C0B2012808D928
:108C2C002046FFF7A9FF20B12046BDE81040FEF713
:108C3C006DBA002010BD0D2810B504469CBF0E3433
:108C4C00A4B22046FFF798FF50B103212046FEF74F
:108C5C003DFA032804D12046BDE81040FEF776BA51
:108C6C00002010BD38B504460D46FFF785FFF0B166
:108C7C0004212046FEF72AFA042805D1A9B2204681
:108C8C00BDE83840FEF75ABA02212046FEF71EFA1C
:108C9C0002280CD12046FEF729FA012801D004281D
:108CAC0005D129462046BDE83840FEF757BA38BDF5
:108CBC0070B504460D461646FFF75EFF98B10221CB
:108CCC002046FEF703FA02280DD12046FEF70EFAD5
:108CDC00012801D0042806D1324629462046BDE899
:108CEC007040FEF743BA70BD10B5074C2368DB0724
:108CFC0008D42046FBF7CFF920B1FEF7BFF9204688
:108D0C00FBF7CEF9014810BD1CE7032020E7032038
:108D1C0070B5044614252A46094E002100F0E5F9E9
:108D2C00258020253146A5602561284600F06FF886
:108D3C0031466060284600F06AF8E060204670BD5D
:108D4C00A4A60D0030B50E4D296811F0010487B0B2
:108D5C0013D12846FBF79FF978B101A8FFF7D8FF8C
:108D6C0001AA21460748FFF70FF82846FBF798F9A8
:108D7C00054A0649034800F02BF8024807B030BDFD
:108D8C0024E7032028E7032014CA03203D7D0D00AF
:108D9C0038B50B4D296811F001040FD12846FBF7AB
:108DAC007AF958B121460748FFF734FB2846FBF700
:108DBC0077F9054A0549034800F00AF8014838BD1F
:108DCC0048E703203CE7032014CA032011840D005C
:108DDC000B460146184600F06FB9FBF758B9000076
:108DEC00024B1868BFF35F8F704700BF4CE703203E
:108DFC0010B5002814BF044601242046FEF7CCFB16
:108E0C0020B9FFF7EDFF08B18047F6E710BDFFF77B
:108E1C00EFBF08B5FEF7E8FB244B1A68D0075CBF20
:108E2C0001221A60224B1A68D1075CBF01221A601A
:108E3C00204B1A68D2075CBF01221A601E4B1A68BD
:108E4C00D0075CBF01221A601C4B1A68D1075CBFAB
:108E5C0001221A601A4B1A68D2075CBF01221A60F1
:108E6C00184B1A68D0075CBF01221A60164B1A689F
:108E7C00D1075CBF01221A60144B1A68D2075CBF81
:108E8C0001221A60124B1A68D0075CBF01221A60CB
:108E9C00104B1A68D1075CBF01221A600E4B1A687E
:108EAC00D2075CBF01221A60704700BF7CE7032029
:108EBC0078E7032074E7032070E703206CE70320B6
:108ECC0068E7032064E7032060E703205CE70320E6
:108EDC0058E7032054E7032050E70320184B1A6887
:108EEC00D1075CBF01221A60164B1A68D2075CBF0F
:108EFC0001221A60144B1A68D0075CBF01221A6059
:108F0C00124B1A68D1075CBF01221A60104B1A6809
:108F1C00D2075CBF01221A600E4B1A68D0075CBFE7
:108F2C0001221A600C4B1A68D1075CBF01221A602F
:108F3C000A4B1A68D2075CBF01221A60704700BF47
:108F4C009CE7032098E7032094E7032090E7032095
:108F5C008CE7032088E7032084E7032080E70320C5
:108F6C00184B1A68D1075CBF01221A60164B1A689D
:108F7C00D2075CBF01221A60144B1A68D0075CBF81
:108F8C0001221A60124B1A68D1075CBF01221A60C9
:108F9C00104B1A68D2075CBF01221A600E4B1A687C
:108FAC00D0075CBF01221A600C4B1A68D1075CBF5A
:108FBC0001221A600A4B1A68D2075CBF01221A60A0
:108FCC00704700BFBCE70320B8E70320B4E70320D9
:108FDC00B0E70320ACE70320A8E70320A4E70320B5
:108FEC00A0E70320244B1A68D0075CBF01221A604B
:108FFC00224B1A68D1075CBF01221A60204B1A68F9
:10900C00D2075CBF01221A601E4B1A68D0075CBFE6
:10901C0001221A601C4B1A68D1075CBF01221A602E
:10902C001A4B1A68D2075CBF01221A60184B1A68D7
:10903C00D0075CBF01221A60164B1A68D1075CBFBF
:10904C0001221A60144B1A68D2075CBF01221A6005
:10905C00124B1A68D0075CBF01221A60104B1A68B9
:10906C00D1075CBF01221A600E4B1A68D2075CBF95
:10907C0001221A60704700BFECE70320E8E70320E9
:10908C00E4E70320E0E70320DCE70320D8E7032034
:10909C00D4E70320D0E70320CCE70320C8E7032064
:1090AC00C4E70320C0E703200A22002100F050B9D6
:1090BC000A22002100F04CB910B5054C13462CB116
:1090CC000A4601460220AFF3008010BD204610BDB9
:1090DC000000000010B5431E0A44914204D011F860
:1090EC00014B03F8014FF8E710BD024403469342CD
:1090FC0002D003F8011BFAE77047000038B5124B99
:10910C001C68A36B0546D3B91820FEF745FA43F249
:10911C000E33A06303804AF6CD33438041F23423EF
:10912C0083804EF26D63C3804DF6EC63038105239F
:10913C0043810B23838101220023C0E90423A36B09
:10914C0000221D615A6138BD10CA032010B50246B9
:10915C00134601321C78002CFAD1013B11F8012B7B
:10916C0003F8012F002AF9D110BDC9B2034610F83B
:10917C00012B1AB19142F9D11846704700290CBF46
:10918C0018460020704710F8012B11F8013B012AFA
:10919C0028BF9A42F7D0D01A7047034611F8012B1A
:1091AC0003F8012B002AF9D170470000024B01464D
:1091BC00186800F003B800BF10CA032070B506464B
:1091CC0008460C4600F00DF8451C29463046FEF7C3
:1091DC0013FA064618B12A462146FFF77BFF3046A4
:1091EC0070BD034613F8012B002AFBD1181A013865
:1091FC00704730B582B1451E013915F8013F11F8A1
:10920C00014FA34206D1EC431444E04201D0002BA1
:10921C00F3D11C46181B30BD104630BD10B50346AB
:10922C0042B111F8014B03F8014B013A002CF7D174
:10923C001A4400E010BD934202D003F8014BFAE748
:10924C0010BD00002DE9F04780464048D0F8009052
:10925C000F463D4615F8014B09EB0400407800F031
:10926C00080000F0FF0608B12F46F2E72D2C03D1C1
:10927C00BD1C7C78012603E02B2C04BF7C78BD1C24
:10928C0013B1102B0AD15BE0302C57D1287800F0A9
:10929C00DF0058284DD16C7810230235002E14BFF6
:1092AC004FF0004C6FF0004C0027BCFBF3FA384633
:1092BC0003FB1ACC09EB040E9EF801E01EF0040F20
:1092CC0001D0303C0BE01EF0030E1BD0BEF1010FA1
:1092DC000CBF4FF0370E4FF0570ECEEB0404A342E9
:1092EC0010DDB7F1FF3F0AD0504506D801D16445D7
:1092FC0003DC03FB0040012701E04FF0FF3715F8BA
:10930C00014BD7E77B1C0CD1002E4FF0220314BF6E
:10931C004FF000406FF00040C8F800302AB9BDE8AB
:10932C00F08706B1404272B107B1691E1160BDE809
:10933C00F0873024002BB1D10823AFE70A23ADE727
:10934C00302CA3D0AAE7BDE8F08700BFACC903203E
:10935C0013460A46014602480068FFF773BF00BF78
:10936C0010CA03201D400D0059400D0085400D0012
:10937C0089400D000000000000000000000000000B
:10938C00B1420D00F5420D004D410D0000000000F2
:10939C000000000095410D00B1410D00B3400D00DF
:1093AC0000000000963007772C610EEEBA51099937
:1093BC0019C46D078FF46A7035A563E9A395649E93
:1093CC003288DB0EA4B8DC791EE9D5E088D9D297B7
:1093DC002B4CB609BD7CB17E072DB8E7911DBF9013
:1093EC006410B71DF220B06A4871B9F3DE41BE8437
:1093FC007DD4DA1AEBE4DD6D51B5D4F4C785D38393
:10940C0056986C13C0A86B647AF962FDECC9658A36
:10941C004F5C0114D96C0663633D0FFAF50D088D92
:10942C00C8206E3B5E10694CE44160D5727167A236
:10943C00D1E4033C47D4044BFD850DD26BB50AA592
:10944C00FAA8B5356C98B242D6C9BBDB40F9BCACB6
:10945C00E36CD832755CDF45CF0DD6DC593DD1AB12
:10946C00AC30D9263A00DE518051D7C81661D0BF36
:10947C00B5F4B42123C4B3569995BACF0FA5BDB892
:10948C009EB802280888055FB2D90CC624E90BB136
:10949C00877C6F2F114C6858AB1D61C13D2D66B692
:1094AC009041DC760671DB01BC20D2982A10D5EFF6
:1094BC008985B1711FB5B606A5E4BF9F33D4B8E852
:1094CC00A2C9077834F9000F8EA8099618980EE1F6
:1094DC00BB0D6A7F2D3D6D08976C6491015C63E652
:1094EC00F4516B6B62616C1CD83065854E0062F276
:1094FC00ED95066C7BA5011BC1F4088257C40FF5D2
:10950C00C6D9B06550E9B712EAB8BE8B7C88B9FCF5
:10951C00DF1DDD62492DDA15F37CD38C654CD4FB51
:10952C005861B24DCE51B53A7400BCA3E230BBD4F5
:10953C0041A5DF4AD795D83D6DC4D1A4FBF4D6D351
:10954C006AE96943FCD96E34468867ADD0B860DAF5
:10955C00732D0444E51D03335F4C0AAAC97C0DDD51
:10956C003C710550AA41022710100BBE86200CC975
:10957C0025B56857B3856F2009D466B99FE461CED1
:10958C000EF9DE5E98C9D9292298D0B0B4A8D7C7F5
:10959C00173DB359810DB42E3B5CBDB7AD6CBAC051
:1095AC002083B8EDB6B3BF9A0CE2B6039AD2B1746D
:1095BC003947D5EAAF77D29D1526DB048316DC73C9
:1095CC00120B63E3843B64943E6A6D0DA85A6A7A6D
:1095DC000BCF0EE49DFF099327AE000AB19E077DC9
:1095EC0044930FF0D2A3088768F2011EFEC20669ED
:1095FC005D5762F7CB67658071366C19E7066B6E49
:10960C00761BD4FEE02BD3895A7ADA10CC4ADD676C
:10961C006FDFB9F9F9EFBE8E43BEB717D58EB060C8
:10962C00E8A3D6D67E93D1A1C4C2D83852F2DF4F6C
:10963C00F167BBD16757BCA6DD06B53F4B36B248C8
:10964C00DA2B0DD84C1B0AAFF64A0336607A04416C
:10965C00C3EF60DF55DF67A8EF8E6E3179BE6946C8
:10966C008CB361CB1A8366BCA0D26F2536E26852EC
:10967C0095770CCC03470BBBB91602222F26055548
:10968C00BE3BBAC5280BBDB2925AB42B046AB35C6C
:10969C00A7FFD7C231CFD0B58B9ED92C1DAEDE5BC8
:1096AC00B0C2649B26F263EC9CA36A750A936D02AC
:1096BC00A906099C3F360EEB856707721357000508
:1096CC00824ABF95147AB8E2AE2BB17B381BB60C2C
:1096DC009B8ED2920DBED5E5B7EFDC7C21DFDB0B88
:1096EC00D4D2D38642E2D4F1F8B3DD686E83DA1FAC
:1096FC00CD16BE815B26B9F6E177B06F7747B71808
:10970C00E65A0888706A0FFFCA3B06665C0B0111AB
:10971C00FF9E658F69AE62F8D3FF6B6145CF6C1607
:10972C0078E20AA0EED20DD75483044EC2B30339AB
:10973C00612667A7F71660D04D476949DB776E3E07
:10974C004A6AD1AEDC5AD6D9660BDF40F03BD8372B
:10975C0053AEBCA9C59EBBDE7FCFB247E9FFB53087
:10976C001CF2BDBD8AC2BACA3093B353A6A3B424AB
:10977C000536D0BA9306D7CD2957DE54BF67D92307
:10978C002E7A66B3B84A61C4021B685D942B6F2AAB
:10979C0037BE0BB4A18E0CC31BDF055A8DEF022D07
:1097AC004552524F52207C2063616C6C6261636B3A
:1097BC005F6275666665723A2025732C2063616C56
:1097CC006C6261636B5F636F6D706C6574653A207E
:1097DC00257300524553504F4E5345207C206361F6
:1097EC006C6C6261636B5F6275666665723A2025AC
:1097FC00732C2063616C6C6261636B5F636F6D7063
:10980C006C6574653A202563005374616765206C40
:10981C00696D697420737769746368206465746515
:10982C006374656400537461676520706F73697449
:10983C00696F6E206174207A65726F005374616772
:10984C00652064697374616C206C696D6974207235
:10985C006561636865640048656174657220736551
:10986C007420746F20706F776572202564005465C6
:10987C006D706572617475726520636F6E74726F52
:10988C006C2073797374656D207374617274656484
:10989C000054656D706572617475726520636F6ECE
:1098AC0074726F6C2073797374656D2073746F7040
:1098BC007065640054656D70657261747572653A9B
:1098CC002025642E2564CB9A432C2025642E2564F8
:1098DC00CB9A4600726177203D2025642C205420C1
:1098EC003D2025642E2564CB9A432C20746172672D
:1098FC006574203D2025642E25642C206474203D45
:10990C002025642C206572726F72203D2025642CFA
:10991C0020696E74656772616C203D2025642C2073
:10992C0064657269766174697665203D2025642CC6
:10993C00206F7574707574203D202564006272650B
:10994C007669746573742D70726F64756374696F66
:10995C006E005075626C6973683A206576656E743A
:10996C00203D2025732C2075756964203D202573BE
:10997C000056616C69646174696E6720636172740E
:10998C0072696467650076616C69646174652D63E6
:10999C0061727472696467650056616C69646174A4
:1099AC00696F6E206661696C6564202D206E6F7422
:1099BC0020636F6E6E656374656420746F207468C9
:1099CC006520636C6F7564002563256325582563DA
:1099DC0025582563255825632558256300252E32E7
:1099EC0034732563256325630025732C202564209F
:1099FC0070657263656E7420636F6D706C657465F1
:109A0C002C2074656D70203D2025642E2564005338
:109A1C0074617274696E67206F70746963616C2015
:109A2C0049324320627573207363616E004932437F
:109A3C002064657669636520666F756E6420617459
:109A4C002061646472657373202558005355434339
:109A5C0045535300546573742066696E6973686569
:109A6C006400546573742066696E6973682066615E
:109A7C00696C65642100546573742063616E636561
:109A8C006C6C656400546573742063616E63656C03
:109A9C00206661696C65642100746573742D636163
:109AAC006E63656C005465737420636F6D706C65C8
:109ABC00746564005465737420636F6D706C6574A9
:109ACC006500746573742D66696E697368007265E0
