:02000002D0002C
:1040000000400D00DCA90D00000006000C000501B9
:084010000401DE0500000000C0
:04401800F4930D0010
:10401C0009480A49884208B505D0094A824202D0AB
:10402C00121A05F099F80748074A0021121A05F0F0
:10403C009EF8014808BD00BFA4C8032004A90D00C8
:10404C0050C9032050C90320F0E7032070B504F0D9
:10405C0091FD074C074BE41AA40800251E46A54207
:10406C0004D056F8253098470135F8E770BD00BFED
:10407C00F4A80D00BCA80D0001F0BCB908B502F005
:10408C0039FEBDE8084004F037BD03F0ABBA03F0CD
:10409C00B1BA03F0AFBA0078B0FA80F040097047BB
:1040AC000123037070477047014B01221A7070474F
:1040BC0040CB0320034B044A1B7883F001031360AD
:1040CC00704700BFB8C903201CCB0320014B012251
:1040DC001A707047B2D9032003681847012A02D01E
:1040EC00022A02D004E0016002E00B6800B1036018
:1040FC000020704737B50C460E480F4D05F068F898
:10410C00204605F0B0F8204410F8013CA3F123023E
:10411C00534253412B7004F06DFC2B78074A002B53
:10412C0014BF59234E2300930121024B04F041F993
:10413C0003B030BDFCD9032074D3032030980D009C
:10414C00436913B183690C301847704710B5054BA0
:10415C0000220446114640F8043B03F03DF920468A
:10416C0010BD00BF24940D0010B50446FFF7EEFF00
:10417C002046202104F073FE204610BD13B500210B
:10418C000446084602F018FF02A90023204641F815
:10419C00043D02F029FF019C0CB101232371002185
:1041AC00012002F009FF2CB1236820469B68984738
:1041BC000023237102B010BD37B50C460E480F4DCD
:1041CC0005F006F8204605F04EF8204410F8013CA6
:1041DC00A3F12302534253412B7004F00BFC2B78B8
:1041EC00074A002B14BF59234E2300930121024B85
:1041FC0004F0DFF803B030BDFCD9032074D30320E6
:10420C0066980D0010B58368044613B1032201466D
:10421C009847204610BD000008B502F025FF014B61
:10422C00186008BD18E703200368C9B29B681847DB
:10423C00F0B500258E461549057185604561016014
:10424C00044692E8030085B002AF04F10C0687E83F
:10425C00030096E8030082E8030097E8030086E871
:10426C0003009168606990606161D168A069D06059
:10427C00A1618DE82800064A2346714604F1080026
:10428C0002F0A2FE204605B0F0BD00BF10940D0058
:10429C0089410D0007B58068002340B18DE80A0004
:1042AC001A46022102F0A8FEB0FA80F0400903B0D1
:1042BC005DF804FB38B50F4B0360836804469BB173
:1042CC006FF00041FFF7E6FF0021A06802F0ACFEA2
:1042DC00237903F0FF0513B102F056FEF8E72946E7
:1042EC00A06802F079FEA56004F10C00FFF78AFFCC
:1042FC00204638BD10940D0010B50446FFF7DAFFC8
:10430C0020461C2104F0ABFD204610BD73B50646BB
:10431C000D4611461446FFF7BDFFB068002340B1AF
:10432C00019300952246194602F066FEB0FA80F021
:10433C00400902B070BD000040F67263984270B53F
:10434C001CDC0F4A002352F8044BA04203F1010578
:10435C000FDC116888420CDD0A4E56F8232056F803
:10436C0025309D1A031B6B43081B93FBF0F0104484
:10437C0070BD142D2B46E6D1002070BD184670BDC3
:10438C006CA40D0018A40D001FB50C2AA8BF0C229C
:10439C00014401A8144604F083FF04AB1C4401A89B
:1043AC00002304F80C3C04F0C1FE04B010BD30B581
:1043BC00002385B00C68055D954208BF002504F10B
:1043CC0001040DF803500C6002D001330E2BF1D117
:1043DC00684604F0ABFE05B030BD000010B5084CCB
:1043EC0001444FF0FF32884208D010F8013B534093
:1043FC00DBB254F8233083EA1222F4E7D04310BD29
:10440C0030940D00021E30B516DB9110022329B139
:10441C00914203D0023342FA03F1F8E7023B002049
:10442C004000411C42FA03F401FB01F5A542D8BF40
:10443C000846023BF4D530BD4FF0FF3030BD0000D4
:10444C0008B504F093FC4FF4697203490020BDE8F1
:10445C00084002F021BE00BF78D3032008B504F059
:10446C0085FC4FF4697203490020BDE8084002F056
:10447C001BBE00BF78D3032008B504F077FCBDE861
:10448C00084002F019BE000008B5FFF7F5FF044B19
:10449C000B221A700D225A70FF229A7008BD00BFB1
:1044AC0078D3032007B504F061FC01220DF107015C
:1044BC00002002F0F1FD9DF80730FF2B02D1FFF731
:1044CC00E3FF07E0FFF7BCFF044B1A8840F60B53E1
:1044DC009A42F4D103B05DF804FB00BF78D30320FB
:1044EC00012870B50E461D4D1BD11D4B188804F0CC
:1044FC00D1FB044640B904F07DFA1A4903F02FFFB2
:10450C00194B2C601C6016E02B68002B15DC04F09A
:10451C0071FA164903F023FF134B00202860186032
:10452C0070BD2A684AF227039A4206DD04F062FA4B
:10453C000F4903F014FF002070BD0E4C01212088A0
:10454C0004F08FFB304602F087FD0021208804F038
:10455C0088FB304602F080FD012070BDB4D90320E9
:10456C00D4C8032099980D0020CB0320B5980D00DA
:10457C00CC980D00D0C803202DE9F84F1C4BDFF868
:10458C007890C70F044688461888394604F069FBB2
:10459C00184B84EAE4711A68A1EBE47111441922F6
:1045AC00002C91FBF2F64FF0000402FB16121A607D
:1045BC00B4BF6FF0180A4FF0190A1D46A346B44257
:1045CC0013DA41463846FFF78BFF58B1D9F8003063
:1045DC005344002B02DDC9F8003004E0C9F800B0E8
:1045EC00C5F800B034460134E9E7BDE8F88F00BFE8
:1045FC00ACC8032020CB0320B4D90320024B0021EC
:10460C00188804F02EBB00BFE0C8032008B5054B8A
:10461C000121188804F025FB0A20BDE8084003F0AE
:10462C0019B800BFE0C8032038B504460D46FFF7A3
:10463C00EDFF29462046FFF79FFFBDE83840FFF706
:10464C00DDBF0000134B10B54AF228021A60044675
:10465C00FFF7DCFF96211048FFF78EFF642002F075
:10466C00F9FF96214FF4FA60FFF786FF642002F001
:10467C00F1FF4FF47A710948FFF77EFF4FF47A711E
:10468C0042F63020FFF778FF1CB1BDE81040FFF771
:10469C00B5BF10BDB4D90320A015FFFF48F4FFFF30
:1046AC0038B5064C80F3080544F62062294620886C
:1046BC0004F040FB0123E560237238BD54C903208C
:1046CC0010B5044C0021208804F00EFB002323724B
:1046DC00E36010BD54C9032070B5044602F0C4FC5D
:1046EC000F4D84F30804064644F6206221462888C0
:1046FC0004F020FB002C14BF01230023EC602B7270
:10470C0009D0084B1B7833B104F074F92346064AE0
:10471C00012103F04EFE02F0A7FC801B70BD00BF10
:10472C0054C9032071CB0320E7980D00024B0146BE
:10473C00188804F0D9BA00BFA4C80320024B014664
:10474C00188804F0D1BA00BFB0C80320024B014650
:10475C00188804F0C9BA00BFB4C803200346412B23
:10476C00084601D1FFF7E2BF312B01D1FFF7E6BFBD
:10477C00322B01D1FFF7EABF70470000024B00213A
:10478C00188804F0B1BA00BFA4C80320024B002162
:10479C00188804F0A9BA00BFB0C80320024B00214E
:1047AC00188804F0A1BA00BFB4C80320412801D175
:1047BC00FFF7E4BF312801D1FFF7E8BF322801D160
:1047CC00FFF7ECBF704710B504460846FFF7AEFF85
:1047DC00204602F03FFFBDE81040FFF7CFBF10B5F9
:1047EC0004460846FFF7AAFF204602F033FFBDE857
:1047FC001040FFF7CBBF10B504460846FFF7A6FFE5
:10480C00204602F027FFBDE81040FFF7C7BF38B5C0
:10481C000C4605460846FFF789FF2046FFF78EFF3A
:10482C002046FFF793FF284602F014FFFFF7A6FF80
:10483C00FFF7ACFFBDE83840FFF7B0BF08B504F098
:10484C00C3FA03F026FB88B904F0BEFA084903F05A
:10485C00D3FA04F0B9FA03F0D3FA642002F0FAFEAA
:10486C0004F0B2FABDE8084003F013BB08BD00BF6A
:10487C00A086010008B504F0A7FABDE8084003F0D3
:10488C00C5BA000008B5074B074800226FF000417D
:10489C00DA61FFF73BFD04F0ADF80449BDE80840D0
:1048AC0003F05DBD54C9032024CB0320FE980D00FA
:1048BC0008B56FF000410648FFF7ECFC0020FFF74D
:1048CC000BFF04F097F80349BDE8084003F047BD1F
:1048DC0024CB032021990D0038B5114C00212088E0
:1048EC0004F002FAA08804F0E8F9E1680546208893
:1048FC0004F0FAF91DB9FFF7DBFF00250EE028469E
:10490C00FFF71AFD052200EBC003B0F5167F93FBF1
:10491C00F2F303F5A0732062A362ECDC284638BDE9
:10492C0054C903202DE9F0432F4E8BB0F56802F0EB
:10493C009BFBF769C7EB0009B9F57A7F80463446D3
:10494C004ED3FFF7C9FFC6F81C808046002847D01D
:10495C0017B97761B76143E0336A776AB569E26A80
:10496C00FF1A4FF47A7107FB09F393FBF1F31D4423
:10497C00B5617669636BBE1B6B434E437A43216B07
:10498C00A56B92FBF1F193FBF5F56A18E56B236CC3
:10499C0096FBF9F6754395FBF3F5144B1B78154410
:1049AC00EBB104F027F8D4F820E0636A0895079679
:1049BC00A16906910A2293FBF2F102FB11330393D6
:1049CC009EFBF2F302FB13E2029101920093059716
:1049DC00CDF810904346064A012103F0EAFC6761CA
:1049EC0028460BB0BDE8F08354C9032071CB0320DB
:1049FC0064990D00274A2DE9F3410346044600F162
:104A0C001807164618685968154603C50833BB4283
:104A1C002A46F7D10027204D37762068616886F842
:104A2C0024702B4602AE03C3192346F8043D7C22A6
:104A3C00314620462F72FFF7BAFC314668727C2251
:104A4C002046FFF7B4FC314680467C222046FFF717
:104A5C00AEFC3146E8607C222046FFF7A8FC0199A9
:104A6C00288286B23246214405F1120004F018FC6B
:104A7C00AB19314605F112009F74FFF7AFFC00280B
:104A8C00B8BF4042C8EB00035842584102B0BDE8E1
:104A9C00F08100BF2CCA032074CB0320F0B505466F
:104AAC0095B00E4601682B4804F0B9FB2A4A2B49F5
:104ABC00002313702A4A04A8137003F029FD294619
:104ACC000CA8049C03F063FD7C2108A803F083FD73
:104ADC0008A90CA803F0A7FD3146074610A803F05F
:104AEC0017FD10A9384603F09EFD1E4B026819787D
:104AFC001D4B1B780B438DF8003021463C2302A83C
:104B0C0002F07CFF039C7CB16368013B63605BB982
:104B1C00236820469B689847A368013BA3601BB998
:104B2C0023682046DB68984710A803F0AAFC08A865
:104B3C0003F0A7FC0CA803F0A4FC04A803F0A1FC50
:104B4C0003F058FF00962B68084A012103F031FC52
:104B5C0015B0F0BD90D9032074D30320CD990D006E
:104B6C00FCD90320DCC9032001CA0320E2990D0003
:104B7C007FB503F03FFF1449144E154D03F0EFFBC6
:104B8C0002F0B0FC0446B0B10123337002F06CFAB1
:104B9C00104B114900F51C5010301860002368466A
:104BAC002B7003F0B5FC68460C49FFF777FF68469D
:104BBC0003F067FC06E003F01DFF094903F0CFFB8F
:104BCC0034702C7004B070BD019A0D00DEC9032046
:104BDC005CD3032024CA0320169A0D00BCD90320F1
:104BEC00299A0D00F8B50C4F06460024251D3D44AE
:104BFC0029461822304604F03EFB014638B92846B7
:104C0C00E82204F0B4FABDE8F840FFF727BCE8341A
:104C1C00B4F5687FEAD1F8BD78D30320F0B5002451
:104C2C00084F4454851A1446A01A884204F1010016
:104C3C0007DAE65D9E4208BF00262E5501D00446D9
:104C4C00F2E7F0BDFCD90320034BE82202FB003055
:104C5C000021043004F08BBA78D3032008B50A4B3A
:104C6C0000201870FFF7F0FF0120FFF7EDFF022086
:104C7C00FFF7EAFF0320FFF7E7FF044BFF229A70D0
:104C8C00BDE80840FFF7EABB28CA032078D303200D
:104C9C0038B5074C0749E822054602FB00400430B2
:104CAC0004F05AFAA570BDE83840FFF7D7BB00BF37
:104CBC0078D303202CCA032010B58AB03A230A7883
:104CCC000993CB8908932C2307938C89069405931D
:104CDC004C89049403930C8902940193044C496805
:104CEC0000912044034902F095FC0AB010BD00BFAE
:104CFC001CD70320589A0D002DE9FF41174FE826C9
:104D0C004643BA197C230393516A02910193116AA9
:104D1C00009104321249134802F07CFC0025044631
:104D2C0006F12C08AB193B4493F82C30412B02D0E4
:104D3C00313B012B06D808EB050120463944FFF71F
:104D4C00BBFF04441035C02DECD1064B1C44012094
:104D5C00002304F8013C04B0BDE8F08178D30320B3
:104D6C00719A0D001CD7032010B5084B9C78FF2CB2
:104D7C001ABF013404F0030400242046FFF788FF17
:104D8C002046BDE81040FFF7B7BF00BF78D3032023
:104D9C0070B5164B1B780E4633BB154B1A18927C0C
:104DAC007C2A21D03A2A1CD00446B4F5FA6F1ADAC0
:104DBC001A19927C3A2A06D1221A01460D48FFF79D
:104DCC00E3FA30600FE02C2A04F1010507D1221A16
:104DDC0001460848FFF7D8FA3060284670BD2C46CB
:104DEC00E3E7013070BD204670BD00BFB1D9032090
:104DFC0074CB032086CB032030B50029054685B043
:104E0C0019481A4C01D1016018E0194BDA684FF4BB
:104E1C007A7303FB02F204DA4FF0FF330260236073
:104E2C000DE00368194464230160594391FBF2F1CE
:104E3C009942A8BF19462368994200D0216003F01B
:104E4C00D9FD0C4B196A0A2391FBF3F203FB1213E5
:104E5C000293236801920093074A2B68012103F007
:104E6C00A8FA05B030BD00BF04CA032060D30320EC
:104E7C0074CB032054C90320819A0D0010B502F0A5
:104E8C00F3F80A4B1B7804461BB9FFF74BFDFFF7F1
:104E9C0023FC074B188803F0FDFE431E5842584173
:104EAC00044B187002F0E0F8001B10BDB8C90320C9
:104EBC00C0C80320B1D903202DE9F047DFF83CA08E
:104ECC0005460E4690461F460024C0F10009444595
:104EDC0012DA31462846FFF74FFB0FB1FFF7CEFF32
:104EEC0031464846FFF748FB0FB1FFF7C7FF9AF86A
:104EFC0000300BB90134EAE7BDE8F087B1D90320E3
:104F0C004FF4FA7370B590FBF3F6002503FB16040F
:104F1C00B54207DAFFF7B2FFC0F5FA7002F09AFB60
:104F2C000135F5E7FFF7AAFF844204DD201ABDE83E
:104F3C00704002F08FBB70BDF0B516464A1C85B0B0
:104F4C0007460D4602D133600C4621E00A462C215F
:104F5C0003F09FFB431C04460CD12A463946684695
:104F6C0003F0C6FB684603F0CAFB3060684603F0EA
:104F7C0088FA0DE003462A463946684603F098FB4A
:104F8C00684603F0BCFB3060684603F07AFA0134E3
:104F9C00204605B0F0BD000010B50120FFF74EFC17
:104FAC0018B9BDE81040FFF765BC03F023FD0F49AD
:104FBC0003F0D5F9002403F007FF214602F05FFF50
:104FCC0003F002FF0021FFF72FF903F0FDFE02F0C2
:104FDC005DFF30B903F00EFD2346054A012103F0B5
:104FEC00E8F901347F2CE6D1DBE700BFA79A0D006E
:104FFC00C59A0D00134A144908B500231370134ABF
:10500C000B701370124A0B721370124A1370124AFF
:10501C001370124A1360124A1360124A13701376FB
:10502C00114A1370137682F82430104A137082F8E8
:10503C006E3202F019F80E4B00F56A4060301860C1
:10504C0008BD00BFBBC9032074CB0320B9C9032022
:10505C005CD3032074D30320B8C9032004CA0320F3
:10506C0060D30320BCD903202CCA03201CD70320F7
:10507C0008CA032010B507220D490E4804F0FBF8AE
:10508C00044670B903F0B6FC0B4903F068F90B4BFE
:10509C0001201C70FFF7D6FAFFF7ACFF084B1C6021
:1050AC0010BD03F0A7FC0749BDE8104003F057B949
:1050BC00E49A0D000DCA0320EC9A0D0070CB03206E
:1050CC0008CA0320FA9A0D0010B507220D490E48A4
:1050DC0004F0D1F8044670B903F08CFC0B4903F0D2
:1050EC003EF90B4B01201C70FFF7ACFAFFF782FF67
:1050FC00084B1C6010BD03F07DFC0749BDE8104057
:10510C0003F02DB9E49A0D000DCA03200E9B0D007F
:10511C0018CB032008CA03201D9B0D001FB5154C8E
:10512C0003F068FC214603F01AF9134B01221A70A4
:10513C0001F09AFF114B00F51C50103018602146FD
:10514C00684603F0E5F94FF0FF316846FFF754FE6F
:10515C00684603F096F90A49684603F0D9F90949FB
:10516C006846FFF79BFC684603F08BF9FFF746FA9D
:10517C0004B010BD0E9B0D0018CB0320B4C9032046
:10518C00319B0D002CCA03201FB503F033FC1449CE
:10519C0003F0E5F8134B01221A7001F065FF124B76
:1051AC00124900F51C5010301860684603F0B0F935
:1051BC004FF0FF316846FFF71FFE684603F061F9B8
:1051CC000B49684603F0A4F90A496846FFF766FCE8
:1051DC00684603F056F9FFF711FA05B05DF804FBC9
:1051EC003D9B0D0070CB032020CA03204C9B0D006F
:1051FC005A9B0D002CCA032070B50E46044615466A
:10520C0003F01EFD012E05D129462046BDE8704055
:10521C0003F06ABD70BD70B50E460446154603F02A
:10522C000FFD012E05D129462046BDE8704003F044
:10523C0018BD70BD30B500238BB0042253495448BF
:10524C00544D02F027F9544A5449554802F0B6FA25
:10525C0006A802F04FF906A9284603F0A3F906A800
:10526C0003F00FF9294602A803F091F94D4902A861
:10527C0003F0E5F90024014606A803F088F923465B
:10528C002246494901940094069802F043F906A875
:10529C0003F0F7F802A803F0F4F8294602A803F08B
:1052AC0076F9424902A803F0CAF9014606A803F0B0
:1052BC006EF9224623463E4901940094069802F06A
:1052CC0029F906A803F0DDF802A803F0DAF8394B47
:1052DC000221188803F0B4FC374B0221188803F024
:1052EC00AFFC364B012211461888FFF794FF344B64
:1052FC002146188803F0A4FC324B22461888012161
:10530C00FFF77AFF304B224618880121FFF774FF14
:10531C002E4B224618880121FFF76EFF2C4B21469D
:10532C00188803F08DFC2B4B2146188803F088FC61
:10533C00294B2146188803F083FC284B22461888F9
:10534C000121FFF768FF264B224618880121FFF741
:10535C0062FF244B224618880121FFF75CFF224B89
:10536C00802218880121FFF747FF204B224618881E
:10537C000121FFF741FF1E4B224601211888FFF740
:10538C003BFFFFF78FF80BB030BD00BF1CD70320DD
:10539C00669B0D0064D303206F9B0D00BD690D004F
:1053AC009D770D00789B0D0001410D009D9B0D001C
:1053BC00C5410D00D4C80320C0C80320D8C80320A1
:1053CC00DCC80320A4C80320B0C80320B4C8032041
:1053DC00C8C80320CCC80320BCC80320E0C80320E5
:1053EC00D0C80320ACC80320B8C80320C4C803200D
:1053FC00A8C8032008B5FFF71DFF03F0FBFA4FF414
:10540C00E13103F0EBFA034B01221A70024B00223C
:10541C001A6008BD0CCA032014CB032030B5144B02
:10542C00144D1A7885B01C4622B101F01DFE2B6874
:10543C0083421AD201F018FE00F5EA4030302860A1
:10544C0041F2883002F006F902F04CF868B1012301
:10545C0009492370684603F05BF8084B68461968E5
:10546C00FFF71CFB684603F00CF805B030BD00BF1D
:10547C00BAC9032014CB0320BF9B0D0064D30320B7
:10548C0007B5009313460A46012102F092FF03B0C0
:10549C005DF804FB38B50A4B1B7805460C4633B156
:1054AC0003F0A8FA23462A460649FFF7E9FF064B04
:1054BC002A4621461878BDE8384003F097B900BF5A
:1054CC0071CB0320CF9B0D00C4C8032008B54FF44B
:1054DC008371FA20FFF7DEFF642002F0BBF84FF473
:1054EC009371FA20FFF7D6FF642002F0B3F84FF463
:1054FC00A571FA20FFF7CEFF642002F0ABF840F262
:10550C005D11FA20FFF7C6FF642002F0A3F84FF4F8
:10551C00C471FA20FFF7BEFF642002F09BF84FF431
:10552C00DC71FA20FFF7B6FF642002F093F84FF419
:10553C00F771FA20FFF7AEFF642002F08BF840F20F
:10554C000B21FA20BDE80840FFF7A4BF73B5044651
:10555C0003F03AFC214602F08EFC03F035FC0021EE
:10556C00FEF762FE064603F02FFC002102F08AFCD7
:10557C00054630B103F03EFA2B4632461549FFF78B
:10558C007FFF03F021FC2146042202F071FC03F0A2
:10559C001BFC03685B699847044603F015FC036821
:1055AC005B6998470C4B1B78054643B103F022FA14
:1055BC00E3B20093094AEBB2012102F0FAFE6A074A
:1055CC0004D4E0B2C31E5842584100E0002002B09F
:1055DC0070BD00BF019C0D0071CB0320229C0D00FF
:1055EC007FB5124B1C680D46041B064610496846D5
:1055FC0002F08EFF84EAE473A3EBE4736B4368461A
:10560C0046F2A81193FBF1F1FFF7F6FB684602F0A6
:10561C0038FF03F0EFF9234632460649FFF730FF17
:10562C0029462046FEF7A8FF04B070BDB4D903206C
:10563C00389C0D00539C0D00962144F25060FFF7EE
:10564C00CFBF962142F63020FFF7CABF13460A4659
:10565C00012102F0AEBE00002DE9F347444C237843
:10566C000646884615462BB103F0C4F9324641492B
:10567C00FFF7ECFF03F0A8FB294602F000FC03F057
:10568C00A3FB0021FEF7D0FD824603F09DFB022117
:10569C00FEF7CAFD074603F097FB012102F0F2FB6F
:1056AC00814650B1574403F0A5F9CDF8049000970A
:1056BC003346314A012102F07CFE03F085FB29467A
:1056CC0002F0DDFB03F080FB0621FEF7ADFD824608
:1056DC0003F07AFB03685FFA88F19B6898470746EA
:1056EC0003F072FB012102F0CDFB814650B157440F
:1056FC0003F080F9CDF80490009733461E4A01213F
:10570C0002F057FE03F060FB294602F0B8FB03F0F1
:10571C005BFB0621FEF788FD074603F055FB0021D5
:10572C0002F0B0FB064630B103F064F933463A465A
:10573C001249FFF7A5FE03F047FBE9B2012202F084
:10574C0097FB054603F040FB03685B699847237899
:10575C0006464BB103F04EF90196CDF800802B466E
:10576C00074A012102F025FE02B0BDE8F08700BF18
:10577C0071CB03207E9C0D009C9C0D00019C0D00A8
:10578C00C39C0D002DE9F341554D564E564F012348
:10579C002B7003F02FF9554902F0E1FD03F0A2F84C
:1057AC004FF4165103F094F803F024F9504902F029
:1057BC00D6FD0021308803F054FA01F055FC00F5B9
:1057CC009C5403F017F94B4902F0C9FD0834388892
:1057DC0003F060FA804603F00DF92E2102F0B0FDC3
:1057EC00FEF71AFD01F066FEC82001F033FFB8F198
:1057FC00010F03D001F038FCA042E8D303F0FAF813
:10580C00074603F06FF803681B699847002814BF1C
:10581C0059224E2238493846FFF718FF01213088AB
:10582C0003F01FFA03F0E6F8344902F098FD03F098
:10583C0059F803681B69984740B901F015FC84427C
:10584C0004D9FEF7E9FC01F035FEF0E7642001F025
:10585C0001FF03F0CFF82A492A4E02F080FD002404
:10586C0003F0C8F82E2102F06BFD03F03BF803683F
:10587C005B699847431C1CBF3055013403F032F868
:10588C0003681B69984708B1172CE9DD03F0B2F8DF
:10589C0002F059FD172C1B4A09DC1B4B114603F176
:1058AC00180053F8046B41F8046B8342F9D10026BD
:1058BC00167603F09FF8134B144A0094012102F062
:1058CC0078FD03F00FF803F006F803F093F8104995
:1058DC0002F045FD20462E7002B0BDE8F08100BFFD
:1058EC0041CB0320D8C80320DCC80320E69C0D0064
:1058FC00F99C0D00109D0D00219D0D004A9D0D0081
:10590C00A89D0D00BCD90320609D0D00799D0D0054
:10591C00919D0D0070B58EB00025014606460AA873
:10592C0007950895099502F032FE2B4606AA2946E2
:10593C000AA8FFF701FB04460AA802F0A2FD069B89
:10594C00013B202B00F24C82DFE813F021002400F5
:10595C00280057004A0286008B00A600AB00CD0041
:10596C00EE0010013101530176017B0195019A0182
:10597C00AB01AE01B101B401B8014A024A024A02BC
:10598C00BB01D4010A0211024A024A021502FFF7B6
:10599C0065F925E20120FEF755FE1EE231460AA804
:1059AC0002F0F5FD002307AA21460AA8FFF7C4FA66
:1059BC0004460AA802F065FD31460AA802F0E7FD8C
:1059CC004FF47A7308AA21460AA8FFF7B5FA0AA879
:1059DC0002F057FD08990798BB4CFEF725FE03F023
:1059EC0009F8BA4BBA4A1B6801932368009301214A
:1059FC00079B02F0DEFC2468F3E1FEF707FEFFF7DD
:105A0C001BFEFEF7FBFDB34B002231460AA883F8C0
:105A1C00242002F0BCFDB62307AA21460AA8FFF7F2
:105A2C008BFA04460AA802F02CFD31460AA802F0B3
:105A3C00AEFDFF2308AA21460AA8FFF77DFA0AA8A3
:105A4C0002F01FFDA44B079C1C60A44B089A1A6023
:105A5C00A34B01221A70C4E1FEF70EFD02F068FEA2
:105A6C0083E131460AA802F092FD07AA21464FF4C1
:105A7C00B9730AA8FFF760FA0AA802F002FD02F057
:105A8C00B9FF984B196A0A2391FBF3F203FB12132B
:105A9C009549FFF7F5FC24E0FEF7F6FC934B5C7898
:105AAC009FE131460AA802F072FD4FF4FA7307AA7F
:105ABC0021460AA8FFF740FA04460AA802F0E1FCC6
:105ACC0031460AA802F063FD2146FF2308AA0AA862
:105ADC00FFF732FA0AA802F0D4FC08990798FEF7EF
:105AEC0072FE079C7DE131460AA802F050FD07AA20
:105AFC004FF4FA7321460AA8FFF71EFA04460AA8C7
:105B0C0002F0BFFC31460AA802F041FD2146FF23FA
:105B1C0008AA0AA8FFF710FA0AA802F0B2FC089922
:105B2C000798FEF75CFE1FE031460AA802F02FFD35
:105B3C004FF4FA7307AA21460AA8FFF7FDF90446A9
:105B4C000AA802F09EFC31460AA802F020FD21466C
:105B5C00FF2308AA0AA8FFF7EFF90AA802F091FCA4
:105B6C0008990798FEF747FE089C3AE131460AA8C7
:105B7C0002F00DFD07AA4FF4FA7321460AA8FFF7AD
:105B8C00DBF904460AA802F07CFC31460AA802F0B4
:105B9C00FEFC2146FF2308AA0AA8FFF7CDF90AA8A4
:105BAC0002F06FFC08990798FEF731FEDCE73146EE
:105BBC000AA802F0ECFC07AA4FF4167321460AA8B7
:105BCC00FFF7BAF904460AA802F05BFC31460AA8B2
:105BDC0002F0DDFC21464FF47A7308AA0AA8FFF7FD
:105BEC00ABF90AA802F04DFC08990798FFF752FC94
:105BFC0077E731460AA802F0CAFC07AA002321461F
:105C0C000AA8FFF799F904460AA802F03AFC3146B3
:105C1C000AA802F0BCFC21464FF47A7308AA0AA821
:105C2C00FFF78AF90AA802F02CFCFEF7EFFC0899A2
:105C3C000798FFF7D5FCCEE0FEF7E8FCFFF701FD77
:105C4C00C9E031460AA802F0A2FC4FF4B97307AAC6
:105C5C0021460AA8FFF770F90AA802F012FC079C6B
:105C6C0040F25623621E9A4200F2BB801D4B00226A
:105C7C005C62DA61B5E0FEF7C9FCFFF7DDFCAAE077
:105C8C0031460AA802F083FC802307AA21460AA801
:105C9C00FFF752F90AA802F0F4FB0798FEF700FD93
:105CAC001FE7FEF70DFD60E0FEF7ECFD5DE0FEF793
:105CBC00FFFD5AE00E4B01241C7092E00C4B1D7042
:105CCC008EE0FFF769F950E0B4D9032020CB032014
:105CDC00C59D0D002CCA03208CD9032058D303205A
:105CEC0040CB032054C90320F49D0D0078D303202E
:105CFC0071CB0320FEF78AFCFFF79EFCFEF77EFCBF
:105D0C0031460AA802F043FC07AAB62321460AA88A
:105D1C00FFF712F904460AA802F0B3FB31460AA8B1
:105D2C0002F035FC08AA2146FF230AA8FFF704F964
:105D3C000AA802F0A6FB354B0799354800221A70C9
:105D4C00344B83F82420344B1960344B0899196078
:105D5C00334B01246FF000411C70FEF7D7FA40E082
:105D6C006FF000412A48FEF795FA012439E0FFF75D
:105D7C0009FD044635E031460AA802F008FC192357
:105D8C0007AA21460AA8FFF7D7F804460AA802F08A
:105D9C0078FB31460AA802F0FAFB962308AA2146A2
:105DAC000AA8FFF7C9F804460AA802F06AFB3146B4
:105DBC000AA802F0ECFB0A2309AA21460AA8FFF75D
:105DCC00BBF80AA802F05DFBFEF720FC07A8002335
:105DDC0007C8FFF771F8FEF711FC124B1C6800E0C6
:105DEC00002402F007FE002305930493099B039300
:105DFC00089B0293079B01930094069B0A4A01217E
:105E0C0002F0D7FA20460EB070BD00BF71CB032054
:105E1C0098C903202CCA03208CD9032058D3032003
:105E2C0040CB0320B4D90320099E0D0010B51A4BAA
:105E3C00188802F02FFF194B00280CBF01220022FA
:105E4C004FF4AF711A701C4607D14FF41670FFF760
:105E5C0021FB134B01221A7012E0C820FFF71AFB2A
:105E6C00C82001F0F7FB4FF4AF71C820FFF712FB0D
:105E7C00C82001F0EFFB4FF4AF71C820FFF70AFB0D
:105E8C0002F0B8FD23780749002B14BF59224E228B
:105E9C00FFF7DCFB10BD00BFC0C8032075D3032087
:105EAC00DDC90320539E0D0010B51B4B1A7892B11F
:105EBC001A4C227852B1002222701A7002F09AFD0C
:105ECC00174902F04CFAFFF7B1FF04E0322001F061
:105EDC00C1FB01232370134B1C785CB101F0C4F897
:105EEC00114B1B68984216D902F084FD0F4902F041
:105EFC0036FA0AE00E4B1A786AB11C700D4B1B78FF
:105F0C004BB1FFF73FFC182803D1BDE81040FEF75A
:105F1C002FBE094B1C7010BDB2D9032002CA03203E
:105F2C00689E0D00DEC9032024CA0320809E0D004C
:105F3C00DDC9032075D303205CD3032013460A4626
:105F4C00002102F036BA00002DE9F347054617464A
:105F5C0098460E4602F038FF294601F08CFF02F0FD
:105F6C0033FF0021FEF760F9824602F02DFF8321FA
:105F7C00FEF75AF9044602F027FF012101F082FFD7
:105F8C00814660B1544402F035FDCDF80490009484
:105F9C002B46754A012102F00CFA0020E0E001F0DA
:105FAC0063F800F59C5909F108092846FFF7CEFA69
:105FBC0070B901F059F8484503D2642001F04AFB4E
:105FCC00F3E702F017FD2A466849FFF73FFBE4E7C9
:105FDC00674C23782BB102F00DFD2A466549FFF77B
:105FEC0035FB02F0F1FE294601F045FF02F0ECFE14
:105FFC000021FEF719F9824602F0E6FE002101F0BD
:10600C0041FF814630B102F0F5FC4B4652465A49ED
:10601C00FFF736FA02F0D8FE29460A2201F028FFD3
:10602C0002F0D2FE03685B699847054602F0CCFE8D
:10603C0003685B699847237881464BB1EDB202F057
:10604C00D9FC00955FFA89F34C4A012102F0B1F9B1
:10605C0002F0BAFE03685B6998472378C5B22BB18E
:10606C0002F0C8FC2A464649FFF768FF02F0ACFE76
:10607C0003685B6998472378814633B102F0BAFC18
:10608C005FFA89F23E49FFF759FF4FEA092909F4F3
:10609C007F4914234D4495FBF3F50A9B433D1D802A
:1060AC0002F092FE03685B6998472378C5B22BB166
:1060BC0002F0A0FC2A463249FFF740FF02F084FEB2
:1060CC0003685B69984723785FFA80F92BB102F07B
:1060DC0091FC4A462A49FFF731FF05EB092535802B
:1060EC0002F072FE03685B6998472378C5B22BB146
:1060FC0002F080FC2A462249FFF720FF02F064FEE2
:10610C0003685B6998472378C6B22BB102F072FC26
:10611C0032461B49FFF712FF05EB06253D8002F0C6
:10612C0053FE03685B6998472378C5B22BB102F024
:10613C0061FC2A461249FFF701FF02F045FE036895
:10614C005B6998472378C6B22BB102F053FC3246F8
:10615C000B49FFF77BFA05EB0625A8F80050012048
:10616C0002B0BDE8F08700BFC59E0D00259F0D0055
:10617C0071CB0320F59E0D00019C0D00229C0D009F
:10618C00219F0D002DE9F04F91B0412806460B914F
:10619C0017460AD031280BD032280CD002F02AFC3A
:1061AC0032466049FFF752FAB9E04FF0740904E047
:1061BC004FF0750901E04FF076095B4C94F82430F0
:1061CC000C25B3FBF5F005FB1030013384F82430BB
:1061DC00564B01221A705FFA80FBFEF771FA3946B2
:1061EC003046FEF7BBFA642001F034FA4A460B99AC
:1061FC003046FFF731FA04EB0B130C9383F828604D
:10620C0000F032FF0C9B4FF000080522D86283F897
:10621C002920474645464446C2460C990C9B91F8AA
:10622C002910414A8A4503F1290320DA0EAB009369
:10623C000FAA0DF13E030DF13A014846FFF784FE1B
:10624C0060B1BDF83A301C44BDF83C301D44BDF87B
:10625C003E301F44BDF83830984405E002F0CAFBCC
:10626C0032463349FFF7F2F90AF1010AD5E70BF18F
:10627C00030A4FEA0A1A02EB0A0995FBF1F5A9F891
:10628C000250ADB294FBF1F46D4322F80A4097FB37
:10629C00F1F7A4B204FB0450A9F80470BFB298FB48
:1062AC00F1F807FB0700A9F806800D930C92FEF796
:1062BC00A9F8054602F09EFBADB2044600F0D4FEF0
:1062CC000895B9F804100791B9F802100C9A0691C8
:1062DC0032F80A2005921FFA88F808EBC808052244
:1062EC0098FBF2F2203292B20492B9F806200D9B80
:1062FC0003921B7802930F4BB0FBF3F202FB1300DB
:10630C000B9B019000930C4A33460121204602F06E
:10631C0050F8064B002230461A70FEF747FA11B0BF
:10632C00BDE8F08F409F0D002CCA0320B8C9032094
:10633C005C9F0D0040420F00839F0D002DE9F04142
:10634C0005460E46144600F08FFE07460120FEF768
:10635C0075FAE0B1324629464120FFF713FF0CB124
:10636C00FEF78CFD324629463120FFF70BFF0CB1AE
:10637C00FEF784FD324629463220FFF703FF0CB1AD
:10638C00FEF77CFD02F036FB01F0DDFF04E002F0CD
:10639C0031FB0B4901F0E3FFFEF76CFA094B1B785C
:1063AC0063B102F027FB044600F05EFE064AC31BF5
:1063BC0001212046BDE8F04101F0FBBFBDE8F081B2
:1063CC00C59F0D0071CB0320F89F0D000A460121DB
:1063DC0001F0EFBFF0B5974B1D7889B00C461E4607
:1063EC00002D40F02481042800F0CD8047DC0128EA
:1063FC0000F0938015DC002840F0158102F0E4F9E0
:10640C008D4B8E49D86104A802F082F841F270716C
:10641C0004A8FEF7F1FC04A802F033F84FF47A70EC
:10642C008CE0022800F08D80032840F0FC8001A94C
:10643C002046FEF7ADFC02A9FEF7AAFC03A9FEF765
:10644C00A7FC7F49044604A802F062F8019B83EA8A
:10645C00E371A1EBE371029B5943039B04A84B43EB
:10646C0046F2A81193FBF1F1FEF7C6FC04A802F06A
:10647C0008F801A8012307C8FEF71EFDD3E0142875
:10648C0000F0B28037DC0A2800F095800B2840F031
:10649C00CA8001A92046FEF77BFC02A9FEF778FC16
:1064AC006849044604A802F033F8674B1968A1F553
:1064BC008C4150390029B8BF49429623594304A84E
:1064CC0046F2A81391FBF3F1FEF796FC04A801F039
:1064DC00D8FFFFF7B1F85D4904A802F019F841F2B2
:1064EC00707104A8FEF788FC04A801F0CAFF2A46C4
:1064FC000299019875E0152800F08E80632840F011
:10650C00928002F077FA524901F029FF02F05CF90F
:10651C00494B1862FEF728FC87E001A92046FEF7DC
:10652C0037FC4C49044604A801F0F2FF019904A879
:10653C00FEF762FC04A801F0A4FF0198FEF7E0FC52
:10654C0073E001A92046FEF723FC02A9FEF720FC0C
:10655C004149044604A801F0DBFF019B83EAE37187
:10656C00A1EBE371029B04A84B4346F2A81193FBE9
:10657C00F1F1FEF741FC04A801F083FF02990198A8
:10658C00FDF7FAFF4FE001A92046FEF701FC02A936
:10659C00FEF7FEFB3149044604A801F0B9FF01994E
:1065AC0004A8FEF729FC04A801F06BFF02990198DE
:1065BC00FEF770FF37E002F01DFA2949FFF706FFDE
:1065CC00FFF73AF8214904A801F0A2FF41F27071DB
:1065DC0004A8FEF711FC04A801F053FF2A46FF2182
:1065EC00B620FFF7ABFE20E001A92046FEF7D0FB5A
:1065FC00044602F0FFF9019B1A4A012101F0D9FE71
:10660C00671C019BAB4210DD337873B9384600F040
:10661C002DF801350446F4E702F0ECF9124901F0CB
:10662C009EFE604204E0FEF729FC601C00E0084678
:10663C0009B0F0BDB1D903202CCA032009A00D006C
:10664C0021A00D0061A00D00B4D9032059A00D00AC
:10665C0092A00D0012A00D001AA00D002DA00D008F
:10666C0035A00D006BA00D0084A00D0030B585B0D9
:10667C0003A90546FEF78CFB014665B9039B53B194
:10668C00184B01221A7002F0B5F9174901F067FE98
:10669C004FF0FF3023E00398FFF79CFE044602F016
:1066AC00A9F9039B019300942B46104A0D4D01212F
:1066BC0001F07FFE039B632B0DD0002C0BDD2B78A0
:1066CC004BB903A92046FEF763FB01460398FFF77D
:1066DC0081FE0446EEE784EAE470A0EBE47005B0BA
:1066EC0030BD00BFB1D903209EA00D00B6A00D0097
:1066FC001FB52C4B2C49012268461A7001F008FF7B
:10670C0000216846FEF778FB684601F0BAFE00F0FF
:10671C00E1FE4FF4FA6000F09DFF00F0E3FE04464A
:10672C0048B102F067F9214901F019FEFDF774FD3B
:10673C0000F0C0FEEDE7FDF785FF4FF416714FF446
:10674C00FA60FEF7A7FE40F6C41000F083FFFEF7D8
:10675C00AFF82146204600F02FFC2046FFF786FFBD
:10676C002146012000F028FCFEF78CF800F0AAFE70
:10677C004FF4FA6000F06EFF00F0B4FE48B902F07E
:10678C0039F90B4901F0EBFDFDF746FD00F092FEE7
:10679C00EEE7084B084A1B7883F00103137004B032
:1067AC0010BD00BFBBC90320DAA00D00E7A00D008F
:1067BC00E9A00D00B1D90320DFC9032013460A4616
:1067CC00012101F0F6BD000007B502F013F92E49C6
:1067DC0001F0C5FDFEF7E0FB02F00CF92B4901F0CE
:1067EC00BEFD0120FDF72EFF02F004F9284901F04F
:1067FC00B6FDFF214FF4FA70FDF7E5FF4FF4FA7088
:10680C0000F028FFFF214FF4FA70FDF7E8FF4FF47A
:10681C00FA7000F01FFFFF214FF4FA70FDF7EBFF49
:10682C0002F0E8F81B4901F09AFDFEF74FFEFEF767
:10683C00E1FBFFF7FBFA184B18491888002200926D
:10684C004FF0FF3301F02AFB02F0D4F8144B15493A
:10685C001A68FFF7B3FF02F0CDF8134A917813785A
:10686C000191527800920121104A01F0A2FDFEF72D
:10687C0009F800F0F9FB0E4B00F59C50083018603D
:10688C0003B05DF804FB00BFEBA00D0011A10D00DF
:10689C0021A10D0031A10D00C0C80320D9400D006D
:1068AC0064D3032046A10D0078D3032054A10D001E
:1068BC00D8D9032010B502F09DF80F49FFF786FDDB
:1068CC000E4B0F490F4800221A70072202F0D3FC1E
:1068DC00044650B902F08EF80B49FFF777FD0B4BCD
:1068EC001C70BDE81040FFF76FBF02F083F8084939
:1068FC00FFF76CFD10BD00BFADA10D00BAC90320A0
:10690C00E49A0D000DCA0320CAA10D000CCA032085
:10691C00F3A10D0030B5144B85B001220C461A7052
:10692C00054600F0A1FB114B00F59C40203018608F
:10693C0002F060F822460E49FFF740FF2846FEF7AA
:10694C00DBF902F057F80B4901F009FD0A496846DA
:10695C0001F0DEFD21466846FEF7A0F8684601F01E
:10696C0090FD05B030BD00BF28CA0320B8D9032064
:10697C0024A20D001CD7032042A20D0010B502F07A
:10698C0039F8094901F0EBFC084B0020E82202FB26
:10699C0000310C7924B10431BDE81040FFF7BABFC7
:1069AC0001300428F3D110BD4EA20D0078D3032082
:1069BC0010B58368182B11D10A4C192221460023DB
:1069CC0001F04FFE0023237602F014F8224606490C
:1069DC00FFF7F4FEFEF7CCF8012010BD4FF0FF30AE
:1069EC0010BD00BFBCD903206DA20D0070B500F026
:1069FC003BFB124B1A6882421D461AD8104A0023E0
:106A0C00E82101FB032634794CB10E4B1C7894B170
:106A1C0001F0F0FF321D0C49FFF7D0FE0CE0013302
:106A2C00042BEED100F020FB00F56A4060302860AA
:106A3C0002E0002400E00124204670BD08CA0320B7
:106A4C0078D3032071CB03208BA20D0038B51E4BDD
:106A5C001A78D2B11D4C257855B101F0CBFF1C49E9
:106A6C0001F07DFC00232370BDE83840FEF756BBD7
:106A7C00184C23783BB301F0BDFF174901F06FFCB4
:106A8C002570BDE83840FEF77FBB144B197821B157
:106A9C001A70BDE83840FFF72BBE114B1B785BB169
:106AAC0000F0E2FA0F4B1B6898420CD901F0A2FFE0
:106ABC000D4901F054FC02E0FFF798FF18B1BDE856
:106ACC003840FFF75BBF38BDBBC90320B1D90320E9
:106ADC00A7A20D00DFC90320B7A20D00D5D9032052
:106AEC0028CA0320B8D90320C6A20D0038B5072246
:106AFC000D490E4802F0BFFB054668B90C4C01F07D
:106B0C0079FF22680B49FFF759FE0B4B20681D706B
:106B1C00BDE83840FEF766B801F06CFF0749BDE8E8
:106B2C00384001F01CBC00BFE49A0D000DCA0320D4
:106B3C006CCB0320E2A20D0028CA03201AA30D007F
:106B4C001A4B1B491B48002270B51A70072202F021
:106B5C0092FB194C194DB0FA80F04009207001F0ED
:106B6C0049FF23781649002B14BF59224E22FEF7F9
:106B7C006DFD23789BB12868FDF73CFF064638B1C4
:106B8C00104B01221A7001F035FF2A680E490AE0F9
:106B9C0001F030FF0D4901F0E2FB267070BD01F0F1
:106BAC0029FF2A680A49FFF709FE70BDDEC90320D8
:106BBC00E49A0D000DCA03205CD303206CCB032098
:106BCC002EA30D00D5D9032046A30D0072A30D00F2
:106BDC008EA30D0030B53A4B3A4800221A7085B09E
:106BEC007C232021FEF71AF87C230246102136481C
:106BFC00FEF714F8354A364B111819601C4640F64E
:106C0C00C313984208DC115C232903D12F4B0022BB
:106C1C001A5401E00130F4E701F0ECFE05462B4874
:106C2C0002F021FB23680293264C274B0193012190
:106C3C0003460094274A284601F0BBFB2649204610
:106C4C0002F0E3FA40B101F0D5FE0094224B234A46
:106C5C00012101F0AEFB31E02149204602F0D5FACA
:106C6C0020B905B0BDE83040FFF724BE1D492046D1
:106C7C0002F0CBFA20B905B0BDE83040FFF760BF99
:106C8C001949204602F0C1FA20B905B0BDE83040E0
:106C9C00FEF7F0B91549204602F0B7FA20B905B055
:106CAC00BDE83040FEF710BA1149204602F0ADFAAB
:106CBC0020B905B0BDE83040FFF718BF05B030BDB6
:106CCC0074D30320E0C903200DCA0320FCD9032090
:106CDC006CCB0320A4A30D0090D90320D9A30D00E5
:106CEC00BF9B0D00169A0D005A9B0D00319B0D0099
:106CFC0042A20D007FB52E4E2E4C01F07BFE036898
:106D0C001B69984740B301F075FE03685B699847AF
:106D1C002368F05401F06EFE03681B6998472368E2
:106D2C00054638B10133282193FBF1F201FB1233F4
:106D3C002360E2E7F05401F05DFE1D4901F00FFB0A
:106D4C001B492560684601F0E3FB6846FEF7E2FD4F
:106D5C00684601F096FBD0E7174B1B783BB101F06E
:106D6C0049FE164901F0FBFAFFF734FF1DE0144B06
:106D7C001C7814B1FEF752FB0EE0FFF795F8FFF705
:106D8C0065FE104B1A783AB11C700F4B19680F4BFB
:106D9C0022461868FFF7D2FA0D4B1A682AB1002266
:106DAC001A60FDF7BFFDFDF797FC04B070BD00BF86
:106DBC0042CB0320C0E3032074D3032003A40D00B3
:106DCC000CCA032040CB032058D303208CD90320BA
:106DDC001CCB03202DE9F043534B544F544EDFF89A
:106DEC008C8101251D70534B87B002241C7000F060
:106DFC0073F900221E21204600F030FB4FF01409DD
:106E0C000346CDF80090224601954FF47F01384699
:106E1C0001F0E4F832464146384602F01BF80022F5
:106E2C000A21204600F01AFB434FCDF80090034690
:106E3C00224601954FF47F41384601F0CFF83F4C84
:106E4C00DFF82C9132464146384602F003F83C4BB1
:106E5C00029302AA00233B4FDFF81881049741F2FA
:106E6C0088312046CDF81490FDF7E2F902A8FDF721
:106E7C00C9F932464146204601F0ECFF324A334B09
:106E8C0012681A60324A049712685A604FF44872BA
:106E9C001A614FF4B97200244FF47A715A622D4F73
:106EAC0099636422DC601C725C619C61DA621D6314
:106EBC005D63DD631D64284B029302AA23463846AA
:106ECC00CDF81490FDF7B4F902A8FDF79BF93846FC
:106EDC00224F3246414601F0BDFF2149384601F0B0
:106EEC0017FB32461F49384601F0B4FF1E4B0D22EA
:106EFC005A702146FF220B2628461E709A7000F00D
:106F0C008DFA01F063FE2346224642F6A23101F0CF
:106F1C0065FE01F05BFE23462246314601F066FE1B
:106F2C0007B0BDE8F08300BF01CA0320BCC9032031
:106F3C0050C90320DCC90320DCD9032098C90320E5
:106F4C00B5400D00E9400D00A8C8032054C903202A
:106F5C00C8C8032024CB0320C1400D0064D30320F8
:106F6C00E8A50D008F840D0078D3032059410D0046
:106F7C00E5400D00C1420D0008B5024B1B689B6833
:106F8C00019308BD4802030008B5024B1B68DB687F
:106F9C00019308BD4802030008B5024B1B681B692E
:106FAC00019308BD4802030008B5024B1B685B69DE
:106FBC00019308BD4802030008B5024B1B68DB694E
:106FCC00019308BD4802030008B5024B1B681B6AFD
:106FDC00019308BD4802030008B5024B1B685B6AAD
:106FEC00019308BD4802030008B5024B1B689B6A5D
:106FFC00019308BD4802030008B5024B1B68DB6A0D
:10700C00019308BD4802030008B5024B1B685B6C7A
:10701C00019308BD4802030008B5024B1B689B6C2A
:10702C00019308BD4802030008B5024B1B681B6F97
:10703C00019308BD4802030008B5024B1B689B6E08
:10704C00019308BD3402030008B5024B1B685B6852
:10705C00019308BD1802030008B5024B1B68DB68DE
:10706C00019308BD1802030008B5024B1B685B694D
:10707C00019308BD1802030008B5024B1B68DB69BD
:10708C00019308BD1802030008B5024B1B689B6AEC
:10709C00019308BD1802030008B5024B1B685B6C1A
:1070AC00019308BD1802030008B5024B1B689B6CCA
:1070BC00019308BD1802030008B5024B1B68DB6C7A
:1070CC00019308BD1802030008B5024B1B689B6DA9
:1070DC00019308BD1802030008B5024B1B681B681E
:1070EC00019308BD2C02030008B5024B1B685B68BA
:1070FC00019308BD2C02030008B5024B1B689B686A
:10710C00019308BD2C02030008B5024B1B68DB6819
:10711C00019308BD2C02030008B5024B1B681B69C8
:10712C00019308BD2C02030008B5024B1B685B6978
:10713C00019308BD2C02030008B5024B1B689B6928
:10714C00019308BD2C02030008B5024B1B68DB69D8
:10715C00019308BD2C02030008B5024B1B689B6A07
:10716C00019308BD2C02030008B5024B1B681B6B76
:10717C00019308BD2C02030008B5024B1B689B6FE2
:10718C00019308BD2C02030008B5024B1B68DB6F92
:10719C00019308BD2C02030008B5024B1B681B6849
:1071AC00019308BD2802030008B5024B1B68DB687D
:1071BC00019308BD2802030008B5024B1B681B692C
:1071CC00019308BD2802030008B5024B1B689B699C
:1071DC00019308BD2802030008B5024B1B68DB694C
:1071EC00019308BD2802030008B5024B1B681B6AFB
:1071FC00019308BD2802030008B5024B1B685B6AAB
:10720C00019308BD2802030008B5024B1B689B6A5A
:10721C00019308BD2802030008B5024B1B68DB6A0A
:10722C00019308BD2802030008B5024B1B681B6BB9
:10723C00019308BD2802030008B5024B1B685B6B69
:10724C00019308BD2802030008B5024B1B681B6C98
:10725C00019308BD2802030008B5024B1B681B6D87
:10726C00019308BD2802030008B5024B1B685B693B
:10727C00019308BD6402030008B5024B1B689B68B0
:10728C00019308BD6802030008B5024B1B68DB685C
:10729C00019308BD6802030008B5024B1B681B680C
:1072AC00019308BD2402030008B5024B1B68DB697F
:1072BC00019308BD3002030008B5024B1B681B6A22
:1072CC00019308BD3002030008B5024B1B681B6814
:1072DC00019308BD3C02030008B5024B1B689B6878
:1072EC00019308BD3C02030008B5024B1B68DB6828
:1072FC00019308BD3C02030008B5024B1B681B69D7
:10730C00019308BD3C02030008B5024B1B685B6986
:10731C00019308BD3C02030008B5024B1B689B6936
:10732C00019308BD3C02030008B5024B1B68DB69E6
:10733C00019308BD3C02030008B5024B1B681B6A95
:10734C00019308BD3C02030008B5024B1B689B6A05
:10735C00019308BD3C02030008B5024B1B68DB6AB5
:10736C00019308BD3C02030008B5024B1B681B6867
:10737C00019308BD4C02030008B5024B1B685B6807
:10738C00019308BD4C02030008B5024B1B681B6936
:10739C00019308BD4C02030008B5024B1B685B69E6
:1073AC00019308BD4C02030008B5024B1B689B6996
:1073BC00019308BD4C02030008B5024B1B68DB6946
:1073CC00019308BD4C02030008B5024B1B681B6AF5
:1073DC00019308BD4C02030008B5034B1B68D3F89E
:1073EC008030019308BD00006002030008B5024B19
:1073FC001B681B68019308BD2002030008B5024BF3
:10740C001B685B68019308BD2002030008B5024BA2
:10741C001B685B69019308BD2002030008B5024B91
:10742C001B68DB6A019308BD2002030008B5024B00
:10743C001B68DB6C019308BD2002030008B5024BEE
:10744C001B685B6D019308BD2002030008B5024B5D
:10745C001B689B6D019308BD2002030008B5024B0D
:10746C001B68DB6F019308BD2002030008B5034BBA
:10747C001B68D3F88830019308BD0000200203007C
:10748C0008B5034B1B68D3F89430019308BD00007A
:10749C002002030008B5024B1B681B68019308BD52
:1074AC004402030008B5024B1B685B68019308BDDE
:1074BC004402030008B5024B1B689B68019308BD8E
:1074CC004402030008B5024B1B68DB68019308BD3E
:1074DC004402030008B5024B1B681B69019308BDED
:1074EC004402030008B5024B1B685B69019308BD9D
:1074FC004402030008B5024B1B68DB69019308BD0D
:10750C004402030008B5024B1B681B6A019308BDBB
:10751C004402030008B5024B1B685B6A019308BD6B
:10752C004402030008B5024B1B681B6B019308BD9A
:10753C004402030008B5024B1B68DB6B019308BDCA
:10754C004402030008B5024B1B685B68019308BD3D
:10755C004002030008B5024B1B689B68019308BDF1
:10756C004002030008B5024B1B68DB68019308BDA1
:10757C004002030008B5024B1B681B69019308BD50
:10758C004002030008B5024B1B685B69019308BD00
:10759C004002030008B5024B1B689B69019308BDB0
:1075AC004002030008B5024B1B68DB69019308BD60
:1075BC004002030008B5024B1B681B6A019308BD0F
:1075CC004002030008B5024B1B681B6B019308BDFE
:1075DC004002030008B5024B1B685B6B019308BDAE
:1075EC004002030008B5024B1B681B68019308BDE1
:1075FC001C02030008B5024B1B685B68019308BDB5
:10760C001C02030008B5024B1B689B68019308BD64
:10761C001C02030008B5024B1B68DB68019308BD14
:10762C001C02030008B5024B1B685B6A019308BD82
:10763C001C02030008B5024B1B68DB6A019308BDF2
:10764C001C02030008B5024B1B681B6B019308BDA1
:10765C001C0203000021FFF7D9BE10B58368044655
:10766C000BB901F018FCC3689847A3681BB103223F
:10767C0021462046984720461021BDE8104001F0D5
:10768C00EEBB10B50446006808B1FFF7C5FC2046F8
:10769C0010BD10B5036804469B689847A368013B6E
:1076AC00A3602BB923682046DB68BDE8104018475F
:1076BC0010BD0B68036013B15A6801325A607047F1
:1076CC0010B50446006828B14368013B43600BB910
:1076DC00FFF7DFFF204610BD10B5064C00232046F7
:1076EC002360FFF791FC2046034A0449BDE8104093
:1076FC0001F0B0BBC4E3032050C903208F760D000A
:10770C0070470020704710B51021044601F0A7FB0C
:10771C00204610BD08B508B1FFF7F5FF08BD0022E3
:10772C00026010B54FF69C728280B1F904408480DF
:10773C008A8002680C6804600A6010BD10B50446AB
:10774C000068FFF757FF204610BD38B5C468F4B188
:10775C002378022B03D104F10C00FFF7EFFF6568CF
:10776C0035B12846FCF74EFD1021284601F077FB79
:10777C00A56835B12846FCF745FD1021284601F0D7
:10778C006EFB20461421BDE8384001F068BB38BDC3
:10779C0010B588B00446684600F0BAFE694604A8E5
:1077AC0000F0F5FE04A8A047044604A800F069FE0A
:1077BC00684600F066FE204608B010BDF0B51024F7
:1077CC0085B007460E46154600212246684601F054
:1077DC00CEFC002269461046ADF800400297039695
:1077EC000195FFF75FFE05B0F0BD13B5044691E8B7
:1077FC00050000234B600B602060626001A80193C0
:10780C000093FFF75DFF204602B010BDF7B50C46A4
:10781C0002AD54F8043B45F8083D06460F4601A856
:10782C002146FFF746FF29463046FFF7DEFF01A849
:10783C00FFF746FF2046FFF743FF3846082101F0CB
:10784C000EFB304603B0F0BD13B50B46044603C81F
:10785C008DE8030093E8030084E803009DE803002F
:10786C0083E8030002B010BD38B500230446036062
:10787C0010200D46FCF709FC28B1012343608360FE
:10788C00024B0360C5602060204638BDC8A40D00C3
:10789C00826810B50AB901F0FEFAC368BDE8104061
:1078AC00184708B5006800F11001FFF7F1FF08BD9B
:1078BC00826810B50AB901F0EEFAC368BDE8104051
:1078CC00184708B5006800F11001FFF7F1FF08BD7B
:1078DC0038B5002383608B6804460D462BB1022219
:1078EC009847EB68E360AB68A360204638BD0000A6
:1078FC00F0B589B004686846FFF711FF00238DF8D6
:10790C0008304FF00202D4E84F3F002B03D1C4E8FB
:10791C00412F0029F7D102D08DF8083063E014F123
:10792C000C0503D069462846FFF7F9FEBFF35F8FBD
:10793C0001236370002004F10803BFF35F8F53E849
:10794C00006F43E80002002AF9D1BFF35F8F002ECD
:10795C0049D0FFF76BFD20B129463046FFF798FF61
:10796C003AE0314602A8FFF7B3FFE068B4F91050D3
:10797C0008B101F05DFC06901020ADF81C50FCF72E
:10798C0084FB0546E8B1002787601820FCF77DFBD7
:10799C00044688B10146876002A8FFF755FF049B97
:1079AC00A268A360059B049206A9E268E36004F157
:1079BC0010000592FFF7B3FE0D4BEB600D4B2C60E6
:1079CC00AB6006A8FFF7BAFE02A8FCF71BFC00226E
:1079DC0029460948FFF732FD3046FCF713FC10210D
:1079EC00304601F03CFA6846FFF7A8FE09B0F0BD3E
:1079FC00AF780D00257B0D0067760D002DE9F04F5B
:107A0C008BB006460F46904699469DF850A0FFF75E
:107A1C0069FD07AD834630BB4FF62E73059005A963
:107A2C002846ADF81830FFF77AFE1420FCF72DFB32
:107A3C00044658B10223037001234370C0F804B00C
:107A4C00C0F808B029460C30FFF769FE30462146D5
:107A5C0040F8044BFFF708FF2846FFF76FFE05A818
:107A6C00FFF76CFE52E000240C2314206C60AC6019
:107A7C000793FCF70AFB014618B10470447044608C
:107A8C00846004A80391FFF7EFFE224B08930820B3
:107A9C00FCF7FBFA044628B1039B40F8043B04A90D
:107AAC00FFF707FE00955FFA8AF34A4641463846CF
:107ABC000994FFF727FD20B9039B5B7803F0FF02C5
:107ACC0083B1039B059304A906A8FFF7F2FD05A952
:107ADC003046FFF78AFE06A8FFF7F2FD04A8FFF771
:107AEC00EFFD13E04FF69C7305A903A80592ADF8C2
:107AFC001830FFF7FDFE05A8FFF720FE05A8099931
:107B0C00FFF784FE06A8FFF7DBFDDAE730460BB083
:107B1C00BDE8F08F957C0D00022AF8B5044606D01E
:107B2C00032A17D0012A22D10B6803601FE018200A
:107B3C000E68FCF7AAFA054650B13146FFF7C8FEAD
:107B4C003069B6F9147008B101F072FB2861AF828C
:107B5C0025600CE0046854B104F11000FFF7EEFD51
:107B6C002046FCF74FFB1821204601F078F9002045
:107B7C00F8BD38B5002383608B6804460D462BB1E5
:107B8C0002229847EB68E360AB68A360204638BDDF
:107B9C00022A70B5044606D0032A11D0012A18D146
:107BAC000B68036015E014200E68FCF76EFA0546AE
:107BBC0020B13146FFF7DDFF337C2B74256008E0E4
:107BCC00046834B12046FCF71DFB1421204601F05B
:107BDC0046F9002070BD0000F0B5002387B00C46BC
:107BEC00BFF35F8F50E8006F40E80032002AF9D1F4
:107BFC00BFF35F8F002E3FD01846FFF717FC0746E8
:107C0C0020B121463046FFF753FE2EE0314601A845
:107C1C00FFF7AFFF23788DF814301020FCF735FAFE
:107C2C000546D0B187601420FCF72FFA044678B1D2
:107C3C008760014601A8FFF707FE039BA268A360BB
:107C4C00049B0392E268E3609DF814300492237461
:107C5C000A4BEB600A4B2C60AB6001A8FCF7D2FA24
:107C6C00002229460748FFF7E9FB3046FCF7CAFA21
:107C7C001021304601F0F3F807B0F0BDCF780D00BD
:107C8C009D7B0D0067760D0030B585B004460D4622
:107C9C0068461146FFF7BAFD7CB124B228460DB1F7
:107CAC0001F0C6FA029002A96846ADF80C40FFF745
:107CBC001FFE02A8FFF742FD1DE000988DF808405A
:107CCC004FF00102D0E84F3FA34203D1C0E8412F4F
:107CDC000029F7D102D08DF808300CE010F10C011E
:107CEC004FF0010318BF0373BFF35F8F043000F82C
:107CFC00033CFFF771FF01A8FFF7E2FC05B030BDB4
:107D0C00002211464068FFF755BC0022114640681E
:107D1C00FFF760BC00224068FFF754BC002281F0E2
:107D2C0001014068FFF73EBC00231A461946406823
:107D3C00FFF730BC00231A4619464068FFF722BCF7
:107D4C00002211464068FFF715BC0022114640681E
:107D5C00FFF700BC002202214068FFF703BC0023A0
:107D6C001A464068FFF7EEBB024B03225A60024AE8
:107D7C001A607047C8E30320E4A40D007047F8B5FF
:107D8C00064615460C468F18BC4206D0336814F8CC
:107D9C00011B9B6830469847F6E72846F8BD002241
:107DAC00007CFFF721BA0021007CFFF725BA0021E7
:107DBC00007CFFF729BA0021007CFFF72DBA0021C7
:107DCC00007CFFF731BA10B51421044601F047F8D6
:107DDC00204610BD10B50446002363604FF47A733F
:107DEC00A360044B2174084623601146FFF72CFA5C
:107DFC00204610BD18A50D000022007CFFF7CCB961
:107E0C0000231A461946007CFFF7CEB90021007CEE
:107E1C00FFF7D2B970B50C4686B0142506462A4633
:107E2C00002101A801F0A3F923788DF808306368CC
:107E3C000393E36804930022237A307CADF804505A
:107E4C0001A90593FFF708FA06B070BD1FB5003302
:107E5C008DF800104FF06401039118BF012369469F
:107E6C0001928DF80830FFF7D5FF05B05DF804FBE3
:107E7C000123FFF7EBBF0022007CFFF7A5B9C9B2C5
:107E8C00FFF7F9BF0022007CFFF7A6B90121FFF72D
:107E9C00F9BF0021007CFFF7CFB90047F0B585B0E2
:107EAC001C460E4617460546FFF74EF90020844245
:107EBC004FF0040303908DF80C30A5BF9DF82830CB
:107ECC008DF80E30034603AB009332463B46064911
:107EDC00A8BF8DF80D402846FFF72EF9B0FA80F0B8
:107EEC00400905B0F0BD00BFA77E0D00704710B56E
:107EFC001821044600F0B3FF204610BDF0B5037DF9
:107F0C00062B8DB00E4600F104074FF0000402D092
:107F1C0000F1080518E00CAD394605F8304D2F235B
:107F2C002A460A20FFF7A0F9284601F09CF933688D
:107F3C000246DB682946304698470FE024B12E21D3
:107F4C00304600F0FDF9044415F8011D0A223046B4
:107F5C0000F00FFABD420444F0D120460DB0F0BD44
:107F6C0010B5054B0446112240F8043B002101F0EA
:107F7C00FEF8204610BD00BF40A50D000346074A81
:107F8C0010B543F8042B01F1100251F8044B43F8DF
:107F9C00044B9142F9D10A781A7010BD40A50D001E
:107FAC0010B59DF8084044EA032343EA024242EA32
:107FBC00016104234160037510BD37B50D788B78D2
:107FCC004A78C97800912946FFF7EAFF03B030BD23
:107FDC000A680B46926801461846104770B50E4C5D
:107FEC0004601C2444609DF814409DF8106004F05B
:107FFC00030444EA86040025E4B2047442748574D4
:10800C004161427C85600F2A08BF044BC56006BFE6
:10801C008361C061038370BD24940D00DD7F0D006E
:10802C00014B024A1A607047D0E30320B7A50D003C
:10803C00002211464068FFF7BDBA00221146406885
:10804C00FFF7C8BA00224068FFF7BCBA002281F0E3
:10805C0001014068FFF7A6BA00231A4601214068C7
:10806C00FFF798BA00231A4619464068FFF78ABAF8
:10807C00002211464068FFF77DBA00221146406885
:10808C00FFF768BA002202214068FFF76BBA0023A1
:10809C001A464068FFF756BA38B5054688B10468E9
:1080AC004CB1A3681BB103222146204698471021EE
:1080BC00204600F0D4FE28461421BDE8384000F0DC
:1080CC00CEBE38BD10B103685B681847704710B559
:1080DC0003680446BBB15868FEF74EFF78B92368B5
:1080EC005A7C12B95868FEF757FF23685868FEF798
:1080FC005BFF20680023236028B1FFF7CDFF2068C9
:10810C0008B1FFF7C9FF204610BD38B50446D0F8BA
:10811C00C40108B1FBF7BDFFD4F8C00108B1FEF7EC
:10812C007BFFD4F8BC5135B12846FFF7D0FF0421B2
:10813C00284600F094FE206808B1FFF7C3FF2046E4
:10814C0038BD000010B5044B044640F8083BFFF75F
:10815C00DCFF204610BD00BF28A60D0038B50E4C24
:10816C000E4B23600025022304F5E4706360A560C8
:10817C00C4F8C451C4F8C851FEF746FF084BC4F804
:10818C00CC5184F8D05123602046064A0649BDE8FC
:10819C00384000F05FBE00BFD4E303205CA60D00A6
:1081AC0028A60D0050C9032051810D0000231A464A
:1081BC004068FFF7C7B9002202214068FFF7D2B927
:1081CC00002211464068FFF7C5B9002211464068ED
:1081DC00FFF7D0B900231A4619464068FFF7D2B909
:1081EC0000231A4619464068FFF7D4B9002281F0E3
:1081FC0001014068FFF7D6B900224068FFF7E2B9E9
:10820C00002211464068FFF7E5B90022114640688C
:10821C00FFF7D0B92DE9F043002495B016460D4672
:10822C000746FFF79DFE214620220CA8009400F083
:10823C009EFF40230C9321466B460CAA3046FFF759
:10824C0023F80446002844D1024601216868FFF750
:10825C0091F90221804622466868FFF78BF9009E4F
:10826C0081462146002E34D0002932D17368022B6E
:10827C0002D00A2B09D02AE0B8F1000F27D071697F
:10828C0038460431FFF799FE20E0B9F1000F1ED0FB
:10829C007469112201A800F06AFF06238DF81430CE
:1082AC0001AD04F108031834186859682A4603C252
:1082BC000833A3421546F7D101A906A807ADFFF76D
:1082CC005DFE0FCD3C1D0FC42B6823700121F66998
:1082DC00C8E70098FEF7D0FF384615B0BDE8F0832C
:1082EC00024B034A1A6000225A607047A8E503202B
:1082FC005CA60D00F8B506460D468F180024BD424D
:10830C000CD0336815F8011B9B6830469847002841
:10831C0001DB0444F3E7002C08BF04462046F8BDFB
:10832C0070B505460C46084649B100F09CFF2B6819
:10833C00024621462846DB68BDE87040184770BDF0
:10834C0003689B68184738B50D210546FFF7F8FF01
:10835C000A2104462846FFF7F3FF204438BD38B500
:10836C000546FFF7DDFF04462846FFF7ECFF2044E7
:10837C0038BD30B58BB00B4600218DF82410012A86
:10838C0098BF0A220DF12304B3FBF2F505FB12335F
:10839C0003F0FF03092B94BF30333733DBB2214694
:1083AC0004F801392B46002DEED1FFF7B9FF0BB0C5
:1083BC0030BD0CB42DE9F04387B000AF07F13804A1
:1083CC00054654F8049B3C600E4623464A4614214D
:1083DC00381DFFF727F9132805D8391D2846FFF754
:1083EC009FFF044613E000F1080323F00703E8465F
:1083FC00ADEB030D411C23464A4668463C60FFF733
:10840C0011F969462846FFF78BFF0446C5461EB195
:10841C002846FFF798FF044420461C37BD46BDE8AC
:10842C00F04302B0704710B50446FBF7EBFE204654
:10843C0010BD00000348044A04490023836000F087
:10844C0009BD00BFB0E5032050C9032033840D00E3
:10845C00704710B50C21044600F001FD204610BDFC
:10846C0010B5054B0360044601710846FEF71CFF6E
:10847C000023A360204610BD90A60D000079FEF7E6
:10848C001BBF10B504460068FFF7B4F8204610BDBA
:10849C0010B50446006808B1FFF7ACF80023236060
:1084AC00A360636010BD38B504460D460068013109
:1084BC00FFF7A8F810B184E82100012038BD10B5F1
:1084CC000368044613B143688B4207D22046FFF77A
:1084DC00EAFF20B1A3680BB922681370012010BD0C
:1084EC0070B50E46114604461546FFF7E8FF18B95D
:1084FC002046FFF7CDFF09E02A463146A5602068EB
:10850C0000F02AFE2268A3680021D154204670BDD9
:10851C0038B50023044603604360836003730D4643
:10852C0039B1084600F09FFE294602462046FFF767
:10853C00D7FF204638BD38B5054600680C4660B1FB
:10854C006A688B689A4206D3096800F068FEA368D3
:10855C00AB6000230AE0FFF74DF823682B606368DB
:10856C006B60A368AB60002323606360A36038BDBD
:10857C00884210B50B46044607D0096819B19A68B1
:10858C00FFF7AEFF01E0FFF783FF204610BD10B5EB
:10859C00002304460360436083600373FFF7E8FF26
:1085AC00204610BD884210B5044601D0FFF7C3FF2A
:1085BC00204610BD38B505460C4641B1084600F0C2
:1085CC0052FE214602462846FFF78AFF01E0FFF7DC
:1085DC005FFF284638BD13B500238DF804100360E7
:1085EC0043608360037301A904468DF80530FFF7DF
:1085FC00E1FF204602B010BD70B504460E4609B925
:10860C00002070BD6AB18368D5182946FFF757FF63
:10861C000028F5D02068A3683146184400F0FFFD0F
:10862C00A560012070BD10B58A6809680446FFF783
:10863C00E3FF10B92046FFF72BFF204610BD38B5DD
:10864C0004460D4641B1084600F00DFE294602468F
:10865C002046FFF7D1FF10B92046FFF719FF20463F
:10866C0038BD70B50E469AB191B185689D4202D85D
:10867C0000230B7070BD541EED1A0168AC4228BF6C
:10868C002C4619442246304600F00AFE002333558E
:10869C0070BD10B58368934206D90468A01800F029
:1086AC00A6FD08B1001B10BD4FF0FF3010BD00003F
:1086BC00F8B59A420F461D460C4988BF134614461E
:1086CC00064684BF2C461D46FFF722FFBA6894422B
:1086DC000AD83968954294BFC4EB0502C4EB020278
:1086EC0021443046FFF7FCFE3046F8BDE8A50D00EE
:1086FC0010B504468B68FFF7DBFF204610BD006801
:10870C0008B100F017BD704710B50446006818B1E9
:10871C00FEF770FF0023236010BD10B50446FFF771
:10872C00F3FF204610BD014600228C20FEF784BCCE
:10873C000020FFF7F8BF000010B5094C00204FF6E1
:10874C00FF732060A080A07120816381FEF756FE2C
:10875C002046044A0449BDE8104000F07BBB00BF32
:10876C00C0E5032050C9032027870D0008B5002061
:10877C00FEF7D8FE28B1FEF7B5FE80F00100C0B2BE
:10878C0008BD012008BD10B50020FEF79DFC044675
:10879C0068B9FEF72BFE01280BD12046FEF756FEDA
:1087AC0038B9FFF7E3FF30B9FEF784FEF9E7012093
:1087BC0010BD002010BDFFF7D9FF0020FEF784FC90
:1087CC00003018BF012010BD08B5FFF7DCFFBDE875
:1087DC000840FEF751BC0000024B1A68024B1A60AD
:1087EC00704700BFE4C80320CCE50320F8B585B280
:1087FC00044628460E46174600F000FA60B10221E6
:10880C002846FEF771FC022806D13A46314620462E
:10881C00BDE8F840FEF740BDF8BD704741747047A5
:10882C0008B5007CFEF790FD20EAE07008BD08B5A5
:10883C00007CFEF761FD20EAE07008BD08B5007C05
:10884C00FEF76AFD30EA200028BF4FF0FF3008BD6C
:10885C0008B5007CFEF758FD30EA200028BF4FF029
:10886C00FF3008BD007CFEF75FBD10B51421044637
:10887C0000F0F5FA204610BD70B5457C04460E4656
:10888C0025B9007CFEF760FD002805DD3146207C13
:10889C00BDE87040FEF728BD284670BD10B50446F3
:1088AC0008461146002262604FF47A72A260054AB3
:1088BC0022600122207462741A46FEF705FD2046E0
:1088CC0010BD00BFCCA60D000023007CFEF744BDFC
:1088DC000022FFF7F9BF007CFEF7FEBC007CFEF720
:1088EC002BBD000038B50C4D296811F0010411D1D5
:1088FC002846FBF7D0FB68B1084A094B09482146CA
:10890C00FFF7CCFF2846FBF7CBFB074A0749054886
:10891C0000F0A0FA034838BD68E603206CE603209B
:10892C00E4E50320D0E5032050C9032027880D007F
:10893C0041747047704708B50021007CFEF734FD88
:10894C0030EA200028BF4FF0FF3008BD08B50121E8
:10895C00007CFEF729FD30EA200028BF4FF0FF30E5
:10896C0008BD08B5007CFEF717FD20EAE07008BDD5
:10897C0008B5007CFEF708FD20EAE07008BD007C1D
:10898C00FEF722BD10B51421044600F068FA20460B
:10899C0010BD38B50446007C0D46FEF7FDFC0028E2
:1089AC0001DC607C28B12946207CFEF705FD20EA1D
:1089BC00E07038BD10B50446002363604FF47A7341
:1089CC00A360054B23600123084621746374114690
:1089DC00FEF7CAFC204610BDFCA60D000022007C50
:1089EC00FEF7CABC10B514220446002100F0BFFBF0
:1089FC00204610BD30B50E4D87B001A8FFF7F2FF31
:108A0C00296811F0010410D12846FBF744FB60B132
:108A1C0001AA21460748FFF7CDFF2846FBF740FB8C
:108A2C00054A0649034800F015FA024807B030BD64
:108A3C00F0E60320F4E6032050C9032041890D0021
:108A4C00002211464068FEF795BD00221146406891
:108A5C00FEF7B0BD002211464068FEF7BBBD0022F8
:108A6C004068FEF7AFBD002281F001014068FEF7BF
:108A7C0099BD00231A4619464068FEF78BBD0023AA
:108A8C001A4619464068FEF77DBD00221146406823
:108A9C00FEF760BD002202214068FEF763BD002393
:108AAC001A464068FEF74EBD024B04225A60024A39
:108ABC001A60704708E703202CA70D0008B50C4B73
:108ACC0033B1FFF797FF03681B699847002809DC4F
:108ADC00084B63B1FFF706FF03681B699847002832
:108AEC0003DC08BDAFF30080F2E7AFF3008008BDF4
:108AFC00000000000000000008B5FFF7DFFFFEF7E4
:108B0C00B3FA014B186008BD18E703200248034A6A
:108B1C000349121A00F020BB00F4032004F40320D4
:108B2C0000A90D0007B5002300931A466FF07701DA
:108B3C00FEF7A6FC03B05DF804FB000007B5438804
:108B4C000A2B08D0502B09D1094B1B683BB103B041
:108B5C005DF804EB1847FFF7E5FF06E000230093F0
:108B6C001A466FF07701FEF78BFC03B05DF804FB3F
:108B7C0010E7032038B5104C104D2368AB42104B56
:108B8C000CBF012200221A7002D0FFF7BFFF256034
:108B9C00FEF75AFA044600F0F3FA0A4B13B12046DA
:108BAC00AFF3008000210748FEF7C4FC0021064803
:108BBC00BDE83840FEF75ABC00F403201E1C279A6F
:108BCC0014E7032000000000498B0D0008B5024B90
:108BDC001B681B68019308BD5C02030008B5024BBF
:108BEC001B685B68019308BD5C02030008B5024B6F
:108BFC001B689B68019308BD5C02030010B504461A
:108C0C0000F008F9FFF73AFC28B1A4F10B03022B92
:108C1C0001D8002010BD00F0D7F8FFF73AF908B1E1
:108C2C00012CF6D9FFF75EFEFFF758FE18B1A4F140
:108C3C000903012BEDD9232C8CBF0020012010BD82
:108C4C00232838B504460D460AD8FF2908D0FFF76B
:108C5C00D5FF28B129462046BDE83840FEF74CBA6E
:108C6C0038BD38B504460D46FEF74EFAFF2810D035
:108C7C00062804D84D2323FA00F0C30709D4204654
:108C8C00FFF7BCFF28B129462046BDE83840FEF767
:108C9C0043BA38BD10B50446FEF736FA0438C0B2F4
:108CAC00012808D92046FFF7A9FF20B12046BDE8CE
:108CBC001040FEF739BA002010BD0D2810B504463F
:108CCC009CBF0E34A4B22046FFF798FF50B103218D
:108CDC002046FEF709FA032804D12046BDE81040CF
:108CEC00FEF742BA002010BD38B504460D46FFF71A
:108CFC0085FFF0B104212046FEF7F6F9042805D1D2
:108D0C00A9B22046BDE83840FEF726BA022120461B
:108D1C00FEF7EAF902280CD12046FEF7F5F90128F6
:108D2C0001D0042805D129462046BDE83840FEF77D
:108D3C0023BA38BD70B504460D461646FFF75EFFE4
:108D4C0098B102212046FEF7CFF902280DD120461A
:108D5C00FEF7DAF9012801D0042806D1324629465B
:108D6C002046BDE87040FEF70FBA70BD10B5074C39
:108D7C002368DB0708D42046FBF78DF920B1FEF7FA
:108D8C0083F92046FBF78CF9014810BD1CE7032042
:108D9C0020E7032070B5044614252A46094E00210D
:108DAC0000F0E5F9258020253146A560256128468F
:108DBC0000F06FF831466060284600F06AF8E06019
:108DCC00204670BD58A70D0030B50E4D296811F026
:108DDC00010487B013D12846FBF75DF978B101A8DF
:108DEC00FFF7D8FF01AA21460748FEF7F3FF2846F4
:108DFC00FBF756F9054A0649034800F02BF80248E0
:108E0C0007B030BD24E7032028E7032050C9032016
:108E1C00897D0D0038B50B4D296811F001040FD177
:108E2C002846FBF738F958B121460748FFF718FBDD
:108E3C002846FBF735F9054A0549034800F00AF8BE
:108E4C00014838BD48E703203CE7032050C9032004
:108E5C005D840D000B460146184600F06FB9FBF718
:108E6C0016B90000024B1868BFF35F8F704700BF44
:108E7C004CE7032010B5002814BF044601242046FB
:108E8C00FEF7B0FB20B9FFF7EDFF08B18047F6E71E
:108E9C0010BDFFF7EFBF08B5FEF7CCFB244B1A68EB
:108EAC00D0075CBF01221A60224B1A68D1075CBF45
:108EBC0001221A60204B1A68D2075CBF01221A608B
:108ECC001E4B1A68D0075CBF01221A601C4B1A6833
:108EDC00D1075CBF01221A601A4B1A68D2075CBF1B
:108EEC0001221A60184B1A68D0075CBF01221A6065
:108EFC00164B1A68D1075CBF01221A60144B1A6812
:108F0C00D2075CBF01221A60124B1A68D0075CBFF3
:108F1C0001221A60104B1A68D1075CBF01221A603B
:108F2C000E4B1A68D2075CBF01221A60704700BF53
:108F3C007CE7032078E7032074E7032070E7032025
:108F4C006CE7032068E7032064E7032060E7032055
:108F5C005CE7032058E7032054E7032050E7032085
:108F6C00184B1A68D1075CBF01221A60164B1A689D
:108F7C00D2075CBF01221A60144B1A68D0075CBF81
:108F8C0001221A60124B1A68D1075CBF01221A60C9
:108F9C00104B1A68D2075CBF01221A600E4B1A687C
:108FAC00D0075CBF01221A600C4B1A68D1075CBF5A
:108FBC0001221A600A4B1A68D2075CBF01221A60A0
:108FCC00704700BF9CE7032098E7032094E7032039
:108FDC0090E703208CE7032088E7032084E7032035
:108FEC0080E70320184B1A68D1075CBF01221A6076
:108FFC00164B1A68D2075CBF01221A60144B1A6810
:10900C00D0075CBF01221A60124B1A68D1075CBFF3
:10901C0001221A60104B1A68D2075CBF01221A6039
:10902C000E4B1A68D0075CBF01221A600C4B1A68F1
:10903C00D1075CBF01221A600A4B1A68D2075CBFC9
:10904C0001221A60704700BFBCE70320B8E7032079
:10905C00B4E70320B0E70320ACE70320A8E7032024
:10906C00A4E70320A0E70320244B1A68D0075CBFB9
:10907C0001221A60224B1A68D1075CBF01221A60C8
:10908C00204B1A68D2075CBF01221A601E4B1A686B
:10909C00D0075CBF01221A601C4B1A68D1075CBF59
:1090AC0001221A601A4B1A68D2075CBF01221A609F
:1090BC00184B1A68D0075CBF01221A60164B1A684D
:1090CC00D1075CBF01221A60144B1A68D2075CBF2F
:1090DC0001221A60124B1A68D0075CBF01221A6079
:1090EC00104B1A68D1075CBF01221A600E4B1A682C
:1090FC00D2075CBF01221A60704700BFECE7032067
:10910C00E8E70320E4E70320E0E70320DCE70320A3
:10911C00D8E70320D4E70320D0E70320CCE70320D3
:10912C00C8E70320C4E70320C0E703200A2200217C
:10913C0000F050B90A22002100F04CB910B5054CD2
:10914C0013462CB10A4601460220AFF3008010BD35
:10915C00204610BD0000000010B5431E0A44914289
:10916C0004D011F8014B03F8014FF8E710BD02448D
:10917C000346934202D003F8011BFAE77047000044
:10918C0038B5124B1C68A36B0546D3B91820FEF7F3
:10919C0029FA43F20E33A06303804AF6CD334380A1
:1091AC0041F2342383804EF26D63C3804DF6EC6341
:1091BC000381052343810B23838101220023C0E912
:1091CC000423A36B00221D615A6138BD4CC90320D6
:1091DC0010B50246134601321C78002CFAD1013B23
:1091EC0011F8012B03F8012F002AF9D110BDC9B2D7
:1091FC00034610F8012B1AB19142F9D11846704769
:10920C0000290CBF18460020704710F8012B11F8EC
:10921C00013B012A28BF9A42F7D0D01A7047034667
:10922C0011F8012B03F8012B002AF9D1704700002B
:10923C00024B0146186800F003B800BF4CC903206C
:10924C0070B5064608460C4600F00DF8451C29463C
:10925C003046FEF7F7F9064618B12A462146FFF7C5
:10926C007BFF304670BD034613F8012B002AFBD15F
:10927C00181A0138704730B582B1451E013915F8FE
:10928C00013F11F8014FA34206D1EC431444E042D4
:10929C0001D0002BF3D11C46181B30BD104630BD3D
:1092AC0010B5034642B111F8014B03F8014B013ADA
:1092BC00002CF7D11A4400E010BD934202D003F801
:1092CC00014BFAE710BD00002DE9F04780464048FD
:1092DC00D0F800900F463D4615F8014B09EB040001
:1092EC00407800F0080000F0FF0608B12F46F2E7C6
:1092FC002D2C03D1BD1C7C78012603E02B2C04BF44
:10930C007C78BD1C13B1102B0AD15BE0302C57D1EB
:10931C00287800F0DF0058284DD16C7810230235E6
:10932C00002E14BF4FF0004C6FF0004C0027BCFB1C
:10933C00F3FA384603FB1ACC09EB040E9EF801E055
:10934C001EF0040F01D0303C0BE01EF0030E1BD0BE
:10935C00BEF1010F0CBF4FF0370E4FF0570ECEEB96
:10936C000404A34210DDB7F1FF3F0AD0504506D8E4
:10937C0001D1644503DC03FB0040012701E04FF001
:10938C00FF3715F8014BD7E77B1C0CD1002E4FF0A3
:10939C00220314BF4FF000406FF00040C8F80030BB
:1093AC002AB9BDE8F08706B1404272B107B1691E17
:1093BC001160BDE8F0873024002BB1D10823AFE752
:1093CC000A23ADE7302CA3D0AAE7BDE8F08700BF95
:1093DC00E8C8032013460A46014602480068FFF716
:1093EC0073BF00BF4CC903201D400D0059400D0038
:1093FC0085400D0089400D000000000000000000B9
:10940C0000000000C1420D0005430D004D410D0050
:10941C00000000000000000059410D0075410D00D6
:10942C00B3400D0000000000963007772C610EEE63
:10943C00BA51099919C46D078FF46A7035A563E99F
:10944C00A395649E3288DB0EA4B8DC791EE9D5E0C6
:10945C0088D9D2972B4CB609BD7CB17E072DB8E7C5
:10946C00911DBF906410B71DF220B06A4871B9F31A
:10947C00DE41BE847DD4DA1AEBE4DD6D51B5D4F453
:10948C00C785D38356986C13C0A86B647AF962FDB8
:10949C00ECC9658A4F5C0114D96C0663633D0FFA05
:1094AC00F50D088DC8206E3B5E10694CE44160D50B
:1094BC00727167A2D1E4033C47D4044BFD850DD2F5
:1094CC006BB50AA5FAA8B5356C98B242D6C9BBDB08
:1094DC0040F9BCACE36CD832755CDF45CF0DD6DC03
:1094EC00593DD1ABAC30D9263A00DE518051D7C8AA
:1094FC001661D0BFB5F4B42123C4B3569995BACF35
:10950C000FA5BDB89EB802280888055FB2D90CC655
:10951C0024E90BB1877C6F2F114C6858AB1D61C1CE
:10952C003D2D66B69041DC760671DB01BC20D298ED
:10953C002A10D5EF8985B1711FB5B606A5E4BF9F7A
:10954C0033D4B8E8A2C9077834F9000F8EA809966D
:10955C0018980EE1BB0D6A7F2D3D6D08976C6491D8
:10956C00015C63E6F4516B6B62616C1CD8306585F1
:10957C004E0062F2ED95066C7BA5011BC1F40882CE
:10958C0057C40FF5C6D9B06550E9B712EAB8BE8B0F
:10959C007C88B9FCDF1DDD62492DDA15F37CD38C98
:1095AC00654CD4FB5861B24DCE51B53A7400BCA396
:1095BC00E230BBD441A5DF4AD795D83D6DC4D1A4C8
:1095CC00FBF4D6D36AE96943FCD96E34468867AD9F
:1095DC00D0B860DA732D0444E51D03335F4C0AAA3E
:1095EC00C97C0DDD3C710550AA41022710100BBE41
:1095FC0086200CC925B56857B3856F2009D466B988
:10960C009FE461CE0EF9DE5E98C9D9292298D0B0BC
:10961C00B4A8D7C7173DB359810DB42E3B5CBDB769
:10962C00AD6CBAC02083B8EDB6B3BF9A0CE2B603EA
:10963C009AD2B1743947D5EAAF77D29D1526DB049F
:10964C008316DC73120B63E3843B64943E6A6D0DEA
:10965C00A85A6A7A0BCF0EE49DFF099327AE000A35
:10966C00B19E077D44930FF0D2A3088768F2011EC8
:10967C00FEC206695D5762F7CB67658071366C195F
:10968C00E7066B6E761BD4FEE02BD3895A7ADA1080
:10969C00CC4ADD676FDFB9F9F9EFBE8E43BEB71761
:1096AC00D58EB060E8A3D6D67E93D1A1C4C2D838EB
:1096BC0052F2DF4FF167BBD16757BCA6DD06B53F51
:1096CC004B36B248DA2B0DD84C1B0AAFF64A033690
:1096DC00607A0441C3EF60DF55DF67A8EF8E6E310F
:1096EC0079BE69468CB361CB1A8366BCA0D26F2558
:1096FC0036E2685295770CCC03470BBBB9160222A5
:10970C002F260555BE3BBAC5280BBDB2925AB42BB9
:10971C00046AB35CA7FFD7C231CFD0B58B9ED92CCE
:10972C001DAEDE5BB0C2649B26F263EC9CA36A7533
:10973C000A936D02A906099C3F360EEB85670772EA
:10974C0013570005824ABF95147AB8E2AE2BB17B51
:10975C00381BB60C9B8ED2920DBED5E5B7EFDC7CD8
:10976C0021DFDB0BD4D2D38642E2D4F1F8B3DD682F
:10977C006E83DA1FCD16BE815B26B9F6E177B06F2A
:10978C007747B718E65A0888706A0FFFCA3B066617
:10979C005C0B0111FF9E658F69AE62F8D3FF6B61A4
:1097AC0045CF6C1678E20AA0EED20DD75483044E46
:1097BC00C2B30339612667A7F71660D04D476949D4
:1097CC00DB776E3E4A6AD1AEDC5AD6D9660BDF40E7
:1097DC00F03BD83753AEBCA9C59EBBDE7FCFB2479A
:1097EC00E9FFB5301CF2BDBD8AC2BACA3093B3537F
:1097FC00A6A3B4240536D0BA9306D7CD2957DE5488
:10980C00BF67D9232E7A66B3B84A61C4021B685D60
:10981C00942B6F2A37BE0BB4A18E0CC31BDF055AD9
:10982C008DEF022D524553504F4E5345207C2063F3
:10983C00616C6C6261636B5F6275666665723A201F
:10984C0025732C2063616C6C6261636B5F636F6D5D
:10985C00706C6574653A202563004552524F522056
:10986C007C2063616C6C6261636B5F6275666665BC
:10987C00723A2025732C2063616C6C6261636B5FA0
:10988C00636F6D706C6574653A2025730053746159
:10989C006765206C696D69742073776974636820DF
:1098AC0064657465637465640053746167652070E6
:1098BC006F736974696F6E206174207A65726F00C2
:1098CC0053746167652064697374616C206C696D95
:1098DC0069742072656163686564004865617465CC
:1098EC00722073657420746F20706F7765722025F9
:1098FC00640054656D706572617475726520636F78
:10990C006E74726F6C2073797374656D20737461EF
:10991C00727465640054656D7065726174757265FE
:10992C0020636F6E74726F6C2073797374656D2025
:10993C0073746F707065640054656D7065726174DA
:10994C007572653A2025642E2564CB9A432C20250C
:10995C00642E2564CB9A4600726177203D202564E5
:10996C002C2054203D2025642E2564CB9A432C209A
:10997C00746172676574203D2025642E25642C204B
:10998C006474203D2025642C206572726F72203D1A
:10999C002025642C20696E74656772616C203D20F3
:1099AC0025642C2064657269766174697665203D46
:1099BC002025642C206F7574707574203D202564EF
:1099CC00006272657669746573742D70726F64755C
:1099DC006374696F6E005075626C6973683A2065C8
:1099EC0076656E74203D2025732C20757569642076
:1099FC003D2025730056616C69646174696E672043
:109A0C006361727472696467650076616C69646124
:109A1C0074652D6361727472696467650056616C5C
:109A2C0069646174696F6E206661696C6564202D70
:109A3C00206E6F7420636F6E6E6563746564207442
:109A4C006F2074686520636C6F75640025632563F3
:109A5C0025582563255825632558256325582563E6
:109A6C002558256300252E3234732563255825632C
:109A7C00255825630025732C20256420706572639E
:109A8C00656E7420636F6D706C6574652C207465E5
:109A9C006D70203D2025642E256400537461727412
:109AAC00696E67206F70746963616C204932432062
:109ABC00627573207363616E00493243206465766E
:109ACC0069636520666F756E6420617420616464DF
