:02000002D0002C
:1040000000400D00ACB30D00000006000C000501DF
:084010000401DE0500000000C0
:04401800149C0D00E7
:10401C0009480A49884208B505D0094A824202D0AB
:10402C00121A05F08DFC0748074A0021121A05F0F8
:10403C0092FC014808BD00BF48C60320D4B20D0055
:10404C00F4C60320F4C60320F0E7032070B505F096
:10405C0085F9074C074BE41AA40800251E46A54217
:10406C0004D056F8253098470135F8E770BD00BFED
:10407C00CCB20D0094B20D0003F088B808B503F073
:10408C0039FABDE8084005F02BB903F0C1BE03F0C6
:10409C00C7BE03F0C5BE0078B0FA80F04009704787
:1040AC000123037070477047014B01221A7070474F
:1040BC00D8CA0320034B044A1B7883F00103136016
:1040CC00704700BF5CC7032060C70320014B01226F
:1040DC001A7070472CD6032003681847012A02D0A7
:1040EC00022A02D004E0016002E00B6800B1036018
:1040FC000020704713B50C46114805F05DFC2046B6
:10410C0005F0A7FCB0F5007F07DB204410F8013C5C
:10411C00A3F122025342534100E00123094C2370C6
:10412C0005F05CF82378084A002B14BF59234E2362
:10413C0000930121024B04F052FD02B010BD00BFF0
:10414C00FCDA032059D3032050A00D00436913B1AE
:10415C0083690C301847704713B500210446084694
:10416C0003F048FB02A90023204641F8043D03F06C
:10417C0059FB019C0CB1012323710021012003F098
:10418C0039FB2CB1236820469B6898470023237188
:10419C0002B010BD10B5054B00220446114640F884
:1041AC00043B03F02FFD204610BD00BF449C0D00C6
:1041BC0010B50446FFF7EEFF2046202105F043FA28
:1041CC00204610BD37B50C4605460F4805F0F4FBEC
:1041DC00204605F03EFCB0F5007F07DB204410F8CC
:1041EC00013CA3F122025342534100E00123074A50
:1041FC00137004F0F3FF00942B46054A012104F0E0
:10420C00EEFC03B030BD00BFFCDA032059D3032011
:10421C007BA00D0010B58368044613B10322014640
:10422C009847204610BD000008B503F033FB034B44
:10423C001860BDE8084003F053BD00BF18E7032029
:10424C000368C9B29B681847F0B500258E4615491E
:10425C000571856045610160044692E8030085B0F4
:10426C0002AF04F10C0687E8030096E8030082E82D
:10427C00030097E8030086E803009168606990608A
:10428C006161D168A069D060A1618DE82800064AFF
:10429C002346714604F1080003F0B4FA204605B039
:1042AC00F0BD00BF309C0D0065410D0007B5806866
:1042BC00002340B18DE80A001A46022103F0BAFA35
:1042CC00B0FA80F0400903B05DF804FB38B50F4B31
:1042DC000360836804469BB16FF00041FFF7E6FF73
:1042EC000021A06803F0BEFA237903F0FF0513B197
:1042FC0003F068FAF8E72946A06803F08BFAA5608A
:10430C0004F10C00FFF786FF204638BD309C0D00F1
:10431C0010B50446FFF7DAFF20461C2105F093F98F
:10432C00204610BD73B506460D4611461446FFF7E0
:10433C00BDFFB068002340B1019300952246194699
:10434C0003F078FAB0FA80F0400902B070BD0000BA
:10435C0040F67263984270B51CDC0F4A002352F889
:10436C00044BA04203F101050FDC116888420CDDFF
:10437C000A4E56F8232056F825309D1A031B6B4322
:10438C00081B93FBF0F0104470BD142D2B46E6D1A6
:10439C00002070BD184670BD44AE0D00F0AD0D0090
:1043AC001FB50C2AA8BF0C22014401A8144605F025
:1043BC006DFB04AB1C4401A8002304F80C3C05F075
:1043CC00A9FA04B010BD2DE9FF410D68D2F80080A8
:1043DC0046190F463046414605F06BFB801B0E28F4
:1043EC00A8BF0E20024631460446684605F04EFB37
:1043FC00404605F02EFB04AB284420441C44386096
:10440C000023684604F8103C05F084FA04B0BDE8BB
:10441C00F081000010B5084C01444FF0FF32884287
:10442C0008D010F8013B5340DBB254F8233083EA38
:10443C001222F4E7D04310BD509C0D00021E30B583
:10444C0016DB9110022329B1914203D0023342FAB8
:10445C0003F1F8E7023B00204000411C42FA03F450
:10446C0001FB01F5A542D8BF0846023BF4D530BD8F
:10447C004FF0FF3030BD000038B5064D002405F07C
:10448C0069F8204603F01EFA28550134B4F56A7F0A
:10449C00F5D138BD6CD6032038B5064D002405F097
:1044AC0059F8295D2046013403F014FAB4F56A7FFB
:1044BC00F5D138BD6CD6032038B504F08FFE084911
:1044CC00084D04F062FB002404F11800E4220021E2
:1044DC002844E43405F03FFAB4F5647FF4D138BDD8
:1044EC00A0A00D006CD6032008B5064B0A221A704A
:1044FC000C225A70FF229A70FFF7DEFFFFF7CCFFF9
:10450C00012008BD6CD60320012870B50E461D4D48
:10451C001BD11D4B188804F0B1FF044640B904F0C0
:10452C005DFE1A4904F031FB194B2C601C6016E03F
:10453C002B68002B15DC04F051FE164904F025FB0A
:10454C00134B00202860186070BD2A684AF22703BC
:10455C009A4206DD04F042FE0F4904F016FB0020DF
:10456C0070BD0E4C0121208804F06FFF304603F023
:10457C0089F90021208804F068FF304603F082F9A5
:10458C00012070BD30D6032070C60320D7A00D00CB
:10459C0098CA0320F3A00D000AA10D0078C60320D1
:1045AC002DE9F84F1C4BDFF87890C70F044688466E
:1045BC001888394604F049FF184B84EAE4711A68EC
:1045CC00A1EBE47111441922002C91FBF2F64FF08F
:1045DC00000402FB16121A60B4BF6FF0180A4FF0F9
:1045EC00190A1D46A346B44213DA41463846FFF772
:1045FC008BFF58B1D9F800305344002B02DDC9F8B9
:10460C00003004E0C9F800B0C5F800B034460134FD
:10461C00E9E7BDE8F88F00BF50C6032098CA032015
:10462C0030D60320024B0021188804F00EBF00BFC7
:10463C0084C6032008B5054B0121188804F005FF3A
:10464C000A20BDE8084003F01BBC00BF84C6032051
:10465C0038B504460D46FFF7EDFF29462046FFF717
:10466C009FFFBDE83840FFF7DDBF0000134B10B5CE
:10467C004AF228021A600446FFF7DCFF9621104824
:10468C00FFF78EFF642003F0FBFB96214FF4FA60DA
:10469C00FFF786FF642003F0F3FB4FF47A710948AF
:1046AC00FFF77EFF4FF47A7142F63020FFF778FF68
:1046BC001CB1BDE81040FFF7B5BF10BD30D60320CC
:1046CC00A015FFFF48F4FFFF2DE9F04106460D460B
:1046DC00904600244742444509DA29463046FFF704
:1046EC005FFF29463846FFF75BFF0134F3E7BDE86F
:1046FC00F08100002DE9F74F1E4D009392462B6878
:10470C001D4F80EAE072A2EBE0721A4419230028D4
:10471C0092FBF3F64FF0000403FB16232B60894643
:10472C004FEAD078B4BF6FF0180B4FF0190B23463B
:10473C00B44201931ADA0C9A00995046FFF7C4FF61
:10474C000E4B4146188804F080FE49464046FFF760
:10475C00DBFE019B38B13A685A44002A01DD3A600D
:10476C0002E03B602B6034460134E1E703B0BDE866
:10477C00F08F00BF98CA032030D6032050C6032008
:10478C0038B5064C80F3080544F62062294620888B
:10479C0004F0C4FE0123E560237238BDF8C6032083
:1047AC0010B5044C0021208804F092FE00232372E3
:1047BC00E36010BDF8C6032070B5044603F06AF838
:1047CC000F4D84F30804064644F6206221462888DF
:1047DC0004F0A4FE002C14BF01230023EC602B7208
:1047EC0009D0084B1B7833B104F0F8FC2346064A79
:1047FC00012104F0F4F903F04DF8801B70BD00BFEB
:10480C00F8C6032003CB032025A10D00024B014663
:10481C00188804F05DBE00BF48C60320024B014659
:10482C00188804F055BE00BF54C60320024B014645
:10483C00188804F04DBE00BF58C603200346412B18
:10484C00084601D1FFF7E2BF312B01D1FFF7E6BFDC
:10485C00322B01D1FFF7EABF70470000024B002159
:10486C00188804F035BE00BF48C60320024B002157
:10487C00188804F02DBE00BF54C60320024B002143
:10488C00188804F025BE00BF58C60320412801D16A
:10489C00FFF7E4BF312801D1FFF7E8BF322801D17F
:1048AC00FFF7ECBF704710B504460846FFF7AEFFA4
:1048BC00204603F0E5FABDE81040FFF7CFBF10B576
:1048CC0004460846FFF7AAFF204603F0D9FABDE8D4
:1048DC001040FFF7CBBF10B504460846FFF7A6FF04
:1048EC00204603F0CDFABDE81040FFF7C7BF38B53E
:1048FC000C4605460846FFF789FF2046FFF78EFF5A
:10490C002046FFF793FF284603F0BAFAFFF7A6FFFD
:10491C00FFF7ACFFBDE83840FFF7B0BF08B504F0B7
:10492C0047FE03F0CCFE88B904F042FE084903F0C0
:10493C0079FE04F03DFE03F079FE642003F0A0FA4A
:10494C0004F036FEBDE8084003F0B9BE08BD00BF58
:10495C00A086010008B504F02BFEBDE8084003F06A
:10496C006BBE000008B5074B074800226FF00041F2
:10497C00DA61FFF7D7FC04F031FC0449BDE80840CC
:10498C0004F003B9F8C603209CCA03203CA10D0017
:10499C0008B56FF000410648FFF788FC0020FFF7D0
:1049AC000BFF04F01BFC0349BDE8084004F0EDB814
:1049BC009CCA03205FA10D0038B5114C0021208842
:1049CC0004F086FDA08804F06CFDE16805462088A3
:1049DC0004F07EFD1DB9FFF7DBFF00250EE0284635
:1049EC00FFF7B6FC052200EBC003B0F5167F93FB76
:1049FC00F2F303F5A0732062A362ECDC284638BD09
:104A0C00F8C603202DE9F0432F4E8BB0F56802F069
:104A1C0041FFF769C7EB0009B9F57A7F8046344648
:104A2C004ED3FFF7C9FFC6F81C808046002847D03C
:104A3C0017B97761B76143E0336A776AB569E26A9F
:104A4C00FF1A4FF47A7107FB09F393FBF1F31D4442
:104A5C00B5617669636BBE1B6B434E437A43216B26
:104A6C00A56B92FBF1F193FBF5F56A18E56B236CE2
:104A7C0096FBF9F6754395FBF3F5144B1B7815442F
:104A8C00EBB104F0ABFBD4F820E0636A0895079611
:104A9C00A16906910A2293FBF2F102FB11330393F5
:104AAC009EFBF2F302FB13E2029101920093059735
:104ABC00CDF810904346064A012104F090F8676146
:104ACC0028460BB0BDE8F083F8C6032003CB0320C7
:104ADC00A2A10D002DE9F041074694B00E463A4DC7
:104AEC0002B92A602B683946013310A82B6004F0F8
:104AFC0064F910A9354804F06BF910A804F0D7F844
:104B0C003146334804F071FF324A334900231370A5
:104B1C00324A04A8137004F011F939460CA8049C0D
:104B2C0004F04BF92E4908A804F008F908A90CA8C0
:104B3C0004F06DF93146804610A804F0FFF810A976
:104B4C00404604F064F9274B02681978264B1B7811
:104B5C000B438DF8003021463C2302A803F064FB84
:104B6C00039C7CB16368013B63605BB9236820469E
:104B7C009B689847A368013BA3601BB92368204638
:104B8C00DB68984710A804F092F808A804F08FF896
:104B9C000CA804F08CF804A804F089F804F01EFBAF
:104BAC003946044610A804F008F92B6801930F4A03
:104BBC00009610AB0121204604F011F810A804F067
:104BCC0076F814B0BDE8F08100D60320F0D50320B0
:104BDC001DD3032059D303200BA20D00FCDA0320B4
:104BEC00BFAF0D006CC70320A0C7032015A20D009A
:104BFC007FB504F0F3FA1549154E164D03F0C5FFB9
:104C0C0003F086F80446B8B10123337002F042FE7B
:104C1C00114B124900F51C501030186000246846E6
:104C2C002C7004F08BF8684622460D49FFF752FFB2
:104C3C00684604F03CF806E004F0D0FA094903F0A9
:104C4C00A4FF34702C7004B070BD00BF2EA20D00F8
:104C5C0080C70320FCD20320F4C7032043A20D001D
:104C6C0038D6032056A20D00072210B50C490D486A
:104C7C0004F0F7FE0C4B041E0CBF012200221A702C
:104C8C0007D104F0ABFA094903F07FFF084B1C7005
:104C9C0010BD04F0A3FA0749BDE8104003F075BF3E
:104CAC0085A20D00ADC703207CD303208DA20D007F
:104CBC00F1C703209AA20D002DE9F0410F4F0646D3
:104CCC0000244FF0E40808FB04F505F120013944F9
:104CDC001822304604F0C5FE014648B9074818357D
:104CEC002844E42204F037FEBDE8F041FFF7D4BBC2
:104CFC000134042CE7D1BDE8F08100BF6CD6032051
:104D0C002DE9FF41244F254CDFF898803946684641
:104D1C0004F014F80099204604F06FFE054668462E
:104D2C0003F0C5FF00262A462146404604F0AEFE9D
:104D3C0008F8056001352C443946684603F0FEFF3F
:104D4C000099DFF86480204604F057FE054668465B
:104D5C0003F0ADFF2A462146404604F097FE08F8C2
:104D6C00056001352C443946684603F0E7FF00998D
:104D7C000B4F204604F041FE0546684603F097FFB2
:104D8C002A462146384604F081FE681C20447E5594
:104D9C0004B0BDE8F08100BFBFAF0D00FCDA03200A
:104DAC0004D6032082C70320ADC70320F8B51548ED
:104DBC0004F04FFE134B00245A1C02380A26092714
:104DCC0084421CDA15785C2D13D15178742904F1C6
:104DDC00010402D1591C1F7009E06E2917BF194636
:104DEC00591C01F8025B55780CBF1E705D700232C5
:104DFC0002E0591C01321D7001340B46E0E7002221
:104E0C001A70F8BDFCDA03201FB5184B1B68042B75
:104E1C0019DC04F0E3F916490446684603F0CDFFAB
:104E2C006B46144A0121204603F0D9FE684603F074
:104E3C003EFF0F49684603F0C0FF01220E49684649
:104E4C00FFF748FE0CE004F0C9F90949044668462E
:104E5C0003F0B3FF6B46094A0121204603F0BFFE65
:104E6C00684603F024FF04B010BD00BF00D6032039
:104E7C00F0D50320ADA20D001DD30320D9A20D0047
:104E8C00E4222DE9F84302FB00F6114D1149DFF83D
:104E9C00448006F118040746281904F051FD06F168
:104EAC00FC094C450ADA04F055FBA31B434420468D
:104EBC0013F8181C02F00EFD0134F2E7AF7004F089
:104ECC0049FBA9780220BDE8F84302F003BD00BFFE
:104EDC006CD6032014DA03201FB5CB890A78039310
:104EEC008B8902934B8901930B89044C00934B687B
:104EFC000349204402F0A4FF04B010BD7DD303206D
:104F0C001FA30D002DE9F743E4244443134D14492A
:104F1C00144804F120032A192B440093D369926995
:104F2C0002F08EFF00260746A84604F13C0933190F
:104F3C002B4493F83C3003F0FD03412B06D109EBD5
:104F4C00060138464144FFF7C7FF07441036C02E10
:104F5C00EDD1012003B0BDE8F08300BF6CD6032077
:104F6C0039A30D007DD3032010B5084B9C78FF2C82
:104F7C0014BF0134002404F003042046FFF780FF23
:104F8C002046BDE81040FFF7BDBF00BF6CD6032024
:104F9C0070B5194B1B780E4663BB184B1A1892F858
:104FAC0023203AB30A2A25D0092A20D00446B4F586
:104FBC00FA6F1EDA1A1992F8232032B9221A014616
:104FCC000F48FFF7EDF9306013E00A2AF6D0092AF2
:104FDC0004F1010507D1221A01460948FFF7E0F94F
:104FEC003060284670BD2C2AF5D02C46DFE7013006
:104FFC0070BD204670BD00BFF0C7032004CB03205A
:10500C0027CB032070B50029054688B01F48204CDB
:10501C0001D101601BE01F4BDA684FF47A7303FB7C
:10502C0002F207DA4FF0FF3323601B4B02600022C1
:10503C001A600DE00368194464230160594391FB25
:10504C00F2F19942A8BF19462368994200D0216019
:10505C0004F0C4F82946064604A803F0AEFE0F4B34
:10506C00196A0A2391FBF3F203FB121302932368D0
:10507C00019200930A4A04AB0121304603F0AFFDC4
:10508C0004A803F014FE08B070BD00BFA4C7032031
:10509C0000D3032004CB0320D8C70320F8C6032079
:1050AC004AA30D0010B502F0F5FB0446FFF7AAFC6D
:1050BC00FFF782FBFFF7B8F802F0ECFB001B10BD0A
:1050CC0010B50446FFF7EEFFA04204DA201ABDE843
:1050DC00104002F0D5BE10BDF0B516464A1C85B086
:1050EC0007460D4602D133600C4629E01649684646
:1050FC0003F024FE2A466946384603F0ACFE04460B
:10510C00684603F0D4FD631C0CD12A463946684628
:10511C0003F0D0FE684603F0D4FE3060684603F01E
:10512C00C6FD0DE023462A463946684603F0A2FE2A
:10513C00684603F0C6FE3060684603F0B8FD0134E3
:10514C00204605B0F0BD00BF70A30D0010B50120C6
:10515C00FFF7E4FB18B9BDE81040FFF7FBBB04F008
:10516C003DF80F4903F011FD002404F021FA21460B
:10517C0003F09BFA04F01CFA0021FFF761F804F02D
:10518C0017FA03F099FA30B904F028F82346054AC7
:10519C00012103F024FD01347F2CE6D1DBE700BFB5
:1051AC0072A30D0090A30D00164A08B500231370CE
:1051BC00154A1370154A1370154A1370154A13705B
:1051CC00154A1360154A1360154A13701376154A65
:1051DC0013701376144A137282F8203082F821303F
:1051EC00124A13701372124A1370124A0A21537026
:1051FC00117002F04FFB104B00F56A4060301860E4
:10520C0008BD00BF65C703207CD30320FCD203205C
:10521C0059D303205CC70320A4C7032000D3032069
:10522C0038D6032052D6032014DA032004CB0320F3
:10523C007DD3032000C80320A8C7032010B5072284
:10524C000D490E4804F00DFC044670B903F0C6FF7E
:10525C000B4903F09AFC0B4B01201C70FFF706FA6C
:10526C00FFF7A2FF084B1C6010BD03F0B7FF074906
:10527C00BDE8104003F089BC85A20D00ADC703202A
:10528C00AFA30D0002CB0320A8C70320BDA30D00C4
:10529C0010B507220D490E4804F0E3FB044670B923
:1052AC0003F09CFF0B4903F070FC0B4B01201C70AE
:1052BC00FFF7DCF9FFF778FF084B1C6010BD03F01B
:1052CC008DFF0749BDE8104003F05FBC85A20D00BF
:1052DC00ADC70320D1A30D0095CA0320A8C7032096
:1052EC00E0A30D001FB503F079FF0F4903F04DFC4F
:1052FC000E4B01221A7002F0CDFA0D4B00F59C40BA
:10530C0020301860FFF796F90A49684603F016FD3D
:10531C00002209496846FFF7DDFB684603F0C7FC2D
:10532C0005B05DF804FB00BFF4A30D00F1C703202A
:10533C0068C7032002A40D001CDA03201FB5164C0D
:10534C0003F04CFF214603F020FC144B01221A7091
:10535C0002F0A0FA124B00F51C50103018602146D8
:10536C00684603F0EBFC4FF0FF316846FFF74AFE4E
:10537C00684603F09CFC0B49684603F0DFFC0022F6
:10538C0009496846FFF7A6FB684603F090FCFFF757
:10539C0049F904B010BD00BFD1A30D0095CA03207C
:1053AC0058C703200DA40D001CDA03201FB503F011
:1053BC0015FF154903F0E9FB144B01221A7002F09A
:1053CC0069FA134B134900F51C50103018606846ED
:1053DC0003F0B4FC4FF0FF316846FFF713FE68464C
:1053EC0003F065FC0C49684603F0A8FC00220B494D
:1053FC006846FFF76FFB684603F059FCFFF712F99C
:10540C0005B05DF804FB00BF19A40D0002CB03200E
:10541C00ECC7032028A40D0036A40D001CDA0320D1
:10542C0070B50E460446154603F0FEFF012E05D15D
:10543C0029462046BDE8704004F04AB870BD70B5EE
:10544C000E460446154603F0EFFF012E05D1294602
:10545C002046BDE8704003F0F8BF70BD70B55E4CDF
:10546C005E495F485F4D604E8AB00023042202F013
:10547C0027FC5E4A5E49204602F0B6FD5D4A5E4955
:10548C00204602F0B1FD06A802F04AFC06A9284607
:10549C0003F09EFC06A803F00AFC584902A803F08E
:1054AC004DFC294602A803F0B2FC0024014606A8D4
:1054BC0003F083FC2346224651490194009406983C
:1054CC0002F03EFC06A803F0F2FB02A803F0EFFB8F
:1054DC004C4902A803F032FC294602A803F097FCC1
:1054EC00014606A803F069FC23462246464901946E
:1054FC000094069802F024FC06A803F0D8FB02A83E
:10550C0003F0D5FB192223463146284603F08BFCC9
:10551C003E4B34761888022103F086FF3C4B022167
:10552C00188803F081FF3B4B012211461888FFF7C6
:10553C0086FF394B2146188803F076FF374B2246FD
:10554C0018880121FFF76CFF354B22461888012182
:10555C00FFF766FF334B224618880121FFF760FFE7
:10556C00314B2146188803F05FFF304B21461888D9
:10557C0003F05AFF2E4B2146188803F055FF2D4B94
:10558C00224618880121FFF75AFF2B4B2246188818
:10559C000121FFF754FF294B224618880121FFF700
:1055AC004EFF274B802218880121FFF739FF254B2E
:1055BC00224618880121FFF733FF234B2246188817
:1055CC000121FFF72DFF03F009FE4FF4E13103F049
:1055DC00F9FD0AB070BD00BFC97F0D007DD303205B
:1055EC0042A40D00DCC7032004D303204BA40D0000
:1055FC00415D0D0053A40D00C5710D005CA40D00A0
:10560C0001410D0075A40D00D1410D0070C60320A1
:10561C0064C603207CC6032080C6032048C6032032
:10562C0054C6032058C603206CC6032074C603203E
:10563C005CC6032084C6032078C6032050C6032012
:10564C0060C6032068C603204CC6032007B503F0D0
:10565C0081FF012200200DF1070102F043F99DF8B2
:10566C000730FF2B044B0DBF01220022012000202C
:10567C001A7003B05DF804FBACC7032030B50A4CBC
:10568C00257885B06DB90949684603F057FB2A4661
:10569C0007496846FFF71EFA684603F008FB01232A
:1056AC00237005B030BD00BF64C703208BA40D0070
:1056BC0004D3032007B5009313460A46012103F0D7
:1056CC008EFA03B05DF804FB38B50A4B1B78044620
:1056DC000D4633B103F082FD2B4622460649FFF7F7
:1056EC00E9FF064B2A4621461878BDE8384003F0FE
:1056FC0057BC00BF03CB03209BA40D0068C603203E
:10570C0008B5FA214FF48370FFF7DEFF322002F068
:10571C00B7FBFA214FF49370FFF7D6FF322002F05B
:10572C00AFFBFA214FF4A570FFF7CEFF322002F049
:10573C00A7FBFA2140F25D10FFF7C6FF322002F002
:10574C009FFBFA214FF4C470FFF7BEFF322002F02A
:10575C0097FBFA214FF4DC70FFF7B6FF322002F012
:10576C008FFBFA214FF4F770FFF7AEFF322002F0F7
:10577C0087FBFA2140F20B20BDE80840FFF7A4BFDD
:10578C002DE9F0410D4655490346024686B01830C6
:10579C0052F8044B41F8044B8242F9D1186859680D
:1057AC004F4C504E03C42B4605F11807083C1868A3
:1057BC005968324603C20833BB421646F7D1192347
:1057CC000193494B49494FF0000802A883F8218006
:1057DC0003F0B4FA02AA01A92846FEF7F4FDE06032
:1057EC0002A803F064FA414902A803F0A7FA02AA3E
:1057FC0001A92846FEF7E7FD206102A803F057FA3D
:10580C003A4902A803F09AFA02AA01A92846FEF71F
:10581C00DAFD606102A803F04AFA344902A803F0E9
:10582C008DFA02AA01A92846FEF7CDFDA06102A8B7
:10583C0003F03DFA2D4902A803F080FA02AA01A94F
:10584C002846FEF7C0FDE06102A803F030FA2749B4
:10585C0002A803F073FA02AA01A92846FEF7B3FDC9
:10586C00208402A803F023FA204902A803F066FA68
:10587C0002AA01A92846FEF7A6FD84F8220002A878
:10588C0003F015FA194902A803F058FA02AA01A963
:10589C002846FEF798FD074602A803F008FA268C66
:1058AC000199134832462944344404F0EFF8B11EF0
:1058BC000F4884F82380FEF7ADFD80EAE074A4EB7A
:1058CC00E07403F08BFC23463A460A49FFF7F2FEDC
:1058DC003B1B5842584106B0BDE8F08152D603201C
:1058EC0004CB03201CDA032014DA0320CDA40D0012
:1058FC0027CB0320CFA40D0073B5044603F058FE4C
:10590C00214602F0CEFE03F053FE0021FEF798FC78
:10591C00064603F04DFE002102F0CAFE054630B1EA
:10592C0003F05CFC2B4632461549FFF7C3FE03F02F
:10593C003FFE2146042202F0B1FE03F039FE03685B
:10594C005B699847044603F033FE03685B6998472C
:10595C000C4B1B78054643B103F040FCE3B20093BB
:10596C00094AEBB2012103F03AF96A0704D4E0B218
:10597C00C31E5842584100E0002002B070BD00BF69
:10598C00E7A40D0003CB032008A50D007FB5124B37
:10599C001C680D46041B06461049684603F0CEF9F8
:1059AC0084EAE473A3EBE4736B43684646F2A811F4
:1059BC0093FBF1F1FFF726FB684603F078F903F04F
:1059CC000DFC234632460649FFF774FE2946204655
:1059DC00FEF7E6FD04B070BD30D603201EA50D0009
:1059EC0039A50D00962144F25060FFF7CFBF9621E8
:1059FC0042F63020FFF7CABF13460A46012103F0D6
:105A0C00EEB80000F8B501F045FF184B1A68824259
:105A1C001F4625D8164B1A781D462AB103F0DEFB1B
:105A2C00144A012103F0DBF8134A0023E42101FBA3
:105A3C00032696F820404CB12C789CB103F0CEFB99
:105A4C0096F820200D49FFF7D7FF0CE00133042B0B
:105A5C00EDD101F01FFF00F56A406030386002E0C4
:105A6C00002400E001242046F8BD00BFA8C7032095
:105A7C0003CB032064A50D006CD603207FA50D007D
:105A8C002DE9F347444C23780646884615462BB13E
:105A9C0003F0A4FB32464149FFF7AEFF03F088FD4B
:105AAC00294602F002FE03F083FD0021FEF7C8FB3D
:105ABC00824603F07DFD0221FEF7C2FB074603F090
:105ACC0077FD012102F0F4FD814650B1574403F0FB
:105ADC0085FBCDF8049000973346314A012103F041
:105AEC007EF803F065FD294602F0DFFD03F060FD52
:105AFC000621FEF7A5FB824603F05AFD03685FFA08
:105B0C0088F19B689847074603F052FD012102F08B
:105B1C00CFFD814650B1574403F060FBCDF80490A3
:105B2C00009733461E4A012103F059F803F040FD5B
:105B3C00294602F0BAFD03F03BFD0621FEF780FB7F
:105B4C00074603F035FD002102F0B2FD064630B1E8
:105B5C0003F044FB33463A461249FFF7ABFD03F022
:105B6C0027FDE9B2012202F099FD054603F020FD64
:105B7C0003685B699847237806464BB103F02EFB0C
:105B8C000196CDF800802B46074A012103F027F837
:105B9C0002B0BDE8F08700BF03CB03208EA50D003B
:105BAC00ACA50D00E7A40D00D3A50D002DE9F34124
:105BBC00534D544E544F01232B7003F00FFB53499C
:105BCC0002F0E3FF03F068FA4FF4165103F05AFAAF
:105BDC0003F004FB4E4902F0D8FF0021308803F09B
:105BEC0034FC01F057FE00F59C5403F0F7FA4949D8
:105BFC0002F0CBFF0834388803F040FC804603F0F9
:105C0C00EDFA2E2102F0B2FFFEF70EFBC82002F0D7
:105C1C0037F9B8F1010F03D001F03CFEA042EAD3F2
:105C2C0003F0DCFA074603F037FA03681B69984760
:105C3C00002814BF59224E2237493846FFF7DCFEA4
:105C4C000121308803F001FC03F0C8FA334902F05B
:105C5C009CFF03F021FA03681B69984730B901F0E7
:105C6C0019FE844202D9FEF7DFFAF2E7642002F053
:105C7C0007F903F0B3FA2A492A4E02F086FF0024F2
:105C8C0003F0ACFA2E2102F071FF03F005FA036861
:105C9C005B699847431C1CBF3055013403F0FCF979
:105CAC0003681B69984708B1172CE9DD03F096FAD5
:105CBC0002F05FFF172C1B4A09DC1B4B114603F14A
:105CCC00180053F8046B41F8046B8342F9D1002699
:105CDC00167603F083FA134B144A0094012102F058
:105CEC007EFF03F0D9F903F0D0F903F077FA1049ED
:105CFC0002F04BFF20462E7002B0BDE8F08100BFD1
:105D0C00D9CA03207CC6032080C60320F6A50D004B
:105D1C0009A60D0020A60D0031A60D005AA60D00F7
:105D2C00B8A60D0038D6032070A60D0089A60D006C
:105D3C00A1A60D0070B590B00025014606460CA832
:105D4C000795089509950A950B9503F036F82B469F
:105D5C0006AA29460CA8FFF7BFF904460CA802F0C6
:105D6C00A6FF069B023B202B00F2AE82DFE813F06D
:105D7C00210025005400AC02AC027E0099009E006C
:105D8C00C000E10003012401460169016E01880194
:105D9C008D019E01A101A401A701AB01AC02AC02D3
:105DAC00AC02AE01C601F90100020402AC022902E8
:105DBC0059020120FEF75AFC83E231460CA802F08E
:105DCC00FCFF002307AA21460CA8FFF785F904461F
:105DDC000CA802F06CFF31460CA802F0EEFF4FF459
:105DEC007A7308AA21460CA8FFF776F90CA802F0E2
:105DFC005EFF08990798B74CFEF72AFC03F0EEF902
:105E0C00B54BB64A1B680193236800930121079B8D
:105E1C0002F0E5FE246858E2FEF70CFCFFF7E2FD09
:105E2C00FEF700FC31460CA802F0C7FFB62307AA08
:105E3C0021460CA8FFF750F904460CA802F037FFD6
:105E4C0031460CA802F0B9FFFF2308AA21460CA882
:105E5C00FFF742F90CA802F02AFFA14B079C1C602B
:105E6C00A04B089A1A6001229F4BA8E131460CA85E
:105E7C0002F0A3FF07AA21464FF4B9730CA8FFF751
:105E8C002BF90CA802F013FF03F0A8F9974B196A31
:105E9C000A2391FBF3F203FB12139549FFF70AFC5B
:105EAC0024E0FEF721FB934B5C780EE231460CA804
:105EBC0002F083FF4FF4FA7307AA21460CA8FFF7F0
:105ECC000BF904460CA802F0F2FE31460CA802F0C5
:105EDC0074FF2146FF2308AA0CA8FFF7FDF80CA8B5
:105EEC0002F0E5FE08990798FEF7DDFC079CECE153
:105EFC0031460CA802F061FF07AA4FF4FA73214651
:105F0C000CA8FFF7E9F804460CA802F0D0FE3146C5
:105F1C000CA802F052FF2146FF2308AA0CA8FFF799
:105F2C00DBF80CA802F0C3FE08990798FEF7C7FC33
:105F3C001FE031460CA802F040FF4FF4FA7307AA99
:105F4C0021460CA8FFF7C8F804460CA802F0AFFED7
:105F5C0031460CA802F031FF2146FF2308AA0CA8F9
:105F6C00FFF7BAF80CA802F0A2FE08990798FEF702
:105F7C00B2FC089CA9E131460CA802F01EFF07AA4E
:105F8C004FF4FA7321460CA8FFF7A6F804460CA8A8
:105F9C0002F08DFE31460CA802F00FFF2146FF23C4
:105FAC0008AA0CA8FFF798F80CA802F080FE089934
:105FBC000798FEF79CFCDCE731460CA802F0FDFECE
:105FCC0007AA4FF4167321460CA8FFF785F8044670
:105FDC000CA802F06CFE31460CA802F0EEFE214635
:105FEC004FF47A7308AA0CA8FFF776F80CA802F005
:105FFC005EFE08990798FFF767FB77E731460CA818
:10600C0002F0DBFE07AA002321460CA8FFF764F878
:10601C0004460CA802F04BFE31460CA802F0CDFE53
:10602C0021464FF47A7308AA0CA8FFF755F80CA870
:10603C0002F03DFEFEF7FEFA08990798FFF7A6FC62
:10604C003DE1FEF7F7FAFFF7D2FC38E131460CA838
:10605C0002F0B3FE4FF4B97307AA21460CA8FFF760
:10606C003BF80CA802F023FE079C40F25623621E5C
:10607C009A4200F22A811D4B00225C62DA6124E113
:10608C00FEF7D8FAFFF7AEFC19E131460CA802F086
:10609C0094FE802307AA21460CA8FFF71DF80CA834
:1060AC0002F005FE0798FEF76BFB1FE7FEF778FB87
:1060BC005CE0FEF757FC59E0FEF76AFC56E00E4B2D
:1060CC0001241C7001E10C4B1D70FDE0FFF73EF844
:1060DC004CE000BF30D6032098CA0320D5A60D0093
:1060EC00ECD50320F8D20320D8CA0320F8C603202D
:1060FC0004A70D006CD6032003CB0320FEF79AFAFD
:10610C00FFF770FCFEF78EFA31460CA802F055FE34
:10611C0007AAB62321460CA8FEF7DEFF04460CA8FE
:10612C0002F0C5FD31460CA802F047FE08AA214634
:10613C00FF230CA8FEF7D0FF0CA802F0B8FD6D4BA6
:10614C0007996D4800221A706C4B19606C4B0899BA
:10615C0019606C4B01246FF000411C70FEF7E2F8E3
:10616C00B3E06FF000416448FEF7A0F80124ACE006
:10617C00FFF71CFD0446A8E031460CA802F01DFEFA
:10618C00B62307AA21460CA8FEF7A6FF04460CA8C6
:10619C0002F08DFD31460CA802F00FFEFF2308AA79
:1061AC0021460CA8FEF798FF0CA802F080FD564B78
:1061BC00079C1C60554B089A1A60554B01221A70AB
:1061CC0083E031460CA802F0F8FD07AA19232146FA
:1061DC000CA8FEF781FF04460CA802F068FD3146BE
:1061EC000CA802F0EAFD08AA962321460CA8FEF79B
:1061FC0073FF04460CA802F05AFD31460CA802F0BD
:10620C00DCFD09AA21460A230CA8FEF765FF0CA8A1
:10621C0002F04DFDFEF70EFA07A807C8FEF754FA78
:10622C004DE031460CA802F0C8FD002307AA214618
:10623C000CA8FEF751FF04460CA802F038FD3146BD
:10624C000CA802F0BAFD4FF47A7308AA21460CA8E8
:10625C00FEF742FF04460CA802F029FD31460CA8BB
:10626C0002F0ABFD192309AA21460CA8FEF734FF56
:10627C0004460CA802F01BFD31460CA802F09DFD53
:10628C0096230AAA21460CA8FEF726FF04460CA862
:10629C0002F00DFD31460CA802F08FFD02230BAA73
:1062AC0021460CA8FEF718FF0CA802F000FDFEF723
:1062BC00C1F90B9B009307A80FC8FEF71BFAFEF75A
:1062CC00B1F9144B1C6800E0002402F087FF0B9B13
:1062DC0005930A9B0493099B0393089B0293079BCA
:1062EC0001930094069B0C4A012102F078FC204695
:1062FC0010B070BD03CB03203CC70320ECD50320AA
:10630C00F8D20320D8CA0320FCC7032090CA03206C
:10631C00A1C7032030D6032019A70D0010B5154BCB
:10632C00188803F0ABF8144B021E0CBF012100219E
:10633C0019701C4608D10121104801F063FC4FF480
:10634C00AF714FF4167007E0002211460B4801F0B4
:10635C0059FCC8214FF49670FFF7B6F902F03EFFD6
:10636C0023780749002B14BF59224E22FFF744FB18
:10637C0010BD00BF64C603205AD3032074CA032087
:10638C0063A70D0010B51B4B1A7892B11A4C2278EA
:10639C0052B1002222701A7002F020FF174902F04D
:1063AC00F4FBFFF7BBFF04E0322001F069FD012391
:1063BC002370134B1C7874B101F06CFA114B1B68F1
:1063CC00984215D902F00AFF0F4902F0DEFBBDE836
:1063DC001040FEF70DBC0D4B1A784AB11C700C4BDB
:1063EC001B782BB1FFF7E2FB18281CBF094B1C7064
:1063FC0010BD00BF2CD60320A2C7032078A70D0028
:10640C0080C70320F4C7032090A70D0094CA032073
:10641C005AD30320FCD2032013460A46002102F073
:10642C00DEBB00002DE9F3470546174698460E469D
:10643C0003F0BEF8294602F034F903F0B9F8002154
:10644C00FDF7FEFE824603F0B3F88321FDF7F8FE5C
:10645C00044603F0ADF8012102F02AF9814660B13F
:10646C00544402F0BBFECDF8049000942B46754AC0
:10647C00012102F0B4FB0020E0E001F00BFA00F582
:10648C009C5909F108092846FFF736FA70B901F052
:10649C0001FA484503D2642001F0F2FCF3E702F064
:1064AC009DFE2A466849FFF7A7FAE4E7674C237874
:1064BC002BB102F093FE2A466549FFF79DFA03F0D3
:1064CC0077F8294602F0EDF803F072F80021FDF799
:1064DC00B7FE824603F06CF8002102F0E9F8814621
:1064EC0030B102F07BFE4B4652465A49FFF7E2F8B8
:1064FC0003F05EF829460A2202F0D0F803F058F8AF
:10650C0003685B699847054603F052F803685B69BA
:10651C009847237881464BB1EDB202F05FFE0095AF
:10652C005FFA89F34C4A012102F059FB03F040F861
:10653C0003685B6998472378C5B22BB102F04EFE15
:10654C002A464649FFF768FF03F032F803685B6997
:10655C0098472378814633B102F040FE5FFA89F206
:10656C003E49FFF759FF4FEA092909F47F491423E3
:10657C004D4495FBF3F50A9B433D1D8003F018F841
:10658C0003685B6998472378C5B22BB102F026FEED
:10659C002A463249FFF740FF03F00AF803685B69AB
:1065AC00984723785FFA80F92BB102F017FE4A4620
:1065BC002A49FFF731FF05EB0925358002F0F8FF7A
:1065CC0003685B6998472378C5B22BB102F006FECD
:1065DC002A462249FFF720FF02F0EAFF03685B69B5
:1065EC0098472378C6B22BB102F0F8FD32461B490E
:1065FC00FFF712FF05EB06253D8002F0D9FF03687B
:10660C005B6998472378C5B22BB102F0E7FD2A46A7
:10661C001249FFF701FF02F0CBFF03685B69984753
:10662C002378C6B22BB102F0D9FD32460B49FFF7E5
:10663C00E3F905EB0625A8F80050012002B0BDE8EF
:10664C00F08700BFD5A70D0035A80D0003CB0320A4
:10665C0005A80D00E7A40D0008A50D0031A80D003C
:10666C002DE9F04F8FB0412807460A9115460AD004
:10667C0031280CD032280ED002F0B0FD3A465549E4
:10668C00FFF7BAF9A3E0544C4FF0740A06E0534CF0
:10669C004FF0750A02E0524C4FF0760A73B1514A32
:1066AC0092F821000C24B0FBF4F304FB1304E4B2C5
:1066BC0002EB04140130243482F821004A4B0B9372
:1066CC0001221A70FEF76CF829463846FEF7B6F828
:1066DC00642001F0D5FB52460A993846FFF7D0F9F1
:1066EC00277001F0D7F84FF0000905226060627046
:1066FC00C8464E464D46CB4663789B4520DA0CABDC
:10670C0000930DAA0DF136030DF132015046FFF73F
:10671C0089FE60B1BDF832301D44BDF834301E44E2
:10672C00BDF836309844BDF83030994405E002F09D
:10673C0055FD3A462D49FFF75FF90BF1010BDBE7ED
:10674C0096FBF3F66681B6B295FBF3F5764325819D
:10675C00ADB298FBF3F005FB0565A08180B299FB07
:10676C00F3F900FB0050A4F80E90FDF767FE064607
:10677C0002F034FDB6B2054601F08CF80896A389F8
:10678C00079363890693238905931FFA89F909EB0B
:10679C00C909052399FBF3F320339BB20493E389D6
:1067AC00039363780293124BB0FBF3F202FB1300DA
:1067BC000A9B019000930F4A3B460121284602F0A8
:1067CC000EFA0B9A002338461370FEF75FF80FB0E1
:1067DC00BDE8F08F50A80D0070C703205CD30320D8
:1067EC006CD3032014DA03205CC703206CA80D00C3
:1067FC0040420F0093A80D002DE9F04104460D46D0
:10680C00164601F047F807460120FEF787F8B0B1AD
:10681C0033462A4621464120FFF722FF33462A46BB
:10682C0021463120FFF71CFF33462A4621463220F1
:10683C00FFF716FF02F0D2FC02F09BF904E002F025
:10684C00CDFC0B4902F0A1F9FEF784F8094B1B783B
:10685C0063B102F0C3FC044601F01CF8064AC31BEA
:10686C0001212046BDE8F04102F0B9B9BDE8F08144
:10687C00D5A80D0003CB032008A90D002DE9F04F7E
:10688C0087B08046894601F005F883460120FEF763
:10689C0045F8C8B902F0A2FC334902F076F9FEF7CC
:1068AC0059F8324B1B78002B5BD002F097FC044656
:1068BC0000F0F0FF2E4ACBEB00030121204607B07D
:1068CC00BDE8F04F02F08BB90024DFF8ACA0012634
:1068DC0027464FF000038AF821304A4601234146EF
:1068EC004120FFF7BDFE01234A4641463120FFF708
:1068FC00B7FE4A46414601233220FFF7B1FEBAF8F3
:10690C002C20BAF83C10D51B002DB8BF6D42632D5E
:10691C0005DC0B1B002BB8BF5B42632B10DD002486
:10692C0041F2883005910492013601F0A9FA002C4D
:10693C00B5D1332E049A0599B1D00C461746C8E749
:10694C00049302F04BFC049B009359220192012109
:10695C00084A02962B4602F042F921463A46012497
:10696C00DEE707B0BDE8F08FD5A80D0003CB032000
:10697C0008A90D0019A90D0014DA03202DE9F04126
:10698C0005468CB00C46FEF78DFB0A2D00F0788185
:10699C006FDC052D00F0D28037DC012D00F09B80E0
:1069AC0015DC002D40F0428202F0E8FAA94BAA490E
:1069BC00186008A802F0C2F941F2707108A8FEF73D
:1069CC0021FB08A802F073F94FF47A7014E2022D3F
:1069DC0000F09380042D40F0298202A92046FEF796
:1069EC00D7FA03A9FEF7D4FA9C49044608A802F08A
:1069FC00A5F9029908A8FEF705FB08A802F057F9BB
:106A0C0002990398FEF760FE10E2072D00F0C88093
:106A1C00C0F2B680082D00F0EB80092D40F0068204
:106A2C008F4908A802F08AF98E4B1968A1F58C41A0
:106A3C0050390029B8BF49429623594308A88A4BBC
:106A4C0091FBF3F1FEF7DEFA08A802F030F9FEF73D
:106A5C00C9FF864908A802F071F941F2707108A8C3
:106A6C00FEF7D0FA08A802F022F90122FF21B62085
:106A7C0036E10F2D00F060810CDC0D2D00F03F8114
:106A8C0000F33F81204602A9FEF782FA0024054656
:106A9C00774E30E1122D00F052810FDC102D40F0BA
:106AAC00C58102A92046FEF773FA03A9FEF770FA16
:106ABC00039904460298FEF769FFB7E1132D00F025
:106ACC009E81632D40F0B28102F058FA614B586000
:106ADC00FEF74AFAAAE102A92046FEF759FA6549DF
:106AEC00044608A802F02AF9029908A8FEF78AFAC7
:106AFC0008A802F0DCF802987EE102A92046FEF715
:106B0C0047FA03A9FEF744FA5B49044608A802F0C9
:106B1C0015F9029B83EAE371A1EBE371039B08A8CF
:106B2C004B43514993FBF1F1FEF76CFA08A802F0C4
:106B3C00BEF8029B0399C82058431EE002A92046C8
:106B4C00FEF726FA03A9FEF723FA4B49044608A8D8
:106B5C0002F0F4F8029B83EAE371A1EBE371039B6F
:106B6C0008A84B4346F2A81193FBF1F1FEF74AFA41
:106B7C0008A802F09CF803990298FDF711FD55E165
:106B8C0002A92046FEF704FA03A9FEF701FA04A9AC
:106B9C00FEF7FEF9044602A807C8FDF795FD45E18E
:106BAC002F4908A802F0CAF82E4B1968A1F58C41A0
:106BBC0050390029B8BF49429623594308A82A4B9B
:106BCC0091FBF3F1FEF71EFA08A802F070F8FEF73D
:106BDC0009FF2A4908A802F0B1F841F2707108A81F
:106BEC00FEF710FA08A802F062F8FF21B6202EE09A
:106BFC0002A92046FEF7CCF903A9FEF7C9F91849FA
:106C0C00044608A802F09AF8164B1968A1F58C41B5
:106C1C0050390029B8BF49429623594308A8124B52
:106C2C0091FBF3F1FEF7EEF908A802F040F8FEF73D
:106C3C00D9FE124908A802F081F841F2707108A837
:106C4C00FEF7E0F908A802F032F803990298FFF772
:106C5C0015FEEBE014DA032040A90D0065A90D0028
:106C6C006DA90D0030D60320400D0300B4A90D0012
:106C7C00F0C703204EA90D0056A90D0093A90D00D5
:106C8C0002A92046FEF784F903A9FEF781F96949A8
:106C9C00044608A802F052F8674B1968A1F58C411C
:106CAC0050390029B8BF49429623594308A8634B71
:106CBC0091FBF3F1FEF7A6F908A801F0F8FFFEF737
:106CCC0091FE5F4908A802F039F841F2707108A8EA
:106CDC00FEF798F908A801F0EAFF0399029801223F
:106CEC00FFF78AFDA2E03378002B40F0A080284605
:106CFC0000F0C0F80134029BA342F4DC97E0604240
:106D0C0095E002A92046FEF743F94E49044608A82F
:106D1C0002F014F8002108A8FEF774F908A801F095
:106D2C00C6FF029A40F25623511E99427ED8464B1A
:106D3C005A620022DA6179E0FEF759FE76E002A988
:106D4C002046FEF725F903A9FEF722F904A9FEF760
:106D5C001FF93E4B1B78044633B102F03FFA049BFB
:106D6C003B4A012101F03BFF3A4F0026049BB34202
:106D7C0036DD3D78002D33D105A92046FEF708F904
:106D8C0006A9FEF705F907A9FEF702F9069AC8232A
:106D9C005343044606934FF47A78059BAB421DDDB2
:106DAC002D4908A801F0CAFF069B83EAE371A1EB09
:106DBC00E371029B4B43079993FBF8F308A8194422
:106DCC00FEF720F908A801F072FF02990698FDF76A
:106DDC00E7FB0798FEF774F90135DEE70136C5E7E6
:106DEC001E4908A801F0AAFF039908A8FEF70AF9A2
:106DFC0008A801F05CFF0398FEF762F916E002A9FF
:106E0C002046FEF7C5F803A9FEF7C2F804A9FEF761
:106E1C00BFF805A9FEF7BCF806A9FEF7B9F8069B62
:106E2C000093044602A80FC8FDF764FC20460CB082
:106E3C00BDE8F0816DA90D0030D60320400D030094
:106E4C00B4A90D00CCA90D00F8C6032003CB032078
:106E5C00EEA90D00F0C7032056A90D000AAA0D00DB
:106E6C00034A12780AB9FFF789BD0846704700BF7C
:106E7C00F0C7032013B501A90446FEF789F80146B3
:106E8C0064B9019B53B1114B01221A7002F0A6F99F
:106E9C000F4901F07AFE4FF0FF3015E001980B4CD2
:106EAC00FFF7DEFF019B632B0BD0002809DD237855
:106EBC003BB901A9FEF76CF801460198FFF7D0FF2A
:106ECC00F0E70028B8BF404202B010BDF0C7032065
:106EDC0029AA0D001FB52C4B01221A7002F07EF965
:106EEC002A4901F052FE2A4B2849002468461C60AE
:106EFC0001F024FF21466846FEF784F8684601F04D
:106F0C00D6FE00F0FDFE4FF4FA6000F0B9FF00F081
:106F1C00FFFE044638B102F061F91E4901F035FE5E
:106F2C00FDF782F9EFE7FDF7A1FB4FF4FA614FF49F
:106F3C001670FEF7C9FB4FF4FA6000F0A1FF214672
:106F4C00204600F057FC2046FFF794FF2146012015
:106F5C0000F050FC00F0CCFE4FF4FA6000F090FF13
:106F6C0000F0D6FE38B902F039F90B4901F00DFEEC
:106F7C00FDF75AF9F0E7094B094A1B7883F0010336
:106F8C00137004B010BD00BF65C7032041AA0D00EB
:106F9C00D8C7032073A40D004EAA0D00F0C7032020
:106FAC0081C7032013460A46012101F018BE0000D8
:106FBC0038B5072204460D490D4802F052FD05462E
:106FCC0060B902F00BF922460A49FFF7EBFF0A4BB6
:106FDC001D702046BDE83840FDF76EBE02F0FEF88D
:106FEC000649BDE8384001F0D0BD00BF85A20D00B8
:106FFC00ADC7032050AA0D00F8C7032088AA0D00C6
:10700C001E4B002273B51A70064607220C461C480C
:10701C001C491D4D02F025FDB0FA80F04009287086
:10702C0002F0DCF82B781949002B14BF59224E22A0
:10703C00FEF7E2FC2B78B3B121463046FEF7A0FBFD
:10704C0048B1134B01221A7002F0C8F822461149BC
:10705C00FFF7A8FF0FE002F0C1F80F4902B0BDE83E
:10706C00704001F092BD02F0B9F8009433460B4A1F
:10707C00012101F0B4FD02B070BD00BF80C7032038
:10708C00ADC7032085A20D00FCD203209CAA0D00E5
:10709C0051D60320B4AA0D00DAAA0D00F6AA0D00F1
:1070AC0013B5304CFDF7E8F9228840F60A439A42B2
:1070BC0001D0FDF719FAFEF749F802F08FF82A49CA
:1070CC0001F063FD0120FDF7D1FA02F087F82749A2
:1070DC0001F05BFDFF214FF4FA70FDF7E4FB4FF478
:1070EC00FA7000F0CDFEFF214FF4FA70FDF7E7FBCC
:1070FC004FF4FA7000F0C4FEFF214FF4FA70FDF764
:10710C00EAFB02F06BF81A4901F03FFDFEF7F8FAC2
:10711C00FEF74AF8FFF702F9164B174918880022B8
:10712C004FF0FF33009201F0CFFA02F057F8134AF8
:10713C001349FFF737FF02F051F8A27801926278F9
:10714C002378009201210F4A01F049FDFDF70AFC5A
:10715C0000F0A0FB0C4B00F59C500830186002B0FE
:10716C0010BD00BF6CD6032017AB0D0027AB0D0074
:10717C0037AB0D0064C60320D9400D0004D30320A7
:10718C004CAB0D005AAB0D00F8DA032008B5FEF736
:10719C0065F9FEF75BFA18B1BDE80840FFF780BF50
:1071AC0002F01CF8024A0349FFF7FCFE08BD00BFC1
:1071BC0004D30320E4AB0D0010B58368182B11D158
:1071CC000A4C19222146002301F02DFE00232376C0
:1071DC0002F004F822460649FFF7E4FEFDF708FD2D
:1071EC00012010BD4FF0FF3010BD00BF38D603207A
:1071FC0001AC0D007FB5324B324D00221A702B784A
:10720C00222B04D001F0EAFF2A462F491AE0FDF7A1
:10721C00CDFDFDF775FD2D4C064601F0DFFF2C4B27
:10722C00009301212B4B029601942B4A01F0D7FCC1
:10723C002A4B2848196802F0CEFB50B101F0CEFF62
:10724C0027492A46FFF7AEFE04B0BDE87040FDF7B3
:10725C00DBBD24491F4802F0BEFB30B93146204645
:10726C0004B0BDE87040FFF7CBBE1F49194802F0CF
:10727C00B2FB20B904B0BDE87040FDF7F5BC1B496A
:10728C00144802F0A8FB20B904B0BDE87040FDF72B
:10729C00D5BF17490F4802F09EFB20B904B0BDE8DA
:1072AC007040FDF7F5BF13490A4802F094FB28B96A
:1072BC00204604B0BDE87040FFF77ABE04B070BD44
:1072CC0059D30320FCDA03201FAC0D0004D6032095
:1072DC00ADC7032082C7032047AC0D00F0D50320B7
:1072EC0073AC0D0043A20D0002A40D0036A40D00DA
:1072FC000DA40D0094AC0D0030B5144B85B00122DB
:10730C000C461A70054600F0C5FA114B00F59C406E
:10731C002030186001F062FF22460E49FFF742FE52
:10732C002846FDF7EFFD01F059FF0B4901F02DFC4C
:10733C000A49684601F002FD002221466846FDF725
:10734C00C9FB684601F0B3FC05B030BDF8C703209B
:10735C0034D60320A0AC0D007DD3032094AC0D00DB
:10736C0010B501F03BFF0B4901F00FFC0A4B00205C
:10737C00E42202FB00F15C1894F8204034B1064B77
:10738C0020311944BDE81040FFF7B6BF0130042886
:10739C00EFD110BDBEAC0D006CD6032038B5404B00
:1073AC001B781BB33F4C25783DB101F017FF3E49CC
:1073BC0001F0EBFB0023237027E03C4C237833B126
:1073CC0001F00CFF3A4901F0E0FB257031E0394B3C
:1073DC001B78F3B100F05EFA374B1B68834218D26E
:1073EC0001F0FCFE354901F0D0FB0EE0344B1B786C
:1073FC0083B300F04FFA334B1B6898422AD901F043
:10740C00EDFE314901F0C1FB20E0BDE83840FDF74D
:10741C0095BF2E4B1B78002B41D000F03BFA2C4B28
:10742C001B68984200D838BD01F0D8FE294901F0FC
:10743C00ACFBBDE83840FDF7B9BF274C2378C3B18E
:10744C0001F0CCFE254901F0A0FB2570BDE83840C9
:10745C00FDF748BF224C2578002DEED001F0BEFE82
:10746C00204901F092FB00232370BDE83840FFF760
:10747C0031BD1D4B1B785BB100F00CFA1B4B1B682C
:10748C0098420CD901F0AAFE194901F07EFB02E0EA
:10749C00FEF7B8FA18B1BDE83840FFF761BF38BD48
:1074AC0065C70320F0C70320CEAC0D0081C70320B5
:1074BC00DEAC0D0095CA032058C7032021AD0D008A
:1074CC00F1C7032068C703209EAD0D0002CB03203B
:1074DC00ECC7032060AD0D0051D6032040A90D0070
:1074EC007CD30320EDAC0D00F8C7032034D6032069
:1074FC0005AD0D007FB5334E334C01F06FFE0368C4
:10750C001B69984740B301F069FE03685B699847B3
:10751C002368F05401F062FE03681B6998472368E6
:10752C00054638B10133282193FBF1F201FB1233EC
:10753C002360E2E7F05401F051FE224901F025FBF3
:10754C0020492560684601F0F9FB6846FEF7F2FB1E
:10755C00684601F0ACFBD0E71C4B1B783BB101F04B
:10756C003DFE1B4901F011FBFFF744FE27E0194BD0
:10757C001B780BB1FEF782F8FEF704FFFFF70EFF46
:10758C00154B1A783AB100221A70144B1968144B27
:10759C001868FFF731F9134B1A783AB100221A70B8
:1075AC000E4B1968104B1868FFF768F90F4B1A68E7
:1075BC002AB100221A60FDF725FAFDF7FDF804B098
:1075CC0070BD00BFDACA0320C0E4032059D30320E6
:1075DC00DAAD0D00ACC70320D8CA0320F8D20320C3
:1075EC00ECD50320A1C70320FCC7032060C70320F0
:1075FC002DE9F0435A4B5B4F5B4EDFF8A48101251C
:10760C001D705A4B87B002241C7000F07BF90022CD
:10761C001E21204600F038FB4FF014090346CDF82C
:10762C000090224601954FF47F01384601F0ECF8AA
:10763C0032464146384602F001F800220A21204623
:10764C0000F022FB4A4FCDF80090034622460195EC
:10765C004FF47F41384601F0D7F8464CDFF844919F
:10766C0032464146384601F0E9FF434B029302AAE9
:10767C000023424FDFF83081CDF8149041F288316D
:10768C0020460497FCF7E0FD02A8FCF7C3FD324648
:10769C004146204601F0D2FF394A3A4B12681A6033
:1076AC00394A049712685A604FF448721A614FF4C1
:1076BC00B97200244FF47A715A62344F9963642280
:1076CC00DC601C725C619C61DA621D635D63DD636E
:1076DC001D642F4B029302AA23463846CDF8149012
:1076EC00FCF7B2FD02A8FCF795FDDFF8C090384618
:1076FC00284F3246414601F0A1FFDFF8B4804946DD
:10770C00384601F01BFB3846234F3246414601F008
:10771C0095FF4946384601F011FB32464146384642
:10772C0001F08CFF1D4B0C225A702146FF220A26B9
:10773C0028461E709A7000F087FA01F03BFE234633
:10774C00224641F2FB0101F03DFE01F033FE2346DF
:10775C002246314601F03EFE07B0BDE8F08300BF83
:10776C00A0C70320B8CA0320F4C603206CC70320AB
:10777C0070CA03203CC70320B5400D00E9400D0042
:10778C004CC60320F8C603206CC603209CCA0320F9
:10779C00C1400D00DCC70320F0D503206CD60320BC
:1077AC00A1410D00E5400D00D9420D00CEA40D0005
:1077BC00BB8C0D0008B5024B1B689B68019308BD80
:1077CC004802030008B5024B1B68DB68019308BD37
:1077DC004802030008B5024B1B681B69019308BDE6
:1077EC004802030008B5024B1B685B69019308BD96
:1077FC004802030008B5024B1B68DB69019308BD06
:10780C004802030008B5024B1B681B6A019308BDB4
:10781C004802030008B5024B1B685B6A019308BD64
:10782C004802030008B5024B1B689B6A019308BD14
:10783C004802030008B5024B1B68DB6A019308BDC4
:10784C004802030008B5024B1B685B6C019308BD32
:10785C004802030008B5024B1B689B6C019308BDE2
:10786C004802030008B5024B1B681B6F019308BD4F
:10787C004802030008B5024B1B685B68019308BD06
:10788C001802030008B5024B1B68DB68019308BDA6
:10789C001802030008B5024B1B685B69019308BD15
:1078AC001802030008B5024B1B68DB69019308BD85
:1078BC001802030008B5024B1B689B6A019308BDB4
:1078CC001802030008B5024B1B68DB6A019308BD64
:1078DC001802030008B5024B1B681B6B019308BD13
:1078EC001802030008B5024B1B685B6C019308BDC2
:1078FC001802030008B5024B1B689B6D019308BD71
:10790C001802030008B5024B1B681B68019308BDE5
:10791C002C02030008B5024B1B685B68019308BD81
:10792C002C02030008B5024B1B689B68019308BD31
:10793C002C02030008B5024B1B68DB68019308BDE1
:10794C002C02030008B5024B1B681B69019308BD90
:10795C002C02030008B5024B1B685B69019308BD40
:10796C002C02030008B5024B1B689B69019308BDF0
:10797C002C02030008B5024B1B68DB69019308BDA0
:10798C002C02030008B5024B1B689B6A019308BDCF
:10799C002C02030008B5024B1B681B6B019308BD3E
:1079AC002C02030008B5024B1B689B6F019308BDAA
:1079BC002C02030008B5024B1B68DB6F019308BD5A
:1079CC002C02030008B5024B1B681B68019308BD11
:1079DC002802030008B5024B1B68DB68019308BD45
:1079EC002802030008B5024B1B681B69019308BDF4
:1079FC002802030008B5024B1B689B69019308BD64
:107A0C002802030008B5024B1B68DB69019308BD13
:107A1C002802030008B5024B1B681B6A019308BDC2
:107A2C002802030008B5024B1B685B6A019308BD72
:107A3C002802030008B5024B1B689B6A019308BD22
:107A4C002802030008B5024B1B68DB6A019308BDD2
:107A5C002802030008B5024B1B681B6B019308BD81
:107A6C002802030008B5024B1B685B6B019308BD31
:107A7C002802030008B5024B1B681B6C019308BD60
:107A8C002802030008B5024B1B681B6D019308BD4F
:107A9C002802030008B5024B1B685B69019308BD03
:107AAC006402030008B5024B1B689B68019308BD78
:107ABC006802030008B5024B1B68DB68019308BD24
:107ACC006802030008B5024B1B681B68019308BDD4
:107ADC002402030008B5024B1B68DB69019308BD47
:107AEC003002030008B5024B1B681B6A019308BDEA
:107AFC003002030008B5024B1B681B68019308BDDC
:107B0C003C02030008B5024B1B689B68019308BD3F
:107B1C003C02030008B5024B1B68DB68019308BDEF
:107B2C003C02030008B5024B1B681B69019308BD9E
:107B3C003C02030008B5024B1B685B69019308BD4E
:107B4C003C02030008B5024B1B689B69019308BDFE
:107B5C003C02030008B5024B1B68DB69019308BDAE
:107B6C003C02030008B5024B1B681B6A019308BD5D
:107B7C003C02030008B5024B1B689B6A019308BDCD
:107B8C003C02030008B5024B1B68DB6A019308BD7D
:107B9C003C02030008B5024B1B681B68019308BD2F
:107BAC004C02030008B5024B1B685B68019308BDCF
:107BBC004C02030008B5024B1B681B69019308BDFE
:107BCC004C02030008B5024B1B685B69019308BDAE
:107BDC004C02030008B5024B1B689B69019308BD5E
:107BEC004C02030008B5024B1B68DB69019308BD0E
:107BFC004C02030008B5024B1B681B6A019308BDBD
:107C0C004C02030008B5034B1B68D3F8803001937A
:107C1C0008BD00006002030008B5024B1B681B681E
:107C2C00019308BD2002030008B5024B1B685B687A
:107C3C00019308BD2002030008B5024B1B685B6969
:107C4C00019308BD2002030008B5024B1B68DB6AD8
:107C5C00019308BD2002030008B5024B1B68DB6CC6
:107C6C00019308BD2002030008B5024B1B685B6D35
:107C7C00019308BD2002030008B5024B1B689B6DE5
:107C8C00019308BD2002030008B5024B1B68DB6F93
:107C9C00019308BD2002030008B5034B1B68D3F801
:107CAC008830019308BD00002002030008B5034B87
:107CBC001B68D3F89430019308BD00002002030028
:107CCC0008B5024B1B681B68019308BD44020300F6
:107CDC0008B5024B1B685B68019308BD44020300A6
:107CEC0008B5024B1B689B68019308BD4402030056
:107CFC0008B5024B1B68DB68019308BD4402030006
:107D0C0008B5024B1B681B69019308BD44020300B4
:107D1C0008B5024B1B685B69019308BD4402030064
:107D2C0008B5024B1B68DB69019308BD44020300D4
:107D3C0008B5024B1B681B6A019308BD4402030083
:107D4C0008B5024B1B685B6A019308BD4402030033
:107D5C0008B5024B1B681B6B019308BD4402030062
:107D6C0008B5024B1B68DB6B019308BD4402030092
:107D7C0008B5024B1B685B68019308BD4002030009
:107D8C0008B5024B1B689B68019308BD40020300B9
:107D9C0008B5024B1B68DB68019308BD4002030069
:107DAC0008B5024B1B681B69019308BD4002030018
:107DBC0008B5024B1B685B69019308BD40020300C8
:107DCC0008B5024B1B689B69019308BD4002030078
:107DDC0008B5024B1B68DB69019308BD4002030028
:107DEC0008B5024B1B681B6A019308BD40020300D7
:107DFC0008B5024B1B681B6B019308BD40020300C6
:107E0C0008B5024B1B685B6B019308BD4002030075
:107E1C0008B5024B1B681B68019308BD1C020300CC
:107E2C0008B5024B1B685B68019308BD1C0203007C
:107E3C0008B5024B1B689B68019308BD1C0203002C
:107E4C0008B5024B1B68DB68019308BD1C020300DC
:107E5C0008B5024B1B685B6A019308BD1C0203004A
:107E6C0008B5024B1B68DB6A019308BD1C020300BA
:107E7C0008B5024B1B681B6B019308BD1C02030069
:107E8C000021FFF7D9BE10B5836804460BB901F089
:107E9C00F6FBC3689847A3681BB103222146204612
:107EAC00984720461021BDE8104001F0CCBB10B51E
:107EBC000446006808B1FFF7CDFC204610BD10B594
:107ECC00036804469B689847A368013BA3602BB9E1
:107EDC0023682046DB68BDE81040184710BD0B68CE
:107EEC00036013B15A6801325A60704710B50446EA
:107EFC00006828B14368013B43600BB9FFF7DFFF13
:107F0C00204610BD10B5064C002320462360FFF719
:107F1C0099FC2046034A0449BDE8104001F08EBB91
:107F2C00C4E40320F4C60320BB7E0D007047002080
:107F3C00704710B51021044601F085FB204610BD9A
:107F4C0008B508B1FFF7F5FF08BD0022026010B5B7
:107F5C004FF69C728280B1F9044084808A8002685A
:107F6C000C6804600A6010BD10B504460068FFF789
:107F7C0057FF204610BD38B5C468F4B12378022BE6
:107F8C0003D104F10C00FFF7EFFF656835B128460B
:107F9C00FCF740F91021284601F055FBA56835B1D6
:107FAC002846FCF737F91021284601F04CFB2046F7
:107FBC001421BDE8384001F046BB38BD10B588B07F
:107FCC000446684600F0BAFE694604A800F0F5FEC7
:107FDC0004A8A047044604A800F069FE684600F017
:107FEC0066FE204608B010BDF0B5102485B00746DB
:107FFC000E46154600212246684601F0ACFC0022D4
:10800C0069461046ADF80040029703960195FFF7BC
:10801C005FFE05B0F0BD13B5044691E805000023E2
:10802C004B600B602060626001A801930093FFF726
:10803C005DFF204602B010BDF7B50C4602AD54F8FA
:10804C00043B45F8083D06460F4601A82146FFF7BC
:10805C0046FF29463046FFF7DEFF01A8FFF746FF33
:10806C002046FFF743FF3846082101F0ECFA304672
:10807C0003B0F0BD13B50B46044603C88DE80300EE
:10808C0093E8030084E803009DE8030083E8030001
:10809C0002B010BD38B500230446036010200D4615
:1080AC00FBF7F3FF28B1012343608360024B0360AD
:1080BC00C5602060204638BDA0AE0D00826810B5AA
:1080CC000AB901F0DCFAC368BDE81040184708B5DE
:1080DC00006800F11001FFF7F1FF08BD826810B5D0
:1080EC000AB901F0CCFAC368BDE81040184708B5CE
:1080FC00006800F11001FFF7F1FF08BD38B500234F
:10810C0083608B6804460D462BB102229847EB68BE
:10811C00E360AB68A360204638BD0000F0B589B0C1
:10812C0004686846FFF711FF00238DF808304FF004
:10813C000202D4E84F3F002B03D1C4E8412F0029A1
:10814C00F7D102D08DF8083063E014F10C0503D0A0
:10815C0069462846FFF7F9FEBFF35F8F0123637072
:10816C00002004F10803BFF35F8F53E8006F43E86E
:10817C000002002AF9D1BFF35F8F002E49D0FFF720
:10818C006BFD20B129463046FFF798FF3AE03146A7
:10819C0002A8FFF7B3FFE068B4F9105008B101F082
:1081AC003DFC06901020ADF81C50FBF76EFF054609
:1081BC00E8B1002787601820FBF767FF044688B1F9
:1081CC000146876002A8FFF755FF049BA268A360D5
:1081DC00059B049206A9E268E36004F11000059285
:1081EC00FFF7B3FE0D4BEB600D4B2C60AB6006A89C
:1081FC00FFF7BAFE02A8FCF70DF800222946094841
:10820C00FFF732FD3046FCF705F81021304601F03F
:10821C001AFA6846FFF7A8FE09B0F0BDDB800D0026
:10822C0051830D00937E0D002DE9F04F8BB0064667
:10823C000F46904699469DF850A0FFF769FD07AD93
:10824C00834630BB4FF62E73059005A92846ADF832
:10825C001830FFF77AFE1420FBF717FF044658B1CD
:10826C000223037001234370C0F804B0C0F808B0B7
:10827C0029460C30FFF769FE3046214640F8044B86
:10828C00FFF708FF2846FFF76FFE05A8FFF76CFE07
:10829C0052E000240C2314206C60AC600793FBF7B5
:1082AC00F4FE014618B1047044704460846004A864
:1082BC000391FFF7EFFE224B08930820FBF7E5FE36
:1082CC00044628B1039B40F8043B04A9FFF707FEC2
:1082DC0000955FFA8AF34A46414638460994FFF7FF
:1082EC0027FD20B9039B5B7803F0FF0283B1039B4E
:1082FC00059304A906A8FFF7F2FD05A93046FFF780
:10830C008AFE06A8FFF7F2FD04A8FFF7EFFD13E0C5
:10831C004FF69C7305A903A80592ADF81830FFF72A
:10832C00FDFE05A8FFF720FE05A80999FFF784FEBE
:10833C0006A8FFF7DBFDDAE730460BB0BDE8F08F9F
:10834C00C1840D00022AF8B5044606D0032A17D0C2
:10835C00012A22D10B6803601FE018200E68FBF77E
:10836C0094FE054650B13146FFF7C8FE3069B6F9A8
:10837C00147008B101F052FB2861AF8225600CE04B
:10838C00046854B104F11000FFF7EEFD2046FBF732
:10839C0041FF1821204601F056F90020F8BD38B5F0
:1083AC00002383608B6804460D462BB1022298474C
:1083BC00EB68E360AB68A360204638BD022A70B559
:1083CC00044606D0032A11D0012A18D10B68036089
:1083DC0015E014200E68FBF758FE054620B1314617
:1083EC00FFF7DDFF337C2B74256008E0046834B1A3
:1083FC002046FBF70FFF1421204601F024F9002042
:10840C0070BD0000F0B5002387B00C46BFF35F8F42
:10841C0050E8006F40E80032002AF9D1BFF35F8FBB
:10842C00002E3FD01846FFF717FC074620B1214617
:10843C003046FFF753FE2EE0314601A8FFF7AFFFA1
:10844C0023788DF814301020FBF71FFE0546D0B1B1
:10845C0087601420FBF719FE044678B1876001464B
:10846C0001A8FFF707FE039BA268A360049B03927D
:10847C00E268E3609DF81430049223740A4BEB60BD
:10848C000A4B2C60AB6001A8FBF7C4FE0022294606
:10849C000748FFF7E9FB3046FBF7BCFE10213046DE
:1084AC0001F0D1F807B0F0BDFB800D00C9830D00C1
:1084BC00937E0D0030B585B004460D4668461146D6
:1084CC00FFF7BAFD7CB124B228460DB101F0A6FA33
:1084DC00029002A96846ADF80C40FFF71FFE02A8F7
:1084EC00FFF742FD1DE000988DF808404FF00102A7
:1084FC00D0E84F3FA34203D1C0E8412F0029F7D168
:10850C0002D08DF808300CE010F10C014FF0010393
:10851C0018BF0373BFF35F8F043000F8033CFFF701
:10852C0071FF01A8FFF7E2FC05B030BD0022114637
:10853C004068FFF755BC002211464068FFF760BC4D
:10854C0000224068FFF754BC002281F00101406812
:10855C00FFF73EBC00231A4619464068FFF730BCB3
:10856C0000231A4619464068FFF722BC0022114628
:10857C004068FFF715BC002211464068FFF700BCAD
:10858C00002202214068FFF703BC00231A46406812
:10859C00FFF7EEBB024B03225A60024A1A60704787
:1085AC00C8E40320BCAE0D007047F8B5064615466E
:1085BC000C468F18BC4206D0336814F8011B9B681C
:1085CC0030469847F6E72846F8BD0022007CFFF7B6
:1085DC0021BA0021007CFFF725BA0021007CFFF7AF
:1085EC0029BA0021007CFFF72DBA0021007CFFF78F
:1085FC0031BA10B51421044601F025F8204610BDFF
:10860C0010B50446002363604FF47A73A360044BE7
:10861C002174084623601146FFF72CFA204610BD42
:10862C00F0AE0D000022007CFFF7CCB900231A46F7
:10863C001946007CFFF7CEB90021007CFFF7D2B9B8
:10864C0070B50C4686B0142506462A46002101A8B2
:10865C0001F081F923788DF8083063680393E3689F
:10866C0004930022237A307CADF8045001A90593C1
:10867C00FFF708FA06B070BD1FB500338DF8001077
:10868C004FF06401039118BF0123694601928DF8E4
:10869C000830FFF7D5FF05B05DF804FB0123FFF7A9
:1086AC00EBBF0022007CFFF7A5B9C9B2FFF7F9BFF9
:1086BC000022007CFFF7A6B90121FFF7F9BF0021CA
:1086CC00007CFFF7CFB90047F0B585B01C460E46CD
:1086DC0017460546FFF74EF9002084424FF004037D
:1086EC0003908DF80C30A5BF9DF828308DF80E3016
:1086FC00034603AB009332463B460649A8BF8DF8B0
:10870C000D402846FFF72EF9B0FA80F0400905B06D
:10871C00F0BD00BFD3860D00704710B5182104467C
:10872C0000F091FF204610BDF0B5037D062B8DB0F7
:10873C000E4600F104074FF0000402D000F10805CA
:10874C0018E00CAD394605F8304D2F232A460A2087
:10875C00FFF7A0F9284601F07CF933680246DB6884
:10876C002946304698470FE024B12E21304600F0C0
:10877C00FDF9044415F8011D0A22304600F00FFAE9
:10878C00BD420444F0D120460DB0F0BD10B5054BF0
:10879C000446112240F8043B002101F0DCF820468D
:1087AC0010BD00BF18AF0D000346074A10B543F8C3
:1087BC00042B01F1100251F8044B43F8044B914285
:1087CC00F9D10A781A7010BD18AF0D0010B59DF8CC
:1087DC00084044EA032343EA024242EA01610423CB
:1087EC004160037510BD37B50D788B784A78C97820
:1087FC0000912946FFF7EAFF03B030BD0A680B462B
:10880C00926801461846104770B50E4C04601C2443
:10881C0044609DF814409DF8106004F0030444EA91
:10882C0086040025E4B20474427485744161427C70
:10883C0085600F2A08BF044BC56006BF8361C06109
:10884C00038370BD449C0D0009880D00014B024A46
:10885C001A607047D0E403208FAF0D000022114640
:10886C004068FFF7BDBA002211464068FFF7C8BA4E
:10887C0000224068FFF7BCBA002281F00101406879
:10888C00FFF7A6BA00231A4601214068FFF798BAF1
:10889C0000231A4619464068FFF78ABA002211468F
:1088AC004068FFF77DBA002211464068FFF768BAAE
:1088BC00002202214068FFF76BBA00231A46406879
:1088CC00FFF756BA38B5054688B104684CB1A368B1
:1088DC001BB103222146204698471021204600F068
:1088EC00B2FE28461421BDE8384000F0ACBE38BDBD
:1088FC0010B103685B681847704710B503680446ED
:10890C00BBB15868FEF756FF78B923685A7C12B988
:10891C005868FEF75FFF23685868FEF763FF20680E
:10892C000023236028B1FFF7CDFF206808B1FFF7C3
:10893C00C9FF204610BD38B50446D0F8C40108B1B3
:10894C00FBF7A7FBD4F8C00108B1FEF783FFD4F8FE
:10895C00BC5135B12846FFF7D0FF0421284600F062
:10896C0072FE206808B1FFF7C3FF204638BD000037
:10897C0010B5044B044640F8083BFFF7DCFF2046DB
:10898C0010BD00BF00B00D0038B50E4C0E4B23606F
:10899C000025022304F5E4706360A560C4F8C4519B
:1089AC00C4F8C851FEF74EFF084BC4F8CC5184F8FC
:1089BC00D05123602046064A0649BDE8384000F0F5
:1089CC003DBE00BFD4E4032034B00D0000B00D0058
:1089DC00F4C603207D890D0000231A464068FFF77A
:1089EC00C7B9002202214068FFF7D2B90022114614
:1089FC004068FFF7C5B9002211464068FFF7D0B9AF
:108A0C0000231A4619464068FFF7D2B900231A46CC
:108A1C0019464068FFF7D4B9002281F00101406883
:108A2C00FFF7D6B900224068FFF7E2B900221146E1
:108A3C004068FFF7E5B9002211464068FFF7D0B94E
:108A4C002DE9F043002495B016460D460746FFF776
:108A5C009DFE214620220CA8009400F07CFF4023B0
:108A6C000C9321466B460CAA3046FFF723F80446BC
:108A7C00002844D1024601216868FFF791F90221D0
:108A8C00804622466868FFF78BF9009E8146214696
:108A9C00002E34D0002932D17368022B02D00A2B5D
:108AAC0009D02AE0B8F1000F27D07169384604319B
:108ABC00FFF799FE20E0B9F1000F1ED07469112266
:108ACC0001A800F048FF06238DF8143001AD04F125
:108ADC0008031834186859682A4603C20833A3429D
:108AEC001546F7D101A906A807ADFFF75DFE0FCD1E
:108AFC003C1D0FC42B6823700121F669C8E7009850
:108B0C00FEF7D0FF384615B0BDE8F083024B034AA0
:108B1C001A6000225A607047A8E6032034B00D009A
:108B2C00F8B506460D468F180024BD420CD03368AC
:108B3C0015F8011B9B6830469847002801DB04445C
:108B4C00F3E7002C08BF04462046F8BD70B5054677
:108B5C000C46084649B100F07CFF2B6802462146C2
:108B6C002846DB68BDE87040184770BD03689B68F9
:108B7C00184738B50D210546FFF7F8FF0A210446C2
:108B8C002846FFF7F3FF204438BD38B50546FFF7FC
:108B9C00DDFF04462846FFF7ECFF204438BD30B516
:108BAC008BB00B4600218DF82410012A98BF0A22A5
:108BBC000DF12304B3FBF2F505FB123303F0FF03B5
:108BCC00092B94BF30333733DBB2214604F801391B
:108BDC002B46002DEED1FFF7B9FF0BB030BD0CB416
:108BEC002DE9F04387B000AF07F13804054654F87F
:108BFC00049B3C600E4623464A461421381DFFF761
:108C0C0027F9132805D8391D2846FFF79FFF04467E
:108C1C0013E000F1080323F00703E846ADEB030D66
:108C2C00411C23464A4668463C60FFF711F96946E9
:108C3C002846FFF78BFF0446C5461EB12846FFF7B2
:108C4C0098FF044420461C37BD46BDE8F04302B0F3
:108C5C00704710B50446FBF7DDFA204610BD000046
:108C6C000348044A04490023836000F0E7BC00BFBA
:108C7C00B0E60320F4C603205F8C0D00704710B5DE
:108C8C000C21044600F0DFFC204610BD10B5054B4E
:108C9C000360044601710846FEF71CFF0023A36025
:108CAC00204610BD68B00D000079FEF71BBF10B553
:108CBC0004460068FFF7B4F8204610BD10B5044612
:108CCC00006808B1FFF7ACF800232360A360636071
:108CDC0010BD38B504460D4600680131FFF7A8F801
:108CEC0010B184E82100012038BD10B5036804469A
:108CFC0013B143688B4207D22046FFF7EAFF20B13D
:108D0C00A3680BB922681370012010BD70B50E4614
:108D1C00114604461546FFF7E8FF18B92046FFF741
:108D2C00CDFF09E02A463146A560206800F008FE18
:108D3C002268A3680021D154204670BD38B50023A9
:108D4C00044603604360836003730D4639B10846E3
:108D5C0000F07FFE294602462046FFF7D7FF20464B
:108D6C0038BD38B5054600680C4660B16A688B683A
:108D7C009A4206D3096800F038FEA368AB60002362
:108D8C000AE0FFF74DF823682B6063686B60A368FB
:108D9C00AB60002323606360A36038BD884210B5CC
:108DAC000B46044607D0096819B19A68FFF7AEFF65
:108DBC0001E0FFF783FF204610BD10B500230446E9
:108DCC000360436083600373FFF7E8FF204610BD28
:108DDC00884210B5044601D0FFF7C3FF204610BDF2
:108DEC0070B504460E4609B9002070BD6AB183689F
:108DFC00D5182946FFF779FF0028F5D02068A3681D
:108E0C003146184400F0F1FDA560012070BD10B58D
:108E1C008A6809680446FFF7E3FF10B92046FFF79C
:108E2C004DFF204610BD70B50E469AB191B18568C4
:108E3C009D4202D800230B7070BD541EED1A0168C0
:108E4C00AC4228BF2C4619442246304600F01EFE88
:108E5C000023335570BD10B58368934207D904685D
:108E6C000968A01800F025FE08B1001B10BD4FF0DA
:108E7C00FF3010BDF8B59A420F461D460C4988BF0D
:108E8C0013461446064684BF2C461D46FFF756FF74
:108E9C00BA6894420AD83968954294BFC4EB05026B
:108EAC00C4EB020221443046FFF730FF3046F8BDD8
:108EBC00CEA40D0010B504468B68FFF7DBFF2046EF
:108ECC0010BD006808B100F029BD704710B504460C
:108EDC00006818B1FEF7A4FF0023236010BD10B585
:108EEC000446FFF7F3FF204610BD000010B5094CF7
:108EFC0000204FF6FF732060A080A0712081638159
:108F0C00FEF792FE2046044A0449BDE8104000F0EA
:108F1C0095BB00BFC0E60320F4C60320EB8E0D000A
:108F2C0008B50020FEF714FF28B1FEF7F1FE80F023
:108F3C000100C0B208BD012008BD10B50020FEF72D
:108F4C00D9FC044668B9FEF767FE01280BD1204610
:108F5C00FEF792FE38B9FFF7E3FF30B9FEF7C0FE1B
:108F6C00F9E7012010BD002010BDFFF7D9FF00204C
:108F7C00FEF7C0FC003018BF012010BD08B5FFF78C
:108F8C00DCFFBDE80840FEF78DBC0000024B1A6800
:108F9C00024B1A60704700BF88C60320CCE6032042
:108FAC00F8B585B2044628460E46174600F01AFA64
:108FBC0060B102212846FEF7ADFC022806D13A46E4
:108FCC0031462046BDE8F840FEF77CBDF8BD704741
:108FDC004174704708B5007CFEF7CCFD20EAE070C8
:108FEC0008BD08B5007CFEF79DFD20EAE07008BDC9
:108FFC0008B5007CFEF7A6FD30EA200028BF4FF034
:10900C00FF3008BD08B5007CFEF794FD30EA200067
:10901C0028BF4FF0FF3008BD007CFEF79BBD10B59C
:10902C001421044600F00FFB204610BD70B5457CA2
:10903C0004460E4625B9007CFEF79CFD002805DD94
:10904C003146207CBDE87040FEF764BD284670BDFB
:10905C0010B5044608461146002262604FF47A723D
:10906C00A260054A22600122207462741A46FEF73F
:10907C0041FD204610BD00BFA4B00D000023007CB4
:10908C00FEF780BD0022FFF7F9BF007CFEF73ABD6A
:10909C00007CFEF767BD0000F8B5194C25684DB98A
:1090AC008420FAF7F2FF064618B18422294600F014
:1090BC0052FC2660134D2E684EB98420FAF7E5FF5A
:1090CC00074618B18422314600F045FC2F600E4F44
:1090DC00396811F0010611D13846FAF7DCFF68B196
:1090EC0022682B6809483146FFF7B2FF3846FAF779
:1090FC00D7FF074A0749054800F0A0FA0348F8BD16
:10910C00ECE60320E4E60320E8E60320D0E60320A7
:10911C00F4C60320DB8F0D0041747047704708B50F
:10912C000021007CFEF756FD30EA200028BF4FF0EE
:10913C00FF3008BD08B50121007CFEF74BFD30EA7D
:10914C00200028BF4FF0FF3008BD08B5007CFEF7AB
:10915C0039FD20EAE07008BD08B5007CFEF72AFD59
:10916C0020EAE07008BD007CFEF744BD10B5142168
:10917C00044600F068FA204610BD38B50446007C61
:10918C000D46FEF71FFD002801DC607C28B1294646
:10919C00207CFEF727FD20EAE07038BD10B50446B0
:1091AC00002363604FF47A73A360054B23600123A3
:1091BC000846217463741146FEF7ECFC204610BD82
:1091CC00D4B00D000022007CFEF7ECBC10B51422CC
:1091DC000446002100F0BFFB204610BD30B50E4DFB
:1091EC0087B001A8FFF7F2FF296811F0010410D134
:1091FC002846FAF750FF60B101AA21460748FFF74D
:10920C00CDFF2846FAF74CFF054A0649034800F003
:10921C0015FA024807B030BDF0E60320F4E603204F
:10922C00F4C6032029910D00002211464068FEF778
:10923C00B7BD002211464068FEF7D2BD0022114690
:10924C004068FEF7DDBD00224068FEF7D1BD00226C
:10925C0081F001014068FEF7BBBD00231A46194698
:10926C004068FEF7ADBD00231A4619464068FEF76C
:10927C009FBD002211464068FEF782BD00220221EC
:10928C004068FEF785BD00231A464068FEF770BDA6
:10929C00024B04225A60024A1A60704708E7032006
:1092AC0004B10D0008B50C4B33B1FFF797FF036801
:1092BC001B699847002809DC084B63B1FFF7ECFEEB
:1092CC0003681B699847002803DC08BDAFF30080D6
:1092DC00F2E7AFF3008008BD0000000000000000C2
:1092EC0008B5FFF7DFFFFEF7D5FA014B186008BD94
:1092FC0018E703200248034A0349121A00F020BB66
:10930C0000F4032004F40320D0B20D0007B50023B1
:10931C0000931A466FF07701FEF7C8FC03B05DF8B6
:10932C0004FB000007B543880A2B08D0502B09D149
:10933C00094B1B683BB103B05DF804EB1847FFF712
:10934C00E5FF06E0002300931A466FF07701FEF765
:10935C00ADFC03B05DF804FB10E7032038B5104CEE
:10936C00104D2368AB42104B0CBF012200221A7027
:10937C0002D0FFF7BFFF2560FEF77CFA044600F031
:10938C00F3FA0A4B13B12046AFF3008000210748D3
:10939C00FEF7E6FC00210648BDE83840FEF77CBC31
:1093AC0000F403201E1C279A14E703200000000081
:1093BC0031930D0008B5024B1B681B68019308BD67
:1093CC005C02030008B5024B1B685B68019308BD87
:1093DC005C02030008B5024B1B689B68019308BD37
:1093EC005C02030010B5044600F008F9FFF75CFCC2
:1093FC0028B1A4F10B03022B01D8002010BD00F002
:10940C00D7F8FFF75CF908B1012CF6D9FFF744FE49
:10941C00FFF73EFE18B1A4F10903012BEDD9232C63
:10942C008CBF0020012010BD232838B504460D4602
:10943C000AD8FF2908D0FFF7D5FF28B129462046C6
:10944C00BDE83840FEF76EBA38BD38B504460D4657
:10945C00FEF770FAFF2810D0062804D84D2323FA03
:10946C0000F0C30709D42046FFF7BCFF28B12946FA
:10947C002046BDE83840FEF765BA38BD10B5044645
:10948C00FEF758FA0438C0B2012808D92046FFF775
:10949C00A9FF20B12046BDE81040FEF75BBA0020C2
:1094AC0010BD0D2810B504469CBF0E34A4B2204646
:1094BC00FFF798FF50B103212046FEF72BFA032843
:1094CC0004D12046BDE81040FEF764BA002010BD60
:1094DC0038B504460D46FFF785FFF0B10421204650
:1094EC00FEF718FA042805D1A9B22046BDE8384089
:1094FC00FEF748BA02212046FEF70CFA02280CD1DE
:10950C002046FEF717FA012801D0042805D1294678
:10951C002046BDE83840FEF745BA38BD70B5044664
:10952C000D461646FFF75EFF98B102212046FEF766
:10953C00F1F902280DD12046FEF7FCF9012801D0E3
:10954C00042806D1324629462046BDE87040FEF775
:10955C0031BA70BD10B5074C2368DB0708D4204620
:10956C00FAF799FD20B1FEF7A5F92046FAF798FD18
:10957C00014810BD1CE7032020E7032070B504460A
:10958C0014252A46094E002100F0E5F925802025F6
:10959C003146A5602561284600F06FF831466060C1
:1095AC00284600F06AF8E060204670BD30B10D002E
:1095BC0030B50E4D296811F0010487B013D128463F
:1095CC00FAF769FD78B101A8FFF7D8FF01AA214687
:1095DC000748FFF715F82846FAF762FD054A0649D1
:1095EC00034800F02BF8024807B030BD24E70320F5
:1095FC0028E70320F4C60320B5850D0038B50B4DC4
:10960C00296811F001040FD12846FAF744FD58B12E
:10961C0021460748FFF73AFB2846FAF741FD054A71
:10962C000549034800F00AF8014838BD48E7032013
:10963C003CE70320F4C60320898C0D000B46014641
:10964C00184600F06FB9FAF722BD0000024B1868FB
:10965C00BFF35F8F704700BF4CE7032010B50028A5
:10966C0014BF044601242046FEF7D2FB20B9FFF7B5
:10967C00EDFF08B18047F6E710BDFFF7EFBF08B567
:10968C00FEF7EEFB244B1A68D0075CBF01221A6070
:10969C00224B1A68D1075CBF01221A60204B1A6852
:1096AC00D2075CBF01221A601E4B1A68D0075CBF40
:1096BC0001221A601C4B1A68D1075CBF01221A6088
:1096CC001A4B1A68D2075CBF01221A60184B1A6831
:1096DC00D0075CBF01221A60164B1A68D1075CBF19
:1096EC0001221A60144B1A68D2075CBF01221A605F
:1096FC00124B1A68D0075CBF01221A60104B1A6813
:10970C00D1075CBF01221A600E4B1A68D2075CBFEE
:10971C0001221A60704700BF7CE7032078E7032022
:10972C0074E7032070E703206CE7032068E703204D
:10973C0064E7032060E703205CE7032058E703207D
:10974C0054E7032050E70320184B1A68D1075CBF7D
:10975C0001221A60164B1A68D2075CBF01221A60EC
:10976C00144B1A68D0075CBF01221A60124B1A689E
:10977C00D1075CBF01221A60104B1A68D2075CBF7C
:10978C0001221A600E4B1A68D0075CBF01221A60C6
:10979C000C4B1A68D1075CBF01221A600A4B1A687D
:1097AC00D2075CBF01221A60704700BF9CE7032000
:1097BC0098E7032094E7032090E703208CE703202D
:1097CC0088E7032084E7032080E70320184B1A68FE
:1097DC00D1075CBF01221A60164B1A68D2075CBF16
:1097EC0001221A60144B1A68D0075CBF01221A6060
:1097FC00124B1A68D1075CBF01221A60104B1A6811
:10980C00D2075CBF01221A600E4B1A68D0075CBFEE
:10981C0001221A600C4B1A68D1075CBF01221A6036
:10982C000A4B1A68D2075CBF01221A60704700BF4E
:10983C00BCE70320B8E70320B4E70320B0E703201C
:10984C00ACE70320A8E70320A4E70320A0E703204C
:10985C00244B1A68D0075CBF01221A60224B1A688D
:10986C00D1075CBF01221A60204B1A68D2075CBF7B
:10987C0001221A601E4B1A68D0075CBF01221A60C5
:10988C001C4B1A68D1075CBF01221A601A4B1A686C
:10989C00D2075CBF01221A60184B1A68D0075CBF54
:1098AC0001221A60164B1A68D1075CBF01221A609C
:1098BC00144B1A68D2075CBF01221A60124B1A684B
:1098CC00D0075CBF01221A60104B1A68D1075CBF2D
:1098DC0001221A600E4B1A68D2075CBF01221A6073
:1098EC00704700BFECE70320E8E70320E4E7032020
:1098FC00E0E70320DCE70320D8E70320D4E70320CC
:10990C00D0E70320CCE70320C8E70320C4E70320FB
:10991C00C0E703200A22002100F06CB90A220021C2
:10992C0000F068B910B5054C13462CB10A46014637
:10993C000220AFF3008010BD204610BD00000000D7
:10994C0010B5431E0A44914204D011F8014B03F8A0
:10995C00014FF8E710BD02440346934202D003F8CE
:10996C00011BFAE77047000038B5124B1C68A36B5B
:10997C000546D3B91820FEF74BFA43F20E33A06319
:10998C0003804AF6CD33438041F2342383804EF278
:10999C006D63C3804DF6EC630381052343810B2378
:1099AC00838101220023C0E90423A36B00221D61E3
:1099BC005A6138BDF0C6032010B502461346013279
:1099CC001C78002CFAD1013B11F8012B03F8012F64
:1099DC00002AF9D110BD10F8012B11F8013B012A16
:1099EC0028BF9A42F7D0D01A7047034611F8012BC2
:1099FC0003F8012B002AF9D1704770B503461A46BB
:109A0C0012F8015B45B14C1E14F8016F16B1B5424A
:109A1C00FAD101E01346F2E7181A70BD024B014669
:109A2C00186800F003B800BFF0C6032070B50646F6
:109A3C0008460C4600F00DF8451C29463046FEF74A
:109A4C0017FA064618B12A462146FFF779FF304629
:109A5C0070BD034613F8012B002AFBD1181A0138EC
:109A6C00704730B582B1451E013915F8013F11F828
:109A7C00014FA34206D1EC431444E04201D0002B29
:109A8C00F3D11C46181B30BD104630BD10B5034633
:109A9C0042B111F8014B03F8014B013A002CF7D1FC
:109AAC001A4400E010BD934202D003F8014BFAE7D0
:109ABC0010BDF0B5037863B90B78002B18BF0020EC
:109ACC00F0BD15F8012F62B114F8017F97423046B2
