:02000002D0002C
:1040000000400D007CA90D00000006000C00050119
:084010000401DE0500000000C0
:04401800B8930D004C
:10401C0009480A49884208B505D0094A824202D0AB
:10402C00121A05F07BF80748074A0021121A05F00E
:10403C0080F8014808BD00BF60C90320A4A80D008A
:10404C000CCA03200CCA0320F0E7032070B504F05F
:10405C0073FD074C074BE41AA40800251E46A54225
:10406C0004D056F8253098470135F8E770BD00BFED
:10407C009CA80D0064A80D0001F06AB808B502F008
:10408C0003FEBDE8084004F019BD03F0A9BA03F023
:10409C00AFBA03F0ADBA0078B0FA80F040097047BF
:1040AC000123037070477047014B01221A7070474F
:1040BC0044CB0320034B044A1B7883F001031360A9
:1040CC00704700BF74CA032000CB0320014B0122B0
:1040DC001A707047D2DA032003681847012A02D0FD
:1040EC00022A02D004E0016002E00B6800B1036018
:1040FC000020704737B50C460E480F4D05F04AF8B6
:10410C00204605F092F8204410F8013CA3F123025C
:10411C00534253412B7004F04FFC2B78074A002B71
:10412C0014BF59234E2300930121024B04F03FF995
:10413C0003B030BDFCDA032084D40320F4970D00C7
:10414C00436913B183690C301847704713B50021CC
:10415C000446084602F056FF02A90023204641F807
:10416C00043D02F067FF019C0CB101232371002177
:10417C00012002F047FF2CB1236820469B6898472A
:10418C000023237102B010BD10B5054B002204466C
:10419C00114640F8043B03F035F9204610BD00BF32
:1041AC00E8930D0010B50446FFF7EEFF20462021E2
:1041BC0004F037FE204610BD37B50C460E480F4DA7
:1041CC0004F0E8FF204605F030F8204410F8013CDC
:1041DC00A3F12302534253412B7004F0EDFB2B78D7
:1041EC00074A002B14BF59234E2300930121024B85
:1041FC0004F0DDF803B030BDFCDA032084D40320D6
:10420C002A980D0010B58368044613B103220146A9
:10421C009847204610BD0368C9B29B681847000038
:10422C00F0B500258E461549057185604561016024
:10423C00044692E8030085B002AF04F10C0687E84F
:10424C00030096E8030082E8030097E8030086E881
:10425C0003009168606990606161D168A069D06069
:10426C00A1618DE82800064A2346714604F1080036
:10427C0002F0D0FE204605B0F0BD00BFD4930D0077
:10428C0059410D0007B58068002340B18DE80A0044
:10429C001A46022102F0D6FEB0FA80F0400903B0B3
:1042AC005DF804FB38B50F4B0360836804469BB183
:1042BC006FF00041FFF7E6FF0021A06802F0DAFE84
:1042CC00237903F0FF0513B102F084FEF8E72946C9
:1042DC00A06802F0A7FEA56004F10C00FFF792FFA6
:1042EC00204638BDD4930D0010B50446FFF7DAFF15
:1042FC0020461C2104F095FD204610BD73B50646E2
:10430C000D4611461446FFF7BDFFB068002340B1BF
:10431C00019300952246194602F094FEB0FA80F003
:10432C00400902B070BD000040F67263984270B54F
:10433C001CDC0F4A002352F8044BA04203F1010588
:10434C000FDC116888420CDD0A4E56F8232056F813
:10435C0025309D1A031B6B43081B93FBF0F0104494
:10436C0070BD142D2B46E6D1002070BD184670BDD3
:10437C0014A40D00C0A30D001FB50C2AA8BF0C225D
:10438C00014401A8144604F06DFF04AB1C4401A8C1
:10439C00002304F80C3C04F0ABFE04B010BD30B5A7
:1043AC00002385B00C68055D954208BF002504F11B
:1043BC0001040DF803500C6002D001330E2BF1D127
:1043CC00684604F095FE05B030BD000010B5084CF1
:1043DC0001444FF0FF32884208D010F8013B5340A3
:1043EC00DBB254F8233083EA1222F4E7D04310BD39
:1043FC00F4930D00021E30B516DB9110022329B187
:10440C00914203D0023342FA03F1F8E7023B002059
:10441C004000411C42FA03F401FB01F5A542D8BF50
:10442C000846023BF4D530BD4FF0FF3030BD0000E4
:10443C0008B504F07DFC4FF46D7203490020BDE813
:10444C00084002F047BE00BF86D4032008B504F034
:10445C006FFC4FF46D7203490020BDE8084002F078
:10446C0041BE00BF86D4032008B504F061FCBDE852
:10447C00084002F03FBE000008B5FFF7F5FF044B03
:10448C000C221A700E225A70FF229A7008BD00BFBF
:10449C0086D4032007B504F04BFC01220DF1070173
:1044AC00002002F017FE9DF80730FF2B02D1FFF71A
:1044BC00E3FF07E0FFF7BCFF044B1A8840F60C63E0
:1044CC009A42F4D103B05DF804FB00BF86D40320FC
:1044DC00012870B50E461D4D1BD11D4B188804F0DC
:1044EC00BBFB044640B904F067FA1A4903F035FFE8
:1044FC00194B2C601C6016E02B68002B15DC04F0AB
:10450C005BFA164903F029FF134B00202860186052
:10451C0070BD2A684AF227039A4206DD04F04CFA71
:10452C000F4903F01AFF002070BD0E4C01212088AA
:10453C0004F079FB304602F0B5FD0021208804F030
:10454C0072FB304602F0AEFD012070BDD4DA0320C0
:10455C0090C903205D980D0004CB032079980D00C1
:10456C0090980D008CC903202DE9F84F1C4BDFF8F7
:10457C007890C70F044688461888394604F053FBD8
:10458C00184B84EAE4711A68A1EBE4711144192206
:10459C00002C91FBF2F64FF0000402FB16121A608D
:1045AC00B4BF6FF0180A4FF0190A1D46A346B44267
:1045BC0013DA41463846FFF78BFF58B1D9F8003073
:1045CC005344002B02DDC9F8003004E0C9F800B0F8
:1045DC00C5F800B034460134E9E7BDE8F88F00BFF8
:1045EC006CC9032004CB0320D4DA032008B5054B97
:1045FC000021188804F017FB1420BDE8084003F0D4
:10460C0027B800BF9CC9032008B5054B01211888A9
:10461C0004F009FB0A20BDE8084003F019B800BFFC
:10462C009CC9032038B504460D46FFF7EDFF29461B
:10463C002046FFF799FFBDE83840FFF7D7BF0000D1
:10464C00134B10B54AF228021A600446FFF7DCFF40
:10465C0096211048FFF788FF642002F0F9FF96219D
:10466C004FF4FA60FFF780FF642002F0F1FF4FF483
:10467C007A710948FFF778FF4FF47A7142F63020CF
:10468C00FFF772FF1CB1BDE81040FFF7AFBF10BDC4
:10469C00D4DA0320A015FFFF48F4FFFF38B5064C11
:1046AC0080F3080544F620622946208804F024FB98
:1046BC000123E560237238BD10CA032010B5044CE9
:1046CC000021208804F0F2FA00232372E36010BD6D
:1046DC0010CA0320024B0146188804F0E7BA00BF49
:1046EC0060C90320024B0146188804F0DFBA00BFF2
:1046FC0070C90320024B0146188804F0D7BA00BFDA
:10470C0078C903200346412B084601D1FFF7E2BFCD
:10471C00312B01D1FFF7E6BF322B01D1FFF7EABFF6
:10472C0070470000024B0021188804F0BFBA00BF8C
:10473C0060C90320024B0021188804F0B7BA00BFEF
:10474C0070C90320024B0021188804F0AFBA00BFD7
:10475C0078C90320412801D1FFF7E4BF312801D1EA
:10476C00FFF7E8BF322801D1FFF7ECBF704710B557
:10477C0004460846FFF7AEFF204602F069FFBDE88D
:10478C001040FFF7CFBF10B504460846FFF7AAFF4D
:10479C00204602F05DFFBDE81040FFF7CBBF10B51F
:1047AC0004460846FFF7A6FF204602F051FFBDE87D
:1047BC001040FFF7C7BF38B50C4605460846FFF753
:1047CC0089FF2046FFF78EFF2046FFF793FF284610
:1047DC0002F03EFFFFF7A6FFFFF7ACFFBDE8384045
:1047EC00FFF7B0BF08B504F0D1FA03F050FB88B95D
:1047FC0004F0CCFA084903F0FDFA04F0C7FA03F010
:10480C00FDFA642002F024FF04F0C0FABDE8084071
:10481C0003F03DBB08BD00BFA086010008B504F045
:10482C00B5FABDE8084003F0EFBA000008B5074B35
:10483C00074800226FF00041DA61FFF75FFD04F0DA
:10484C00BBF80449BDE8084003F087BD10CA03203B
:10485C0008CB0320AB980D00254A2DE9F341034604
:10486C00044600F11801164653F8040B42F8040BE9
:10487C008B42F9D100271F4D377620686168777617
:10488C002B4602AE03C3192346F8043D7C22314665
:10489C0020462F72FFF783FD314668727C2220463A
:1048AC00FFF77DFD314680467C222046FFF777FDE1
:1048BC003146E8607C222046FFF771FD0199288281
:1048CC0086B23246214405F1120004F0CBFCAB1940
:1048DC00314605F112009F74FFF778FD0028B8BF30
:1048EC004042C8EB00035842584102B0BDE8F08189
:1048FC005CD3032078CB0320F0B5054695B00E466B
:10490C0001682B4804F06DFC2A4A2B4900231370D4
:10491C002A4A04A8137003F0F9FD29460CA8049C3C
:10492C0003F033FE7C2108A803F053FE08A90CA861
:10493C0003F077FE3146074610A803F0E7FD10A9F7
:10494C00384603F06EFE1E4B026819781D4B1B781F
:10495C000B438DF8003021463C2302A803F04CF8A1
:10496C00039C7CB16368013B63605BB923682046A0
:10497C009B689847A368013BA3601BB9236820463A
:10498C00DB68984710A803F07AFD08A803F077FDC0
:10499C000CA803F074FD04A803F071FD04F00CF8EE
:1049AC0000962B68084A012103F001FD15B0F0BDFB
:1049BC00B0DA032084D40320CE980D00FCDA032057
:1049CC0078CA0320C0CA0320E3980D007FB503F01A
:1049DC00F3FF1549154E164D03F0BFFC02F088FD90
:1049EC000446B0B10123337002F064FB114B124941
:1049FC0000F51C5010301860002368462B7003F033
:104A0C0085FD68460D49FFF777FF684603F037FDD3
:104A1C0008E003F0D1FF0A4903F09FFC094B347006
:104A2C002C701C7004B070BD02990D009DCA03203F
:104A3C004CD40320ECCA032017990D00DCDA0320B8
:104A4C002A990D0045CB0320F8B50C4F06460024DF
:104A5C00251D3D4429461822304604F0EEFB014644
:104A6C0038B92846EC2204F064FBBDE8F840FFF7A7
:104A7C00EDBCEC34B4F56C7FEAD1F8BD86D40320E0
:104A8C00F0B50024084F4454851A1446A01A8842E5
:104A9C0004F1010007DAE65D9E4208BF00262E55A0
:104AAC0001D00446F2E7F0BDFCDA0320034BEC2204
:104ABC0002FB00300021043004F03BBB86D4032001
:104ACC0008B50A4B00201870FFF7F0FF0120FFF724
:104ADC00EDFF0220FFF7EAFF0320FFF7E7FF044B8F
:104AEC00FF229A70BDE80840FFF7B0BCF0CA032063
:104AFC0086D4032038B5074C0749EC22054602FB47
:104B0C000040043004F00AFBA570BDE83840FFF704
:104B1C009DBC00BF86D403205CD3032010B588B0A5
:104B2C003A230A7807930B8906932C230593CC8898
:104B3C00049403938C8802940193044C498800914B
:104B4C002044034902F064FD08B010BD3BD803209B
:104B5C0059990D002DE9F341154FEC26464341219F
:104B6C007C23BA198DE80A0004321249124802F06B
:104B7C004FFD0025044606F11E08AB193B449B7FF4
:104B8C00412B02D0313B012B06D808EB0501204606
:104B9C003944FFF7C3FF04440A35D22DEDD1064B3F
:104BAC001C440120002304F8013C02B0BDE8F08154
:104BBC0086D403206E990D003BD8032010B5084B0A
:104BCC009C78FF2C1ABF013404F003040024204607
:104BDC00FFF790FF2046BDE81040FFF7BBBF00BFBA
:104BEC0086D4032070B5164B1B780E4633BB154B81
:104BFC001A18927C7C2A21D03A2A1CD00446B4F58F
:104C0C00FA6F1ADA1A19927C3A2A06D1221A01463C
:104C1C000D48FFF7B1FB30600FE02C2A04F10105C1
:104C2C0007D1221A01460848FFF7A6FB3060284638
:104C3C0070BD2C46E3E7013070BD204670BD00BF4F
:104C4C00D1DA032078CB03208ACB032030B500299E
:104C5C00054685B019481A4C01D1016018E0194B72
:104C6C00DA684FF47A7303FB02F204DA4FF0FF3385
:104C7C00026023600DE0036819446423016059430A
:104C8C0091FBF2F19942A8BF19462368994200D0D2
:104C9C00216003F091FE0C4B196A0A2391FBF3F28D
:104CAC0003FB12130293236801920093074A2B68AB
:104CBC00012103F07CFB05B030BD00BFC4CA03204A
:104CCC0050D4032078CB032010CA03207A990D000E
:104CDC00F0B516464A1C85B007460D4602D1336026
:104CEC000C4621E00A462C2103F0D1FC431C04465F
:104CFC000CD12A463946684603F0F8FC684603F0A6
:104D0C00FCFC3060684603F0BAFB0DE003462A4613
:104D1C003946684603F0CAFC684603F0EEFC306086
:104D2C00684603F0ACFB0134204605B0F0BD000032
:104D3C00124A134908B500231370124A0B701370F2
:104D4C00114A0B721370114A1370114A1370114AE5
:104D5C001360114A1360114A13701376104A1370C2
:104D6C00137653760F4A137082F86E3202F0A2F962
:104D7C000D4B00F56A406030186008BD77CA0320FF
:104D8C0078CB032075CA03204CD4032084D4032091
:104D9C0074CA0320C4CA032050D40320DCDA0320D5
:104DAC005CD303203BD80320C8CA032010B50722CC
:104DBC000D490E4804F041FA044670B903F0FCFDAD
:104DCC000B4903F0CAFA0B4B01201C70FFF738FC9F
:104DDC00FFF7AEFF084B1C6010BD03F0EDFD07495B
:104DEC00BDE8104003F0B9BAA0990D00D4CA032055
:104DFC00A8990D0074CB0320C8CA0320B6990D00E6
:104E0C0010B507220D490E4804F017FA044670B984
:104E1C0003F0D2FD0B4903F0A0FA0B4B01201C70E0
:104E2C00FFF70EFCFFF784FF084B1C6010BD03F06E
:104E3C00C3FD0749BDE8104003F08FBAA0990D00DF
:104E4C00D4CA0320CA990D00FCCA0320C8CA032087
:104E5C00D9990D001FB5174C03F0AEFD214603F098
:104E6C007CFA154B01221A7002F024F9134B00F551
:104E7C001C50103018602146684603F047FB4FF079
:104E8C00FF316846FFF7E2FE684603F0F8FA0C497A
:104E9C00684603F03BFB0B496846FFF72DFD68465F
:104EAC0003F0EDFAFFF7A2FB074B00221A7004B0D7
:104EBC0010BD00BFCA990D00FCCA032070CA0320A4
:104ECC00ED990D005CD3032045CB03201FB503F0F7
:104EDC0073FD164903F041FA154B01221A7002F0CA
:104EEC00E9F8144B144900F51C5010301860684652
:104EFC0003F00CFB4FF0FF316846FFF7A7FE684646
:104F0C0003F0BDFA0D49684603F000FB0C496846F6
:104F1C00FFF7F2FC684603F0B2FAFFF767FB094BA8
:104F2C0000221A7005B05DF804FB00BFF9990D0062
:104F3C0074CB0320E8CA0320089A0D00169A0D00C2
:104F4C005CD3032045CB032070B50E4604461546B2
:104F5C0003F058FE012E05D129462046BDE87040CD
:104F6C0003F0A4BE70BD70B50E460446154603F0A2
:104F7C0049FE012E05D129462046BDE8704003F0BC
:104F8C0052BE70BD30B500228BB001215548564D34
:104F9C0002F038FA002304225449554802F080FAF2
:104FAC00544A5549554802F007FC06A802F0A8FAE5
:104FBC0006A9284603F0F4FA06A803F060FA29467D
:104FCC0002A803F0E2FA4E4902A803F036FB0024D3
:104FDC00014606A803F0D9FA234622464949019412
:104FEC000094069802F09CFA06A803F048FA02A86E
:104FFC0003F045FA294602A803F0C7FA424902A871
:10500C0003F01BFB014606A803F0BFFA2246234619
:10501C003E4901940094069802F082FA06A803F027
:10502C002EFA02A803F02BFA394B0221188803F050
:10503C00E9FD384B0221188803F0E4FD364B0122C0
:10504C0011461888FFF78FFF344B2146188803F060
:10505C00D9FD334B224618880121FFF775FF314BE0
:10506C00224618880121FFF76FFF2F4B2246188824
:10507C000121FFF769FF2D4B2146188803F0C2FD73
:10508C002B4B2146188803F0BDFD2A4B214618886E
:10509C0003F0B8FD284B224618880121FFF763FF67
:1050AC00264B224618880121FFF75DFF244B224630
:1050BC0018880121FFF757FF224B80221888012105
:1050CC00FFF742FF204B224618880121FFF73CFFD7
:1050DC001E4B224601211888FFF736FFFFF7DAF93D
:1050EC000BB030BD58D4032074D403203BD803201C
:1050FC00229A0D002B9A0D0045690D0099770D0031
:10510C00349A0D0001410D00599A0D00C5410D0056
:10511C0090C9032080C9032094C9032098C9032097
:10512C0060C9032070C9032078C9032088C90320F3
:10513C0064C903207CC903209CC903208CC90320AB
:10514C006CC9032074C9032084C9032068C90320D7
:10515C0008B5FFF717FF03F02FFC4FF4E13103F014
:10516C001FFC034B01221A70024B00221A6008BD6F
:10517C003AD80320F8CA032030B5144B144D1A78D2
:10518C0085B01C4622B101F095FF2B6883421AD2E0
:10519C0001F090FF00F5EA403030286041F2883091
:1051AC0002F056FA02F0A4F968B101230949237000
:1051BC00684603F0ABF9084B68461968FFF79CFB8F
:1051CC00684603F05CF905B030BD00BF76CA032019
:1051DC00F8CA03207B9A0D0074D4032007B5009302
:1051EC0013460A46012103F0E2F803B05DF804FB14
:1051FC0038B50A4B1B7805460C4633B103F0DCFB83
:10520C0023462A460649FFF7E9FF064B2A46214664
:10521C001878BDE8384003F0B1BA00BF75CB032055
:10522C008B9A0D0084C9032073B5044603F0AEFDC0
:10523C00214602F01EFE03F0A9FD0021FEF7EBFF54
:10524C00064603F0A3FD002102F01AFE054630B11C
:10525C0003F0B2FB2B4632461549FFF7BFFF03F0B4
:10526C0095FD2146042202F001FE03F08FFD036838
:10527C005B699847044603F089FD03685B699847AE
:10528C000C4B1B78054643B103F096FBE3B200933D
:10529C00094AEBB2012103F08AF86A0704D4E0B2A0
:1052AC00C31E5842584100E0002002B070BD00BF40
:1052BC00BD9A0D0075CB0320DE9A0D007FB5124B05
:1052CC001C680D46041B06461049684603F01EF97F
:1052DC0084EAE473A3EBE4736B43684646F2A811CB
:1052EC0093FBF1F1FFF7B2FC684603F0C8F803F04A
:1052FC0063FB234632460649FFF770FF29462046DA
:10530C00FFF732F904B070BDD4DA0320F49A0D0023
:10531C000F9B0D00962144F65710FFF7CFBF962137
:10532C0042F63020FFF7CABF0A46012103F03FB80E
:10533C0013460A46012103F03AB8000070B5044642
:10534C0001F0B8FE0E4D84F30804064644F62062C4
:10535C002146288803F0D0FC002C14BF0123002325
:10536C00EC602B7208D0074B1B782BB103F024FB9D
:10537C0022460549FFF7DCFF01F09CFE801B70BD47
:10538C0010CA032075CB03203A9B0D0008B56FF0B3
:10539C0000410648FEF776FF0020FFF7CFFF03F031
:1053AC000BFB0349BDE8084002F0D7BF08CB032034
:1053BC00519B0D0038B5114C0021208803F076FC70
:1053CC00A08803F05CFCE1680546208803F06EFCC5
:1053DC001DB9FFF7DBFF00250EE02846FEF7A4FF02
:1053EC00052200EBC003B0F5167F93FBF2F303F537
:1053FC00A0732062A362ECDC284638BD10CA0320DF
:10540C002DE9F0432F4E8BB0F56801F053FEF76990
:10541C00C7EB0009B9F57A7F804634464ED3FFF7C7
:10542C00C9FFC6F81C808046002847D017B97761A1
:10543C00B76143E0336A776AB569E26AFF1A4FF4E1
:10544C007A7107FB09F393FBF1F31D44B56176699F
:10545C00636BBE1B6B434E437A43216BA56B92FB74
:10546C00F1F193FBF5F56A18E56B236C96FBF9F6F5
:10547C00754395FBF3F5144B1B781544EBB103F016
:10548C009BFAD4F820E0636A08950796A169069107
:10549C000A2293FBF2F102FB113303939EFBF2F30E
:1054AC0002FB13E20291019200930597CDF8109044
:1054BC004346064A012102F07AFF676128460BB089
:1054CC00BDE8F08310CA032075CB0320949B0D001C
:1054DC0010B501F0EFFD0A4B1B7804461BB9FFF722
:1054EC008FFFFFF72BFF074B188803F0B5FB431E0C
:1054FC0058425841044B187001F0DCFD001B10BDE4
:10550C0074CA032080C90320D1DA03202DE9F047A7
:10551C00DFF83CA005460E4690461F460024C0F11D
:10552C000009444512DA31462846FFF71DF80FB141
:10553C00FFF7CEFF31464846FFF716F80FB1FFF7DD
:10554C00C7FF9AF800300BB90134EAE7BDE8F087E1
:10555C00D1DA0320F8B5114F044600254FF4FA7642
:10556C0090FBF6F6B54209DAFFF7B2FFC0F5FA7018
:10557C0002F06EF83B7883B90135F3E74FF4FA7219
:10558C0094FBF2F302FB1344FFF7A2FF844204DD09
:10559C00201ABDE8F84002F05BB8F8BDD1DA032060
:1055AC0010B50120FFF71EF918B9BDE81040FFF740
:1055BC0035B903F001FA0E4902F0CFFE002403F0D6
:1055CC00E5FB214602F059FC03F0E0FB0021FEF75D
:1055DC0022FE03F0DBFB02F057FC28B903F0ECF9D8
:1055EC0022460449FFF7A4FE01347F2CE7D1DCE707
:1055FC00FD9B0D001B9C0D0013460A46012102F079
:10560C00D6BE00002DE9F347444C23780646884665
:10561C0015462BB103F0D0F932464149FFF7ECFFA8
:10562C0003F0B4FB294602F028FC03F0AFFB002189
:10563C00FEF7F1FD824603F0A9FB0221FEF7EBFD1C
:10564C00074603F0A3FB012102F01AFC814650B17E
:10565C00574403F0B1F9CDF8049000973346314A22
:10566C00012102F0A4FE03F091FB294602F005FC97
:10567C0003F08CFB0621FEF7CEFD824603F086FB81
:10568C0003685FFA88F19B689847074603F07EFB36
:10569C00012102F0F5FB814650B1574403F08CF91F
:1056AC00CDF80490009733461E4A012102F07FFE8C
:1056BC0003F06CFB294602F0E0FB03F067FB0621CC
:1056CC00FEF7A9FD074603F061FB002102F0D8FBB1
:1056DC00064630B103F070F933463A461249FFF7EB
:1056EC007DFD03F053FBE9B2012202F0BFFB05463E
:1056FC0003F04CFB03685B699847237806464BB173
:10570C0003F05AF90196CDF800802B46074A012187
:10571C0002F04DFE02B0BDE8F08700BF75CB032050
:10572C003A9C0D00589C0D00BD9A0D007F9C0D00FD
:10573C002DE9F7435A4D5B4EDFF89C81DFF87491ED
:10574C0001232B7003F038F9574902F006FE03F0E1
:10575C0091F84FF4165103F083F803F02DF95349E7
:10576C0002F0FBFD0021308803F05DFA01F0A2FC91
:10577C0000F59C5403F020F94D4902F0EEFD08347D
:10578C00B8F8000003F068FA074603F015F92E216B
:10579C0002F0D4FD01F08EFCC9F8000001F090FE7F
:1057AC00C82001F055FF012F424F03D001F082FCBD
:1057BC00A042E5D303F000F9804603F05BF80368E0
:1057CC001B699847002814BF59224E223A4940467B
:1057DC00FFF712FF0121308803F025FA03F0ECF8F3
:1057EC00364902F0BAFD03F045F803681B69984787
:1057FC0048B901F05FFC844205D901F05BFC3860CC
:10580C0001F05EFEEFE7642001F022FF03F0D4F814
:10581C002B492C4E02F0A1FD002403F0CDF82E21D3
:10582C0002F08CFD03F026F803685B699847431C73
:10583C001CBF3055013403F01DF803681B699847F1
:10584C0008B1172CE9DD03F0B7F802F07AFD172C3C
:10585C001C4A0CDC1C4B114603F1180053F8046B6A
:10586C0041F8046B8342F9D1184B002119700026C2
:10587C00167603F0A1F8134B154A0094012102F09F
:10588C0096FD02F0F7FF02F0EEFF03F095F81149D8
:10589C00FFF74AFD20462E7003B0BDE8F08300BF31
:1058AC0046CB032094C90320A29C0D00B59C0D008F
:1058BC00CC9C0D0018E70320DD9C0D00069D0D000F
:1058CC00679D0D00DCDA03201C9D0D0045CB0320E9
:1058DC00359D0D004D9D0D0098C9032070B58EB0FF
:1058EC000025014606460AA807950895099502F079
:1058FC004CFE2B4606AA29460AA8FFF7E9F90446EE
:10590C000AA802F0BCFD069B013B202B00F2528240
:10591C00DFE813F021002400280057005D007B0015
:10592C0080009B00A000C200E30005012601480195
:10593C006C0172018C019201A301A601A901AC01B9
:10594C00B001500250025002B301D00110021702F4
:10595C00500250021B02FFF7B3F82BE20120FEF7B6
:10596C006FFE24E231460AA802F00FFE002307AABC
:10597C0021460AA8FFF7ACF904460AA802F07FFDFD
:10598C0031460AA802F001FE4FF47A7308AA2146A8
:10599C000AA8FFF79DF90AA802F071FD089907986B
:1059AC00B74CFEF73FFE03F007F8B64BB64A1B6840
:1059BC000193236800930121079B02F0F8FC2468F3
:1059CC00F9E10020FEF73CFEFFF7A4FC0025AF4BED
:1059DC0031460AA85D7602F0D8FD012307AA2146BC
:1059EC000AA8FFF775F90AA802F049FDA84B079C15
:1059FC00B6221A60A74BFF221A60A74B01221A701D
:105A0C00A64B1C60A64B1D60D5E1FEF72DFD02F0E8
:105A1C008DFE94E131460AA802F0B7FD07AA214693
:105A2C004FF4B9730AA8FFF753F90AA802F027FD3F
:105A3C0002F0C2FF9B4B196A0A2391FBF3F203FBA2
:105A4C0012139949FFF7CAFB24E0FEF715FD974B9B
:105A5C005C78B0E131460AA802F097FD4FF4FA7376
:105A6C0007AA21460AA8FFF733F904460AA802F050
:105A7C0006FD31460AA802F088FD2146FF2308AA3C
:105A8C000AA8FFF725F90AA802F0F9FC089907986B
:105A9C00FEF76DFE079C8EE131460AA802F075FDFB
:105AAC0007AA4FF4FA7321460AA8FFF711F9044626
:105ABC000AA802F0E4FC31460AA802F066FD214671
:105ACC00FF2308AA0AA8FFF703F90AA802F0D7FCDB
:105ADC0008990798FEF757FE1FE031460AA802F016
:105AEC0054FD4FF4FA7307AA21460AA8FFF7F0F801
:105AFC0004460AA802F0C3FC31460AA802F045FD90
:105B0C002146FF2308AA0AA8FFF7E2F80AA802F028
:105B1C00B6FC08990798FEF742FE089C4BE131460B
:105B2C000AA802F032FD07AA4FF4FA7321460AA81C
:105B3C00FFF7CEF804460AA802F0A1FC31460AA8E9
:105B4C0002F023FD2146FF2308AA0AA8FFF7C0F89C
:105B5C000AA802F094FC08990798FEF72CFEDCE7E3
:105B6C0031460AA802F011FD07AA4FF4167321461C
:105B7C000AA8FFF7ADF804460AA802F080FC3146EB
:105B8C000AA802F002FD21464FF47A7308AA0AA86B
:105B9C00FFF79EF80AA802F072FC08990798FFF725
:105BAC0027FB77E731460AA802F0EFFC07AA00238F
:105BBC0021460AA8FFF78CF804460AA802F05FFCFD
:105BCC0031460AA802F0E1FC21464FF47A7308AA88
:105BDC000AA8FFF77DF80AA802F051FC0020FEF796
:105BEC002FFD08990798FFF769FBDEE00020FEF710
:105BFC0027FDFFF794FBD8E031460AA802F0C5FC5C
:105C0C004FF4B97307AA21460AA8FFF761F80AA84E
:105C1C0002F035FC079C40F25623621E9A4200F2B9
:105C2C00CA80204B00225C62DA61C4E00020FEF7DF
:105C3C0007FDFFF76FFBB8E031460AA802F0A5FCA0
:105C4C00802307AA21460AA8FFF742F80AA802F007
:105C5C0016FC0798FEF722FD1CE7FEF72FFD6EE001
:105C6C00FEF7E4FD6BE0FFF791FB68E0104B0124BD
:105C7C001C70A0E00E4B1D709CE0FFF791FC5EE0E9
:105C8C00D4DA032004CB0320849D0D005CD30320C5
:105C9C00ACDA032048D4032044CB0320CCCA032025
:105CAC00D0CA032010CA0320B39D0D0086D4032054
:105CBC0075CB03200020FEF7C3FCFFF72BFB31460E
:105CCC000AA802F062FC4FF4FA6307AA21460AA85C
:105CDC00FEF7FEFF04460AA802F0D1FB31460AA8E3
:105CEC0002F053FC052308AA21460AA8FEF7F0FF90
:105CFC000AA802F0C4FB3A4A00231370394A5376BF
:105D0C00394BB6221A60394BFF221A60384B0122EC
:105D1C001A70089B9918374A116013B1079A92FBB5
:105D2C00F3F3354A354813606FF000410022FEF75B
:105D3C00E5FA04E06FF000413048FEF7A3FA0124C5
:105D4C0039E0FFF7F5FC044635E031460AA802F0CD
:105D5C001CFC192307AA21460AA8FEF7B9FF044622
:105D6C000AA802F08CFB31460AA802F00EFC96231E
:105D7C0008AA21460AA8FEF7ABFF04460AA802F0BF
:105D8C007EFB31460AA802F000FC0A2309AA214630
:105D9C000AA8FEF79DFF0AA802F071FBFEF734FC7F
:105DAC0007A8002307C8FFF7B1FBFEF71FFC144B35
:105DBC001C6800E0002402F0FFFD0023059304930F
:105DCC00099B0393089B0293079B01930094069BEA
:105DDC000C4A012102F0EBFA20460EB070BD00BF58
:105DEC0075CB03205CD30320ACDA032048D403200A
:105DFC0044CB0320CCCA0320D0CA032054CA0320AE
:105E0C00D4DA0320C89D0D0038B51E4B188802F05B
:105E1C0023FF1D4B021E0CBF0121002119701C46D3
:105E2C001ED10121194801F0EDFA194B1B6AB3F58B
:105E3C00B47F08DD4FF4C8710846FFF7D9F9154B4C
:105E4C0001221A7012E005254FF4C871C820FFF723
:105E5C00CFF94FF4C87001F0FBFB013DF4D105E024
:105E6C004FF496714FF4C870FFF7C2F902F0A4FD1D
:105E7C0023780949002B14BF59224E22FFF7BCFB93
:105E8C0038BD00BF80C9032045CB032058D4032064
:105E9C0010CA03209CCA0320129E0D0010B51B4B88
:105EAC001A7892B11A4C227852B1002222701A70D0
:105EBC0002F082FD174902F050FAFFF7A5FF04E04B
:105ECC00322001F0C5FB01232370134B1C785CB10D
:105EDC0001F0F0F8114B1B68984216D902F06CFDDA
:105EEC000F4902F03AFA0AE00E4B1A786AB11C70AC
:105EFC000D4B1B784BB1FFF71BFC182803D1BDE8E9
:105F0C001040FEF763BD094B1C7010BDD2DA0320A4
:105F1C00C1CA0320289E0D009DCA0320ECCA032091
:105F2C00409E0D009CCA032045CB03204CD403207B
:105F3C0013460A46002102F03ABA00002DE9F34755
:105F4C000546174698460E4602F020FF294601F0FA
:105F5C0090FF02F01BFF0021FEF75DF9824602F074
:105F6C0015FF8321FEF757F9044602F00FFF0121BC
:105F7C0001F086FF814660B1544402F01DFDCDF85E
:105F8C00049000942B46754A012102F010FA00206F
:105F9C00E0E001F08FF800F59C5909F1080928465A
:105FAC00FFF742F970B901F085F8484503D2642037
:105FBC0001F04EFBF3E702F0FFFC2A466849FFF7BD
:105FCC001BFBE4E7674C23782BB102F0F5FC2A4667
:105FDC006549FFF711FB02F0D9FE294601F049FF94
:105FEC0002F0D4FE0021FEF716F9824602F0CEFE36
:105FFC00002101F045FF814630B102F0DDFC4B463B
:10600C0052465A49FFF7EAF802F0C0FE29460A2226
:10601C0001F02CFF02F0BAFE03685B699847054655
:10602C0002F0B4FE03685B699847237881464BB154
:10603C00EDB202F0C1FC00955FFA89F34C4A0121E4
:10604C0002F0B5F902F0A2FE03685B699847237869
:10605C00C5B22BB102F0B0FC2A464649FFF768FFE7
:10606C0002F094FE03685B6998472378814633B14C
:10607C0002F0A2FC5FFA89F23E49FFF759FF4FEAA2
:10608C00092909F47F4914234D4495FBF3F50A9B28
:10609C00433D1D8002F07AFE03685B6998472378C4
:1060AC00C5B22BB102F088FC2A463249FFF740FFFB
:1060BC0002F06CFE03685B69984723785FFA80F9FD
:1060CC002BB102F079FC4A462A49FFF731FF05EB68
:1060DC000925358002F05AFE03685B6998472378DE
:1060EC00C5B22BB102F068FC2A462249FFF720FF0B
:1060FC0002F04CFE03685B6998472378C6B22BB15B
:10610C0002F05AFC32461B49FFF712FF05EB06253D
:10611C003D8002F03BFE03685B6998472378C5B26B
:10612C002BB102F049FC2A461249FFF701FF02F09D
:10613C002DFE03685B6998472378C6B22BB102F039
:10614C003BFC32460B49FFF757FA05EB0625A8F83E
:10615C000050012002B0BDE8F08700BF859E0D0005
:10616C00E59E0D0075CB0320B59E0D00BD9A0D006C
:10617C00DE9A0D00E19E0D002DE9F04F8DB0412807
:10618C000746089114460AD031280BD032280CD07F
:10619C0002F012FC3A464D49FFF72EFA93E04FF00D
:1061AC00740A04E04FF0750A01E04FF0760A484E8D
:1061BC00737E1525B3FBF5F005FB103501337376B3
:1061CC00444B01221A70FEF779FA21463846FEF745
:1061DC0099FAEDB264200A2401F03AFA04FB056442
:1061EC005246089938464FF00009FFF70BFA052381
:1061FC00A776E376C8464E464D46CB46E27E93459F
:10620C0004F11B0320DA0AAB00930BAA0DF12E0349
:10621C000DF12A015046FFF791FE60B1BDF82A300E
:10622C001D44BDF82C301E44BDF82E309844BDF8EA
:10623C002830994405E002F0BFFB3A462649FFF7A7
:10624C00DBF90BF1010BD9E796FBF2F6E683B6B25C
:10625C0095FBF2F57643A583ADB298FBF2F005FB06
:10626C000565208480B299FBF2F900FB0050A4F87C
:10627C0022900993FEF7BEF80546ADB202F09CFBE6
:10628C000795228C0692E28B0592A28B04921FFA40
:10629C0089F909EBC909052299FBF2F2203292B275
:1062AC000392628C099B02921B780193089B0093CA
:1062BC000A4A3B46012102F07AF8064B0022384686
:1062CC001A70FEF747FA0DB0BDE8F08F009F0D0075
:1062DC005CD3032074CA03201C9F0D00439F0D0048
:1062EC002DE9F04105460E46144600F0E3FE074644
:1062FC000120FEF777FAE0B1324629464120FFF73C
:10630C003BFF0CB1FFF7E4F8324629463120FFF78A
:10631C0033FF0CB1FFF7DCF8324629463220FFF789
:10632C002BFF0CB1FFF7D4F802F046FB02F009F892
:10633C0004E002F041FB0B4902F00FF8FEF76EFA95
:10634C00094B1B7863B102F037FB044600F0B2FE38
:10635C00064AC31B01212046BDE8F04102F027B8D4
:10636C00BDE8F081829F0D0075CB0320B59F0D0019
:10637C00F0B5924B1D7889B00C461E46002D40F0AE
:10638C001981042800F0C38043DC012800F08980C7
:10639C0011DC002840F00A81894904A802F0B6F803
:1063AC0041F2707104A8FEF751FC04A802F067F8E2
:1063BC004FF47A7086E0022800F08780032840F0C2
:1063CC00F58001A92046FEF70DFC02A9FEF70AFC98
:1063DC0003A9FEF707FC7B49044604A802F096F8D3
:1063EC00019B83EAE371A1EBE371029B5943039B8D
:1063FC0004A84B4346F2A81193FBF1F1FEF726FCDF
:10640C0004A802F03CF801A8012307C8FFF77EF8A6
:10641C00CCE0142800F0AC8037DC0A2800F08F8028
:10642C000B2840F0C38001A92046FEF7DBFB02A934
:10643C00FEF7D8FB6449044604A802F067F8634BE6
:10644C001968A1F5924157390029B8BF49429623E2
:10645C00594304A846F2A81391FBF3F1FEF7F6FB9F
:10646C0004A802F00CF8FEF755FF594904A802F0F5
:10647C004DF841F2707104A8FEF7E8FB04A801F096
:10648C00FEFF2A46029901986FE0152800F08780DC
:10649C00632840F08B8002F08FFA4E4901F05DFFCB
:1064AC0086E001A92046FEF79DFB4B49044604A853
:1064BC0002F02CF8019904A8FEF7C8FB04A801F01F
:1064CC00DEFF0198FFF746F872E001A92046FEF7BF
:1064DC0089FB02A9FEF786FB4049044604A802F09A
:1064EC0015F8019B83EAE371A1EBE371029B04A80D
:1064FC004B4346F2A81193FBF1F1FEF7A7FB04A85E
:10650C0001F0BDFF02990198FEF72EF84EE001A9AB
:10651C002046FEF767FB02A9FEF764FB30490446F0
:10652C0004A801F0F3FF019904A8FEF78FFB04A85F
:10653C0001F0A5FF02990198FEF75AFE36E002F031
:10654C003BFA2849FEF7F0FEFEF7E4FE204904A8CA
:10655C0001F0DCFF41F2707104A8FEF777FB04A890
:10656C0001F08DFF2A46FF21B620FFF7B9FE1FE090
:10657C0001A92046FEF736FB044602F01DFA019AEB
:10658C001949FEF7D5FE671C019BAB4210DD337831
:10659C0073B9384600F02CF801350446F4E702F0E4
:1065AC000BFA124901F0D9FE604204E0FEF790FFAD
:1065BC00601C00E0084609B0F0BD00BFD1DA032032
:1065CC00C69F0D00DE9F0D001EA00D00D4DA032027
:1065DC0016A00D004FA00D00CF9F0D00D79F0D00F2
:1065EC00EA9F0D00F29F0D0028A00D0041A00D00A8
:1065FC0030B585B003A90546FEF7F4FA014665B936
:10660C00039B53B1184B01221A7002F0D5F91749AC
:10661C0001F0A3FE4FF0FF3023E00398FFF7A8FE34
:10662C00044602F0C9F9039B019300942B46104ACF
:10663C000D4D012101F0BBFE039B632B0DD0002CF3
:10664C000BDD2B784BB903A92046FEF7CBFA01469C
:10665C000398FFF78DFE0446EEE784EAE470A0EBA6
:10666C00E47005B030BD00BFD1DA03205BA00D0093
:10667C0073A00D001FB52B4B2B49012268461A70D5
:10668C0001F044FF68460021FEF7E0FA684601F08D
:10669C00F6FE00F025FF4FF4FA6000F0D9FF00F091
:1066AC0027FF044628B102F087F9204901F055FE76
:1066BC00EFE7FDF7C5FF4FF416714FF47A70FEF754
:1066CC0097FD40F2DC5000F0C3FFFEF75FFE214661
:1066DC00204600F097FC2046FFF78AFF2146012058
:1066EC0000F090FCFEF76AFAFEF7A0F800F0F0FE5E
:1066FC004FF4FA6000F0ACFF00F0FAFE28B902F09B
:10670C005BF90B4901F029FEF0E70A4B0A4A1B78AA
:10671C000A4883F0010313700121002200F072FE7D
:10672C0004B010BD77CA032097A00D00A4A00D00E3
:10673C00A6A00D00D1DA03209ECA032080CA032034
:10674C0013460A46012101F032BE000007B502F0E3
:10675C0033F92F4901F001FEFEF722FF02F02CF96C
:10676C002C4901F0FAFD0120FDF76AFF02F024F933
:10677C00294901F0F2FDFF214FF4FA70FDF7F7FF04
:10678C004FF4FA7000F064FFFF214FF4FA70FDF73C
:10679C00FAFF4FF4FA7000F05BFFFF214FF4FA7030
:1067AC00FDF7FDFF02F008F91C4901F0D6FD4FF48E
:1067BC00A571FA20FEF71CFDFEF7BAFAFFF724FBD1
:1067CC00174B18491888002200924FF0FF3301F044
:1067DC0063FB02F0F1F8144B14491A68FFF7B0FF91
:1067EC0002F0EAF8124A91781378019152780092EB
:1067FC000121104A01F0DBFDFEF718F800F05AFCFD
:10680C000D4B00F59C500830186003B05DF804FB8C
:10681C00A8A00D00CEA00D00DEA00D00EA9F0D007B
:10682C0080C90320D9400D0074D40320EEA00D00C4
:10683C0086D40320FCA00D00F8DA032010B502F07A
:10684C00BBF80F49FEF770FD0E4B0F490F480022A5
:10685C001A70072202F0F1FC044650B902F0ACF8B1
:10686C000B49FEF761FD0B4B1C70BDE81040FFF7A8
:10687C006DBF02F0A1F80849FEF756FD10BD00BF30
:10688C0055A10D0076CA0320A0990D00D4CA03208F
:10689C0072A10D003AD803209BA10D0030B5144B0A
:1068AC0085B001220C461A70054600F003FC114B12
:1068BC0000F59C402030186002F07EF822460E490C
:1068CC00FFF73EFF2846FEF745F902F075F80B4935
:1068DC0001F043FD0A49684601F018FE214668465E
:1068EC00FEF70AF8684601F0CAFD05B030BD00BFDE
:1068FC00F0CA0320D8DA0320CCA10D003BD803202A
:10690C00EAA10D0010B502F057F8094901F025FD78
:10691C00084B0020EC2202FB00310C7924B104312D
:10692C00BDE81040FFF7BABF01300428F3D110BD09
:10693C00F6A10D0086D4032010B58368182B11D155
:10694C000A4C19222146002301F089FE00232376EC
:10695C0002F032F822460649FFF7F2FEFEF736F84F
:10696C00012010BD4FF0FF3010BD00BFDCDA03205A
:10697C0015A20D0070B500F09DFB124B1A688242F7
:10698C001D461AD8104A0023EC2101FB032634794A
:10699C004CB10E4B1C7894B102F00EF8321D0C4920
:1069AC00FFF7CEFE0CE00133042BEED100F082FB9E
:1069BC0000F56A406030286002E0002400E0012409
:1069CC00204670BDC8CA032086D4032075CB032093
:1069DC0033A20D0038B51E4B1A78D2B11D4C257858
:1069EC0055B101F0E9FF1C4901F0B7FC00232370FD
:1069FC00BDE83840FEF72EBA184C23783BB301F0B3
:106A0C00DBFF174901F0A9FC2570BDE83840FEF703
:106A1C005DBA144B197821B11A70BDE83840FFF7F4
:106A2C0029BE114B1B785BB100F044FB0F4B1B686C
:106A3C0098420CD901F0C0FF0D4901F08EFC02E028
:106A4C00FFF798FF18B1BDE83840FFF75BBF38BDC2
:106A5C0077CA0320D1DA03204FA20D009ECA03206F
:106A6C005FA20D00F5DA0320F0CA0320D8DA032068
:106A7C006EA20D0038B507220D490E4802F0DDFB61
:106A8C00054668B90C4C01F097FF22680B49FFF7DB
:106A9C0057FE0B4B20681D70BDE83840FDF7D4BF86
:106AAC0001F08AFF0749BDE8384001F056BC00BF31
:106ABC00A0990D00D4CA032070CB03208AA20D002C
:106ACC00F0CA0320C2A20D001C4B1D491D48002218
:106ADC0070B51A70072202F0B0FB1B4C1B4DB0FABC
:106AEC0080F04009207001F067FF23781849002BD3
:106AFC0014BF59224E22FEF77FFD2678AEB12868CE
:106B0C00FDF7AAFE064648B1124B01221A7001F09D
:106B1C0053FF2A681049FFF713FE70BD01F04CFFBC
:106B2C000E4901F01AFC267005E001F045FF2A68B9
:106B3C000B49FFF705FE0B4B1E7070BD9DCA032061
:106B4C00A0990D00D4CA03204CD4032070CB032091
:106B5C00D6A20D00F5DA0320EEA20D001AA30D004B
:106B6C0036A30D0045CB032030B53A4B3A480022F2
:106B7C001A7085B07C232021FDF782FF7C2302460E
:106B8C0010213648FDF77CFF354A364B1118196039
:106B9C001C4640F6C313984208DC115C232903D130
:106BAC002F4B00221A5401E00130F4E701F004FFEE
:106BBC0005462B4802F039FB23680293264C274BE1
:106BCC000193012103460094274A284601F0EFFB6C
:106BDC002649204602F0FBFA40B101F0EDFE00948C
:106BEC00224B234A012101F0E2FB31E021492046EE
:106BFC0002F0EDFA20B905B0BDE83040FFF71EBE3B
:106C0C001D49204602F0E3FA20B905B0BDE830403A
:106C1C00FFF75ABF1949204602F0D9FA20B905B03E
:106C2C00BDE83040FEF7C2B81549204602F0CFFA55
:106C3C0020B905B0BDE83040FEF7E2B81149204656
:106C4C0002F0C5FA20B905B0BDE83040FFF712BF1D
:106C5C0005B030BD84D403209FCA0320D4CA0320BE
:106C6C00FCDA032070CB03204CA30D00B0DA032018
:106C7C0081A30D007B9A0D0017990D00169A0D003B
:106C8C00ED990D00EAA10D007FB54B4E4B4C01F078
:106C9C0093FE03681B69984740B301F08DFE0368AF
:106CAC005B6998472368F05401F086FE03681B6902
:106CBC0098472368054638B10133282193FBF1F23C
:106CCC0001FB12332360E2E7F05401F075FE3A4900
:106CDC0001F043FB38492560684601F017FC684613
:106CEC00FEF7FCFD684601F0CAFBD0E7344B1B787D
:106CFC0013B1FFF739FF5DE0324B1C7814B1FEF78E
:106D0C003BFA30E0FFF7CAF8FFF764FE2E4B1A7817
:106D1C004AB31C702D4D2E4EFEF738FB2C462B68BB
:106D2C00002B17DD01F048FE32682A49FEF700FB04
:106D3C00294B1968294B00221868FFF7D1FA284B08
:106D4C00186818B14FF47A71FDF70EFC2368013BFB
:106D5C002360E4E7FDF74AFC6FF000412148FDF7A2
:106D6C0091FAFDF763FD204B1A682AB100221A60D4
:106D7C00FEF746FBFEF7E2FA1C4B1C781CB1002216
:106D8C0001211B4814E01B4B1B4D1B6AB3F5B47F50
:106D9C0006DA00F08FF900F59C500830286009E005
:106DAC0000F088F92B68984204D914482246012136
:106DBC0000F028FB04B070BD47CB0320C0E40320D7
:106DCC0084D403203AD8032044CB0320CCCA03201C
:106DDC00D4DA0320ABA30D0048D40320ACDA032093
:106DEC00D0CA032054CA032000CB032045CB032078
:106DFC0058D4032010CA0320F4CA032080CA0320ED
:106E0C002DE9F0435A4B5B4F5B4EDFF8B0910124F8
:106E1C001C705A4B87B002251D7000F073F92823A3
:106E2C0000932B46564D019422464FF47F01384671
:106E3C0001F0D2F832462946384601F0EDFF002227
:106E4C001421204600F010FB4E4F01944FF01E0809
:106E5C000346CDF8008022464FF47F01384601F0FE
:106E6C00BBF832462946384601F0D6FF00221421E1
:106E7C00204600F0F9FA444FCDF800800346224634
:106E8C0001944FF47F41384601F0A6F8324629466A
:106E9C0038463E4D3E4FDFF8288101F0BDFF3D4B9B
:106EAC00029302AA002341F2883128460497CDF8B8
:106EBC001490FDF7B5F902A8FDF7A4F93246414646
:106ECC00284601F0A9FF344A344B12681A60344A40
:106EDC00049712685A604FF448721A614FF4B972F1
:106EEC0000254FF47A715A622E4F99636422DD604B
:106EFC001D725D619D61DA621C635C63DC631C6402
:106F0C00294B029302AA2B463846CDF81490FDF774
:106F1C0087F902A8FDF776F93846244F32464146E8
:106F2C0001F07AFF2249384601F0F0FA3246214945
:106F3C00384601F071FF204B0E225A702946FF2271
:106F4C000C2620461E709A7000F076FA01F020FE96
:106F5C002B462A4642F6A23101F022FE01F018FE21
:106F6C002B462A46314601F023FE07B0BDE8F083DC
:106F7C00C0CA032024CB03200CCA032078CA0320E8
:106F8C0095410D0054D403207CCA032054CA03201D
:106F9C00E9400D00B5400D0068C9032010CA03205C
:106FAC0088C9032008CB0320C1400D0074D40320F2
:106FBC0090A50D008B840D0086D40320E5400D00B8
:106FCC00B1420D0008B5024B1B689B68019308BDCC
:106FDC004802030008B5024B1B68DB68019308BD2F
:106FEC004802030008B5024B1B681B69019308BDDE
:106FFC004802030008B5024B1B685B69019308BD8E
:10700C004802030008B5024B1B68DB69019308BDFD
:10701C004802030008B5024B1B681B6A019308BDAC
:10702C004802030008B5024B1B685B6A019308BD5C
:10703C004802030008B5024B1B689B6A019308BD0C
:10704C004802030008B5024B1B68DB6A019308BDBC
:10705C004802030008B5024B1B685B6C019308BD2A
:10706C004802030008B5024B1B689B6C019308BDDA
:10707C004802030008B5024B1B681B6F019308BD47
:10708C004802030008B5024B1B689B6E019308BDB8
:10709C003402030008B5024B1B685B68019308BD02
:1070AC001802030008B5024B1B68DB68019308BD8E
:1070BC001802030008B5024B1B685B69019308BDFD
:1070CC001802030008B5024B1B689B6A019308BDAC
:1070DC001802030008B5024B1B685B6C019308BDDA
:1070EC001802030008B5024B1B689B6C019308BD8A
:1070FC001802030008B5024B1B68DB6C019308BD3A
:10710C001802030008B5024B1B681B68019308BDED
:10711C002C02030008B5024B1B685B68019308BD89
:10712C002C02030008B5024B1B689B68019308BD39
:10713C002C02030008B5024B1B68DB68019308BDE9
:10714C002C02030008B5024B1B681B69019308BD98
:10715C002C02030008B5024B1B685B69019308BD48
:10716C002C02030008B5024B1B689B69019308BDF8
:10717C002C02030008B5024B1B68DB69019308BDA8
:10718C002C02030008B5024B1B689B6A019308BDD7
:10719C002C02030008B5024B1B681B6B019308BD46
:1071AC002C02030008B5024B1B689B6F019308BDB2
:1071BC002C02030008B5024B1B68DB6F019308BD62
:1071CC002C02030008B5024B1B681B68019308BD19
:1071DC002802030008B5024B1B68DB68019308BD4D
:1071EC002802030008B5024B1B681B69019308BDFC
:1071FC002802030008B5024B1B689B69019308BD6C
:10720C002802030008B5024B1B68DB69019308BD1B
:10721C002802030008B5024B1B681B6A019308BDCA
:10722C002802030008B5024B1B685B6A019308BD7A
:10723C002802030008B5024B1B689B6A019308BD2A
:10724C002802030008B5024B1B68DB6A019308BDDA
:10725C002802030008B5024B1B681B6B019308BD89
:10726C002802030008B5024B1B685B6B019308BD39
:10727C002802030008B5024B1B681B6C019308BD68
:10728C002802030008B5024B1B681B6D019308BD57
:10729C002802030008B5024B1B685B69019308BD0B
:1072AC006402030008B5024B1B689B68019308BD80
:1072BC006802030008B5024B1B68DB68019308BD2C
:1072CC006802030008B5024B1B681B68019308BDDC
:1072DC002402030008B5024B1B68DB69019308BD4F
:1072EC003002030008B5024B1B681B6A019308BDF2
:1072FC003002030008B5024B1B681B68019308BDE4
:10730C003C02030008B5024B1B689B68019308BD47
:10731C003C02030008B5024B1B68DB68019308BDF7
:10732C003C02030008B5024B1B681B69019308BDA6
:10733C003C02030008B5024B1B685B69019308BD56
:10734C003C02030008B5024B1B689B69019308BD06
:10735C003C02030008B5024B1B68DB69019308BDB6
:10736C003C02030008B5024B1B681B6A019308BD65
:10737C003C02030008B5024B1B689B6A019308BDD5
:10738C003C02030008B5024B1B68DB6A019308BD85
:10739C003C02030008B5024B1B681B68019308BD37
:1073AC004C02030008B5024B1B685B68019308BDD7
:1073BC004C02030008B5024B1B681B69019308BD06
:1073CC004C02030008B5024B1B685B69019308BDB6
:1073DC004C02030008B5024B1B689B69019308BD66
:1073EC004C02030008B5024B1B68DB69019308BD16
:1073FC004C02030008B5024B1B681B6A019308BDC5
:10740C004C02030008B5034B1B68D3F88030019382
:10741C0008BD00006002030008B5024B1B685B68E6
:10742C00019308BD2002030008B5024B1B685B6981
:10743C00019308BD2002030008B5024B1B68DB6AF0
:10744C00019308BD2002030008B5024B1B68DB6CDE
:10745C00019308BD2002030008B5024B1B685B6D4D
:10746C00019308BD2002030008B5024B1B68DB6FBB
:10747C00019308BD2002030008B5034B1B68D3F829
:10748C008830019308BD00002002030008B5034BAF
:10749C001B68D3F89430019308BD00002002030050
:1074AC0008B5024B1B681B68019308BD440203001E
:1074BC0008B5024B1B685B68019308BD44020300CE
:1074CC0008B5024B1B689B68019308BD440203007E
:1074DC0008B5024B1B68DB68019308BD440203002E
:1074EC0008B5024B1B681B69019308BD44020300DD
:1074FC0008B5024B1B685B69019308BD440203008D
:10750C0008B5024B1B68DB69019308BD44020300FC
:10751C0008B5024B1B681B6A019308BD44020300AB
:10752C0008B5024B1B685B6A019308BD440203005B
:10753C0008B5024B1B68DB6B019308BD44020300CA
:10754C0008B5024B1B685B68019308BD4002030041
:10755C0008B5024B1B689B68019308BD40020300F1
:10756C0008B5024B1B68DB68019308BD40020300A1
:10757C0008B5024B1B681B69019308BD4002030050
:10758C0008B5024B1B685B69019308BD4002030000
:10759C0008B5024B1B689B69019308BD40020300B0
:1075AC0008B5024B1B68DB69019308BD4002030060
:1075BC0008B5024B1B681B6A019308BD400203000F
:1075CC0008B5024B1B681B6B019308BD40020300FE
:1075DC0008B5024B1B685B6B019308BD40020300AE
:1075EC0008B5024B1B681B68019308BD1C02030005
:1075FC0008B5024B1B685B68019308BD1C020300B5
:10760C0008B5024B1B689B68019308BD1C02030064
:10761C0008B5024B1B68DB68019308BD1C02030014
:10762C0008B5024B1B685B6A019308BD1C02030082
:10763C0008B5024B1B68DB6A019308BD1C020300F2
:10764C0008B5024B1B681B6B019308BD1C020300A1
:10765C000021FFF7E9BE10B5836804460BB901F0B1
:10766C00FCFBC3689847A3681BB103222146204644
:10767C00984720461021BDE8104001F0D2BB10B550
:10768C000446006808B1FFF7EDFC204610BD10B5AC
:10769C00036804469B689847A368013BA3602BB919
:1076AC0023682046DB68BDE81040184710BD0B6806
:1076BC00036013B15A6801325A60704710B5044622
:1076CC00006828B14368013B43600BB9FFF7DFFF4B
:1076DC00204610BD10B5064C002320462360FFF752
:1076EC00B9FC2046034A0449BDE8104001F094BBA4
:1076FC00C4E403200CCA03208B760D0070470020D5
:10770C00704710B51021044601F08BFB204610BDCC
:10771C0008B508B1FFF7F5FF08BD0022026010B5EF
:10772C004FF69C728280B1F9044084808A80026892
:10773C000C6804600A6010BD10B504460068FFF7C1
:10774C0057FF204610BD38B5C468F4B12378022B1E
:10775C0003D104F10C00FFF7EFFF656835B1284643
:10776C00FCF750FD1021284601F05BFBA56835B1F4
:10777C002846FCF747FD1021284601F052FB204615
:10778C001421BDE8384001F04CBB38BD10B588B0B1
:10779C000446684600F0BAFE694604A800F0F5FEFF
:1077AC0004A8A047044604A800F069FE684600F04F
:1077BC0066FE204608B010BDF0B5102485B0074613
:1077CC000E46154600212246684601F0B2FC002206
:1077DC0069461046ADF80040029703960195FFF7F5
:1077EC0067FE05B0F0BD13B5044691E80500002313
:1077FC004B600B602060626001A801930093FFF75F
:10780C005DFF204602B010BDF7B50C4602AD54F832
:10781C00043B45F8083D06460F4601A82146FFF7F4
:10782C0046FF29463046FFF7DEFF01A8FFF746FF6B
:10783C002046FFF743FF3846082101F0F2FA3046A4
:10784C0003B0F0BD13B50B46044603C88DE8030026
:10785C0093E8030084E803009DE8030083E8030039
:10786C0002B010BD38B500230446036010200D464D
:10787C00FCF70BFC28B1012343608360024B0360CF
:10788C00C5602060204638BD70A40D00826810B51C
:10789C000AB901F0E2FAC368BDE81040184708B510
:1078AC00006800F11001FFF7F1FF08BD826810B508
:1078BC000AB901F0D2FAC368BDE81040184708B500
:1078CC00006800F11001FFF7F1FF08BD38B5002387
:1078DC0083608B6804460D462BB102229847EB68F7
:1078EC00E360AB68A360204638BD0000F0B589B0FA
:1078FC0004686846FFF711FF00238DF808304FF03D
:10790C000202D4E84F3F002B03D1C4E8412F0029D9
:10791C00F7D102D08DF8083063E014F10C0503D0D8
:10792C0069462846FFF7F9FEBFF35F8F01236370AA
:10793C00002004F10803BFF35F8F53E8006F43E8A6
:10794C000002002AF9D1BFF35F8F002E49D0FFF758
:10795C007BFD20B129463046FFF798FF3AE03146CF
:10796C0002A8FFF7B3FFE068B4F9105008B101F0BA
:10797C0041FC06901020ADF81C50FCF786FB054628
:10798C00E8B1002787601820FCF77FFB044688B11C
:10799C000146876002A8FFF755FF049BA268A3600D
:1079AC00059B049206A9E268E36004F110000592BD
:1079BC00FFF7B3FE0D4BEB600D4B2C60AB6006A8D4
:1079CC00FFF7BAFE02A8FCF71DFC00222946094865
:1079DC00FFF742FD3046FCF715FC1021304601F054
:1079EC0020FA6846FFF7A8FE09B0F0BDAB780D0091
:1079FC00217B0D0063760D002DE9F04F8BB0064610
:107A0C000F46904699469DF850A0FFF771FD07ADC3
:107A1C00834630BB4FF62E73059005A92846ADF86A
:107A2C001830FFF77AFE1420FCF72FFB044658B1F0
:107A3C000223037001234370C0F804B0C0F808B0EF
:107A4C0029460C30FFF769FE3046214640F8044BBE
:107A5C00FFF708FF2846FFF76FFE05A8FFF76CFE3F
:107A6C0052E000240C2314206C60AC600793FCF7EC
:107A7C000CFB014618B1047044704460846004A887
:107A8C000391FFF7EFFE224B08930820FCF7FDFA59
:107A9C00044628B1039B40F8043B04A9FFF707FEFA
:107AAC0000955FFA8AF34A46414638460994FFF737
:107ABC002FFD20B9039B5B7803F0FF0283B1039B7E
:107ACC00059304A906A8FFF7F2FD05A93046FFF7B8
:107ADC008AFE06A8FFF7F2FD04A8FFF7EFFD13E0FE
:107AEC004FF69C7305A903A80592ADF81830FFF763
:107AFC00FDFE05A8FFF720FE05A80999FFF784FEF7
:107B0C0006A8FFF7DBFDDAE730460BB0BDE8F08FD7
:107B1C00917C0D00022AF8B5044606D0032A17D032
:107B2C00012A22D10B6803601FE018200E68FCF7B5
:107B3C00ACFA054650B13146FFF7C8FE3069B6F9CC
:107B4C00147008B101F056FB2861AF8225600CE07F
:107B5C00046854B104F11000FFF7EEFD2046FCF769
:107B6C0051FB1821204601F05CF90020F8BD38B516
:107B7C00002383608B6804460D462BB10222984784
:107B8C00EB68E360AB68A360204638BD022A70B591
:107B9C00044606D0032A11D0012A18D10B680360C1
:107BAC0015E014200E68FCF770FA054620B131463A
:107BBC00FFF7DDFF337C2B74256008E0046834B1DB
:107BCC002046FCF71FFB1421204601F02AF9002067
:107BDC0070BD0000F0B5002387B00C46BFF35F8F7B
:107BEC0050E8006F40E80032002AF9D1BFF35F8FF4
:107BFC00002E3FD01846FFF727FC074620B1214640
:107C0C003046FFF753FE2EE0314601A8FFF7AFFFD9
:107C1C0023788DF814301020FCF737FA0546D0B1D4
:107C2C0087601420FCF731FA044678B1876001466E
:107C3C0001A8FFF707FE039BA268A360049B0392B5
:107C4C00E268E3609DF81430049223740A4BEB60F5
:107C5C000A4B2C60AB6001A8FCF7D4FA0022294631
:107C6C000748FFF7F9FB3046FCF7CCFA10213046F9
:107C7C0001F0D7F807B0F0BDCB780D00997B0D0063
:107C8C0063760D0030B585B004460D466846114646
:107C9C00FFF7BAFD7CB124B228460DB101F0AAFA67
:107CAC00029002A96846ADF80C40FFF71FFE02A82F
:107CBC00FFF742FD1DE000988DF808404FF00102DF
:107CCC00D0E84F3FA34203D1C0E8412F0029F7D1A0
:107CDC0002D08DF808300CE010F10C014FF00103CC
:107CEC0018BF0373BFF35F8F043000F8033CFFF73A
:107CFC0071FF01A8FFF7E2FC05B030BD0022114670
:107D0C004068FFF755BC002211464068FFF760BC85
:107D1C0000224068FFF754BC002281F0010140684A
:107D2C00FFF73EBC00231A4619464068FFF730BCEB
:107D3C0000231A4619464068FFF722BC0022114660
:107D4C004068FFF715BC002211464068FFF700BCE5
:107D5C00002202214068FFF703BC00231A4640684A
:107D6C00FFF7EEBB024B03225A60024A1A607047BF
:107D7C00C8E403208CA40D007047F8B506461546E0
:107D8C000C468F18BC4206D0336814F8011B9B6854
:107D9C0030469847F6E72846F8BD0022007CFFF7EE
:107DAC0039BA0021007CFFF73DBA0021007CFFF7B7
:107DBC0041BA0021007CFFF745BA0021007CFFF797
:107DCC0049BA10B51421044601F02BF8204610BD19
:107DDC0010B50446002363604FF47A73A360044B20
:107DEC002174084623601146FFF744FA204610BD63
:107DFC00C0A40D000022007CFFF7E4B900231A4652
:107E0C001946007CFFF7E6B90021007CFFF7EAB9C0
:107E1C0070B50C4686B0142506462A46002101A8EA
:107E2C0001F087F923788DF8083063680393E368D1
:107E3C0004930022237A307CADF8045001A90593F9
:107E4C00FFF720FA06B070BD1FB500338DF8001097
:107E5C004FF06401039118BF0123694601928DF81C
:107E6C000830FFF7D5FF05B05DF804FB0123FFF7E1
:107E7C00EBBF0022007CFFF7BDB9C9B2FFF7F9BF19
:107E8C000022007CFFF7BEB90121FFF7F9BF0021EA
:107E9C00007CFFF7E7B90047F0B585B01C460E46ED
:107EAC0017460546FFF766F9002084424FF004039D
:107EBC0003908DF80C30A5BF9DF828308DF80E304E
:107ECC00034603AB009332463B460649A8BF8DF8E8
:107EDC000D402846FFF746F9B0FA80F0400905B08E
:107EEC00F0BD00BFA37E0D00704710B518210446ED
:107EFC0000F097FF204610BDF0B5037D062B8DB02A
:107F0C000E4600F104074FF0000402D000F1080502
:107F1C0018E00CAD394605F8304D2F232A460A20BF
:107F2C00FFF7B8F9284601F080F933680246DB68A0
:107F3C002946304698470FE024B12E21304600F0F8
:107F4C00FDF9044415F8011D0A22304600F00FFA21
:107F5C00BD420444F0D120460DB0F0BD10B5054B28
:107F6C000446112240F8043B002101F0E2F82046BF
:107F7C0010BD00BFE8A40D000346074A10B543F836
:107F8C00042B01F1100251F8044B43F8044B9142BD
:107F9C00F9D10A781A7010BDE8A40D0010B59DF83F
:107FAC00084044EA032343EA024242EA0161042303
:107FBC004160037510BD37B50D788B784A78C97858
:107FCC0000912946FFF7EAFF03B030BD0A680B4663
:107FDC00926801461846104770B50E4C04601C247C
:107FEC0044609DF814409DF8106004F0030444EACA
:107FFC0086040025E4B20474427485744161427CA9
:10800C0085600F2A08BF044BC56006BF8361C06141
:10801C00038370BDE8930D00D97F0D00014B024A1C
:10802C001A607047D0E403205FA50D0000221146B2
:10803C004068FFF7BDBA002211464068FFF7C8BA86
:10804C0000224068FFF7BCBA002281F001014068B1
:10805C00FFF7A6BA00231A4601214068FFF798BA29
:10806C0000231A4619464068FFF78ABA00221146C7
:10807C004068FFF77DBA002211464068FFF768BAE6
:10808C00002202214068FFF76BBA00231A464068B1
:10809C00FFF756BA38B5054688B104684CB1A368E9
:1080AC001BB103222146204698471021204600F0A0
:1080BC00B8FE28461421BDE8384000F0B2BE38BDE9
:1080CC0010B103685B681847704710B50368044625
:1080DC00BBB15868FEF776FF78B923685A7C12B9A1
:1080EC005868FEF77FFF23685868FEF783FF206807
:1080FC000023236028B1FFF7CDFF206808B1FFF7FC
:10810C00C9FF204610BD38B50446D0F8C40108B1EB
:10811C00FBF7BFFFD4F8C00108B1FEF7A3FFD4F8FA
:10812C00BC5135B12846FFF7D0FF0421284600F09A
:10813C0078FE206808B1FFF7C3FF204638BD000069
:10814C0010B5044B044640F8083BFFF7DCFF204613
:10815C0010BD00BFD0A50D0038B50E4C0E4B2360E2
:10816C000025022304F5E4706360A560C4F8C451D3
:10817C00C4F8C851FEF76EFF084BC4F8CC5184F814
:10818C00D05123602046064A0649BDE8384000F02D
:10819C0043BE00BFD4E4032004A60D00D0A50D00FF
:1081AC000CCA03204D810D0000231A464068FFF7CE
:1081BC00C7B9002202214068FFF7D2B9002211464C
:1081CC004068FFF7C5B9002211464068FFF7D0B9E7
:1081DC0000231A4619464068FFF7D2B900231A4605
:1081EC0019464068FFF7D4B9002281F001014068BC
:1081FC00FFF7D6B900224068FFF7E2B9002211461A
:10820C004068FFF7E5B9002211464068FFF7D0B986
:10821C002DE9F043002495B016460D460746FFF7AE
:10822C009DFE214620220CA8009400F082FF4023E2
:10823C000C9321466B460CAA3046FFF73BF80446DC
:10824C00002844D1024601216868FFF791F9022108
:10825C00804622466868FFF78BF9009E81462146CE
:10826C00002E34D0002932D17368022B02D00A2B95
:10827C0009D02AE0B8F1000F27D0716938460431D3
:10828C00FFF799FE20E0B9F1000F1ED0746911229E
:10829C0001A800F04EFF06238DF8143001AD04F157
:1082AC0008031834186859682A4603C20833A342D5
:1082BC001546F7D101A906A807ADFFF75DFE0FCD56
:1082CC003C1D0FC42B6823700121F669C8E7009888
:1082DC00FEF7E8FF384615B0BDE8F083024B034AC1
:1082EC001A6000225A607047A8E6032004A60D000D
:1082FC00F8B506460D468F180024BD420CD03368E5
:10830C0015F8011B9B6830469847002801DB044494
:10831C00F3E7002C08BF04462046F8BD70B50546AF
:10832C000C46084649B100F080FF2B6802462146F6
:10833C002846DB68BDE87040184770BD03689B6831
:10834C00184738B50D210546FFF7F8FF0A210446FA
:10835C002846FFF7F3FF204438BD38B50546FFF734
:10836C00DDFF04462846FFF7ECFF204438BD30B54E
:10837C008BB00B4600218DF82410012A98BF0A22DD
:10838C000DF12304B3FBF2F505FB123303F0FF03ED
:10839C00092B94BF30333733DBB2214604F8013953
:1083AC002B46002DEED1FFF7B9FF0BB030BD0CB44E
:1083BC002DE9F04387B000AF07F13804054654F8B7
:1083CC00049B3C600E4623464A461421381DFFF799
:1083DC0027F9132805D8391D2846FFF79FFF0446B7
:1083EC0013E000F1080323F00703E846ADEB030D9F
:1083FC00411C23464A4668463C60FFF711F9694622
:10840C002846FFF78BFF0446C5461EB12846FFF7EA
:10841C0098FF044420461C37BD46BDE8F04302B02B
:10842C00704710B50446FBF7EDFE204610BD00006A
:10843C000348044A04490023836000F0EDBC00BFEC
:10844C00B0E603200CCA03202F840D00704710B532
:10845C000C21044600F0E5FC204610BD10B5054B80
:10846C000360044601710846FEF734FF0023A36045
:10847C00204610BD38A60D000079FEF733BF10B5AD
:10848C0004460068FFF7B4F8204610BD10B504464A
:10849C00006808B1FFF7ACF800232360A3606360A9
:1084AC0010BD38B504460D4600680131FFF7A8F839
:1084BC0010B184E82100012038BD10B503680446D2
:1084CC0013B143688B4207D22046FFF7EAFF20B175
:1084DC00A3680BB922681370012010BD70B50E464D
:1084EC00114604461546FFF7E8FF18B92046FFF77A
:1084FC00CDFF09E02A463146A560206800F00EFE4B
:10850C002268A3680021D154204670BD38B50023E1
:10851C00044603604360836003730D4639B108461B
:10852C0000F083FE294602462046FFF7D7FF20467F
:10853C0038BD38B5054600680C4660B16A688B6872
:10854C009A4206D3096800F04CFEA368AB60002386
:10855C000AE0FFF74DF823682B6063686B60A36833
:10856C00AB60002323606360A36038BD884210B504
:10857C000B46044607D0096819B19A68FFF7AEFF9D
:10858C0001E0FFF783FF204610BD10B50023044621
:10859C000360436083600373FFF7E8FF204610BD60
:1085AC00884210B5044601D0FFF7C3FF204610BD2A
:1085BC0038B505460C4641B1084600F036FE21465A
:1085CC0002462846FFF78AFF01E0FFF75FFF2846C7
:1085DC0038BD13B500238DF804100360436083602D
:1085EC00037301A904468DF80530FFF7E1FF20461F
:1085FC0002B010BD70B504460E4609B9002070BD1E
:10860C006AB18368D5182946FFF757FF0028F5D0C3
:10861C002068A3683146184400F0E3FDA5600120F2
:10862C0070BD10B58A6809680446FFF7E3FF10B9FE
:10863C002046FFF72BFF204610BD38B504460D46EB
:10864C0041B1084600F0F1FD294602462046FFF7ED
:10865C00D1FF10B92046FFF719FF204638BD70B581
:10866C000E469AB191B185689D4202D800230B70D9
:10867C0070BD541EED1A0168AC4228BF2C4619443B
:10868C002246304600F0EEFD0023335570BD10B588
:10869C008368934206D90468A01800F08AFD08B1DB
:1086AC00001B10BD4FF0FF3010BD0000F8B59A4212
:1086BC000F461D460C4988BF13461446064684BF18
:1086CC002C461D46FFF722FFBA6894420AD8396837
:1086DC00954294BFC4EB0502C4EB02022144304620
:1086EC00FFF7FCFE3046F8BD90A50D0010B5044612
:1086FC008B68FFF7DBFF204610BD006808B100F067
:10870C00FBBC704710B50446006818B1FEF770FF4B
:10871C000023236010BD10B50446FFF7F3FF20467D
:10872C0010BD014600228C20FEF7ACBC0020FFF7E8
:10873C00F8BF000010B5094C00204FF6FF73206005
:10874C00A080A07120816381FEF766FE2046044A5A
:10875C000449BDE8104000F05FBB00BFC0E6032039
:10876C000CCA032023870D00024B1A68024B1A60B7
:10877C00704700BFA0C90320CCE60320F8B585B232
:10878C00044628460E46174600F01AFA60B102213C
:10879C002846FEF7BFFC022806D13A463146204651
:1087AC00BDE8F840FEF78EBDF8BD704741747047C8
:1087BC0008B5007CFEF7DEFD20EAE07008BD08B5C8
:1087CC00007CFEF7AFFD20EAE07008BD08B5007C28
:1087DC00FEF7B8FD30EA200028BF4FF0FF3008BD8F
:1087EC0008B5007CFEF7A6FD30EA200028BF4FF04C
:1087FC00FF3008BD007CFEF7ADBD10B5142104465A
:10880C0000F00FFB204610BD70B5457C04460E46AB
:10881C0025B9007CFEF7AEFD002805DD3146207C35
:10882C00BDE87040FEF776BD284670BD10B5044615
:10883C0008461146002262604FF47A72A260054A23
:10884C0022600122207462741A46FEF753FD204602
:10885C0010BD00BF74A60D000023007CFEF792BD76
:10886C000022FFF7F9BF007CFEF74CBD007CFEF741
:10887C0079BD0000F8B5194C25684DB98420FBF77B
:10888C0004FC064618B18422294600F052FC2660EE
:10889C00134D2E684EB98420FBF7F7FB074618B131
:1088AC008422314600F045FC2F600E4F396811F0E0
:1088BC00010611D13846FBF7EEFB68B122682B6834
:1088CC0009483146FFF7B2FF3846FBF7E9FB074A88
:1088DC000749054800F0A0FA0348F8BDECE6032070
:1088EC00E4E60320E8E60320D0E603200CCA0320CC
:1088FC00B7870D0041747047704708B50021007CA4
:10890C00FEF768FD30EA200028BF4FF0FF3008BDAD
:10891C0008B50121007CFEF75DFD30EA200028BF80
:10892C004FF0FF3008BD08B5007CFEF74BFD20EA88
:10893C00E07008BD08B5007CFEF73CFD20EAE07055
:10894C0008BD007CFEF756BD10B51421044600F09E
:10895C0068FA204610BD38B50446007C0D46FEF77B
:10896C0031FD002801DC607C28B12946207CFEF713
:10897C0039FD20EAE07038BD10B504460023636071
:10898C004FF47A73A360054B2360012308462174CE
:10899C0063741146FEF7FEFC204610BDA4A60D0024
:1089AC000022007CFEF7FEBC10B514220446002108
:1089BC0000F0BFFB204610BD30B50E4D87B001A8AE
:1089CC00FFF7F2FF296811F0010410D12846FBF7DC
:1089DC0062FB60B101AA21460748FFF7CDFF28468C
:1089EC00FBF75EFB054A0649034800F015FA0248FE
:1089FC0007B030BDF0E60320F4E603200CCA0320D8
:108A0C0005890D00002211464068FEF7B1BD002219
:108A1C0011464068FEF7CCBD002211464068FEF7B7
:108A2C00D7BD00224068FEF7CBBD002281F00101CA
:108A3C004068FEF7B5BD00231A4619464068FEF79C
:108A4C00A7BD00231A4619464068FEF799BD0022BF
:108A5C0011464068FEF77CBD002202214068FEF7FB
:108A6C007FBD00231A464068FEF76ABD024B042204
:108A7C005A60024A1A60704708E70320D4A60D001A
:108A8C0008B50C4B33B1FFF797FF03681B69984788
:108A9C00002809DC084B63B1FFF7ECFE03681B6987
:108AAC009847002803DC08BDAFF30080F2E7AFF372
:108ABC00008008BD000000000000000008B5FFF7B2
:108ACC00DFFFFEF7F7FA014B186008BD18E703202B
:108ADC000248034A0349121A00F020BB00F4032099
:108AEC0004F40320A0A80D0007B5002300931A4638
:108AFC006FF07701FEF7CAFC03B05DF804FB0000D1
:108B0C0007B543880A2B08D0502B09D1094B1B6899
:108B1C003BB103B05DF804EB1847FFF7E5FF06E047
:108B2C00002300931A466FF07701FEF7AFFC03B0F9
:108B3C005DF804FB10E7032038B5104C104D23688A
:108B4C00AB42104B0CBF012200221A7002D0FFF76F
:108B5C00BFFF2560FEF79EFA044600F0F3FA0A4BBD
:108B6C0013B12046AFF3008000210748FEF7E0FC6C
:108B7C0000210648BDE83840FEF77EBC00F4032017
:108B8C001E1C279A14E70320000000000D8B0D001B
:108B9C0008B5024B1B681B68019308BD5C020300FF
:108BAC0008B5024B1B685B68019308BD5C020300AF
:108BBC0008B5024B1B689B68019308BD5C0203005F
:108BCC0010B5044600F008F9FFF756FC28B1A4F1E3
:108BDC000B03022B01D8002010BD00F0D7F8FFF7D3
:108BEC0056F908B1012CF6D9FFF744FEFFF73EFE0B
:108BFC0018B1A4F10903012BEDD9232C8CBF002053
:108C0C00012010BD232838B504460D460AD8FF298B
:108C1C0008D0FFF7D5FF28B129462046BDE83840DB
:108C2C00FEF780BA38BD38B504460D46FEF782FA19
:108C3C00FF2810D0062804D84D2323FA00F0C307D0
:108C4C0009D42046FFF7BCFF28B129462046BDE8D1
:108C5C003840FEF777BA38BD10B50446FEF76AFA0D
:108C6C000438C0B2012808D92046FFF7A9FF20B16B
:108C7C002046BDE81040FEF76DBA002010BD0D284F
:108C8C0010B504469CBF0E34A4B22046FFF798FFE3
:108C9C0050B103212046FEF73DFA032804D12046AB
:108CAC00BDE81040FEF776BA002010BD38B504467A
:108CBC000D46FFF785FFF0B104212046FEF72AFA96
:108CCC00042805D1A9B22046BDE83840FEF75ABAAF
:108CDC0002212046FEF71EFA02280CD12046FEF790
:108CEC0029FA012801D0042805D129462046BDE8DF
:108CFC003840FEF757BA38BD70B504460D461646D7
:108D0C00FFF75EFF98B102212046FEF703FA022816
:108D1C000DD12046FEF70EFA012801D0042806D109
:108D2C00324629462046BDE87040FEF743BA70BD76
:108D3C0010B5074C2368DB0708D42046FBF7ABF9CA
:108D4C0020B1FEF7BFF92046FBF7AAF9014810BD88
:108D5C001CE7032020E7032070B5044614252A469F
:108D6C00094E002100F0E5F9258020253146A5604B
:108D7C002561284600F06FF831466060284600F007
:108D8C006AF8E060204670BD00A70D0030B50E4DAE
:108D9C00296811F0010487B013D12846FBF77BF941
:108DAC0078B101A8FFF7D8FF01AA21460748FFF7C1
:108DBC000FF82846FBF774F9054A0649034800F0FA
:108DCC002BF8024807B030BD24E7032028E7032026
:108DDC000CCA0320857D0D0038B50B4D296811F0A8
:108DEC0001040FD12846FBF756F958B12146074824
:108DFC00FFF734FB2846FBF753F9054A05490348AE
:108E0C0000F00AF8014838BD48E703203CE703208E
:108E1C000CCA032059840D000B460146184600F07D
:108E2C006FB9FBF734B90000024B1868BFF35F8FC2
:108E3C00704700BF4CE7032010B5002814BF044650
:108E4C0001242046FEF7CCFB20B9FFF7EDFF08B15B
:108E5C008047F6E710BDFFF7EFBF08B5FEF7E8FB5C
:108E6C00244B1A68D0075CBF01221A60224B1A6887
:108E7C00D1075CBF01221A60204B1A68D2075CBF75
:108E8C0001221A601E4B1A68D0075CBF01221A60BF
:108E9C001C4B1A68D1075CBF01221A601A4B1A6866
:108EAC00D2075CBF01221A60184B1A68D0075CBF4E
:108EBC0001221A60164B1A68D1075CBF01221A6096
:108ECC00144B1A68D2075CBF01221A60124B1A6845
:108EDC00D0075CBF01221A60104B1A68D1075CBF27
:108EEC0001221A600E4B1A68D2075CBF01221A606D
:108EFC00704700BF7CE7032078E7032074E703206A
:108F0C0070E703206CE7032068E7032064E7032085
:108F1C0060E703205CE7032058E7032054E70320B5
:108F2C0050E70320184B1A68D1075CBF01221A6066
:108F3C00164B1A68D2075CBF01221A60144B1A68D0
:108F4C00D0075CBF01221A60124B1A68D1075CBFB4
:108F5C0001221A60104B1A68D2075CBF01221A60FA
:108F6C000E4B1A68D0075CBF01221A600C4B1A68B2
:108F7C00D1075CBF01221A600A4B1A68D2075CBF8A
:108F8C0001221A60704700BF9CE7032098E703207A
:108F9C0094E7032090E703208CE7032088E7032065
:108FAC0084E7032080E70320184B1A68D1075CBFC5
:108FBC0001221A60164B1A68D2075CBF01221A6094
:108FCC00144B1A68D0075CBF01221A60124B1A6846
:108FDC00D1075CBF01221A60104B1A68D2075CBF24
:108FEC0001221A600E4B1A68D0075CBF01221A606E
:108FFC000C4B1A68D1075CBF01221A600A4B1A6825
:10900C00D2075CBF01221A60704700BFBCE7032087
:10901C00B8E70320B4E70320B0E70320ACE7032054
:10902C00A8E70320A4E70320A0E70320244B1A6839
:10903C00D0075CBF01221A60224B1A68D1075CBFB3
:10904C0001221A60204B1A68D2075CBF01221A60F9
:10905C001E4B1A68D0075CBF01221A601C4B1A68A1
:10906C00D1075CBF01221A601A4B1A68D2075CBF89
:10907C0001221A60184B1A68D0075CBF01221A60D3
:10908C00164B1A68D1075CBF01221A60144B1A6880
:10909C00D2075CBF01221A60124B1A68D0075CBF62
:1090AC0001221A60104B1A68D1075CBF01221A60AA
:1090BC000E4B1A68D2075CBF01221A60704700BFC2
:1090CC00ECE70320E8E70320E4E70320E0E70320D4
:1090DC00DCE70320D8E70320D4E70320D0E7032004
:1090EC00CCE70320C8E70320C4E70320C0E7032034
:1090FC000A22002100F050B90A22002100F04CB9DC
:10910C0010B5054C13462CB10A4601460220AFF3AC
:10911C00008010BD204610BD0000000010B5431E9D
:10912C000A44914204D011F8014B03F8014FF8E7BF
:10913C0010BD02440346934202D003F8011BFAE728
:10914C007047000038B5124B1C68A36B0546D3B9A9
:10915C001820FEF745FA43F20E33A06303804AF65B
:10916C00CD33438041F2342383804EF26D63C38050
:10917C004DF6EC630381052343810B23838101228C
:10918C000023C0E90423A36B00221D615A6138BD82
:10919C0008CA032010B50246134601321C78002C75
:1091AC00FAD1013B11F8012B03F8012F002AF9D158
:1091BC0010BDC9B2034610F8012B1AB19142F9D176
:1091CC001846704700290CBF18460020704710F84D
:1091DC00012B11F8013B012A28BF9A42F7D0D01A73
:1091EC007047034611F8012B03F8012B002AF9D123
:1091FC0070470000024B0146186800F003B800BF2E
:10920C0008CA032070B5064608460C4600F00DF857
:10921C00451C29463046FEF713FA064618B12A4675
:10922C002146FFF77BFF304670BD034613F8012B38
:10923C00002AFBD1181A0138704730B582B1451E8F
:10924C00013915F8013F11F8014FA34206D1EC4347
:10925C001444E04201D0002BF3D11C46181B30BD46
:10926C00104630BD10B5034642B111F8014B03F85E
:10927C00014B013A002CF7D11A4400E010BD934287
:10928C0002D003F8014BFAE710BD00002DE9F047BE
:10929C0080464048D0F800900F463D4615F8014BEB
:1092AC0009EB0400407800F0080000F0FF0608B15C
:1092BC002F46F2E72D2C03D1BD1C7C78012603E050
:1092CC002B2C04BF7C78BD1C13B1102B0AD15BE096
:1092DC00302C57D1287800F0DF0058284DD16C780D
:1092EC0010230235002E14BF4FF0004C6FF0004CD1
:1092FC000027BCFBF3FA384603FB1ACC09EB040E2F
:10930C009EF801E01EF0040F01D0303C0BE01EF083
:10931C00030E1BD0BEF1010F0CBF4FF0370E4FF0F8
:10932C00570ECEEB0404A34210DDB7F1FF3F0AD079
:10933C00504506D801D1644503DC03FB00400127EE
:10934C0001E04FF0FF3715F8014BD7E77B1C0CD130
:10935C00002E4FF0220314BF4FF000406FF000407E
:10936C00C8F800302AB9BDE8F08706B1404272B1A6
:10937C0007B1691E1160BDE8F0873024002BB1D114
:10938C000823AFE70A23ADE7302CA3D0AAE7BDE84A
:10939C00F08700BFA4C9032013460A4601460248C1
:1093AC000068FFF773BF00BF08CA03201D400D0003
:1093BC0059400D0085400D0089400D000000000053
:1093CC000000000000000000B1420D00F5420D004D
:1093DC004D410D00000000000000000095410D0003
:1093EC00B1410D00B3400D0000000000963007772E
:1093FC002C610EEEBA51099919C46D078FF46A707D
:10940C0035A563E9A395649E3288DB0EA4B8DC799C
:10941C001EE9D5E088D9D2972B4CB609BD7CB17E1C
:10942C00072DB8E7911DBF906410B71DF220B06AEC
:10943C004871B9F3DE41BE847DD4DA1AEBE4DD6DFC
:10944C0051B5D4F4C785D38356986C13C0A86B64FC
:10945C007AF962FDECC9658A4F5C0114D96C06631C
:10946C00633D0FFAF50D088DC8206E3B5E10694CFC
:10947C00E44160D5727167A2D1E4033C47D4044B3C
:10948C00FD850DD26BB50AA5FAA8B5356C98B2421C
:10949C00D6C9BBDB40F9BCACE36CD832755CDF459C
:1094AC00CF0DD6DC593DD1ABAC30D9263A00DE51CC
:1094BC008051D7C81661D0BFB5F4B42123C4B356BC
:1094CC009995BACF0FA5BDB89EB802280888055F3C
:1094DC00B2D90CC624E90BB1877C6F2F114C68589C
:1094EC00AB1D61C13D2D66B69041DC760671DB018A
:1094FC00BC20D2982A10D5EF8985B1711FB5B6065C
:10950C00A5E4BF9F33D4B8E8A2C9077834F9000F9B
:10951C008EA8099618980EE1BB0D6A7F2D3D6D083B
:10952C00976C6491015C63E6F4516B6B62616C1C2B
:10953C00D83065854E0062F2ED95066C7BA5011B5B
:10954C00C1F4088257C40FF5C6D9B06550E9B712FB
:10955C00EAB8BE8B7C88B9FCDF1DDD62492DDA15BB
:10956C00F37CD38C654CD4FB5861B24DCE51B53ADB
:10957C007400BCA3E230BBD441A5DF4AD795D83DDB
:10958C006DC4D1A4FBF4D6D36AE96943FCD96E341B
:10959C00468867ADD0B860DA732D0444E51D0333FB
:1095AC005F4C0AAAC97C0DDD3C710550AA4102270B
:1095BC0010100BBE86200CC925B56857B3856F20DB
:1095CC0009D466B99FE461CE0EF9DE5E98C9D9293B
:1095DC002298D0B0B4A8D7C7173DB359810DB42E7B
:1095EC003B5CBDB7AD6CBAC02083B8EDB6B3BF9AC7
:1095FC000CE2B6039AD2B1743947D5EAAF77D29D53
:10960C001526DB048316DC73120B63E3843B649432
:10961C003E6A6D0DA85A6A7A0BCF0EE49DFF099332
:10962C0027AE000AB19E077D44930FF0D2A30887A2
:10963C0068F2011EFEC206695D5762F7CB67658052
:10964C0071366C19E7066B6E761BD4FEE02BD38952
:10965C005A7ADA10CC4ADD676FDFB9F9F9EFBE8EB2
:10966C0043BEB717D58EB060E8A3D6D67E93D1A1F2
:10967C00C4C2D83852F2DF4FF167BBD16757BCA6D2
:10968C00DD06B53F4B36B248DA2B0DD84C1B0AAF72
:10969C00F64A0336607A0441C3EF60DF55DF67A8F2
:1096AC00EF8E6E3179BE69468CB361CB1A8366BC82
:1096BC00A0D26F2536E2685295770CCC03470BBBD2
:1096CC00B91602222F260555BE3BBAC5280BBDB2D2
:1096DC00925AB42B046AB35CA7FFD7C231CFD0B572
:1096EC008B9ED92C1DAEDE5BB0C2649B26F263EC64
:1096FC009CA36A750A936D02A906099C3F360EEB72
:10970C008567077213570005824ABF95147AB8E231
:10971C00AE2BB17B381BB60C9B8ED2920DBED5E511
:10972C00B7EFDC7C21DFDB0BD4D2D38642E2D4F161
:10973C00F8B3DD686E83DA1FCD16BE815B26B9F6F1
:10974C00E177B06F7747B718E65A0888706A0FFF51
:10975C00CA3B06665C0B0111FF9E658F69AE62F811
:10976C00D3FF6B6145CF6C1678E20AA0EED20DD711
:10977C005483044EC2B30339612667A7F71660D031
:10978C004D476949DB776E3E4A6AD1AEDC5AD6D971
:10979C00660BDF40F03BD83753AEBCA9C59EBBDE91
:1097AC007FCFB247E9FFB5301CF2BDBD8AC2BACA41
:1097BC003093B353A6A3B4240536D0BA9306D7CDB1
:1097CC002957DE54BF67D9232E7A66B3B84A61C4D1
:1097DC00021B685D942B6F2A37BE0BB4A18E0CC391
:1097EC001BDF055A8DEF022D524553504F4E5345FA
:1097FC00207C2063616C6C6261636B5F6275666672
:10980C0065723A2025732C2063616C6C6261636B0A
:10981C005F636F6D706C6574653A2025630045520B
:10982C00524F52207C2063616C6C6261636B5F628F
:10983C0075666665723A2025732C2063616C6C62C8
:10984C0061636B5F636F6D706C6574653A20257333
:10985C00005374616765206C696D69742073776956
:10986C007463682064657465637465640053746123
:10987C00676520706F736974696F6E206174207AEC
:10988C0065726F0053746167652064697374616CF1
:10989C00206C696D6974207265616368656400543D
:1098AC00656D706572617475726520636F6E74722C
:1098BC006F6C2073797374656D2073746172746549
:1098CC0064006272657669746573742D70726F646E
:1098DC00756374696F6E005075626C6973683A20B9
:1098EC006576656E74203D2025732C207575696432
:1098FC00203D2025730056616C69646174696E6744
:10990C00206361727472696467650076616C696466
:10991C006174652D63617274726964676500566168
:10992C006C69646174696F6E206661696C65642032
:10993C002D206E6F7420636F6E6E6563746564208A
:10994C00746F2074686520636C6F756400256325E3
:10995C0063255825632558256325582563255825E7
:10996C006300252E3234732563256325630025732C
:10997C002C2025642070657263656E7420636F6D96
:10998C00706C6574652C2074656D70203D202564A9
:10999C002E2564005355434345535300546573744B
:1099AC002066696E6973686564005465737420661B
:1099BC00696E697368206661696C65642100546521
:1099CC0073742063616E63656C6C656400546573BD
:1099DC00742063616E63656C206661696C656421DB
:1099EC0000746573742D63616E63656C00546573EC
:1099FC007420636F6D706C6574656400546573746A
:109A0C0020636F6D706C65746500746573742D667E
:109A1C00696E697368007265676973746572007248
:109A2C00756E5F74657374002F686F6F6B2D726544
:109A3C0073706F6E73652F6272657669746573747B
:109A4C002D70726F64756374696F6E2F002F686F61
:109A5C006F6B2D6572726F722F62726576697465A9
:109A6C0073742D70726F64756374696F6E2F0072EE
:109A7C00656769737465722D6465766963650054F6
:109A8C0075726E696E67206F6E2062757A7A657278
:109A9C0020666F72206475726174696F6E20256424
:109AAC00206174206672657175656E63792025641A
:109ABC000053656E64206572726F722C20256420D1
:109ACC0062797465732C20726573756C743A2025F9
