:02000002D0002C
:1040000000400D00CCA80D00000006000C000501CA
:084010000401DE0500000000C0
:044018001C930D00E8
:10401C0009480A49884208B505D0094A824202D0AB
:10402C00121A05F02DF80748074A0021121A05F05C
:10403C0032F8014808BD00BF68C90320F4A70D0081
:10404C0014CA032014CA0320F0E7032070B504F04F
:10405C0025FD074C074BE41AA40800251E46A54273
:10406C0004D056F8253098470135F8E770BD00BFED
:10407C00ECA70D00B4A70D0001F0C6B908B502F00D
:10408C00E1FDBDE8084004F0CBBC03F05BBA03F0E3
:10409C0061BA03F05FBA0078B0FA80F0400970475B
:1040AC000123037070477047014B01221A7070474F
:1040BC0044CB0320034B044A1B7883F001031360A9
:1040CC00704700BF7CCA032020CB0320014B012288
:1040DC001A707047D2DA032003681847012A02D0FD
:1040EC00022A02D004E0016002E00B6800B1036018
:1040FC000020704737B50C460E480F4D04F0FCFFFE
:10410C00204605F044F8204410F8013CA3F12302AA
:10411C00534253412B7004F001FC2B78074A002BBF
:10412C0014BF59234E2300930121024B04F0F1F8E4
:10413C0003B030BDFCDA032084D4032058970D0063
:10414C00436913B183690C301847704713B50021CC
:10415C000446084602F008FF02A90023204641F855
:10416C00043D02F019FF019C0CB1012323710021C5
:10417C00012002F0F9FE2CB1236820469B68984779
:10418C000023237102B010BD10B5054B002204466C
:10419C00114640F8043B03F0E7F8204610BD00BF81
:1041AC004C930D0010B50446FFF7EEFF204620217E
:1041BC0004F0E9FD204610BD37B50C460E480F4DF6
:1041CC0004F09AFF204604F0E2FF204410F8013C72
:1041DC00A3F12302534253412B7004F09FFB2B7825
:1041EC00074A002B14BF59234E2300930121024B85
:1041FC0004F08FF803B030BDFCDA032084D4032024
:10420C008B970D0010B58368044613B10322014649
:10421C009847204610BD0368C9B29B681847000038
:10422C00F0B500258E461549057185604561016024
:10423C00044692E8030085B002AF04F10C0687E84F
:10424C00030096E8030082E8030097E8030086E881
:10425C0003009168606990606161D168A069D06069
:10426C00A1618DE82800064A2346714604F1080036
:10427C0002F082FE204605B0F0BD00BF38930D0061
:10428C0059410D0007B58068002340B18DE80A0044
:10429C001A46022102F088FEB0FA80F0400903B001
:1042AC005DF804FB38B50F4B0360836804469BB183
:1042BC006FF00041FFF7E6FF0021A06802F08CFED2
:1042CC00237903F0FF0513B102F036FEF8E7294617
:1042DC00A06802F059FEA56004F10C00FFF792FFF4
:1042EC00204638BD38930D0010B50446FFF7DAFFB1
:1042FC0020461C2104F047FD204610BD73B5064630
:10430C000D4611461446FFF7BDFFB068002340B1BF
:10431C00019300952246194602F046FEB0FA80F051
:10432C00400902B070BD000040F67263984270B54F
:10433C001CDC0F4A002352F8044BA04203F1010588
:10434C000FDC116888420CDD0A4E56F8232056F813
:10435C0025309D1A031B6B43081B93FBF0F0104494
:10436C0070BD142D2B46E6D1002070BD184670BDD3
:10437C0064A30D0010A30D001FB50C2AA8BF0C22BE
:10438C00014401A8144604F01FFF04AB1C4401A80F
:10439C00002304F80C3C04F05DFE04B010BD30B5F5
:1043AC00002385B00C68055D954208BF002504F11B
:1043BC0001040DF803500C6002D001330E2BF1D127
:1043CC00684604F047FE05B030BD000010B5084C3F
:1043DC0001444FF0FF32884208D010F8013B5340A3
:1043EC00DBB254F8233083EA1222F4E7D04310BD39
:1043FC0058930D00021E30B516DB9110022329B123
:10440C00914203D0023342FA03F1F8E7023B002059
:10441C004000411C42FA03F401FB01F5A542D8BF50
:10442C000846023BF4D530BD4FF0FF3030BD0000E4
:10443C0008B504F02FFC4FF46D7203490020BDE861
:10444C00084002F0F9BD00BF86D4032008B504F083
:10445C0021FC4FF46D7203490020BDE8084002F0C6
:10446C00F3BD00BF86D4032008B504F013FCBDE8EF
:10447C00084002F0F1BD000008B5FFF7F5FF044B52
:10448C000C221A700E225A70FF229A7008BD00BFBF
:10449C0086D4032007B504F0FDFB01220DF10701C2
:1044AC00002002F0C9FD9DF80730FF2B02D1FFF769
:1044BC00E3FF07E0FFF7BCFF044B1A8840F60C63E0
:1044CC009A42F4D103B05DF804FB00BF86D40320FC
:1044DC00012870B50E461D4D1BD11D4B188804F0DC
:1044EC006DFB044640B904F019FA1A4903F0E7FED3
:1044FC00194B2C601C6016E02B68002B15DC04F0AB
:10450C000DFA164903F0DBFE134B002028601860EF
:10451C0070BD2A684AF227039A4206DD04F0FEF9C0
:10452C000F4903F0CCFE002070BD0E4C01212088F9
:10453C0004F02BFB304602F067FD0021208804F0CC
:10454C0024FB304602F060FD012070BDD4DA03205C
:10455C0098C90320C1970D0024CB0320DD970D00D3
:10456C00F4970D0094C903202DE9F84F1C4BDFF88C
:10457C007890C70F044688461888394604F005FB26
:10458C00184B84EAE4711A68A1EBE4711144192206
:10459C00002C91FBF2F64FF0000402FB16121A608D
:1045AC00B4BF6FF0180A4FF0190A1D46A346B44267
:1045BC0013DA41463846FFF78BFF58B1D9F8003073
:1045CC005344002B02DDC9F8003004E0C9F800B0F8
:1045DC00C5F800B034460134E9E7BDE8F88F00BFF8
:1045EC0074C9032024CB0320D4DA0320024B00210E
:1045FC00188804F0CABA00BFA4C9032008B5054B3B
:10460C000121188804F0C1FA0A20BDE8084002F024
:10461C00D1BF00BFA4C9032038B504460D46FFF72F
:10462C00EDFF29462046FFF79FFFBDE83840FFF716
:10463C00DDBF0000134B10B54AF228021A60044685
:10464C00FFF7DCFF96211048FFF78EFF642002F085
:10465C00B1FF96214FF4FA60FFF786FF642002F059
:10466C00A9FF4FF47A710948FFF77EFF4FF47A7176
:10467C0042F63020FFF778FF1CB1BDE81040FFF781
:10468C00B5BF10BDD4DA0320A015FFFF48F4FFFF1F
:10469C0038B5064C80F3080544F62062294620887C
:1046AC0004F0DCFA0123E560237238BD18CA03203C
:1046BC0010B5044C0021208804F0AAFA00232372C0
:1046CC00E36010BD18CA032070B5044602F0A4FCC8
:1046DC000F4D84F30804064644F6206221462888D0
:1046EC0004F0BCFA002C14BF01230023EC602B72E5
:1046FC0009D0084B1B7833B104F010F92346064A55
:10470C00012103F006FE02F087FC801B70BD00BF88
:10471C0018CA032075CB03200F980D00024B0146DD
:10472C00188804F075BA00BF68C90320024B014613
:10473C00188804F06DBA00BF78C90320024B0146FB
:10474C00188804F065BA00BF7CC903200346412BCE
:10475C00084601D1FFF7E2BF312B01D1FFF7E6BFCD
:10476C00322B01D1FFF7EABF70470000024B00214A
:10477C00188804F04DBA00BF68C90320024B002111
:10478C00188804F045BA00BF78C90320024B0021F9
:10479C00188804F03DBA00BF7CC90320412801D120
:1047AC00FFF7E4BF312801D1FFF7E8BF322801D170
:1047BC00FFF7ECBF704710B504460846FFF7AEFF95
:1047CC00204602F0F7FEBDE81040FFF7CFBF10B552
:1047DC0004460846FFF7AAFF204602F0EBFEBDE8B0
:1047EC001040FFF7CBBF10B504460846FFF7A6FFF5
:1047FC00204602F0DFFEBDE81040FFF7C7BF38B51A
:10480C000C4605460846FFF789FF2046FFF78EFF4A
:10481C002046FFF793FF284602F0CCFEFFF7A6FFD9
:10482C00FFF7ACFFBDE83840FFF7B0BF08B504F0A8
:10483C005FFA03F0DEFA88B904F05AFA084903F07B
:10484C008BFA04F055FA03F08BFA642002F0B2FEF6
:10485C0004F04EFABDE8084003F0CBBA08BD00BF27
:10486C00A086010008B504F043FABDE8084003F047
:10487C007DBA000008B5074B074800226FF00041D5
:10488C00DA61FFF73BFD04F049F80449BDE8084044
:10489C0003F015BD18CA032028CB032026980D0061
:1048AC0008B56FF000410648FFF7ECFC0020FFF75D
:1048BC000BFF04F033F80349BDE8084003F0FFBCDC
:1048CC0028CB032049980D0038B5114C00212088C5
:1048DC0004F09EF9A08804F084F9E168054620886C
:1048EC0004F096F91DB9FFF7DBFF00250EE0284612
:1048FC00FFF71AFD052200EBC003B0F5167F93FB02
:10490C00F2F303F5A0732062A362ECDC284638BDF9
:10491C0018CA03202DE9F0432F4E8BB0F56802F036
:10492C007BFBF769C7EB0009B9F57A7F8046344603
:10493C004ED3FFF7C9FFC6F81C808046002847D02D
:10494C0017B97761B76143E0336A776AB569E26A90
:10495C00FF1A4FF47A7107FB09F393FBF1F31D4433
:10496C00B5617669636BBE1B6B434E437A43216B17
:10497C00A56B92FBF1F193FBF5F56A18E56B236CD3
:10498C0096FBF9F6754395FBF3F5144B1B78154420
:10499C00EBB103F0C3FFD4F820E0636A08950796E7
:1049AC00A16906910A2293FBF2F102FB11330393E6
:1049BC009EFBF2F302FB13E2029101920093059726
:1049CC00CDF810904346064A012103F0A2FC676122
:1049DC0028460BB0BDE8F08318CA032075CB032022
:1049EC008C980D00254A2DE9F3410346044600F14D
:1049FC001801164653F8040B42F8040B8B42F9D1FC
:104A0C0000271F4D37762068616877762B4602AEFB
:104A1C0003C3192346F8043D7C22314620462F72ED
:104A2C00FFF7BDFC314668727C222046FFF7B7FCCD
:104A3C00314680467C222046FFF7B1FC3146E860C7
:104A4C007C222046FFF7ABFC0199288286B23246C5
:104A5C00214405F1120004F0B7FBAB19314605F106
:104A6C0012009F74FFF7B2FC0028B8BF4042C8EB9D
:104A7C0000035842584102B0BDE8F0815CD30320DA
:104A8C0078CB0320F0B5054695B00E4601682B484F
:104A9C0004F059FB2A4A2B49002313702A4A04A814
:104AAC00137003F0E5FC29460CA8049C03F01FFDD1
:104ABC007C2108A803F03FFD08A90CA803F063FDB6
:104ACC003146074610A803F0D3FC10A9384603F072
:104ADC005AFD1E4B026819781D4B1B780B438DF841
:104AEC00003021463C2302A802F038FF039C7CB125
:104AFC006368013B63605BB9236820469B689847F9
:104B0C00A368013BA3601BB923682046DB68984768
:104B1C0010A803F066FC08A803F063FC0CA803F0D3
:104B2C0060FC04A803F05DFC03F0F8FE00962B6813
:104B3C00084A012103F0EDFB15B0F0BDB0DA0320FB
:104B4C0084D40320F5980D00FCDA0320A0CA0320BE
:104B5C00E8CA03200A990D007FB503F0DFFE154962
:104B6C00154E164D03F0ABFB02F074FC0446B0B1CD
:104B7C000123337002F050FA114B124900F51C500E
:104B8C0010301860002368462B7003F071FC6846E7
:104B9C000D49FFF777FF684603F023FC08E003F0AC
:104BAC00BDFE0A4903F08BFB094B34702C701C7052
:104BBC0004B070BD29990D00C5CA03204CD4032044
:104BCC000CCB03203E990D00DCDA032051990D002B
:104BDC0045CB0320F8B50C4F06460024251D3D445B
:104BEC0029461822304604F0DAFA014638B928462C
:104BFC00EC2204F050FABDE8F840FFF727BCEC3487
:104C0C00B4F56C7FEAD1F8BD86D40320F0B500244E
:104C1C00084F4454851A1446A01A884204F1010026
:104C2C0007DAE65D9E4208BF00262E5501D00446E9
:104C3C00F2E7F0BDFCDA0320034BEC2202FB003060
:104C4C000021043004F027BA86D4032008B50A4B9F
:104C5C0000201870FFF7F0FF0120FFF7EDFF022096
:104C6C00FFF7EAFF0320FFF7E7FF044BFF229A70E0
:104C7C00BDE80840FFF7EABB10CB032086D4032025
:104C8C0038B5074C0749EC22054602FB00400430BE
:104C9C0004F0F6F9A570BDE83840FFF7D7BB00BFAC
:104CAC0086D403205CD3032010B588B03A230A784D
:104CBC0007930B8906932C230593CC8804940393B8
:104CCC008C8802940193044C498800912044034938
:104CDC0002F050FC08B010BD3AD8032080990D00AA
:104CEC002DE9F341154FEC26464341217C23BA199B
:104CFC008DE80A0004321249124802F03BFC0025F0
:104D0C00044606F11E08AB193B449B7F412B02D095
:104D1C00313B012B06D808EB050120463944FFF73F
:104D2C00C3FF04440A35D22DEDD1064B1C4401209F
:104D3C00002304F8013C02B0BDE8F08186D40320C6
:104D4C0095990D003AD8032010B5084B9C78FF2C90
:104D5C001ABF013404F0030400242046FFF790FF2F
:104D6C002046BDE81040FFF7BBBF00BF86D4032030
:104D7C0070B5164B1B780E4633BB154B1A18927C2C
:104D8C007C2A21D03A2A1CD00446B4F5FA6F1ADAE0
:104D9C001A19927C3A2A06D1221A01460D48FFF7BD
:104DAC00EBFA30600FE02C2A04F1010507D1221A2E
:104DBC0001460848FFF7E0FA3060284670BD2C46E3
:104DCC00E3E7013070BD204670BD00BFD1DA03208F
:104DDC0078CB03208ACB032030B50029054685B05B
:104DEC0019481A4C01D1016018E0194BDA684FF4DC
:104DFC007A7303FB02F204DA4FF0FF330260236094
:104E0C000DE00368194464230160594391FBF2F1EE
:104E1C009942A8BF19462368994200D0216003F03B
:104E2C007DFD0C4B196A0A2391FBF3F203FB121361
:104E3C000293236801920093074A2B68012103F027
:104E4C0068FA05B030BD00BFECCA032050D4032073
:104E5C0078CB032018CA0320A1990D0010B502F0DD
:104E6C00DBF80A4B1B7804461BB9FFF753FDFFF721
:104E7C002BFC074B188803F0A1FE431E58425841E7
:104E8C00044B187002F0C8F8001B10BD7CCA03203C
:104E9C0088C90320D1DA03202DE9F047DFF83CA0C4
:104EAC0005460E4690461F460024C0F100094445B5
:104EBC0012DA31462846FFF757FB0FB1FFF7CEFF4A
:104ECC0031464846FFF750FB0FB1FFF7C7FF9AF882
:104EDC0000300BB90134EAE7BDE8F087D1DA0320E2
:104EEC00F8B5114F044600254FF4FA7690FBF6F610
:104EFC00B54209DAFFF7B2FFC0F5FA7002F05AFBBF
:104F0C003B7883B90135F3E74FF4FA7294FBF2F373
:104F1C0002FB1344FFF7A2FF844204DD201ABDE814
:104F2C00F84002F047BBF8BDD1DA0320F0B51646C5
:104F3C004A1C85B007460D4602D133600C4621E071
:104F4C000A462C2103F055FB431C04460CD12A467F
:104F5C003946684603F07CFB684603F080FB306002
:104F6C00684603F03EFA0DE003462A463946684689
:104F7C0003F04EFB684603F072FB3060684603F0AA
:104F8C0030FA0134204605B0F0BD000010B5012008
:104F9C00FFF74CFC18B9BDE81040FFF763BC03F0F9
:104FAC00BDFC0F4903F08BF9002403F0A1FE214650
:104FBC0002F015FF03F09CFE0021FFF72CF903F023
:104FCC0097FE02F013FF30B903F0A8FC2346054A04
:104FDC00012103F09EF901347F2CE6D1DBE700BF01
:104FEC00C7990D00E5990D00124A134908B5002325
:104FFC001370124A0B701370114A0B721370114A12
:10500C001370114A1370114A1360114A1360114A3C
:10501C0013701376104A1370137653760F4A13706D
:10502C0082F86E3201F0F8FF0D4B00F56A406030EB
:10503C00186008BD7FCA032078CB03207DCA0320EB
:10504C004CD4032084D403207CCA0320ECCA032054
:10505C0050D40320DCDA03205CD303203AD803209D
:10506C00F0CA032010B507220D490E4804F097F83A
:10507C00044670B903F052FC0B4903F020F90B4BBA
:10508C0001201C70FFF7D6FAFFF7AEFF084B1C602F
:10509C0010BD03F043FC0749BDE8104003F00FB905
:1050AC00049A0D00F5CA03200C9A0D0074CB032052
:1050BC00F0CA03201A9A0D0010B507220D490E48AC
:1050CC0004F06DF8044670B903F028FC0B4903F0AA
:1050DC00F6F80B4B01201C70FFF7ACFAFFF784FFBE
:1050EC00084B1C6010BD03F019FC0749BDE81040CB
:1050FC0003F0E5B8049A0D00F5CA03202E9A0D00B2
:10510C001CCB0320F0CA03203D9A0D001FB5174C91
:10511C0003F004FC214603F0D2F8154B01221A705F
:10512C0001F07AFF134B00F51C501030186021462B
:10513C00684603F09DF94FF0FF316846FFF74CFECF
:10514C00684603F04EF90C49684603F091F90B4997
:10515C006846FFF797FC684603F043F9FFF746FAF9
:10516C00074B00221A7004B010BD00BF2E9A0D0020
:10517C001CCB032078CA0320519A0D005CD303206A
:10518C0045CB03201FB503F0C9FB164903F097F874
:10519C00154B01221A7001F03FFF144B144900F516
:1051AC001C5010301860684603F062F94FF0FF3164
:1051BC006846FFF711FE684603F013F90D4968467F
:1051CC0003F056F90C496846FFF75CFC684603F09F
:1051DC0008F9FFF70BFA094B00221A7005B05DF8BD
:1051EC0004FB00BF5D9A0D0074CB032008CB032099
:1051FC006C9A0D007A9A0D005CD3032045CB0320EA
:10520C0070B50E460446154603F0AEFC012E05D1D2
:10521C0029462046BDE8704003F0FABC70BD70B55D
:10522C000E460446154603F09FFC012E05D1294677
:10523C002046BDE8704003F0A8BC70BD30B500221C
:10524C008BB001215548564D02F08EF800230422F4
:10525C005449554802F0D6F8544A5549554802F07D
:10526C005DFA06A802F0FEF806A9284603F04AF9F2
:10527C0006A803F0B6F8294602A803F038F94E49FF
:10528C0002A803F08CF90024014606A803F02FF9BC
:10529C0023462246494901940094069802F0F2F8FC
:1052AC0006A803F09EF802A803F09BF8294602A872
:1052BC0003F01DF9424902A803F071F9014606A852
:1052CC0003F015F9224623463E49019400940698B2
:1052DC0002F0D8F806A803F084F802A803F081F8CD
:1052EC00394B0221188803F03FFC384B02211888F7
:1052FC0003F03AFC364B012211461888FFF78FFF5A
:10530C00344B2146188803F02FFC334B2246188867
:10531C000121FFF775FF314B224618880121FFF759
:10532C006FFF2F4B224618880121FFF769FF2D4B89
:10533C002146188803F018FC2B4B2146188803F0E3
:10534C0013FC2A4B2146188803F00EFC284B2246EE
:10535C0018880121FFF763FF264B2246188801218C
:10536C00FFF75DFF244B224618880121FFF757FFFA
:10537C00224B802218880121FFF742FF204B224646
:10538C0018880121FFF73CFF1E4B2246012118888B
:10539C00FFF736FFFFF77EF80BB030BD58D4032073
:1053AC0074D403203AD80320869A0D008F9A0D00EE
:1053BC0001690D00FD760D00989A0D00C5410D0098
:1053CC00BD9A0D0001410D0098C9032088C9032026
:1053DC009CC90320A0C9032068C9032078C90320F5
:1053EC007CC9032090C903206CC9032084C9032005
:1053FC00A4C9032094C9032074C9032080C90320C5
:10540C008CC9032070C9032008B5FFF717FF03F000
:10541C0085FA4FF4E13103F075FA034B01221A704F
:10542C00024B00221A6008BDF4CA032018CB0320DB
:10543C0030B5144B144D1A7885B01C4622B101F0CE
:10544C00EBFD2B6883421AD201F0E6FD00F5EA4031
:10545C003030286041F2883002F0ACF801F0FAFFED
:10546C0068B1012309492370684603F001F8084B21
:10547C0068461968FFF706FB684602F0B2FF05B0F4
:10548C0030BD00BF7ECA032018CB0320DF9A0D006D
:10549C0074D4032007B5009313460A46012102F089
:1054AC0038FF03B05DF804FB38B50A4B1B78054692
:1054BC000C4633B103F032FA23462A460649FFF76D
:1054CC00E9FF064B2A4621461878BDE8384003F020
:1054DC0007B900BF75CB0320EF9A0D008CC90320D0
:1054EC0073B5044603F004FC214602F074FC03F08F
:1054FC00FFFB0021FEF78FFE064603F0F9FB0021AF
:10550C0002F070FC054630B103F008FA2B46324627
:10551C001549FFF7BFFF03F0EBFB2146042202F015
:10552C0057FC03F0E5FB03685B699847044603F0FE
:10553C00DFFB03685B6998470C4B1B78054643B14E
:10554C0003F0ECF9E3B20093094AEBB2012102F04B
:10555C00E0FE6A0704D4E0B2C31E5842584100E092
:10556C00002002B070BD00BF219B0D0075CB032045
:10557C00429B0D007FB5124B1C680D46041B064662
:10558C001049684602F074FF84EAE473A3EBE473F9
:10559C006B43684646F2A81193FBF1F1FFF71CFC34
:1055AC00684602F01EFF03F0B9F92346324606495D
:1055BC00FFF770FF29462046FEF7D6FF04B070BDFA
:1055CC00D4DA0320589B0D00739B0D00962144F2F6
:1055DC005060FFF7CFBF962142F63020FFF7CABFCD
:1055EC000A46012102F095BE13460A46012102F03B
:1055FC0090BE00002DE9F347444C237806468846BC
:10560C0015462BB103F08AF932464149FFF7ECFFFE
:10561C0003F06EFB294602F0E2FB03F069FB00216C
:10562C00FEF7F9FD824603F063FB0221FEF7F3FD62
:10563C00074603F05DFB012102F0D4FB814650B11B
:10564C00574403F06BF9CDF8049000973346314A78
:10565C00012102F05EFE03F04BFB294602F0BFFB7A
:10566C0003F046FB0621FEF7D6FD824603F040FB15
:10567C0003685FFA88F19B689847074603F038FB8C
:10568C00012102F0AFFB814650B1574403F046F9BB
:10569C00CDF80490009733461E4A012102F039FEE2
:1056AC0003F026FB294602F09AFB03F021FB0621AE
:1056BC00FEF7B1FD074603F01BFB002102F092FB45
:1056CC00064630B103F02AF933463A461249FFF741
:1056DC00E1FE03F00DFBE9B2012202F079FB054675
:1056EC0003F006FB03685B699847237806464BB1C9
:1056FC0003F014F90196CDF800802B46074A0121DE
:10570C0002F007FE02B0BDE8F08700BF75CB0320A6
:10571C009E9B0D00BC9B0D00219B0D00E39B0D007F
:10572C002DE9F7435A4D5B4EDFF89C81DFF87491FD
:10573C0001232B7003F0F2F8574902F0C0FD03F07F
:10574C004BF84FF4165103F03DF803F0E7F85349CA
:10575C0002F0B5FD0021308803F017FA01F05CFC73
:10576C0000F59C5403F0DAF84D4902F0A8FD08341A
:10577C00B8F8000003F022FA074603F0CFF82E2108
:10578C0002F08EFD01F048FCC9F8000001F04AFE61
:10579C00C82001F00FFF012F424F03D001F03CFC59
:1057AC00A042E5D303F0BAF8804603F015F803687D
:1057BC001B699847002814BF59224E223A4940468B
:1057CC00FFF712FF0121308803F0DFF903F0A6F890
:1057DC00364902F074FD02F0FFFF03681B6998471D
:1057EC0048B901F019FC844205D901F015FC386068
:1057FC0001F018FEEFE7642001F0DCFE03F08EF8F8
:10580C002B492C4E02F05BFD002403F087F82E216F
:10581C0002F046FD02F0E0FF03685B699847431C09
:10582C001CBF3055013402F0D7FF03681B69984741
:10583C0008B1172CE9DD03F071F802F034FD172CD8
:10584C001C4A0CDC1C4B114603F1180053F8046B7A
:10585C0041F8046B8342F9D1184B002119700026D2
:10586C00167603F05BF8134B154A0094012102F0F5
:10587C0050FD02F0B1FF02F0A8FF03F04FF8114900
:10588C00FFF7AEFE20462E7003B0BDE8F08300BFDC
:10589C0046CB03209CC90320069C0D00199C0D00CF
:1058AC00309C0D0018E70320419C0D006A9C0D00F4
:1058BC00CB9C0D00DCDA0320809C0D0045CB032033
:1058CC00999C0D00B19C0D00A0C9032070B58EB041
:1058DC000025014606460AA807950895099502F089
:1058EC0006FE2B4606AA29460AA8FFF71FFB04460C
:1058FC000AA802F076FD069B013B202B00F2518298
:10590C00DFE813F0210024002800570063008E000C
:10591C009300AE00B300D500F600180139015B010D
:10592C007E0183019D01A201B301B601B901D00131
:10593C00D4014F024F024F02D701DA010F021602B7
:10594C004F024F021A02FFF781F92AE20120FEF7FB
:10595C0071FE23E231460AA802F0C9FD002307AA12
:10596C0021460AA8FFF7E2FA04460AA802F039FD1C
:10597C0031460AA802F0BBFD4FF47A7308AA2146FF
:10598C000AA8FFF7D3FA0AA802F02BFD089907988A
:10599C00BA4CFEF741FE02F0C1FFB94BB94A1B6885
:1059AC000193236800930121079B02F0B2FC246849
:1059BC00F8E1FEF775FFFEF721FEFFF707FEFEF795
:1059CC0015FEB14B00225A7603E0FEF769FFAE4B91
:1059DC005D7631460AA802F08AFD07AAB623214655
:1059EC000AA8FFF7A3FA04460AA802F0FAFC31460B
:1059FC000AA802F07CFD08AA2146FF230AA8FFF79B
:105A0C0095FA0AA802F0EDFCA04B079C1C60A04B79
:105A1C00089A1A609F4B01221A70FEF72BFFC1E106
:105A2C00FEF722FD02F034FE80E131460AA802F0B6
:105A3C005EFD07AA21464FF4B9730AA8FFF776FA60
:105A4C000AA802F0CEFC02F069FF934B196A0A23F4
:105A5C0091FBF3F203FB12139049FFF71BFD24E0BB
:105A6C00FEF70AFD8E4B5C789CE131460AA802F0E9
:105A7C003EFD4FF4FA7307AA21460AA8FFF756FA1F
:105A8C0004460AA802F0ADFC31460AA802F02FFD2C
:105A9C002146FF2308AA0AA8FFF748FA0AA802F031
:105AAC00A0FC08990798FEF786FE079C7AE1314620
:105ABC000AA802F01CFD07AA4FF4FA7321460AA8A3
:105ACC00FFF734FA04460AA802F08BFC31460AA808
:105ADC0002F00DFD2146FF2308AA0AA8FFF726FABB
:105AEC000AA802F07EFC08990798FEF770FE1FE0EA
:105AFC0031460AA802F0FBFC4FF4FA7307AA2146C0
:105B0C000AA8FFF713FA04460AA802F06AFC314609
:105B1C000AA802F0ECFC2146FF2308AA0AA8FFF70A
:105B2C0005FA0AA802F05DFC08990798FEF75BFEDF
:105B3C00089C37E131460AA802F0D9FC07AA4FF4B9
:105B4C00FA7321460AA8FFF7F1F904460AA802F0F5
:105B5C0048FC31460AA802F0CAFC2146FF2308AAD9
:105B6C000AA8FFF7E3F90AA802F03BFC089907988A
:105B7C00FEF745FEDCE731460AA802F0B8FC07AA9E
:105B8C004FF4167321460AA8FFF7D0F904460AA869
:105B9C0002F027FC31460AA802F0A9FC21464FF47A
:105BAC007A7308AA0AA8FFF7C1F90AA802F019FC2F
:105BBC0008990798FFF778FC77E731460AA802F0B6
:105BCC0096FC07AA002321460AA8FFF7AFF9044662
:105BDC000AA802F006FC31460AA802F088FC21460D
:105BEC004FF47A7308AA0AA8FFF7A0F90AA802F0E2
:105BFC00F8FBFEF703FD08990798FFF7BBFCCBE019
:105C0C00FEF7FCFCFFF7E7FCC6E031460AA802F001
:105C1C006EFC4FF4B97307AA21460AA8FFF786F960
:105C2C000AA802F0DEFB079C40F25623621E9A4241
:105C3C0000F2B880184B00225C62DA61B2E0FEF729
:105C4C00DDFCFFF7C3FCA7E031460AA802F04FFCCD
:105C5C00802307AA21460AA8FFF768F90AA802F0D0
:105C6C00C0FB0798FEF714FD1FE7FEF721FD5DE072
:105C7C00FEF700FE5AE0FEF713FE57E0D4DA0320DD
:105C8C0024CB0320E89C0D005CD30320ACDA03206A
:105C9C0048D4032044CB032018CA0320179D0D00C1
:105CAC0086D40320494B01241C707BE0474B1D70AC
:105CBC0077E0FFF76BF939E0FEF7A0FCFFF786FC05
:105CCC00FEF794FC31460AA802F011FC07AAB62391
:105CDC0021460AA8FFF72AF904460AA802F081FB1C
:105CEC0031460AA802F003FC08AA2146FF230AA8A1
:105CFC00FFF71CF90AA802F074FB344B07993448DF
:105D0C0000221A70334B5A76334B1960334B089977
:105D1C001960334B01246FF000411C70FEF7EEFA52
:105D2C0040E06FF000412A48FEF7ACFA012439E05C
:105D3C00FFF7F6FC044635E031460AA802F0D7FB23
:105D4C00192307AA21460AA8FFF7F0F804460AA867
:105D5C0002F047FB31460AA802F0C9FB962308AAB9
:105D6C0021460AA8FFF7E2F804460AA802F039FB1C
:105D7C0031460AA802F0BBFB0A2309AA21460AA84D
:105D8C00FFF7D4F80AA802F02CFBFEF737FC07A8A3
:105D9C00002307C8FFF780F8FEF728FC114B1C689E
:105DAC0000E0002402F0BAFD002305930493099B44
:105DBC000393089B0293079B01930094069B0A4A4A
:105DCC00012102F0A6FA20460EB070BD75CB03205F
:105DDC005CCA03205CD30320ACDA032048D4032034
:105DEC0044CB0320D4DA03202C9D0D0010B5154BA9
:105DFC00188802F0E3FE144B021E0CBF0121002197
:105E0C0019701C460CD10121104801F0ADFA4FF469
:105E1C00C8710846FFF748FB0D4B01221A7005E0CC
:105E2C004FF496714FF4C870FFF73EFB02F076FD0D
:105E3C0023780849002B14BF59224E22FFF7D4FBBC
:105E4C0010BD00BF88C9032045CB032058D40320C4
:105E5C00C4CA0320769D0D0010B51B4B1A7892B165
:105E6C001A4C227852B1002222701A7002F056FDA0
:105E7C00174902F024FAFFF7B9FF04E0322001F0D1
:105E8C0099FB01232370134B1C785CB101F0C4F80F
:105E9C00114B1B68984216D902F040FD0F4902F0D5
:105EAC000EFA0AE00E4B1A786AB11C700D4B1B7877
:105EBC004BB1FFF735FC182803D1BDE81040FEF7B5
:105ECC004BBE094B1C7010BDD2DA0320E9CA03206B
:105EDC008C9D0D00C5CA03200CCB0320A49D0D0086
:105EEC00C4CA032045CB03204CD4032013460A46D6
:105EFC00002102F00EBA00002DE9F34705461746C3
:105F0C0098460E4602F0F4FE294601F064FF02F0BA
:105F1C00EFFE0021FEF77FF9824602F0E9FE8321B5
:105F2C00FEF779F9044602F0E3FE012101F05AFF75
:105F3C00814660B1544402F0F1FCCDF80490009419
:105F4C002B46754A012102F0E4F90020E0E001F053
:105F5C0063F800F59C5909F108092846FFF7C0FAC7
:105F6C0070B901F059F8484503D2642001F022FBC6
:105F7C00F3E702F0D3FC2A466849FFF735FBE4E768
:105F8C00674C23782BB102F0C9FC2A466549FFF710
:105F9C002BFB02F0ADFE294601F01DFF02F0A8FE1E
:105FAC000021FEF738F9824602F0A2FE002101F032
:105FBC0019FF814630B102F0B1FC4B4652465A49AA
:105FCC00FFF768FA02F094FE29460A2201F000FF5E
:105FDC0002F08EFE03685B699847054602F088FE66
:105FEC0003685B699847237881464BB1EDB202F0A8
:105FFC0095FC00955FFA89F34C4A012102F089F96E
:10600C0002F076FE03685B6998472378C5B22BB122
:10601C0002F084FC2A464649FFF768FF02F068FE4E
:10602C0003685B6998472378814633B102F076FCAC
:10603C005FFA89F23E49FFF759FF4FEA092909F443
:10604C007F4914234D4495FBF3F50A9B433D1D807A
:10605C0002F04EFE03685B6998472378C5B22BB1FA
:10606C0002F05CFC2A463249FFF740FF02F040FE8A
:10607C0003685B69984723785FFA80F92BB102F0CB
:10608C004DFC4A462A49FFF731FF05EB09253580BF
:10609C0002F02EFE03685B6998472378C5B22BB1DA
:1060AC0002F03CFC2A462249FFF720FF02F020FEBA
:1060BC0003685B6998472378C6B22BB102F02EFCBB
:1060CC0032461B49FFF712FF05EB06253D8002F017
:1060DC000FFE03685B6998472378C5B22BB102F0B9
:1060EC001DFC2A461249FFF701FF02F001FE03686E
:1060FC005B6998472378C6B22BB102F00FFC32468D
:10610C000B49FFF771FA05EB0625A8F800500120A2
:10611C0002B0BDE8F08700BFE99D0D00499E0D005F
:10612C0075CB0320199E0D00219B0D00429B0D0089
:10613C00459E0D002DE9F04F8DB041280746089182
:10614C0014460AD031280BD032280CD002F0E6FBD2
:10615C003A464D49FFF748FA93E04FF0740A04E0D1
:10616C004FF0750A01E04FF0760A484E737E152504
:10617C00B3FBF5F005FB103501337376444B01226C
:10618C001A70FEF795FA21463846FEF7DFFAEDB2A3
:10619C0064200A2401F00EFA04FB056452460899A7
:1061AC0038464FF00009FFF725FA0523A776E3766A
:1061BC00C8464E464D46CB46E27E934504F11B0342
:1061CC0020DA0AAB00930BAA0DF12E030DF12A0174
:1061DC005046FFF791FE60B1BDF82A301D44BDF862
:1061EC002C301E44BDF82E309844BDF8283099440C
:1061FC0005E002F093FB3A462649FFF7F5F90BF15F
:10620C00010BD9E796FBF2F6E683B6B295FBF2F5F5
:10621C007643A583ADB298FBF2F005FB05652084AF
:10622C0080B299FBF2F900FB0050A4F8229009937C
:10623C00FEF7E0F80546ADB202F070FB0795228C34
:10624C000692E28B0592A28B04921FFA89F909EB54
:10625C00C909052299FBF2F2203292B20392628CA8
:10626C00099B02921B780193089B00930A4A3B46B8
:10627C00012102F04EF8064B002238461A70FEF748
:10628C008DFA0DB0BDE8F08F649E0D005CD3032039
:10629C007CCA0320809E0D00A79E0D002DE9F041C5
:1062AC0005460E46144600F0B7FE07460120FEF7E1
:1062BC00BDFAE0B1324629464120FFF73BFF0CB155
:1062CC00FEF7CCFD324629463120FFF733FF0CB1E7
:1062DC00FEF7C4FD324629463220FFF72BFF0CB1E6
:1062EC00FEF7BCFD02F01AFB01F0DDFF04E002F04A
:1062FC0015FB0B4901F0E3FFFEF7B4FA094B1B78D1
:10630C0063B102F00BFB044600F086FE064AC31B89
:10631C0001212046BDE8F04101F0FBBFBDE8F08152
:10632C00E69E0D0075CB0320199F0D00F0B5924B26
:10633C001D7889B00C461E46002D40F01A810428A9
:10634C0000F0C38043DC012800F0898011DC0028B8
:10635C0040F00B81894904A802F08AF841F270716F
:10636C0004A8FEF739FD04A802F03BF84FF47A704C
:10637C0086E0022800F08780032840F0F68001A90F
:10638C002046FEF7F5FC02A9FEF7F2FC03A9FEF786
:10639C00EFFC7B49044604A802F06AF8019B83EAEF
:1063AC00E371A1EBE371029B5943039B04A84B439C
:1063BC0046F2A81193FBF1F1FEF70EFD04A802F0D2
:1063CC0010F801A8012307C8FEF766FDCDE01428DC
:1063DC0000F0AC8037DC0A2800F08F800B2840F0EE
:1063EC00C48001A92046FEF7C3FC02A9FEF7C0FC3D
:1063FC006449044604A802F03BF8634B1968A1F504
:10640C008C4150390029B8BF49429623594304A8FE
:10641C0046F2A81391FBF3F1FEF7DEFC04A801F0A1
:10642C00E0FFFFF7D3F8594904A802F021F841F234
:10643C00707104A8FEF7D0FC04A801F0D2FF2A4624
:10644C00029901986FE0152800F08880632840F0CD
:10645C008C8002F063FA4E4901F031FF87E001A90C
:10646C002046FEF785FC4B49044604A802F000F8D0
:10647C00019904A8FEF7B0FC04A801F0B2FF019842
:10648C00FEF72EFD73E001A92046FEF771FC02A970
:10649C00FEF76EFC4049044604A801F0E9FF019B9D
:1064AC0083EAE371A1EBE371029B04A84B4346F230
:1064BC00A81193FBF1F1FEF78FFC04A801F091FFFA
:1064CC0002990198FEF750F84FE001A92046FEF71B
:1064DC004FFC02A9FEF74CFC3049044604A801F01D
:1064EC00C7FF019904A8FEF777FC04A801F079FF17
:1064FC0002990198FEF7D8FF37E002F00FFA28490D
:10650C00FFF76EF8FFF762F8204904A801F0B0FF1E
:10651C0041F2707104A8FEF75FFC04A801F061FF62
:10652C002A46FF21B620FFF7B9FE20E001A920463C
:10653C00FEF71EFC044602F0F1F9019B194A0121F9
:10654C0001F0E7FE671C019BAB4210DD337873B999
:10655C00384600F02BF801350446F4E702F0DEF97A
:10656C00114901F0ACFE604204E0FEF777FC601CC0
:10657C0000E0084609B0F0BDD1DA03202A9F0D00D7
:10658C00429F0D00829F0D00D4DA03207A9F0D00EC
:10659C00B39F0D00339F0D003B9F0D004E9F0D00D0
:1065AC00569F0D008C9F0D00A59F0D0030B585B03A
:1065BC0003A90546FEF7DCFB014665B9039B53B105
:1065CC00184B01221A7002F0A9F9174901F077FE55
:1065DC004FF0FF3023E00398FFF7A8FE044602F0CB
:1065EC009DF9039B019300942B46104A0D4D0121FC
:1065FC0001F08FFE039B632B0DD0002C0BDD2B7851
:10660C004BB903A92046FEF7B3FB01460398FFF7ED
:10661C008DFE0446EEE784EAE470A0EBE47005B06E
:10662C0030BD00BFD1DA0320BF9F0D00D79F0D00F6
:10663C001FB52B4B2B49012268461A7001F018FF2D
:10664C0068460021FEF7C8FB684601F0CAFE00F060
:10665C00F9FE4FF4FA6000F0ADFF00F0FBFE0446CB
:10666C0028B102F05BF9204901F029FEEFE7FDF7B4
:10667C00E1FF4FF416714FF47A70FEF715FF40F2FC
:10668C00DC5000F097FFFEF70BF92146204600F096
:10669C006BFC2046FFF78AFF2146012000F064FCCA
:1066AC00FEF752FBFEF7E6F800F0C4FE4FF4FA607A
:1066BC0000F080FF00F0CEFE28B902F02FF90B4954
:1066CC0001F0FDFDF0E70A4B0A4A1B780A4883F0FB
:1066DC00010313700121002200F046FE04B010BD2E
:1066EC007FCA0320FB9F0D0008A00D000AA00D001F
:1066FC00D1DA0320C6CA0320A8CA032013460A46CF
:10670C00012101F006BE000007B502F007F92F4980
:10671C0001F0D5FDFEF73AFC02F000F92C4901F02E
:10672C00CEFD0120FDF786FF02F0F8F8294901F0B3
:10673C00C6FDFF214FF4FA70FEF73DF84FF4FA70E6
:10674C0000F038FFFF214FF4FA70FEF740F84FF4D9
:10675C00FA7000F02FFFFF214FF4FA70FEF743F8A8
:10676C0002F0DCF81C4901F0AAFD4FF4A571FA20E7
:10677C00FEF79AFEFEF738FCFFF738FB174B18496B
:10678C001888002200924FF0FF3301F037FB02F023
:10679C00C5F8144B14491A68FFF7B0FF02F0BEF8A5
:1067AC00124A917813780191527800920121104A83
:1067BC0001F0AFFDFEF75EF800F02EFC0D4B00F57E
:1067CC009C500830186003B05DF804FB0CA00D0061
:1067DC0032A00D0042A00D004E9F0D0088C9032071
:1067EC00D9400D0074D4032052A00D0086D4032090
:1067FC0060A00D00F8DA032010B502F08FF80F49F5
:10680C00FEF7EEFE0E4B0F490F4800221A700722BE
:10681C0002F0C5FC044650B902F080F80B49FEF7B3
:10682C00DFFE0B4B1C70BDE81040FFF76DBF02F094
:10683C0075F80849FEF7D4FE10BD00BFB9A00D00D5
:10684C007ECA0320049A0D00F5CA0320D6A00D00C1
:10685C00F4CA0320FFA00D0030B5144B85B0012203
:10686C000C461A70054600F0D7FB114B00F59C4006
:10687C002030186002F052F822460E49FFF73EFF16
:10688C002846FEF72DFA02F049F80B4901F017FDE6
:10689C000A49684601F0ECFD21466846FEF7F2F81D
:1068AC00684601F09EFD05B030BD00BF10CB032043
:1068BC00D8DA032030A10D003AD803204EA10D00E8
:1068CC0010B502F02BF8094901F0F9FC084B002037
:1068DC00EC2202FB00310C7924B10431BDE81040EC
:1068EC00FFF7BABF01300428F3D110BD5AA10D0037
:1068FC0086D4032010B58368182B11D10A4C1922A9
:10690C002146002301F05DFE0023237602F006F8F9
:10691C0022460649FFF7F2FEFEF71EF9012010BDD4
:10692C004FF0FF3010BD00BFDCDA032079A10D0061
:10693C0070B500F071FB124B1A6882421D461AD8D2
:10694C00104A0023EC2101FB032634794CB10E4B89
:10695C001C7894B101F0E2FF321D0C49FFF7CEFE1A
:10696C000CE00133042BEED100F056FB00F56A402D
:10697C006030286002E0002400E00124204670BD55
:10698C00F0CA032086D4032075CB032097A10D00F9
:10699C0038B51E4B1A78D2B11D4C257855B101F083
:1069AC00BDFF1C4901F08BFC00232370BDE838406F
:1069BC00FEF7ACBB184C23783BB301F0AFFF174983
:1069CC0001F07DFC2570BDE83840FEF7DBBB144BB5
:1069DC00197821B11A70BDE83840FFF729BE114B68
:1069EC001B785BB100F018FB0F4B1B6898420CD95D
:1069FC0001F094FF0D4901F062FC02E0FFF798FFF3
:106A0C0018B1BDE83840FFF75BBF38BD7FCA032023
:106A1C00D1DA0320B3A10D00C6CA0320C3A10D0017
:106A2C00F5DA032010CB0320D8DA0320D2A10D0015
:106A3C0038B507220D490E4802F0B1FB054668B97E
:106A4C000C4C01F06BFF22680B49FFF757FE0B4B08
:106A5C0020681D70BDE83840FEF7BCB801F05EFF41
:106A6C000749BDE8384001F02ABC00BF049A0D006C
:106A7C00F5CA032070CB0320EEA10D0010CB032030
:106A8C0026A20D001C4B1D491D48002270B51A7022
:106A9C00072202F084FB1B4C1B4DB0FA80F040091E
:106AAC00207001F03BFF23781849002B14BF5922AA
:106ABC004E22FEF799FD2678AEB12868FDF792FFBD
:106ACC00064648B1124B01221A7001F027FF2A68C2
:106ADC001049FFF713FE70BD01F020FF0E4901F0C5
:106AEC00EEFB267005E001F019FF2A680B49FFF751
:106AFC0005FE0B4B1E7070BDC5CA0320049A0D0019
:106B0C00F5CA03204CD4032070CB03203AA20D000D
:106B1C00F5DA032052A20D007EA20D009AA20D0000
:106B2C0045CB032030B53A4B3A4800221A7085B059
:106B3C007C232021FEF76AF87C230246102136487C
:106B4C00FEF764F8354A364B111819601C4640F6AE
:106B5C00C313984208DC115C232903D12F4B00226C
:106B6C001A5401E00130F4E701F0D8FE05462B4839
:106B7C0002F00DFB23680293264C274B0193012155
:106B8C0003460094274A284601F0C3FB26492046B9
:106B9C0002F0CFFA40B101F0C1FE0094224B234A1F
:106BAC00012101F0B6FB31E02149204602F0C1FA87
:106BBC0020B905B0BDE83040FFF71EBE1D49204688
:106BCC0002F0B7FA20B905B0BDE83040FFF75ABF64
:106BDC001949204602F0ADFA20B905B0BDE83040A5
:106BEC00FEF740BA1549204602F0A3FA20B905B0C9
:106BFC00BDE83040FEF760BA1149204602F099FA20
:106C0C0020B905B0BDE83040FFF712BF05B030BD6C
:106C1C0084D40320C7CA0320F5CA0320FCDA03205E
:106C2C0070CB0320B0A20D00B0DA0320E5A20D005A
:106C3C00DF9A0D003E990D007A9A0D00519A0D00C5
:106C4C004EA10D007FB53A4E3A4C01F067FE036839
:106C5C001B69984740B301F061FE03685B69984774
:106C6C002368F05401F05AFE03681B6998472368A7
:106C7C00054638B10133282193FBF1F201FB1233A5
:106C8C002360E2E7F05401F049FE294901F017FBBB
:106C9C0027492560684601F0EBFB6846FEF716FEB7
:106CAC00684601F09EFBD0E7234B1B7813B1FFF72E
:106CBC0039FF3BE0214B1C7814B1FEF7B9FB0EE019
:106CCC00FFF7CAF8FFF764FE1D4B1A783AB11C7037
:106CDC001C4B19681C4B22461868FFF7DFFA1B4B3C
:106CEC001A682AB100221A60FDF714FEFDF7ECFCBD
:106CFC00174B1C781CB100220121164814E0164BCE
:106D0C00164D1B6AB3F5B47F06DA00F085F900F571
:106D1C009C500830286009E000F07EF92B689842FE
:106D2C0004D90F482246012100F01EFB04B070BDAF
:106D3C0047CB0320C0E4032084D40320F4CA0320EF
:106D4C0044CB032048D40320ACDA032020CB03200F
:106D5C0045CB032058D4032018CA032014CB03209E
:106D6C00A8CA03202DE9F0435A4B5B4F5B4EDFF86A
:106D7C00B09101241C705A4B87B002251D7000F095
:106D8C0073F9282300932B46564D019422464FF459
:106D9C007F01384601F0D2F832462946384601F0D8
:106DAC00EDFF00221421204600F010FB4E4F019401
:106DBC004FF01E080346CDF8008022464FF47F01A9
:106DCC00384601F0BBF832462946384601F0D6FF6A
:106DDC0000221421204600F0F9FA444FCDF800802F
:106DEC000346224601944FF47F41384601F0A6F841
:106DFC003246294638463E4D3E4FDFF8288101F099
:106E0C00BDFF3D4B029302AA002341F28831284674
:106E1C000497CDF81490FDF703FA02A8FDF7F2F9E8
:106E2C0032464146284601F0A9FF344A344B1268D9
:106E3C001A60344A049712685A604FF448721A6107
:106E4C004FF4B97200254FF47A715A622E4F996340
:106E5C006422DD601D725D619D61DA621C635C639E
:106E6C00DC631C64294B029302AA2B463846CDF8EE
:106E7C001490FDF7D5F902A8FDF7C4F93846244F54
:106E8C003246414601F07AFF2249384601F0F0FAC9
:106E9C0032462149384601F071FF204B0E225A70C0
:106EAC002946FF220C2620461E709A7000F076FAB6
:106EBC0001F020FE2B462A4642F6A23101F022FEBA
:106ECC0001F018FE2B462A46314601F023FE07B08E
:106EDC00BDE8F083E8CA032080CA032014CA03204B
:106EEC00A0CA032095410D0054D40320A4CA03204A
:106EFC005CCA0320E9400D00B5400D0070C90320A9
:106F0C0018CA032090C9032028CB0320C1400D00D0
:106F1C0074D40320E0A40D00EF830D0086D403206D
:106F2C00E5400D00B1420D0008B5024B1B689B6893
:106F3C00019308BD4802030008B5024B1B68DB68CF
:106F4C00019308BD4802030008B5024B1B681B697E
:106F5C00019308BD4802030008B5024B1B685B692E
:106F6C00019308BD4802030008B5024B1B68DB699E
:106F7C00019308BD4802030008B5024B1B681B6A4D
:106F8C00019308BD4802030008B5024B1B685B6AFD
:106F9C00019308BD4802030008B5024B1B689B6AAD
:106FAC00019308BD4802030008B5024B1B68DB6A5D
:106FBC00019308BD4802030008B5024B1B685B6CCB
:106FCC00019308BD4802030008B5024B1B689B6C7B
:106FDC00019308BD4802030008B5024B1B681B6FE8
:106FEC00019308BD4802030008B5024B1B689B6E59
:106FFC00019308BD3402030008B5024B1B685B68A3
:10700C00019308BD1802030008B5024B1B68DB682E
:10701C00019308BD1802030008B5024B1B685B699D
:10702C00019308BD1802030008B5024B1B689B6A4C
:10703C00019308BD1802030008B5024B1B685B6C7A
:10704C00019308BD1802030008B5024B1B689B6C2A
:10705C00019308BD1802030008B5024B1B68DB6CDA
:10706C00019308BD1802030008B5024B1B681B688E
:10707C00019308BD2C02030008B5024B1B685B682A
:10708C00019308BD2C02030008B5024B1B689B68DA
:10709C00019308BD2C02030008B5024B1B68DB688A
:1070AC00019308BD2C02030008B5024B1B681B6939
:1070BC00019308BD2C02030008B5024B1B685B69E9
:1070CC00019308BD2C02030008B5024B1B689B6999
:1070DC00019308BD2C02030008B5024B1B68DB6949
:1070EC00019308BD2C02030008B5024B1B689B6A78
:1070FC00019308BD2C02030008B5024B1B681B6BE7
:10710C00019308BD2C02030008B5024B1B689B6F52
:10711C00019308BD2C02030008B5024B1B68DB6F02
:10712C00019308BD2C02030008B5024B1B681B68B9
:10713C00019308BD2802030008B5024B1B68DB68ED
:10714C00019308BD2802030008B5024B1B681B699C
:10715C00019308BD2802030008B5024B1B689B690C
:10716C00019308BD2802030008B5024B1B68DB69BC
:10717C00019308BD2802030008B5024B1B681B6A6B
:10718C00019308BD2802030008B5024B1B685B6A1B
:10719C00019308BD2802030008B5024B1B689B6ACB
:1071AC00019308BD2802030008B5024B1B68DB6A7B
:1071BC00019308BD2802030008B5024B1B681B6B2A
:1071CC00019308BD2802030008B5024B1B685B6BDA
:1071DC00019308BD2802030008B5024B1B681B6C09
:1071EC00019308BD2802030008B5024B1B681B6DF8
:1071FC00019308BD2802030008B5024B1B685B69AC
:10720C00019308BD6402030008B5024B1B689B6820
:10721C00019308BD6802030008B5024B1B68DB68CC
:10722C00019308BD6802030008B5024B1B681B687C
:10723C00019308BD2402030008B5024B1B68DB69EF
:10724C00019308BD3002030008B5024B1B681B6A92
:10725C00019308BD3002030008B5024B1B681B6884
:10726C00019308BD3C02030008B5024B1B689B68E8
:10727C00019308BD3C02030008B5024B1B68DB6898
:10728C00019308BD3C02030008B5024B1B681B6947
:10729C00019308BD3C02030008B5024B1B685B69F7
:1072AC00019308BD3C02030008B5024B1B689B69A7
:1072BC00019308BD3C02030008B5024B1B68DB6957
:1072CC00019308BD3C02030008B5024B1B681B6A06
:1072DC00019308BD3C02030008B5024B1B689B6A76
:1072EC00019308BD3C02030008B5024B1B68DB6A26
:1072FC00019308BD3C02030008B5024B1B681B68D8
:10730C00019308BD4C02030008B5024B1B685B6877
:10731C00019308BD4C02030008B5024B1B681B69A6
:10732C00019308BD4C02030008B5024B1B685B6956
:10733C00019308BD4C02030008B5024B1B689B6906
:10734C00019308BD4C02030008B5024B1B68DB69B6
:10735C00019308BD4C02030008B5024B1B681B6A65
:10736C00019308BD4C02030008B5034B1B68D3F80E
:10737C008030019308BD00006002030008B5024B89
:10738C001B685B68019308BD2002030008B5024B23
:10739C001B685B69019308BD2002030008B5024B12
:1073AC001B68DB6A019308BD2002030008B5024B81
:1073BC001B68DB6C019308BD2002030008B5024B6F
:1073CC001B685B6D019308BD2002030008B5024BDE
:1073DC001B68DB6F019308BD2002030008B5034B4B
:1073EC001B68D3F88830019308BD0000200203000D
:1073FC0008B5034B1B68D3F89430019308BD00000B
:10740C002002030008B5024B1B681B68019308BDE2
:10741C004402030008B5024B1B685B68019308BD6E
:10742C004402030008B5024B1B689B68019308BD1E
:10743C004402030008B5024B1B68DB68019308BDCE
:10744C004402030008B5024B1B681B69019308BD7D
:10745C004402030008B5024B1B685B69019308BD2D
:10746C004402030008B5024B1B68DB69019308BD9D
:10747C004402030008B5024B1B681B6A019308BD4C
:10748C004402030008B5024B1B685B6A019308BDFC
:10749C004402030008B5024B1B68DB6B019308BD6B
:1074AC004402030008B5024B1B685B68019308BDDE
:1074BC004002030008B5024B1B689B68019308BD92
:1074CC004002030008B5024B1B68DB68019308BD42
:1074DC004002030008B5024B1B681B69019308BDF1
:1074EC004002030008B5024B1B685B69019308BDA1
:1074FC004002030008B5024B1B689B69019308BD51
:10750C004002030008B5024B1B68DB69019308BD00
:10751C004002030008B5024B1B681B6A019308BDAF
:10752C004002030008B5024B1B681B6B019308BD9E
:10753C004002030008B5024B1B685B6B019308BD4E
:10754C004002030008B5024B1B681B68019308BD81
:10755C001C02030008B5024B1B685B68019308BD55
:10756C001C02030008B5024B1B689B68019308BD05
:10757C001C02030008B5024B1B68DB68019308BDB5
:10758C001C02030008B5024B1B685B6A019308BD23
:10759C001C02030008B5024B1B68DB6A019308BD93
:1075AC001C02030008B5024B1B681B6B019308BD42
:1075BC001C0203000021FFF7E9BE10B583680446E6
:1075CC000BB901F0FCFBC3689847A3681BB10322FD
:1075DC0021462046984720461021BDE8104001F076
:1075EC00D2BB10B50446006808B1FFF7EDFC20468D
:1075FC0010BD10B5036804469B689847A368013B0F
:10760C00A3602BB923682046DB68BDE810401847FF
:10761C0010BD0B68036013B15A6801325A60704791
:10762C0010B50446006828B14368013B43600BB9B0
:10763C00FFF7DFFF204610BD10B5064C0023204697
:10764C002360FFF7B9FC2046034A0449BDE810400B
:10765C0001F094BBC4E4032014CA0320EF750D00A1
:10766C0070470020704710B51021044601F08BFBC9
:10767C00204610BD08B508B1FFF7F5FF08BD002284
:10768C00026010B54FF69C728280B1F90440848080
:10769C008A8002680C6804600A6010BD10B504464C
:1076AC000068FFF757FF204610BD38B5C468F4B129
:1076BC002378022B03D104F10C00FFF7EFFF656870
:1076CC0035B12846FCF79EFD1021284601F05BFBE6
:1076DC00A56835B12846FCF795FD1021284601F028
:1076EC0052FB20461421BDE8384001F04CBB38BD9C
:1076FC0010B588B00446684600F0BAFE694604A886
:10770C0000F0F5FE04A8A047044604A800F069FEAA
:10771C00684600F066FE204608B010BDF0B5102497
:10772C0085B007460E46154600212246684601F0F4
:10773C00B2FC002269461046ADF800400297039651
:10774C000195FFF767FE05B0F0BD13B5044691E84F
:10775C00050000234B600B602060626001A8019360
:10776C000093FFF75DFF204602B010BDF7B50C4645
:10777C0002AD54F8043B45F8083D06460F4601A8F7
:10778C002146FFF746FF29463046FFF7DEFF01A8EA
:10779C00FFF746FF2046FFF743FF3846082101F06C
:1077AC00F2FA304603B0F0BD13B50B46044603C8DD
:1077BC008DE8030093E8030084E803009DE80300D0
:1077CC0083E8030002B010BD38B500230446036003
:1077DC0010200D46FCF759FC28B10123436083604F
:1077EC00024B0360C5602060204638BDC0A30D006D
:1077FC00826810B50AB901F0E2FAC368BDE810401E
:10780C00184708B5006800F11001FFF7F1FF08BD3B
:10781C00826810B50AB901F0D2FAC368BDE810400D
:10782C00184708B5006800F11001FFF7F1FF08BD1B
:10783C0038B5002383608B6804460D462BB10222B9
:10784C009847EB68E360AB68A360204638BD000046
:10785C00F0B589B004686846FFF711FF00238DF876
:10786C0008304FF00202D4E84F3F002B03D1C4E89C
:10787C00412F0029F7D102D08DF8083063E014F1C4
:10788C000C0503D069462846FFF7F9FEBFF35F8F5E
:10789C0001236370002004F10803BFF35F8F53E8EA
:1078AC00006F43E80002002AF9D1BFF35F8F002E6E
:1078BC0049D0FFF77BFD20B129463046FFF798FFF2
:1078CC003AE0314602A8FFF7B3FFE068B4F9105074
:1078DC0008B101F041FC06901020ADF81C50FCF7EB
:1078EC00D4FB0546E8B1002787601820FCF7CDFBD8
:1078FC00044688B10146876002A8FFF755FF049B38
:10790C00A268A360059B049206A9E268E36004F1F7
:10791C0010000592FFF7B3FE0D4BEB600D4B2C6086
:10792C00AB6006A8FFF7BAFE02A8FCF76BFC0022BE
:10793C0029460948FFF742FD3046FCF763FC10214D
:10794C00304601F020FA6846FFF7A8FE09B0F0BDFA
:10795C000F780D00857A0D00C7750D002DE9F04FDD
:10796C008BB006460F46904699469DF850A0FFF7FF
:10797C0071FD07AD834630BB4FF62E73059005A9FC
:10798C002846ADF81830FFF77AFE1420FCF77DFB83
:10799C00044658B10223037001234370C0F804B0AD
:1079AC00C0F808B029460C30FFF769FE3046214676
:1079BC0040F8044BFFF708FF2846FFF76FFE05A8B9
:1079CC00FFF76CFE52E000240C2314206C60AC60BA
:1079DC000793FCF75AFB014618B1047044704460DD
:1079EC00846004A80391FFF7EFFE224B0893082054
:1079FC00FCF74BFB044628B1039B40F8043B04A95D
:107A0C00FFF707FE00955FFA8AF34A46414638466F
:107A1C000994FFF72FFD20B9039B5B7803F0FF025D
:107A2C0083B1039B059304A906A8FFF7F2FD05A9F2
:107A3C003046FFF78AFE06A8FFF7F2FD04A8FFF711
:107A4C00EFFD13E04FF69C7305A903A80592ADF862
:107A5C001830FFF7FDFE05A8FFF720FE05A80999D1
:107A6C00FFF784FE06A8FFF7DBFDDAE730460BB024
:107A7C00BDE8F08FF57B0D00022AF8B5044606D060
:107A8C00032A17D0012A22D10B6803601FE01820AB
:107A9C000E68FCF7FAFA054650B13146FFF7C8FEFE
:107AAC003069B6F9147008B101F056FB2861AF8249
:107ABC0025600CE0046854B104F11000FFF7EEFDF2
:107ACC002046FCF79FFB1821204601F05CF90020B2
:107ADC00F8BD38B5002383608B6804460D462BB186
:107AEC0002229847EB68E360AB68A360204638BD80
:107AFC00022A70B5044606D0032A11D0012A18D1E7
:107B0C000B68036015E014200E68FCF7BEFA0546FE
:107B1C0020B13146FFF7DDFF337C2B74256008E084
:107B2C00046834B12046FCF76DFB1421204601F0AB
:107B3C002AF9002070BD0000F0B5002387B00C4678
:107B4C00BFF35F8F50E8006F40E80032002AF9D194
:107B5C00BFF35F8F002E3FD01846FFF727FC074678
:107B6C0020B121463046FFF753FE2EE0314601A8E6
:107B7C00FFF7AFFF23788DF814301020FCF785FA4F
:107B8C000546D0B187601420FCF77FFA044678B123
:107B9C008760014601A8FFF707FE039BA268A3605C
:107BAC00049B0392E268E3609DF814300492237402
:107BBC000A4BEB600A4B2C60AB6001A8FCF722FB74
:107BCC00002229460748FFF7F9FB3046FCF71AFB61
:107BDC001021304601F0D7F807B0F0BD2F780D001A
:107BEC00FD7A0D00C7750D0030B585B004460D4605
:107BFC0068461146FFF7BAFD7CB124B228460DB198
:107C0C0001F0AAFA029002A96846ADF80C40FFF701
:107C1C001FFE02A8FFF742FD1DE000988DF80840FA
:107C2C004FF00102D0E84F3FA34203D1C0E8412FEF
:107C3C000029F7D102D08DF808300CE010F10C01BE
:107C4C004FF0010318BF0373BFF35F8F043000F8CC
:107C5C00033CFFF771FF01A8FFF7E2FC05B030BD54
:107C6C00002211464068FFF755BC002211464068BF
:107C7C00FFF760BC00224068FFF754BC002281F083
:107C8C0001014068FFF73EBC00231A4619464068C4
:107C9C00FFF730BC00231A4619464068FFF722BC98
:107CAC00002211464068FFF715BC002211464068BF
:107CBC00FFF700BC002202214068FFF703BC002341
:107CCC001A464068FFF7EEBB024B03225A60024A89
:107CDC001A607047C8E40320DCA30D007047F8B5A8
:107CEC00064615460C468F18BC4206D0336814F86D
:107CFC00011B9B6830469847F6E72846F8BD0022E2
:107D0C00007CFFF739BA0021007CFFF73DBA002157
:107D1C00007CFFF741BA0021007CFFF745BA002137
:107D2C00007CFFF749BA10B51421044601F02BF87A
:107D3C00204610BD10B50446002363604FF47A73DF
:107D4C00A360044B2174084623601146FFF744FAE4
:107D5C00204610BD10A40D000022007CFFF7E4B9F2
:107D6C0000231A461946007CFFF7E6B90021007C77
:107D7C00FFF7EAB970B50C4686B0142506462A46BC
:107D8C00002101A801F087F923788DF80830636889
:107D9C000393E36804930022237A307CADF80450FB
:107DAC0001A90593FFF720FA06B070BD1FB500338B
:107DBC008DF800104FF06401039118BF0123694640
:107DCC0001928DF80830FFF7D5FF05B05DF804FB84
:107DDC000123FFF7EBBF0022007CFFF7BDB9C9B24E
:107DEC00FFF7F9BF0022007CFFF7BEB90121FFF7B6
:107DFC00F9BF0021007CFFF7E7B90047F0B585B06B
:107E0C001C460E4617460546FFF766F900208442CD
:107E1C004FF0040303908DF80C30A5BF9DF828306B
:107E2C008DF80E30034603AB009332463B460649B1
:107E3C00A8BF8DF80D402846FFF746F9B0FA80F040
:107E4C00400905B0F0BD00BF077E0D00704710B5AE
:107E5C001821044600F097FF204610BDF0B5037DB5
:107E6C00062B8DB00E4600F104074FF0000402D033
:107E7C0000F1080518E00CAD394605F8304D2F23FC
:107E8C002A460A20FFF7B8F9284601F080F9336832
:107E9C000246DB682946304698470FE024B12E2174
:107EAC00304600F0FDF9044415F8011D0A22304655
:107EBC0000F00FFABD420444F0D120460DB0F0BDE5
:107ECC0010B5054B0446112240F8043B002101F08B
:107EDC00E2F8204610BD00BF38A40D000346074A47
:107EEC0010B543F8042B01F1100251F8044B43F880
:107EFC00044B9142F9D10A781A7010BD38A40D00C8
:107F0C0010B59DF8084044EA032343EA024242EAD2
:107F1C00016104234160037510BD37B50D788B7872
:107F2C004A78C97800912946FFF7EAFF03B030BDC3
:107F3C000A680B46926801461846104770B50E4CFD
:107F4C0004601C2444609DF814409DF8106004F0FB
:107F5C00030444EA86040025E4B204744274857474
:107F6C004161427C85600F2A08BF044BC56006BF87
:107F7C008361C061038370BD4C930D003D7F0D0088
:107F8C00014B024A1A607047D0E40320AFA40D00E5
:107F9C00002211464068FFF7BDBA00221146406826
:107FAC00FFF7C8BA00224068FFF7BCBA002281F084
:107FBC0001014068FFF7A6BA00231A460121406868
:107FCC00FFF798BA00231A4619464068FFF78ABA99
:107FDC00002211464068FFF77DBA00221146406826
:107FEC00FFF768BA002202214068FFF76BBA002342
:107FFC001A464068FFF756BA38B5054688B104688A
:10800C004CB1A3681BB1032221462046984710218E
:10801C00204600F0B8FE28461421BDE8384000F098
:10802C00B2BE38BD10B103685B681847704710B515
:10803C0003680446BBB15868FEF776FF78B923682D
:10804C005A7C12B95868FEF77FFF23685868FEF710
:10805C0083FF20680023236028B1FFF7CDFF206841
:10806C0008B1FFF7C9FF204610BD38B50446D0F85B
:10807C00C40108B1FCF70DF8D4F8C00108B1FEF743
:10808C00A3FFD4F8BC5135B12846FFF7D0FF04212B
:10809C00284600F078FE206808B1FFF7C3FF2046A1
:1080AC0038BD000010B5044B044640F8083BFFF700
:1080BC00DCFF204610BD00BF20A50D0038B50E4CCE
:1080CC000E4B23600025022304F5E4706360A56069
:1080DC00C4F8C451C4F8C851FEF76EFF084BC4F87D
:1080EC00CC5184F8D05123602046064A0649BDE89D
:1080FC00384000F043BE00BFD4E4032054A50D006B
:10810C0020A50D0014CA0320B1800D0000231A46CF
:10811C004068FFF7C7B9002202214068FFF7D2B9C7
:10812C00002211464068FFF7C5B90022114640688D
:10813C00FFF7D0B900231A4619464068FFF7D2B9A9
:10814C0000231A4619464068FFF7D4B9002281F083
:10815C0001014068FFF7D6B900224068FFF7E2B989
:10816C00002211464068FFF7E5B90022114640682D
:10817C00FFF7D0B92DE9F043002495B016460D4613
:10818C000746FFF79DFE214620220CA8009400F024
:10819C0082FF40230C9321466B460CAA3046FFF716
:1081AC003BF80446002844D1024601216868FFF7D9
:1081BC0091F90221804622466868FFF78BF9009EF0
:1081CC0081462146002E34D0002932D17368022B0F
:1081DC0002D00A2B09D02AE0B8F1000F27D0716920
:1081EC0038460431FFF799FE20E0B9F1000F1ED09C
:1081FC007469112201A800F04EFF06238DF814308B
:10820C0001AD04F108031834186859682A4603C2F2
:10821C000833A3421546F7D101A906A807ADFFF70D
:10822C005DFE0FCD3C1D0FC42B6823700121F66938
:10823C00C8E70098FEF7E8FF384615B0BDE8F083B4
:10824C00024B034A1A6000225A607047A8E60320CA
:10825C0054A50D00F8B506460D468F180024BD42F6
:10826C000CD0336815F8011B9B68304698470028E2
:10827C0001DB0444F3E7002C08BF04462046F8BD9C
:10828C0070B505460C46084649B100F080FF2B68D6
:10829C00024621462846DB68BDE87040184770BD91
:1082AC0003689B68184738B50D210546FFF7F8FFA2
:1082BC000A2104462846FFF7F3FF204438BD38B5A1
:1082CC000546FFF7DDFF04462846FFF7ECFF204488
:1082DC0038BD30B58BB00B4600218DF82410012A27
:1082EC0098BF0A220DF12304B3FBF2F505FB123300
:1082FC0003F0FF03092B94BF30333733DBB2214635
:10830C0004F801392B46002DEED1FFF7B9FF0BB065
:10831C0030BD0CB42DE9F04387B000AF07F1380441
:10832C00054654F8049B3C600E4623464A461421ED
:10833C00381DFFF727F9132805D8391D2846FFF7F4
:10834C009FFF044613E000F1080323F00703E846FF
:10835C00ADEB030D411C23464A4668463C60FFF7D3
:10836C0011F969462846FFF78BFF0446C5461EB136
:10837C002846FFF798FF044420461C37BD46BDE84D
:10838C00F04302B0704710B50446FBF73BFF2046A4
:10839C0010BD00000348044A04490023836000F028
:1083AC00EDBC00BFB0E6032014CA032093830D007C
:1083BC00704710B50C21044600F0E5FC204610BDBA
:1083CC0010B5054B0360044601710846FEF734FFF7
:1083DC000023A360204610BD88A50D000079FEF790
:1083EC0033BF10B504460068FFF7B4F8204610BD43
:1083FC0010B50446006808B1FFF7ACF80023236001
:10840C00A360636010BD38B504460D4600680131A9
:10841C00FFF7A8F810B184E82100012038BD10B591
:10842C000368044613B143688B4207D22046FFF71A
:10843C00EAFF20B1A3680BB922681370012010BDAC
:10844C0070B50E46114604461546FFF7E8FF18B9FD
:10845C002046FFF7CDFF09E02A463146A56020688B
:10846C0000F00EFE2268A3680021D154204670BD96
:10847C0038B50023044603604360836003730D46E4
:10848C0039B1084600F083FE294602462046FFF724
:10849C00D7FF204638BD38B5054600680C4660B19C
:1084AC006A688B689A4206D3096800F04CFEA36890
:1084BC00AB6000230AE0FFF74DF823682B6063687C
:1084CC006B60A368AB60002323606360A36038BD5E
:1084DC00884210B50B46044607D0096819B19A6852
:1084EC00FFF7AEFF01E0FFF783FF204610BD10B58C
:1084FC00002304460360436083600373FFF7E8FFC7
:10850C00204610BD884210B5044601D0FFF7C3FFCA
:10851C00204610BD38B505460C4641B1084600F062
:10852C0036FE214602462846FFF78AFF01E0FFF798
:10853C005FFF284638BD13B500238DF80410036087
:10854C0043608360037301A904468DF80530FFF77F
:10855C00E1FF204602B010BD70B504460E4609B9C5
:10856C00002070BD6AB18368D5182946FFF757FF04
:10857C000028F5D02068A3683146184400F0E3FDCC
:10858C00A560012070BD10B58A6809680446FFF724
:10859C00E3FF10B92046FFF72BFF204610BD38B57E
:1085AC0004460D4641B1084600F0F1FD294602464D
:1085BC002046FFF7D1FF10B92046FFF719FF2046E0
:1085CC0038BD70B50E469AB191B185689D4202D8FE
:1085DC0000230B7070BD541EED1A0168AC4228BF0D
:1085EC002C4619442246304600F0EEFD002333554C
:1085FC0070BD10B58368934206D90468A01800F0CA
:10860C008AFD08B1001B10BD4FF0FF3010BD0000FB
:10861C00F8B59A420F461D460C4988BF13461446BE
:10862C00064684BF2C461D46FFF722FFBA689442CB
:10863C000AD83968954294BFC4EB0502C4EB020218
:10864C0021443046FFF7FCFE3046F8BDE0A40D0097
:10865C0010B504468B68FFF7DBFF204610BD0068A1
:10866C0008B100F0FBBC704710B50446006818B1A7
:10867C00FEF770FF0023236010BD10B50446FFF712
:10868C00F3FF204610BD014600228C20FEF7ACBC47
:10869C000020FFF7F8BF000010B5094C00204FF682
:1086AC00FF732060A080A07120816381FEF766FEBD
:1086BC002046044A0449BDE8104000F05FBB00BFEF
:1086CC00C0E6032014CA032087860D00024B1A68EB
:1086DC00024B1A60704700BFA8C90320CCE60320E8
:1086EC00F8B585B2044628460E46174600F01AFA2D
:1086FC0060B102212846FEF7BFFC022806D13A469B
:10870C0031462046BDE8F840FEF78EBDF8BD7047F7
:10871C004174704708B5007CFEF7DEFD20EAE0707E
:10872C0008BD08B5007CFEF7AFFD20EAE07008BD7F
:10873C0008B5007CFEF7B8FD30EA200028BF4FF0EA
:10874C00FF3008BD08B5007CFEF7A6FD30EA20001E
:10875C0028BF4FF0FF3008BD007CFEF7ADBD10B553
:10876C001421044600F00FFB204610BD70B5457C6B
:10877C0004460E4625B9007CFEF7AEFD002805DD4B
:10878C003146207CBDE87040FEF776BD284670BDB2
:10879C0010B5044608461146002262604FF47A7206
:1087AC00A260054A22600122207462741A46FEF708
:1087BC0053FD204610BD00BFC4A50D000023007C56
:1087CC00FEF792BD0022FFF7F9BF007CFEF74CBD0F
:1087DC00007CFEF779BD0000F8B5194C25684DB941
:1087EC008420FBF752FC064618B18422294600F07F
:1087FC0052FC2660134D2E684EB98420FBF745FCC5
:10880C00074618B18422314600F045FC2F600E4F0C
:10881C00396811F0010611D13846FBF73CFC68B100
:10882C0022682B6809483146FFF7B2FF3846FBF740
:10883C0037FC074A0749054800F0A0FA0348F8BD81
:10884C00ECE60320E4E60320E8E60320D0E6032070
:10885C0014CA03201B870D0041747047704708B57C
:10886C000021007CFEF768FD30EA200028BF4FF0A5
:10887C00FF3008BD08B50121007CFEF75DFD30EA34
:10888C00200028BF4FF0FF3008BD08B5007CFEF774
:10889C004BFD20EAE07008BD08B5007CFEF73CFDFE
:1088AC0020EAE07008BD007CFEF756BD10B514211F
:1088BC00044600F068FA204610BD38B50446007C2A
:1088CC000D46FEF731FD002801DC607C28B12946FD
:1088DC00207CFEF739FD20EAE07038BD10B5044667
:1088EC00002363604FF47A73A360054B236001236C
:1088FC000846217463741146FEF7FEFC204610BD39
:10890C00F4A50D000022007CFEF7FEBC10B514226D
:10891C000446002100F0BFFB204610BD30B50E4DC3
:10892C0087B001A8FFF7F2FF296811F0010410D1FC
:10893C002846FBF7B0FB60B101AA21460748FFF7B8
:10894C00CDFF2846FBF7ACFB054A0649034800F06F
:10895C0015FA024807B030BDF0E60320F4E6032018
:10896C0014CA032069880D00002211464068FEF7E6
:10897C00B1BD002211464068FEF7CCBD0022114665
:10898C004068FEF7D7BD00224068FEF7CBBD002241
:10899C0081F001014068FEF7B5BD00231A46194667
:1089AC004068FEF7A7BD00231A4619464068FEF73B
:1089BC0099BD002211464068FEF77CBD00220221C1
:1089CC004068FEF77FBD00231A464068FEF76ABD7B
:1089DC00024B04225A60024A1A60704708E70320CF
:1089EC0024A60D0008B50C4B33B1FFF797FF0368B5
:1089FC001B699847002809DC084B63B1FFF7ECFEB4
:108A0C0003681B699847002803DC08BDAFF300809E
:108A1C00F2E7AFF3008008BD00000000000000008A
:108A2C0008B5FFF7DFFFFEF7F7FA014B186008BD3A
:108A3C0018E703200248034A0349121A00F020BB2E
:108A4C0000F4032004F40320F0A70D0007B5002365
:108A5C0000931A466FF07701FEF7CAFC03B05DF87D
:108A6C0004FB000007B543880A2B08D0502B09D112
:108A7C00094B1B683BB103B05DF804EB1847FFF7DB
:108A8C00E5FF06E0002300931A466FF07701FEF72E
:108A9C00AFFC03B05DF804FB10E7032038B5104CB5
:108AAC00104D2368AB42104B0CBF012200221A70F0
:108ABC0002D0FFF7BFFF2560FEF79EFA044600F0D8
:108ACC00F3FA0A4B13B12046AFF30080002107489C
:108ADC00FEF7E0FC00210648BDE83840FEF77EBCFE
:108AEC0000F403201E1C279A14E70320000000004A
:108AFC00718A0D0008B5024B1B681B68019308BDF9
:108B0C005C02030008B5024B1B685B68019308BD4F
:108B1C005C02030008B5024B1B689B68019308BDFF
:108B2C005C02030010B5044600F008F9FFF756FC90
:108B3C0028B1A4F10B03022B01D8002010BD00F0CA
:108B4C00D7F8FFF756F908B1012CF6D9FFF744FE18
:108B5C00FFF73EFE18B1A4F10903012BEDD9232C2C
:108B6C008CBF0020012010BD232838B504460D46CB
:108B7C000AD8FF2908D0FFF7D5FF28B1294620468F
:108B8C00BDE83840FEF780BA38BD38B504460D460E
:108B9C00FEF782FAFF2810D0062804D84D2323FABA
:108BAC0000F0C30709D42046FFF7BCFF28B12946C3
:108BBC002046BDE83840FEF777BA38BD10B50446FC
:108BCC00FEF76AFA0438C0B2012808D92046FFF72C
:108BDC00A9FF20B12046BDE81040FEF76DBA002079
:108BEC0010BD0D2810B504469CBF0E34A4B220460F
:108BFC00FFF798FF50B103212046FEF73DFA0328FA
:108C0C0004D12046BDE81040FEF776BA002010BD16
:108C1C0038B504460D46FFF785FFF0B10421204618
:108C2C00FEF72AFA042805D1A9B22046BDE838403F
:108C3C00FEF75ABA02212046FEF71EFA02280CD182
:108C4C002046FEF729FA012801D0042805D129462F
:108C5C002046BDE83840FEF757BA38BD70B504461B
:108C6C000D461646FFF75EFF98B102212046FEF72F
:108C7C0003FA02280DD12046FEF70EFA012801D086
:108C8C00042806D1324629462046BDE87040FEF73E
:108C9C0043BA70BD10B5074C2368DB0708D42046D7
:108CAC00FBF7F9F920B1FEF7BFF92046FBF7F8F90D
:108CBC00014810BD1CE7032020E7032070B50446D3
:108CCC0014252A46094E002100F0E5F925802025BF
:108CDC003146A5602561284600F06FF8314660608A
:108CEC00284600F06AF8E060204670BD50A60D00E2
:108CFC0030B50E4D296811F0010487B013D1284608
:108D0C00FBF7C9F978B101A8FFF7D8FF01AA2146F2
:108D1C000748FFF70FF82846FBF7C2F9054A064942
:108D2C00034800F02BF8024807B030BD24E70320BD
:108D3C0028E7032014CA0320E97C0D0038B50B4D3D
:108D4C00296811F001040FD12846FBF7A4F958B19A
:108D5C0021460748FFF734FB2846FBF7A1F9054AE3
:108D6C000549034800F00AF8014838BD48E70320DC
:108D7C003CE7032014CA0320BD830D000B460146BB
:108D8C00184600F06FB9FBF782B90000024B186867
:108D9C00BFF35F8F704700BF4CE7032010B500286E
:108DAC0014BF044601242046FEF7CCFB20B9FFF784
:108DBC00EDFF08B18047F6E710BDFFF7EFBF08B530
:108DCC00FEF7E8FB244B1A68D0075CBF01221A603F
:108DDC00224B1A68D1075CBF01221A60204B1A681B
:108DEC00D2075CBF01221A601E4B1A68D0075CBF09
:108DFC0001221A601C4B1A68D1075CBF01221A6051
:108E0C001A4B1A68D2075CBF01221A60184B1A68F9
:108E1C00D0075CBF01221A60164B1A68D1075CBFE1
:108E2C0001221A60144B1A68D2075CBF01221A6027
:108E3C00124B1A68D0075CBF01221A60104B1A68DB
:108E4C00D1075CBF01221A600E4B1A68D2075CBFB7
:108E5C0001221A60704700BF7CE7032078E70320EB
:108E6C0074E7032070E703206CE7032068E7032016
:108E7C0064E7032060E703205CE7032058E7032046
:108E8C0054E7032050E70320184B1A68D1075CBF46
:108E9C0001221A60164B1A68D2075CBF01221A60B5
:108EAC00144B1A68D0075CBF01221A60124B1A6867
:108EBC00D1075CBF01221A60104B1A68D2075CBF45
:108ECC0001221A600E4B1A68D0075CBF01221A608F
:108EDC000C4B1A68D1075CBF01221A600A4B1A6846
:108EEC00D2075CBF01221A60704700BF9CE70320C9
:108EFC0098E7032094E7032090E703208CE70320F6
:108F0C0088E7032084E7032080E70320184B1A68C6
:108F1C00D1075CBF01221A60164B1A68D2075CBFDE
:108F2C0001221A60144B1A68D0075CBF01221A6028
:108F3C00124B1A68D1075CBF01221A60104B1A68D9
:108F4C00D2075CBF01221A600E4B1A68D0075CBFB7
:108F5C0001221A600C4B1A68D1075CBF01221A60FF
:108F6C000A4B1A68D2075CBF01221A60704700BF17
:108F7C00BCE70320B8E70320B4E70320B0E70320E5
:108F8C00ACE70320A8E70320A4E70320A0E7032015
:108F9C00244B1A68D0075CBF01221A60224B1A6856
:108FAC00D1075CBF01221A60204B1A68D2075CBF44
:108FBC0001221A601E4B1A68D0075CBF01221A608E
:108FCC001C4B1A68D1075CBF01221A601A4B1A6835
:108FDC00D2075CBF01221A60184B1A68D0075CBF1D
:108FEC0001221A60164B1A68D1075CBF01221A6065
:108FFC00144B1A68D2075CBF01221A60124B1A6814
:10900C00D0075CBF01221A60104B1A68D1075CBFF5
:10901C0001221A600E4B1A68D2075CBF01221A603B
:10902C00704700BFECE70320E8E70320E4E70320E8
:10903C00E0E70320DCE70320D8E70320D4E7032094
:10904C00D0E70320CCE70320C8E70320C4E70320C4
:10905C00C0E703200A22002100F050B90A220021A7
:10906C0000F04CB910B5054C13462CB10A4601461C
:10907C000220AFF3008010BD204610BD00000000A0
:10908C0010B5431E0A44914204D011F8014B03F869
:10909C00014FF8E710BD02440346934202D003F897
:1090AC00011BFAE77047000038B5124B1C68A36B24
:1090BC000546D3B91820FEF745FA43F20E33A063E8
:1090CC0003804AF6CD33438041F2342383804EF241
:1090DC006D63C3804DF6EC630381052343810B2341
:1090EC00838101220023C0E90423A36B00221D61AC
:1090FC005A6138BD10CA032010B50246134601321E
:10910C001C78002CFAD1013B11F8012B03F8012F2C
:10911C00002AF9D110BDC9B2034610F8012B1AB1BF
:10912C009142F9D11846704700290CBF184600200F
:10913C00704710F8012B11F8013B012A28BF9A4205
:10914C00F7D0D01A7047034611F8012B03F8012B06
:10915C00002AF9D170470000024B0146186800F054
:10916C0003B800BF10CA032070B5064608460C466B
:10917C0000F00DF8451C29463046FEF713FA06465A
:10918C0018B12A462146FFF77BFF304670BD0346D7
:10919C0013F8012B002AFBD1181A0138704730B58F
:1091AC0082B1451E013915F8013F11F8014FA34258
:1091BC0006D1EC431444E04201D0002BF3D11C4601
:1091CC00181B30BD104630BD10B5034642B111F826
:1091DC00014B03F8014B013A002CF7D11A4400E083
:1091EC0010BD934202D003F8014BFAE710BD00000A
:1091FC002DE9F04780464048D0F800900F463D4698
:10920C0015F8014B09EB0400407800F0080000F061
:10921C00FF0608B12F46F2E72D2C03D1BD1C7C783C
:10922C00012603E02B2C04BF7C78BD1C13B1102B42
:10923C000AD15BE0302C57D1287800F0DF00582899
:10924C004DD16C7810230235002E14BF4FF0004C1A
:10925C006FF0004C0027BCFBF3FA384603FB1ACC2A
:10926C0009EB040E9EF801E01EF0040F01D0303C17
:10927C000BE01EF0030E1BD0BEF1010F0CBF4FF024
:10928C00370E4FF0570ECEEB0404A34210DDB7F1AE
:10929C00FF3F0AD0504506D801D1644503DC03FBDF
:1092AC000040012701E04FF0FF3715F8014BD7E7DD
:1092BC007B1C0CD1002E4FF0220314BF4FF000404A
:1092CC006FF00040C8F800302AB9BDE8F08706B14D
:1092DC00404272B107B1691E1160BDE8F0873024BD
:1092EC00002BB1D10823AFE70A23ADE7302CA3D074
:1092FC00AAE7BDE8F08700BFACC9032013460A46B5
:10930C00014602480068FFF773BF00BF10CA032074
:10931C001D400D0059400D0085400D0089400D0089
:10932C00000000000000000000000000B1420D0031
:10933C00F5420D004D410D00000000000000000042
:10934C0095410D00B1410D00B3400D00000000002F
:10935C00963007772C610EEEBA51099919C46D0736
:10936C008FF46A7035A563E9A395649E3288DB0E91
:10937C00A4B8DC791EE9D5E088D9D2972B4CB60974
:10938C00BD7CB17E072DB8E7911DBF906410B71D51
:10939C00F220B06A4871B9F3DE41BE847DD4DA1A8A
:1093AC00EBE4DD6D51B5D4F4C785D38356986C13BB
:1093BC00C0A86B647AF962FDECC9658A4F5C011434
:1093CC00D96C0663633D0FFAF50D088DC8206E3B12
:1093DC005E10694CE44160D5727167A2D1E4033C24
:1093EC0047D4044BFD850DD26BB50AA5FAA8B5354B
:1093FC006C98B242D6C9BBDB40F9BCACE36CD8323A
:10940C00755CDF45CF0DD6DC593DD1ABAC30D926E0
:10941C003A00DE518051D7C81661D0BFB5F4B421E3
:10942C0023C4B3569995BACF0FA5BDB89EB80228E0
:10943C000888055FB2D90CC624E90BB1877C6F2F65
:10944C00114C6858AB1D61C13D2D66B69041DC7660
:10945C000671DB01BC20D2982A10D5EF8985B17139
:10946C001FB5B606A5E4BF9F33D4B8E8A2C90778E8
:10947C0034F9000F8EA8099618980EE1BB0D6A7F7F
:10948C002D3D6D08976C6491015C63E6F4516B6B38
:10949C0062616C1CD83065854E0062F2ED95066CED
:1094AC007BA5011BC1F4088257C40FF5C6D9B06562
:1094BC0050E9B712EAB8BE8B7C88B9FCDF1DDD62BF
:1094CC00492DDA15F37CD38C654CD4FB5861B24D25
:1094DC00CE51B53A7400BCA3E230BBD441A5DF4AEF
:1094EC00D795D83D6DC4D1A4FBF4D6D36AE96943B2
:1094FC00FCD96E34468867ADD0B860DA732D04445D
:10950C00E51D03335F4C0AAAC97C0DDD3C71055087
:10951C00AA41022710100BBE86200CC925B568572E
:10952C00B3856F2009D466B99FE461CE0EF9DE5E77
:10953C0098C9D9292298D0B0B4A8D7C7173DB35928
:10954C00810DB42E3B5CBDB7AD6CBAC02083B8EDB9
:10955C00B6B3BF9A0CE2B6039AD2B1743947D5EAC6
:10956C00AF77D29D1526DB048316DC73120B63E3F5
:10957C00843B64943E6A6D0DA85A6A7A0BCF0EE454
:10958C009DFF099327AE000AB19E077D44930FF00F
:10959C00D2A3088768F2011EFEC206695D5762F706
:1095AC00CB67658071366C19E7066B6E761BD4FE43
:1095BC00E02BD3895A7ADA10CC4ADD676FDFB9F920
:1095CC00F9EFBE8E43BEB717D58EB060E8A3D6D6E2
:1095DC007E93D1A1C4C2D83852F2DF4FF167BBD110
:1095EC006757BCA6DD06B53F4B36B248DA2B0DD813
:1095FC004C1B0AAFF64A0336607A0441C3EF60DFB6
:10960C0055DF67A8EF8E6E3179BE69468CB361CB9E
:10961C001A8366BCA0D26F2536E2685295770CCCC3
:10962C0003470BBBB91602222F260555BE3BBAC504
:10963C00280BBDB2925AB42B046AB35CA7FFD7C2F5
:10964C0031CFD0B58B9ED92C1DAEDE5BB0C2649BE6
:10965C0026F263EC9CA36A750A936D02A906099C19
:10966C003F360EEB8567077213570005824ABF958C
:10967C00147AB8E2AE2BB17B381BB60C9B8ED2920F
:10968C000DBED5E5B7EFDC7C21DFDB0BD4D2D38666
:10969C0042E2D4F1F8B3DD686E83DA1FCD16BE81D9
:1096AC005B26B9F6E177B06F7747B718E65A0888AA
:1096BC00706A0FFFCA3B06665C0B0111FF9E658F3B
:1096CC0069AE62F8D3FF6B6145CF6C1678E20AA0E5
:1096DC00EED20DD75483044EC2B30339612667A76B
:1096EC00F71660D04D476949DB776E3E4A6AD1AEBA
:1096FC00DC5AD6D9660BDF40F03BD83753AEBCA949
:10970C00C59EBBDE7FCFB247E9FFB5301CF2BDBDB5
:10971C008AC2BACA3093B353A6A3B4240536D0BABE
:10972C009306D7CD2957DE54BF67D9232E7A66B35B
:10973C00B84A61C4021B685D942B6F2A37BE0BB408
:10974C00A18E0CC31BDF055A8DEF022D4552524FD3
:10975C0052207C2063616C6C6261636B5F62756626
:10976C006665723A2025732C2063616C6C626163B0
:10977C006B5F636F6D706C6574653A202573005276
:10978C004553504F4E5345207C2063616C6C626195
:10979C00636B5F6275666665723A2025732C206375
:1097AC00616C6C6261636B5F636F6D706C6574652B
:1097BC003A202563005374616765206C696D697488
:1097CC002073776974636820646574656374656479
:1097DC0000537461676520706F736974696F6E20D4
:1097EC006174207A65726F005374616765206469D7
:1097FC007374616C206C696D697420726561636847
:10980C006564004865617465722073657420746FBB
:10981C0020706F7765722025640054656D706572D9
:10982C00617475726520636F6E74726F6C207379DE
:10983C007374656D20737461727465640054656D26
:10984C00706572617475726520636F6E74726F6C83
:10985C002073797374656D2073746F707065640018
:10986C0054656D70657261747572653A2025642E4D
:10987C002564CB9A432C2025642E2564CB9A460074
:10988C00726177203D2025642C2054203D202564D6
:10989C002E2564CB9A432C20746172676574203D2D
:1098AC002025642E25642C206474203D2025642CF6
:1098BC00206572726F72203D2025642C20696E74B5
:1098CC00656772616C203D2025642C20646572698B
:1098DC00766174697665203D2025642C206F757443
:1098EC00707574203D20256400627265766974651C
:1098FC0073742D70726F64756374696F6E0050753C
:10990C00626C6973683A206576656E74203D20251B
:10991C00732C2075756964203D2025730056616C8D
:10992C0069646174696E67206361727472696467DB
:10993C00650076616C69646174652D636172747223
:10994C00696467650056616C69646174696F6E2047
:10995C006661696C6564202D206E6F7420636F6E78
:10996C006E656374656420746F2074686520636C25
:10997C006F75640025632563255825632558256379
:10998C00255825632558256300252E32347325630D
:10999C00256325630025732C202564207065726374
:1099AC00656E7420636F6D706C6574652C207465C6
:1099BC006D70203D2025642E2564005374617274F3
:1099CC00696E67206F70746963616C204932432043
:1099DC00627573207363616E00493243206465764F
:1099EC0069636520666F756E6420617420616464C0
:1099FC0072657373202558005355434345535300E8
:109A0C00546573742066696E697368656400546587
:109A1C0073742066696E697368206661696C65642D
:109A2C002100546573742063616E63656C6C6564AE
:109A3C0000546573742063616E63656C20666169A4
:109A4C006C65642100746573742D63616E63656C61
:109A5C00005465737420636F6D706C65746564007D
:109A6C005465737420636F6D706C657465007465F8
:109A7C0073742D66696E69736800726567697374B7
:109A8C0065720072756E5F74657374002F686F6F0A
:109A9C006B2D726573706F6E73652F62726576696C
:109AAC00746573742D70726F64756374696F6E2F47
:109ABC00002F686F6F6B2D6572726F722F627265FB
:109ACC007669746573742D70726F64756374696FE5
