:02000002D0002C
:1040000000400D009CAA0D00000006000C000501F8
:084010000401DE0500000000C0
:04401800A8940D005B
:10401C0009480A49884208B505D0094A824202D0AB
:10402C00121A05F0F3F80748074A0021121A05F096
:10403C00F8F8014808BD00BF3CC80320C4A90D0016
:10404C00E8C80320E8C80320F0E7032070B504F0AB
:10405C00EBFD074C074BE41AA40800251E46A542AD
:10406C0004D056F8253098470135F8E770BD00BFED
:10407C00C0A90D0088A90D0001F06EB808B502F0BA
:10408C00B1FEBDE8084004F091BD03F03BBB03F06A
:10409C0041BB03F03FBB0078B0FA80F04009704799
:1040AC000123037070477047014B01221A7070474F
:1040BC00D8C90320014B01221A70704720CA032073
:1040CC00034B044A1B7883F001031360704700BF55
:1040DC006CC90320DCC90320014B01221A70704704
:1040EC00D2D9032003681847012A02D0022A02D031
:1040FC0004E0016002E00B6800B10360002070472F
:10410C0037B50C460E480F4D05F0BCF8204605F0AF
:10411C0004F9204410F8013CA3F12302534253410B
:10412C002B7004F0C1FC2B78074A002B14BF5923C9
:10413C004E2300930121024B04F0CBF903B030BDA8
:10414C00FCD9032084D30320E4980D00436913B1F8
:10415C0083690C301847704713B500210446084694
:10416C0002F0E2FF02A90023204641F8043D02F0D0
:10417C00F3FF019C0CB1012323710021012002F0FB
:10418C00D3FF2CB1236820469B68984700232371EA
:10419C0002B010BD10B5054B00220446114640F884
:1041AC00043B03F0C1F9204610BD00BFD8940D00AC
:1041BC0010B50446FFF7EEFF2046202104F0A9FEBF
:1041CC00204610BD37B50C460E480F4D05F05AF879
:1041DC00204605F0A2F8204410F8013CA3F123027C
:1041EC00534253412B7004F05FFC2B78074A002B91
:1041FC0014BF59234E2300930121024B04F069F99B
:10420C0003B030BDFCD9032084D303201A990D00D0
:10421C0010B58368044613B1032201469847204623
:10422C0010BD0368C9B29B6818470000F0B50025A3
:10423C008E4615490571856045610160044692E81A
:10424C00030085B002AF04F10C0687E8030096E882
:10425C00030082E8030097E8030086E803009168F6
:10426C00606990606161D168A069D060A1618DE8DE
:10427C002800064A2346714604F1080002F05CFF50
:10428C00204605B0F0BD00BFC4940D0065410D0083
:10429C0007B58068002340B18DE80A001A46022158
:1042AC0002F062FFB0FA80F0400903B05DF804FB45
:1042BC0038B50F4B0360836804469BB16FF0004127
:1042CC00FFF7E6FF0021A06802F066FF237903F0F8
:1042DC00FF0513B102F010FFF8E72946A06802F0C1
:1042EC0033FFA56004F10C00FFF792FF204638BDA8
:1042FC00C4940D0010B50446FFF7DAFF20461C21CC
:10430C0004F007FE204610BD73B506460D46114657
:10431C001446FFF7BDFFB068002340B10193009530
:10432C002246194602F020FFB0FA80F0400902B094
:10433C0070BD000040F67263984270B51CDC0F4AE9
:10434C00002352F8044BA04203F101050FDC116865
:10435C0088420CDD0A4E56F8232056F825309D1A5B
:10436C00031B6B43081B93FBF0F0104470BD142D22
:10437C002B46E6D1002070BD184670BD38A50D0047
:10438C00E4A40D001FB50C2AA8BF0C22014401A8FF
:10439C00144604F0DFFF04AB1C4401A8002304F80E
:1043AC000C3C04F01DFF04B010BD30B5002385B0EB
:1043BC000C68055D954208BF002504F101040DF859
:1043CC0003500C6002D001330E2BF1D1684604F07F
:1043DC0007FF05B030BD000010B5084C01444FF08C
:1043EC00FF32884208D010F8013B5340DBB254F83E
:1043FC00233083EA1222F4E7D04310BDE4940D007D
:10440C00021E30B516DB9110022329B1914203D064
:10441C00023342FA03F1F8E7023B00204000411C52
:10442C0042FA03F401FB01F5A542D8BF0846023B52
:10443C00F4D530BD4FF0FF3030BD000008B504F0AE
:10444C00EFFC4FF46D7203490020BDE8084002F008
:10445C00D3BE00BF86D3032008B504F0E1FC4FF4B3
:10446C006D7203490020BDE8084002F0CDBE00BFCC
:10447C0086D3032008B504F0D3FCBDE8084002F055
:10448C00CBBE000008B5FFF7F5FF034B0E221A70E8
:10449C005A70FF229A7008BD86D3032007B504F02A
:1044AC00BFFC01220DF10701002002F0A5FE9DF8D2
:1044BC000730FF2B02D1FFF7E5FF07E0FFF7BEFF48
:1044CC00044B1A8840F60E639A42F4D103B05DF89F
:1044DC0004FB00BF86D30320012870B50E461D4D8A
:1044EC001BD11D4B188804F02FFC044640B904F076
:1044FC00DBFA1A4903F0C3FF194B2C601C6016E061
:10450C002B68002B15DC04F0CFFA164903F0B7FF2B
:10451C00134B00202860186070BD2A6849F2A7333D
:10452C009A4206DD04F0C0FA0F4903F0A8FF002000
:10453C0070BD0E4C0121208804F0EDFB304602F0DA
:10454C0043FE0021208804F0E6FB304602F03CFEDE
:10455C00012070BDD4D903206CC803204D990D00E7
:10456C00E0C9032069990D0080990D0068C80320EB
:10457C002DE9F84F1C4BDFF87890C70F044688469E
:10458C001888394604F0C7FB184B84EAE4711A68A2
:10459C00A1EBE47111441922002C91FBF2F64FF0BF
:1045AC00000402FB16121A60B4BF6FF0180A4FF029
:1045BC00190A1D46A346B44213DA41463846FFF7A2
:1045CC008BFF58B1D9F800305344002B02DDC9F8E9
:1045DC00003004E0C9F800B0C5F800B0344601342E
:1045EC00E9E7BDE8F88F00BF4CC80320E0C9032001
:1045FC00D4D9032008B5054B0021188804F08BFB97
:10460C001420BDE8084003F0B5B800BF78C80320FB
:10461C0008B5054B0121188804F07DFB0A20BDE884
:10462C00084003F0A7B800BF78C8032038B504468B
:10463C000D46FFF7EDFF29462046FFF799FFBDE831
:10464C003840FFF7D7BF0000134B10B549F2A83222
:10465C001A600446FFF7DCFF96211048FFF788FF2D
:10466C00642003F087F896214FF4FA60FFF780FF7F
:10467C00642003F07FF84FF47A710948FFF778FF54
:10468C004FF47A7142F63020FFF772FF1CB1BDE88F
:10469C001040FFF7AFBF10BDD4D90320A015FFFF0A
:1046AC0048F4FFFF38B5064C80F3080544F6206249
:1046BC002946208804F098FB0123E560237238BD5D
:1046CC0008C9032010B5044C0021208804F066FBB7
:1046DC0000232372E36010BD08C90320024B01467E
:1046EC00188804F05BBB00BF3CC80320024B01469A
:1046FC00188804F053BB00BF50C80320024B01467E
:10470C00188804F04BBB00BF58C803200346412B4C
:10471C00084601D1FFF7E2BF312B01D1FFF7E6BF0D
:10472C00322B01D1FFF7EABF70470000024B00218A
:10473C00188804F033BB00BF3CC80320024B002197
:10474C00188804F02BBB00BF50C80320024B00217B
:10475C00188804F023BB00BF58C80320412801D19E
:10476C00FFF7E4BF312801D1FFF7E8BF322801D1B0
:10477C00FFF7ECBF704710B504460846FFF7AEFFD5
:10478C00204602F0F7FFBDE81040FFF7CFBF10B591
:10479C0004460846FFF7AAFF204602F0EBFFBDE8EF
:1047AC001040FFF7CBBF10B504460846FFF7A6FF35
:1047BC00204602F0DFFFBDE81040FFF7C7BF38B559
:1047CC000C4605460846FFF789FF2046FFF78EFF8B
:1047DC002046FFF793FF284602F0CCFFFFF7A6FF19
:1047EC00FFF7ACFFBDE83840FFF7B0BF08B504F0E9
:1047FC0045FB03F0DEFB88B904F040FB084903F0ED
:10480C008BFB04F03BFB03F08BFB642002F0B2FF4C
:10481C0004F034FBBDE8084003F0CBBB08BD00BF7F
:10482C00A086010008B504F029FBBDE8084003F0A0
:10483C007DBB000008B5074B074800226FF0004114
:10484C00DA61FFF761FD04F02FF90449BDE8084077
:10485C0003F015BE08C90320E4C903209B990D0081
:10486C00254A2DE9F3410346044600F1180116468A
:10487C0053F8040B42F8040B8B42F9D100271F4D5F
:10488C0037762068616877762B4602AE03C319230E
:10489C0046F8043D7C22314620462F72FFF785FDF9
:1048AC00314668727C222046FFF77FFD31468046F8
:1048BC007C222046FFF779FD3146E8607C222046B9
:1048CC00FFF773FD0199288286B23246214405F127
:1048DC00120004F03FFDAB19314605F112009F7434
:1048EC00FFF77AFD0028B8BF4042C8EB00035842DE
:1048FC00584102B0BDE8F08138D2032054CA0320DD
:10490C00F0B5054695B00E4601682B4804F0E1FC65
:10491C002A4A2B49002313702A4A04A8137003F067
:10492C0087FE29460CA8049C03F0C1FE7C2108A834
:10493C0003F0E1FE08A90CA803F005FF3146074679
:10494C0010A803F075FE10A9384603F0FCFE1E4BB0
:10495C00026819781D4B1B780B438DF800302146EB
:10496C003C2302A803F0DAF8039C7CB16368013B9A
:10497C0063605BB9236820469B689847A368013B3A
:10498C00A3601BB923682046DB68984710A803F086
:10499C0008FE08A803F005FE0CA803F002FE04A80C
:1049AC0003F0FFFD04F080F800962B68084A012103
:1049BC0003F08FFD15B0F0BDB0D9032084D30320D4
:1049CC00BE990D00FCD9032070C903209DC903209A
:1049DC00D3990D007FB504F067F81549154E164DA7
:1049EC0003F04DFD02F016FE0446B0B10123337006
:1049FC0002F0F2FB114B124900F51C5010301860FC
:104A0C00002368462B7003F013FE68460D49FFF730
:104A1C0077FF684603F0C5FD08E004F045F80A4945
:104A2C0003F02DFD094B34702C701C7004B070BD5C
:104A3C00F2990D0095C9032028D30320C8C903207F
:104A4C00079A0D00DCD903201A9A0D0021CA032005
:104A5C00F8B50C4F06460024251D3D442946182266
:104A6C00304604F062FC014638B92846EC2204F0CA
:104A7C00D8FBBDE8F840FFF7EFBCEC34B4F56C7F25
:104A8C00EAD1F8BD86D30320F0B50024084F445476
:104A9C00851A1446A01A884204F1010007DAE65D73
:104AAC009E4208BF00262E5501D00446F2E7F0BD09
:104ABC00FCD90320034BEC2202FB00300021043014
:104ACC0004F0AFBB86D3032008B50A4B0020187046
:104ADC00FFF7F0FF0120FFF7EDFF0220FFF7EAFFE1
:104AEC000320FFF7E7FF044BFF229A70BDE8084054
:104AFC00FFF7B2BCCCC9032086D3032038B5074CD2
:104B0C000749EC22054602FB0040043004F07EFB12
:104B1C00A570BDE83840FFF79FBC00BF86D30320CB
:104B2C0038D2032010B588B03A230A7807930B8942
:104B3C0006932C230593CC88049403938C880294BD
:104B4C000193044C498800912044034902F0F2FD82
:104B5C0008B010BD3BD70320499A0D002DE9F34155
:104B6C00154FEC26464341217C23BA198DE80A00E7
:104B7C0004321249124802F0DDFD0025044606F10C
:104B8C001E08AB193B449B7F412B02D0313B012BC0
:104B9C0006D808EB050120463944FFF7C3FF04444F
:104BAC000A35D22DEDD1064B1C440120002304F80C
:104BBC00013C02B0BDE8F08186D303205E9A0D0063
:104BCC003BD7032010B5084B9C78FF2C1ABF01343F
:104BDC0004F0030400242046FFF790FF2046BDE8B4
:104BEC001040FFF7BBBF00BF86D3032070B5164B38
:104BFC001B780E4633BB154B1A18927C7C2A21D09D
:104C0C003A2A1CD00446B4F5FA6F1ADA1A19927CB7
:104C1C003A2A06D1221A01460D48FFF7B3FB306041
:104C2C000FE02C2A04F1010507D1221A014608488D
:104C3C00FFF7A8FB3060284670BD2C46E3E7013037
:104C4C0070BD204670BD00BFD1D9032054CA0320CB
:104C5C0066CA032030B50029054685B019481A4CA0
:104C6C0001D1016018E0194BDA684FF47A7303FB39
:104C7C0002F204DA4FF0FF33026023600DE00368A8
:104C8C00194464230160594391FBF2F19942A8BF86
:104C9C0019462368994200D0216003F005FF0C4BA4
:104CAC00196A0A2391FBF3F203FB12130293236894
:104CBC0001920093074A2B68012103F00AFC05B00E
:104CCC0030BD00BFA0C903202CD3032054CA03203D
:104CDC0008C903206A9A0D00F0B516464A1C85B027
:104CEC0007460D4602D133600C4621E00A462C21C2
:104CFC0003F05FFD431C04460CD12A463946684636
:104D0C0003F086FD684603F08AFD3060684603F0C8
:104D1C0048FC0DE003462A463946684603F058FD28
:104D2C00684603F07CFD3060684603F03AFC0134C1
:104D3C00204605B0F0BD0000124A134908B5002307
:104D4C001370124A0B701370114A0B721370114AC4
:104D5C001370114A1370114A1360114A1360114AEF
:104D6C0013701376104A1370137653760F4A137020
:104D7C0082F86E3202F030FA0D4B00F56A4060306A
:104D8C00186008BD6FC9032054CA03206DC90320E5
:104D9C0028D3032084D303206CC90320A0C903208B
:104DAC002CD30320DCD9032038D203203BD703209B
:104DBC00A4C9032010B507220D490E4804F0B5FA1A
:104DCC00044670B903F070FE0B4903F058FB0B4B13
:104DDC0001201C70FFF738FCFFF7AEFF084B1C607E
:104DEC0010BD03F061FE0749BDE8104003F047BB5E
:104DFC00909A0D00B0C90320989A0D0050CA032058
:104E0C00A4C90320A69A0D0010B507220D490E481F
:104E1C0004F08BFA044670B903F046FE0B4903F01C
:104E2C002EFB0B4B01201C70FFF70EFCFFF784FFD1
:104E3C00084B1C6010BD03F037FE0749BDE810405D
:104E4C0003F01DBB909A0D00B0C90320BA9A0D0057
:104E5C00D9C90320A4C90320C99A0D001FB5174C4A
:104E6C0003F022FE214603F00AFB154B01221A70B7
:104E7C0002F0B2F9134B00F51C50103018602146AB
:104E8C00684603F0D5FB4FF0FF316846FFF7E2FEB2
:104E9C00684603F086FB0C49684603F0C9FB0B49D6
:104EAC006846FFF72DFD684603F07BFBFFF7A2FB7E
:104EBC00074B00221A7004B010BD00BFBA9A0D0047
:104ECC00D9C9032068C90320DD9A0D0038D203200C
:104EDC0021CA03201FB503F0E7FD164903F0CFFAF2
:104EEC00154B01221A7002F077F9144B144900F596
:104EFC001C5010301860684603F09AFB4FF0FF31DD
:104F0C006846FFF7A7FE684603F04BFB0D49684661
:104F1C0003F08EFB0C496846FFF7F2FC684603F081
:104F2C0040FBFFF767FB094B00221A7005B05DF8D8
:104F3C0004FB00BFE99A0D0050CA0320C4C903202A
:104F4C00F89A0D00069B0D0038D2032021CA0320CD
:104F5C0070B50E460446154603F0CCFE012E05D165
:104F6C0029462046BDE8704003F018BF70BD70B5EF
:104F7C000E460446154603F0BDFE012E05D129460A
:104F8C002046BDE8704003F0C6BE70BD30B50022AF
:104F9C008BB001215548564D02F0C6FA002304226D
:104FAC005449554802F00EFB544A5549554802F0F5
:104FBC0095FC06A802F036FB06A9284603F082FBF6
:104FCC0006A803F0EEFA294602A803F070FB4E493E
:104FDC0002A803F0C4FB0024014606A803F067FBFB
:104FEC0023462246494901940094069802F02AFB74
:104FFC0006A803F0D6FA02A803F0D3FA294602A8B1
:10500C0003F055FB424902A803F0A9FB014606A890
:10501C0003F04DFB224623463E490194009406982A
:10502C0002F010FB06A803F0BCFA02A803F0B9FAD0
:10503C00394B0221188803F05DFE384B0221188889
:10504C0003F058FE364B012211461888FFF78FFFEC
:10505C00344B2146188803F04DFE334B22461888FA
:10506C000121FFF775FF314B224618880121FFF70C
:10507C006FFF2F4B224618880121FFF769FF2D4B3C
:10508C002146188803F036FE2B4B2146188803F076
:10509C0031FE2A4B2146188803F02CFE284B224661
:1050AC0018880121FFF763FF264B2246188801213F
:1050BC00FFF75DFF244B224618880121FFF757FFAD
:1050CC00224B802218880121FFF742FF204B2246F9
:1050DC0018880121FFF73CFF1E4B2246012118883E
:1050EC00FFF736FFFFF7DAF90BB030BD34D30320EE
:1050FC0074D303203BD70320129B0D001B9B0D0088
:10510C00A16A0D00BD780D00249B0D000D410D0012
:10511C00499B0D00D1410D006CC8032044C80320ED
:10512C0070C8032074C803203CC8032050C8032057
:10513C0058C8032064C8032040C803205CC803205F
:10514C0078C8032068C803204CC8032054C8032027
:10515C0060C8032048C8032008B5FFF717FF03F009
:10516C00A3FC4FF4E13103F093FC034B01221A70C2
:10517C00024B00221A6008BD3AD70320D4C9032081
:10518C0030B5144B144D1A7885B01C4622B102F080
:10519C0023F82B6883421AD202F01EF800F5EA407D
:1051AC003030286041F2883002F0E4FA02F032FA32
:1051BC0068B1012309492370684603F039FA084B9A
:1051CC0068461968FFF79CFB684603F0EAF905B0DE
:1051DC0030BD00BF6EC90320D4C903206B9B0D00EA
:1051EC0074D3032007B5009313460A46012103F03C
:1051FC0070F903B05DF804FB38B50A4B1B78054613
:10520C000C4633B103F050FC23462A460649FFF7FF
:10521C00E9FF064B2A4621461878BDE8384003F0D2
:10522C003FBB00BF51CA03207B9B0D0060C803200D
:10523C0073B5044603F022FE214602F0ACFE03F0E7
:10524C001DFE0021FEF7EDFF064603F017FE0021C0
:10525C0002F0A8FE054630B103F026FC2B46324680
:10526C001549FFF7BFFF03F009FE2146042202F0A7
:10527C008FFE03F003FE03685B699847044603F056
:10528C00FDFD03685B6998470C4B1B78054643B1E1
:10529C0003F00AFCE3B20093094AEBB2012103F0DC
:1052AC0018F96A0704D4E0B2C31E5842584100E012
:1052BC00002002B070BD00BFAD9B0D0051CA032091
:1052CC00CE9B0D007FB5124B1C680D46041B064689
:1052DC001049684603F0ACF984EAE473A3EBE47379
:1052EC006B43684646F2A81193FBF1F1FFF7B2FC51
:1052FC00684603F056F903F0D7FB234632460649BD
:10530C00FFF770FF29462046FFF732F904B070BD55
:10531C00D4D90320E49B0D00FF9B0D004FF47A7150
:10532C0044F65710FFF7CEBF4FF47A7142F6302097
:10533C00FFF7C8BF0A46012103F0CBB813460A4653
:10534C00012103F0C6B8000070B5044601F044FF1B
:10535C000E4D84F30804064644F620622146288844
:10536C0003F042FD002C14BF01230023EC602B72D0
:10537C0008D0074B1B782BB103F096FB224605494E
:10538C00FFF7DCFF01F028FF801B70BD08C903206C
:10539C0051CA03202A9C0D0008B56FF00041064845
:1053AC00FEF776FF0020FFF7CFFF03F07DFB0349EC
:1053BC00BDE8084003F063B8E4C90320419C0D002C
:1053CC0038B5134C0021208803F0E8FCA08803F0CA
:1053DC00CEFCE1680546208803F0E0FC25B9FFF718
:1053EC00DBFF2562A56211E02846FEF7A3FF05222C
:1053FC0000EBC003B0F5167F93FBF2F303F5A0733B
:10540C002062A36202DDFFF7C7FF0025284638BDE6
:10541C0008C903202DE9F0432F4E8BB0F56801F03D
:10542C00DBFEF769C7EB0009B9F57A7F8046344695
:10543C004ED3FFF7C5FFC6F81C808046002847D026
:10544C0017B97761B76143E0336A776AB569E26A85
:10545C00FF1A4FF47A7107FB09F393FBF1F31D4428
:10546C00B5617669636BBE1B6B434E437A43216B0C
:10547C00A56B92FBF1F193FBF5F56A18E56B236CC8
:10548C0096FBF9F6754395FBF3F5144B1B78154415
:10549C00EBB103F009FBD4F820E0636A089507969A
:1054AC00A16906910A2293FBF2F102FB11330393DB
:1054BC009EFBF2F302FB13E202910192009305971B
:1054CC00CDF810904346064A012103F002F86761BB
:1054DC0028460BB0BDE8F08308C9032051CA03204D
:1054EC00849C0D0010B501F077FE0A4B1B78044626
:1054FC001BB9FFF78FFFFFF727FF074B188803F047
:10550C0023FC431E58425841044B187001F064FEB2
:10551C00001B10BD6CC9032044C80320D1D9032043
:10552C002DE9F047DFF83CA005460E4690461F4695
:10553C000024C0F10009444512DA31462846FFF731
:10554C0017F80FB1FFF7CEFF31464846FFF710F8BA
:10555C000FB1FFF7C7FF9AF800300BB90134EAE737
:10556C00BDE8F087D1D90320F8B5114F04460025CA
:10557C004FF4FA7690FBF6F6B54209DAFFF7B2FF74
:10558C00C0F5FA7002F0F6F83B7883B90135F3E711
:10559C004FF4FA7294FBF2F302FB1344FFF7A2FFF1
:1055AC00844204DD201ABDE8F84002F0E3B8F8BDEF
:1055BC00D1D9032010B50120FFF718F918B9BDE8AF
:1055CC001040FFF72FB903F06FFA0E4902F057FFA6
:1055DC00002403F053FC214602F0E1FC03F04EFCE6
:1055EC000021FEF71EFE03F049FC02F0DFFC28B997
:1055FC0003F05AFA22460449FFF7A0FE01347F2C2F
:10560C00E7D1DCE7ED9C0D000B9D0D0013460A461F
:10561C00012102F05EBF00002DE9F347444C2378D2
:10562C000646884615462BB103F03EFA32464149F0
:10563C00FFF7ECFF03F022FC294602F0B0FC03F06C
:10564C001DFC0021FEF7EDFD824603F017FC022144
:10565C00FEF7E7FD074603F011FC012102F0A2FC66
:10566C00814650B1574403F01FFACDF804900097CF
:10567C003346314A012102F02CFF03F0FFFB29468F
:10568C0002F08DFC03F0FAFB0621FEF7CAFD824600
:10569C0003F0F4FB03685FFA88F19B6898470746B0
:1056AC0003F0ECFB012102F07DFC814650B1574424
:1056BC0003F0FAF9CDF80490009733461E4A012105
:1056CC0002F007FF03F0DAFB294602F068FC03F056
:1056DC00D5FB0621FEF7A5FD074603F0CFFB002105
:1056EC0002F060FC064630B103F0DEF933463A4670
:1056FC001249FFF777FD03F0C1FBE9B2012202F07A
:10570C0047FC054603F0BAFB03685B6998472378AE
:10571C0006464BB103F0C8F90196CDF800802B4634
:10572C00074A012102F0D5FE02B0BDE8F08700BFA8
:10573C0051CA03202A9D0D00489D0D00AD9B0D0004
:10574C006F9D0D002DE9F7435A4D5B4EDFF89C81A0
:10575C00DFF8749101232B7003F0A6F9574902F07E
:10576C008EFE03F019F94FF4165103F00BF903F008
:10577C009BF9534902F083FE0021308803F0CBFAE9
:10578C0001F02AFD00F59C5403F08EF94D4902F00E
:10579C0076FE0834B8F8000003F0D6FA074603F09A
:1057AC0083F92E2102F05CFE01F016FDC9F8000011
:1057BC0001F018FFC82001F0DDFF012F424F03D08C
:1057CC0001F00AFDA042E5D303F06EF9804603F028
:1057DC00E3F803681B699847002814BF59224E222E
:1057EC003A494046FFF712FF0121308803F093FA43
:1057FC0003F05AF9364902F042FE03F0CDF8036883
:10580C001B69984748B901F0E7FC844205D901F0BF
:10581C00E3FC386001F0E6FEEFE7642001F0AAFF3C
:10582C0003F042F92B492C4E02F029FE002403F020
:10583C003BF92E2102F014FE03F0AEF803685B690D
:10584C009847431C1CBF3055013403F0A5F803687E
:10585C001B69984708B1172CE9DD03F025F902F014
:10586C0002FE172C1C4A0CDC1C4B114603F11800D1
:10587C0053F8046B41F8046B8342F9D1184B0021A7
:10588C0019700026167603F00FF9134B154A009485
:10589C00012102F01EFE03F07FF803F076F803F00E
:1058AC0003F91149FFF746FD20462E7003B0BDE801
:1058BC00F08300BF22CA032070C80320929D0D0004
:1058CC00A59D0D00BC9D0D0018E70320CD9D0D007E
:1058DC00F69D0D00579E0D00DCD903200C9E0D008B
:1058EC0021CA0320259E0D003D9E0D0074C8032087
:1058FC0070B58EB00025014606460AA80795089596
:10590C00099502F0D4FE2B4606AA29460AA8FFF7F1
:10591C00E3F904460AA802F044FE069B013B202B47
:10592C0000F27182DFE813F02100240028005700F8
:10593C005D007B0080009B00A000C200E30005011D
:10594C00260148016C0172018C019201A301A60190
:10595C00A901AC01B0016F026C02CE01EC01EF01A8
:10596C002F0236026F026F023A02FFF7ADF84AE2DD
:10597C000120FEF769FE43E231460AA802F097FEC9
:10598C00002307AA21460AA8FFF7A6F904460AA88D
:10599C0002F007FE31460AA802F089FE4FF47A7332
:1059AC0008AA21460AA8FFF797F90AA802F0F9FD00
:1059BC0008990798B64CFEF739FE03F075F8B54B0D
:1059CC00B54A1B680193236800930121079B02F0E1
:1059DC0080FD246818E20020FEF736FEFFF79EFCDF
:1059EC000025AE4B31460AA85D7602F060FE01231D
:1059FC0007AA21460AA8FFF76FF90AA802F0D1FD01
:105A0C00A74B079CB6221A60A64BFF221A60A64B26
:105A1C0001221A70A54B1C60A54B1D60F4E1FEF72A
:105A2C0029FD02F015FFB3E131460AA802F03FFE52
:105A3C0007AA21464FF4B9730AA8FFF74DF90AA833
:105A4C0002F0AFFD03F030F89A4B196A0A2391FB70
:105A5C00F3F203FB12139849FFF7C4FB24E0FEF7A3
:105A6C0011FD964B5C78CFE131460AA802F01FFE7F
:105A7C004FF4FA7307AA21460AA8FFF72DF904463A
:105A8C000AA802F08EFD31460AA802F010FE21464B
:105A9C00FF2308AA0AA8FFF71FF90AA802F081FD44
:105AAC0008990798FEF767FE079CADE131460AA8F6
:105ABC0002F0FDFD07AA4FF4FA7321460AA8FFF77E
:105ACC000BF904460AA802F06CFD31460AA802F054
:105ADC00EEFD2146FF2308AA0AA8FFF7FDF80AA845
:105AEC0002F05FFD08990798FEF751FE1FE0314662
:105AFC000AA802F0DCFD4FF4FA7307AA21460AA8A3
:105B0C00FFF7EAF804460AA802F04BFD31460AA852
:105B1C0002F0CDFD2146FF2308AA0AA8FFF7DCF806
:105B2C000AA802F03EFD08990798FEF73CFE089C77
:105B3C006AE131460AA802F0BAFD07AA4FF4FA73DB
:105B4C0021460AA8FFF7C8F804460AA802F029FD66
:105B5C0031460AA802F0ABFD2146FF2308AA0AA889
:105B6C00FFF7BAF80AA802F01CFD08990798FEF78F
:105B7C0026FEDCE731460AA802F099FD07AA4FF48D
:105B8C00167321460AA8FFF7A7F804460AA802F0E4
:105B9C0008FD31460AA802F08AFD21464FF47A73BB
:105BAC0008AA0AA8FFF798F80AA802F0FAFC0899C4
:105BBC000798FFF721FB77E731460AA802F077FD3B
:105BCC0007AA002321460AA8FFF786F804460AA86C
:105BDC0002F0E7FC31460AA802F069FD21464FF4B9
:105BEC007A7308AA0AA8FFF777F80AA802F0D9FC7A
:105BFC000020FEF729FD08990798FFF763FBFDE0ED
:105C0C000020FEF721FDFFF78FFBF7E031460AA8D5
:105C1C0002F04DFD4FF4B97307AA21460AA8FFF70D
:105C2C005BF80AA802F0BDFC079C40F25623621EEA
:105C3C009A4200F2E9801F4B00225C62DA61E3E0D9
:105C4C000020FEF701FDFFF769FBD7E031460AA8FB
:105C5C0002F02DFD802307AA21460AA8FFF73CF885
:105C6C000AA802F09EFC0798FEF71CFD1CE7FEF745
:105C7C0029FD8DE0FEF7DEFD8AE0FFF78DFB87E066
:105C8C000F4B01241C70BFE00D4B1D70BBE000BF1F
:105C9C00D4D90320E0C90320749E0D0038D2032010
:105CAC00ACD9032024D3032020CA0320A8C9032085
:105CBC00ACC9032008C90320A39E0D0086D3032082
:105CCC0051CA03200020FEF7BFFC31460AA802F09F
:105CDC00EEFC07AA21464FF4FA730AA8FEF7FCFF64
:105CEC000AA802F05EFC524B079A524801241C7021
:105CFC00514B6FF000411A600022FEF705FB83E068
:105D0C00FFF758FC44E00020FEF79EFCFFF706FB73
:105D1C0031460AA802F0CBFC4FF4FA6307AA2146DD
:105D2C000AA8FEF7D9FF04460AA802F03AFC31464D
:105D3C000AA802F0BCFC052308AA21460AA8FEF713
:105D4C00CBFF0AA802F02DFC3C4A002313703C4AFE
:105D5C0053763C4BB6221A603B4BFF221A603B4BEE
:105D6C0001221A70089B9918394A116013B1079ACD
:105D7C0092FBF3F3374A384813606FF0004100226E
:105D8C00FEF7C2FA04E06FF000413348FEF780FAE8
:105D9C00012439E0FFF7D6FC044635E031460AA869
:105DAC0002F085FC192307AA21460AA8FEF794FFE6
:105DBC0004460AA802F0F5FB31460AA802F077FC6B
:105DCC00962308AA21460AA8FEF786FF04460AA8CD
:105DDC0002F0E7FB31460AA802F069FC0A2309AA83
:105DEC0021460AA8FEF778FF0AA802F0DAFBFEF7B4
:105DFC000FFC07A8002307C8FFF792FBFEF7FAFB7E
:105E0C00164B1C6800E0002402F04EFE00230593A4
:105E1C000493099B0393089B0293079B01930094A3
:105E2C00069B0F4A012102F054FB20460EB070BDB8
:105E3C00D8C90320ECC8032098C9032051CA0320F9
:105E4C0038D20320ACD9032024D3032020CA03204A
:105E5C00A8C90320ACC903204CC90320D4D9032002
:105E6C00B89E0D0038B51E4B188802F06DFF1D4B07
:105E7C00021E0CBF0121002119701C461ED10121EC
:105E8C00194801F051FB194B1B6AB3F5B47F08DDBF
:105E9C004FF4C8710846FFF7AFF9154B01221A7081
:105EAC0012E005254FF4C871C820FFF7A5F94FF48F
:105EBC00C87001F05FFC013DF4D105E04FF4967120
:105ECC004FF4C870FFF798F902F0EEFD23780949FA
:105EDC00002B14BF59224E22FFF798FB38BD00BF90
:105EEC0044C8032021CA032034D3032008C903204B
:105EFC0094C90320029F0D0010B51B4B1A7892B168
:105F0C001A4C227852B1002222701A7002F0CCFD89
:105F1C00174902F0B4FAFFF7A5FF04E0322001F0B4
:105F2C0029FC01232370134B1C785CB101F054F94C
:105F3C00114B1B68984216D902F0B6FD0F4902F0BE
:105F4C009EFA0AE00E4B1A786AB11C700D4B1B7846
:105F5C004BB1FFF7F7FB182803D1BDE81040FEF753
:105F6C0039BD094B1C7010BDD2D903209EC903202A
:105F7C00189F0D0095C90320C8C90320309F0D0040
:105F8C0094C9032021CA032028D3032013460A46B0
:105F9C00002102F09EBA00002DE9F3470546174692
:105FAC0098460E4602F06AFF294601F0F4FF02F013
:105FBC0065FF0021FEF735F9824602F05FFF832171
:105FCC00FEF72FF9044602F059FF012101F0EAFF18
:105FDC00814660B1544402F067FDCDF80490009402
:105FEC002B46754A012102F074FA0020E0E001F022
:105FFC00F3F800F59C5909F108092846FFF718F940
:10600C0070B901F0E9F8484503D2642001F0B2FB05
:10601C00F3E702F049FD2A466849FFF7F7FAE4E78F
:10602C00674C23782BB102F03FFD2A466549FFF7F8
:10603C00EDFA02F023FF294601F0ADFF02F01EFF3E
:10604C000021FEF7EEF8824602F018FF002101F065
:10605C00A9FF814630B102F027FD4B4652465A4902
:10606C00FFF7C0F802F00AFF29460A2201F090FF60
:10607C0002F004FF03685B699847054602F0FEFED8
:10608C0003685B699847237881464BB1EDB202F007
:10609C000BFD00955FFA89F34C4A012102F019FAC5
:1060AC0002F0ECFE03685B6998472378C5B22BB10C
:1060BC0002F0FAFC2A464649FFF768FF02F0DEFEC2
:1060CC0003685B6998472378814633B102F0ECFC96
:1060DC005FFA89F23E49FFF759FF4FEA092909F4A3
:1060EC007F4914234D4495FBF3F50A9B433D1D80DA
:1060FC0002F0C4FE03685B6998472378C5B22BB1E4
:10610C0002F0D2FC2A463249FFF740FF02F0B6FEFD
:10611C0003685B69984723785FFA80F92BB102F02A
:10612C00C3FC4A462A49FFF731FF05EB09253580A8
:10613C0002F0A4FE03685B6998472378C5B22BB1C3
:10614C0002F0B2FC2A462249FFF720FF02F096FE2D
:10615C0003685B6998472378C6B22BB102F0A4FCA4
:10616C0032461B49FFF712FF05EB06253D8002F076
:10617C0085FE03685B6998472378C5B22BB102F0A2
:10618C0093FC2A461249FFF701FF02F077FE0368E1
:10619C005B6998472378C6B22BB102F085FC324676
:1061AC000B49FFF733FA05EB0625A8F80050012040
:1061BC0002B0BDE8F08700BF759F0D00D59F0D00A4
:1061CC0051CA0320A59F0D00AD9B0D00CE9B0D0069
:1061DC00D19F0D002DE9F04F8DB041280746099154
:1061EC0014460AD031280BD032280CD002F05CFCBB
:1061FC003A465449FFF70AFAA0E04FF0740A04E05B
:10620C004FF0750A01E04FF0760A4F4E737E15255C
:10621C00B3FBF5F005FB1035013373764B4B0122C4
:10622C001A70FEF74FFA21463846FEF76FFAEDB2B8
:10623C0064200A2401F09EFA04FB05645246099975
:10624C003846FFF7E9F94FF000090523A776E37606
:10625C00CDF82090C8464E464D46E37E994504F154
:10626C001B0B2CDA4FF0010B0AAB00930BAA0DF1B0
:10627C002E030DF12A015046FFF78EFE70B1BDF8CA
:10628C002A30089A1D44BDF82C301E44BDF82E301F
:10629C009844BDF828301A4408920DE002F004FC32
:1062AC00CDF800B03B462A4A01210BF1010B02F05C
:1062BC0010F9BBF1040FD7D109F10109CDE796FB19
:1062CC00F3F6E683B6B295FBF3F57643A583ADB250
:1062DC0098FBF3F005FB0565208480B2089A92FBCD
:1062EC00F3F900FB0050A4F82290FEF789F805465C
:1062FC00ADB202F0D9FB0795238C0693E38B059383
:10630C00A38B04931FFA89F909EBC909052399FB9F
:10631C00F3F320339BB20393638C02939BF800300E
:10632C000193099B00930B4A3B46012102F0D1F8E3
:10633C00064B002238461A70FEF710FA0DB0BDE875
:10634C00F08F00BFF09F0D0038D203206CC90320E2
:10635C000CA00D003BA00D002DE9F04105460E46AA
:10636C00144600F039FF07460120FEF73FFAE0B172
:10637C00324629464120FFF72DFF0CB1FFF7B2F84A
:10638C00324629463120FFF725FF0CB1FFF7AAF85A
:10639C00324629463220FFF71DFF0CB1FFF7A2F859
:1063AC0002F082FB02F05FF804E002F07DFB0B4987
:1063BC0002F065F8FEF736FA094B1B7863B102F070
:1063CC0073FB044600F008FF064AC31B012120465C
:1063DC00BDE8F04102F07DB8BDE8F0817AA00D0077
:1063EC0051CA0320ADA00D00F0B5904B1D7889B0BB
:1063FC000C461E46002D40F01681042800F0C0808B
:10640C0043DC012800F0868011DC002840F0078175
:10641C00874904A802F00CF941F2707104A8FEF748
:10642C0019FC04A802F0BDF84FF47A7083E002283E
:10643C0000F08480032840F0F28001A92046FEF78A
:10644C00D5FB02A9FEF7D2FB03A9FEF7CFFB7949D6
:10645C00044604A802F0ECF8019B83EAE371A1EB7B
:10646C00E371029B5943039B04A84B4346F2A811CA
:10647C0093FBF1F1FEF7EEFB04A802F092F801A8F1
:10648C00012307C8FFF74CF8C9E0142800F0A980D5
:10649C0034DC0A2800F08C800B2840F0C08001A965
:1064AC002046FEF7A3FB02A9FEF7A0FB62490446B7
:1064BC0004A802F0BDF8614B1968A1F59241573957
:1064CC000029B8BF4942192304A891FBF3F1FEF748
:1064DC00C1FB04A802F065F8FEF720FF584904A898
:1064EC0002F0A6F841F2707104A8FEF7B3FB04A801
:1064FC0002F057F82A46029901986FE0152800F02F
:10650C008780632840F08B8002F0CEFA4D4901F071
:10651C00B6FF86E001A92046FEF768FB4A4904460F
:10652C0004A802F085F8019904A8FEF793FB04A8CF
:10653C0002F037F80198FFF717F872E001A920462E
:10654C00FEF754FB02A9FEF751FB4049044604A890
:10655C0002F06EF8019B83EAE371A1EBE371029BFD
:10656C0004A84B4346F2A81193FBF1F1FEF772FB22
:10657C0004A802F016F802990198FDF7F9FF4EE015
:10658C0001A92046FEF732FB02A9FEF72FFB30498A
:10659C00044604A802F04CF8019904A8FEF75AFB33
:1065AC0004A801F0FEFF02990198FEF725FE36E0E3
:1065BC0002F07AFA2749FEF7BDFEFEF7AFFE20493E
:1065CC0004A802F035F841F2707104A8FEF742FB02
:1065DC0004A801F0E6FF2A46FF21B620FFF7BCFE17
:1065EC001FE001A92046FEF701FB044602F05CFA0D
:1065FC00019A1949FEF7A2FE671C019BAB4210DD04
:10660C00337873B9384600F02BF801350446F4E7BB
:10661C0002F04AFA114901F032FF604204E0FEF741
:10662C0061FF601C00E0084609B0F0BDD1D9032021
:10663C00BEA00D00D6A00D0016A10D00D4D90320CC
:10664C000EA10D0047A10D00C7A00D00CFA00D009D
:10665C00E2A00D00EAA00D0020A10D0039A10D0053
:10666C0030B585B003A90546FEF7C0FA014665B9F9
:10667C00039B53B1184B01221A7002F015FA1749FB
:10668C0001F0FDFE4FF0FF3023E00398FFF7ACFE66
:10669C00044602F009FA039B019300942B46104A1E
:1066AC000D4D012101F015FF039B632B0DD0002C28
:1066BC000BDD2B784BB903A92046FEF797FA014660
:1066CC000398FFF791FE0446EEE784EAE470A0EB32
:1066DC00E47005B030BD00BFD1D9032053A10D002B
:1066EC006BA10D001FB52B4B2B49012268461A706C
:1066FC0001F09EFF68460021FEF7ACFA684601F0F7
:10670C0050FF00F07FFF4FF4FA6001F033F800F017
:10671C0081FF044628B102F0C7F9204901F0AFFE11
:10672C00EFE7FDF791FF4FF416714FF47A70FEF717
:10673C0063FD40F2DC5001F01DF8FEF72DFE214602
:10674C00204600F0F1FC2046FFF78AFF214601208D
:10675C0000F0EAFCFEF736FAFEF76CF800F04AFFA0
:10676C004FF4FA6001F006F800F054FF28B902F07B
:10677C009BF90B4901F083FEF0E70A4B0A4A1B78A0
:10678C000A4883F0010313700121002200F0CCFEB3
:10679C0004B010BD6FC903208FA10D009CA10D008A
:1067AC009EA10D00D1D903209CC9032078C90320D8
:1067BC0073B52E4B1A786AB300221A702C4D2D4EDD
:1067CC00FEF7EAFD2C462B68002B17DD02F06CF966
:1067DC0032682949FEF7B2FD284B1968284B002274
:1067EC001868FFF7B9FD274B186818B14FF47A7188
:1067FC00FDF7BEFE2368013B2360E4E7FDF7FAFEDC
:10680C006FF000412048FDF743FD02B0BDE8704039
:10681C00FEF710B81D4B197829B31A7002F044F921
:10682C00144D044600F0D8FC2B6800930346204618
:10683C00174C184A012101F04CFE4FF47A71206874
:10684C00FDF796FE2A682368134449F2A832934256
:10685C0009DD6FF000411048FDF71AFD02B0BDE8EC
:10686C007040FDF7C7BE02B070BD00BF20CA032048
:10687C00A8C90320D4D90320A0A10D0024D3032040
:10688C00ACD90320ACC903204CC90320D8C90320C0
:10689C0098C90320B3A10D00ECC8032013460A4687
:1068AC00012101F016BE000007B502F0FDF82F49DA
:1068BC0001F0E5FDFEF77EFE02F0F6F82C4901F042
:1068CC00DEFD0120FDF7C0FE02F0EEF8294901F0D3
:1068DC00D6FDFF214FF4FA70FDF74DFF4FF4FA701F
:1068EC0000F048FFFF214FF4FA70FDF750FF4FF412
:1068FC00FA7000F03FFFFF214FF4FA70FDF753FFE1
:10690C0002F0D2F81C4901F0BAFD4FF4A571FA203F
:10691C00FEF772FCFEF710FAFFF7A4FA174B1849B2
:10692C001888002200924FF0FF3301F047FB02F071
:10693C00BBF8144B14491A68FFF7B0FF02F0B4F817
:10694C00124A917813780191527800920121104AE1
:10695C0001F0BFFDFDF76EFF00F03EFC0D4B00F5A6
:10696C009C500830186003B05DF804FBDFA10D00EB
:10697C0005A20D0015A20D00E2A00D0044C80320D5
:10698C00E5400D0074D3032025A20D0086D303200F
:10699C0033A20D00F8D9032010B502F085F80F4989
:1069AC00FEF7C8FC0E4B0F490F4800221A70072245
:1069BC0002F0BBFC044650B902F076F80B49FEF726
:1069CC00B9FC0B4B1C70BDE81040FFF76DBF02F01B
:1069DC006BF80849FEF7AEFC10BD00BF8CA20D0091
:1069EC006EC90320909A0D00B0C90320A9A20D0016
:1069FC003AD70320D2A20D0030B5144B85B001223A
:106A0C000C461A70054600F0E7FB114B00F59C4054
:106A1C002030186002F048F822460E49FFF73EFF7E
:106A2C002846FEF79BF802F03FF80B4901F027FDD2
:106A3C000A49684601F0FCFD21466846FDF760FFF7
:106A4C00684601F0AEFD05B030BD00BFCCC90320D7
:106A5C00D8D9032003A30D003BD7032021A30D009D
:106A6C0010B502F021F8094901F009FD084B00208E
:106A7C00EC2202FB00310C7924B10431BDE810404A
:106A8C00FFF7BABF01300428F3D110BD2DA30D00C0
:106A9C0086D3032010B58368182B11D10A4C192208
:106AAC002146002301F06DFE0023237601F0FCFF4C
:106ABC0022460649FFF7F2FEFDF78CFF012010BDC0
:106ACC004FF0FF3010BD00BFDCD903204CA30D00EC
:106ADC0070B500F081FB124B1A6882421D461AD821
:106AEC00104A0023EC2101FB032634794CB10E4BE8
:106AFC001C7894B101F0D8FF321D0C49FFF7CEFE83
:106B0C000CE00133042BEED100F066FB00F56A407B
:106B1C006030286002E0002400E00124204670BDB3
:106B2C00A4C9032086D3032051CA03206AA30D00F5
:106B3C0038B51E4B1A78D2B11D4C257855B101F0E1
:106B4C00B3FF1C4901F09BFC00232370BDE83840C7
:106B5C00FEF784B9184C23783BB301F0A5FF174915
:106B6C0001F08DFC2570BDE83840FEF7B3B9144B2D
:106B7C00197821B11A70BDE83840FFF7B3BD114B3D
:106B8C001B785BB100F028FB0F4B1B6898420CD9AB
:106B9C0001F08AFF0D4901F072FC02E0FFF798FF4B
:106BAC0018B1BDE83840FFF75BBF38BD6FC9032093
:106BBC00D1D9032086A30D009CC9032096A30D00F8
:106BCC00F5D90320CCC90320D8D90320A5A30D00E7
:106BDC0038B507220D490E4802F0A7FB054668B9E7
:106BEC000C4C01F061FF22680B49FFF757FE0B4B71
:106BFC0020681D70BDE83840FDF72ABF01F054FF36
:106C0C000749BDE8384001F03ABC00BF909A0D002E
:106C1C00B0C903204CCA0320C1A30D00CCC903206A
:106C2C00F9A30D001C4B1D491D48002270B51A70AC
:106C3C00072202F07AFB1B4C1B4DB0FA80F0400986
:106C4C00207001F031FF23781849002B14BF592212
:106C5C004E22FEF7DBFC2678AEB12868FDF700FE6D
:106C6C00064648B1124B01221A7001F01DFF2A682A
:106C7C001049FFF713FE70BD01F016FF0E4901F02D
:106C8C00FEFB267005E001F00FFF2A680B49FFF7A9
:106C9C0005FE0B4B1E7070BD95C90320909A0D001C
:106CAC00B0C9032028D303204CCA03200DA40D0027
:106CBC00F5D9032025A40D0051A40D006DA40D00E1
:106CCC0021CA032030B53A4B3A4800221A7085B0DD
:106CDC007C232021FDF7D8FE7C2302461021364868
:106CEC00FDF7D2FE354A364B111819601C4640F69A
:106CFC00C313984208DC115C232903D12F4B0022CB
:106D0C001A5401E00130F4E701F0CEFE05462B48A1
:106D1C0002F003FB23680293264C274B01930121BD
:106D2C0003460094274A284601F0D3FB2649204607
:106D3C0002F0C5FA40B101F0B7FE0094224B234A91
:106D4C00012101F0C6FB31E02149204602F0B7FADF
:106D5C0020B905B0BDE83040FFF71EBE1D492046E6
:106D6C0002F0ADFA20B905B0BDE83040FFF75ABFCC
:106D7C001949204602F0A3FA20B905B0BDE830400D
:106D8C00FEF718B81549204602F099FA20B905B05B
:106D9C00BDE83040FEF738B81149204602F08FFAB2
:106DAC0020B905B0BDE83040FFF712BF05B030BDCB
:106DBC0084D3032050D30320B0C90320FCD9032073
:106DCC004CCA032083A40D00B0D90320B8A40D0035
:106DDC006B9B0D00079A0D00069B0D00DD9A0D00B4
:106DEC0021A30D007FB5364E364C01F05DFE0368D5
:106DFC001B69984740B301F057FE03685B699847DD
:106E0C002368F05401F050FE03681B69984723680F
:106E1C00054638B10133282193FBF1F201FB123303
:106E2C002360E2E7F05401F03FFE254901F027FB17
:106E3C0023492560684601F0FBFB6846FEF758FDC8
:106E4C00684601F0AEFBD0E71F4B1B7813B1FFF780
:106E5C0039FF32E01D4B1B7813B1FEF791F905E0B9
:106E6C00FFF74AF8FFF764FEFFF7A2FC184B1A680D
:106E7C002AB100221A60FEF7CDFAFEF765FA154B1F
:106E8C001C781CB100220121134814E0134B144D43
:106E9C001B6AB3F5B47F06DA00F09EF900F59C503E
:106EAC000830286009E000F097F92B68984204D963
:106EBC000C482246012100F037FB04B070BD00BF26
:106ECC0023CA0320C0E3032084D303203AD7032032
:106EDC00DCC9032021CA032034D3032008C90320B2
:106EEC00D0C9032078C903202DE9F047674B684FC0
:106EFC00684EDFF8E0A1DFF8E09101241C70664BCE
:106F0C0086B002251D7000F08FF9282300932B46C4
:106F1C00624D019422464FF47F01384601F0EEF8A1
:106F2C0032462946384601F0EFFF00221421204654
:106F3C0000F02CFB5A4F01944FF01E080346CDF87D
:106F4C00008022464FF47F01384601F0D7F83246D4
:106F5C002946384601F0D8FF00221421204600F0C3
:106F6C0015FB504FCDF800800346224601944FF498
:106F7C007F41384601F0C2F832462946384601F0C6
:106F8C00C3FF494A494B12681A60494A1C6312688C
:106F9C005A604FF448721A614FF4B97200254FF4DD
:106FAC007A715A6264229963DD601D725D619D6124
:106FBC00DA625C63DC631C643E4BDFF820813E4F7D
:106FCC00029302AA2B465046CDF81080CDF81490AF
:106FDC00FDF72CF902A8FDF71BF93246394650464D
:106FEC00DFF8FCA001F090FF344B029302AA2B4671
:106FFC0041F288315046CDF81080CDF81490FDF751
:10700C0015F902A8FDF704F932463946504601F04D
:10701C007BFFCDF81080DFF8CC80294B029302AABD
:10702C002B464FF4FA714046CDF81490FDF7FEF85C
:10703C0002A8FDF7EDF83946224F3246404601F0E2
:10704C0063FF2149384601F0F3FA32461F493846AE
:10705C0001F05AFF1E4B0E26FF22294620461E70B9
:10706C005E709A7000F07AFA01F00AFE2B462A46FE
:10707C0042F6A23101F00CFE01F002FE2B462A462C
:10708C00314601F00DFE06B0BDE8F0879DC9032026
:10709C0000CA0320E8C8032070C90320A1410D00D9
:1070AC0030D3032074C9032048C8032008C9032027
:1070BC0064C80320CD400D00BD420D00C1400D0041
:1070CC00B5400D0074D30320B4A60D00AF850D00A0
:1070DC0086D30320E4C90320F1400D00F5400D00D8
:1070EC004CC90320ECC8032008B5024B1B689B68F5
:1070FC00019308BD4802030008B5024B1B68DB680E
:10710C00019308BD4802030008B5024B1B681B69BC
:10711C00019308BD4802030008B5024B1B685B696C
:10712C00019308BD4802030008B5024B1B68DB69DC
:10713C00019308BD4802030008B5024B1B681B6A8B
:10714C00019308BD4802030008B5024B1B685B6A3B
:10715C00019308BD4802030008B5024B1B689B6AEB
:10716C00019308BD4802030008B5024B1B68DB6A9B
:10717C00019308BD4802030008B5024B1B685B6C09
:10718C00019308BD4802030008B5024B1B689B6CB9
:10719C00019308BD4802030008B5024B1B681B6F26
:1071AC00019308BD4802030008B5024B1B689B6E97
:1071BC00019308BD3402030008B5024B1B685B68E1
:1071CC00019308BD1802030008B5024B1B68DB686D
:1071DC00019308BD1802030008B5024B1B685B69DC
:1071EC00019308BD1802030008B5024B1B689B6A8B
:1071FC00019308BD1802030008B5024B1B685B6CB9
:10720C00019308BD1802030008B5024B1B689B6C68
:10721C00019308BD1802030008B5024B1B68DB6C18
:10722C00019308BD1802030008B5024B1B681B68CC
:10723C00019308BD2C02030008B5024B1B685B6868
:10724C00019308BD2C02030008B5024B1B689B6818
:10725C00019308BD2C02030008B5024B1B68DB68C8
:10726C00019308BD2C02030008B5024B1B681B6977
:10727C00019308BD2C02030008B5024B1B685B6927
:10728C00019308BD2C02030008B5024B1B689B69D7
:10729C00019308BD2C02030008B5024B1B68DB6987
:1072AC00019308BD2C02030008B5024B1B689B6AB6
:1072BC00019308BD2C02030008B5024B1B681B6B25
:1072CC00019308BD2C02030008B5024B1B689B6F91
:1072DC00019308BD2C02030008B5024B1B68DB6F41
:1072EC00019308BD2C02030008B5024B1B681B68F8
:1072FC00019308BD2802030008B5024B1B68DB682C
:10730C00019308BD2802030008B5024B1B681B69DA
:10731C00019308BD2802030008B5024B1B689B694A
:10732C00019308BD2802030008B5024B1B68DB69FA
:10733C00019308BD2802030008B5024B1B681B6AA9
:10734C00019308BD2802030008B5024B1B685B6A59
:10735C00019308BD2802030008B5024B1B689B6A09
:10736C00019308BD2802030008B5024B1B68DB6AB9
:10737C00019308BD2802030008B5024B1B681B6B68
:10738C00019308BD2802030008B5024B1B685B6B18
:10739C00019308BD2802030008B5024B1B681B6C47
:1073AC00019308BD2802030008B5024B1B681B6D36
:1073BC00019308BD2802030008B5024B1B685B69EA
:1073CC00019308BD6402030008B5024B1B689B685F
:1073DC00019308BD6802030008B5024B1B68DB680B
:1073EC00019308BD6802030008B5024B1B681B68BB
:1073FC00019308BD2402030008B5024B1B68DB692E
:10740C00019308BD3002030008B5024B1B681B6AD0
:10741C00019308BD3002030008B5024B1B681B68C2
:10742C00019308BD3C02030008B5024B1B689B6826
:10743C00019308BD3C02030008B5024B1B68DB68D6
:10744C00019308BD3C02030008B5024B1B681B6985
:10745C00019308BD3C02030008B5024B1B685B6935
:10746C00019308BD3C02030008B5024B1B689B69E5
:10747C00019308BD3C02030008B5024B1B68DB6995
:10748C00019308BD3C02030008B5024B1B681B6A44
:10749C00019308BD3C02030008B5024B1B689B6AB4
:1074AC00019308BD3C02030008B5024B1B68DB6A64
:1074BC00019308BD3C02030008B5024B1B681B6816
:1074CC00019308BD4C02030008B5024B1B685B68B6
:1074DC00019308BD4C02030008B5024B1B681B69E5
:1074EC00019308BD4C02030008B5024B1B685B6995
:1074FC00019308BD4C02030008B5024B1B689B6945
:10750C00019308BD4C02030008B5024B1B68DB69F4
:10751C00019308BD4C02030008B5024B1B681B6AA3
:10752C00019308BD4C02030008B5034B1B68D3F84C
:10753C008030019308BD00006002030008B5024BC7
:10754C001B685B68019308BD2002030008B5024B61
:10755C001B685B69019308BD2002030008B5024B50
:10756C001B68DB6A019308BD2002030008B5024BBF
:10757C001B68DB6C019308BD2002030008B5024BAD
:10758C001B685B6D019308BD2002030008B5024B1C
:10759C001B68DB6F019308BD2002030008B5034B89
:1075AC001B68D3F88830019308BD0000200203004B
:1075BC0008B5034B1B68D3F89430019308BD000049
:1075CC002002030008B5024B1B681B68019308BD21
:1075DC004402030008B5024B1B685B68019308BDAD
:1075EC004402030008B5024B1B689B68019308BD5D
:1075FC004402030008B5024B1B68DB68019308BD0D
:10760C004402030008B5024B1B681B69019308BDBB
:10761C004402030008B5024B1B685B69019308BD6B
:10762C004402030008B5024B1B68DB69019308BDDB
:10763C004402030008B5024B1B681B6A019308BD8A
:10764C004402030008B5024B1B685B6A019308BD3A
:10765C004402030008B5024B1B68DB6B019308BDA9
:10766C004402030008B5024B1B685B68019308BD1C
:10767C004002030008B5024B1B689B68019308BDD0
:10768C004002030008B5024B1B68DB68019308BD80
:10769C004002030008B5024B1B681B69019308BD2F
:1076AC004002030008B5024B1B685B69019308BDDF
:1076BC004002030008B5024B1B689B69019308BD8F
:1076CC004002030008B5024B1B68DB69019308BD3F
:1076DC004002030008B5024B1B681B6A019308BDEE
:1076EC004002030008B5024B1B681B6B019308BDDD
:1076FC004002030008B5024B1B685B6B019308BD8D
:10770C004002030008B5024B1B681B68019308BDBF
:10771C001C02030008B5024B1B685B68019308BD93
:10772C001C02030008B5024B1B689B68019308BD43
:10773C001C02030008B5024B1B68DB68019308BDF3
:10774C001C02030008B5024B1B685B6A019308BD61
:10775C001C02030008B5024B1B68DB6A019308BDD1
:10776C001C02030008B5024B1B681B6B019308BD80
:10777C001C0203000021FFF7E9BE10B58368044624
:10778C000BB901F0E2FBC3689847A3681BB1032255
:10779C0021462046984720461021BDE8104001F0B4
:1077AC00B8BB10B50446006808B1FFF7EDFC2046E5
:1077BC0010BD10B5036804469B689847A368013B4D
:1077CC00A3602BB923682046DB68BDE8104018473E
:1077DC0010BD0B68036013B15A6801325A607047D0
:1077EC0010B50446006828B14368013B43600BB9EF
:1077FC00FFF7DFFF204610BD10B5064C00232046D6
:10780C002360FFF7B9FC2046034A0449BDE8104049
:10781C0001F07ABBC4E30320E8C80320AF770D0066
:10782C0070470020704710B51021044601F071FB21
:10783C00204610BD08B508B1FFF7F5FF08BD0022C2
:10784C00026010B54FF69C728280B1F904408480BE
:10785C008A8002680C6804600A6010BD10B504468A
:10786C000068FFF757FF204610BD38B5C468F4B167
:10787C002378022B03D104F10C00FFF7EFFF6568AE
:10788C0035B12846FCF7C4FC1021284601F041FB19
:10789C00A56835B12846FCF7BBFC1021284601F041
:1078AC0038FB20461421BDE8384001F032BB38BD0E
:1078BC0010B588B00446684600F0BAFE694604A8C4
:1078CC0000F0F5FE04A8A047044604A800F069FEE9
:1078DC00684600F066FE204608B010BDF0B51024D6
:1078EC0085B007460E46154600212246684601F033
:1078FC0098FC002269461046ADF8004002970396AA
:10790C000195FFF767FE05B0F0BD13B5044691E88D
:10791C00050000234B600B602060626001A801939E
:10792C000093FFF75DFF204602B010BDF7B50C4683
:10793C0002AD54F8043B45F8083D06460F4601A835
:10794C002146FFF746FF29463046FFF7DEFF01A828
:10795C00FFF746FF2046FFF743FF3846082101F0AA
:10796C00D8FA304603B0F0BD13B50B46044603C835
:10797C008DE8030093E8030084E803009DE803000E
:10798C0083E8030002B010BD38B500230446036041
:10799C0010200D46FCF779FB28B10123436083606E
:1079AC00024B0360C5602060204638BD94A50D00D5
:1079BC00826810B50AB901F0C8FAC368BDE8104076
:1079CC00184708B5006800F11001FFF7F1FF08BD7A
:1079DC00826810B50AB901F0B8FAC368BDE8104066
:1079EC00184708B5006800F11001FFF7F1FF08BD5A
:1079FC0038B5002383608B6804460D462BB10222F8
:107A0C009847EB68E360AB68A360204638BD000084
:107A1C00F0B589B004686846FFF711FF00238DF8B4
:107A2C0008304FF00202D4E84F3F002B03D1C4E8DA
:107A3C00412F0029F7D102D08DF8083063E014F102
:107A4C000C0503D069462846FFF7F9FEBFF35F8F9C
:107A5C0001236370002004F10803BFF35F8F53E828
:107A6C00006F43E80002002AF9D1BFF35F8F002EAC
:107A7C0049D0FFF77BFD20B129463046FFF798FF30
:107A8C003AE0314602A8FFF7B3FFE068B4F91050B2
:107A9C0008B101F027FC06901020ADF81C50FCF743
:107AAC00F4FA0546E8B1002787601820FCF7EDFAD8
:107ABC00044688B10146876002A8FFF755FF049B76
:107ACC00A268A360059B049206A9E268E36004F136
:107ADC0010000592FFF7B3FE0D4BEB600D4B2C60C5
:107AEC00AB6006A8FFF7BAFE02A8FCF791FB0022D8
:107AFC0029460948FFF742FD3046FCF789FB102167
:107B0C00304601F006FA6846FFF7A8FE09B0F0BD52
:107B1C00CF790D00457C0D0087770D002DE9F04FD6
:107B2C008BB006460F46904699469DF850A0FFF73D
:107B3C0071FD07AD834630BB4FF62E73059005A93A
:107B4C002846ADF81830FFF77AFE1420FCF79DFAA2
:107B5C00044658B10223037001234370C0F804B0EB
:107B6C00C0F808B029460C30FFF769FE30462146B4
:107B7C0040F8044BFFF708FF2846FFF76FFE05A8F7
:107B8C00FFF76CFE52E000240C2314206C60AC60F8
:107B9C000793FCF77AFA014618B1047044704460FC
:107BAC00846004A80391FFF7EFFE224B0893082092
:107BBC00FCF76BFA044628B1039B40F8043B04A97C
:107BCC00FFF707FE00955FFA8AF34A4641463846AE
:107BDC000994FFF72FFD20B9039B5B7803F0FF029C
:107BEC0083B1039B059304A906A8FFF7F2FD05A931
:107BFC003046FFF78AFE06A8FFF7F2FD04A8FFF750
:107C0C00EFFD13E04FF69C7305A903A80592ADF8A0
:107C1C001830FFF7FDFE05A8FFF720FE05A809990F
:107C2C00FFF784FE06A8FFF7DBFDDAE730460BB062
:107C3C00BDE8F08FB57D0D00022AF8B5044606D0DC
:107C4C00032A17D0012A22D10B6803601FE01820E9
:107C5C000E68FCF71AFA054650B13146FFF7C8FE1C
:107C6C003069B6F9147008B101F03CFB2861AF82A1
:107C7C0025600CE0046854B104F11000FFF7EEFD30
:107C8C002046FCF7C5FA1821204601F042F90020E5
:107C9C00F8BD38B5002383608B6804460D462BB1C4
:107CAC0002229847EB68E360AB68A360204638BDBE
:107CBC00022A70B5044606D0032A11D0012A18D125
:107CCC000B68036015E014200E68FCF7DEF905461E
:107CDC0020B13146FFF7DDFF337C2B74256008E0C3
:107CEC00046834B12046FCF793FA1421204601F0C5
:107CFC0010F9002070BD0000F0B5002387B00C46D1
:107D0C00BFF35F8F50E8006F40E80032002AF9D1D2
:107D1C00BFF35F8F002E3FD01846FFF727FC0746B6
:107D2C0020B121463046FFF753FE2EE0314601A824
:107D3C00FFF7AFFF23788DF814301020FCF7A5F96E
:107D4C000546D0B187601420FCF79FF9044678B142
:107D5C008760014601A8FFF707FE039BA268A3609A
:107D6C00049B0392E268E3609DF814300492237440
:107D7C000A4BEB600A4B2C60AB6001A8FCF748FA8D
:107D8C00002229460748FFF7F9FB3046FCF740FA7A
:107D9C001021304601F0BDF807B0F0BDEF790D00B1
:107DAC00BD7C0D0087770D0030B585B004460D46BF
:107DBC0068461146FFF7BAFD7CB124B228460DB1D6
:107DCC0001F090FA029002A96846ADF80C40FFF75A
:107DDC001FFE02A8FFF742FD1DE000988DF8084039
:107DEC004FF00102D0E84F3FA34203D1C0E8412F2E
:107DFC000029F7D102D08DF808300CE010F10C01FD
:107E0C004FF0010318BF0373BFF35F8F043000F80A
:107E1C00033CFFF771FF01A8FFF7E2FC05B030BD92
:107E2C00002211464068FFF755BC002211464068FD
:107E3C00FFF760BC00224068FFF754BC002281F0C1
:107E4C0001014068FFF73EBC00231A461946406802
:107E5C00FFF730BC00231A4619464068FFF722BCD6
:107E6C00002211464068FFF715BC002211464068FD
:107E7C00FFF700BC002202214068FFF703BC00237F
:107E8C001A464068FFF7EEBB024B03225A60024AC7
:107E9C001A607047C8E30320B0A50D007047F8B511
:107EAC00064615460C468F18BC4206D0336814F8AB
:107EBC00011B9B6830469847F6E72846F8BD002220
:107ECC00007CFFF739BA0021007CFFF73DBA002196
:107EDC00007CFFF741BA0021007CFFF745BA002176
:107EEC00007CFFF749BA10B51421044601F011F8D3
:107EFC00204610BD10B50446002363604FF47A731E
:107F0C00A360044B2174084623601146FFF744FA22
:107F1C00204610BDE4A50D000022007CFFF7E4B95B
:107F2C0000231A461946007CFFF7E6B90021007CB5
:107F3C00FFF7EAB970B50C4686B0142506462A46FA
:107F4C00002101A801F06DF923788DF808306368E1
:107F5C000393E36804930022237A307CADF8045039
:107F6C0001A90593FFF720FA06B070BD1FB50033C9
:107F7C008DF800104FF06401039118BF012369467E
:107F8C0001928DF80830FFF7D5FF05B05DF804FBC2
:107F9C000123FFF7EBBF0022007CFFF7BDB9C9B28C
:107FAC00FFF7F9BF0022007CFFF7BEB90121FFF7F4
:107FBC00F9BF0021007CFFF7E7B90047F0B585B0A9
:107FCC001C460E4617460546FFF766F9002084420C
:107FDC004FF0040303908DF80C30A5BF9DF82830AA
:107FEC008DF80E30034603AB009332463B460649F0
:107FFC00A8BF8DF80D402846FFF746F9B0FA80F07F
:10800C00400905B0F0BD00BFC77F0D00704710B52B
:10801C001821044600F07DFF204610BDF0B5037D0D
:10802C00062B8DB00E4600F104074FF0000402D071
:10803C0000F1080518E00CAD394605F8304D2F233A
:10804C002A460A20FFF7B8F9284601F066F933688A
:10805C000246DB682946304698470FE024B12E21B2
:10806C00304600F0FDF9044415F8011D0A22304693
:10807C0000F00FFABD420444F0D120460DB0F0BD23
:10808C0010B5054B0446112240F8043B002101F0C9
:10809C00C8F8204610BD00BF0CA60D000346074AC9
:1080AC0010B543F8042B01F1100251F8044B43F8BE
:1080BC00044B9142F9D10A781A7010BD0CA60D0030
:1080CC0010B59DF8084044EA032343EA024242EA11
:1080DC00016104234160037510BD37B50D788B78B1
:1080EC004A78C97800912946FFF7EAFF03B030BD02
:1080FC000A680B46926801461846104770B50E4C3C
:10810C0004601C2444609DF814409DF8106004F039
:10811C00030444EA86040025E4B2047442748574B2
:10812C004161427C85600F2A08BF044BC56006BFC5
:10813C008361C061038370BDD8940D00FD800D0078
:10814C00014B024A1A607047D0E3032083A60D004E
:10815C00002211464068FFF7BDBA00221146406864
:10816C00FFF7C8BA00224068FFF7BCBA002281F0C2
:10817C0001014068FFF7A6BA00231A4601214068A6
:10818C00FFF798BA00231A4619464068FFF78ABAD7
:10819C00002211464068FFF77DBA00221146406864
:1081AC00FFF768BA002202214068FFF76BBA002380
:1081BC001A464068FFF756BA38B5054688B10468C8
:1081CC004CB1A3681BB103222146204698471021CD
:1081DC00204600F09EFE28461421BDE8384000F0F1
:1081EC0098BE38BD10B103685B681847704710B56E
:1081FC0003680446BBB15868FEF776FF78B923686C
:10820C005A7C12B95868FEF77FFF23685868FEF74E
:10821C0083FF20680023236028B1FFF7CDFF20687F
:10822C0008B1FFF7C9FF204610BD38B50446D0F899
:10823C00C40108B1FBF72DFFD4F8C00108B1FEF75B
:10824C00A3FFD4F8BC5135B12846FFF7D0FF042169
:10825C00284600F05EFE206808B1FFF7C3FF2046F9
:10826C0038BD000010B5044B044640F8083BFFF73E
:10827C00DCFF204610BD00BFF4A60D0038B50E4C37
:10828C000E4B23600025022304F5E4706360A560A7
:10829C00C4F8C451C4F8C851FEF76EFF084BC4F8BB
:1082AC00CC5184F8D05123602046064A0649BDE8DB
:1082BC00384000F029BE00BFD4E3032028A70D00EE
:1082CC00F4A60D00E8C8032071820D0000231A46A5
:1082DC004068FFF7C7B9002202214068FFF7D2B906
:1082EC00002211464068FFF7C5B9002211464068CC
:1082FC00FFF7D0B900231A4619464068FFF7D2B9E8
:10830C0000231A4619464068FFF7D4B9002281F0C1
:10831C0001014068FFF7D6B900224068FFF7E2B9C7
:10832C00002211464068FFF7E5B90022114640686B
:10833C00FFF7D0B92DE9F043002495B016460D4651
:10834C000746FFF79DFE214620220CA8009400F062
:10835C0068FF40230C9321466B460CAA3046FFF76E
:10836C003BF80446002844D1024601216868FFF717
:10837C0091F90221804622466868FFF78BF9009E2E
:10838C0081462146002E34D0002932D17368022B4D
:10839C0002D00A2B09D02AE0B8F1000F27D071695E
:1083AC0038460431FFF799FE20E0B9F1000F1ED0DA
:1083BC007469112201A800F034FF06238DF81430E3
:1083CC0001AD04F108031834186859682A4603C231
:1083DC000833A3421546F7D101A906A807ADFFF74C
:1083EC005DFE0FCD3C1D0FC42B6823700121F66977
:1083FC00C8E70098FEF7E8FF384615B0BDE8F083F3
:10840C00024B034A1A6000225A607047A8E5032009
:10841C0028A70D00F8B506460D468F180024BD425E
:10842C000CD0336815F8011B9B6830469847002820
:10843C0001DB0444F3E7002C08BF04462046F8BDDA
:10844C0070B505460C46084649B100F066FF2B682E
:10845C00024621462846DB68BDE87040184770BDCF
:10846C0003689B68184738B50D210546FFF7F8FFE0
:10847C000A2104462846FFF7F3FF204438BD38B5DF
:10848C000546FFF7DDFF04462846FFF7ECFF2044C6
:10849C0038BD30B58BB00B4600218DF82410012A65
:1084AC0098BF0A220DF12304B3FBF2F505FB12333E
:1084BC0003F0FF03092B94BF30333733DBB2214673
:1084CC0004F801392B46002DEED1FFF7B9FF0BB0A4
:1084DC0030BD0CB42DE9F04387B000AF07F1380480
:1084EC00054654F8049B3C600E4623464A4614212C
:1084FC00381DFFF727F9132805D8391D2846FFF733
:10850C009FFF044613E000F1080323F00703E8463D
:10851C00ADEB030D411C23464A4668463C60FFF711
:10852C0011F969462846FFF78BFF0446C5461EB174
:10853C002846FFF798FF044420461C37BD46BDE88B
:10854C00F04302B0704710B50446FBF761FE2046BD
:10855C0010BD00000348044A04490023836000F066
:10856C00D3BC00BFB0E50320E8C8032053850D0041
:10857C00704710B50C21044600F0CBFC204610BD12
:10858C0010B5054B0360044601710846FEF734FF35
:10859C000023A360204610BD5CA70D000079FEF7F8
:1085AC0033BF10B504460068FFF7B4F8204610BD81
:1085BC0010B50446006808B1FFF7ACF8002323603F
:1085CC00A360636010BD38B504460D4600680131E8
:1085DC00FFF7A8F810B184E82100012038BD10B5D0
:1085EC000368044613B143688B4207D22046FFF759
:1085FC00EAFF20B1A3680BB922681370012010BDEB
:10860C0070B50E46114604461546FFF7E8FF18B93B
:10861C002046FFF7CDFF09E02A463146A5602068C9
:10862C0000F0F4FD2268A3680021D154204670BDEF
:10863C0038B50023044603604360836003730D4622
:10864C0039B1084600F069FE294602462046FFF77C
:10865C00D7FF204638BD38B5054600680C4660B1DA
:10866C006A688B689A4206D3096800F032FEA368E8
:10867C00AB6000230AE0FFF74DF823682B606368BA
:10868C006B60A368AB60002323606360A36038BD9C
:10869C00884210B50B46044607D0096819B19A6890
:1086AC00FFF7AEFF01E0FFF783FF204610BD10B5CA
:1086BC00002304460360436083600373FFF7E8FF05
:1086CC00204610BD884210B5044601D0FFF7C3FF09
:1086DC00204610BD38B505460C4641B1084600F0A1
:1086EC001CFE214602462846FFF78AFF01E0FFF7F1
:1086FC005FFF284638BD13B500238DF804100360C6
:10870C0043608360037301A904468DF80530FFF7BD
:10871C00E1FF204602B010BD70B504460E4609B903
:10872C00002070BD6AB18368D5182946FFF757FF42
:10873C000028F5D02068A3683146184400F0C9FD24
:10874C00A560012070BD10B58A6809680446FFF762
:10875C00E3FF10B92046FFF72BFF204610BD38B5BC
:10876C0004460D4641B1084600F0D7FD29460246A5
:10877C002046FFF7D1FF10B92046FFF719FF20461E
:10878C0038BD70B50E469AB191B185689D4202D83C
:10879C0000230B7070BD541EED1A0168AC4228BF4B
:1087AC002C4619442246304600F0D4FD00233355A4
:1087BC0070BD10B58368934206D90468A01800F008
:1087CC0070FD08B1001B10BD4FF0FF3010BD000054
:1087DC00F8B59A420F461D460C4988BF13461446FD
:1087EC00064684BF2C461D46FFF722FFBA6894420A
:1087FC000AD83968954294BFC4EB0502C4EB020257
:10880C0021443046FFF7FCFE3046F8BDB4A60D00FF
:10881C0010B504468B68FFF7DBFF204610BD0068DF
:10882C0008B100F0E1BC704710B50446006818B1FF
:10883C00FEF770FF0023236010BD10B50446FFF750
:10884C00F3FF204610BD014600228C20FEF7ACBC85
:10885C000020FFF7F8BF000010B5094C00204FF6C0
:10886C00FF732060A080A07120816381FEF766FEFB
:10887C002046044A0449BDE8104000F045BB00BF47
:10888C00C0E50320E8C8032047880D00024B1A6896
:10889C00024B1A60704700BF7CC80320CCE5032054
:1088AC00F8B585B2044628460E46174600F000FA85
:1088BC0060B102212846FEF7BFFC022806D13A46D9
:1088CC0031462046BDE8F840FEF78EBDF8BD704736
:1088DC004174704708B5007CFEF7DEFD20EAE070BD
:1088EC0008BD08B5007CFEF7AFFD20EAE07008BDBE
:1088FC0008B5007CFEF7B8FD30EA200028BF4FF029
:10890C00FF3008BD08B5007CFEF7A6FD30EA20005C
:10891C0028BF4FF0FF3008BD007CFEF7ADBD10B591
:10892C001421044600F0F5FA204610BD70B5457CC4
:10893C0004460E4625B9007CFEF7AEFD002805DD89
:10894C003146207CBDE87040FEF776BD284670BDF0
:10895C0010B5044608461146002262604FF47A7244
:10896C00A260054A22600122207462741A46FEF746
:10897C0053FD204610BD00BF98A70D000023007CBE
:10898C00FEF792BD0022FFF7F9BF007CFEF74CBD4D
:10899C00007CFEF779BD000038B50C4D296811F04C
:1089AC00010411D12846FBF776FB68B1084A094B44
:1089BC0009482146FFF7CCFF2846FBF771FB074A15
:1089CC000749054800F0A0FA034838BD68E60320C3
:1089DC006CE60320E4E50320D0E50320E8C803207F
:1089EC00DB880D0041747047704708B50021007C8E
:1089FC00FEF782FD30EA200028BF4FF0FF3008BDA3
:108A0C0008B50121007CFEF777FD30EA200028BF75
:108A1C004FF0FF3008BD08B5007CFEF765FD20EA7D
:108A2C00E07008BD08B5007CFEF756FD20EAE0704A
:108A3C0008BD007CFEF770BD10B51421044600F093
:108A4C0068FA204610BD38B50446007C0D46FEF78A
:108A5C004BFD002801DC607C28B12946207CFEF708
:108A6C0053FD20EAE07038BD10B504460023636066
:108A7C004FF47A73A360054B2360012308462174DD
:108A8C0063741146FEF718FD204610BDC8A70D00F3
:108A9C000022007CFEF718BD10B5142204460021FC
:108AAC0000F0BFFB204610BD30B50E4D87B001A8BD
:108ABC00FFF7F2FF296811F0010410D12846FBF7EB
:108ACC00EAFA60B101AA21460748FFF7CDFF284614
:108ADC00FBF7E6FA054A0649034800F015FA024886
:108AEC0007B030BDF0E60320F4E60320E8C803200D
:108AFC00F5890D00002211464068FEF7CBBD00221F
:108B0C0011464068FEF7E6BD002211464068FEF7AC
:108B1C00F1BD00224068FEF7E5BD002281F00101A5
:108B2C004068FEF7CFBD00231A4619464068FEF791
:108B3C00C1BD00231A4619464068FEF7B3BD00229A
:108B4C0011464068FEF796BD002202214068FEF7F0
:108B5C0099BD00231A464068FEF784BD024B0422DF
:108B6C005A60024A1A60704708E70320F8A70D0004
:108B7C0008B50C4B33B1FFF797FF03681B69984797
:108B8C00002809DC084B63B1FFF706FF03681B697B
:108B9C009847002803DC08BDAFF30080F2E7AFF381
:108BAC00008008BD000000000000000008B5FFF7C1
:108BBC00DFFFFEF711FB014B186008BD18E703201F
:108BCC000248034A0349121A00F020BB00F40320A8
:108BDC0004F40320C0A90D0007B5002300931A4626
:108BEC006FF07701FEF7E4FC03B05DF804FB0000C6
:108BFC0007B543880A2B08D0502B09D1094B1B68A9
:108C0C003BB103B05DF804EB1847FFF7E5FF06E056
:108C1C00002300931A466FF07701FEF7C9FC03B0EE
:108C2C005DF804FB10E7032038B5104C104D236899
:108C3C00AB42104B0CBF012200221A7002D0FFF77E
:108C4C00BFFF2560FEF7B8FA044600F0F3FA0A4BB2
:108C5C0013B12046AFF3008000210748FEF7FAFC61
:108C6C0000210648BDE83840FEF798BC00F403200C
:108C7C001E1C279A14E7032000000000FD8B0D003A
:108C8C0008B5024B1B681B68019308BD5C0203000E
:108C9C0008B5024B1B685B68019308BD5C020300BE
:108CAC0008B5024B1B689B68019308BD5C0203006E
:108CBC0010B5044600F008F9FFF770FC28B1A4F1D8
:108CCC000B03022B01D8002010BD00F0D7F8FFF7E2
:108CDC0070F908B1012CF6D9FFF75EFEFFF758FECC
:108CEC0018B1A4F10903012BEDD9232C8CBF002062
:108CFC00012010BD232838B504460D460AD8FF299B
:108D0C0008D0FFF7D5FF28B129462046BDE83840EA
:108D1C00FEF79ABA38BD38B504460D46FEF79CFAF4
:108D2C00FF2810D0062804D84D2323FA00F0C307DF
:108D3C0009D42046FFF7BCFF28B129462046BDE8E0
:108D4C003840FEF791BA38BD10B50446FEF784FAE8
:108D5C000438C0B2012808D92046FFF7A9FF20B17A
:108D6C002046BDE81040FEF787BA002010BD0D2844
:108D7C0010B504469CBF0E34A4B22046FFF798FFF2
:108D8C0050B103212046FEF757FA032804D12046A0
:108D9C00BDE81040FEF790BA002010BD38B504466F
:108DAC000D46FFF785FFF0B104212046FEF744FA8B
:108DBC00042805D1A9B22046BDE83840FEF774BAA4
:108DCC0002212046FEF738FA02280CD12046FEF785
:108DDC0043FA012801D0042805D129462046BDE8D4
:108DEC003840FEF771BA38BD70B504460D461646CC
:108DFC00FFF75EFF98B102212046FEF71DFA02280C
:108E0C000DD12046FEF728FA012801D0042806D1FE
:108E1C00324629462046BDE87040FEF75DBA70BD6B
:108E2C0010B5074C2368DB0708D42046FBF733F951
:108E3C0020B1FEF7D9F92046FBF732F9014810BDF5
:108E4C001CE7032020E7032070B5044614252A46AE
:108E5C00094E002100F0E5F9258020253146A5605A
:108E6C002561284600F06FF831466060284600F016
:108E7C006AF8E060204670BD24A80D0030B50E4D98
:108E8C00296811F0010487B013D12846FBF703F9C8
:108E9C0078B101A8FFF7D8FF01AA21460748FFF7D0
:108EAC0029F82846FBF7FCF8054A0649034800F068
:108EBC002BF8024807B030BD24E7032028E7032035
:108ECC00E8C80320A97E0D0038B50B4D296811F0B8
:108EDC0001040FD12846FBF7DEF858B121460748AC
:108EEC00FFF74EFB2846FBF7DBF8054A054903481C
:108EFC0000F00AF8014838BD48E703203CE703209E
:108F0C00E8C803207D850D000B460146184600F08D
:108F1C006FB9FBF7BCB80000024B1868BFF35F8F4A
:108F2C00704700BF4CE7032010B5002814BF04465F
:108F3C0001242046FEF7E6FB20B9FFF7EDFF08B150
:108F4C008047F6E710BDFFF7EFBF08B5FEF702FC50
:108F5C00244B1A68D0075CBF01221A60224B1A6896
:108F6C00D1075CBF01221A60204B1A68D2075CBF84
:108F7C0001221A601E4B1A68D0075CBF01221A60CE
:108F8C001C4B1A68D1075CBF01221A601A4B1A6875
:108F9C00D2075CBF01221A60184B1A68D0075CBF5D
:108FAC0001221A60164B1A68D1075CBF01221A60A5
:108FBC00144B1A68D2075CBF01221A60124B1A6854
:108FCC00D0075CBF01221A60104B1A68D1075CBF36
:108FDC0001221A600E4B1A68D2075CBF01221A607C
:108FEC00704700BF7CE7032078E7032074E7032079
:108FFC0070E703206CE7032068E7032064E7032095
:10900C0060E703205CE7032058E7032054E70320C4
:10901C0050E70320184B1A68D1075CBF01221A6075
:10902C00164B1A68D2075CBF01221A60144B1A68DF
:10903C00D0075CBF01221A60124B1A68D1075CBFC3
:10904C0001221A60104B1A68D2075CBF01221A6009
:10905C000E4B1A68D0075CBF01221A600C4B1A68C1
:10906C00D1075CBF01221A600A4B1A68D2075CBF99
:10907C0001221A60704700BF9CE7032098E7032089
:10908C0094E7032090E703208CE7032088E7032074
:10909C0084E7032080E70320184B1A68D1075CBFD4
:1090AC0001221A60164B1A68D2075CBF01221A60A3
:1090BC00144B1A68D0075CBF01221A60124B1A6855
:1090CC00D1075CBF01221A60104B1A68D2075CBF33
:1090DC0001221A600E4B1A68D0075CBF01221A607D
:1090EC000C4B1A68D1075CBF01221A600A4B1A6834
:1090FC00D2075CBF01221A60704700BFBCE7032097
:10910C00B8E70320B4E70320B0E70320ACE7032063
:10911C00A8E70320A4E70320A0E70320244B1A6848
:10912C00D0075CBF01221A60224B1A68D1075CBFC2
:10913C0001221A60204B1A68D2075CBF01221A6008
:10914C001E4B1A68D0075CBF01221A601C4B1A68B0
:10915C00D1075CBF01221A601A4B1A68D2075CBF98
:10916C0001221A60184B1A68D0075CBF01221A60E2
:10917C00164B1A68D1075CBF01221A60144B1A688F
:10918C00D2075CBF01221A60124B1A68D0075CBF71
:10919C0001221A60104B1A68D1075CBF01221A60B9
:1091AC000E4B1A68D2075CBF01221A60704700BFD1
:1091BC00ECE70320E8E70320E4E70320E0E70320E3
:1091CC00DCE70320D8E70320D4E70320D0E7032013
:1091DC00CCE70320C8E70320C4E70320C0E7032043
:1091EC000A22002100F050B90A22002100F04CB9EB
:1091FC0010B5054C13462CB10A4601460220AFF3BC
:10920C00008010BD204610BD0000000010B5431EAC
:10921C000A44914204D011F8014B03F8014FF8E7CE
:10922C0010BD02440346934202D003F8011BFAE737
:10923C007047000038B5124B1C68A36B0546D3B9B8
:10924C001820FEF75FFA43F20E33A06303804AF650
:10925C00CD33438041F2342383804EF26D63C3805F
:10926C004DF6EC630381052343810B23838101229B
:10927C000023C0E90423A36B00221D615A6138BD91
:10928C00E4C8032010B50246134601321C78002CAA
:10929C00FAD1013B11F8012B03F8012F002AF9D167
:1092AC0010BDC9B2034610F8012B1AB19142F9D185
:1092BC001846704700290CBF18460020704710F85C
:1092CC00012B11F8013B012A28BF9A42F7D0D01A82
:1092DC007047034611F8012B03F8012B002AF9D132
:1092EC0070470000024B0146186800F003B800BF3D
:1092FC00E4C8032070B5064608460C4600F00DF88D
:10930C00451C29463046FEF72DFA064618B12A466A
:10931C002146FFF77BFF304670BD034613F8012B47
:10932C00002AFBD1181A0138704730B582B1451E9E
:10933C00013915F8013F11F8014FA34206D1EC4356
:10934C001444E04201D0002BF3D11C46181B30BD55
:10935C00104630BD10B5034642B111F8014B03F86D
:10936C00014B013A002CF7D11A4400E010BD934296
:10937C0002D003F8014BFAE710BD00002DE9F047CD
:10938C0080464048D0F800900F463D4615F8014BFA
:10939C0009EB0400407800F0080000F0FF0608B16B
:1093AC002F46F2E72D2C03D1BD1C7C78012603E05F
:1093BC002B2C04BF7C78BD1C13B1102B0AD15BE0A5
:1093CC00302C57D1287800F0DF0058284DD16C781C
:1093DC0010230235002E14BF4FF0004C6FF0004CE0
:1093EC000027BCFBF3FA384603FB1ACC09EB040E3E
:1093FC009EF801E01EF0040F01D0303C0BE01EF093
:10940C00030E1BD0BEF1010F0CBF4FF0370E4FF007
:10941C00570ECEEB0404A34210DDB7F1FF3F0AD088
:10942C00504506D801D1644503DC03FB00400127FD
:10943C0001E04FF0FF3715F8014BD7E77B1C0CD13F
:10944C00002E4FF0220314BF4FF000406FF000408D
:10945C00C8F800302AB9BDE8F08706B1404272B1B5
:10946C0007B1691E1160BDE8F0873024002BB1D123
:10947C000823AFE70A23ADE7302CA3D0AAE7BDE859
:10948C00F08700BF80C8032013460A4601460248F5
:10949C000068FFF773BF00BFE4C803201D400D0038
:1094AC0059400D0085400D0089400D000000000062
:1094BC000000000000000000BD420D0001430D0043
:1094CC0059410D000000000000000000A1410D00FA
:1094DC00BD410D00B3400D00000000009630077731
:1094EC002C610EEEBA51099919C46D078FF46A708C
:1094FC0035A563E9A395649E3288DB0EA4B8DC79AC
:10950C001EE9D5E088D9D2972B4CB609BD7CB17E2B
:10951C00072DB8E7911DBF906410B71DF220B06AFB
:10952C004871B9F3DE41BE847DD4DA1AEBE4DD6D0B
:10953C0051B5D4F4C785D38356986C13C0A86B640B
:10954C007AF962FDECC9658A4F5C0114D96C06632B
:10955C00633D0FFAF50D088DC8206E3B5E10694C0B
:10956C00E44160D5727167A2D1E4033C47D4044B4B
:10957C00FD850DD26BB50AA5FAA8B5356C98B2422B
:10958C00D6C9BBDB40F9BCACE36CD832755CDF45AB
:10959C00CF0DD6DC593DD1ABAC30D9263A00DE51DB
:1095AC008051D7C81661D0BFB5F4B42123C4B356CB
:1095BC009995BACF0FA5BDB89EB802280888055F4B
:1095CC00B2D90CC624E90BB1877C6F2F114C6858AB
:1095DC00AB1D61C13D2D66B69041DC760671DB0199
:1095EC00BC20D2982A10D5EF8985B1711FB5B6066B
:1095FC00A5E4BF9F33D4B8E8A2C9077834F9000FAB
:10960C008EA8099618980EE1BB0D6A7F2D3D6D084A
:10961C00976C6491015C63E6F4516B6B62616C1C3A
:10962C00D83065854E0062F2ED95066C7BA5011B6A
:10963C00C1F4088257C40FF5C6D9B06550E9B7120A
:10964C00EAB8BE8B7C88B9FCDF1DDD62492DDA15CA
:10965C00F37CD38C654CD4FB5861B24DCE51B53AEA
:10966C007400BCA3E230BBD441A5DF4AD795D83DEA
:10967C006DC4D1A4FBF4D6D36AE96943FCD96E342A
:10968C00468867ADD0B860DA732D0444E51D03330A
:10969C005F4C0AAAC97C0DDD3C710550AA4102271A
:1096AC0010100BBE86200CC925B56857B3856F20EA
:1096BC0009D466B99FE461CE0EF9DE5E98C9D9294A
:1096CC002298D0B0B4A8D7C7173DB359810DB42E8A
:1096DC003B5CBDB7AD6CBAC02083B8EDB6B3BF9AD6
:1096EC000CE2B6039AD2B1743947D5EAAF77D29D62
:1096FC001526DB048316DC73120B63E3843B649442
:10970C003E6A6D0DA85A6A7A0BCF0EE49DFF099341
:10971C0027AE000AB19E077D44930FF0D2A30887B1
:10972C0068F2011EFEC206695D5762F7CB67658061
:10973C0071366C19E7066B6E761BD4FEE02BD38961
:10974C005A7ADA10CC4ADD676FDFB9F9F9EFBE8EC1
:10975C0043BEB717D58EB060E8A3D6D67E93D1A101
:10976C00C4C2D83852F2DF4FF167BBD16757BCA6E1
:10977C00DD06B53F4B36B248DA2B0DD84C1B0AAF81
:10978C00F64A0336607A0441C3EF60DF55DF67A801
:10979C00EF8E6E3179BE69468CB361CB1A8366BC91
:1097AC00A0D26F2536E2685295770CCC03470BBBE1
:1097BC00B91602222F260555BE3BBAC5280BBDB2E1
:1097CC00925AB42B046AB35CA7FFD7C231CFD0B581
:1097DC008B9ED92C1DAEDE5BB0C2649B26F263EC73
:1097EC009CA36A750A936D02A906099C3F360EEB81
:1097FC008567077213570005824ABF95147AB8E241
:10980C00AE2BB17B381BB60C9B8ED2920DBED5E520
:10981C00B7EFDC7C21DFDB0BD4D2D38642E2D4F170
:10982C00F8B3DD686E83DA1FCD16BE815B26B9F600
:10983C00E177B06F7747B718E65A0888706A0FFF60
:10984C00CA3B06665C0B0111FF9E658F69AE62F820
:10985C00D3FF6B6145CF6C1678E20AA0EED20DD720
:10986C005483044EC2B30339612667A7F71660D040
:10987C004D476949DB776E3E4A6AD1AEDC5AD6D980
:10988C00660BDF40F03BD83753AEBCA9C59EBBDEA0
:10989C007FCFB247E9FFB5301CF2BDBD8AC2BACA50
:1098AC003093B353A6A3B4240536D0BA9306D7CDC0
:1098BC002957DE54BF67D9232E7A66B3B84A61C4E0
:1098CC00021B685D942B6F2A37BE0BB4A18E0CC3A0
:1098DC001BDF055A8DEF022D524553504F4E534509
:1098EC00207C2063616C6C6261636B5F6275666681
:1098FC0065723A2025732C2063616C6C6261636B1A
:10990C005F636F6D706C6574653A2025630045521A
:10991C00524F52207C2063616C6C6261636B5F629E
:10992C0075666665723A2025732C2063616C6C62D7
:10993C0061636B5F636F6D706C6574653A20257342
:10994C00005374616765206C696D69742073776965
:10995C007463682064657465637465640053746132
:10996C00676520706F736974696F6E206174207AFB
:10997C0065726F0053746167652064697374616C00
:10998C00206C696D6974207265616368656400544C
:10999C00656D706572617475726520636F6E74723B
:1099AC006F6C2073797374656D2073746172746558
:1099BC0064006272657669746573742D70726F647D
:1099CC00756374696F6E005075626C6973683A20C8
:1099DC006576656E74203D2025732C207575696441
:1099EC00203D2025730056616C69646174696E6753
:1099FC00206361727472696467650076616C696476
:109A0C006174652D63617274726964676500566177
:109A1C006C69646174696F6E206661696C65642041
:109A2C002D206E6F7420636F6E6E65637465642099
:109A3C00746F2074686520636C6F756400256325F2
:109A4C0063255825632558256325582563255825F6
:109A5C006300252E3234732563256325630025733B
:109A6C002C2025642070657263656E7420636F6DA5
:109A7C00706C6574652C2074656D70203D202564B8
:109A8C002E2564005355434345535300546573745A
:109A9C002066696E6973686564005465737420662A
:109AAC00696E697368206661696C65642100546530
:109ABC0073742063616E63656C6C656400546573CC
:109ACC00742063616E63656C206661696C656421EA
