:02000002D0002C
:1040000000400D007CB30D00000006000C0005010F
:084010000401DE0500000000C0
:04401800C09B0D003C
:10401C0009480A49884208B505D0094A824202D0AB
:10402C00121A05F063FC0748074A0021121A05F022
:10403C0068FC014808BD00BF48C50320A4B20D00B0
:10404C00F4C50320F4C50320F0E7032070B505F098
:10405C005BF9074C074BE41AA40800251E46A54241
:10406C0004D056F8253098470135F8E770BD00BFED
:10407C0094B20D005CB20D0003F070B808B503F0FB
:10408C0021FABDE8084005F001B903F0B1BE03F018
:10409C00B7BE03F0B5BE0078B0FA80F040097047A7
:1040AC000123037070477047014B01221A7070474F
:1040BC00D8C90320034B044A1B7883F00103136017
:1040CC00704700BF5CC6032060C60320014B012271
:1040DC001A7070472CD5032003681847012A02D0A8
:1040EC00022A02D004E0016002E00B6800B1036018
:1040FC000020704713B50C46114805F033FC2046E0
:10410C0005F07DFCB0F5007F07DB204410F8013C86
:10411C00A3F122025342534100E00123094C2370C6
:10412C0005F032F82378084A002B14BF59234E238C
:10413C0000930121024B04F042FD02B010BD00BF00
:10414C00FCD9032059D20320FC9F0D00436913B105
:10415C0083690C301847704713B500210446084694
:10416C0003F030FB02A90023204641F8043D03F084
:10417C0041FB019C0CB1012323710021012003F0B0
:10418C0021FB2CB1236820469B68984700232371A0
:10419C0002B010BD10B5054B00220446114640F884
:1041AC00043B03F01FFD204610BD00BFF09B0D002B
:1041BC0010B50446FFF7EEFF2046202105F019FA52
:1041CC00204610BD37B50C4605460F4805F0CAFB16
:1041DC00204605F014FCB0F5007F07DB204410F8F6
:1041EC00013CA3F122025342534100E00123074A50
:1041FC00137004F0C9FF00942B46054A012104F00A
:10420C00DEFC03B030BD00BFFCD9032059D2032023
:10421C0027A00D0010B58368044613B10322014694
:10422C009847204610BD000008B503F01BFB034B5C
:10423C001860BDE8084003F043BD00BF18E7032039
:10424C000368C9B29B681847F0B500258E4615491E
:10425C000571856045610160044692E8030085B0F4
:10426C0002AF04F10C0687E8030096E8030082E82D
:10427C00030097E8030086E803009168606990608A
:10428C006161D168A069D060A1618DE82800064AFF
:10429C002346714604F1080003F09CFA204605B051
:1042AC00F0BD00BFDC9B0D0065410D0007B58068BB
:1042BC00002340B18DE80A001A46022103F0A2FA4D
:1042CC00B0FA80F0400903B05DF804FB38B50F4B31
:1042DC000360836804469BB16FF00041FFF7E6FF73
:1042EC000021A06803F0A6FA237903F0FF0513B1AF
:1042FC0003F050FAF8E72946A06803F073FAA560BA
:10430C0004F10C00FFF786FF204638BDDC9B0D0046
:10431C0010B50446FFF7DAFF20461C2105F069F9B9
:10432C00204610BD73B506460D4611461446FFF7E0
:10433C00BDFFB068002340B1019300952246194699
:10434C0003F060FAB0FA80F0400902B070BD0000D2
:10435C0040F67263984270B51CDC0F4A002352F889
:10436C00044BA04203F101050FDC116888420CDDFF
:10437C000A4E56F8232056F825309D1A031B6B4322
:10438C00081B93FBF0F0104470BD142D2B46E6D1A6
:10439C00002070BD184670BD0CAE0D00B8AD0D0000
:1043AC001FB50C2AA8BF0C22014401A8144605F025
:1043BC0043FB04AB1C4401A8002304F80C3C05F09F
:1043CC007FFA04B010BD2DE9FF410D68D2F80080D2
:1043DC0046190F463046414605F041FB801B0E281E
:1043EC00A8BF0E20024631460446684605F024FB61
:1043FC00404605F004FB04AB284420441C443860C0
:10440C000023684604F8103C05F05AFA04B0BDE8E5
:10441C00F081000010B5084C01444FF0FF32884287
:10442C0008D010F8013B5340DBB254F8233083EA38
:10443C001222F4E7D04310BDFC9B0D00021E30B5D8
:10444C0016DB9110022329B1914203D0023342FAB8
:10445C0003F1F8E7023B00204000411C42FA03F450
:10446C0001FB01F5A542D8BF0846023BF4D530BD8F
:10447C004FF0FF3030BD000008B505F041F84FF4A7
:10448C006A7203490020BDE8084003F00BBA00BF74
:10449C006CD5032008B505F033F84FF46A72034964
:1044AC000020BDE8084003F005BA00BF6CD503201E
:1044BC0008B505F025F8BDE8084003F003BA000084
:1044CC0008B5FFF7F5FF044B0A221A700C225A703C
:1044DC00FF229A70012008BD6CD50320012870B50D
:1044EC000E461D4D1BD11D4B188804F09DFF044634
:1044FC0040B904F049FE1A4904F037FB194B2C6003
:10450C001C6016E02B68002B15DC04F03DFE1649F0
:10451C0004F02BFB134B00202860186070BD2A6838
:10452C004AF227039A4206DD04F02EFE0F4904F0EE
:10453C001CFB002070BD0E4C0121208804F05BFF99
:10454C00304603F087F90021208804F054FF3046F0
:10455C0003F080F9012070BD30D5032070C5032015
:10456C0083A00D0098C903209FA00D00B6A00D00DC
:10457C0078C503202DE9F84F1C4BDFF87890C70F56
:10458C00044688461888394604F035FF184B84EAEF
:10459C00E4711A68A1EBE47111441922002C91FB0F
:1045AC00F2F64FF0000402FB16121A60B4BF6FF063
:1045BC00180A4FF0190A1D46A346B44213DA4146B5
:1045CC003846FFF78BFF58B1D9F800305344002B15
:1045DC0002DDC9F8003004E0C9F800B0C5F800B03D
:1045EC0034460134E9E7BDE8F88F00BF50C503201D
:1045FC0098C9032030D50320024B0021188804F001
:10460C00FABE00BF84C5032008B5054B01211888EC
:10461C0004F0F1FE0A20BDE8084003F021BC00BF05
:10462C0084C5032038B504460D46FFF7EDFF294637
:10463C002046FFF79FFFBDE83840FFF7DDBF0000C5
:10464C00134B10B54AF228021A600446FFF7DCFF40
:10465C0096211048FFF78EFF642003F001FC962191
:10466C004FF4FA60FFF786FF642003F0F9FB4FF478
:10467C007A710948FFF77EFF4FF47A7142F63020C9
:10468C00FFF778FF1CB1BDE81040FFF7B5BF10BDB8
:10469C0030D50320A015FFFF48F4FFFF2DE9F041B2
:1046AC0006460D46904600244742444509DA294601
:1046BC003046FFF75FFF29463846FFF75BFF0134B2
:1046CC00F3E7BDE8F08100002DE9F74F1E4D009394
:1046DC0092462B681D4F80EAE072A2EBE0721A44FE
:1046EC001923002892FBF3F64FF0000403FB16236A
:1046FC002B6089464FEAD078B4BF6FF0180B4FF09F
:10470C00190B2346B44201931ADA0C9A00995046BD
:10471C00FFF7C4FF0E4B4146188804F06CFE494667
:10472C004046FFF7DBFE019B38B13A685A44002A39
:10473C0001DD3A6002E03B602B6034460134E1E776
:10474C0003B0BDE8F08F00BF98C9032030D503201B
:10475C0050C5032038B5064C80F3080544F620629A
:10476C002946208804F0B0FE0123E560237238BD91
:10477C00F8C5032010B5044C0021208804F07EFEFF
:10478C0000232372E36010BDF8C5032070B5044606
:10479C0003F068F80F4D84F30804064644F62062D3
:1047AC002146288804F090FE002C14BF012300231E
:1047BC00EC602B7209D0084B1B7833B104F0E4FC8D
:1047CC002346064A012104F0FAF903F04BF8801B4A
:1047DC0070BD00BFF8C5032003CA0320D1A00D0093
:1047EC00024B0146188804F049BE00BF48C503209F
:1047FC00024B0146188804F041BE00BF54C503208B
:10480C00024B0146188804F039BE00BF58C503207E
:10481C000346412B084601D1FFF7E2BF312B01D1F2
:10482C00FFF7E6BF322B01D1FFF7EABF704700005C
:10483C00024B0021188804F021BE00BF48C503209C
:10484C00024B0021188804F019BE00BF54C5032088
:10485C00024B0021188804F011BE00BF58C503207C
:10486C00412801D1FFF7E4BF312801D1FFF7E8BFA0
:10487C00322801D1FFF7ECBF704710B5044608464B
:10488C00FFF7AEFF204603F0EBFABDE81040FFF750
:10489C00CFBF10B504460846FFF7AAFF204603F029
:1048AC00DFFABDE81040FFF7CBBF10B50446084651
:1048BC00FFF7A6FF204603F0D3FABDE81040FFF740
:1048CC00C7BF38B50C4605460846FFF789FF20469A
:1048DC00FFF78EFF2046FFF793FF284603F0C0FA40
:1048EC00FFF7A6FFFFF7ACFFBDE83840FFF7B0BFFE
:1048FC0008B504F033FE03F0D2FE88B904F02EFEA6
:10490C00084903F07FFE04F029FE03F07FFE6420CB
:10491C0003F0A6FA04F022FEBDE8084003F0BFBE87
:10492C0008BD00BFA086010008B504F017FEBDE865
:10493C00084003F071BE000008B5074B0748002281
:10494C006FF00041DA61FFF7EDFC04F01DFC044947
:10495C00BDE8084004F009B9F8C503209CC9032040
:10496C00E8A00D0008B56FF000410648FFF79EFC6B
:10497C000020FFF70BFF04F007FC0349BDE80840DB
:10498C0004F0F3B89CC903200BA10D0038B5114CF1
:10499C000021208804F072FDA08804F058FDE16825
:1049AC000546208804F06AFD1DB9FFF7DBFF0025E2
:1049BC000EE02846FFF7CCFC052200EBC003B0F557
:1049CC00167F93FBF2F303F5A0732062A362ECDC79
:1049DC00284638BDF8C503202DE9F0432F4E8BB087
:1049EC00F56802F03FFFF769C7EB0009B9F57A7F6C
:1049FC00804634464ED3FFF7C9FFC6F81C8080466C
:104A0C00002847D017B97761B76143E0336A776AFA
:104A1C00B569E26AFF1A4FF47A7107FB09F393FB4D
:104A2C00F1F31D44B5617669636BBE1B6B434E435A
:104A3C007A43216BA56B92FBF1F193FBF5F56A18A8
:104A4C00E56B236C96FBF9F6754395FBF3F5144B6C
:104A5C001B781544EBB104F097FBD4F820E0636AA3
:104A6C0008950796A16906910A2293FBF2F102FBC5
:104A7C00113303939EFBF2F302FB13E202910192BA
:104A8C0000930597CDF810904346064A012104F097
:104A9C0096F8676128460BB0BDE8F083F8C5032093
:104AAC0003CA03204EA10D002DE9F041074694B036
:104ABC000E463A4D02B92A602B683946013310A8CC
:104ACC002B6004F06AF910A9354804F071F910A8AC
:104ADC0004F0DDF83146334804F05DFF324A3349C7
:104AEC0000231370324A04A8137004F017F93946E6
:104AFC000CA8049C04F051F92E4908A804F00EF9F6
:104B0C0008A90CA804F073F93146804610A804F0EB
:104B1C0005F910A9404604F06AF9274B0268197888
:104B2C00264B1B780B438DF8003021463C2302A802
:104B3C0003F06AFB039C7CB16368013B63605BB967
:104B4C00236820469B689847A368013BA3601BB968
:104B5C0023682046DB68984710A804F098F808A84A
:104B6C0004F095F80CA804F092F804A804F08FF85F
:104B7C0004F00AFB3946044610A804F00EF92B6821
:104B8C0001930F4A009610AB0121204604F017F850
:104B9C0010A804F07CF814B0BDE8F08100D5032017
:104BAC00F0D403201DD2032059D20320B7A10D004D
:104BBC00FCD9032087AF0D006CC60320A0C60320D0
:104BCC00C1A10D007FB504F0DFFA1549154E164D45
:104BDC0003F0CBFF03F08CF80446B8B1012333701B
:104BEC0002F040FE114B124900F51C5010301860B9
:104BFC00002468462C7004F091F8684622460D4952
:104C0C00FFF752FF684604F042F806E004F0BCFAE5
:104C1C00094903F0AAFF34702C7004B070BD00BFBA
:104C2C00DAA10D0080C60320FCD10320F4C60320BA
:104C3C00EFA10D0038D5032002A20D00072210B5FC
:104C4C000C490D4804F0E3FE0C4B041E0CBF012272
:104C5C0000221A7007D104F097FA094903F085FF76
:104C6C00084B1C7010BD04F08FFA0749BDE81040CA
:104C7C0003F07BBF31A20D00ADC603207CD2032014
:104C8C0039A20D00F1C6032046A20D002DE9F0411A
:104C9C000F4F064600244FF0E40808FB04F505F11D
:104CAC00200139441822304604F0B1FE014648B9BF
:104CBC00074818352844E42204F023FEBDE8F041EF
:104CCC00FFF7E8BB0134042CE7D1BDE8F08100BF4D
:104CDC006CD503202DE9FF41244F254CDFF898803B
:104CEC003946684604F01AF80099204604F05BFE39
:104CFC000546684603F0CBFF00262A46214640466F
:104D0C0004F09AFE08F8056001352C4439466846D3
:104D1C0004F004F80099DFF86480204604F043FEA8
:104D2C000546684603F0B3FF2A462146404604F088
:104D3C0083FE08F8056001352C443946684603F0BB
:104D4C00EDFF00990B4F204604F02DFE05466846FA
:104D5C0003F09DFF2A462146384604F06DFE681C80
:104D6C0020447E5504B0BDE8F08100BF87AF0D0034
:104D7C00FCD9032004D5032082C60320ADC6032032
:104D8C00F8B5154804F03BFE134B00245A1C0238AE
:104D9C000A26092784421CDA15785C2D13D1517828
:104DAC00742904F1010402D1591C1F7009E06E2909
:104DBC0017BF1946591C01F8025B55780CBF1E70C1
:104DCC005D70023202E0591C01321D7001340B4639
:104DDC00E0E700221A70F8BDFCD903201FB5184B70
:104DEC001B68042B19DC04F0CFF9164904466846FD
:104DFC0003F0D3FF6B46144A0121204603F0DFFE7B
:104E0C00684603F044FF0F49684603F0C6FF0122D1
:104E1C000E496846FFF748FE0CE004F0B5F9094965
:104E2C000446684603F0B9FF6B46094A0121204647
:104E3C0003F0C5FE684603F02AFF04B010BD00BFA6
:104E4C0000D50320F0D4032059A20D001DD203205D
:104E5C0085A20D00E4222DE9F84302FB00F6114D6A
:104E6C001149DFF8448006F118040746281904F0AC
:104E7C003DFD06F1FC094C450ADA04F041FBA31B8D
:104E8C004344204613F8181C02F004FD0134F2E7E9
:104E9C00AF7004F035FBA9780220BDE8F84302F0AE
:104EAC00F9BC00BF6CD5032014D903201FB5CB89E6
:104EBC000A7803938B8902934B8901930B89044CD9
:104ECC0000934B680349204402F0AAFF04B010BDC4
:104EDC007DD20320CBA20D002DE9F743E4244443FB
:104EEC00134D1449144804F120032A192B44009340
:104EFC00D369926902F094FF00260746A84604F194
:104F0C003C0933192B4493F83C3003F0FD03412B3F
:104F1C0006D109EB060138464144FFF7C7FF0744A9
:104F2C001036C02EEDD1012003B0BDE8F08300BFD8
:104F3C006CD50320E5A20D007DD2032010B5084BE3
:104F4C009C78FF2C14BF0134002404F00304204689
:104F5C00FFF780FF2046BDE81040FFF7BDBF00BF44
:104F6C006CD5032070B5194B1B780E4663BB184BE0
:104F7C001A1892F823203AB30A2A25D0092A20D0ED
:104F8C000446B4F5FA6F1EDA1A1992F8232032B9D6
:104F9C00221A01460F48FFF703FA306013E00A2A81
:104FAC00F6D0092A04F1010507D1221A0146094855
:104FBC00FFF7F6F93060284670BD2C2AF5D02C4648
:104FCC00DFE7013070BD204670BD00BFF0C6032086
:104FDC0004CA032027CA032070B50029054688B0EF
:104FEC001F48204C01D101601BE01F4BDA684FF4C5
:104FFC007A7303FB02F207DA4FF0FF3323601B4B8B
:10500C00026000221A600DE00368194464230160F9
:10501C00594391FBF2F19942A8BF19462368994272
:10502C0000D0216004F0B0F82946064604A803F02D
:10503C00B4FE0F4B196A0A2391FBF3F203FB121314
:10504C0002932368019200930A4A04AB0121304673
:10505C0003F0B5FD04A803F01AFE08B070BD00BF44
:10506C00A4C6032000D2032004CA0320D8C6032000
:10507C00F8C50320F6A20D0010B502F0F3FB0446B0
:10508C00FFF7AAFCFFF782FBFFF7CEF802F0EAFB72
:10509C00001B10BD10B50446FFF7EEFFA04204DA6A
:1050AC00201ABDE8104002F0DBBE10BDF0B516466C
:1050BC004A1C85B007460D4602D133600C4629E0E8
:1050CC001649684603F02AFE2A466946384603F01C
:1050DC00B2FE0446684603F0DAFD631C0CD12A4686
:1050EC003946684603F0D6FE684603F0DAFE3060B7
:1050FC00684603F0CCFD0DE023462A463946684647
:10510C0003F0A8FE684603F0CCFE3060684603F05E
:10511C00BEFD0134204605B0F0BD00BF1CA30D0040
:10512C0010B50120FFF7E4FB18B9BDE81040FFF7FC
:10513C00FBBB04F029F80F4903F017FD002404F021
:10514C000DFA214603F0A1FA04F008FA0021FFF74A
:10515C0077F804F003FA03F09FFA30B904F014F86E
:10516C002346054A012103F02AFD01347F2CE6D1A8
:10517C00DBE700BF1EA30D003CA30D00164A08B5CB
:10518C0000231370154A1370154A1370154A1370C7
:10519C00154A1370154A1360154A1360154A13709B
:1051AC001376154A13701376144A137282F8203052
:1051BC0082F82130124A13701372124A1370124A79
:1051CC000A215370117002F04DFB104B00F56A4030
:1051DC006030186008BD00BF65C603207CD2032078
:1051EC00FCD1032059D203205CC60320A4C60320A3
:1051FC0000D2032038D5032052D5032014D9032024
:10520C0004CA03207DD2032000C70320A8C60320B4
:10521C0010B507220D490E4804F0F9FB044670B98D
:10522C0003F0B2FF0B4903F0A0FC0B4B01201C70E8
:10523C00FFF706FAFFF7A2FF084B1C6010BD03F046
:10524C00A3FF0749BDE8104003F08FBC31A20D004D
:10525C00ADC603205BA30D0002CA0320A8C6032021
:10526C0069A30D0010B507220D490E4804F0CFFBC1
:10527C00044670B903F088FF0B4903F076FC0B4B26
:10528C0001201C70FFF7DCF9FFF778FF084B1C605E
:10529C0010BD03F079FF0749BDE8104003F065BC71
:1052AC0031A20D00ADC603207DA30D0095C90320CE
:1052BC00A8C603208CA30D001FB503F065FF0F4992
:1052CC0003F053FC0E4B01221A7002F0CBFA0D4B7B
:1052DC0000F59C4020301860FFF796F90A496846A3
:1052EC0003F01CFD002209496846FFF7DDFB684608
:1052FC0003F0CDFC05B05DF804FB00BFA0A30D00CE
:10530C00F1C6032068C60320AEA30D001CD90320F0
:10531C001FB5164C03F038FF214603F026FC144B46
:10532C0001221A7002F09EFA124B00F51C5010303C
:10533C0018602146684603F0F1FC4FF0FF316846D7
:10534C00FFF74AFE684603F0A2FC0B49684603F0DF
:10535C00E5FC002209496846FFF7A6FB684603F006
:10536C0096FCFFF749F904B010BD00BF7DA30D00FA
:10537C0095C9032058C60320B9A30D001CD90320DE
:10538C001FB503F001FF154903F0EFFB144B01228D
:10539C001A7002F067FA134B134900F51C501030C9
:1053AC001860684603F0BAFC4FF0FF316846FFF70F
:1053BC0013FE684603F06BFC0C49684603F0AEFC28
:1053CC0000220B496846FFF76FFB684603F05FFC51
:1053DC00FFF712F905B05DF804FB00BFC5A30D0083
:1053EC0002CA0320ECC60320D4A30D00E2A30D00D7
:1053FC001CD9032070B50E460446154603F0EAFF8F
:10540C00012E05D129462046BDE8704004F036B87F
:10541C0070BD70B50E460446154603F0DBFF012E39
:10542C0005D129462046BDE8704003F0E4BF70BDAD
:10543C0070B500238AB0042259495A485A4D5B4E24
:10544C0002F02EFC5A4A5B495B4802F0BDFD06A8EF
:10545C0002F056FC06A9284603F0AAFC06A803F0A5
:10546C0016FC564902A803F059FC294602A803F081
:10547C00BEFC0024014606A803F08FFC23462246FE
:10548C004F4901940094069802F04AFC06A803F0D8
:10549C00FEFB02A803F0FBFB4A4902A803F03EFC0A
:1054AC00294602A803F0A3FC014606A803F075FCEC
:1054BC0023462246444901940094069802F030FC9D
:1054CC0006A803F0E4FB02A803F0E1FB1922234633
:1054DC003146284603F097FC3C4B34761888022161
:1054EC0003F078FF3A4B0221188803F073FF394B15
:1054FC00012211461888FFF78CFF374B214618887C
:10550C0003F068FF354B224618880121FFF772FF24
:10551C00334B224618880121FFF76CFF314B224692
:10552C0018880121FFF766FF2F4B2146188803F0DE
:10553C0051FF2E4B2146188803F04CFF2C4B214673
:10554C00188803F047FF2B4B224618880121FFF7E0
:10555C0060FF294B224618880121FFF75AFF274B81
:10556C00224618880121FFF754FF254B802218880A
:10557C000121FFF73FFF234B224618880121FFF73B
:10558C0039FF214B224618880121FFF733FF03F026
:10559C00FBFD4FF4E13103F0EBFD0AB070BD00BF31
:1055AC007DD20320EEA30D00DCC6032004D2032021
:1055BC00F7A30D0095710D00A97F0D0000A40D003F
:1055CC0001410D0019A40D00D1410D0070C503203F
:1055DC0064C503207CC5032080C5032048C5032077
:1055EC0054C5032058C503206CC5032074C5032083
:1055FC005CC5032084C5032078C5032050C5032057
:10560C0060C5032068C503204CC5032007B503F013
:10561C00BBFD0C4903F0A9FA03F072FF0122002034
:10562C000DF1070102F03EF99DF80730FF2B064BF8
:10563C000DBF01220022012000201A7003B05DF87A
:10564C0004FB00BF2FA40D00ACC6032030B50A4CE0
:10565C00257885B06DB90949684603F05FFB2A4689
:10566C0007496846FFF720FA684603F010FB012350
:10567C00237005B030BD00BF64C6032055A40D00D7
:10568C0004D2032007B5009313460A46012103F008
:10569C0096FA03B05DF804FB38B50A4B1B78044648
:1056AC000D4633B103F070FD2B4622460649FFF739
:1056BC00E9FF064B2A4621461878BDE8384003F02E
:1056CC005FBC00BF03CA032065A40D0068C503209E
:1056DC0008B5FA214FF48370FFF7DEFF322002F099
:1056EC00BFFBFA214FF49370FFF7D6FF322002F084
:1056FC00B7FBFA214FF4A570FFF7CEFF322002F072
:10570C00AFFBFA2140F25D10FFF7C6FF322002F02A
:10571C00A7FBFA214FF4C470FFF7BEFF322002F052
:10572C009FFBFA214FF4DC70FFF7B6FF322002F03A
:10573C0097FBFA214FF4F770FFF7AEFF322002F01F
:10574C008FFBFA2140F20B20BDE80840FFF7A4BF05
:10575C002DE9F0410D4655490346024686B01830F6
:10576C0052F8044B41F8044B8242F9D1186859683D
:10577C004F4C504E03C42B4605F11807083C1868D3
:10578C005968324603C20833BB421646F7D1192377
:10579C000193494B49494FF0000802A883F8218036
:1057AC0003F0BCFA02AA01A92846FEF70CFEE06041
:1057BC0002A803F06CFA414902A803F0AFFA02AA5E
:1057CC0001A92846FEF7FFFD206102A803F05FFA4D
:1057DC003A4902A803F0A2FA02AA01A92846FEF748
:1057EC00F2FD606102A803F052FA344902A803F0FA
:1057FC0095FA02AA01A92846FEF7E5FDA06102A8C8
:10580C0003F045FA2D4902A803F088FA02AA01A96F
:10581C002846FEF7D8FDE06102A803F038FA2749C4
:10582C0002A803F07BFA02AA01A92846FEF7CBFDD9
:10583C00208402A803F02BFA204902A803F06EFA88
:10584C0002AA01A92846FEF7BEFD84F8220002A890
:10585C0003F01DFA194902A803F060FA02AA01A983
:10586C002846FEF7B0FD074602A803F010FA268C76
:10587C000199134832462944344404F0DDF8B11E32
:10588C000F4884F82380FEF7C5FD80EAE074A4EB92
:10589C00E07403F079FC23463A460A49FFF7F2FE1E
:1058AC003B1B5842584106B0BDE8F08152D503204D
:1058BC0004CA03201CD9032014D9032097A40D007B
:1058CC0027CA032099A40D0073B5044603F046FEC5
:1058DC00214602F0D6FE03F041FE0021FEF7B0FC9B
:1058EC00064603F03BFE002102F0D2FE054630B125
:1058FC0003F04AFC2B4632461549FFF7C3FE03F072
:10590C002DFE2146042202F0B9FE03F027FE0368A7
:10591C005B699847044603F021FE03685B6998476E
:10592C000C4B1B78054643B103F02EFCE3B20093FD
:10593C00094AEBB2012103F042F96A0704D4E0B240
:10594C00C31E5842584100E0002002B070BD00BF99
:10595C00B1A40D0003CA0320D2A40D007FB5124BD5
:10596C001C680D46041B06461049684603F0D6F920
:10597C0084EAE473A3EBE4736B43684646F2A81124
:10598C0093FBF1F1FFF728FB684603F080F903F075
:10599C00FBFB234632460649FFF774FE2946204698
:1059AC00FEF7E8FD04B070BD30D50320E8A40D006F
:1059BC0003A50D00962144F25060FFF7CFBF96214E
:1059CC0042F63020FFF7CABF13460A46012103F006
:1059DC00F6B80000F8B501F045FF184B1A68824282
:1059EC001F4625D8164B1A781D462AB103F0CCFB5E
:1059FC00144A012103F0E3F8134A0023E42101FBCC
:105A0C00032696F820404CB12C789CB103F0BCFBDB
:105A1C0096F820200D49FFF7D7FF0CE00133042B3B
:105A2C00EDD101F01FFF00F56A406030386002E0F4
:105A3C00002400E001242046F8BD00BFA8C60320C6
:105A4C0003CA03202EA50D006CD5032049A50D001B
:105A5C002DE9F347444C23780646884615462BB16E
:105A6C0003F092FB32464149FFF7AEFF03F076FD9F
:105A7C00294602F00AFE03F071FD0021FEF7E0FB5F
:105A8C00824603F06BFD0221FEF7DAFB074603F0BA
:105A9C0065FD012102F0FCFD814650B1574403F035
:105AAC0073FBCDF8049000973346314A012103F083
:105ABC0086F803F053FD294602F0E7FD03F04EFD96
:105ACC000621FEF7BDFB824603F048FD03685FFA32
:105ADC0088F19B689847074603F040FD012102F0CE
:105AEC00D7FD814650B1574403F04EFBCDF80490DE
:105AFC00009733461E4A012103F061F803F02EFD96
:105B0C00294602F0C2FD03F029FD0621FEF798FBA1
:105B1C00074603F023FD002102F0BAFD064630B122
:105B2C0003F032FB33463A461249FFF7ABFD03F064
:105B3C0015FDE9B2012202F0A1FD054603F00EFDB0
:105B4C0003685B699847237806464BB103F01CFB4E
:105B5C000196CDF800802B46074A012103F02FF85F
:105B6C0002B0BDE8F08700BF03CA032058A50D00A2
:105B7C0076A50D00B1A40D009DA50D002DE9F341F6
:105B8C00534D544E544F01232B7003F0FDFA5349DF
:105B9C0002F0EBFF03F070FA4FF4165103F062FAC7
:105BAC0003F0F2FA4E4902F0E0FF0021308803F0D6
:105BBC0022FC01F057FE00F59C5403F0E5FA49492C
:105BCC0002F0D3FF0834388803F02EFC804603F033
:105BDC00DBFA2E2102F0BAFFFEF726FBC82002F0FA
:105BEC003FF9B8F1010F03D001F03CFEA042EAD31B
:105BFC0003F0CAFA074603F03FFA03681B6998479B
:105C0C00002814BF59224E2237493846FFF7DCFED4
:105C1C000121308803F0EFFB03F0B6FA334902F0B0
:105C2C00A4FF03F029FA03681B69984730B901F007
:105C3C0019FE844202D9FEF7F7FAF2E7642002F06B
:105C4C000FF903F0A1FA2A492A4E02F08EFF002424
:105C5C0003F09AFA2E2102F079FF03F00DFA036893
:105C6C005B699847431C1CBF3055013403F004FAA0
:105C7C0003681B69984708B1172CE9DD03F084FA17
:105C8C0002F067FF172C1B4A09DC1B4B114603F172
:105C9C00180053F8046B41F8046B8342F9D10026C9
:105CAC00167603F071FA134B144A0094012102F09A
:105CBC0086FF03F0E1F903F0D8F903F065FA104917
:105CCC0002F053FF20462E7002B0BDE8F08100BFF9
:105CDC00D9C903207CC5032080C50320C0A50D00B5
:105CEC00D3A50D00EAA50D00FBA50D0024A60D0003
:105CFC0082A60D0038D503203AA60D0053A60D0040
:105D0C006BA60D0070B590B00025014606460CA898
:105D1C000795089509950A950B9503F03EF82B46C7
:105D2C0006AA29460CA8FFF7C1F904460CA802F0F4
:105D3C00AEFF069B023B202B00F2AE82DFE813F095
:105D4C00210025005400AC02AC027E0099009E009C
:105D5C00C000E10003012401460169016E018801C4
:105D6C008D019E01A101A401A701AB01AC02AC0203
:105D7C00AC02AE01C601F90100020402AC02290218
:105D8C0059020120FEF75CFC83E231460CA803F0BB
:105D9C0004F8002307AA21460CA8FFF787F904464C
:105DAC000CA802F074FF31460CA802F0F6FF4FF479
:105DBC007A7308AA21460CA8FFF778F90CA802F010
:105DCC0066FF08990798B74CFEF72CFC03F0DCF93A
:105DDC00B54BB64A1B680193236800930121079BBE
:105DEC0002F0EDFE246858E2FEF70EFCFFF7E2FD30
:105DFC00FEF702FC31460CA802F0CFFFB62307AA2F
:105E0C0021460CA8FFF752F904460CA802F03FFFFC
:105E1C0031460CA802F0C1FFFF2308AA21460CA8AA
:105E2C00FFF744F90CA802F032FFA14B079C1C6051
:105E3C00A04B089A1A6001229F4BA8E131460CA88E
:105E4C0002F0ABFF07AA21464FF4B9730CA8FFF779
:105E5C002DF90CA802F01BFF03F096F9974B196A69
:105E6C000A2391FBF3F203FB12139549FFF70AFC8B
:105E7C0024E0FEF725FB934B5C780EE231460CA830
:105E8C0002F08BFF4FF4FA7307AA21460CA8FFF718
:105E9C000DF904460CA802F0FAFE31460CA802F0EB
:105EAC007CFF2146FF2308AA0CA8FFF7FFF80CA8DB
:105EBC0002F0EDFE08990798FEF7DFFC079CECE179
:105ECC0031460CA802F069FF07AA4FF4FA73214679
:105EDC000CA8FFF7EBF804460CA802F0D8FE3146EC
:105EEC000CA802F05AFF2146FF2308AA0CA8FFF7C2
:105EFC00DDF80CA802F0CBFE08990798FEF7C9FC58
:105F0C001FE031460CA802F048FF4FF4FA7307AAC1
:105F1C0021460CA8FFF7CAF804460CA802F0B7FEFD
:105F2C0031460CA802F039FF2146FF2308AA0CA821
:105F3C00FFF7BCF80CA802F0AAFE08990798FEF728
:105F4C00B4FC089CA9E131460CA802F026FF07AA74
:105F5C004FF4FA7321460CA8FFF7A8F804460CA8D6
:105F6C0002F095FE31460CA802F017FF2146FF23E4
:105F7C0008AA0CA8FFF79AF80CA802F088FE08995A
:105F8C000798FEF79EFCDCE731460CA802F005FFF3
:105F9C0007AA4FF4167321460CA8FFF787F804469E
:105FAC000CA802F074FE31460CA802F0F6FE214655
:105FBC004FF47A7308AA0CA8FFF778F80CA802F033
:105FCC0066FE08990798FFF767FB77E731460CA840
:105FDC0002F0E3FE07AA002321460CA8FFF766F89F
:105FEC0004460CA802F053FE31460CA802F0D5FE74
:105FFC0021464FF47A7308AA0CA8FFF757F80CA89F
:10600C0002F045FEFEF700FB08990798FFF7A6FC87
:10601C003DE1FEF7F9FAFFF7D2FC38E131460CA866
:10602C0002F0BBFE4FF4B97307AA21460CA8FFF788
:10603C003DF80CA802F02BFE079C40F25623621E82
:10604C009A4200F22A811D4B00225C62DA6124E143
:10605C00FEF7DAFAFFF7AEFC19E131460CA802F0B4
:10606C009CFE802307AA21460CA8FFF71FF80CA85A
:10607C0002F00DFE0798FEF76DFB1FE7FEF77AFBAB
:10608C005CE0FEF759FC59E0FEF76CFC56E00E4B59
:10609C0001241C7001E10C4B1D70FDE0FFF740F872
:1060AC004CE000BF30D5032098C903209FA60D00FB
:1060BC00ECD40320F8D10320D8C90320F8C5032061
:1060CC00CEA60D006CD5032003CA0320FEF79CFA64
:1060DC00FFF770FCFEF790FA31460CA802F05DFE5B
:1060EC0007AAB62321460CA8FEF7E0FF04460CA82D
:1060FC0002F0CDFD31460CA802F04FFE08AA214655
:10610C00FF230CA8FEF7D2FF0CA802F0C0FD6D4BCC
:10611C0007996D4800221A706C4B19606C4B0899EA
:10612C0019606C4B01246FF000411C70FEF7FAF8FB
:10613C00B3E06FF000416448FEF7B8F80124ACE01E
:10614C00FFF71CFD0446A8E031460CA802F025FE22
:10615C00B62307AA21460CA8FEF7A8FF04460CA8F4
:10616C0002F095FD31460CA802F017FEFF2308AA99
:10617C0021460CA8FEF79AFF0CA802F088FD564B9E
:10618C00079C1C60554B089A1A60554B01221A70DB
:10619C0083E031460CA802F000FE07AA1923214621
:1061AC000CA8FEF783FF04460CA802F070FD3146E4
:1061BC000CA802F0F2FD08AA962321460CA8FEF7C3
:1061CC0075FF04460CA802F062FD31460CA802F0E3
:1061DC00E4FD09AA21460A230CA8FEF767FF0CA8C8
:1061EC0002F055FDFEF710FA07A807C8FEF756FA9D
:1061FC004DE031460CA802F0D0FD002307AA214641
:10620C000CA8FEF753FF04460CA802F040FD3146E3
:10621C000CA802F0C2FD4FF47A7308AA21460CA810
:10622C00FEF744FF04460CA802F031FD31460CA8E1
:10623C0002F0B3FD192309AA21460CA8FEF736FF7C
:10624C0004460CA802F023FD31460CA802F0A5FD73
:10625C0096230AAA21460CA8FEF728FF04460CA890
:10626C0002F015FD31460CA802F097FD02230BAA93
:10627C0021460CA8FEF71AFF0CA802F008FDFEF749
:10628C00C3F90B9B009307A80FC8FEF71DFAFEF786
:10629C00B3F9144B1C6800E0002402F075FF0B9B53
:1062AC0005930A9B0493099B0393089B0293079BFA
:1062BC0001930094069B0C4A012102F080FC2046BD
:1062CC0010B070BD03CA03203CC60320ECD40320DD
:1062DC00F8D10320D8C90320FCC6032090C90320A1
:1062EC00A1C6032030D50320E3A60D0010B5154B35
:1062FC00188803F099F8144B021E0CBF01210021E1
:10630C0019701C4608D10121104801F06BFC4FF4A8
:10631C00AF714FF4167007E0002211460B4801F0E4
:10632C0061FCC8214FF49670FFF7B6F902F02CFF10
:10633C0023780749002B14BF59224E22FFF744FB48
:10634C0010BD00BF64C503205AD2032074C90320BA
:10635C002DA70D0010B51B4B1A7892B11A4C227850
:10636C0052B1002222701A7002F00EFF174902F08F
:10637C00FCFBFFF7BBFF04E0322001F071FD0123B1
:10638C002370134B1C7874B101F06CFA114B1B6821
:10639C00984215D902F0F8FE0F4902F0E6FBBDE871
:1063AC001040FEF70FBC0D4B1A784AB11C700C4B09
:1063BC001B782BB1FFF7E2FB18281CBF094B1C7094
:1063CC0010BD00BF2CD50320A2C6032042A70D0090
:1063DC0080C60320F4C603205AA70D0094C90320DD
:1063EC005AD20320FCD1032013460A46002102F0A6
:1063FC00E6BB00002DE9F3470546174698460E46C6
:10640C0003F0ACF8294602F03CF903F0A7F80021A0
:10641C00FDF716FF824603F0A1F88321FDF710FF6C
:10642C00044603F09BF8012102F032F9814660B179
:10643C00544402F0A9FECDF8049000942B46754A02
:10644C00012102F0BCFB0020E0E001F00BFA00F5AA
:10645C009C5909F108092846FFF736FA70B901F082
:10646C0001FA484503D2642001F0FAFCF3E702F08C
:10647C008BFE2A466849FFF7A7FAE4E7674C2378B6
:10648C002BB102F081FE2A466549FFF79DFA03F015
:10649C0065F8294602F0F5F803F060F80021FDF7E5
:1064AC00CFFE824603F05AF8002102F0F1F8814643
:1064BC0030B102F069FE4B4652465A49FFF7E2F8FA
:1064CC0003F04CF829460A2202F0D8F803F046F8FB
:1064DC0003685B699847054603F040F803685B69FD
:1064EC009847237881464BB1EDB202F04DFE0095F2
:1064FC005FFA89F34C4A012102F061FB03F02EF89C
:10650C0003685B6998472378C5B22BB102F03CFE57
:10651C002A464649FFF768FF03F020F803685B69D9
:10652C0098472378814633B102F02EFE5FFA89F248
:10653C003E49FFF759FF4FEA092909F47F49142313
:10654C004D4495FBF3F50A9B433D1D8003F006F883
:10655C0003685B6998472378C5B22BB102F014FE2F
:10656C002A463249FFF740FF02F0F8FF03685B69E7
:10657C00984723785FFA80F92BB102F005FE4A4662
:10658C002A49FFF731FF05EB0925358002F0E6FFBC
:10659C0003685B6998472378C5B22BB102F0F4FD10
:1065AC002A462249FFF720FF02F0D8FF03685B69F7
:1065BC0098472378C6B22BB102F0E6FD32461B4950
:1065CC00FFF712FF05EB06253D8002F0C7FF0368BD
:1065DC005B6998472378C5B22BB102F0D5FD2A46EA
:1065EC001249FFF701FF02F0B9FF03685B69984796
:1065FC002378C6B22BB102F0C7FD32460B49FFF728
:10660C00E3F905EB0625A8F80050012002B0BDE81F
:10661C00F08700BF9FA70D00FFA70D0003CA032042
:10662C00CFA70D00B1A40D00D2A40D00FBA70D0047
:10663C002DE9F04F8FB0412807460A9115460AD034
:10664C0031280CD032280ED002F09EFD3A46554926
:10665C00FFF7BAF9A3E0544C4FF0740A06E0534C20
:10666C004FF0750A02E0524C4FF0760A73B1514A62
:10667C0092F821000C24B0FBF4F304FB1304E4B2F5
:10668C0002EB04140130243482F821004A4B0B93A2
:10669C0001221A70FEF76EF829463846FEF7B8F854
:1066AC00642001F0DDFB52460A993846FFF7D0F919
:1066BC00277001F0D7F84FF0000905226060627076
:1066CC00C8464E464D46CB4663789B4520DA0CAB0C
:1066DC0000930DAA0DF136030DF132015046FFF770
:1066EC0089FE60B1BDF832301D44BDF834301E4413
:1066FC00BDF836309844BDF83030994405E002F0CE
:10670C0043FD3A462D49FFF75FF90BF1010BDBE72F
:10671C0096FBF3F66681B6B295FBF3F576432581CD
:10672C00ADB298FBF3F005FB0565A08180B299FB37
:10673C00F3F900FB0050A4F80E90FDF77FFE06461F
:10674C0002F022FDB6B2054601F08CF80896A3893A
:10675C00079363890693238905931FFA89F909EB3B
:10676C00C909052399FBF3F320339BB20493E38906
:10677C00039363780293124BB0FBF3F202FB13000A
:10678C000A9B019000930F4A3B460121284602F0D8
:10679C0016FA0B9A002338461370FEF761F80FB007
:1067AC00BDE8F08F1AA80D0070C603205CD2032040
:1067BC006CD2032014D903205CC6032036A80D002C
:1067CC0040420F005DA80D002DE9F04104460D4636
:1067DC00164601F047F807460120FEF789F8B0B1DC
:1067EC0033462A4621464120FFF722FF33462A46EC
:1067FC0021463120FFF71CFF33462A462146322022
:10680C00FFF716FF02F0C0FC02F0A3F904E002F05F
:10681C00BBFC0B4902F0A9F9FEF786F8094B1B7873
:10682C0063B102F0B1FC044601F01CF8064AC31B2C
:10683C0001212046BDE8F04102F0C1B9BDE8F0816C
:10684C009FA80D0003CA0320D2A80D002DE9F04F1C
:10685C0087B08046894601F005F883460120FEF793
:10686C0047F8C8B902F090FC334902F07EF9FEF704
:10687C005BF8324B1B78002B5BD002F085FC044696
:10688C0000F0F0FF2E4ACBEB00030121204607B0AD
:10689C00BDE8F04F02F093B90024DFF8ACA001265C
:1068AC0027464FF000038AF821304A46012341461F
:1068BC004120FFF7BDFE01234A4641463120FFF738
:1068CC00B7FE4A46414601233220FFF7B1FEBAF823
:1068DC002C20BAF83C10D51B002DB8BF6D42632D8F
:1068EC0005DC0B1B002BB8BF5B42632B10DD0024B7
:1068FC0041F2883005910492013601F0B1FA002C76
:10690C00B5D1332E049A0599B1D00C461746C8E779
:10691C00049302F039FC049B00935922019201214B
:10692C00084A02962B4602F04AF921463A460124BF
:10693C00DEE707B0BDE8F08F9FA80D0003CA032067
:10694C00D2A80D00E3A80D0014D903202DE9F041C5
:10695C0005468CB00C46FEF78FFB0A2D00F07881B3
:10696C006FDC052D00F0D28037DC012D00F09B8010
:10697C0015DC002D40F0428202F0F0FAA94BAA4936
:10698C00186008A802F0CAF941F2707108A8FEF765
:10699C0023FB08A802F07BF94FF47A7014E2022D65
:1069AC0000F09380042D40F0298202A92046FEF7C6
:1069BC00D9FA03A9FEF7D6FA9C49044608A802F0B6
:1069CC00ADF9029908A8FEF707FB08A802F05FF9D9
:1069DC0002990398FEF760FE10E2072D00F0C880C4
:1069EC00C0F2B680082D00F0EB80092D40F0068235
:1069FC008F4908A802F092F98E4B1968A1F58C41C9
:106A0C0050390029B8BF49429623594308A88A4BEC
:106A1C0091FBF3F1FEF7E0FA08A802F038F9FEF763
:106A2C00C9FF864908A802F079F941F2707108A8EB
:106A3C00FEF7D2FA08A802F02AF90122FF21B620AB
:106A4C0036E10F2D00F060810CDC0D2D00F03F8144
:106A5C0000F33F81204602A9FEF784FA0024054684
:106A6C00774E30E1122D00F052810FDC102D40F0EA
:106A7C00C58102A92046FEF775FA03A9FEF772FA42
:106A8C00039904460298FEF769FFB7E1132D00F055
:106A9C009E81632D40F0B28102F060FA614B586028
:106AAC00FEF74CFAAAE102A92046FEF75BFA65490B
:106ABC00044608A802F032F9029908A8FEF78CFAED
:106ACC0008A802F0E4F802987EE102A92046FEF73D
:106ADC0049FA03A9FEF746FA5B49044608A802F0F6
:106AEC001DF9029B83EAE371A1EBE371039B08A8F8
:106AFC004B43514993FBF1F1FEF76EFA08A802F0F3
:106B0C00C6F8029B0399C82058431EE002A92046F0
:106B1C00FEF728FA03A9FEF725FA4B49044608A804
:106B2C0002F0FCF8029B83EAE371A1EBE371039B97
:106B3C0008A84B4346F2A81193FBF1F1FEF74CFA6F
:106B4C0008A802F0A4F803990298FDF713FD55E18B
:106B5C0002A92046FEF706FA03A9FEF703FA04A9D8
:106B6C00FEF700FA044602A807C8FDF797FD45E1B9
:106B7C002F4908A802F0D2F82E4B1968A1F58C41C8
:106B8C0050390029B8BF49429623594308A82A4BCB
:106B9C0091FBF3F1FEF720FA08A802F078F8FEF763
:106BAC0009FF2A4908A802F0B9F841F2707108A847
:106BBC00FEF712FA08A802F06AF8FF21B6202EE0C0
:106BCC0002A92046FEF7CEF903A9FEF7CBF9184926
:106BDC00044608A802F0A2F8164B1968A1F58C41DE
:106BEC0050390029B8BF49429623594308A8124B83
:106BFC0091FBF3F1FEF7F0F908A802F048F8FEF764
:106C0C00D9FE124908A802F089F841F2707108A85F
:106C1C00FEF7E2F908A802F03AF803990298FFF798
:106C2C0015FEEBE014D903200AA90D002FA90D00C5
:106C3C0037A90D0030D50320400D03007EA90D00AF
:106C4C00F0C6032018A90D0020A90D005DA90D00A8
:106C5C0002A92046FEF786F903A9FEF783F96949D4
:106C6C00044608A802F05AF8674B1968A1F58C4144
:106C7C0050390029B8BF49429623594308A8634BA1
:106C8C0091FBF3F1FEF7A8F908A802F000F8FEF763
:106C9C0091FE5F4908A802F041F841F2707108A812
:106CAC00FEF79AF908A801F0F2FF03990298012265
:106CBC00FFF78AFDA2E03378002B40F0A080284635
:106CCC0000F0C0F80134029BA342F4DC97E0604270
:106CDC0095E002A92046FEF745F94E49044608A85E
:106CEC0002F01CF8002108A8FEF776F908A801F0BC
:106CFC00CEFF029A40F25623511E99427ED8464B43
:106D0C005A620022DA6179E0FEF759FE76E002A9B8
:106D1C002046FEF727F903A9FEF724F904A9FEF78C
:106D2C0021F93E4B1B78044633B102F02DFA049B3B
:106D3C003B4A012101F043FF3A4F0026049BB3422A
:106D4C0036DD3D78002D33D105A92046FEF70AF932
:106D5C0006A9FEF707F907A9FEF704F9069AC82356
:106D6C005343044606934FF47A78059BAB421DDDE2
:106D7C002D4908A801F0D2FF069B83EAE371A1EB31
:106D8C00E371029B4B43079993FBF8F308A8194452
:106D9C00FEF722F908A801F07AFF02990698FDF790
:106DAC00E9FB0798FEF776F90135DEE70136C5E712
:106DBC001E4908A801F0B2FF039908A8FEF70CF9C8
:106DCC0008A801F064FF0398FEF764F916E002A925
:106DDC002046FEF7C7F803A9FEF7C4F804A9FEF78E
:106DEC00C1F805A9FEF7BEF806A9FEF7BBF8069B8D
:106DFC000093044602A80FC8FDF766FC20460CB0B1
:106E0C00BDE8F08137A90D0030D50320400D0300FB
:106E1C007EA90D0096A90D00F8C5032003CA032016
:106E2C00B8A90D00F0C6032020A90D00D4A90D00AF
:106E3C00034A12780AB9FFF789BD0846704700BFAC
:106E4C00F0C6032013B501A90446FEF78BF80146E2
:106E5C0064B9019B53B1114B01221A7002F094F9E1
:106E6C000F4901F082FE4FF0FF3015E001980B4CFA
:106E7C00FFF7DEFF019B632B0BD0002809DD237885
:106E8C003BB901A9FEF76EF801460198FFF7D0FF58
:106E9C00F0E70028B8BF404202B010BDF0C6032096
:106EAC00F3A90D001FB52C4B01221A7002F06CF9DE
:106EBC002A4901F05AFE2A4B2849002468461C60D6
:106ECC0001F02CFF21466846FEF786F8684601F073
:106EDC00DEFE00F005FF4FF4FA6000F0C1FF00F099
:106EEC0007FF044638B102F04FF91E4901F03DFE90
:106EFC00FDF79AF9EFE7FDF7A3FB4FF4FA614FF4B6
:106F0C001670FEF7C9FB4FF4FA6000F0A9FF21469A
:106F1C00204600F057FC2046FFF794FF2146012045
:106F2C0000F050FC00F0D4FE4FF4FA6000F098FF33
:106F3C0000F0DEFE38B902F027F90B4901F015FE1E
:106F4C00FDF772F9F0E7094B094A1B7883F001034E
:106F5C00137004B010BD00BF65C603200BAA0D0052
:106F6C00D8C6032017A40D0018AA0D00F0C60320E4
:106F7C0081C6032013460A46012101F020BE000001
:106F8C0038B5072204460D490D4802F040FD054670
:106F9C0060B902F0F9F822460A49FFF7EBFF0A4BF9
:106FAC001D702046BDE83840FDF770BE02F0ECF8CD
:106FBC000649BDE8384001F0D8BD00BF31A20D0034
:106FCC00ADC603201AAA0D00F8C6032052AA0D0064
:106FDC001E4B002273B51A70064607220C461C483D
:106FEC001C491D4D02F013FDB0FA80F040092870C9
:106FFC0002F0CAF82B781949002B14BF59224E22E3
:10700C00FEF7E2FC2B78B3B121463046FEF7A0FB2D
:10701C0048B1134B01221A7002F0B6F822461149FE
:10702C00FFF7A8FF0FE002F0AFF80F4902B0BDE880
:10703C00704001F09ABD02F0A7F8009433460B4A59
:10704C00012101F0BCFD02B070BD00BF80C6032061
:10705C00ADC6032031A20D00FCD1032066AA0D00A1
:10706C0051D503207EAA0D00A4AA0D00C0AA0D00C4
:10707C0013B5304CFDF700FA228840F60A439A42C9
:10708C0001D0FDF71DFAFEF74BF802F07DF82A4906
:10709C0001F06BFD0120FDF7D3FA02F075F82749DA
:1070AC0001F063FDFF214FF4FA70FDF7E6FB4FF49E
:1070BC00FA7000F0D5FEFF214FF4FA70FDF7E9FBF2
:1070CC004FF4FA7000F0CCFEFF214FF4FA70FDF78C
:1070DC00ECFB02F059F81A4901F047FDFEF7F8FAFB
:1070EC00FEF74CF8FFF702F9164B174918880022E7
:1070FC004FF0FF33009201F0D7FA02F045F8134A33
:10710C001349FFF737FF02F03FF8A278019262783B
:10711C002378009201210F4A01F051FDFDF70CFC80
:10712C0000F0A0FB0C4B00F59C500830186002B02E
:10713C0010BD00BF6CD50320E1AA0D00F1AA0D0013
:10714C0001AB0D0064C50320D9400D0004D203200F
:10715C0016AB0D0024AB0D00F8D9032008B5FEF7D3
:10716C0067F9FEF753FA18B1BDE80840FFF780BF86
:10717C0002F00AF8024A0349FFF7FCFE08BD00BF03
:10718C0004D20320AEAB0D0010B58368182B11D1BF
:10719C000A4C19222146002301F035FE00232376E8
:1071AC0001F0F2FF22460649FFF7E4FEFDF70AFD67
:1071BC00012010BD4FF0FF3010BD00BF38D50320AB
:1071CC00CBAB0D007FB5324B324D00221A702B78B1
:1071DC00222B04D001F0D8FF2A462F491AE0FDF7E4
:1071EC00CFFDFDF777FD2D4C064601F0CDFF2C4B66
:1071FC00009301212B4B029601942B4A01F0DFFCEA
:10720C002A4B2848196802F0BCFB50B101F0BCFFB6
:10721C0027492A46FFF7AEFE04B0BDE87040FDF7E3
:10722C00DDBD24491F4802F0ACFB30B93146204685
:10723C0004B0BDE87040FFF7CBBE1F49194802F0FF
:10724C00A0FB20B904B0BDE87040FDF7F7BC1B49AA
:10725C00144802F096FB20B904B0BDE87040FDF76D
:10726C00D7BF17490F4802F08CFB20B904B0BDE81A
:10727C007040FDF7F7BF13490A4802F082FB28B9AA
:10728C00204604B0BDE87040FFF77ABE04B070BD74
:10729C0059D20320FCD90320E9AB0D0004D50320FF
:1072AC00ADC6032082C6032011AC0D00F0D4032020
:1072BC003DAC0D00EFA10D00AEA30D00E2A30D003F
:1072CC00B9A30D005EAC0D0030B5144B85B0012296
:1072DC000C461A70054600F0C5FA114B00F59C409F
:1072EC002030186001F050FF22460E49FFF742FE95
:1072FC002846FDF7F1FD01F047FF0B4901F035FC85
:10730C000A49684601F00AFD002221466846FDF74D
:10731C00CBFB684601F0BBFC05B030BDF8C60320C2
:10732C0034D503206AAC0D007DD203205EAC0D0079
:10733C0010B501F029FF0B4901F017FC0A4B002096
:10734C00E42202FB00F15C1894F8204034B1064BA7
:10735C0020311944BDE81040FFF7B6BF01300428B6
:10736C00EFD110BD88AC0D006CD5032038B5404B67
:10737C001B781BB33F4C25783DB101F005FF3E490E
:10738C0001F0F3FB0023237027E03C4C237833B14E
:10739C0001F0FAFE3A4901F0E8FB257031E0394B77
:1073AC001B78F3B100F05EFA374B1B68834218D29E
:1073BC0001F0EAFE354901F0D8FB0EE0344B1B78A6
:1073CC0083B300F04FFA334B1B6898422AD901F073
:1073DC00DBFE314901F0C9FB20E0BDE83840FDF788
:1073EC0097BF2E4B1B78002B41D000F03BFA2C4B57
:1073FC001B68984200D838BD01F0C6FE294901F03F
:10740C00B4FBBDE83840FDF7BBBF274C2378C3B1B4
:10741C0001F0BAFE254901F0A8FB2570BDE8384003
:10742C00FDF74ABF224C2578002DEED001F0ACFEC2
:10743C00204901F09AFB00232370BDE83840FFF788
:10744C0031BD1D4B1B785BB100F00CFA1B4B1B685C
:10745C0098420CD901F098FE194901F086FB02E024
:10746C00FEF7B8FA18B1BDE83840FFF761BF38BD78
:10747C0065C60320F0C6032098AC0D0081C603201E
:10748C00A8AC0D0095C9032058C60320EBAC0D0029
:10749C00F1C6032068C6032068AD0D0002CA0320A4
:1074AC00ECC603202AAD0D0051D503200AA90D000E
:1074BC007CD20320B7AC0D00F8C6032034D50320D2
:1074CC00CFAC0D007FB5334E334C01F05DFE03683D
:1074DC001B69984740B301F057FE03685B699847F6
:1074EC002368F05401F050FE03681B699847236829
:1074FC00054638B10133282193FBF1F201FB12331D
:10750C002360E2E7F05401F03FFE224901F02DFB2D
:10751C0020492560684601F001FC6846FEF7F2FB45
:10752C00684601F0B4FBD0E71C4B1B783BB101F073
:10753C002BFE1B4901F019FBFFF744FE27E0194B0A
:10754C001B780BB1FEF782F8FEF704FFFFF70EFF76
:10755C00154B1A783AB100221A70144B1968144B57
:10756C001868FFF731F9134B1A783AB100221A70E8
:10757C000E4B1968104B1868FFF768F90F4B1A6817
:10758C002AB100221A60FDF727FAFDF7FFF804B0C4
:10759C0070BD00BFDAC90320C0E3032059D2032019
:1075AC00A4AD0D00ACC60320D8C90320F8D103202C
:1075BC00ECD40320A1C60320FCC6032060C6032024
:1075CC002DE9F0435A4B5B4F5B4EDFF8A48101254C
:1075DC001D705A4B87B002241C7000F083F90022F6
:1075EC001E21204600F040FB4FF014090346CDF855
:1075FC000090224601954FF47F01384601F0F4F8D3
:10760C0032464146384601F0EFFF00220A2120465F
:10761C0000F02AFB4A4FCDF8009003462246019514
:10762C004FF47F41384601F0DFF8464CDFF84491C7
:10763C0032464146384601F0D7FF434B029302AA2B
:10764C000023424FDFF83081CDF8149041F288319D
:10765C0020460497FCF7F8FD02A8FCF7DBFD324648
:10766C004146204601F0C0FF394A3A4B12681A6075
:10767C00394A049712685A604FF448721A614FF4F1
:10768C00B97200244FF47A715A62344F99636422B0
:10769C00DC601C725C619C61DA621D635D63DD639E
:1076AC001D642F4B029302AA23463846CDF8149042
:1076BC00FCF7CAFD02A8FCF7ADFDDFF8C090384618
:1076CC00284F3246414601F08FFFDFF8B48049461F
:1076DC00384601F023FB3846234F3246414601F031
:1076EC0083FF4946384601F019FB3246414638467D
:1076FC0001F07AFF1D4B0C225A702146FF220A26FC
:10770C0028461E709A7000F08FFA01F029FE23466D
:10771C00224642F6A23101F02BFE01F021FE234657
:10772C002246314601F02CFE07B0BDE8F08300BFC5
:10773C00A0C60320B8C90320F4C503206CC60320DF
:10774C0070C903203CC60320B5400D00E9400D0074
:10775C004CC50320F8C503206CC503209CC903202D
:10776C00C1400D00DCC60320F0D403206CD50320EF
:10777C00A1410D00E5400D00D9420D0098A40D006B
:10778C009B8C0D0008B5024B1B689B68019308BDD0
:10779C004802030008B5024B1B68DB68019308BD67
:1077AC004802030008B5024B1B681B69019308BD16
:1077BC004802030008B5024B1B685B69019308BDC6
:1077CC004802030008B5024B1B68DB69019308BD36
:1077DC004802030008B5024B1B681B6A019308BDE5
:1077EC004802030008B5024B1B685B6A019308BD95
:1077FC004802030008B5024B1B689B6A019308BD45
:10780C004802030008B5024B1B68DB6A019308BDF4
:10781C004802030008B5024B1B685B6C019308BD62
:10782C004802030008B5024B1B689B6C019308BD12
:10783C004802030008B5024B1B681B6F019308BD7F
:10784C004802030008B5024B1B685B68019308BD36
:10785C001802030008B5024B1B68DB68019308BDD6
:10786C001802030008B5024B1B685B69019308BD45
:10787C001802030008B5024B1B68DB69019308BDB5
:10788C001802030008B5024B1B689B6A019308BDE4
:10789C001802030008B5024B1B681B6B019308BD53
:1078AC001802030008B5024B1B685B6C019308BD02
:1078BC001802030008B5024B1B689B6C019308BDB2
:1078CC001802030008B5024B1B68DB6C019308BD62
:1078DC001802030008B5024B1B689B6D019308BD91
:1078EC001802030008B5024B1B681B68019308BD06
:1078FC002C02030008B5024B1B685B68019308BDA2
:10790C002C02030008B5024B1B689B68019308BD51
:10791C002C02030008B5024B1B68DB68019308BD01
:10792C002C02030008B5024B1B681B69019308BDB0
:10793C002C02030008B5024B1B685B69019308BD60
:10794C002C02030008B5024B1B689B69019308BD10
:10795C002C02030008B5024B1B68DB69019308BDC0
:10796C002C02030008B5024B1B689B6A019308BDEF
:10797C002C02030008B5024B1B681B6B019308BD5E
:10798C002C02030008B5024B1B689B6F019308BDCA
:10799C002C02030008B5024B1B68DB6F019308BD7A
:1079AC002C02030008B5024B1B681B68019308BD31
:1079BC002802030008B5024B1B68DB68019308BD65
:1079CC002802030008B5024B1B681B69019308BD14
:1079DC002802030008B5024B1B689B69019308BD84
:1079EC002802030008B5024B1B68DB69019308BD34
:1079FC002802030008B5024B1B681B6A019308BDE3
:107A0C002802030008B5024B1B685B6A019308BD92
:107A1C002802030008B5024B1B689B6A019308BD42
:107A2C002802030008B5024B1B68DB6A019308BDF2
:107A3C002802030008B5024B1B681B6B019308BDA1
:107A4C002802030008B5024B1B685B6B019308BD51
:107A5C002802030008B5024B1B681B6C019308BD80
:107A6C002802030008B5024B1B681B6D019308BD6F
:107A7C002802030008B5024B1B685B69019308BD23
:107A8C006402030008B5024B1B689B68019308BD98
:107A9C006802030008B5024B1B68DB68019308BD44
:107AAC006802030008B5024B1B681B68019308BDF4
:107ABC002402030008B5024B1B68DB69019308BD67
:107ACC003002030008B5024B1B681B6A019308BD0A
:107ADC003002030008B5024B1B681B68019308BDFC
:107AEC003C02030008B5024B1B689B68019308BD60
:107AFC003C02030008B5024B1B68DB68019308BD10
:107B0C003C02030008B5024B1B681B69019308BDBE
:107B1C003C02030008B5024B1B685B69019308BD6E
:107B2C003C02030008B5024B1B689B69019308BD1E
:107B3C003C02030008B5024B1B68DB69019308BDCE
:107B4C003C02030008B5024B1B681B6A019308BD7D
:107B5C003C02030008B5024B1B689B6A019308BDED
:107B6C003C02030008B5024B1B68DB6A019308BD9D
:107B7C003C02030008B5024B1B681B68019308BD4F
:107B8C004C02030008B5024B1B685B68019308BDEF
:107B9C004C02030008B5024B1B681B69019308BD1E
:107BAC004C02030008B5024B1B685B69019308BDCE
:107BBC004C02030008B5024B1B689B69019308BD7E
:107BCC004C02030008B5024B1B68DB69019308BD2E
:107BDC004C02030008B5024B1B681B6A019308BDDD
:107BEC004C02030008B5034B1B68D3F8803001939B
:107BFC0008BD00006002030008B5024B1B681B683F
:107C0C00019308BD2002030008B5024B1B685B689A
:107C1C00019308BD2002030008B5024B1B685B6989
:107C2C00019308BD2002030008B5024B1B68DB6AF8
:107C3C00019308BD2002030008B5024B1B68DB6CE6
:107C4C00019308BD2002030008B5024B1B685B6D55
:107C5C00019308BD2002030008B5024B1B689B6D05
:107C6C00019308BD2002030008B5024B1B68DB6FB3
:107C7C00019308BD2002030008B5034B1B68D3F821
:107C8C008830019308BD00002002030008B5034BA7
:107C9C001B68D3F89430019308BD00002002030048
:107CAC0008B5024B1B681B68019308BD4402030016
:107CBC0008B5024B1B685B68019308BD44020300C6
:107CCC0008B5024B1B689B68019308BD4402030076
:107CDC0008B5024B1B68DB68019308BD4402030026
:107CEC0008B5024B1B681B69019308BD44020300D5
:107CFC0008B5024B1B685B69019308BD4402030085
:107D0C0008B5024B1B68DB69019308BD44020300F4
:107D1C0008B5024B1B681B6A019308BD44020300A3
:107D2C0008B5024B1B685B6A019308BD4402030053
:107D3C0008B5024B1B681B6B019308BD4402030082
:107D4C0008B5024B1B68DB6B019308BD44020300B2
:107D5C0008B5024B1B685B68019308BD4002030029
:107D6C0008B5024B1B689B68019308BD40020300D9
:107D7C0008B5024B1B68DB68019308BD4002030089
:107D8C0008B5024B1B681B69019308BD4002030038
:107D9C0008B5024B1B685B69019308BD40020300E8
:107DAC0008B5024B1B689B69019308BD4002030098
:107DBC0008B5024B1B68DB69019308BD4002030048
:107DCC0008B5024B1B681B6A019308BD40020300F7
:107DDC0008B5024B1B681B6B019308BD40020300E6
:107DEC0008B5024B1B685B6B019308BD4002030096
:107DFC0008B5024B1B681B68019308BD1C020300ED
:107E0C0008B5024B1B685B68019308BD1C0203009C
:107E1C0008B5024B1B689B68019308BD1C0203004C
:107E2C0008B5024B1B68DB68019308BD1C020300FC
:107E3C0008B5024B1B685B6A019308BD1C0203006A
:107E4C0008B5024B1B68DB6A019308BD1C020300DA
:107E5C0008B5024B1B681B6B019308BD1C02030089
:107E6C000021FFF7D9BE10B5836804460BB901F0A9
:107E7C00DCFBC3689847A3681BB10322214620464C
:107E8C00984720461021BDE8104001F0B2BB10B558
:107E9C000446006808B1FFF7C5FC204610BD10B5BC
:107EAC00036804469B689847A368013BA3602BB901
:107EBC0023682046DB68BDE81040184710BD0B68EE
:107ECC00036013B15A6801325A60704710B504460A
:107EDC00006828B14368013B43600BB9FFF7DFFF33
:107EEC00204610BD10B5064C002320462360FFF73A
:107EFC0091FC2046034A0449BDE8104001F074BBD4
:107F0C00C4E30320F4C503209B7E0D0070470020C2
:107F1C00704710B51021044601F06BFB204610BDD4
:107F2C0008B508B1FFF7F5FF08BD0022026010B5D7
:107F3C004FF69C728280B1F9044084808A8002687A
:107F4C000C6804600A6010BD10B504460068FFF7A9
:107F5C0057FF204610BD38B5C468F4B12378022B06
:107F6C0003D104F10C00FFF7EFFF656835B128462B
:107F7C00FCF750F91021284601F03BFBA56835B100
:107F8C002846FCF747F91021284601F032FB204621
:107F9C001421BDE8384001F02CBB38BD10B588B0B9
:107FAC000446684600F0BAFE694604A800F0F5FEE7
:107FBC0004A8A047044604A800F069FE684600F037
:107FCC0066FE204608B010BDF0B5102485B00746FB
:107FDC000E46154600212246684601F092FC00220E
:107FEC0069461046ADF80040029703960195FFF7DD
:107FFC005FFE05B0F0BD13B5044691E80500002303
:10800C004B600B602060626001A801930093FFF746
:10801C005DFF204602B010BDF7B50C4602AD54F81A
:10802C00043B45F8083D06460F4601A82146FFF7DC
:10803C0046FF29463046FFF7DEFF01A8FFF746FF53
:10804C002046FFF743FF3846082101F0D2FA3046AC
:10805C0003B0F0BD13B50B46044603C88DE803000E
:10806C0093E8030084E803009DE8030083E8030021
:10807C0002B010BD38B500230446036010200D4635
:10808C00FCF703F828B1012343608360024B0360C3
:10809C00C5602060204638BD68AE0D00826810B502
:1080AC000AB901F0C2FAC368BDE81040184708B518
:1080BC00006800F11001FFF7F1FF08BD826810B5F0
:1080CC000AB901F0B2FAC368BDE81040184708B508
:1080DC00006800F11001FFF7F1FF08BD38B500236F
:1080EC0083608B6804460D462BB102229847EB68DF
:1080FC00E360AB68A360204638BD0000F0B589B0E2
:10810C0004686846FFF711FF00238DF808304FF024
:10811C000202D4E84F3F002B03D1C4E8412F0029C1
:10812C00F7D102D08DF8083063E014F10C0503D0C0
:10813C0069462846FFF7F9FEBFF35F8F0123637092
:10814C00002004F10803BFF35F8F53E8006F43E88E
:10815C000002002AF9D1BFF35F8F002E49D0FFF740
:10816C006BFD20B129463046FFF798FF3AE03146C7
:10817C0002A8FFF7B3FFE068B4F9105008B101F0A2
:10818C0023FC06901020ADF81C50FBF77EFF054633
:10819C00E8B1002787601820FBF777FF044688B109
:1081AC000146876002A8FFF755FF049BA268A360F5
:1081BC00059B049206A9E268E36004F110000592A5
:1081CC00FFF7B3FE0D4BEB600D4B2C60AB6006A8BC
:1081DC00FFF7BAFE02A8FCF71DF800222946094851
:1081EC00FFF732FD3046FCF715F81021304601F050
:1081FC0000FA6846FFF7A8FE09B0F0BDBB800D0081
:10820C0031830D00737E0D002DE9F04F8BB00646C7
:10821C000F46904699469DF850A0FFF769FD07ADB3
:10822C00834630BB4FF62E73059005A92846ADF852
:10823C001830FFF77AFE1420FBF727FF044658B1DD
:10824C000223037001234370C0F804B0C0F808B0D7
:10825C0029460C30FFF769FE3046214640F8044BA6
:10826C00FFF708FF2846FFF76FFE05A8FFF76CFE27
:10827C0052E000240C2314206C60AC600793FBF7D5
:10828C0004FF014618B1047044704460846004A873
:10829C000391FFF7EFFE224B08930820FBF7F5FE46
:1082AC00044628B1039B40F8043B04A9FFF707FEE2
:1082BC0000955FFA8AF34A46414638460994FFF71F
:1082CC0027FD20B9039B5B7803F0FF0283B1039B6E
:1082DC00059304A906A8FFF7F2FD05A93046FFF7A0
:1082EC008AFE06A8FFF7F2FD04A8FFF7EFFD13E0E6
:1082FC004FF69C7305A903A80592ADF81830FFF74B
:10830C00FDFE05A8FFF720FE05A80999FFF784FEDE
:10831C0006A8FFF7DBFDDAE730460BB0BDE8F08FBF
:10832C00A1840D00022AF8B5044606D0032A17D002
:10833C00012A22D10B6803601FE018200E68FBF79E
:10834C00A4FE054650B13146FFF7C8FE3069B6F9B8
:10835C00147008B101F038FB2861AF8225600CE085
:10836C00046854B104F11000FFF7EEFD2046FBF752
:10837C0051FF1821204601F03CF90020F8BD38B51A
:10838C00002383608B6804460D462BB1022298476C
:10839C00EB68E360AB68A360204638BD022A70B579
:1083AC00044606D0032A11D0012A18D10B680360A9
:1083BC0015E014200E68FBF768FE054620B1314627
:1083CC00FFF7DDFF337C2B74256008E0046834B1C3
:1083DC002046FBF71FFF1421204601F00AF900206C
:1083EC0070BD0000F0B5002387B00C46BFF35F8F63
:1083FC0050E8006F40E80032002AF9D1BFF35F8FDC
:10840C00002E3FD01846FFF717FC074620B1214637
:10841C003046FFF753FE2EE0314601A8FFF7AFFFC1
:10842C0023788DF814301020FBF72FFE0546D0B1C1
:10843C0087601420FBF729FE044678B1876001465B
:10844C0001A8FFF707FE039BA268A360049B03929D
:10845C00E268E3609DF81430049223740A4BEB60DD
:10846C000A4B2C60AB6001A8FBF7D4FE0022294616
:10847C000748FFF7E9FB3046FBF7CCFE10213046EE
:10848C0001F0B7F807B0F0BDDB800D00A9830D003B
:10849C00737E0D0030B585B004460D466846114616
:1084AC00FFF7BAFD7CB124B228460DB101F08CFA6D
:1084BC00029002A96846ADF80C40FFF71FFE02A817
:1084CC00FFF742FD1DE000988DF808404FF00102C7
:1084DC00D0E84F3FA34203D1C0E8412F0029F7D188
:1084EC0002D08DF808300CE010F10C014FF00103B4
:1084FC0018BF0373BFF35F8F043000F8033CFFF722
:10850C0071FF01A8FFF7E2FC05B030BD0022114657
:10851C004068FFF755BC002211464068FFF760BC6D
:10852C0000224068FFF754BC002281F00101406832
:10853C00FFF73EBC00231A4619464068FFF730BCD3
:10854C0000231A4619464068FFF722BC0022114648
:10855C004068FFF715BC002211464068FFF700BCCD
:10856C00002202214068FFF703BC00231A46406832
:10857C00FFF7EEBB024B03225A60024A1A607047A7
:10858C00C8E3032084AE0D007047F8B506461546C7
:10859C000C468F18BC4206D0336814F8011B9B683C
:1085AC0030469847F6E72846F8BD0022007CFFF7D6
:1085BC0021BA0021007CFFF725BA0021007CFFF7CF
:1085CC0029BA0021007CFFF72DBA0021007CFFF7AF
:1085DC0031BA10B51421044601F00BF8204610BD39
:1085EC0010B50446002363604FF47A73A360044B08
:1085FC002174084623601146FFF72CFA204610BD63
:10860C00B8AE0D000022007CFFF7CCB900231A464F
:10861C001946007CFFF7CEB90021007CFFF7D2B9D8
:10862C0070B50C4686B0142506462A46002101A8D2
:10863C0001F067F923788DF8083063680393E368D9
:10864C0004930022237A307CADF8045001A90593E1
:10865C00FFF708FA06B070BD1FB500338DF8001097
:10866C004FF06401039118BF0123694601928DF804
:10867C000830FFF7D5FF05B05DF804FB0123FFF7C9
:10868C00EBBF0022007CFFF7A5B9C9B2FFF7F9BF19
:10869C000022007CFFF7A6B90121FFF7F9BF0021EA
:1086AC00007CFFF7CFB90047F0B585B01C460E46ED
:1086BC0017460546FFF74EF9002084424FF004039D
:1086CC0003908DF80C30A5BF9DF828308DF80E3036
:1086DC00034603AB009332463B460649A8BF8DF8D0
:1086EC000D402846FFF72EF9B0FA80F0400905B08E
:1086FC00F0BD00BFB3860D00704710B518210446BD
:10870C0000F077FF204610BDF0B5037D062B8DB031
:10871C000E4600F104074FF0000402D000F10805EA
:10872C0018E00CAD394605F8304D2F232A460A20A7
:10873C00FFF7A0F9284601F062F933680246DB68BE
:10874C002946304698470FE024B12E21304600F0E0
:10875C00FDF9044415F8011D0A22304600F00FFA09
:10876C00BD420444F0D120460DB0F0BD10B5054B10
:10877C000446112240F8043B002101F0C2F82046C7
:10878C0010BD00BFE0AE0D000346074A10B543F81C
:10879C00042B01F1100251F8044B43F8044B9142A5
:1087AC00F9D10A781A7010BDE0AE0D0010B59DF825
:1087BC00084044EA032343EA024242EA01610423EB
:1087CC004160037510BD37B50D788B784A78C97840
:1087DC0000912946FFF7EAFF03B030BD0A680B464B
:1087EC00926801461846104770B50E4C04601C2464
:1087FC0044609DF814409DF8106004F0030444EAB2
:10880C0086040025E4B20474427485744161427C90
:10881C0085600F2A08BF044BC56006BF8361C06129
:10882C00038370BDF09B0D00E9870D00014B024ADC
:10883C001A607047D0E3032057AF0D000022114699
:10884C004068FFF7BDBA002211464068FFF7C8BA6E
:10885C0000224068FFF7BCBA002281F00101406899
:10886C00FFF7A6BA00231A4601214068FFF798BA11
:10887C0000231A4619464068FFF78ABA00221146AF
:10888C004068FFF77DBA002211464068FFF768BACE
:10889C00002202214068FFF76BBA00231A46406899
:1088AC00FFF756BA38B5054688B104684CB1A368D1
:1088BC001BB103222146204698471021204600F088
:1088CC0098FE28461421BDE8384000F092BE38BD11
:1088DC0010B103685B681847704710B5036804460D
:1088EC00BBB15868FEF74EFF78B923685A7C12B9B1
:1088FC005868FEF757FF23685868FEF75BFF20683F
:10890C000023236028B1FFF7CDFF206808B1FFF7E3
:10891C00C9FF204610BD38B50446D0F8C40108B1D3
:10892C00FBF7B7FBD4F8C00108B1FEF77BFFD4F816
:10893C00BC5135B12846FFF7D0FF0421284600F082
:10894C0058FE206808B1FFF7C3FF204638BD000071
:10895C0010B5044B044640F8083BFFF7DCFF2046FB
:10896C0010BD00BFC8AF0D0038B50E4C0E4B2360C8
:10897C000025022304F5E4706360A560C4F8C451BB
:10898C00C4F8C851FEF746FF084BC4F8CC5184F824
:10899C00D05123602046064A0649BDE8384000F015
:1089AC0023BE00BFD4E30320FCAF0D00C8AF0D0005
:1089BC00F4C503205D890D0000231A464068FFF7BB
:1089CC00C7B9002202214068FFF7D2B90022114634
:1089DC004068FFF7C5B9002211464068FFF7D0B9CF
:1089EC0000231A4619464068FFF7D2B900231A46ED
:1089FC0019464068FFF7D4B9002281F001014068A4
:108A0C00FFF7D6B900224068FFF7E2B90022114601
:108A1C004068FFF7E5B9002211464068FFF7D0B96E
:108A2C002DE9F043002495B016460D460746FFF796
:108A3C009DFE214620220CA8009400F062FF4023EA
:108A4C000C9321466B460CAA3046FFF723F80446DC
:108A5C00002844D1024601216868FFF791F90221F0
:108A6C00804622466868FFF78BF9009E81462146B6
:108A7C00002E34D0002932D17368022B02D00A2B7D
:108A8C0009D02AE0B8F1000F27D0716938460431BB
:108A9C00FFF799FE20E0B9F1000F1ED07469112286
:108AAC0001A800F02EFF06238DF8143001AD04F15F
:108ABC0008031834186859682A4603C20833A342BD
:108ACC001546F7D101A906A807ADFFF75DFE0FCD3E
:108ADC003C1D0FC42B6823700121F669C8E7009870
:108AEC00FEF7D0FF384615B0BDE8F083024B034AC1
:108AFC001A6000225A607047A8E50320FCAF0D00F5
:108B0C00F8B506460D468F180024BD420CD03368CC
:108B1C0015F8011B9B6830469847002801DB04447C
:108B2C00F3E7002C08BF04462046F8BD70B5054697
:108B3C000C46084649B100F062FF2B6802462146FC
:108B4C002846DB68BDE87040184770BD03689B6819
:108B5C00184738B50D210546FFF7F8FF0A210446E2
:108B6C002846FFF7F3FF204438BD38B50546FFF71C
:108B7C00DDFF04462846FFF7ECFF204438BD30B536
:108B8C008BB00B4600218DF82410012A98BF0A22C5
:108B9C000DF12304B3FBF2F505FB123303F0FF03D5
:108BAC00092B94BF30333733DBB2214604F801393B
:108BBC002B46002DEED1FFF7B9FF0BB030BD0CB436
:108BCC002DE9F04387B000AF07F13804054654F89F
:108BDC00049B3C600E4623464A461421381DFFF781
:108BEC0027F9132805D8391D2846FFF79FFF04469F
:108BFC0013E000F1080323F00703E846ADEB030D87
:108C0C00411C23464A4668463C60FFF711F9694609
:108C1C002846FFF78BFF0446C5461EB12846FFF7D2
:108C2C0098FF044420461C37BD46BDE8F04302B013
:108C3C00704710B50446FBF7EDFA204610BD000056
:108C4C000348044A04490023836000F0CDBC00BFF4
:108C5C00B0E50320F4C503203F8C0D00704710B520
:108C6C000C21044600F0C5FC204610BD10B5054B88
:108C7C000360044601710846FEF71CFF0023A36045
:108C8C00204610BD30B00D000079FEF71BBF10B5AB
:108C9C0004460068FFF7B4F8204610BD10B5044632
:108CAC00006808B1FFF7ACF800232360A360636091
:108CBC0010BD38B504460D4600680131FFF7A8F821
:108CCC0010B184E82100012038BD10B503680446BA
:108CDC0013B143688B4207D22046FFF7EAFF20B15D
:108CEC00A3680BB922681370012010BD70B50E4635
:108CFC00114604461546FFF7E8FF18B92046FFF762
:108D0C00CDFF09E02A463146A560206800F0EEFD53
:108D1C002268A3680021D154204670BD38B50023C9
:108D2C00044603604360836003730D4639B1084603
:108D3C0000F065FE294602462046FFF7D7FF204685
:108D4C0038BD38B5054600680C4660B16A688B685A
:108D5C009A4206D3096800F01EFEA368AB6000239C
:108D6C000AE0FFF74DF823682B6063686B60A3681B
:108D7C00AB60002323606360A36038BD884210B5EC
:108D8C000B46044607D0096819B19A68FFF7AEFF85
:108D9C0001E0FFF783FF204610BD10B50023044609
:108DAC000360436083600373FFF7E8FF204610BD48
:108DBC00884210B5044601D0FFF7C3FF204610BD12
:108DCC0070B504460E4609B9002070BD6AB18368BF
:108DDC00D5182946FFF779FF0028F5D02068A3683D
:108DEC003146184400F0D7FDA560012070BD10B5C8
:108DFC008A6809680446FFF7E3FF10B92046FFF7BD
:108E0C004DFF204610BD70B50E469AB191B18568E4
:108E1C009D4202D800230B7070BD541EED1A0168E0
:108E2C00AC4228BF2C4619442246304600F004FEC2
:108E3C000023335570BD10B58368934207D904687D
:108E4C000968A01800F00BFE08B1001B10BD4FF014
:108E5C00FF3010BDF8B59A420F461D460C4988BF2D
:108E6C0013461446064684BF2C461D46FFF756FF94
:108E7C00BA6894420AD83968954294BFC4EB05028B
:108E8C00C4EB020221443046FFF730FF3046F8BDF8
:108E9C0098A40D0010B504468B68FFF7DBFF204645
:108EAC0010BD006808B100F00FBD704710B5044646
:108EBC00006818B1FEF7A4FF0023236010BD10B5A5
:108ECC000446FFF7F3FF204610BD000010B5094C17
:108EDC0000204FF6FF732060A080A0712081638179
:108EEC00FEF792FE2046044A0449BDE8104000F00B
:108EFC007BBB00BFC0E50320F4C50320CB8E0D0067
:108F0C0008B50020FEF714FF28B1FEF7F1FE80F043
:108F1C000100C0B208BD012008BD10B50020FEF74D
:108F2C00D9FC044668B9FEF767FE01280BD1204630
:108F3C00FEF792FE38B9FFF7E3FF30B9FEF7C0FE3B
:108F4C00F9E7012010BD002010BDFFF7D9FF00206C
:108F5C00FEF7C0FC003018BF012010BD08B5FFF7AC
:108F6C00DCFFBDE80840FEF785BC0000024B1A6828
:108F7C00024B1A60704700BF88C50320CCE5032064
:108F8C00F8B585B2044628460E46174600F000FA9E
:108F9C0060B102212846FEF7ADFC022806D13A4604
:108FAC0031462046BDE8F840FEF77CBDF8BD704761
:108FBC004174704708B5007CFEF7CCFD20EAE070E8
:108FCC0008BD08B5007CFEF79DFD20EAE07008BDE9
:108FDC0008B5007CFEF7A6FD30EA200028BF4FF054
:108FEC00FF3008BD08B5007CFEF794FD30EA200088
:108FFC0028BF4FF0FF3008BD007CFEF79BBD10B5BD
:10900C001421044600F0F5FA204610BD70B5457CDD
:10901C0004460E4625B9007CFEF79CFD002805DDB4
:10902C003146207CBDE87040FEF764BD284670BD1B
:10903C0010B5044608461146002262604FF47A725D
:10904C00A260054A22600122207462741A46FEF75F
:10905C0041FD204610BD00BF6CB00D000023007C0C
:10906C00FEF780BD0022FFF7F9BF007CFEF73ABD8A
:10907C00007CFEF767BD000038B50C4D296811F077
:10908C00010411D12846FBF706F868B1084A094BD0
:10909C0009482146FFF7CCFF2846FBF701F8074AA1
:1090AC000749054800F0A0FA034838BD68E60320DC
:1090BC006CE60320E4E50320D0E50320F4C503208F
:1090CC00BB8F0D0041747047704708B50021007CC0
:1090DC00FEF770FD30EA200028BF4FF0FF3008BDCE
:1090EC0008B50121007CFEF765FD30EA200028BFA1
:1090FC004FF0FF3008BD08B5007CFEF753FD20EAA9
:10910C00E07008BD08B5007CFEF744FD20EAE07075
:10911C0008BD007CFEF75EBD10B51421044600F0BE
:10912C0068FA204610BD38B50446007C0D46FEF7A3
:10913C0039FD002801DC607C28B12946207CFEF733
:10914C0041FD20EAE07038BD10B504460023636091
:10915C004FF47A73A360054B2360012308462174F6
:10916C0063741146FEF706FD204610BD9CB00D0041
:10917C000022007CFEF706BD10B514220446002127
:10918C0000F0BFFB204610BD30B50E4D87B001A8D6
:10919C00FFF7F2FF296811F0010410D12846FAF705
:1091AC007AFF60B101AA21460748FFF7CDFF284698
:1091BC00FAF776FF054A0649034800F015FA02480B
:1091CC0007B030BDF0E60320F4E60320F4C503201D
:1091DC00D5900D00002211464068FEF7D1BD00224B
:1091EC0011464068FEF7ECBD002211464068FEF7C0
:1091FC00F7BD00224068FEF7EBBD002281F00101B3
:10920C004068FEF7D5BD00231A4619464068FEF7A4
:10921C00C7BD00231A4619464068FEF7B9BD0022A7
:10922C0011464068FEF79CBD002202214068FEF703
:10923C009FBD00231A464068FEF78ABD024B0422EC
:10924C005A60024A1A60704708E70320CCB00D0040
:10925C0008B50C4B33B1FFF797FF03681B699847B0
:10926C00002809DC084B63B1FFF706FF03681B6994
:10927C009847002803DC08BDAFF30080F2E7AFF39A
:10928C00008008BD000000000000000008B5FFF7DA
:10929C00DFFFFEF7E7FA014B186008BD18E7032063
:1092AC000248034A0349121A00F020BB00F40320C1
:1092BC0004F40320A0B20D0007B5002300931A4656
:1092CC006FF07701FEF7E2FC03B05DF804FB0000E1
:1092DC0007B543880A2B08D0502B09D1094B1B68C2
:1092EC003BB103B05DF804EB1847FFF7E5FF06E070
:1092FC00002300931A466FF07701FEF7C7FC03B00A
:10930C005DF804FB10E7032038B5104C104D2368B2
:10931C00AB42104B0CBF012200221A7002D0FFF797
:10932C00BFFF2560FEF78EFA044600F0F3FA0A4BF5
:10933C0013B12046AFF3008000210748FEF700FD73
:10934C0000210648BDE83840FEF796BC00F4032027
:10935C001E1C279A14E7032000000000DD920D006C
:10936C0008B5024B1B681B68019308BD5C02030027
:10937C0008B5024B1B685B68019308BD5C020300D7
:10938C0008B5024B1B689B68019308BD5C02030087
:10939C0010B5044600F008F9FFF776FC28B1A4F1EB
:1093AC000B03022B01D8002010BD00F0D7F8FFF7FB
:1093BC0076F908B1012CF6D9FFF75EFEFFF758FEDF
:1093CC0018B1A4F10903012BEDD9232C8CBF00207B
:1093DC00012010BD232838B504460D460AD8FF29B4
:1093EC0008D0FFF7D5FF28B129462046BDE8384004
:1093FC00FEF788BA38BD38B504460D46FEF78AFA32
:10940C00FF2810D0062804D84D2323FA00F0C307F8
:10941C0009D42046FFF7BCFF28B129462046BDE8F9
:10942C003840FEF77FBA38BD10B50446FEF772FA25
:10943C000438C0B2012808D92046FFF7A9FF20B193
:10944C002046BDE81040FEF775BA002010BD0D286F
:10945C0010B504469CBF0E34A4B22046FFF798FF0B
:10946C0050B103212046FEF745FA032804D12046CB
:10947C00BDE81040FEF77EBA002010BD38B504469A
:10948C000D46FFF785FFF0B104212046FEF732FAB6
:10949C00042805D1A9B22046BDE83840FEF762BACF
:1094AC0002212046FEF726FA02280CD12046FEF7B0
:1094BC0031FA012801D0042805D129462046BDE8FF
:1094CC003840FEF75FBA38BD70B504460D461646F7
:1094DC00FFF75EFF98B102212046FEF70BFA022837
:1094EC000DD12046FEF716FA012801D0042806D12A
:1094FC00324629462046BDE87040FEF74BBA70BD97
:10950C0010B5074C2368DB0708D42046FAF7C3FDD7
:10951C0020B1FEF7B7F92046FAF7C2FD014810BD9D
:10952C001CE7032020E7032070B5044614252A46C7
:10953C00094E002100F0E5F9258020253146A56073
:10954C002561284600F06FF831466060284600F02F
:10955C006AF8E060204670BDF8B00D0030B50E4DD5
:10956C00296811F0010487B013D12846FAF793FD4E
:10957C0078B101A8FFF7D8FF01AA21460748FFF7E9
:10958C002FF82846FAF78CFD054A0649034800F0E7
:10959C002BF8024807B030BD24E7032028E703204E
:1095AC00F4C5032095850D0038B50B4D296811F0D5
:1095BC0001040FD12846FAF76EFD58B12146074831
:1095CC00FFF754FB2846FAF76BFD054A054903489B
:1095DC0000F00AF8014838BD48E703203CE70320B7
:1095EC00F4C50320698C0D000B460146184600F0AB
:1095FC006FB9FAF74CBD0000024B1868BFF35F8FD0
:10960C00704700BF4CE7032010B5002814BF044678
:10961C0001242046FEF7ECFB20B9FFF7EDFF08B163
:10962C008047F6E710BDFFF7EFBF08B5FEF708FC63
:10963C00244B1A68D0075CBF01221A60224B1A68AF
:10964C00D1075CBF01221A60204B1A68D2075CBF9D
:10965C0001221A601E4B1A68D0075CBF01221A60E7
:10966C001C4B1A68D1075CBF01221A601A4B1A688E
:10967C00D2075CBF01221A60184B1A68D0075CBF76
:10968C0001221A60164B1A68D1075CBF01221A60BE
:10969C00144B1A68D2075CBF01221A60124B1A686D
:1096AC00D0075CBF01221A60104B1A68D1075CBF4F
:1096BC0001221A600E4B1A68D2075CBF01221A6095
:1096CC00704700BF7CE7032078E7032074E7032092
:1096DC0070E703206CE7032068E7032064E70320AE
:1096EC0060E703205CE7032058E7032054E70320DE
:1096FC0050E70320184B1A68D1075CBF01221A608F
:10970C00164B1A68D2075CBF01221A60144B1A68F8
:10971C00D0075CBF01221A60124B1A68D1075CBFDC
:10972C0001221A60104B1A68D2075CBF01221A6022
:10973C000E4B1A68D0075CBF01221A600C4B1A68DA
:10974C00D1075CBF01221A600A4B1A68D2075CBFB2
:10975C0001221A60704700BF9CE7032098E70320A2
:10976C0094E7032090E703208CE7032088E703208D
:10977C0084E7032080E70320184B1A68D1075CBFED
:10978C0001221A60164B1A68D2075CBF01221A60BC
:10979C00144B1A68D0075CBF01221A60124B1A686E
:1097AC00D1075CBF01221A60104B1A68D2075CBF4C
:1097BC0001221A600E4B1A68D0075CBF01221A6096
:1097CC000C4B1A68D1075CBF01221A600A4B1A684D
:1097DC00D2075CBF01221A60704700BFBCE70320B0
:1097EC00B8E70320B4E70320B0E70320ACE703207D
:1097FC00A8E70320A4E70320A0E70320244B1A6862
:10980C00D0075CBF01221A60224B1A68D1075CBFDB
:10981C0001221A60204B1A68D2075CBF01221A6021
:10982C001E4B1A68D0075CBF01221A601C4B1A68C9
:10983C00D1075CBF01221A601A4B1A68D2075CBFB1
:10984C0001221A60184B1A68D0075CBF01221A60FB
:10985C00164B1A68D1075CBF01221A60144B1A68A8
:10986C00D2075CBF01221A60124B1A68D0075CBF8A
:10987C0001221A60104B1A68D1075CBF01221A60D2
:10988C000E4B1A68D2075CBF01221A60704700BFEA
:10989C00ECE70320E8E70320E4E70320E0E70320FC
:1098AC00DCE70320D8E70320D4E70320D0E703202C
:1098BC00CCE70320C8E70320C4E70320C0E703205C
:1098CC000A22002100F06CB90A22002100F068B9CC
:1098DC0010B5054C13462CB10A4601460220AFF3D5
:1098EC00008010BD204610BD0000000010B5431EC6
:1098FC000A44914204D011F8014B03F8014FF8E7E8
:10990C0010BD02440346934202D003F8011BFAE750
:10991C007047000038B5124B1C68A36B0546D3B9D1
:10992C001820FEF765FA43F20E33A06303804AF663
:10993C00CD33438041F2342383804EF26D63C38078
:10994C004DF6EC630381052343810B2383810122B4
:10995C000023C0E90423A36B00221D615A6138BDAA
:10996C00F0C5032010B50246134601321C78002CBA
:10997C00FAD1013B11F8012B03F8012F002AF9D180
:10998C0010BD10F8012B11F8013B012A28BF9A4297
:10999C00F7D0D01A7047034611F8012B03F8012BAE
:1099AC00002AF9D1704770B503461A4612F8015BCC
:1099BC0045B14C1E14F8016F16B1B542FAD101E055
:1099CC001346F2E7181A70BD024B0146186800F0F6
:1099DC0003B800BFF0C5032070B5064608460C4618
:1099EC0000F00DF8451C29463046FEF731FA0646C4
:1099FC0018B12A462146FFF779FF304670BD034661
:109A0C0013F8012B002AFBD1181A0138704730B516
:109A1C0082B1451E013915F8013F11F8014FA342DF
:109A2C0006D1EC431444E04201D0002BF3D11C4688
:109A3C00181B30BD104630BD10B5034642B111F8AD
:109A4C00014B03F8014B013A002CF7D11A4400E00A
:109A5C0010BD934202D003F8014BFAE710BDF0B5EC
:109A6C00037863B90B78002B18BF0020F0BD15F8F4
:109A7C00012F62B114F8017F97423046F7D00346AC
:109A8C00461C007810B14D1E5C1EF0E7F0BD184668
:109A9C00F0BD00002DE9F04780464048D0F800901A
:109AAC000F463D4615F8014B09EB0400407800F0D9
:109ABC00080000F0FF0608B12F46F2E72D2C03D169
:109ACC00BD1C7C78012603E02B2C04BF7C78BD1CCC
