:02000002D0002C
:1040000000400D008CA80D00000006000C0005010A
:084010000401DE0500000000C0
:04401800DC920D0029
:10401C0009480A49884208B505D0094A824202D0AB
:10402C00121A05F00DF80748074A0021121A05F07C
:10403C0012F8014808BD00BF68C80320B4A70D00E2
:10404C0014C9032014C90320F0E7032070B504F051
:10405C0005FD074C074BE41AA40800251E46A54293
:10406C0004D056F8253098470135F8E770BD00BFED
:10407C00ACA70D0074A70D0001F0C6B908B502F08D
:10408C00DBFDBDE8084004F0ABBC03F055BA03F00F
:10409C005BBA03F059BA0078B0FA80F04009704767
:1040AC000123037070477047014B01221A7070474F
:1040BC0044CA0320034B044A1B7883F001031360AA
:1040CC00704700BF7CC9032020CA0320014B01228A
:1040DC001A707047D2D9032003681847012A02D0FE
:1040EC00022A02D004E0016002E00B6800B1036018
:1040FC000020704737B50C460E480F4D04F0DCFF1E
:10410C00204605F024F8204410F8013CA3F12302CA
:10411C00534253412B7004F0E1FB2B78074A002BE0
:10412C0014BF59234E2300930121024B04F0EBF8EA
:10413C0003B030BDFCD9032084D3032018970D00A5
:10414C00436913B183690C301847704713B50021CC
:10415C000446084602F002FF02A90023204641F85B
:10416C00043D02F013FF019C0CB1012323710021CB
:10417C00012002F0F3FE2CB1236820469B6898477F
:10418C000023237102B010BD10B5054B002204466C
:10419C00114640F8043B03F0E1F8204610BD00BF87
:1041AC000C930D0010B50446FFF7EEFF20462021BE
:1041BC0004F0C9FD204610BD37B50C460E480F4D16
:1041CC0004F07AFF204604F0C2FF204410F8013CB2
:1041DC00A3F12302534253412B7004F07FFB2B7845
:1041EC00074A002B14BF59234E2300930121024B85
:1041FC0004F089F803B030BDFCD9032084D303202C
:10420C004B970D0010B58368044613B10322014689
:10421C009847204610BD0368C9B29B681847000038
:10422C00F0B500258E461549057185604561016024
:10423C00044692E8030085B002AF04F10C0687E84F
:10424C00030096E8030082E8030097E8030086E881
:10425C0003009168606990606161D168A069D06069
:10426C00A1618DE82800064A2346714604F1080036
:10427C0002F07CFE204605B0F0BD00BFF8920D00A8
:10428C0059410D0007B58068002340B18DE80A0044
:10429C001A46022102F082FEB0FA80F0400903B007
:1042AC005DF804FB38B50F4B0360836804469BB183
:1042BC006FF00041FFF7E6FF0021A06802F086FED8
:1042CC00237903F0FF0513B102F030FEF8E729461D
:1042DC00A06802F053FEA56004F10C00FFF792FFFA
:1042EC00204638BDF8920D0010B50446FFF7DAFFF2
:1042FC0020461C2104F027FD204610BD73B5064650
:10430C000D4611461446FFF7BDFFB068002340B1BF
:10431C00019300952246194602F040FEB0FA80F057
:10432C00400902B070BD000040F67263984270B54F
:10433C001CDC0F4A002352F8044BA04203F1010588
:10434C000FDC116888420CDD0A4E56F8232056F813
:10435C0025309D1A031B6B43081B93FBF0F0104494
:10436C0070BD142D2B46E6D1002070BD184670BDD3
:10437C0024A30D00D0A20D001FB50C2AA8BF0C223F
:10438C00014401A8144604F0FFFE04AB1C4401A830
:10439C00002304F80C3C04F03DFE04B010BD30B515
:1043AC00002385B00C68055D954208BF002504F11B
:1043BC0001040DF803500C6002D001330E2BF1D127
:1043CC00684604F027FE05B030BD000010B5084C5F
:1043DC0001444FF0FF32884208D010F8013B5340A3
:1043EC00DBB254F8233083EA1222F4E7D04310BD39
:1043FC0018930D00021E30B516DB9110022329B163
:10440C00914203D0023342FA03F1F8E7023B002059
:10441C004000411C42FA03F401FB01F5A542D8BF50
:10442C000846023BF4D530BD4FF0FF3030BD0000E4
:10443C0008B504F00FFC4FF46D7203490020BDE881
:10444C00084002F0F3BD00BF86D3032008B504F08A
:10445C0001FC4FF46D7203490020BDE8084002F0E6
:10446C00EDBD00BF86D3032008B504F0F3FBBDE817
:10447C00084002F0EBBD000008B5FFF7F5FF044B58
:10448C000C221A700E225A70FF229A7008BD00BFBF
:10449C0086D3032007B504F0DDFB01220DF10701E3
:1044AC00002002F0C3FD9DF80730FF2B02D1FFF76F
:1044BC00E3FF07E0FFF7BCFF044B1A8840F60C63E0
:1044CC009A42F4D103B05DF804FB00BF86D30320FD
:1044DC00012870B50E461D4D1BD11D4B188804F0DC
:1044EC004DFB044640B904F0F9F91A4903F0E1FE1A
:1044FC00194B2C601C6016E02B68002B15DC04F0AB
:10450C00EDF9164903F0D5FE134B00202860186016
:10451C0070BD2A684AF227039A4206DD04F0DEF9E0
:10452C000F4903F0C6FE002070BD0E4C01212088FF
:10453C0004F00BFB304602F061FD0021208804F0F2
:10454C0004FB304602F05AFD012070BDD4D9032083
:10455C0098C8032081970D0024CA03209D970D0055
:10456C00B4970D0094C803202DE9F84F1C4BDFF8CD
:10457C007890C70F044688461888394604F0E5FA47
:10458C00184B84EAE4711A68A1EBE4711144192206
:10459C00002C91FBF2F64FF0000402FB16121A608D
:1045AC00B4BF6FF0180A4FF0190A1D46A346B44267
:1045BC0013DA41463846FFF78BFF58B1D9F8003073
:1045CC005344002B02DDC9F8003004E0C9F800B0F8
:1045DC00C5F800B034460134E9E7BDE8F88F00BFF8
:1045EC0074C8032024CA0320D4D90320024B002111
:1045FC00188804F0AABA00BFA4C8032008B5054B5C
:10460C000121188804F0A1FA0A20BDE8084002F044
:10461C00CBBF00BFA4C8032038B504460D46FFF736
:10462C00EDFF29462046FFF79FFFBDE83840FFF716
:10463C00DDBF0000134B10B54AF228021A60044685
:10464C00FFF7DCFF96211048FFF78EFF642002F085
:10465C00ABFF96214FF4FA60FFF786FF642002F05F
:10466C00A3FF4FF47A710948FFF77EFF4FF47A717C
:10467C0042F63020FFF778FF1CB1BDE81040FFF781
:10468C00B5BF10BDD4D90320A015FFFF48F4FFFF20
:10469C0038B5064C80F3080544F62062294620887C
:1046AC0004F0BCFA0123E560237238BD18C903205D
:1046BC0010B5044C0021208804F08AFA00232372E0
:1046CC00E36010BD18C9032070B5044602F09EFCCF
:1046DC000F4D84F30804064644F6206221462888D0
:1046EC0004F09CFA002C14BF01230023EC602B7205
:1046FC0009D0084B1B7833B104F0F0F82346064A76
:10470C00012103F000FE02F081FC801B70BD00BF94
:10471C0018C9032075CA0320CF970D00024B014620
:10472C00188804F055BA00BF68C80320024B014634
:10473C00188804F04DBA00BF78C80320024B01461C
:10474C00188804F045BA00BF7CC803200346412BEF
:10475C00084601D1FFF7E2BF312B01D1FFF7E6BFCD
:10476C00322B01D1FFF7EABF70470000024B00214A
:10477C00188804F02DBA00BF68C80320024B002132
:10478C00188804F025BA00BF78C80320024B00211A
:10479C00188804F01DBA00BF7CC80320412801D141
:1047AC00FFF7E4BF312801D1FFF7E8BF322801D170
:1047BC00FFF7ECBF704710B504460846FFF7AEFF95
:1047CC00204602F0F1FEBDE81040FFF7CFBF10B558
:1047DC0004460846FFF7AAFF204602F0E5FEBDE8B6
:1047EC001040FFF7CBBF10B504460846FFF7A6FFF5
:1047FC00204602F0D9FEBDE81040FFF7C7BF38B520
:10480C000C4605460846FFF789FF2046FFF78EFF4A
:10481C002046FFF793FF284602F0C6FEFFF7A6FFDF
:10482C00FFF7ACFFBDE83840FFF7B0BF08B504F0A8
:10483C003FFA03F0D8FA88B904F03AFA084903F0C1
:10484C0085FA04F035FA03F085FA642002F0ACFE28
:10485C0004F02EFABDE8084003F0C5BA08BD00BF4D
:10486C00A086010008B504F023FABDE8084003F067
:10487C0077BA000008B5074B074800226FF00041DB
:10488C00DA61FFF73BFD04F029F80449BDE8084064
:10489C0003F00FBD18C9032028CA0320E6970D00AA
:1048AC0008B56FF000410648FFF7ECFC0020FFF75D
:1048BC000BFF04F013F80349BDE8084003F0F9BC02
:1048CC0028CA032009980D0038B5114C0021208806
:1048DC0004F07EF9A08804F064F9E16805462088AC
:1048EC0004F076F91DB9FFF7DBFF00250EE0284632
:1048FC00FFF71AFD052200EBC003B0F5167F93FB02
:10490C00F2F303F5A0732062A362ECDC284638BDF9
:10491C0018C903202DE9F0432F4E8BB0F56802F037
:10492C0075FBF769C7EB0009B9F57A7F8046344609
:10493C004ED3FFF7C9FFC6F81C808046002847D02D
:10494C0017B97761B76143E0336A776AB569E26A90
:10495C00FF1A4FF47A7107FB09F393FBF1F31D4433
:10496C00B5617669636BBE1B6B434E437A43216B17
:10497C00A56B92FBF1F193FBF5F56A18E56B236CD3
:10498C0096FBF9F6754395FBF3F5144B1B78154420
:10499C00EBB103F0A3FFD4F820E0636A0895079607
:1049AC00A16906910A2293FBF2F102FB11330393E6
:1049BC009EFBF2F302FB13E2029101920093059726
:1049CC00CDF810904346064A012103F09CFC676128
:1049DC0028460BB0BDE8F08318C9032075CA032024
:1049EC004C980D00254A2DE9F3410346044600F18D
:1049FC001801164653F8040B42F8040B8B42F9D1FC
:104A0C0000271F4D37762068616877762B4602AEFB
:104A1C0003C3192346F8043D7C22314620462F72ED
:104A2C00FFF7BDFC314668727C222046FFF7B7FCCD
:104A3C00314680467C222046FFF7B1FC3146E860C7
:104A4C007C222046FFF7ABFC0199288286B23246C5
:104A5C00214405F1120004F097FBAB19314605F126
:104A6C0012009F74FFF7B2FC0028B8BF4042C8EB9D
:104A7C0000035842584102B0BDE8F0815CD20320DB
:104A8C0078CA0320F0B5054695B00E4601682B4850
:104A9C0004F039FB2A4A2B49002313702A4A04A834
:104AAC00137003F0DFFC29460CA8049C03F019FDDD
:104ABC007C2108A803F039FD08A90CA803F05DFDC2
:104ACC003146074610A803F0CDFC10A9384603F078
:104ADC0054FD1E4B026819781D4B1B780B438DF847
:104AEC00003021463C2302A802F032FF039C7CB12B
:104AFC006368013B63605BB9236820469B689847F9
:104B0C00A368013BA3601BB923682046DB68984768
:104B1C0010A803F060FC08A803F05DFC0CA803F0DF
:104B2C005AFC04A803F057FC03F0D8FE00962B683F
:104B3C00084A012103F0E7FB15B0F0BDB0D9032002
:104B4C0084D30320B5980D00FCD90320A0C9032001
:104B5C00E8C90320CA980D007FB503F0BFFE1549C4
:104B6C00154E164D03F0A5FB02F06EFC0446B0B1D9
:104B7C000123337002F04AFA114B124900F51C5014
:104B8C0010301860002368462B7003F06BFC6846ED
:104B9C000D49FFF777FF684603F01DFC08E003F0B2
:104BAC009DFE0A4903F085FB094B34702C701C7078
:104BBC0004B070BDE9980D00C5C903204CD3032087
:104BCC000CCA0320FE980D00DCD9032011990D00AE
:104BDC0045CA0320F8B50C4F06460024251D3D445C
:104BEC0029461822304604F0BAFA014638B928464C
:104BFC00EC2204F030FABDE8F840FFF727BCEC34A7
:104C0C00B4F56C7FEAD1F8BD86D30320F0B500244F
:104C1C00084F4454851A1446A01A884204F1010026
:104C2C0007DAE65D9E4208BF00262E5501D00446E9
:104C3C00F2E7F0BDFCD90320034BEC2202FB003061
:104C4C000021043004F007BA86D3032008B50A4BC0
:104C5C0000201870FFF7F0FF0120FFF7EDFF022096
:104C6C00FFF7EAFF0320FFF7E7FF044BFF229A70E0
:104C7C00BDE80840FFF7EABB10CA032086D3032027
:104C8C0038B5074C0749EC22054602FB00400430BE
:104C9C0004F0D6F9A570BDE83840FFF7D7BB00BFCC
:104CAC0086D303205CD2032010B588B03A230A784F
:104CBC0007930B8906932C230593CC8804940393B8
:104CCC008C8802940193044C498800912044034938
:104CDC0002F04AFC08B010BD3AD7032040990D00F1
:104CEC002DE9F341154FEC26464341217C23BA199B
:104CFC008DE80A0004321249124802F035FC0025F6
:104D0C00044606F11E08AB193B449B7F412B02D095
:104D1C00313B012B06D808EB050120463944FFF73F
:104D2C00C3FF04440A35D22DEDD1064B1C4401209F
:104D3C00002304F8013C02B0BDE8F08186D30320C7
:104D4C0055990D003AD7032010B5084B9C78FF2CD1
:104D5C001ABF013404F0030400242046FFF790FF2F
:104D6C002046BDE81040FFF7BBBF00BF86D3032031
:104D7C0070B5164B1B780E4633BB154B1A18927C2C
:104D8C007C2A21D03A2A1CD00446B4F5FA6F1ADAE0
:104D9C001A19927C3A2A06D1221A01460D48FFF7BD
:104DAC00EBFA30600FE02C2A04F1010507D1221A2E
:104DBC0001460848FFF7E0FA3060284670BD2C46E3
:104DCC00E3E7013070BD204670BD00BFD1D9032090
:104DDC0078CA03208ACA032030B50029054685B05D
:104DEC0019481A4C01D1016018E0194BDA684FF4DC
:104DFC007A7303FB02F204DA4FF0FF330260236094
:104E0C000DE00368194464230160594391FBF2F1EE
:104E1C009942A8BF19462368994200D0216003F03B
:104E2C005DFD0C4B196A0A2391FBF3F203FB121381
:104E3C000293236801920093074A2B68012103F027
:104E4C0062FA05B030BD00BFECC9032050D303207B
:104E5C0078CA032018C9032061990D0010B502F01F
:104E6C00D5F80A4B1B7804461BB9FFF753FDFFF727
:104E7C002BFC074B188803F081FE431E5842584107
:104E8C00044B187002F0C2F8001B10BD7CC9032043
:104E9C0088C80320D1D903202DE9F047DFF83CA0C6
:104EAC0005460E4690461F460024C0F100094445B5
:104EBC0012DA31462846FFF757FB0FB1FFF7CEFF4A
:104ECC0031464846FFF750FB0FB1FFF7C7FF9AF882
:104EDC0000300BB90134EAE7BDE8F087D1D90320E3
:104EEC00F8B5114F044600254FF4FA7690FBF6F610
:104EFC00B54209DAFFF7B2FFC0F5FA7002F054FBC5
:104F0C003B7883B90135F3E74FF4FA7294FBF2F373
:104F1C0002FB1344FFF7A2FF844204DD201ABDE814
:104F2C00F84002F041BBF8BDD1D90320F0B51646CC
:104F3C004A1C85B007460D4602D133600C4621E071
:104F4C000A462C2103F04FFB431C04460CD12A4685
:104F5C003946684603F076FB684603F07AFB30600E
:104F6C00684603F038FA0DE003462A46394668468F
:104F7C0003F048FB684603F06CFB3060684603F0B6
:104F8C002AFA0134204605B0F0BD000010B501200E
:104F9C00FFF74CFC18B9BDE81040FFF763BC03F0F9
:104FAC009DFC0F4903F085F9002403F081FE214696
:104FBC0002F00FFF03F07CFE0021FFF72CF903F049
:104FCC0077FE02F00DFF30B903F088FC2346054A4A
:104FDC00012103F098F901347F2CE6D1DBE700BF07
:104FEC0087990D00A5990D00124A134908B50023A5
:104FFC001370124A0B701370114A0B721370114A12
:10500C001370114A1370114A1360114A1360114A3C
:10501C0013701376104A1370137653760F4A13706D
:10502C0082F86E3201F0F2FF0D4B00F56A406030F1
:10503C00186008BD7FC9032078CA03207DC90320EE
:10504C004CD3032084D303207CC90320ECC9032058
:10505C0050D30320DCD903205CD203203AD70320A1
:10506C00F0C9032010B507220D490E4804F077F85B
:10507C00044670B903F032FC0B4903F01AF90B4BE0
:10508C0001201C70FFF7D6FAFFF7AEFF084B1C602F
:10509C0010BD03F023FC0749BDE8104003F009B92B
:1050AC00C4990D00F5C90320CC990D0074CA0320D6
:1050BC00F0C90320DA990D0010B507220D490E48EE
:1050CC0004F04DF8044670B903F008FC0B4903F0EA
:1050DC00F0F80B4B01201C70FFF7ACFAFFF784FFC4
:1050EC00084B1C6010BD03F0F9FB0749BDE81040EC
:1050FC0003F0DFB8C4990D00F5C90320EE990D003B
:10510C001CCA0320F0C90320FD990D001FB5174CD4
:10511C0003F0E4FB214603F0CCF8154B01221A7086
:10512C0001F074FF134B00F51C5010301860214631
:10513C00684603F097F94FF0FF316846FFF74CFED5
:10514C00684603F048F90C49684603F08BF90B49A3
:10515C006846FFF797FC684603F03DF9FFF746FAFF
:10516C00074B00221A7004B010BD00BFEE990D0061
:10517C001CCA032078C90320119A0D005CD20320AD
:10518C0045CA03201FB503F0A9FB164903F091F89B
:10519C00154B01221A7001F039FF144B144900F51C
:1051AC001C5010301860684603F05CF94FF0FF316A
:1051BC006846FFF711FE684603F00DF90D49684685
:1051CC0003F050F90C496846FFF75CFC684603F0A5
:1051DC0002F9FFF70BFA094B00221A7005B05DF8C3
:1051EC0004FB00BF1D9A0D0074CA032008CA0320DB
:1051FC002C9A0D003A9A0D005CD2032045CA03206C
:10520C0070B50E460446154603F08EFC012E05D1F2
:10521C0029462046BDE8704003F0DABC70BD70B57D
:10522C000E460446154603F07FFC012E05D1294697
:10523C002046BDE8704003F088BC70BD30B500223C
:10524C008BB001215548564D02F088F800230422FA
:10525C005449554802F0D0F8544A5549554802F083
:10526C0057FA06A802F0F8F806A9284603F044F904
:10527C0006A803F0B0F8294602A803F032F94E490B
:10528C0002A803F086F90024014606A803F029F9C8
:10529C0023462246494901940094069802F0ECF802
:1052AC0006A803F098F802A803F095F8294602A87E
:1052BC0003F017F9424902A803F06BF9014606A85E
:1052CC0003F00FF9224623463E49019400940698B8
:1052DC0002F0D2F806A803F07EF802A803F07BF8DF
:1052EC00394B0221188803F01FFC384B0221188817
:1052FC0003F01AFC364B012211461888FFF78FFF7A
:10530C00344B2146188803F00FFC334B2246188887
:10531C000121FFF775FF314B224618880121FFF759
:10532C006FFF2F4B224618880121FFF769FF2D4B89
:10533C002146188803F0F8FB2B4B2146188803F004
:10534C00F3FB2A4B2146188803F0EEFB284B224630
:10535C0018880121FFF763FF264B2246188801218C
:10536C00FFF75DFF244B224618880121FFF757FFFA
:10537C00224B802218880121FFF742FF204B224646
:10538C0018880121FFF73CFF1E4B2246012118888B
:10539C00FFF736FFFFF77EF80BB030BD58D3032074
:1053AC0074D303203AD70320469A0D004F9A0D0070
:1053BC00F5680D00F1760D00589A0D00C5410D00F1
:1053CC007D9A0D0001410D0098C8032088C8032068
:1053DC009CC80320A0C8032068C8032078C80320F9
:1053EC007CC8032090C803206CC8032084C8032009
:1053FC00A4C8032094C8032074C8032080C80320C9
:10540C008CC8032070C8032008B5FFF717FF03F002
:10541C0065FA4FF4E13103F055FA034B01221A708F
:10542C00024B00221A6008BDF4C9032018CA0320DD
:10543C0030B5144B144D1A7885B01C4622B101F0CE
:10544C00E5FD2B6883421AD201F0E0FD00F5EA403D
:10545C003030286041F2883002F0A6F801F0F4FFF9
:10546C0068B1012309492370684602F0FBFF084B21
:10547C0068461968FFF706FB684602F0ACFF05B0FA
:10548C0030BD00BF7EC9032018CA03209F9A0D00AF
:10549C0074D3032007B5009313460A46012102F08A
:1054AC0032FF03B05DF804FB38B50A4B1B78054698
:1054BC000C4633B103F012FA23462A460649FFF78D
:1054CC00E9FF064B2A4621461878BDE8384003F020
:1054DC0001B900BF75CA0320AF9A0D008CC8032018
:1054EC0073B5044603F0E4FB214602F06EFC03F0B6
:1054FC00DFFB0021FEF78FFE064603F0D9FB0021EF
:10550C0002F06AFC054630B103F0E8F92B4632464E
:10551C001549FFF7BFFF03F0CBFB2146042202F035
:10552C0051FC03F0C5FB03685B699847044603F024
:10553C00BFFB03685B6998470C4B1B78054643B16E
:10554C0003F0CCF9E3B20093094AEBB2012102F06B
:10555C00DAFE6A0704D4E0B2C31E5842584100E098
:10556C00002002B070BD00BFE19A0D0075CA032087
:10557C00029B0D007FB5124B1C680D46041B0646A2
:10558C001049684602F06EFF84EAE473A3EBE473FF
:10559C006B43684646F2A81193FBF1F1FFF71CFC34
:1055AC00684602F018FF03F099F923463246064983
:1055BC00FFF770FF29462046FEF7D6FF04B070BDFA
:1055CC00D4D90320189B0D00339B0D00962144F277
:1055DC005060FFF7CFBF962142F63020FFF7CABFCD
:1055EC000A46012102F08FBE13460A46012102F041
:1055FC008ABE00002DE9F347444C237806468846C2
:10560C0015462BB103F06AF932464149FFF7ECFF1E
:10561C0003F04EFB294602F0DCFB03F049FB0021B2
:10562C00FEF7F9FD824603F043FB0221FEF7F3FD82
:10563C00074603F03DFB012102F0CEFB814650B141
:10564C00574403F04BF9CDF8049000973346314A98
:10565C00012102F058FE03F02BFB294602F0B9FBA6
:10566C0003F026FB0621FEF7D6FD824603F020FB55
:10567C0003685FFA88F19B689847074603F018FBAC
:10568C00012102F0A9FB814650B1574403F026F9E1
:10569C00CDF80490009733461E4A012102F033FEE8
:1056AC0003F006FB294602F094FB03F001FB0621F4
:1056BC00FEF7B1FD074603F0FBFA002102F08CFB6C
:1056CC00064630B103F00AF933463A461249FFF761
:1056DC00E1FE03F0EDFAE9B2012202F073FB05469C
:1056EC0003F0E6FA03685B699847237806464BB1EA
:1056FC0003F0F4F80196CDF800802B46074A0121FF
:10570C0002F001FE02B0BDE8F08700BF75CA0320AD
:10571C005E9B0D007C9B0D00E19A0D00A39B0D0080
:10572C002DE9F7435A4D5B4EDFF89C81DFF87491FD
:10573C0001232B7003F0D2F8574902F0BAFD03F0A5
:10574C0045F84FF4165103F037F803F0C7F85349F6
:10575C0002F0AFFD0021308803F0F7F901F056FCA0
:10576C0000F59C5403F0BAF84D4902F0A2FD083440
:10577C00B8F8000003F002FA074603F0AFF82E2148
:10578C0002F088FD01F042FCC9F8000001F044FE73
:10579C00C82001F009FF012F424F03D001F036FC65
:1057AC00A042E5D303F09AF8804603F00FF80368A3
:1057BC001B699847002814BF59224E223A4940468B
:1057CC00FFF712FF0121308803F0BFF903F086F8D0
:1057DC00364902F06EFD02F0F9FF03681B69984729
:1057EC0048B901F013FC844205D901F00FFC386074
:1057FC0001F012FEEFE7642001F0D6FE03F06EF824
:10580C002B492C4E02F055FD002403F067F82E2195
:10581C0002F040FD02F0DAFF03685B699847431C15
:10582C001CBF3055013402F0D1FF03681B69984747
:10583C0008B1172CE9DD03F051F802F02EFD172CFE
:10584C001C4A0CDC1C4B114603F1180053F8046B7A
:10585C0041F8046B8342F9D1184B002119700026D2
:10586C00167603F03BF8134B154A0094012102F015
:10587C004AFD02F0ABFF02F0A2FF03F02FF8114932
:10588C00FFF7AEFE20462E7003B0BDE8F08300BFDC
:10589C0046CA03209CC80320C69B0D00D99B0D0053
:1058AC00F09B0D0018E70320019C0D002A9C0D00B5
:1058BC008B9C0D00DCD90320409C0D0045CA0320B5
:1058CC00599C0D00719C0D00A0C8032070B58EB0C2
:1058DC000025014606460AA807950895099502F089
:1058EC0000FE2B4606AA29460AA8FFF71FFB044612
:1058FC000AA802F070FD069B013B202B00F24B82A4
:10590C00DFE813F02100240028005700490285002D
:10591C008A00A500AA00CC00ED000F013001520155
:10592C0075017A0194019901AA01AD01B001B3018D
:10593C00B701490249024902BA01D4010902100215
:10594C00490249021402FFF781F924E20120FEF713
:10595C0071FE1DE231460AA802F0C3FD002307AA1E
:10596C0021460AA8FFF7E2FA04460AA802F033FD22
:10597C0031460AA802F0B5FD4FF47A7308AA214605
:10598C000AA8FFF7D3FA0AA802F025FD0899079890
:10599C00BB4CFEF741FE02F0A1FFBA4BBA4A1B68A2
:1059AC000193236800930121079B02F0ACFC24684F
:1059BC00F2E1FEF723FEFFF709FEFEF717FEB34BED
:1059CC00002231460AA85A7602F08BFDB62307AAAC
:1059DC0021460AA8FFF7AAFA04460AA802F0FBFC23
:1059EC0031460AA802F07DFDFF2308AA21460AA829
:1059FC00FFF79CFA0AA802F0EEFCA54B079C1C6072
:105A0C00A44B089A1A60A44B01221A70C4E1FEF749
:105A1C002BFD02F037FE83E131460AA802F061FD4E
:105A2C0007AA21464FF4B9730AA8FFF77FFA0AA810
:105A3C0002F0D1FC02F052FF984B196A0A2391FB39
:105A4C00F3F203FB12139649FFF724FD24E0FEF753
:105A5C0013FD944B5C789FE131460AA802F041FD9E
:105A6C004FF4FA7307AA21460AA8FFF75FFA044617
:105A7C000AA802F0B0FC31460AA802F032FD214619
:105A8C00FF2308AA0AA8FFF751FA0AA802F0A3FC00
:105A9C0008990798FEF78FFE079C7DE131460AA80E
:105AAC0002F01FFD07AA4FF4FA7321460AA8FFF76C
:105ABC003DFA04460AA802F08EFC31460AA802F010
:105ACC0010FD2146FF2308AA0AA8FFF72FFA0AA8FF
:105ADC0002F081FC08990798FEF779FE1FE0314629
:105AEC000AA802F0FEFC4FF4FA7307AA21460AA892
:105AFC00FFF71CFA04460AA802F06DFC31460AA80E
:105B0C0002F0EFFC2146FF2308AA0AA8FFF70EFAC1
:105B1C000AA802F060FC08990798FEF764FE089C3E
:105B2C003AE131460AA802F0DCFC07AA4FF4FA73FA
:105B3C0021460AA8FFF7FAF904460AA802F04BFC22
:105B4C0031460AA802F0CDFC2146FF2308AA0AA878
:105B5C00FFF7ECF90AA802F03EFC08990798FEF74B
:105B6C004EFEDCE731460AA802F0BBFC07AA4FF454
:105B7C00167321460AA8FFF7D9F904460AA802F0C1
:105B8C002AFC31460AA802F0ACFC21464FF47A7389
:105B9C0008AA0AA8FFF7CAF90AA802F01CFC08997F
:105BAC000798FFF781FC77E731460AA802F099FCC9
:105BBC0007AA002321460AA8FFF7B8F904460AA849
:105BCC0002F009FC31460AA802F08BFC21464FF486
:105BDC007A7308AA0AA8FFF7A9F90AA802F0FBFB36
:105BEC00FEF70CFD08990798FFF7C4FCCEE0FEF712
:105BFC0005FDFFF7F0FCC9E031460AA802F071FC84
:105C0C004FF4B97307AA21460AA8FFF78FF90AA81F
:105C1C0002F0E1FB079C40F25623621E9A4200F20E
:105C2C00BB801E4B00225C62DA61B5E0FEF7E6FC3D
:105C3C00FFF7CCFCAAE031460AA802F052FC802304
:105C4C0007AA21460AA8FFF771F90AA802F0C3FBBC
:105C5C000798FEF71DFD1FE7FEF72AFD60E0FEF733
:105C6C0009FE5DE0FEF71CFE5AE00F4B01241C7090
:105C7C0092E00D4B1D708EE0FFF788F950E000BFED
:105C8C00D4D9032024CA0320A89C0D005CD2032085
:105C9C00ACD9032048D3032044CA032018C90320DD
:105CAC00D79C0D0086D3032075CA0320FEF7A6FCF3
:105CBC00FFF78CFCFEF79AFC31460AA802F011FCA7
:105CCC0007AAB62321460AA8FFF730F904460AA80A
:105CDC0002F081FB31460AA802F003FC08AA214617
:105CEC00FF230AA8FFF722F90AA802F074FB344B31
:105CFC000799344800221A70334B5A76334B19608B
:105D0C00334B08991960334B01246FF000411C7020
:105D1C00FEF7F4FA40E06FF000412A48FEF7B2FAC1
:105D2C00012439E0FFF7FCFC044635E031460AA8B3
:105D3C0002F0D7FB192307AA21460AA8FFF7F6F8A9
:105D4C0004460AA802F047FB31460AA802F0C9FB38
:105D5C00962308AA21460AA8FFF7E8F804460AA8E1
:105D6C0002F039FB31460AA802F0BBFB0A2309AA50
:105D7C0021460AA8FFF7DAF80AA802F02CFBFEF776
:105D8C003DFC07A8002307C8FFF786F8FEF72EFC9A
:105D9C00114B1C6800E0002402F0A0FD00230593C9
:105DAC000493099B0393089B0293079B0193009414
:105DBC00069B0A4A012102F0A6FA20460EB070BDDD
:105DCC0075CA03205CC903205CD20320ACD9032024
:105DDC0048D3032044CA0320D4D90320EC9C0D00E3
:105DEC0010B5154B188802F0C9FE144B021E0CBFDF
:105DFC000121002119701C460CD10121104801F021
:105E0C00ADFA4FF4C8710846FFF74EFB0D4B01225B
:105E1C001A7005E04FF496714FF4C870FFF744FB0D
:105E2C0002F05CFD23780849002B14BF59224E2246
:105E3C00FFF7DAFB10BD00BF88C8032045CA03205A
:105E4C0058D30320C4C90320369D0D0010B51B4B3D
:105E5C001A7892B11A4C227852B1002222701A7020
:105E6C0002F03CFD174902F024FAFFF7B9FF04E0F9
:105E7C00322001F099FB01232370134B1C785CB189
:105E8C0001F0C4F8114B1B68984216D902F026FD9C
:105E9C000F4902F00EFA0AE00E4B1A786AB11C7028
:105EAC000D4B1B784BB1FFF73BFC182803D1BDE819
:105EBC001040FEF751BE094B1C7010BDD2D9032007
:105ECC00E9C903204C9D0D00C5C903200CCA032051
:105EDC00649D0D00C4C9032045CA03204CD3032084
:105EEC0013460A46002102F00EBA00002DE9F347D2
:105EFC000546174698460E4602F0DAFE294601F092
:105F0C0064FF02F0D5FE0021FEF785F9824602F00F
:105F1C00CFFE8321FEF77FF9044602F0C9FE012172
:105F2C0001F05AFF814660B1544402F0D7FCCDF821
:105F3C00049000942B46754A012102F0E4F90020EC
:105F4C00E0E001F063F800F59C5909F108092846D6
:105F5C00FFF7C6FA70B901F059F8484503D264202E
:105F6C0001F022FBF3E702F0B9FC2A466849FFF77F
:105F7C003BFBE4E7674C23782BB102F0AFFC2A46DD
:105F8C006549FFF731FB02F093FE294601F01DFF36
:105F9C0002F08EFE0021FEF73EF9824602F088FEEA
:105FAC00002101F019FF814630B102F097FC4B46FD
:105FBC0052465A49FFF76EFA02F07AFE29460A2237
:105FCC0001F000FF02F074FE03685B699847054618
:105FDC0002F06EFE03685B699847237881464BB1EB
:105FEC00EDB202F07BFC00955FFA89F34C4A01217B
:105FFC0002F089F902F05CFE03685B69984723782C
:10600C00C5B22BB102F06AFC2A464649FFF768FF7D
:10601C0002F04EFE03685B6998472378814633B1E2
:10602C0002F05CFC5FFA89F23E49FFF759FF4FEA38
:10603C00092909F47F4914234D4495FBF3F50A9B78
:10604C00433D1D8002F034FE03685B69984723785A
:10605C00C5B22BB102F042FC2A463249FFF740FF91
:10606C0002F026FE03685B69984723785FFA80F993
:10607C002BB102F033FC4A462A49FFF731FF05EBFE
:10608C000925358002F014FE03685B699847237874
:10609C00C5B22BB102F022FC2A462249FFF720FFA1
:1060AC0002F006FE03685B6998472378C6B22BB1F1
:1060BC0002F014FC32461B49FFF712FF05EB0625D4
:1060CC003D8002F0F5FD03685B6998472378C5B203
:1060DC002BB102F003FC2A461249FFF701FF02F034
:1060EC00E7FD03685B6998472378C6B22BB102F0D1
:1060FC00F5FB32460B49FFF777FA05EB0625A8F8B6
:10610C000050012002B0BDE8F08700BFA99D0D0032
:10611C00099E0D0075CA0320D99D0D00E19A0D0052
:10612C00029B0D00059E0D002DE9F04F8DB041280E
:10613C000746089114460AD031280BD032280CD0CF
:10614C0002F0CCFB3A464D49FFF74EFA93E04FF084
:10615C00740A04E04FF0750A01E04FF0760A484EDD
:10616C00737E1525B3FBF5F005FB10350133737603
:10617C00444B01221A70FEF79BFA21463846FEF773
:10618C00E5FAEDB264200A2401F00EFA04FB056472
:10619C005246089938464FF00009FFF72BFA0523B1
:1061AC00A776E376C8464E464D46CB46E27E9345EF
:1061BC0004F11B0320DA0AAB00930BAA0DF12E039A
:1061CC000DF12A015046FFF791FE60B1BDF82A305F
:1061DC001D44BDF82C301E44BDF82E309844BDF83B
:1061EC002830994405E002F079FB3A462649FFF73E
:1061FC00FBF90BF1010BD9E796FBF2F6E683B6B28D
:10620C0095FBF2F57643A583ADB298FBF2F005FB56
:10621C000565208480B299FBF2F900FB0050A4F8CC
:10622C0022900993FEF7E6F80546ADB202F056FB54
:10623C000795228C0692E28B0592A28B04921FFA90
:10624C0089F909EBC909052299FBF2F2203292B2C5
:10625C000392628C099B02921B780193089B00931A
:10626C000A4A3B46012102F04EF8064B0022384602
:10627C001A70FEF793FA0DB0BDE8F08F249E0D0056
:10628C005CD203207CC90320409E0D00679E0D004C
:10629C002DE9F04105460E46144600F0B7FE0746C0
:1062AC000120FEF7C3FAE0B1324629464120FFF740
:1062BC003BFF0CB1FEF7D2FD324629463120FFF7E9
:1062CC0033FF0CB1FEF7CAFD324629463220FFF7E8
:1062DC002BFF0CB1FEF7C2FD02F000FB01F0DDFF5D
:1062EC0004E002F0FBFA0B4901F0E3FFFEF7BAFA07
:1062FC00094B1B7863B102F0F1FA044600F086FEFC
:10630C00064AC31B01212046BDE8F04101F0FBBF4A
:10631C00BDE8F081A69E0D0075CA0320D99E0D0024
:10632C00F0B5924B1D7889B00C461E46002D40F0FE
:10633C001A81042800F0C38043DC012800F0898016
:10634C0011DC002840F00B81894904A802F08AF87E
:10635C0041F2707104A8FEF73FFD04A802F03BF86F
:10636C004FF47A7086E0022800F08780032840F012
:10637C00F68001A92046FEF7FBFC02A9FEF7F8FC0B
:10638C0003A9FEF7F5FC7B49044604A802F06AF861
:10639C00019B83EAE371A1EBE371029B5943039BDD
:1063AC0004A84B4346F2A81193FBF1F1FEF714FD40
:1063BC0004A802F010F801A8012307C8FEF76CFD31
:1063CC00CDE0142800F0AC8037DC0A2800F08F8078
:1063DC000B2840F0C48001A92046FEF7C9FC02A995
:1063EC00FEF7C6FC6449044604A802F03BF8634B74
:1063FC001968A1F58C4150390029B8BF4942962340
:10640C00594304A846F2A81391FBF3F1FEF7E4FC00
:10641C0004A801F0E0FFFFF7D9F8594904A802F0ED
:10642C0021F841F2707104A8FEF7D6FC04A801F023
:10643C00D2FF2A46029901986FE0152800F0888057
:10644C00632840F08C8002F049FA4E4901F031FF8C
:10645C0087E001A92046FEF78BFC4B49044604A8B3
:10646C0002F000F8019904A8FEF7B6FC04A801F0AC
:10647C00B2FF0198FEF734FD73E001A92046FEF748
:10648C0077FC02A9FEF774FC4049044604A801F00D
:10649C00E9FF019B83EAE371A1EBE371029B04A882
:1064AC004B4346F2A81193FBF1F1FEF795FC04A8BF
:1064BC0001F091FF02990198FEF756F84FE001A9FF
:1064CC002046FEF755FC02A9FEF752FC3049044663
:1064DC0004A801F0C7FF019904A8FEF77DFC04A8ED
:1064EC0001F079FF02990198FEF7DEFF37E002F028
:1064FC00F5F92849FFF774F8FFF768F8204904A864
:10650C0001F0B0FF41F2707104A8FEF765FC04A81D
:10651C0001F061FF2A46FF21B620FFF7B9FE20E00B
:10652C0001A92046FEF724FC044602F0D7F9019B92
:10653C00194A012101F0E7FE671C019BAB4210DDFB
:10654C00337873B9384600F02BF801350446F4E77C
:10655C0002F0C4F9114901F0ACFE604204E0FEF710
:10656C007DFC601C00E0084609B0F0BDD1D90320C9
:10657C00EA9E0D00029F0D00429F0D00D4D903200E
:10658C003A9F0D00739F0D00F39E0D00FB9E0D00B6
:10659C000E9F0D00169F0D004C9F0D00659F0D006A
:1065AC0030B585B003A90546FEF7E2FB014665B997
:1065BC00039B53B1184B01221A7002F08FF9174943
:1065CC0001F077FE4FF0FF3023E00398FFF7A8FEB1
:1065DC00044602F083F9039B019300942B46104A66
:1065EC000D4D012101F08FFE039B632B0DD0002C70
:1065FC000BDD2B784BB903A92046FEF7B9FB0146FE
:10660C000398FFF78DFE0446EEE784EAE470A0EBF6
:10661C00E47005B030BD00BFD1D903207F9F0D00C1
:10662C00979F0D001FB52B4B2B49012268461A7002
:10663C0001F018FF68460021FEF7CEFB684601F01A
:10664C00CAFE00F0F9FE4FF4FA6000F0ADFF00F066
:10665C00FBFE044628B102F041F9204901F029FE65
:10666C00EFE7FDF7E7FF4FF416714FF47A70FEF782
:10667C001BFF40F2DC5000F097FFFEF711F92146AA
:10668C00204600F06BFC2046FFF78AFF21460120D4
:10669C0000F064FCFEF758FBFEF7ECF800F0C4FECB
:1066AC004FF4FA6000F080FF00F0CEFE28B902F043
:1066BC0015F90B4901F0FDFDF0E70A4B0A4A1B786E
:1066CC000A4883F0010313700121002200F046FEFA
:1066DC0004B010BD7FC90320BB9F0D00C89F0D00E7
:1066EC00CA9F0D00D1D90320C6C90320A8C9032015
:1066FC0013460A46012101F006BE000007B502F060
:10670C00EDF82F4901F0D5FDFEF740FC02F0E6F85C
:10671C002C4901F0CEFD0120FDF78CFF02F0DEF8D4
:10672C00294901F0C6FDFF214FF4FA70FEF743F83A
:10673C004FF4FA7000F038FFFF214FF4FA70FEF7B7
:10674C0046F84FF4FA7000F02FFFFF214FF4FA7067
:10675C00FEF749F802F0C2F81C4901F0AAFD4FF40B
:10676C00A571FA20FEF7A0FEFEF73EFCFFF738FB02
:10677C00174B18491888002200924FF0FF3301F094
:10678C0037FB02F0ABF8144B14491A68FFF7B0FF53
:10679C0002F0A4F8124A9178137801915278009281
:1067AC000121104A01F0AFFDFEF764F800F02EFC59
:1067BC000D4B00F59C500830186003B05DF804FBDD
:1067CC00CC9F0D00F29F0D0002A00D000E9F0D003E
:1067DC0088C80320D9400D0074D3032012A00D00EB
:1067EC0086D3032020A00D00F8D9032010B502F0A9
:1067FC0075F80F49FEF7F4FE0E4B0F490F480022B7
:10680C001A70072202F0ABFC044650B902F066F88D
:10681C000B49FEF7E5FE0B4B1C70BDE81040FFF773
:10682C006DBF02F05BF80849FEF7DAFE10BD00BF41
:10683C0079A00D007EC90320C4990D00F5C9032071
:10684C0096A00D00F4C90320BFA00D0030B5144B69
:10685C0085B001220C461A70054600F0D7FB114B8F
:10686C0000F59C402030186002F038F822460E49A2
:10687C00FFF73EFF2846FEF733FA02F02FF80B49DC
:10688C0001F017FD0A49684601F0ECFD2146684607
:10689C00FEF7F8F8684601F09EFD05B030BD00BF6C
:1068AC0010CA0320D8D90320F0A00D003AD703203A
:1068BC000EA10D0010B502F011F8094901F0F9FC18
:1068CC00084B0020EC2202FB00310C7924B104317E
:1068DC00BDE81040FFF7BABF01300428F3D110BD5A
:1068EC001AA10D0086D3032010B58368182B11D183
:1068FC000A4C19222146002301F05DFE0023237669
:10690C0001F0ECFF22460649FFF7F2FEFEF724F9F0
:10691C00012010BD4FF0FF3010BD00BFDCD90320AB
:10692C0039A10D0070B500F071FB124B1A68824250
:10693C001D461AD8104A0023EC2101FB032634799A
:10694C004CB10E4B1C7894B101F0C8FF321D0C49B0
:10695C00FFF7CEFE0CE00133042BEED100F056FB1A
:10696C0000F56A406030286002E0002400E0012459
:10697C00204670BDF0C9032086D3032075CA0320BE
:10698C0057A10D0038B51E4B1A78D2B11D4C257885
:10699C0055B101F0A3FF1C4901F08BFC00232370BF
:1069AC00BDE83840FEF7B2BB184C23783BB301F07E
:1069BC0095FF174901F07DFC2570BDE83840FEF7C6
:1069CC00E1BB144B197821B11A70BDE83840FFF7C0
:1069DC0029BE114B1B785BB100F018FB0F4B1B68E9
:1069EC0098420CD901F07AFF0D4901F062FC02E0EB
:1069FC00FFF798FF18B1BDE83840FFF75BBF38BD13
:106A0C007FC90320D1D9032073A10D00C6C903206F
:106A1C0083A10D00F5D9032010CA0320D8D9032077
:106A2C0092A10D0038B507220D490E4802F097FBD4
:106A3C00054668B90C4C01F051FF22680B49FFF771
:106A4C0057FE0B4B20681D70BDE83840FEF7C2B8EE
:106A5C0001F044FF0749BDE8384001F02ABC00BFF3
:106A6C00C4990D00F5C9032070CA0320AEA10D0016
:106A7C0010CA0320E6A10D001C4B1D491D48002225
:106A8C0070B51A70072202F06AFB1B4C1B4DB0FA52
:106A9C0080F04009207001F021FF23781849002B69
:106AAC0014BF59224E22FEF79FFD2678AEB12868FE
:106ABC00FDF798FF064648B1124B01221A7001F0FF
:106ACC000DFF2A681049FFF713FE70BD01F006FF99
:106ADC000E4901F0EEFB267005E001F0FFFE2A687E
:106AEC000B49FFF705FE0B4B1E7070BDC5C903208B
:106AFC00C4990D00F5C903204CD3032070CA0320A0
:106B0C00FAA10D00F5D9032012A20D003EA20D0032
:106B1C005AA20D0045CA032030B53A4B3A48002220
:106B2C001A7085B07C232021FEF770F87C23024676
:106B3C0010213648FEF76AF8354A364B11181960A1
:106B4C001C4640F6C313984208DC115C232903D180
:106B5C002F4B00221A5401E00130F4E701F0BEFE85
:106B6C0005462B4802F0F3FA23680293264C274B78
:106B7C000193012103460094274A284601F0C3FBE8
:106B8C002649204602F0B5FA40B101F0A7FE009468
:106B9C00224B234A012101F0B6FB31E0214920466A
:106BAC0002F0A7FA20B905B0BDE83040FFF71EBED1
:106BBC001D49204602F09DFA20B905B0BDE83040D1
:106BCC00FFF75ABF1949204602F093FA20B905B0D5
:106BDC00BDE83040FEF746BA1549204602F089FA66
:106BEC0020B905B0BDE83040FEF766BA1149204621
:106BFC0002F07FFA20B905B0BDE83040FFF712BFB4
:106C0C0005B030BD84D30320C7C90320F5C90320C8
:106C1C00FCD9032070CA032070A20D00B0D9032048
:106C2C00A5A20D009F9A0D00FE980D003A9A0D003A
:106C3C00119A0D000EA10D007FB53A4E3A4C01F0A1
:106C4C004DFE03681B69984740B301F047FE03688B
:106C5C005B6998472368F05401F040FE03681B6998
:106C6C0098472368054638B10133282193FBF1F28C
:106C7C0001FB12332360E2E7F05401F02FFE2949A7
:106C8C0001F017FB27492560684601F0EBFB6846CD
:106C9C00FEF71CFE684601F09EFBD0E7234B1B78E9
:106CAC0013B1FFF739FF3BE0214B1C7814B1FEF711
:106CBC00BFFB0EE0FFF7CAF8FFF764FE1D4B1A7816
:106CCC003AB11C701C4B19681C4B22461868FFF714
:106CDC00DFFA1B4B1A682AB100221A60FDF71AFE64
:106CEC00FDF7F2FC174B1C781CB100220121164851
:106CFC0014E0164B164D1B6AB3F5AF7F06DA00F0A5
:106D0C0085F900F59C500830286009E000F07EF908
:106D1C002B68984204D90F482246012100F01EFB33
:106D2C0004B070BD47CA0320C0E3032084D3032002
:106D3C00F4C9032044CA032048D30320ACD9032050
:106D4C0020CA032045CA032058D3032018C90320A6
:106D5C0014CA0320A8C903202DE9F0435A4B5B4FFA
:106D6C005B4EDFF8B09101241C705A4B87B00225A2
:106D7C001D7000F073F9282300932B46564D019497
:106D8C0022464FF47F01384601F0D2F832462946AC
:106D9C00384601F0D3FF00221421204600F010FBEE
:106DAC004E4F01944FF01E080346CDF8008022464A
:106DBC004FF47F01384601F0BBF83246294638467D
:106DCC0001F0BCFF00221421204600F0F9FA444FD8
:106DDC00CDF800800346224601944FF47F4138469B
:106DEC0001F0A6F83246294638463E4D3E4FDFF8B4
:106DFC00288101F0A3FF3D4B029302AA002341F22C
:106E0C00883128460497CDF81490FDF709FA02A8AA
:106E1C00FDF7F8F932464146284601F08FFF344A17
:106E2C00344B12681A60344A049712685A604FF453
:106E3C0048721A614FF4B97200254FF47A715A6294
:106E4C002E4F99636422DD601D725D619D61DA6273
:106E5C001C635C63DC631C64294B029302AA2B4603
:106E6C003846CDF81490FDF7DBF902A8FDF7CAF906
:106E7C003846244F3246414601F060FF22493846DD
:106E8C0001F0F0FA32462149384601F057FF204B09
:106E9C000E225A702946FF220C2620461E709A702C
:106EAC0000F076FA01F006FE2B462A4642F6A23195
:106EBC0001F008FE01F0FEFD2B462A46314601F09A
:106ECC0009FE07B0BDE8F083E8C9032080C90320A0
:106EDC0014C90320A0C9032095410D0054D30320ED
:106EEC00A4C903205CC90320E9400D00B5400D0086
:106EFC0070C8032018C9032090C8032028CA032097
:106F0C00C1400D0074D30320A0A40D00E3830D0039
:106F1C0086D30320E5400D00B1420D0008B5024BAD
:106F2C001B689B68019308BD4802030008B5024B1F
:106F3C001B68DB68019308BD4802030008B5024BCF
:106F4C001B681B69019308BD4802030008B5024B7E
:106F5C001B685B69019308BD4802030008B5024B2E
:106F6C001B68DB69019308BD4802030008B5024B9E
:106F7C001B681B6A019308BD4802030008B5024B4D
:106F8C001B685B6A019308BD4802030008B5024BFD
:106F9C001B689B6A019308BD4802030008B5024BAD
:106FAC001B68DB6A019308BD4802030008B5024B5D
:106FBC001B685B6C019308BD4802030008B5024BCB
:106FCC001B689B6C019308BD4802030008B5024B7B
:106FDC001B681B6F019308BD4802030008B5024BE8
:106FEC001B689B6E019308BD3402030008B5024B6D
:106FFC001B685B68019308BD1802030008B5024BBF
:10700C001B68DB68019308BD1802030008B5024B2E
:10701C001B685B69019308BD1802030008B5024B9D
:10702C001B689B6A019308BD1802030008B5024B4C
:10703C001B685B6C019308BD1802030008B5024B7A
:10704C001B689B6C019308BD1802030008B5024B2A
:10705C001B68DB6C019308BD1802030008B5024BDA
:10706C001B681B68019308BD2C02030008B5024B7A
:10707C001B685B68019308BD2C02030008B5024B2A
:10708C001B689B68019308BD2C02030008B5024BDA
:10709C001B68DB68019308BD2C02030008B5024B8A
:1070AC001B681B69019308BD2C02030008B5024B39
:1070BC001B685B69019308BD2C02030008B5024BE9
:1070CC001B689B69019308BD2C02030008B5024B99
:1070DC001B68DB69019308BD2C02030008B5024B49
:1070EC001B689B6A019308BD2C02030008B5024B78
:1070FC001B681B6B019308BD2C02030008B5024BE7
:10710C001B689B6F019308BD2C02030008B5024B52
:10711C001B68DB6F019308BD2C02030008B5024B02
:10712C001B681B68019308BD2802030008B5024BBD
:10713C001B68DB68019308BD2802030008B5024BED
:10714C001B681B69019308BD2802030008B5024B9C
:10715C001B689B69019308BD2802030008B5024B0C
:10716C001B68DB69019308BD2802030008B5024BBC
:10717C001B681B6A019308BD2802030008B5024B6B
:10718C001B685B6A019308BD2802030008B5024B1B
:10719C001B689B6A019308BD2802030008B5024BCB
:1071AC001B68DB6A019308BD2802030008B5024B7B
:1071BC001B681B6B019308BD2802030008B5024B2A
:1071CC001B685B6B019308BD2802030008B5024BDA
:1071DC001B681B6C019308BD2802030008B5024B09
:1071EC001B681B6D019308BD2802030008B5024BF8
:1071FC001B685B69019308BD6402030008B5024B70
:10720C001B689B68019308BD6802030008B5024B1C
:10721C001B68DB68019308BD6802030008B5024BCC
:10722C001B681B68019308BD2402030008B5024BC0
:10723C001B68DB69019308BD3002030008B5024BE3
:10724C001B681B6A019308BD3002030008B5024B92
:10725C001B681B68019308BD3C02030008B5024B78
:10726C001B689B68019308BD3C02030008B5024BE8
:10727C001B68DB68019308BD3C02030008B5024B98
:10728C001B681B69019308BD3C02030008B5024B47
:10729C001B685B69019308BD3C02030008B5024BF7
:1072AC001B689B69019308BD3C02030008B5024BA7
:1072BC001B68DB69019308BD3C02030008B5024B57
:1072CC001B681B6A019308BD3C02030008B5024B06
:1072DC001B689B6A019308BD3C02030008B5024B76
:1072EC001B68DB6A019308BD3C02030008B5024B26
:1072FC001B681B68019308BD4C02030008B5024BC8
:10730C001B685B68019308BD4C02030008B5024B77
:10731C001B681B69019308BD4C02030008B5024BA6
:10732C001B685B69019308BD4C02030008B5024B56
:10733C001B689B69019308BD4C02030008B5024B06
:10734C001B68DB69019308BD4C02030008B5024BB6
:10735C001B681B6A019308BD4C02030008B5034B64
:10736C001B68D3F88030019308BD00006002030055
:10737C0008B5024B1B685B68019308BD2002030033
:10738C0008B5024B1B685B69019308BD2002030022
:10739C0008B5024B1B68DB6A019308BD2002030091
:1073AC0008B5024B1B68DB6C019308BD200203007F
:1073BC0008B5024B1B685B6D019308BD20020300EE
:1073CC0008B5024B1B68DB6F019308BD200203005C
:1073DC0008B5034B1B68D3F88830019308BD000037
:1073EC002002030008B5034B1B68D3F894300193BB
:1073FC0008BD00002002030008B5024B1B681B6887
:10740C00019308BD4402030008B5024B1B685B687E
:10741C00019308BD4402030008B5024B1B689B682E
:10742C00019308BD4402030008B5024B1B68DB68DE
:10743C00019308BD4402030008B5024B1B681B698D
:10744C00019308BD4402030008B5024B1B685B693D
:10745C00019308BD4402030008B5024B1B68DB69AD
:10746C00019308BD4402030008B5024B1B681B6A5C
:10747C00019308BD4402030008B5024B1B685B6A0C
:10748C00019308BD4402030008B5024B1B68DB6B7B
:10749C00019308BD4402030008B5024B1B685B68EE
:1074AC00019308BD4002030008B5024B1B689B68A2
:1074BC00019308BD4002030008B5024B1B68DB6852
:1074CC00019308BD4002030008B5024B1B681B6901
:1074DC00019308BD4002030008B5024B1B685B69B1
:1074EC00019308BD4002030008B5024B1B689B6961
:1074FC00019308BD4002030008B5024B1B68DB6911
:10750C00019308BD4002030008B5024B1B681B6ABF
:10751C00019308BD4002030008B5024B1B681B6BAE
:10752C00019308BD4002030008B5024B1B685B6B5E
:10753C00019308BD4002030008B5024B1B681B6891
:10754C00019308BD1C02030008B5024B1B685B6865
:10755C00019308BD1C02030008B5024B1B689B6815
:10756C00019308BD1C02030008B5024B1B68DB68C5
:10757C00019308BD1C02030008B5024B1B685B6A33
:10758C00019308BD1C02030008B5024B1B68DB6AA3
:10759C00019308BD1C02030008B5024B1B681B6B52
:1075AC00019308BD1C0203000021FFF7E9BE10B5D2
:1075BC00836804460BB901F0E2FBC3689847A368E3
:1075CC001BB1032221462046984720461021BDE8D6
:1075DC00104001F0B8BB10B50446006808B1FFF7C5
:1075EC00EDFC204610BD10B5036804469B68984717
:1075FC00A368013BA3602BB923682046DB68BDE878
:10760C001040184710BD0B68036013B15A68013263
:10761C005A60704710B50446006828B14368013BB6
:10762C0043600BB9FFF7DFFF204610BD10B5064CC9
:10763C00002320462360FFF7B9FC2046034A044987
:10764C00BDE8104001F07ABBC4E3032014C9032049
:10765C00E3750D0070470020704710B510210446EB
:10766C0001F071FB204610BD08B508B1FFF7F5FF1E
:10767C0008BD0022026010B54FF69C728280B1F9F1
:10768C00044084808A8002680C6804600A6010BD23
:10769C0010B504460068FFF757FF204610BD38B5FB
:1076AC00C468F4B12378022B03D104F10C00FFF76A
:1076BC00EFFF656835B12846FCF7A4FD102128467C
:1076CC0001F041FBA56835B12846FCF79BFD102164
:1076DC00284601F038FB20461421BDE8384001F063
:1076EC0032BB38BD10B588B00446684600F0BAFE0F
:1076FC00694604A800F0F5FE04A8A047044604A8B7
:10770C0000F069FE684600F066FE204608B010BD29
:10771C00F0B5102485B007460E46154600212246CA
:10772C00684601F098FC002269461046ADF800400E
:10773C00029703960195FFF767FE05B0F0BD13B5F0
:10774C00044691E8050000234B600B6020606260EA
:10775C0001A801930093FFF75DFF204602B010BD16
:10776C00F7B50C4602AD54F8043B45F8083D064607
:10777C000F4601A82146FFF746FF29463046FFF782
:10778C00DEFF01A8FFF746FF2046FFF743FF384610
:10779C00082101F0D8FA304603B0F0BD13B50B4602
:1077AC00044603C88DE8030093E8030084E8030053
:1077BC009DE8030083E8030002B010BD38B5002338
:1077CC000446036010200D46FCF75FFC28B1012332
:1077DC0043608360024B0360C5602060204638BD67
:1077EC0080A30D00826810B50AB901F0C8FAC3680D
:1077FC00BDE81040184708B5006800F11001FFF70C
:10780C00F1FF08BD826810B50AB901F0B8FAC36877
:10781C00BDE81040184708B5006800F11001FFF7EB
:10782C00F1FF08BD38B5002383608B6804460D4614
:10783C002BB102229847EB68E360AB68A36020464B
:10784C0038BD0000F0B589B004686846FFF711FF39
:10785C0000238DF808304FF00202D4E84F3F002B84
:10786C0003D1C4E8412F0029F7D102D08DF808309C
:10787C0063E014F10C0503D069462846FFF7F9FEC6
:10788C00BFF35F8F01236370002004F10803BFF383
:10789C005F8F53E8006F43E80002002AF9D1BFF371
:1078AC005F8F002E49D0FFF77BFD20B12946304673
:1078BC00FFF798FF3AE0314602A8FFF7B3FFE06804
:1078CC00B4F9105008B101F027FC06901020ADF867
:1078DC001C50FCF7DAFB0546E8B10027876018203E
:1078EC00FCF7D3FB044688B10146876002A8FFF77A
:1078FC0055FF049BA268A360059B049206A9E2684D
:10790C00E36004F110000592FFF7B3FE0D4BEB6042
:10791C000D4B2C60AB6006A8FFF7BAFE02A8FCF773
:10792C0071FC002229460948FFF742FD3046FCF75E
:10793C0069FC1021304601F006FA6846FFF7A8FEF4
:10794C0009B0F0BD03780D00797A0D00BB750D0000
:10795C002DE9F04F8BB006460F46904699469DF8A0
:10796C0050A0FFF771FD07AD834630BB4FF62E7369
:10797C00059005A92846ADF81830FFF77AFE1420BB
:10798C00FCF783FB044658B10223037001234370B8
:10799C00C0F804B0C0F808B029460C30FFF769FEF7
:1079AC003046214640F8044BFFF708FF2846FFF706
:1079BC006FFE05A8FFF76CFE52E000240C23142088
:1079CC006C60AC600793FCF760FB014618B1047067
:1079DC0044704460846004A80391FFF7EFFE224BCF
:1079EC0008930820FCF751FB044628B1039B40F890
:1079FC00043B04A9FFF707FE00955FFA8AF34A4699
:107A0C00414638460994FFF72FFD20B9039B5B785C
:107A1C0003F0FF0283B1039B059304A906A8FFF7AB
:107A2C00F2FD05A93046FFF78AFE06A8FFF7F2FD26
:107A3C0004A8FFF7EFFD13E04FF69C7305A903A80C
:107A4C000592ADF81830FFF7FDFE05A8FFF720FEF4
:107A5C0005A80999FFF784FE06A8FFF7DBFDDAE716
:107A6C0030460BB0BDE8F08FE97B0D00022AF8B56B
:107A7C00044606D0032A17D0012A22D10B680360D2
:107A8C001FE018200E68FCF700FB054650B131468C
:107A9C00FFF7C8FE3069B6F9147008B101F03CFB71
:107AAC002861AF8225600CE0046854B104F1100029
:107ABC00FFF7EEFD2046FCF7A5FB1821204601F050
:107ACC0042F90020F8BD38B5002383608B6804466A
:107ADC000D462BB102229847EB68E360AB68A360BC
:107AEC00204638BD022A70B5044606D0032A11D0B0
:107AFC00012A18D10B68036015E014200E68FCF7FE
:107B0C00C4FA054620B13146FFF7DDFF337C2B74F8
:107B1C00256008E0046834B12046FCF773FB14219F
:107B2C00204601F010F9002070BD0000F0B50023D4
:107B3C0087B00C46BFF35F8F50E8006F40E800320F
:107B4C00002AF9D1BFF35F8F002E3FD01846FFF704
:107B5C0027FC074620B121463046FFF753FE2EE0A6
:107B6C00314601A8FFF7AFFF23788DF814301020B1
:107B7C00FCF78BFA0546D0B187601420FCF785FA28
:107B8C00044678B18760014601A8FFF707FE039B06
:107B9C00A268A360049B0392E268E3609DF8143032
:107BAC00049223740A4BEB600A4B2C60AB6001A867
:107BBC00FCF728FB002229460748FFF7F9FB304663
:107BCC00FCF720FB1021304601F0BDF807B0F0BDEA
:107BDC0023780D00F17A0D00BB750D0030B585B022
:107BEC0004460D4668461146FFF7BAFD7CB124B237
:107BFC0028460DB101F090FA029002A96846ADF842
:107C0C000C40FFF71FFE02A8FFF742FD1DE0009895
:107C1C008DF808404FF00102D0E84F3FA34203D14A
:107C2C00C0E8412F0029F7D102D08DF808300CE0C4
:107C3C0010F10C014FF0010318BF0373BFF35F8FFA
:107C4C00043000F8033CFFF771FF01A8FFF7E2FCDA
:107C5C0005B030BD002211464068FFF755BC00222C
:107C6C0011464068FFF760BC00224068FFF754BC27
:107C7C00002281F001014068FFF73EBC00231A4648
:107C8C0019464068FFF730BC00231A461946406875
:107C9C00FFF722BC002211464068FFF715BC0022FA
:107CAC0011464068FFF700BC002202214068FFF734
:107CBC0003BC00231A464068FFF7EEBB024B0322BD
:107CCC005A60024A1A607047C8E303209CA30D0057
:107CDC007047F8B5064615460C468F18BC4206D0C0
:107CEC00336814F8011B9B6830469847F6E7284622
:107CFC00F8BD0022007CFFF739BA0021007CFFF7A9
:107D0C003DBA0021007CFFF741BA0021007CFFF74F
:107D1C0045BA0021007CFFF749BA10B5142104467E
:107D2C0001F011F8204610BD10B504460023636025
:107D3C004FF47A73A360044B2174084623601146F8
:107D4C00FFF744FA204610BDD0A30D000022007CA2
:107D5C00FFF7E4B900231A461946007CFFF7E6B991
:107D6C000021007CFFF7EAB970B50C4686B01425EB
:107D7C0006462A46002101A801F06DF923788DF8FA
:107D8C00083063680393E36804930022237A307C01
:107D9C00ADF8045001A90593FFF720FA06B070BDA9
:107DAC001FB500338DF800104FF06401039118BF1C
:107DBC000123694601928DF80830FFF7D5FF05B015
:107DCC005DF804FB0123FFF7EBBF0022007CFFF7FB
:107DDC00BDB9C9B2FFF7F9BF0022007CFFF7BEB9ED
:107DEC000121FFF7F9BF0021007CFFF7E7B900473D
:107DFC00F0B585B01C460E4617460546FFF766F9EA
:107E0C00002084424FF0040303908DF80C30A5BF82
:107E1C009DF828308DF80E30034603AB00933246A4
:107E2C003B460649A8BF8DF80D402846FFF746F99A
:107E3C00B0FA80F0400905B0F0BD00BFFB7D0D002D
:107E4C00704710B51821044600F07DFF204610BD88
:107E5C00F0B5037D062B8DB00E4600F104074FF0F4
:107E6C00000402D000F1080518E00CAD394605F805
:107E7C00304D2F232A460A20FFF7B8F9284601F087
:107E8C0066F933680246DB682946304698470FE0AE
:107E9C0024B12E21304600F0FDF9044415F8011DE3
:107EAC000A22304600F00FFABD420444F0D12046BD
:107EBC000DB0F0BD10B5054B0446112240F8043B43
:107ECC00002101F0C8F8204610BD00BFF8A30D003A
:107EDC000346074A10B543F8042B01F1100251F880
:107EEC00044B43F8044B9142F9D10A781A7010BD37
:107EFC00F8A30D0010B59DF8084044EA032343EAAB
:107F0C00024242EA016104234160037510BD37B59A
:107F1C000D788B784A78C97800912946FFF7EAFFEB
:107F2C0003B030BD0A680B469268014618461047EC
:107F3C0070B50E4C04601C2444609DF814409DF8F0
:107F4C00106004F0030444EA86040025E4B20474CF
:107F5C00427485744161427C85600F2A08BF044BD2
:107F6C00C56006BF8361C061038370BD0C930D00B7
:107F7C00317F0D00014B024A1A607047D0E3032099
:107F8C006FA40D00002211464068FFF7BDBA002215
:107F9C0011464068FFF7C8BA00224068FFF7BCBA28
:107FAC00002281F001014068FFF7A6BA00231A46AF
:107FBC0001214068FFF798BA00231A461946406819
:107FCC00FFF78ABA002211464068FFF77DBA0022FB
:107FDC0011464068FFF768BA002202214068FFF79B
:107FEC006BBA00231A464068FFF756BA38B50546F7
:107FFC0088B104684CB1A3681BB10322214620460A
:10800C0098471021204600F09EFE28461421BDE81A
:10801C00384000F098BE38BD10B103685B68184753
:10802C00704710B503680446BBB15868FEF776FF7D
:10803C0078B923685A7C12B95868FEF77FFF236819
:10804C005868FEF783FF20680023236028B1FFF7F0
:10805C00CDFF206808B1FFF7C9FF204610BD38B529
:10806C000446D0F8C40108B1FCF713F8D4F8C001E9
:10807C0008B1FEF7A3FFD4F8BC5135B12846FFF781
:10808C00D0FF0421284600F05EFE206808B1FFF7FF
:10809C00C3FF204638BD000010B5044B044640F821
:1080AC00083BFFF7DCFF204610BD00BFE0A40D002D
:1080BC0038B50E4C0E4B23600025022304F5E470FA
:1080CC006360A560C4F8C451C4F8C851FEF76EFFD4
:1080DC00084BC4F8CC5184F8D05123602046064A92
:1080EC000649BDE8384000F029BE00BFD4E30320A8
:1080FC0014A50D00E0A40D0014C90320A5800D00EB
:10810C0000231A464068FFF7C7B9002202214068D5
:10811C00FFF7D2B9002211464068FFF7C5B900221B
:10812C0011464068FFF7D0B900231A46194640683B
:10813C00FFF7D2B900231A4619464068FFF7D4B9A5
:10814C00002281F001014068FFF7D6B90022406897
:10815C00FFF7E2B9002211464068FFF7E5B90022AB
:10816C0011464068FFF7D0B92DE9F043002495B0D3
:10817C0016460D460746FFF79DFE214620220CA809
:10818C00009400F068FF40230C9321466B460CAA28
:10819C003046FFF73BF80446002844D10246012143
:1081AC006868FFF791F90221804622466868FFF75C
:1081BC008BF9009E81462146002E34D0002932D105
:1081CC007368022B02D00A2B09D02AE0B8F1000FF9
:1081DC0027D0716938460431FFF799FE20E0B9F1D8
:1081EC00000F1ED07469112201A800F034FF062381
:1081FC008DF8143001AD04F108031834186859686F
:10820C002A4603C20833A3421546F7D101A906A892
:10821C0007ADFFF75DFE0FCD3C1D0FC42B6823701F
:10822C000121F669C8E70098FEF7E8FF384615B05B
:10823C00BDE8F083024B034A1A6000225A60704773
:10824C00A8E5032014A50D00F8B506460D468F18B9
:10825C000024BD420CD0336815F8011B9B683046D6
:10826C009847002801DB0444F3E7002C08BF0446C0
:10827C002046F8BD70B505460C46084649B100F0DD
:10828C0066FF2B68024621462846DB68BDE8704035
:10829C00184770BD03689B68184738B50D21054613
:1082AC00FFF7F8FF0A2104462846FFF7F3FF2044A6
:1082BC0038BD38B50546FFF7DDFF04462846FFF705
:1082CC00ECFF204438BD30B58BB00B4600218DF847
:1082DC002410012A98BF0A220DF12304B3FBF2F5F6
:1082EC0005FB123303F0FF03092B94BF30333733F4
:1082FC00DBB2214604F801392B46002DEED1FFF7F5
:10830C00B9FF0BB030BD0CB42DE9F04387B000AF12
:10831C0007F13804054654F8049B3C600E4623468E
:10832C004A461421381DFFF727F9132805D8391DA3
:10833C002846FFF79FFF044613E000F1080323F0E3
:10834C000703E846ADEB030D411C23464A4668463D
:10835C003C60FFF711F969462846FFF78BFF04468E
:10836C00C5461EB12846FFF798FF044420461C372B
:10837C00BD46BDE8F04302B0704710B50446FBF7AC
:10838C0041FF204610BD00000348044A0449002365
:10839C00836000F0D3BC00BFB0E5032014C90320F8
:1083AC0087830D00704710B50C21044600F0CBFC00
:1083BC00204610BD10B5054B0360044601710846FC
:1083CC00FEF734FF0023A360204610BD48A50D0026
:1083DC000079FEF733BF10B504460068FFF7B4F818
:1083EC00204610BD10B50446006808B1FFF7ACF884
:1083FC0000232360A360636010BD38B504460D46AE
:10840C0000680131FFF7A8F810B184E821000120C1
:10841C0038BD10B50368044613B143688B4207D2CC
:10842C002046FFF7EAFF20B1A3680BB9226813704E
:10843C00012010BD70B50E46114604461546FFF7D7
:10844C00E8FF18B92046FFF7CDFF09E02A46314670
:10845C00A560206800F0F4FD2268A3680021D154C7
:10846C00204670BD38B5002304460360436083602A
:10847C0003730D4639B1084600F069FE29460246E1
:10848C002046FFF7D7FF204638BD38B505460068B3
:10849C000C4660B16A688B689A4206D3096800F092
:1084AC0032FEA368AB6000230AE0FFF74DF82368A7
:1084BC002B6063686B60A368AB6000232360636010
:1084CC00A36038BD884210B50B46044607D0096836
:1084DC0019B19A68FFF7AEFF01E0FFF783FF204662
:1084EC0010BD10B500230446036043608360037322
:1084FC00FFF7E8FF204610BD884210B5044601D0B6
:10850C00FFF7C3FF204610BD38B505460C4641B1F8
:10851C00084600F01CFE214602462846FFF78AFF5B
:10852C0001E0FFF75FFF284638BD13B500238DF837
:10853C000410036043608360037301A904468DF843
:10854C000530FFF7E1FF204602B010BD70B50446C0
:10855C000E4609B9002070BD6AB18368D51829464A
:10856C00FFF757FF0028F5D02068A3683146184460
:10857C0000F0C9FDA560012070BD10B58A680968BE
:10858C000446FFF7E3FF10B92046FFF72BFF204608
:10859C0010BD38B504460D4641B1084600F0D7FD74
:1085AC00294602462046FFF7D1FF10B92046FFF7B7
:1085BC0019FF204638BD70B50E469AB191B1856849
:1085CC009D4202D800230B7070BD541EED1A016839
:1085DC00AC4228BF2C4619442246304600F0D4FD4C
:1085EC000023335570BD10B58368934206D90468D7
:1085FC00A01800F070FD08B1001B10BD4FF0FF304B
:10860C0010BD0000F8B59A420F461D460C4988BFB4
:10861C0013461446064684BF2C461D46FFF722FF20
:10862C00BA6894420AD83968954294BFC4EB0502E3
:10863C00C4EB020221443046FFF7FCFE3046F8BD85
:10864C00A0A40D0010B504468B68FFF7DBFF204695
:10865C0010BD006808B100F0E1BC704710B50446CD
:10866C00006818B1FEF770FF0023236010BD10B531
:10867C000446FFF7F3FF204610BD014600228C2074
:10868C00FEF7ACBC0020FFF7F8BF000010B5094C9A
:10869C0000204FF6FF732060A080A07120816381C1
:1086AC00FEF766FE2046044A0449BDE8104000F07F
:1086BC0045BB00BFC0E5032014C903207B860D0019
:1086CC00024B1A68024B1A60704700BFA8C80320FF
:1086DC00CCE50320F8B585B2044628460E4617466D
:1086EC0000F000FA60B102212846FEF7BFFC022818
:1086FC0006D13A4631462046BDE8F840FEF78EBD1D
:10870C00F8BD70474174704708B5007CFEF7DEFD7C
:10871C0020EAE07008BD08B5007CFEF7AFFD20EA4A
:10872C00E07008BD08B5007CFEF7B8FD30EA20000B
:10873C0028BF4FF0FF3008BD08B5007CFEF7A6FD42
:10874C0030EA200028BF4FF0FF3008BD007CFEF758
:10875C00ADBD10B51421044600F0F5FA204610BD4D
:10876C0070B5457C04460E4625B9007CFEF7AEFD7F
:10877C00002805DD3146207CBDE87040FEF776BD53
:10878C00284670BD10B504460846114600226260AA
:10879C004FF47A72A260054A22600122207462743E
:1087AC001A46FEF753FD204610BD00BF84A50D00F0
:1087BC000023007CFEF792BD0022FFF7F9BF007C7E
:1087CC00FEF74CBD007CFEF779BD000038B50C4DB2
:1087DC00296811F0010411D12846FBF75CFC68B143
:1087EC00084A094B09482146FFF7CCFF2846FBF7FE
:1087FC0057FC074A0749054800F0A0FA034838BD62
:10880C0068E603206CE60320E4E50320D0E50320B2
:10881C0014C903200F870D0041747047704708B5C9
:10882C000021007CFEF782FD30EA200028BF4FF0CB
:10883C00FF3008BD08B50121007CFEF777FD30EA5A
:10884C00200028BF4FF0FF3008BD08B5007CFEF7B4
:10885C0065FD20EAE07008BD08B5007CFEF756FD0A
:10886C0020EAE07008BD007CFEF770BD10B5142145
:10887C00044600F068FA204610BD38B50446007C6A
:10888C000D46FEF74BFD002801DC607C28B1294623
:10889C00207CFEF753FD20EAE07038BD10B504468D
:1088AC00002363604FF47A73A360054B23600123AC
:1088BC000846217463741146FEF718FD204610BD5E
:1088CC00B4A50D000022007CFEF718BD10B51422D3
:1088DC000446002100F0BFFB204610BD30B50E4D04
:1088EC0087B001A8FFF7F2FF296811F0010410D13D
:1088FC002846FBF7D0FB60B101AA21460748FFF7D9
:10890C00CDFF2846FBF7CCFB054A0649034800F08F
:10891C0015FA024807B030BDF0E60320F4E6032058
:10892C0014C9032029880D00002211464068FEF767
:10893C00CBBD002211464068FEF7E6BD0022114671
:10894C004068FEF7F1BD00224068FEF7E5BD00224D
:10895C0081F001014068FEF7CFBD00231A4619468D
:10896C004068FEF7C1BD00231A4619464068FEF761
:10897C00B3BD002211464068FEF796BD00220221CD
:10898C004068FEF799BD00231A464068FEF784BD87
:10899C00024B04225A60024A1A60704708E703200F
:1089AC00E4A50D0008B50C4B33B1FFF797FF036836
:1089BC001B699847002809DC084B63B1FFF706FFD9
:1089CC0003681B699847002803DC08BDAFF30080DF
:1089DC00F2E7AFF3008008BD0000000000000000CB
:1089EC0008B5FFF7DFFFFEF711FB014B186008BD60
:1089FC0018E703200248034A0349121A00F020BB6F
:108A0C0000F4032004F40320B0A70D0007B50023E5
:108A1C0000931A466FF07701FEF7E4FC03B05DF8A3
:108A2C0004FB000007B543880A2B08D0502B09D152
:108A3C00094B1B683BB103B05DF804EB1847FFF71B
:108A4C00E5FF06E0002300931A466FF07701FEF76E
:108A5C00C9FC03B05DF804FB10E7032038B5104CDB
:108A6C00104D2368AB42104B0CBF012200221A7030
:108A7C0002D0FFF7BFFF2560FEF7B8FA044600F0FE
:108A8C00F3FA0A4B13B12046AFF3008000210748DC
:108A9C00FEF7FAFC00210648BDE83840FEF798BC0A
:108AAC0000F403201E1C279A14E70320000000008A
:108ABC00318A0D0008B5024B1B681B68019308BD79
:108ACC005C02030008B5024B1B685B68019308BD90
:108ADC005C02030008B5024B1B689B68019308BD40
:108AEC005C02030010B5044600F008F9FFF770FCB7
:108AFC0028B1A4F10B03022B01D8002010BD00F00B
:108B0C00D7F8FFF770F908B1012CF6D9FFF75EFE24
:108B1C00FFF758FE18B1A4F10903012BEDD9232C52
:108B2C008CBF0020012010BD232838B504460D460B
:108B3C000AD8FF2908D0FFF7D5FF28B129462046CF
:108B4C00BDE83840FEF79ABA38BD38B504460D4634
:108B5C00FEF79CFAFF2810D0062804D84D2323FAE0
:108B6C0000F0C30709D42046FFF7BCFF28B1294603
:108B7C002046BDE83840FEF791BA38BD10B5044622
:108B8C00FEF784FA0438C0B2012808D92046FFF752
:108B9C00A9FF20B12046BDE81040FEF787BA00209F
:108BAC0010BD0D2810B504469CBF0E34A4B220464F
:108BBC00FFF798FF50B103212046FEF757FA032820
:108BCC0004D12046BDE81040FEF790BA002010BD3D
:108BDC0038B504460D46FFF785FFF0B10421204659
:108BEC00FEF744FA042805D1A9B22046BDE8384066
:108BFC00FEF774BA02212046FEF738FA02280CD18F
:108C0C002046FEF743FA012801D0042805D1294655
:108C1C002046BDE83840FEF771BA38BD70B5044641
:108C2C000D461646FFF75EFF98B102212046FEF76F
:108C3C001DFA02280DD12046FEF728FA012801D092
:108C4C00042806D1324629462046BDE87040FEF77E
:108C5C005DBA70BD10B5074C2368DB0708D42046FD
:108C6C00FBF719FA20B1FEF7D9F92046FBF718FAF1
:108C7C00014810BD1CE7032020E7032070B5044613
:108C8C0014252A46094E002100F0E5F925802025FF
:108C9C003146A5602561284600F06FF831466060CA
:108CAC00284600F06AF8E060204670BD10A60D0062
:108CBC0030B50E4D296811F0010487B013D1284648
:108CCC00FBF7E9F978B101A8FFF7D8FF01AA214613
:108CDC000748FFF729F82846FBF7E2F9054A064949
:108CEC00034800F02BF8024807B030BD24E70320FE
:108CFC0028E7032014C90320DD7C0D0038B50B4D8B
:108D0C00296811F001040FD12846FBF7C4F958B1BA
:108D1C0021460748FFF74EFB2846FBF7C1F9054AE9
:108D2C000549034800F00AF8014838BD48E703201C
:108D3C003CE7032014C90320B1830D000B46014608
:108D4C00184600F06FB9FBF7A2B90000024B186887
:108D5C00BFF35F8F704700BF4CE7032010B50028AE
:108D6C0014BF044601242046FEF7E6FB20B9FFF7AA
:108D7C00EDFF08B18047F6E710BDFFF7EFBF08B570
:108D8C00FEF702FC244B1A68D0075CBF01221A6064
:108D9C00224B1A68D1075CBF01221A60204B1A685B
:108DAC00D2075CBF01221A601E4B1A68D0075CBF49
:108DBC0001221A601C4B1A68D1075CBF01221A6091
:108DCC001A4B1A68D2075CBF01221A60184B1A683A
:108DDC00D0075CBF01221A60164B1A68D1075CBF22
:108DEC0001221A60144B1A68D2075CBF01221A6068
:108DFC00124B1A68D0075CBF01221A60104B1A681C
:108E0C00D1075CBF01221A600E4B1A68D2075CBFF7
:108E1C0001221A60704700BF7CE7032078E703202B
:108E2C0074E7032070E703206CE7032068E7032056
:108E3C0064E7032060E703205CE7032058E7032086
:108E4C0054E7032050E70320184B1A68D1075CBF86
:108E5C0001221A60164B1A68D2075CBF01221A60F5
:108E6C00144B1A68D0075CBF01221A60124B1A68A7
:108E7C00D1075CBF01221A60104B1A68D2075CBF85
:108E8C0001221A600E4B1A68D0075CBF01221A60CF
:108E9C000C4B1A68D1075CBF01221A600A4B1A6886
:108EAC00D2075CBF01221A60704700BF9CE7032009
:108EBC0098E7032094E7032090E703208CE7032036
:108ECC0088E7032084E7032080E70320184B1A6807
:108EDC00D1075CBF01221A60164B1A68D2075CBF1F
:108EEC0001221A60144B1A68D0075CBF01221A6069
:108EFC00124B1A68D1075CBF01221A60104B1A681A
:108F0C00D2075CBF01221A600E4B1A68D0075CBFF7
:108F1C0001221A600C4B1A68D1075CBF01221A603F
:108F2C000A4B1A68D2075CBF01221A60704700BF57
:108F3C00BCE70320B8E70320B4E70320B0E7032025
:108F4C00ACE70320A8E70320A4E70320A0E7032055
:108F5C00244B1A68D0075CBF01221A60224B1A6896
:108F6C00D1075CBF01221A60204B1A68D2075CBF84
:108F7C0001221A601E4B1A68D0075CBF01221A60CE
:108F8C001C4B1A68D1075CBF01221A601A4B1A6875
:108F9C00D2075CBF01221A60184B1A68D0075CBF5D
:108FAC0001221A60164B1A68D1075CBF01221A60A5
:108FBC00144B1A68D2075CBF01221A60124B1A6854
:108FCC00D0075CBF01221A60104B1A68D1075CBF36
:108FDC0001221A600E4B1A68D2075CBF01221A607C
:108FEC00704700BFECE70320E8E70320E4E7032029
:108FFC00E0E70320DCE70320D8E70320D4E70320D5
:10900C00D0E70320CCE70320C8E70320C4E7032004
:10901C00C0E703200A22002100F050B90A220021E7
:10902C0000F04CB910B5054C13462CB10A4601465C
:10903C000220AFF3008010BD204610BD00000000E0
:10904C0010B5431E0A44914204D011F8014B03F8A9
:10905C00014FF8E710BD02440346934202D003F8D7
:10906C00011BFAE77047000038B5124B1C68A36B64
:10907C000546D3B91820FEF75FFA43F20E33A0630E
:10908C0003804AF6CD33438041F2342383804EF281
:10909C006D63C3804DF6EC630381052343810B2381
:1090AC00838101220023C0E90423A36B00221D61EC
:1090BC005A6138BD10C9032010B50246134601325F
:1090CC001C78002CFAD1013B11F8012B03F8012F6D
:1090DC00002AF9D110BDC9B2034610F8012B1AB100
:1090EC009142F9D11846704700290CBF1846002050
:1090FC00704710F8012B11F8013B012A28BF9A4246
:10910C00F7D0D01A7047034611F8012B03F8012B46
:10911C00002AF9D170470000024B0146186800F094
:10912C0003B800BF10C9032070B5064608460C46AC
:10913C0000F00DF8451C29463046FEF72DFA064680
:10914C0018B12A462146FFF77BFF304670BD034617
:10915C0013F8012B002AFBD1181A0138704730B5CF
:10916C0082B1451E013915F8013F11F8014FA34298
:10917C0006D1EC431444E04201D0002BF3D11C4641
:10918C00181B30BD104630BD10B5034642B111F866
:10919C00014B03F8014B013A002CF7D11A4400E0C3
:1091AC0010BD934202D003F8014BFAE710BD00004A
:1091BC002DE9F04780464048D0F800900F463D46D8
:1091CC0015F8014B09EB0400407800F0080000F0A2
:1091DC00FF0608B12F46F2E72D2C03D1BD1C7C787D
:1091EC00012603E02B2C04BF7C78BD1C13B1102B83
:1091FC000AD15BE0302C57D1287800F0DF005828DA
:10920C004DD16C7810230235002E14BF4FF0004C5A
:10921C006FF0004C0027BCFBF3FA384603FB1ACC6A
:10922C0009EB040E9EF801E01EF0040F01D0303C57
:10923C000BE01EF0030E1BD0BEF1010F0CBF4FF064
:10924C00370E4FF0570ECEEB0404A34210DDB7F1EE
:10925C00FF3F0AD0504506D801D1644503DC03FB1F
:10926C000040012701E04FF0FF3715F8014BD7E71D
:10927C007B1C0CD1002E4FF0220314BF4FF000408A
:10928C006FF00040C8F800302AB9BDE8F08706B18D
:10929C00404272B107B1691E1160BDE8F0873024FD
:1092AC00002BB1D10823AFE70A23ADE7302CA3D0B4
:1092BC00AAE7BDE8F08700BFACC8032013460A46F6
:1092CC00014602480068FFF773BF00BF10C90320B6
:1092DC001D400D0059400D0085400D0089400D00CA
:1092EC00000000000000000000000000B1420D0072
:1092FC00F5420D004D410D00000000000000000083
:10930C0095410D00B1410D00B3400D00000000006F
:10931C00963007772C610EEEBA51099919C46D0776
:10932C008FF46A7035A563E9A395649E3288DB0ED1
:10933C00A4B8DC791EE9D5E088D9D2972B4CB609B4
:10934C00BD7CB17E072DB8E7911DBF906410B71D91
:10935C00F220B06A4871B9F3DE41BE847DD4DA1ACA
:10936C00EBE4DD6D51B5D4F4C785D38356986C13FB
:10937C00C0A86B647AF962FDECC9658A4F5C011474
:10938C00D96C0663633D0FFAF50D088DC8206E3B52
:10939C005E10694CE44160D5727167A2D1E4033C64
:1093AC0047D4044BFD850DD26BB50AA5FAA8B5358B
:1093BC006C98B242D6C9BBDB40F9BCACE36CD8327A
:1093CC00755CDF45CF0DD6DC593DD1ABAC30D92621
:1093DC003A00DE518051D7C81661D0BFB5F4B42124
:1093EC0023C4B3569995BACF0FA5BDB89EB8022821
:1093FC000888055FB2D90CC624E90BB1877C6F2FA6
:10940C00114C6858AB1D61C13D2D66B69041DC76A0
:10941C000671DB01BC20D2982A10D5EF8985B17179
:10942C001FB5B606A5E4BF9F33D4B8E8A2C9077828
:10943C0034F9000F8EA8099618980EE1BB0D6A7FBF
:10944C002D3D6D08976C6491015C63E6F4516B6B78
:10945C0062616C1CD83065854E0062F2ED95066C2D
:10946C007BA5011BC1F4088257C40FF5C6D9B065A2
:10947C0050E9B712EAB8BE8B7C88B9FCDF1DDD62FF
:10948C00492DDA15F37CD38C654CD4FB5861B24D65
:10949C00CE51B53A7400BCA3E230BBD441A5DF4A2F
:1094AC00D795D83D6DC4D1A4FBF4D6D36AE96943F2
:1094BC00FCD96E34468867ADD0B860DA732D04449D
:1094CC00E51D03335F4C0AAAC97C0DDD3C710550C8
:1094DC00AA41022710100BBE86200CC925B568576F
:1094EC00B3856F2009D466B99FE461CE0EF9DE5EB8
:1094FC0098C9D9292298D0B0B4A8D7C7173DB35969
:10950C00810DB42E3B5CBDB7AD6CBAC02083B8EDF9
:10951C00B6B3BF9A0CE2B6039AD2B1743947D5EA06
:10952C00AF77D29D1526DB048316DC73120B63E335
:10953C00843B64943E6A6D0DA85A6A7A0BCF0EE494
:10954C009DFF099327AE000AB19E077D44930FF04F
:10955C00D2A3088768F2011EFEC206695D5762F746
:10956C00CB67658071366C19E7066B6E761BD4FE83
:10957C00E02BD3895A7ADA10CC4ADD676FDFB9F960
:10958C00F9EFBE8E43BEB717D58EB060E8A3D6D622
:10959C007E93D1A1C4C2D83852F2DF4FF167BBD150
:1095AC006757BCA6DD06B53F4B36B248DA2B0DD853
:1095BC004C1B0AAFF64A0336607A0441C3EF60DFF6
:1095CC0055DF67A8EF8E6E3179BE69468CB361CBDF
:1095DC001A8366BCA0D26F2536E2685295770CCC04
:1095EC0003470BBBB91602222F260555BE3BBAC545
:1095FC00280BBDB2925AB42B046AB35CA7FFD7C236
:10960C0031CFD0B58B9ED92C1DAEDE5BB0C2649B26
:10961C0026F263EC9CA36A750A936D02A906099C59
:10962C003F360EEB8567077213570005824ABF95CC
:10963C00147AB8E2AE2BB17B381BB60C9B8ED2924F
:10964C000DBED5E5B7EFDC7C21DFDB0BD4D2D386A6
:10965C0042E2D4F1F8B3DD686E83DA1FCD16BE8119
:10966C005B26B9F6E177B06F7747B718E65A0888EA
:10967C00706A0FFFCA3B06665C0B0111FF9E658F7B
:10968C0069AE62F8D3FF6B6145CF6C1678E20AA025
:10969C00EED20DD75483044EC2B30339612667A7AB
:1096AC00F71660D04D476949DB776E3E4A6AD1AEFA
:1096BC00DC5AD6D9660BDF40F03BD83753AEBCA989
:1096CC00C59EBBDE7FCFB247E9FFB5301CF2BDBDF6
:1096DC008AC2BACA3093B353A6A3B4240536D0BAFF
:1096EC009306D7CD2957DE54BF67D9232E7A66B39C
:1096FC00B84A61C4021B685D942B6F2A37BE0BB449
:10970C00A18E0CC31BDF055A8DEF022D4552524F13
:10971C0052207C2063616C6C6261636B5F62756666
:10972C006665723A2025732C2063616C6C626163F0
:10973C006B5F636F6D706C6574653A2025730052B6
:10974C004553504F4E5345207C2063616C6C6261D5
:10975C00636B5F6275666665723A2025732C2063B5
:10976C00616C6C6261636B5F636F6D706C6574656B
:10977C003A202563005374616765206C696D6974C8
:10978C0020737769746368206465746563746564B9
:10979C0000537461676520706F736974696F6E2014
:1097AC006174207A65726F00537461676520646917
:1097BC007374616C206C696D697420726561636887
:1097CC006564004865617465722073657420746FFC
:1097DC0020706F7765722025640054656D7065721A
:1097EC00617475726520636F6E74726F6C2073791F
:1097FC007374656D20737461727465640054656D67
:10980C00706572617475726520636F6E74726F6CC3
:10981C002073797374656D2073746F707065640058
:10982C0054656D70657261747572653A2025642E8D
:10983C002564CB9A432C2025642E2564CB9A4600B4
:10984C00726177203D2025642C2054203D20256416
:10985C002E2564CB9A432C20746172676574203D6D
:10986C002025642E25642C206474203D2025642C36
:10987C00206572726F72203D2025642C20696E74F5
:10988C00656772616C203D2025642C2064657269CB
:10989C00766174697665203D2025642C206F757483
:1098AC00707574203D20256400627265766974655C
:1098BC0073742D70726F64756374696F6E0050757C
:1098CC00626C6973683A206576656E74203D20255C
:1098DC00732C2075756964203D2025730056616CCE
:1098EC0069646174696E672063617274726964671C
:1098FC00650076616C69646174652D636172747264
:10990C00696467650056616C69646174696F6E2087
:10991C006661696C6564202D206E6F7420636F6EB8
:10992C006E656374656420746F2074686520636C65
:10993C006F756400256325632558256325582563B9
:10994C00255825632558256300252E32347325634D
:10995C00256325630025732C2025642070657263B4
:10996C00656E7420636F6D706C6574652C20746506
:10997C006D70203D2025642E256400537461727433
:10998C00696E67206F70746963616C204932432083
:10999C00627573207363616E00493243206465768F
:1099AC0069636520666F756E642061742061646400
:1099BC007265737320255800535543434553530028
:1099CC00546573742066696E6973686564005465C8
:1099DC0073742066696E697368206661696C65646E
:1099EC002100546573742063616E63656C6C6564EF
:1099FC0000546573742063616E63656C20666169E5
:109A0C006C65642100746573742D63616E63656CA1
:109A1C00005465737420636F6D706C6574656400BD
:109A2C005465737420636F6D706C65746500746538
:109A3C0073742D66696E69736800726567697374F7
:109A4C0065720072756E5F74657374002F686F6F4A
:109A5C006B2D726573706F6E73652F6272657669AC
:109A6C00746573742D70726F64756374696F6E2F87
:109A7C00002F686F6F6B2D6572726F722F6272653B
:109A8C007669746573742D70726F64756374696F25
:109A9C006E2F0072656769737465722D64657669E3
:109AAC006365005475726E696E67206F6E20627507
:109ABC007A7A657220666F72206475726174696F50
:109ACC006E202564206174206672657175656E6305
