:02000002D0002C
:1040000000400D00ECAA0D00000006000C000501A8
:084010000401DE0500000000C0
:04401800C0940D0043
:10401C0009480A49884208B505D0094A824202D0AB
:10402C00121A05F0FFF80748074A0021121A05F08A
:10403C0004F9014808BD00BF70C8032014AA0D0084
:10404C001CC903201CC90320F0E7032070B504F041
:10405C00F7FD074C074BE41AA40800251E46A542A1
:10406C0004D056F8253098470135F8E770BD00BFED
:10407C0008AA0D00D0A90D0001F050B808B502F047
:10408C009FFEBDE8084004F09DBD03F011BB03F09A
:10409C0017BB03F015BB0078B0FA80F040097047ED
:1040AC000123037070477047014B01221A7070474F
:1040BC001CCB0320034B044A1B7883F001031360D1
:1040CC00704700BF84C90320F8CA0320014B0122AA
:1040DC001A707047AED9032003681847012A02D022
:1040EC00022A02D004E0016002E00B6800B1036018
:1040FC000020704737B50C460E480F4D05F0CEF832
:10410C00204605F016F9204410F8013CA3F12302D7
:10411C00534253412B7004F0D3FC2B78074A002BED
:10412C0014BF59234E2300930121024B04F0A7F92D
:10413C0003B030BDFCD9032050D30320FC980D00F4
:10414C00436913B183690C301847704710B5054BA0
:10415C0000220446114640F8043B03F0A3F9204624
:10416C0010BD00BFF0940D0010B50446FFF7EEFF34
:10417C002046202104F0D9FE204610BD13B50021A5
:10418C000446084602F07EFF02A90023204641F8AF
:10419C00043D02F08FFF019C0CB10123237100211F
:1041AC00012002F06FFF2CB1236820469B689847D2
:1041BC000023237102B010BD37B50C460E480F4DCD
:1041CC0005F06CF8204605F0B4F8204410F8013CDA
:1041DC00A3F12302534253412B7004F071FC2B7852
:1041EC00074A002B14BF59234E2300930121024B85
:1041FC0004F045F903B030BDFCD9032050D30320A3
:10420C0032990D0010B58368044613B103220146A0
:10421C009847204610BD000008B502F08BFF034BF9
:10422C001860BDE8084003F0ABB900BF18E70320E5
:10423C000368C9B29B681847F0B500258E4615492E
:10424C000571856045610160044692E8030085B004
:10425C0002AF04F10C0687E8030096E8030082E83D
:10426C00030097E8030086E803009168606990609A
:10427C006161D168A069D060A1618DE82800064A0F
:10428C002346714604F1080002F004FF204605B0F5
:10429C00F0BD00BFDC940D0089410D0007B58068AE
:1042AC00002340B18DE80A001A46022102F00AFFF1
:1042BC00B0FA80F0400903B05DF804FB38B50F4B41
:1042CC000360836804469BB16FF00041FFF7E6FF83
:1042DC000021A06802F00EFF237903F0FF0513B153
:1042EC0002F0B8FEF8E72946A06802F0DBFEA560F4
:1042FC0004F10C00FFF786FF204638BDDC940D005E
:10430C0010B50446FFF7DAFF20461C2104F00DFE21
:10431C00204610BD73B506460D4611461446FFF7F0
:10432C00BDFFB068002340B10193009522461946A9
:10433C0002F0C8FEB0FA80F0400902B070BD000077
:10434C0040F67263984270B51CDC0F4A002352F899
:10435C00044BA04203F101050FDC116888420CDD0F
:10436C000A4E56F8232056F825309D1A031B6B4332
:10437C00081B93FBF0F0104470BD142D2B46E6D1B6
:10438C00002070BD184670BD80A50D002CA50D0039
:10439C001FB50C2AA8BF0C22014401A8144604F036
:1043AC00E5FF04AB1C4401A8002304F80C3C04F00A
:1043BC0023FF04B010BD30B5002385B00C68055D3B
:1043CC00954208BF002504F101040DF803500C6060
:1043DC0002D001330E2BF1D1684604F00DFF05B06D
:1043EC0030BD000010B5084C01444FF0FF3288423C
:1043FC0008D010F8013B5340DBB254F8233083EA69
:10440C001222F4E7D04310BDFC940D00021E30B50F
:10441C0016DB9110022329B1914203D0023342FAE8
:10442C0003F1F8E7023B00204000411C42FA03F480
:10443C0001FB01F5A542D8BF0846023BF4D530BDBF
:10444C004FF0FF3030BD000008B504F0F5FC4FF420
:10445C00697203490020BDE8084002F083BE00BF2A
:10446C0074D3032008B504F0E7FC4FF469720349D8
:10447C000020BDE8084002F07DBE00BF74D30320CD
:10448C0008B504F0D9FCBDE8084002F07BBE000082
:10449C0008B5FFF7F5FF044B0B221A700D225A706A
:1044AC00FF229A7008BD00BF74D3032007B504F037
:1044BC00C3FC01220DF10701002002F053FE9DF810
:1044CC000730FF2B02D1FFF7E3FF07E0FFF7BCFF3C
:1044DC00044B1A8840F60B539A42F4D103B05DF8A2
:1044EC0004FB00BF74D30320012870B50E461D4D8C
:1044FC001BD11D4B188804F033FC044640B904F062
:10450C00DFFA1A4903F091FF194B2C601C6016E07E
:10451C002B68002B15DC04F0D3FA164903F085FF49
:10452C00134B00202860186070BD2A684AF22703DC
:10453C009A4206DD04F0C4FA0F4903F076FF00201E
:10454C0070BD0E4C0121208804F0F1FB304602F0C6
:10455C00E9FD0021208804F0EAFB304602F0E2FD80
:10456C00012070BDB0D90320A4C8032065990D00AB
:10457C00FCCA032081990D0098990D00A0C8032056
:10458C002DE9F84F1C4BDFF87890C70F044688468E
:10459C001888394604F0CBFB184B84EAE4711A688E
:1045AC00A1EBE47111441922002C91FBF2F64FF0AF
:1045BC00000402FB16121A60B4BF6FF0180A4FF019
:1045CC00190A1D46A346B44213DA41463846FFF792
:1045DC008BFF58B1D9F800305344002B02DDC9F8D9
:1045EC00003004E0C9F800B0C5F800B0344601341E
:1045FC00E9E7BDE8F88F00BF78C80320FCCA0320A8
:10460C00B0D90320024B0021188804F090BB00BFE6
:10461C0098C8032008B5054B0121188804F087FBC6
:10462C000A20BDE8084003F07BB800BF98C80320FF
:10463C0038B504460D46FFF7EDFF29462046FFF737
:10464C009FFFBDE83840FFF7DDBF0000134B10B5EE
:10465C004AF228021A600446FFF7DCFF9621104844
:10466C00FFF78EFF642003F05BF896214FF4FA609D
:10467C00FFF786FF642003F053F84FF47A71094872
:10468C00FFF77EFF4FF47A7142F63020FFF778FF88
:10469C001CB1BDE81040FFF7B5BF10BDB0D9032069
:1046AC00A015FFFF48F4FFFF2DE9F04106460D462B
:1046BC00904600244742444509DA29463046FFF724
:1046CC005FFF29463846FFF75BFF0134F3E7BDE88F
:1046DC00F08100002DE9F74F1E4D009392462B6898
:1046EC001D4F80EAE072A2EBE0721A4419230028F5
:1046FC0092FBF3F64FF0000403FB16232B60894664
:10470C004FEAD078B4BF6FF0180B4FF0190B23465B
:10471C00B44201931ADA0C9A00995046FFF7C4FF81
:10472C000E4B4146188804F002FB49464046FFF701
:10473C00DBFE019B38B13A685A44002A01DD3A602D
:10474C0002E03B602B6034460134E1E703B0BDE886
:10475C00F08F00BFFCCA0320B0D9032078C8032017
:10476C0038B5064C80F3080544F6206229462088AB
:10477C0004F046FB0123E560237238BD20C90320F9
:10478C0010B5044C0021208804F014FB0023237284
:10479C00E36010BD20C90320024B0146188804F0C9
:1047AC0009BB00BF70C80320024B0146188804F0F7
:1047BC0001BB00BF7CC80320024B0146188804F0E3
:1047CC00F9BA00BF84C803200346412B084601D127
:1047DC00FFF7E2BF312B01D1FFF7E6BF322B01D13E
:1047EC00FFF7EABF70470000024B0021188804F065
:1047FC00E1BA00BF70C80320024B0021188804F0F6
:10480C00D9BA00BF7CC80320024B0021188804F0E1
:10481C00D1BA00BF84C80320412801D1FFF7E4BFFF
:10482C00312801D1FFF7E8BF322801D1FFF7ECBFE7
:10483C00704710B504460846FFF7AEFF204602F05D
:10484C006FFFBDE81040FFF7CFBF10B50446084618
:10485C00FFF7AAFF204602F063FFBDE81040FFF708
:10486C00CBBF10B504460846FFF7A6FF204602F062
:10487C0057FFBDE81040FFF7C7BF38B50C460546DB
:10488C000846FFF789FF2046FFF78EFF2046FFF70B
:10489C0093FF284602F044FFFFF7A6FFFFF7ACFF9B
:1048AC00BDE83840FFF7B0BF08B504F0F3FA03F0E9
:1048BC0056FB88B904F0EEFA084903F003FB04F048
:1048CC00E9FA03F003FB642002F02AFF04F0E2FA99
:1048DC00BDE8084003F043BB08BD00BFA086010043
:1048EC0008B504F0D7FABDE8084003F0F5BA0000AB
:1048FC0008B5074B074800226FF00041DA61FFF75B
:10490C0009FD04F0DDF80449BDE8084003F08DBD55
:10491C0020C9032000CB0320B3990D00F0B5054648
:10492C0095B00E4601682B4804F0DFFC2A4A2B494F
:10493C00002313702A4A04A8137003F04FFE294673
:10494C000CA8049C03F089FE7C2108A803F0A9FEA6
:10495C0008A90CA803F0CDFE3146074610A803F0B9
:10496C003DFE10A9384603F0C4FE1E4B02681978B0
:10497C001D4B1B780B438DF8003021463C2302A8BD
:10498C0003F0A2F8039C7CB16368013B63605BB9E4
:10499C00236820469B689847A368013BA3601BB91A
:1049AC0023682046DB68984710A803F0D0FD08A8C0
:1049BC0003F0CDFD0CA803F0CAFD04A803F0C7FD5D
:1049CC0004F07EF800962B68084A012103F057FD8D
:1049DC0015B0F0BD8CD9032050D30320D6990D000F
:1049EC00FCD90320A8C90320E0C90320EB990D00D2
:1049FC007FB504F065F81449144E154D03F015FD00
:104A0C0002F0D6FD0446B0B10123337002F092FBE4
:104A1C00104B114900F51C501030186000236846EB
:104A2C002B7003F0DBFD68460C49FFF777FF6846F7
:104A3C0003F08DFD06E004F043F8094903F0F5FCA2
:104A4C0034702C7004B070BD0A9A0D00BDC90320DF
:104A5C0038D30320F8D903201F9A0D00B8D90320AE
:104A6C00329A0D00F8B50C4F06460024251D3D4426
:104A7C0029461822304604F064FC014638B9284611
:104A8C00E82204F0DAFBBDE8F840FFF7EBBCE834B1
:104A9C00B4F5687FEAD1F8BD74D30320F0B50024D7
:104AAC00084F4454851A1446A01A884204F1010098
:104ABC0007DAE65D9E4208BF00262E5501D004465B
:104ACC00F2E7F0BDFCD9032038B5074C0749E822C2
:104ADC00054602FB0040043004F0A4FBA570BDE8C1
:104AEC003840FFF7BFBC00BF74D3032008CA0320B3
:104AFC0010B58AB03A230A780993CB8908932C23F2
:104B0C0007938C89069405934C89049403930C8920
:104B1C0002940193044C496800912044034902F02B
:104B2C00DFFD0AB010BD00BF18D70320619A0D003D
:104B3C002DE9FF41154EE825454372197C2303935B
:104B4C00516A02910193116A009104321049114883
:104B5C0002F0C6FD0024074605F12C086319334406
:104B6C0093F82C30412B02D0313B012B06D808EBAB
:104B7C00040138463144FFF7BBFF07441034C02C06
:104B8C00ECD1012004B0BDE8F08100BF74D3032048
:104B9C007F9A0D0018D7032010B5084B9C78FF2C7A
:104BAC001ABF013404F0030400242046FFF78CFFE5
:104BBC002046BDE81040FFF7BBBF00BF74D30320F5
:104BCC0070B5164B1B780E4633BB154B1A18927CDE
:104BDC007C2A21D03A2A1CD00446B4F5FA6F1ADA92
:104BEC001A19927C3A2A06D1221A01460D48FFF76F
:104BFC00CFFB30600FE02C2A04F1010507D1221AFB
:104C0C0001460848FFF7C4FB3060284670BD2C46AF
:104C1C00E3E7013070BD204670BD00BFADD9032065
:104C2C0050CB032062CB032070B50029054688B019
:104C3C001D481E4C01D1016018E01D4BDA684FF481
:104C4C007A7303FB02F204DA4FF0FF330260236045
:104C5C000DE00368194464230160594391FBF2F1A0
:104C6C009942A8BF19462368994200D0216003F0ED
:104C7C0027FF2946064604A803F0EFFC0D4B196AE2
:104C8C000A2391FBF3F203FB1213029323680192A4
:104C9C000093094A04AB0121304603F0F0FB04A851
:104CAC0003F055FC08B070BDE4C903203CD30320CD
:104CBC0050CB032020C90320919A0D00F0B5164665
:104CCC004A1C85B007460D4602D133600C4621E0E4
:104CDC000A462C2103F043FD431C04460CD12A4602
:104CEC003946684603F06AFD684603F06EFD306095
:104CFC00684603F02CFC0DE003462A46394668460C
:104D0C0003F03CFD684603F060FD3060684603F03C
:104D1C001EFC0134204605B0F0BD0000134A1449B6
:104D2C0008B500231370134A0B701370124A0B72E0
:104D3C001370124A1370124A1370124A1360124AFB
:104D4C001360124A13701376114A1370137682F89B
:104D5C002430104A137082F86E3202F0EBF90E4BCD
:104D6C0000F56A406030186008BD00BF87C9032099
:104D7C0050CB032085C9032038D3032050D3032004
:104D8C0084C90320E4C903203CD30320B8D90320F1
:104D9C0008CA032018D70320E8C9032010B507223E
:104DAC000D490E4804F0CDFA044670B903F088FEA4
:104DBC000B4903F03AFB0B4B01201C70FFF746FC30
:104DCC00FFF7ACFF084B1C6010BD03F079FE0749E0
:104DDC00BDE8104003F029BBB79A0D00EDC90320C4
:104DEC00BF9A0D004CCB0320E8C90320CD9A0D00CF
:104DFC0010B507220D490E4804F0A3FA044670B909
:104E0C0003F05EFE0B4903F010FB0B4B01201C70F2
:104E1C00FFF71CFCFFF782FF084B1C6010BD03F072
:104E2C004FFE0749BDE8104003F0FFBAB79A0D00DA
:104E3C00EDC90320E19A0D00F4CA0320E8C9032050
:104E4C00F09A0D001FB5154C03F03AFE214603F005
:104E5C00ECFA134B01221A7002F06CF9114B00F5AD
:104E6C001C50103018602146684603F0B7FB4FF019
:104E7C00FF316846FFF7D8FE684603F068FB0A4925
:104E8C00684603F0ABFB09496846FFF747FD6846E7
:104E9C0003F05DFBFFF7B6FB04B010BDE19A0D000B
:104EAC00F4CA032080C90320049B0D0008CA032008
:104EBC001FB503F005FE144903F0B7FA134B01229A
:104ECC001A7002F037F9124B124900F51C501030D1
:104EDC001860684603F082FB4FF0FF316846FFF71D
:104EEC00A3FE684603F033FB0B49684603F076FBE0
:104EFC000A496846FFF712FD684603F028FBFFF7E6
:104F0C0081FB05B05DF804FB109B0D004CCB03201E
:104F1C0000CA03201F9B0D002D9B0D0008CA032007
:104F2C0070B50E460446154603F0F0FE012E05D171
:104F3C0029462046BDE8704003F03CBF70BD70B5FB
:104F4C000E460446154603F0E1FE012E05D1294616
:104F5C002046BDE8704003F0EABE70BD30B50023BA
:104F6C008BB0042253495448544D02F0F9FA544A78
:104F7C005449554802F088FC06A802F021FB06A90A
:104F8C00284603F075FB06A803F0E1FA294602A8AF
:104F9C0003F063FB4D4902A803F0B7FB0024014664
:104FAC0006A803F05AFB2346224649490194009473
:104FBC00069802F015FB06A803F0C9FA02A803F044
:104FCC00C6FA294602A803F048FB424902A803F09E
:104FDC009CFB014606A803F040FB224623463E49B3
:104FEC0001940094069802F0FBFA06A803F0AFFABD
:104FFC0002A803F0ACFA394B0221188803F086FEA4
:10500C00374B0221188803F081FE364B01221146E2
:10501C001888FFF794FF344B2146188803F076FE6E
:10502C00324B224618880121FFF77AFF304B22467B
:10503C0018880121FFF774FF2E4B22461888012196
:10504C00FFF76EFF2C4B2146188803F05FFE2B4BAD
:10505C002146188803F05AFE294B2146188803F084
:10506C0055FE284B224618880121FFF768FF264B76
:10507C00224618880121FFF762FF244B224618882C
:10508C000121FFF75CFF224B802218880121FFF7DA
:10509C0047FF204B224618880121FFF741FF1E4B8A
:1050AC00224601211888FFF73BFFFFF7FFF90BB0F1
:1050BC0030BD00BF18D70320399B0D0040D303200F
:1050CC00429B0D0049690D0069780D004B9B0D004A
:1050DC0001410D00709B0D00C5410D00A4C80320BB
:1050EC0088C80320A8C80320ACC8032070C80320BC
:1050FC007CC8032084C8032094C803209CC80320C8
:10510C008CC8032098C80320A0C8032078C80320AB
:10511C0080C8032090C8032074C8032008B5FFF78B
:10512C001DFF03F0CDFC4FF4E13103F0BDFC034B4C
:10513C0001221A70024B00221A6008BDECC9032030
:10514C00F0CA032030B5144B144D1A7885B01C46A8
:10515C0022B101F0EFFF2B6883421AD201F0EAFF73
:10516C0000F5EA403030286041F2883002F0D8FA7D
:10517C0002F01EFA68B1012309492370684603F056
:10518C002DFA084B68461968FFF7C8FB684603F010
:10519C00DEF905B030BD00BF86C90320F0CA03207C
:1051AC00929B0D0040D3032007B5009313460A468B
:1051BC00012103F064F903B05DF804FB38B50A4B28
:1051CC001B7804460D4633B103F07AFC2B4622467D
:1051DC000649FFF7E9FF064B2A4621461878BDE839
:1051EC00384003F069BB00BF4DCB0320A29B0D00E0
:1051FC0090C8032008B5FA214FF48370FFF7DEFF47
:10520C00322002F08DFAFA214FF49370FFF7D6FF9B
:10521C00322002F085FAFA214FF4A570FFF7CEFF89
:10522C00322002F07DFAFA2140F25D10FFF7C6FF42
:10523C00322002F075FAFA214FF4C470FFF7BEFF6A
:10524C00322002F06DFAFA214FF4DC70FFF7B6FF52
:10525C00322002F065FAFA214FF4F770FFF7AEFF37
:10526C00322002F05DFAFA2140F20B20BDE8084032
:10527C00FFF7A4BF73B5044603F00CFE214602F001
:10528C0060FE03F007FE0021FEF7D2FF064603F096
:10529C0001FE002102F05CFE054630B103F010FC6B
:1052AC002B4632461549FFF77FFF03F0F3FD2146ED
:1052BC00042202F043FE03F0EDFD03685B6998479E
:1052CC00044603F0E7FD03685B6998470C4B1B78B9
:1052DC00054643B103F0F4FBE3B20093094AEBB289
:1052EC00012103F0CCF86A0704D4E0B2C31E584283
:1052FC00584100E0002002B070BD00BFD49B0D00EF
:10530C004DCB0320F59B0D007FB5124B1C680D4651
:10531C00041B06461049684603F060F984EAE473FE
:10532C00A3EBE4736B43684646F2A81193FBF1F1CF
:10533C00FFF77AFC684603F00AF903F0C1FB234639
:10534C0032460649FFF730FF29462046FFF718F989
:10535C0004B070BDB0D903200B9C0D00269C0D0031
:10536C00962144F25060FFF7CFBF962142F63020D1
:10537C00FFF7CABF13460A46012103F080B80000AC
:10538C0070B5044601F0D6FE0E4D84F308040646B3
:10539C0044F620622146288803F032FD002C14BF0D
:1053AC0001230023EC602B7208D0074B1B782BB128
:1053BC0003F086FB22460549FFF7DCFF01F0BAFE3D
:1053CC00801B70BD20C903204DCB0320519C0D00C8
:1053DC0008B56FF000410648FEF760FF0020FFF7AC
:1053EC00CFFF03F06DFB0349BDE8084003F01DB887
:1053FC0000CB0320689C0D0038B5114C002120888F
:10540C0003F0D8FCA08803F0BEFCE16805462088B8
:10541C0003F0D0FC1DB9FFF7DBFF00250EE028469A
:10542C00FEF78EFF052200EBC003B0F5167F93FB51
:10543C00F2F303F5A0732062A362ECDC284638BDBE
:10544C0020C903202DE9F0432F4E8BB0F56801F0F5
:10545C0071FEF769C7EB0009B9F57A7F80463446CF
:10546C004ED3FFF7C9FFC6F81C808046002847D0F2
:10547C0017B97761B76143E0336A776AB569E26A55
:10548C00FF1A4FF47A7107FB09F393FBF1F31D44F8
:10549C00B5617669636BBE1B6B434E437A43216BDC
:1054AC00A56B92FBF1F193FBF5F56A18E56B236C98
:1054BC0096FBF9F6754395FBF3F5144B1B781544E5
:1054CC00EBB103F0FDFAD4F820E0636A0895079677
:1054DC00A16906910A2293FBF2F102FB11330393AB
:1054EC009EFBF2F302FB13E20291019200930597EB
:1054FC00CDF810904346064A012102F0C0FF6761C7
:10550C0028460BB0BDE8F08320C903204DCB032007
:10551C00AB9C0D0010B501F00DFE0446FFF792FF99
:10552C00FFF72EFFFEF778FE01F004FE001B10BD06
:10553C0010B50446FFF7EEFFA04204DA201ABDE8CE
:10554C00104002F0EDB810BD10B50120FFF7ACF91A
:10555C0018B9BDE81040FFF7C3B903F0B1FA0E4912
:10556C0002F063FF002403F095FC214602F0EDFCF1
:10557C0003F090FC0021FEF75BFE03F08BFC02F0C5
:10558C00EBFC28B903F09CFA22460449FFF7F2FE23
:10559C0001347F2CE7D1DCE7149D0D00329D0D000A
:1055AC0013460A46012102F06ABF00002DE9F347B9
:1055BC00444C23780646884615462BB103F080FAF6
:1055CC0032464149FFF7ECFF03F064FC294602F038
:1055DC00BCFC03F05FFC0021FEF72AFE824603F0C0
:1055EC0059FC0221FEF724FE074603F053FC01216F
:1055FC0002F0AEFC814650B1574403F061FACDF88D
:10560C00049000973346314A012102F038FF03F031
:10561C0041FC294602F099FC03F03CFC0621FEF704
:10562C0007FE824603F036FC03685FFA88F19B683C
:10563C009847074603F02EFC012102F089FC8146B5
:10564C0050B1574403F03CFACDF804900097334620
:10565C001E4A012102F013FF03F01CFC294602F044
:10566C0074FC03F017FC0621FEF7E2FD074603F07D
:10567C0011FC002102F06CFC064630B103F020FA5C
:10568C0033463A461249FFF78FFD03F003FCE9B2AB
:10569C00012202F053FC054603F0FCFB03685B6936
:1056AC009847237806464BB103F00AFA0196CDF8D9
:1056BC0000802B46074A012102F0E1FE02B0BDE852
:1056CC00F08700BF4DCB0320519D0D006F9D0D0049
:1056DC00D49B0D00969D0D002DE9F341534D544E76
:1056EC00544F01232B7003F0EBF9534902F09DFE4C
:1056FC0003F05EF94FF4165103F050F903F0E0F9A2
:10570C004E4902F092FE0021308803F010FB01F0AC
:10571C0011FD00F59C5403F0D3F9494902F085FEC4
:10572C000834388803F01CFB804603F0C9F92E219D
:10573C0002F06CFEFEF770FDC82001F0F1FFB8F12D
:10574C00010F03D001F0F6FCA042EAD303F0B8F944
:10575C00074603F02DF903681B699847002814BF0E
:10576C0059224E2237493846FFF71AFF012130885B
:10577C0003F0DDFA03F0A4F9334902F056FE03F00E
:10578C0017F903681B69984730B901F0D3FC8442C0
:10579C0002D9FEF741FDF2E7642001F0C1FF03F0EE
:1057AC008FF92A492A4E02F040FE002403F088F9B2
:1057BC002E2102F02BFE03F0FBF803685B6998477F
:1057CC00431C1CBF3055013403F0F2F803681B690D
:1057DC00984708B1172CE9DD03F072F902F019FEB5
:1057EC00172C1B4A09DC1B4B114603F1180053F80C
:1057FC00046B41F8046B8342F9D10026167603F052
:10580C005FF9134B144A0094012102F038FE03F0A7
:10581C00CFF803F0C6F803F053F9104902F005FE77
:10582C0020462E7002B0BDE8F08100BF1DCB0320D6
:10583C00A8C80320ACC80320B99D0D00CC9D0D0059
:10584C00E39D0D00F49D0D001D9E0D007B9E0D0033
:10585C00B8D90320339E0D004C9E0D00649E0D00A4
:10586C0070B590B00025014606460CA80795089522
:10587C0009950A950B9502F0F0FE2B4606AA2946CF
:10588C000CA8FFF71BFA04460CA802F060FE069B5E
:10589C00023B202B00F28F82DFE813F02100250061
:1058AC0054008D027F0084009F00A400C600E70016
:1058BC0009012A014C016F0174018E019301A401AD
:1058CC00A701AA01AD01B1018D028D028D02B401B7
:1058DC00CC01FF0106028D028D020A023A02012060
:1058EC00FEF7B4FE64E231460CA802F0B6FE0023CB
:1058FC0007AA21460CA8FFF7E1F904460CA802F010
:10590C0026FE31460CA802F0A8FE4FF47A7308AAC2
:10591C0021460CA8FFF7D2F90CA802F018FE089942
:10592C000798BA4CFEF784FE03F0CAF8B84BB94A94
:10593C001B680193236800930121079B02F09FFDD4
:10594C00246839E2FEF766FEFFF70AFDFEF75AFE01
:10595C0031460CA802F081FEB62307AA21460CA8FA
:10596C00FFF7ACF904460CA802F0F1FD31460CA887
:10597C0002F073FEFF2308AA21460CA8FFF79EF93C
:10598C000CA802F0E4FDA44B079C1C60A34B089AE6
:10599C001A60A34B01221A700EE2FEF771FD02F0A1
:1059AC002DFF7FE131460CA802F057FE07AA2146D5
:1059BC004FF4B9730CA8FFF781F90CA802F0C7FDDE
:1059CC0003F07EF8974B196A0A2391FBF3F203FB61
:1059DC0012139549FFF7E8FB24E0FEF759FD934BB2
:1059EC005C78E9E131460CA802F037FE4FF4FA730B
:1059FC0007AA21460CA8FFF761F904460CA802F08F
:105A0C00A6FD31460CA802F028FE2146FF2308AA69
:105A1C000CA8FFF753F90CA802F099FD0899079808
:105A2C00FEF707FF079CC7E131460CA802F015FEF4
:105A3C0007AA4FF4FA7321460CA8FFF73FF9044666
:105A4C000CA802F084FD31460CA802F006FE21469B
:105A5C00FF2308AA0CA8FFF731F90CA802F077FD78
:105A6C0008990798FEF7F1FE1FE031460CA802F0EA
:105A7C00F4FD4FF4FA7307AA21460CA8FFF71EF9A0
:105A8C0004460CA802F063FD31460CA802F0E5FDBB
:105A9C002146FF2308AA0CA8FFF710F90CA802F066
:105AAC0056FD08990798FEF7DCFE089C84E1314608
:105ABC000CA802F0D2FD07AA4FF4FA7321460CA8E9
:105ACC00FFF7FCF804460CA802F041FD31460CA887
:105ADC0002F0C3FD2146FF2308AA0CA8FFF7EEF83D
:105AEC000CA802F034FD08990798FEF7C6FEDCE717
:105AFC0031460CA802F0B1FD07AA4FF416732146EB
:105B0C000CA8FFF7DBF804460CA802F020FD314688
:105B1C000CA802F0A2FD21464FF47A7308AA0CA837
:105B2C00FFF7CCF80CA802F012FD08990798FFF7C4
:105B3C0045FB77E731460CA802F08FFD07AA00233E
:105B4C0021460CA8FFF7BAF804460CA802F0FFFC9B
:105B5C0031460CA802F081FD21464FF47A7308AA55
:105B6C000CA8FFF7ABF80CA802F0F1FCFEF752FD05
:105B7C0008990798FFF7C8FB18E1FEF74BFDFFF7F4
:105B8C00F4FB13E131460CA802F067FD4FF4B97336
:105B9C0007AA21460CA8FFF791F80CA802F0D7FC35
:105BAC00079C40F25623621E9A4200F205811D4B5F
:105BBC0000225C62DA61FFE0FEF72CFDFFF7D0FB00
:105BCC00F4E031460CA802F048FD802307AA2146D8
:105BDC000CA8FFF773F80CA802F0B9FC0798FEF7B5
:105BEC00BFFD1FE7FEF7CCFD5CE0FEF781FE59E040
:105BFC00FFF7EEFB56E00E4B01241C70DCE00C4B67
:105C0C001D70D8E0FFF7A0FC4CE000BFB0D903201A
:105C1C00FCCA0320989E0D0088D9032034D303209E
:105C2C001CCB032020C90320C79E0D0074D3032076
:105C3C004DCB0320FEF7EEFCFFF792FBFEF7E2FCE8
:105C4C0031460CA802F009FD07AAB62321460CA880
:105C5C00FFF734F804460CA802F079FC31460CA886
:105C6C0002F0FBFC08AA2146FF230CA8FFF726F83C
:105C7C000CA802F06CFC5B4B07995B4800221A7075
:105C8C005A4B19605A4B089919605A4B01246FF002
:105C9C0000411C70FEF73EFB8EE06FF00041524855
:105CAC00FEF7FCFA012487E0FFF716FD044683E0BB
:105CBC0031460CA802F0D1FC07AA192321460CA8E6
:105CCC00FEF7FCFF04460CA802F041FC31460CA880
:105CDC0002F0C3FC08AA962321460CA8FEF7EEFF9F
:105CEC0004460CA802F033FC31460CA802F0B5FCBB
:105CFC0009AA21460A230CA8FEF7E0FF0CA802F023
:105D0C0026FCFEF787FC07A807C8FEF7CDFC4DE084
:105D1C0031460CA802F0A1FC002307AA21460CA8CE
:105D2C00FEF7CCFF04460CA802F011FC31460CA87F
:105D3C0002F093FC4FF47A7308AA21460CA8FEF7E4
:105D4C00BDFF04460CA802F002FC31460CA802F080
:105D5C0084FC192309AA21460CA8FEF7AFFF0446C0
:105D6C000CA802F0F4FB31460CA802F076FC96234A
:105D7C000AAA21460CA8FEF7A1FF04460CA802F0C3
:105D8C00E6FB31460CA802F068FC02230BAA214664
:105D9C000CA8FEF793FF0CA802F0D9FBFEF73AFC17
:105DAC000B9B009307A80FC8FEF794FCFEF72AFC88
:105DBC00114B1C6800E0002402F082FE0B9B059343
:105DCC000A9B0493099B0393089B0293079B0193E3
:105DDC000094069B094A012102F051FB204610B0A9
:105DEC0070BD00BF4DCB032064C9032088D90320AC
:105DFC0034D303201CCB0320B0D90320DC9E0D0030
:105E0C0010B51B4B188802F0ABFF1A4B00280CBFC7
:105E1C00012200221A701C4609D14FF4AF714FF4C5
:105E2C001670FFF7CBF9144B01221A7014E0C8213D
:105E3C004FF49670FFF7C2F9C82001F071FCC8212D
:105E4C004FF49670FFF7BAF9C82001F069FCC8212D
:105E5C004FF49670FFF7B2F902F032FE237807493F
:105E6C00002B14BF59224E22FFF79AFB10BD00BF26
:105E7C0088C8032051D30320BCC90320269F0D00E2
:105E8C0010B51B4B1A7892B11A4C227852B10022E1
:105E9C0022701A7002F014FE174902F0C6FAFFF7CE
:105EAC00AFFF04E0322001F03BFC01232370134BC5
:105EBC001C785CB101F03EF9114B1B68984216D965
:105ECC0002F0FEFD0F4902F0B0FA0AE00E4B1A7810
:105EDC006AB11C700D4B1B784BB1FFF7FDFB1828FA
:105EEC0003D1BDE81040FEF783BD094B1C7010BDFB
:105EFC00AED90320E1C903203B9F0D00BDC903208F
:105F0C00F8D90320539F0D00BCC9032051D30320A3
:105F1C0038D3032013460A46002102F0B0BA000021
:105F2C002DE9F3470546174698460E4602F0B2FF98
:105F3C00294602F006F802F0ADFF0021FEF778F9D1
:105F4C00824602F0A7FF8321FEF772F9044602F0A5
:105F5C00A1FF012101F0FCFF814660B1544402F025
:105F6C00AFFDCDF8049000942B46754A012102F048
:105F7C0086FA0020E0E001F0DDF800F59C5909F10B
:105F8C0008092846FFF776F970B901F0D3F84845AF
:105F9C0003D2642001F0C4FBF3E702F091FD2A4622
:105FAC006849FFF7FDFAE4E7674C23782BB102F060
:105FBC0087FD2A466549FFF7F3FA02F06BFF294685
:105FCC0001F0BFFF02F066FF0021FEF731F98246B7
:105FDC0002F060FF002101F0BBFF814630B102F0FE
:105FEC006FFD4B4652465A49FFF7DEF802F052FF5E
:105FFC0029460A2201F0A2FF02F04CFF03685B69FC
:10600C009847054602F046FF03685B69984723787A
:10601C0081464BB1EDB202F053FD00955FFA89F366
:10602C004C4A012102F02BFA02F034FF03685B6941
:10603C0098472378C5B22BB102F042FD2A46464957
:10604C00FFF768FF02F026FF03685B699847237827
:10605C00814633B102F034FD5FFA89F23E49FFF715
:10606C0059FF4FEA092909F47F4914234D4495FB44
:10607C00F3F50A9B433D1D8002F00CFF03685B693E
:10608C0098472378C5B22BB102F01AFD2A46324943
:10609C00FFF740FF02F0FEFE03685B699847237828
:1060AC005FFA80F92BB102F00BFD4A462A49FFF743
:1060BC0031FF05EB0925358002F0ECFE03685B69C6
:1060CC0098472378C5B22BB102F0FAFC2A46224934
:1060DC00FFF720FF02F0DEFE03685B699847237828
:1060EC00C6B22BB102F0ECFC32461B49FFF712FF93
:1060FC0005EB06253D8002F0CDFE03685B699847F1
:10610C002378C5B22BB102F0DBFC2A461249FFF70B
:10611C0001FF02F0BFFE03685B6998472378C6B2A3
:10612C002BB102F0CDFC32460B49FFF739FA05EBE7
:10613C000625A8F80050012002B0BDE8F08700BF8A
:10614C00989F0D00F89F0D004DCB0320C89F0D00AC
:10615C00D49B0D00F59B0D00F49F0D002DE9F04F25
:10616C008FB0412807460A9115460AD031280CD029
:10617C0032280ED002F0A4FC3A465549FFF710FA2B
:10618C00A3E0544C4FF0740A06E0534C4FF0750AE0
:10619C0002E0524C4FF0760A73B1514A92F8240047
:1061AC000C24B0FBF4F304FB1304E4B202EB041470
:1061BC000130283482F824004A4B0B9301221A70C8
:1061CC00FEF7DEFA29463846FEF7FEFA642001F0A7
:1061DC00A7FA52460A993846FFF7E8F9277000F0FB
:1061EC00A9FF4FF00009052260606270C8464E4658
:1061FC004D46CB4663789B4520DA0CAB00930DAA39
:10620C000DF136030DF132015046FFF789FE60B1F6
:10621C00BDF832301D44BDF834301E44BDF8363064
:10622C009844BDF83030994405E002F049FC3A46F8
:10623C002D49FFF7B5F90BF1010BDBE796FBF3F6F4
:10624C006681B6B295FBF3F576432581ADB298FB2A
:10625C00F3F005FB0565A08180B299FBF3F900FB17
:10626C000050A4F80E90FEF7D1F8064602F028FC78
:10627C00B6B2054600F05EFF0896A38907936389C2
:10628C000693238905931FFA89F909EBC90905239C
:10629C0099FBF3F320339BB20493E3890393637864
:1062AC000293124BB0FBF3F202FB13000A9B01901A
:1062BC0000930F4A3B460121284602F0E0F80B9A66
:1062CC00002338461370FEF7A7FA0FB0BDE8F08F25
:1062DC0013A00D00ACC9032054D3032064D30320B6
:1062EC0008CA032084C903202FA00D0040420F00D0
:1062FC0056A00D002DE9F04104460D46164600F05F
:10630C0019FF07460120FEF7CFFAB0B133462A46F3
:10631C0021464120FFF722FF33462A4621463120F1
:10632C00FFF71CFF33462A4621463220FFF716FFA3
:10633C0002F0C6FB02F06DF804E002F0C1FB0B4961
:10634C0002F073F8FEF7CCFA094B1B7863B102F03C
:10635C00B7FB044600F0EEFE064AC31B01212046A3
:10636C00BDE8F04102F08BB8BDE8F08198A00D00BB
:10637C004DCB0320CBA00D00F0B59D4B1E7889B002
:10638C0005460C461F46002E40F02E81FFF7C2F842
:10639C00042D00F0D38046DC012D00F0998015DC33
:1063AC00002D40F0218102F075FA924B9249D86190
:1063BC0004A802F013F941F2707104A8FEF734FC42
:1063CC0004A802F0C4F84FF47A7092E0022D00F0A9
:1063DC009380032D40F0088101A92046FEF7F0FBC5
:1063EC0002A9FEF7EDFB03A9FEF7EAFB834904467D
:1063FC0004A802F0F3F8019B83EAE371A1EBE371CB
:10640C00029B5943039B04A84B4346F2A81193FBF0
:10641C00F1F1FEF709FC04A802F099F801A807C8ED
:10642C00FEF742F9E0E0142D00F0CC8037DC0A2DA9
:10643C0000F09C800B2D40F0D78001A92046FEF780
:10644C00BFFB02A9FEF7BCFB6D49044604A802F091
:10645C00C5F86C4B1968A1F58C4150390029B8BFAF
:10646C0049429623594304A846F2A81391FBF3F131
:10647C00FEF7DAFB04A802F06AF8FEF771FF624936
:10648C0004A802F0ABF841F2707104A8FEF7CCFB43
:10649C0004A802F05CF80122029901988FE0152DF6
:1064AC0000F0A080632D40F09F8002F0F3F9514B77
:1064BC001862FEF771FB554904A802F08FF804A886
:1064CC0041F27071FEF7B0FB04A802F040F88BE0CB
:1064DC0001A92046FEF774FB4D49044604A802F0BE
:1064EC007DF8019904A8FEF79FFB04A802F02FF891
:1064FC000198FFF71DF877E001A92046FEF760FB35
:10650C0002A9FEF75DFB4349044604A802F066F8B5
:10651C00019B83EAE371A1EBE371029B04A84B435B
:10652C0046F2A81193FBF1F1FEF77EFB04A802F0F2
:10653C000EF802990198FEF723F855E001A92046C0
:10654C00FEF73EFB02A9FEF73BFB3349044604A8C9
:10655C0002F044F8019904A8FEF766FB04A801F0C8
:10656C00F6FF01990298FEF729FE3DE0244904A8A4
:10657C0002F034F8234B1968A1F58C4150390029ED
:10658C00B8BF49429623594304A846F2A81391FB7D
:10659C00F3F1FEF749FB04A801F0D9FFFEF7E0FE8A
:1065AC00194904A802F01AF841F2707104A8FEF718
:1065BC003BFB04A801F0CBFF0122FF21B620FFF723
:1065CC0099FE11E0204601A9FEF7FAFA3446054679
:1065DC00019BA34209DD3B783BB9284600F01EF82D
:1065EC000134F5E7604200E0204609B0F0BD00BF81
:1065FC00ADD9032008CA0320DCA00D00F4A00D00C7
:10660C0008A10D00B0D9032012A10D001AA10D0094
:10661C00E5A00D00EDA00D0000A10D0013B501A922
:10662C000446FEF7CDFA014664B9019B53B1114BF8
:10663C0001221A7002F044FA0F4901F0F6FE4FF0F5
:10664C00FF3015E001980B4CFFF796FE019B632B76
:10665C000BD0002809DD23783BB901A9FEF7B0FA6D
:10666C0001460198FFF788FEF0E70028B8BF4042CA
:10667C0002B010BDADD903202CA10D001FB52A4BC3
:10668C0001221A7002F01CFA284901F0CEFE2749AB
:10669C00684601F0A3FF00216846FEF7C5FA68467C
:1066AC0001F055FF00F07CFF4FF4FA6001F038F870
:1066BC0000F07EFF044638B102F002FA1C4901F0EA
:1066CC00B4FEFDF7A9FDEFE7FDF7C0FF4FF4FA614B
:1066DC004FF41670FEF772FD40F6C41001F020F86E
:1066EC002146204600F0CEFC2046FFF797FF2146BE
:1066FC00012000F0C7FC00F04BFF4FF4FA6001F0F2
:10670C000FF800F055FF38B902F0DAF9094901F039
:10671C008CFEFDF781FDF0E7074B084A1B7883F0F0
:10672C000103137004B010BD87C9032044A10D00F0
:10673C0051A10D0053A10D00ADD90320BEC90320FA
:10674C0013460A46012101F09ABE000007B502F07B
:10675C00B7F92E4901F069FEFEF7F6FE02F0B0F92A
:10676C002B4901F062FE0120FDF770FF02F0A8F941
:10677C00284901F05AFEFF214FF4FA70FEF759F840
:10678C004FF4FA7000F0CCFFFF214FF4FA70FEF7D3
:10679C005CF84FF4FA7000F0C3FFFF214FF4FA706D
:1067AC00FEF75FF802F08CF91B4901F03EFEFEF794
:1067BC0021FDFEF7B3FAFFF723FB184B1849188895
:1067CC00002200924FF0FF3301F0CEFB02F078F97B
:1067DC00144B15491A68FFF7B3FF02F071F9134A0D
:1067EC00917813780191527800920121104A01F0AE
:1067FC0046FEFEF77DF800F09DFC0E4B00F59C501C
:10680C000830186003B05DF804FB00BF55A10D0003
:10681C007BA10D008BA10D009BA10D0088C803204E
:10682C00D9400D0040D30320B0A10D0074D3032038
:10683C00BEA10D00D4D9032010B502F041F9114AC4
:10684C00012101F01CFE104B1049114800221A7056
:10685C00072202F076FD044658B902F031F90D4AD0
:10686C00012101F00CFE0C4B1C70BDE81040FFF731
:10687C006DBF02F025F9094A0121BDE8104001F075
:10688C00FEBD00BF17A20D0086C90320B79A0D00EC
:10689C00EDC9032034A20D00ECC903205DA20D004C
:1068AC0030B5144B85B001220C461A70054600F029
:1068BC0041FC114B00F59C402030186002F000F9AF
:1068CC0022460E49FFF73CFF2846FEF731F902F04D
:1068DC00F7F80B4901F0A9FD0A49684601F07EFE64
:1068EC0021466846FEF71AF8684601F030FE05B0FE
:1068FC0030BD00BF04CA0320B4D903208EA20D0002
:10690C0018D70320ACA20D0010B502F0D9F8094934
:10691C0001F08BFD084B0020E82202FB00310C79C2
:10692C0024B10431BDE81040FFF7BABF0130042890
:10693C00F3D110BDB8A20D0074D3032010B5836839
:10694C00182B11D10A4C19222146002301F0EFFE1D
:10695C000023237602F0B4F822460649FFF7F0FE36
:10696C00FEF746F8012010BD4FF0FF3010BD00BF00
:10697C00B8D90320D7A20D00414A2DE9F3410346B3
:10698C00054600F11807164618685968144603C4E2
:10699C000833BB422246F7D100273A4C377602F037
:1069AC008FF8374A3849FFF7CBFE696828682346C9
:1069BC0003C3277202F084F822463449FFF7C0FE65
:1069CC0086F8247002AE192346F8043D7C22314629
:1069DC002846FDF7F0FC607202F072F8627A2C49DE
:1069EC00FEF7DEFD31467C222846FDF7E4FC8046AE
:1069FC0002F066F842462749FEF7BCFC31467C2281
:106A0C002846FDF7D8FCE06002F05AF8E26822490B
:106A1C00FEF7B0FC31467C222846FDF7CCFC2082E8
:106A2C0002F04EF8238A1D4A012101F028FD268A26
:106A3C00019932462644294404F1120002F096FCD6
:106A4C00B77402F03DF804F112021549FFF778FE15
:106A5C00218A04F11200FDF7C5FC80EAE074A4EB76
:106A6C00E07402F02DF8234642460E49FEF79CFBDB
:106A7C00C4EB08035842584102B0BDE8F08100BF96
:106A8C0008CA032050CB0320F5A20D0008A30D006B
:106A9C0017A30D002FA30D003EA30D0051A30D0055
:106AAC0068A30D0078A30D001A4B1B491B4800224C
:106ABC0070B51A70072202F044FC194C194DB0FA4B
:106ACC0080F04009207001F0FBFF23781649002B61
:106ADC0014BF59224E22FEF763FD23789BB1286820
:106AEC00FFF74AFF064638B1104B01221A7001F02D
:106AFC00E7FF2A680E490AE001F0E2FF0D4901F0B8
:106B0C0094FC267070BD01F0DBFF2A680A49FFF780
:106B1C0017FE70BDBDC90320B79A0D00EDC9032047
:106B2C0038D3032048CB032090A30D00D1D90320E8
:106B3C00A8A30D00D4A30D00F0A30D0070B500F0B8
:106B4C00F9FA124B1A6882421D461AD8104A0023D1
:106B5C00E82101FB032634794CB10E4B1C7894B11F
:106B6C0001F0AEFF321D0C49FFF7EAFD0CE00133DA
:106B7C00042BEED100F0DEFA00F56A40603028609C
:106B8C0002E0002400E00124204670BDE8C9032087
:106B9C0074D303204DCB032006A40D0038B5214B34
:106BAC001D78D5B1204C257855B101F089FF1F49CE
:106BBC0001F03BFC00232370BDE83840FEF742B9DE
:106BCC001B4C237863B301F07BFF1A4901F02DFCB9
:106BDC002570BDE83840FEF76BB9174C23784BB1E4
:106BEC0001F06EFF154901F020FC2570BDE838401E
:106BFC00FFF744BD124B1B785BB100F09BFA114BB5
:106C0C001B6898420CD901F05BFF0F4901F00DFC99
:106C1C0002E0FFF793FF18B1BDE83840FFF774BEF0
:106C2C0038BD00BF87C90320ADD9032022A40D00B5
:106C3C00BEC9032032A40D00D1D9032041A40D00FC
:106C4C0004CA0320B4D903204FA40D0038B5072281
:106C5C000D490E4802F075FB054668B90C4C01F065
:106C6C002FFF22680B49FFF76BFD0B4B20681D7043
:106C7C00BDE83840FDF7F6BE01F022FF0749BDE83C
:106C8C00384001F0D2BB00BFB79A0D00EDC903200C
:106C9C0048CB03206BA40D0004CA0320A3A40D0051
:106CAC0030B53A4B3A4800221A7085B07C2320212B
:106CBC00FDF7F4FE7C23024610213648FDF7EEFE6C
:106CCC00354A364B111819601C4640F6C3139842CE
:106CDC0008DC115C232903D12F4B00221A5401E04C
:106CEC000130F4E701F0ECFE05462B4802F021FBE5
:106CFC0023680293264C274B0193012103460094F1
:106D0C00274A284601F0BBFB2649204602F0E3FA4D
:106D1C0040B101F0D5FE0094224B234A012101F031
:106D2C00AEFB31E02149204602F0D5FA20B905B07E
:106D3C00BDE83040FFF780BD1D49204602F0CBFA7C
:106D4C0020B905B0BDE83040FFF7AEBE194920466A
:106D5C0002F0C1FA20B905B0BDE83040FEF71EB80C
:106D6C001549204602F0B7FA20B905B0BDE830400D
:106D7C00FEF73EB81149204602F0ADFA20B905B035
:106D8C00BDE83040FFF762BF05B030BD50D30320E3
:106D9C00BFC90320EDC90320FCD9032048CB032035
:106DAC00B7A40D008CD90320ECA40D00929B0D0010
:106DBC001F9A0D002D9B0D00049B0D00ACA20D0025
:106DCC007FB52E4E2E4C01F07BFE03681B69984755
:106DDC0040B301F075FE03685B6998472368F05473
:106DEC0001F06EFE03681B6998472368054638B1AD
:106DFC000133282193FBF1F201FB12332360E2E70C
:106E0C00F05401F05DFE1D4901F00FFB1B4925609C
:106E1C00684601F0E3FB6846FEF722FD684601F088
:106E2C0096FBD0E7174B1B783BB101F049FE164996
:106E3C0001F0FBFAFFF734FF1DE0144B1C7814B182
:106E4C00FEF780F917E0FFF71BF8FFF7A7FE104BD2
:106E5C001A783AB11C700F4B19680F4B2246186800
:106E6C00FFF748FA0D4B1A682AB100221A60FEF798
:106E7C00E9FAFEF785FA04B070BD00BF1ECB032003
:106E8C00C0E3032050D3032016A50D00ECC903204A
:106E9C001CCB032034D3032088D90320F8CA032049
:106EAC002DE9F043534B544F544EDFF88C810125A0
:106EBC001D70534B87B002241C7000F073F9002234
:106ECC001E21204600F030FB4FF014090346CDF88C
:106EDC000090224601954FF47F01384601F0E4F80A
:106EEC0032464146384602F01BF800220A21204661
:106EFC0000F01AFB434FCDF8009003462246019553
:106F0C004FF47F41384601F0CFF83F4CDFF82C911D
:106F1C0032464146384602F003F83C4B029302AA33
:106F2C0000233B4FDFF81881049741F2883120464B
:106F3C00CDF81490FDF780F902A8FDF763F93246FD
:106F4C004146204601F0ECFF324A334B12681A607E
:106F5C00324A049712685A604FF448721A614FF41F
:106F6C00B97200244FF47A715A622D4F99636422DE
:106F7C00DC601C725C619C61DA621D635D63DD63C5
:106F8C001D64284B029302AA23463846CDF8149070
:106F9C00FDF752F902A8FDF735F93846224F324673
:106FAC00414601F0BDFF2149384601F017FB32463E
:106FBC001F49384601F0B4FF1E4B0D225A70214672
:106FCC00FF220B2628461E709A7000F08DFA01F0F5
:106FDC0063FE2346224642F6A23101F065FE01F023
:106FEC005BFE23462246314601F066FE07B0BDE843
:106FFC00F08300BFE0C9032088C903201CC903200B
:10700C00A8C90320D8D9032064C90320B5400D00BA
:10701C00E9400D0074C8032020C9032094C8032044
:10702C0000CB0320C1400D0040D30320FCA60D0073
:10703C005B850D0074D3032059410D00E5400D0014
:10704C00C9420D0008B5024B1B689B68019308BD33
:10705C004802030008B5024B1B68DB68019308BDAE
:10706C004802030008B5024B1B681B69019308BD5D
:10707C004802030008B5024B1B685B69019308BD0D
:10708C004802030008B5024B1B68DB69019308BD7D
:10709C004802030008B5024B1B681B6A019308BD2C
:1070AC004802030008B5024B1B685B6A019308BDDC
:1070BC004802030008B5024B1B689B6A019308BD8C
:1070CC004802030008B5024B1B68DB6A019308BD3C
:1070DC004802030008B5024B1B685B6C019308BDAA
:1070EC004802030008B5024B1B689B6C019308BD5A
:1070FC004802030008B5024B1B681B6F019308BDC7
:10710C004802030008B5024B1B689B6E019308BD37
:10711C003402030008B5024B1B685B68019308BD81
:10712C001802030008B5024B1B68DB68019308BD0D
:10713C001802030008B5024B1B685B69019308BD7C
:10714C001802030008B5024B1B68DB69019308BDEC
:10715C001802030008B5024B1B689B6A019308BD1B
:10716C001802030008B5024B1B685B6C019308BD49
:10717C001802030008B5024B1B689B6C019308BDF9
:10718C001802030008B5024B1B68DB6C019308BDA9
:10719C001802030008B5024B1B689B6D019308BDD8
:1071AC001802030008B5024B1B681B68019308BD4D
:1071BC002C02030008B5024B1B685B68019308BDE9
:1071CC002C02030008B5024B1B689B68019308BD99
:1071DC002C02030008B5024B1B68DB68019308BD49
:1071EC002C02030008B5024B1B681B69019308BDF8
:1071FC002C02030008B5024B1B685B69019308BDA8
:10720C002C02030008B5024B1B689B69019308BD57
:10721C002C02030008B5024B1B68DB69019308BD07
:10722C002C02030008B5024B1B689B6A019308BD36
:10723C002C02030008B5024B1B681B6B019308BDA5
:10724C002C02030008B5024B1B689B6F019308BD11
:10725C002C02030008B5024B1B68DB6F019308BDC1
:10726C002C02030008B5024B1B681B68019308BD78
:10727C002802030008B5024B1B68DB68019308BDAC
:10728C002802030008B5024B1B681B69019308BD5B
:10729C002802030008B5024B1B689B69019308BDCB
:1072AC002802030008B5024B1B68DB69019308BD7B
:1072BC002802030008B5024B1B681B6A019308BD2A
:1072CC002802030008B5024B1B685B6A019308BDDA
:1072DC002802030008B5024B1B689B6A019308BD8A
:1072EC002802030008B5024B1B68DB6A019308BD3A
:1072FC002802030008B5024B1B681B6B019308BDE9
:10730C002802030008B5024B1B685B6B019308BD98
:10731C002802030008B5024B1B681B6C019308BDC7
:10732C002802030008B5024B1B681B6D019308BDB6
:10733C002802030008B5024B1B685B69019308BD6A
:10734C006402030008B5024B1B689B68019308BDDF
:10735C006802030008B5024B1B68DB68019308BD8B
:10736C006802030008B5024B1B681B68019308BD3B
:10737C002402030008B5024B1B68DB69019308BDAE
:10738C003002030008B5024B1B681B6A019308BD51
:10739C003002030008B5024B1B681B68019308BD43
:1073AC003C02030008B5024B1B689B68019308BDA7
:1073BC003C02030008B5024B1B68DB68019308BD57
:1073CC003C02030008B5024B1B681B69019308BD06
:1073DC003C02030008B5024B1B685B69019308BDB6
:1073EC003C02030008B5024B1B689B69019308BD66
:1073FC003C02030008B5024B1B68DB69019308BD16
:10740C003C02030008B5024B1B681B6A019308BDC4
:10741C003C02030008B5024B1B689B6A019308BD34
:10742C003C02030008B5024B1B68DB6A019308BDE4
:10743C003C02030008B5024B1B681B68019308BD96
:10744C004C02030008B5024B1B685B68019308BD36
:10745C004C02030008B5024B1B681B69019308BD65
:10746C004C02030008B5024B1B685B69019308BD15
:10747C004C02030008B5024B1B689B69019308BDC5
:10748C004C02030008B5024B1B68DB69019308BD75
:10749C004C02030008B5024B1B681B6A019308BD24
:1074AC004C02030008B5034B1B68D3F880300193E2
:1074BC0008BD00006002030008B5024B1B681B6886
:1074CC00019308BD2002030008B5024B1B685B68E2
:1074DC00019308BD2002030008B5024B1B685B69D1
:1074EC00019308BD2002030008B5024B1B68DB6A40
:1074FC00019308BD2002030008B5024B1B68DB6C2E
:10750C00019308BD2002030008B5024B1B685B6D9C
:10751C00019308BD2002030008B5024B1B689B6D4C
:10752C00019308BD2002030008B5024B1B68DB6FFA
:10753C00019308BD2002030008B5034B1B68D3F868
:10754C008830019308BD00002002030008B5034BEE
:10755C001B68D3F89430019308BD0000200203008F
:10756C0008B5024B1B681B68019308BD440203005D
:10757C0008B5024B1B685B68019308BD440203000D
:10758C0008B5024B1B689B68019308BD44020300BD
:10759C0008B5024B1B68DB68019308BD440203006D
:1075AC0008B5024B1B681B69019308BD440203001C
:1075BC0008B5024B1B685B69019308BD44020300CC
:1075CC0008B5024B1B68DB69019308BD440203003C
:1075DC0008B5024B1B681B6A019308BD44020300EB
:1075EC0008B5024B1B685B6A019308BD440203009B
:1075FC0008B5024B1B681B6B019308BD44020300CA
:10760C0008B5024B1B68DB6B019308BD44020300F9
:10761C0008B5024B1B685B68019308BD4002030070
:10762C0008B5024B1B689B68019308BD4002030020
:10763C0008B5024B1B68DB68019308BD40020300D0
:10764C0008B5024B1B681B69019308BD400203007F
:10765C0008B5024B1B685B69019308BD400203002F
:10766C0008B5024B1B689B69019308BD40020300DF
:10767C0008B5024B1B68DB69019308BD400203008F
:10768C0008B5024B1B681B6A019308BD400203003E
:10769C0008B5024B1B681B6B019308BD400203002D
:1076AC0008B5024B1B685B6B019308BD40020300DD
:1076BC0008B5024B1B681B68019308BD1C02030034
:1076CC0008B5024B1B685B68019308BD1C020300E4
:1076DC0008B5024B1B689B68019308BD1C02030094
:1076EC0008B5024B1B68DB68019308BD1C02030044
:1076FC0008B5024B1B685B6A019308BD1C020300B2
:10770C0008B5024B1B68DB6A019308BD1C02030021
:10771C0008B5024B1B681B6B019308BD1C020300D0
:10772C000021FFF7D9BE10B5836804460BB901F0F0
:10773C0018FCC3689847A3681BB103222146204656
:10774C00984720461021BDE8104001F0EEBB10B563
:10775C000446006808B1FFF7C5FC204610BD10B503
:10776C00036804469B689847A368013BA3602BB948
:10777C0023682046DB68BDE81040184710BD0B6835
:10778C00036013B15A6801325A60704710B5044651
:10779C00006828B14368013B43600BB9FFF7DFFF7A
:1077AC00204610BD10B5064C002320462360FFF781
:1077BC0091FC2046034A0449BDE8104001F0B0BBDF
:1077CC00C4E303201CC903205B770D007047002025
:1077DC00704710B51021044601F0A7FB204610BDE0
:1077EC0008B508B1FFF7F5FF08BD0022026010B51F
:1077FC004FF69C728280B1F9044084808A800268C2
:10780C000C6804600A6010BD10B504460068FFF7F0
:10781C0057FF204610BD38B5C468F4B12378022B4D
:10782C0003D104F10C00FFF7EFFF656835B1284672
:10783C00FCF7E8FC1021284601F077FBA56835B170
:10784C002846FCF7DFFC1021284601F06EFB204691
:10785C001421BDE8384001F068BB38BD10B588B0C4
:10786C000446684600F0BAFE694604A800F0F5FE2E
:10787C0004A8A047044604A800F069FE684600F07E
:10788C0066FE204608B010BDF0B5102485B0074642
:10789C000E46154600212246684601F0CEFC002219
:1078AC0069461046ADF80040029703960195FFF724
:1078BC005FFE05B0F0BD13B5044691E8050000234A
:1078CC004B600B602060626001A801930093FFF78E
:1078DC005DFF204602B010BDF7B50C4602AD54F862
:1078EC00043B45F8083D06460F4601A82146FFF724
:1078FC0046FF29463046FFF7DEFF01A8FFF746FF9B
:10790C002046FFF743FF3846082101F00EFB3046B6
:10791C0003B0F0BD13B50B46044603C88DE8030055
:10792C0093E8030084E803009DE8030083E8030068
:10793C0002B010BD38B500230446036010200D467C
:10794C00FCF7A3FB28B1012343608360024B036067
:10795C00C5602060204638BDDCA50D00826810B5DE
:10796C000AB901F0FEFAC368BDE81040184708B523
:10797C00006800F11001FFF7F1FF08BD826810B537
:10798C000AB901F0EEFAC368BDE81040184708B513
:10799C00006800F11001FFF7F1FF08BD38B50023B6
:1079AC0083608B6804460D462BB102229847EB6826
:1079BC00E360AB68A360204638BD0000F0B589B029
:1079CC0004686846FFF711FF00238DF808304FF06C
:1079DC000202D4E84F3F002B03D1C4E8412F002909
:1079EC00F7D102D08DF8083063E014F10C0503D008
:1079FC0069462846FFF7F9FEBFF35F8F01236370DA
:107A0C00002004F10803BFF35F8F53E8006F43E8D5
:107A1C000002002AF9D1BFF35F8F002E49D0FFF787
:107A2C006BFD20B129463046FFF798FF3AE031460E
:107A3C0002A8FFF7B3FFE068B4F9105008B101F0E9
:107A4C005DFC06901020ADF81C50FCF71EFB0546A3
:107A5C00E8B1002787601820FCF717FB044688B1B3
:107A6C000146876002A8FFF755FF049BA268A3603C
:107A7C00059B049206A9E268E36004F110000592EC
:107A8C00FFF7B3FE0D4BEB600D4B2C60AB6006A803
:107A9C00FFF7BAFE02A8FCF7B5FB002229460948FD
:107AAC00FFF732FD3046FCF7ADFB1021304601F0FC
:107ABC003CFA6846FFF7A8FE09B0F0BD7B790D00D3
:107ACC00F17B0D0033770D002DE9F04F8BB006469E
:107ADC000F46904699469DF850A0FFF769FD07ADFB
:107AEC00834630BB4FF62E73059005A92846ADF89A
:107AFC001830FFF77AFE1420FCF7C7FA044658B189
:107B0C000223037001234370C0F804B0C0F808B01E
:107B1C0029460C30FFF769FE3046214640F8044BED
:107B2C00FFF708FF2846FFF76FFE05A8FFF76CFE6E
:107B3C0052E000240C2314206C60AC600793FCF71B
:107B4C00A4FA014618B1047044704460846004A81F
:107B5C000391FFF7EFFE224B08930820FCF795FAF0
:107B6C00044628B1039B40F8043B04A9FFF707FE29
:107B7C0000955FFA8AF34A46414638460994FFF766
:107B8C0027FD20B9039B5B7803F0FF0283B1039BB5
:107B9C00059304A906A8FFF7F2FD05A93046FFF7E7
:107BAC008AFE06A8FFF7F2FD04A8FFF7EFFD13E02D
:107BBC004FF69C7305A903A80592ADF81830FFF792
:107BCC00FDFE05A8FFF720FE05A80999FFF784FE26
:107BDC0006A8FFF7DBFDDAE730460BB0BDE8F08F07
:107BEC00617D0D00022AF8B5044606D0032A17D091
:107BFC00012A22D10B6803601FE018200E68FCF7E5
:107C0C0044FA054650B13146FFF7C8FE3069B6F963
:107C1C00147008B101F072FB2861AF8225600CE092
:107C2C00046854B104F11000FFF7EEFD2046FCF798
:107C3C00E9FA1821204601F078F90020F8BD38B592
:107C4C00002383608B6804460D462BB102229847B3
:107C5C00EB68E360AB68A360204638BD022A70B5C0
:107C6C00044606D0032A11D0012A18D10B680360F0
:107C7C0015E014200E68FCF708FA054620B13146D1
:107C8C00FFF7DDFF337C2B74256008E0046834B10A
:107C9C002046FCF7B7FA1421204601F046F90020E3
:107CAC0070BD0000F0B5002387B00C46BFF35F8FAA
:107CBC0050E8006F40E80032002AF9D1BFF35F8F23
:107CCC00002E3FD01846FFF717FC074620B121467F
:107CDC003046FFF753FE2EE0314601A8FFF7AFFF09
:107CEC0023788DF814301020FCF7CFF90546D0B16D
:107CFC0087601420FCF7C9F9044678B18760014607
:107D0C0001A8FFF707FE039BA268A360049B0392E4
:107D1C00E268E3609DF81430049223740A4BEB6024
:107D2C000A4B2C60AB6001A8FCF76CFA00222946C8
:107D3C000748FFF7E9FB3046FCF764FA10213046A0
:107D4C0001F0F3F807B0F0BD9B790D00697C0D00D4
:107D5C0033770D0030B585B004460D4668461146A4
:107D6C00FFF7BAFD7CB124B228460DB101F0C6FA7A
:107D7C00029002A96846ADF80C40FFF71FFE02A85E
:107D8C00FFF742FD1DE000988DF808404FF001020E
:107D9C00D0E84F3FA34203D1C0E8412F0029F7D1CF
:107DAC0002D08DF808300CE010F10C014FF00103FB
:107DBC0018BF0373BFF35F8F043000F8033CFFF769
:107DCC0071FF01A8FFF7E2FC05B030BD002211469F
:107DDC004068FFF755BC002211464068FFF760BCB5
:107DEC0000224068FFF754BC002281F0010140687A
:107DFC00FFF73EBC00231A4619464068FFF730BC1B
:107E0C0000231A4619464068FFF722BC002211468F
:107E1C004068FFF715BC002211464068FFF700BC14
:107E2C00002202214068FFF703BC00231A46406879
:107E3C00FFF7EEBB024B03225A60024A1A607047EE
:107E4C00C8E30320F8A50D007047F8B506461546A3
:107E5C000C468F18BC4206D0336814F8011B9B6883
:107E6C0030469847F6E72846F8BD0022007CFFF71D
:107E7C0021BA0021007CFFF725BA0021007CFFF716
:107E8C0029BA0021007CFFF72DBA0021007CFFF7F6
:107E9C0031BA10B51421044601F047F8204610BD44
:107EAC0010B50446002363604FF47A73A360044B4F
:107EBC002174084623601146FFF72CFA204610BDAA
:107ECC002CA60D000022007CFFF7CCB900231A462B
:107EDC001946007CFFF7CEB90021007CFFF7D2B920
:107EEC0070B50C4686B0142506462A46002101A81A
:107EFC0001F0A3F923788DF8083063680393E368E5
:107F0C0004930022237A307CADF8045001A9059328
:107F1C00FFF708FA06B070BD1FB500338DF80010DE
:107F2C004FF06401039118BF0123694601928DF84B
:107F3C000830FFF7D5FF05B05DF804FB0123FFF710
:107F4C00EBBF0022007CFFF7A5B9C9B2FFF7F9BF60
:107F5C000022007CFFF7A6B90121FFF7F9BF002131
:107F6C00007CFFF7CFB90047F0B585B01C460E4634
:107F7C0017460546FFF74EF9002084424FF00403E4
:107F8C0003908DF80C30A5BF9DF828308DF80E307D
:107F9C00034603AB009332463B460649A8BF8DF817
:107FAC000D402846FFF72EF9B0FA80F0400905B0D5
:107FBC00F0BD00BF737F0D00704710B5182104464B
:107FCC0000F0B3FF204610BDF0B5037D062B8DB03D
:107FDC000E4600F104074FF0000402D000F1080532
:107FEC0018E00CAD394605F8304D2F232A460A20EF
:107FFC00FFF7A0F9284601F09CF933680246DB68CC
:10800C002946304698470FE024B12E21304600F027
:10801C00FDF9044415F8011D0A22304600F00FFA50
:10802C00BD420444F0D120460DB0F0BD10B5054B57
:10803C000446112240F8043B002101F0FEF82046D2
:10804C0010BD00BF54A60D000346074A10B543F8F7
:10805C00042B01F1100251F8044B43F8044B9142EC
:10806C00F9D10A781A7010BD54A60D0010B59DF800
:10807C00084044EA032343EA024242EA0161042332
:10808C004160037510BD37B50D788B784A78C97887
:10809C0000912946FFF7EAFF03B030BD0A680B4692
:1080AC00926801461846104770B50E4C04601C24AB
:1080BC0044609DF814409DF8106004F0030444EAF9
:1080CC0086040025E4B20474427485744161427CD8
:1080DC0085600F2A08BF044BC56006BF8361C06171
:1080EC00038370BDF0940D00A9800D00014B024A72
:1080FC001A607047D0E30320CBA60D000022114676
:10810C004068FFF7BDBA002211464068FFF7C8BAB5
:10811C0000224068FFF7BCBA002281F001014068E0
:10812C00FFF7A6BA00231A4601214068FFF798BA58
:10813C0000231A4619464068FFF78ABA00221146F6
:10814C004068FFF77DBA002211464068FFF768BA15
:10815C00002202214068FFF76BBA00231A464068E0
:10816C00FFF756BA38B5054688B104684CB1A36818
:10817C001BB103222146204698471021204600F0CF
:10818C00D4FE28461421BDE8384000F0CEBE38BDE0
:10819C0010B103685B681847704710B50368044654
:1081AC00BBB15868FEF74EFF78B923685A7C12B9F8
:1081BC005868FEF757FF23685868FEF75BFF206886
:1081CC000023236028B1FFF7CDFF206808B1FFF72B
:1081DC00C9FF204610BD38B50446D0F8C40108B11B
:1081EC00FBF757FFD4F8C00108B1FEF77BFFD4F8BA
:1081FC00BC5135B12846FFF7D0FF0421284600F0CA
:10820C0094FE206808B1FFF7C3FF204638BD00007C
:10821C0010B5044B044640F8083BFFF7DCFF204642
:10822C0010BD00BF3CA70D0038B50E4C0E4B2360A3
:10823C000025022304F5E4706360A560C4F8C45102
:10824C00C4F8C851FEF746FF084BC4F8CC5184F86B
:10825C00D05123602046064A0649BDE8384000F05C
:10826C005FBE00BFD4E3032070A70D003CA70D0038
:10827C001CC903201D820D0000231A464068FFF71D
:10828C00C7B9002202214068FFF7D2B9002211467B
:10829C004068FFF7C5B9002211464068FFF7D0B916
:1082AC0000231A4619464068FFF7D2B900231A4634
:1082BC0019464068FFF7D4B9002281F001014068EB
:1082CC00FFF7D6B900224068FFF7E2B90022114649
:1082DC004068FFF7E5B9002211464068FFF7D0B9B6
:1082EC002DE9F043002495B016460D460746FFF7DE
:1082FC009DFE214620220CA8009400F09EFF4023F6
:10830C000C9321466B460CAA3046FFF723F8044623
:10831C00002844D1024601216868FFF791F9022137
:10832C00804622466868FFF78BF9009E81462146FD
:10833C00002E34D0002932D17368022B02D00A2BC4
:10834C0009D02AE0B8F1000F27D071693846043102
:10835C00FFF799FE20E0B9F1000F1ED074691122CD
:10836C0001A800F06AFF06238DF8143001AD04F16A
:10837C0008031834186859682A4603C20833A34204
:10838C001546F7D101A906A807ADFFF75DFE0FCD85
:10839C003C1D0FC42B6823700121F669C8E70098B7
:1083AC00FEF7D0FF384615B0BDE8F083024B034A08
:1083BC001A6000225A607047A8E5032070A70D00D0
:1083CC00F8B506460D468F180024BD420CD0336814
:1083DC0015F8011B9B6830469847002801DB0444C4
:1083EC00F3E7002C08BF04462046F8BD70B50546DF
:1083FC000C46084649B100F09CFF2B68024621460A
:10840C002846DB68BDE87040184770BD03689B6860
:10841C00184738B50D210546FFF7F8FF0A21044629
:10842C002846FFF7F3FF204438BD38B50546FFF763
:10843C00DDFF04462846FFF7ECFF204438BD30B57D
:10844C008BB00B4600218DF82410012A98BF0A220C
:10845C000DF12304B3FBF2F505FB123303F0FF031C
:10846C00092B94BF30333733DBB2214604F8013982
:10847C002B46002DEED1FFF7B9FF0BB030BD0CB47D
:10848C002DE9F04387B000AF07F13804054654F8E6
:10849C00049B3C600E4623464A461421381DFFF7C8
:1084AC0027F9132805D8391D2846FFF79FFF0446E6
:1084BC0013E000F1080323F00703E846ADEB030DCE
:1084CC00411C23464A4668463C60FFF711F9694651
:1084DC002846FFF78BFF0446C5461EB12846FFF71A
:1084EC0098FF044420461C37BD46BDE8F04302B05B
:1084FC00704710B50446FBF785FE204610BD000002
:10850C000348044A04490023836000F009BD00BFFE
:10851C00B0E503201CC90320FF840D00704710B583
:10852C000C21044600F001FD204610BD10B5054B92
:10853C000360044601710846FEF71CFF0023A3608C
:10854C00204610BDA4A70D000079FEF71BBF10B587
:10855C0004460068FFF7B4F8204610BD10B5044679
:10856C00006808B1FFF7ACF800232360A3606360D8
:10857C0010BD38B504460D4600680131FFF7A8F868
:10858C0010B184E82100012038BD10B50368044601
:10859C0013B143688B4207D22046FFF7EAFF20B1A4
:1085AC00A3680BB922681370012010BD70B50E467C
:1085BC00114604461546FFF7E8FF18B92046FFF7A9
:1085CC00CDFF09E02A463146A560206800F02AFE5E
:1085DC002268A3680021D154204670BD38B5002311
:1085EC00044603604360836003730D4639B108464B
:1085FC0000F09FFE294602462046FFF7D7FF204693
:10860C0038BD38B5054600680C4660B16A688B68A1
:10861C009A4206D3096800F068FEA368AB60002399
:10862C000AE0FFF74DF823682B6063686B60A36862
:10863C00AB60002323606360A36038BD884210B533
:10864C000B46044607D0096819B19A68FFF7AEFFCC
:10865C0001E0FFF783FF204610BD10B50023044650
:10866C000360436083600373FFF7E8FF204610BD8F
:10867C00884210B5044601D0FFF7C3FF204610BD59
:10868C0038B505460C4641B1084600F052FE21466D
:10869C0002462846FFF78AFF01E0FFF75FFF2846F6
:1086AC0038BD13B500238DF804100360436083605C
:1086BC00037301A904468DF80530FFF7E1FF20464E
:1086CC0002B010BD70B504460E4609B9002070BD4D
:1086DC006AB18368D5182946FFF757FF0028F5D0F3
:1086EC002068A3683146184400F0FFFDA560012006
:1086FC0070BD10B58A6809680446FFF7E3FF10B92E
:10870C002046FFF72BFF204610BD38B504460D461A
:10871C0041B1084600F00DFE294602462046FFF7FF
:10872C00D1FF10B92046FFF719FF204638BD70B5B0
:10873C000E469AB191B185689D4202D800230B7008
:10874C0070BD541EED1A0168AC4228BF2C4619446A
:10875C002246304600F00AFE0023335570BD10B59A
:10876C008368934206D90468A01800F0A6FD08B1EE
:10877C00001B10BD4FF0FF3010BD0000F8B59A4241
:10878C000F461D460C4988BF13461446064684BF47
:10879C002C461D46FFF722FFBA6894420AD8396866
:1087AC00954294BFC4EB0502C4EB0202214430464F
:1087BC00FFF7FCFE3046F8BDFCA60D0010B50446D4
:1087CC008B68FFF7DBFF204610BD006808B100F096
:1087DC0017BD704710B50446006818B1FEF770FF5E
:1087EC000023236010BD10B50446FFF7F3FF2046AD
:1087FC0010BD014600228C20FEF784BC0020FFF740
:10880C00F8BF000010B5094C00204FF6FF73206034
:10881C00A080A07120816381FEF756FE2046044A99
:10882C000449BDE8104000F07BBB00BFC0E503204D
:10883C001CC90320F3870D0008B50020FEF7D8FEF5
:10884C0028B1FEF7B5FE80F00100C0B208BD0120D2
:10885C0008BD10B50020FEF79DFC044668B9FEF774
:10886C002BFE01280BD12046FEF756FE38B9FFF738
:10887C00E3FF30B9FEF784FEF9E7012010BD0020BC
:10888C0010BDFFF7D9FF0020FEF784FC003018BFA5
:10889C00012010BD08B5FFF7DCFFBDE80840FEF76E
:1088AC0051BC0000024B1A68024B1A60704700BFA3
:1088BC00B0C80320CCE50320F8B585B204462846A1
:1088CC000E46174600F000FA60B102212846FEF76A
:1088DC0071FC022806D13A4631462046BDE8F840E4
:1088EC00FEF740BDF8BD70474174704708B5007C79
:1088FC00FEF790FD20EAE07008BD08B5007CFEF79D
:10890C0061FD20EAE07008BD08B5007CFEF76AFD49
:10891C0030EA200028BF4FF0FF3008BD08B5007CBE
:10892C00FEF758FD30EA200028BF4FF0FF3008BD9D
:10893C00007CFEF75FBD10B51421044600F0F5FA7B
:10894C00204610BD70B5457C04460E4625B9007C0A
:10895C00FEF760FD002805DD3146207CBDE8704047
:10896C00FEF728BD284670BD10B5044608461146D2
:10897C00002262604FF47A72A260054A22600122E2
:10898C00207462741A46FEF705FD204610BD00BF28
:10899C00E0A70D000023007CFEF744BD0022FFF78A
:1089AC00F9BF007CFEF7FEBC007CFEF72BBD00007F
:1089BC0038B50C4D296811F0010411D12846FBF78C
:1089CC006AFB68B1084A094B09482146FFF7CCFFFE
:1089DC002846FBF765FB074A0749054800F0A0FA53
:1089EC00034838BD68E603206CE60320E4E5032069
:1089FC00D0E503201CC90320F3880D004174704797
:108A0C00704708B50021007CFEF734FD30EA2000E9
:108A1C0028BF4FF0FF3008BD08B50121007CFEF7E0
:108A2C0029FD30EA200028BF4FF0FF3008BD08B503
:108A3C00007CFEF717FD20EAE07008BD08B5007C4D
:108A4C00FEF708FD20EAE07008BD007CFEF722BDB1
:108A5C0010B51421044600F068FA204610BD38B554
:108A6C000446007C0D46FEF7FDFC002801DC607C12
:108A7C0028B12946207CFEF705FD20EAE07038BDC0
:108A8C0010B50446002363604FF47A73A360054B62
:108A9C00236001230846217463741146FEF7CAFC57
:108AAC00204610BD10A80D000022007CFEF7CABCA9
:108ABC0010B514220446002100F0BFFB204610BD67
:108ACC0030B50E4D87B001A8FFF7F2FF296811F001
:108ADC00010410D12846FBF7DEFA60B101AA214649
:108AEC000748FFF7CDFF2846FBF7DAFA054A064997
:108AFC00034800F015FA024807B030BDF0E6032039
:108B0C00F4E603201CC903200D8A0D000022114637
:108B1C004068FEF795BD002211464068FEF7B0BDD7
:108B2C00002211464068FEF7BBBD00224068FEF7EC
:108B3C00AFBD002281F001014068FEF799BD002312
:108B4C001A4619464068FEF78BBD00231A46194693
:108B5C004068FEF77DBD002211464068FEF760BDFF
:108B6C00002202214068FEF763BD00231A464068CC
:108B7C00FEF74EBD024B04225A60024A1A6070473F
:108B8C0008E7032040A80D0008B50C4B33B1FFF7E4
:108B9C0097FF03681B699847002809DC084B63B1F1
:108BAC00FFF706FF03681B699847002803DC08BD24
:108BBC00AFF30080F2E7AFF3008008BD00000000C7
:108BCC000000000008B5FFF7DFFFFEF7B3FA014B1A
:108BDC00186008BD18E703200248034A0349121A1B
:108BEC0000F020BB00F4032004F4032010AA0D00B5
:108BFC0007B5002300931A466FF07701FEF7A6FC29
:108C0C0003B05DF804FB000007B543880A2B08D0BD
:108C1C00502B09D1094B1B683BB103B05DF804EB39
:108C2C001847FFF7E5FF06E0002300931A466FF0A4
:108C3C007701FEF78BFC03B05DF804FB10E7032013
:108C4C0038B5104C104D2368AB42104B0CBF0122B1
:108C5C0000221A7002D0FFF7BFFF2560FEF75AFA08
:108C6C00044600F0F3FA0A4B13B12046AFF3008030
:108C7C0000210748FEF7C4FC00210648BDE8384037
:108C8C00FEF75ABC00F403201E1C279A14E703209D
:108C9C0000000000158C0D0008B5024B1B681B680A
:108CAC00019308BD5C02030008B5024B1B685B68AE
:108CBC00019308BD5C02030008B5024B1B689B685E
:108CCC00019308BD5C02030010B5044600F008F9DE
:108CDC00FFF73AFC28B1A4F10B03022B01D80020BA
:108CEC0010BD00F0D7F8FFF73AF908B1012CF6D90E
:108CFC00FFF75EFEFFF758FE18B1A4F10903012B34
:108D0C00EDD9232C8CBF0020012010BD232838B5B1
:108D1C0004460D460AD8FF2908D0FFF7D5FF28B125
:108D2C0029462046BDE83840FEF74CBA38BD38B568
:108D3C0004460D46FEF74EFAFF2810D0062804D83C
:108D4C004D2323FA00F0C30709D42046FFF7BCFFDC
:108D5C0028B129462046BDE83840FEF743BA38BD55
:108D6C0010B50446FEF736FA0438C0B2012808D90B
:108D7C002046FFF7A9FF20B12046BDE81040FEF7C2
:108D8C0039BA002010BD0D2810B504469CBF0E3416
:108D9C00A4B22046FFF798FF50B103212046FEF7FE
:108DAC0009FA032804D12046BDE81040FEF742BA68
:108DBC00002010BD38B504460D46FFF785FFF0B115
:108DCC0004212046FEF7F6F9042805D1A9B2204665
:108DDC00BDE83840FEF726BA02212046FEF7EAF934
:108DEC0002280CD12046FEF7F5F9012801D0042801
:108DFC0005D129462046BDE83840FEF723BA38BDD8
:108E0C0070B504460D461646FFF75EFF98B1022179
:108E1C002046FEF7CFF902280DD12046FEF7DAF9ED
:108E2C00012801D0042806D1324629462046BDE847
:108E3C007040FEF70FBA70BD10B5074C2368DB0706
:108E4C0008D42046FBF727F920B1FEF783F920461A
:108E5C00FBF726F9014810BD1CE7032020E703208F
:108E6C0070B5044614252A46094E002100F0E5F998
:108E7C00258020253146A5602561284600F06FF835
:108E8C0031466060284600F06AF8E060204670BD0C
:108E9C006CA80D0030B50E4D296811F0010487B097
:108EAC0013D12846FBF7F7F878B101A8FFF7D8FFE4
:108EBC0001AA21460748FEF7F3FF2846FBF7F0F816
:108ECC00054A0649034800F02BF8024807B030BDAC
:108EDC0024E7032028E703201CC90320557E0D003E
:108EEC0038B50B4D296811F001040FD12846FBF75A
:108EFC00D2F858B121460748FFF718FB2846FBF774
:108F0C00CFF8054A0549034800F00AF8014838BD76
:108F1C0048E703203CE703201CC9032029850D00EA
:108F2C000B460146184600F06FB9FBF7B0B80000CD
:108F3C00024B1868BFF35F8F704700BF4CE70320EC
:108F4C0010B5002814BF044601242046FEF7B0FBE0
:108F5C0020B9FFF7EDFF08B18047F6E710BDFFF72A
:108F6C00EFBF08B5FEF7CCFB244B1A68D0075CBFEB
:108F7C0001221A60224B1A68D1075CBF01221A60C9
:108F8C00204B1A68D2075CBF01221A601E4B1A686C
:108F9C00D0075CBF01221A601C4B1A68D1075CBF5A
:108FAC0001221A601A4B1A68D2075CBF01221A60A0
:108FBC00184B1A68D0075CBF01221A60164B1A684E
:108FCC00D1075CBF01221A60144B1A68D2075CBF30
:108FDC0001221A60124B1A68D0075CBF01221A607A
:108FEC00104B1A68D1075CBF01221A600E4B1A682D
:108FFC00D2075CBF01221A60704700BF7CE70320D8
:10900C0078E7032074E7032070E703206CE7032064
:10901C0068E7032064E7032060E703205CE7032094
:10902C0058E7032054E7032050E70320184B1A6835
:10903C00D1075CBF01221A60164B1A68D2075CBFBD
:10904C0001221A60144B1A68D0075CBF01221A6007
:10905C00124B1A68D1075CBF01221A60104B1A68B8
:10906C00D2075CBF01221A600E4B1A68D0075CBF96
:10907C0001221A600C4B1A68D1075CBF01221A60DE
:10908C000A4B1A68D2075CBF01221A60704700BFF6
:10909C009CE7032098E7032094E7032090E7032044
:1090AC008CE7032088E7032084E7032080E7032074
:1090BC00184B1A68D1075CBF01221A60164B1A684C
:1090CC00D2075CBF01221A60144B1A68D0075CBF30
:1090DC0001221A60124B1A68D1075CBF01221A6078
:1090EC00104B1A68D2075CBF01221A600E4B1A682B
:1090FC00D0075CBF01221A600C4B1A68D1075CBF09
:10910C0001221A600A4B1A68D2075CBF01221A604E
:10911C00704700BFBCE70320B8E70320B4E7032087
:10912C00B0E70320ACE70320A8E70320A4E7032063
:10913C00A0E70320244B1A68D0075CBF01221A60F9
:10914C00224B1A68D1075CBF01221A60204B1A68A7
:10915C00D2075CBF01221A601E4B1A68D0075CBF95
:10916C0001221A601C4B1A68D1075CBF01221A60DD
:10917C001A4B1A68D2075CBF01221A60184B1A6886
:10918C00D0075CBF01221A60164B1A68D1075CBF6E
:10919C0001221A60144B1A68D2075CBF01221A60B4
:1091AC00124B1A68D0075CBF01221A60104B1A6868
:1091BC00D1075CBF01221A600E4B1A68D2075CBF44
:1091CC0001221A60704700BFECE70320E8E7032098
:1091DC00E4E70320E0E70320DCE70320D8E70320E3
:1091EC00D4E70320D0E70320CCE70320C8E7032013
:1091FC00C4E70320C0E703200A22002100F050B985
:10920C000A22002100F04CB910B5054C13462CB1C4
:10921C000A4601460220AFF3008010BD204610BD67
:10922C000000000010B5431E0A44914204D011F80E
:10923C00014B03F8014FF8E710BD0244034693427B
:10924C0002D003F8011BFAE77047000038B5124B47
:10925C001C68A36B0546D3B91820FEF729FA43F214
:10926C000E33A06303804AF6CD33438041F234239E
:10927C0083804EF26D63C3804DF6EC63038105234E
:10928C0043810B23838101220023C0E90423A36BB8
:10929C0000221D615A6138BD18C9032010B5024661
:1092AC00134601321C78002CFAD1013B11F8012B2A
:1092BC0003F8012F002AF9D110BDC9B2034610F8EA
:1092CC00012B1AB19142F9D11846704700290CBFF5
:1092DC0018460020704710F8012B11F8013B012AA9
:1092EC0028BF9A42F7D0D01A7047034611F8012BC9
:1092FC0003F8012B002AF9D170470000024B0146FC
:10930C00186800F003B800BF18C9032070B50646F2
:10931C0008460C4600F00DF8451C29463046FEF771
:10932C00F7F9064618B12A462146FFF77BFF30466F
:10933C0070BD034613F8012B002AFBD1181A013813
:10934C00704730B582B1451E013915F8013F11F84F
:10935C00014FA34206D1EC431444E04201D0002B50
:10936C00F3D11C46181B30BD104630BD10B503465A
:10937C0042B111F8014B03F8014B013A002CF7D123
:10938C001A4400E010BD934202D003F8014BFAE7F7
:10939C0010BD00002DE9F04780464048D0F8009001
:1093AC000F463D4615F8014B09EB0400407800F0E0
:1093BC00080000F0FF0608B12F46F2E72D2C03D170
:1093CC00BD1C7C78012603E02B2C04BF7C78BD1CD3
:1093DC0013B1102B0AD15BE0302C57D1287800F058
:1093EC00DF0058284DD16C7810230235002E14BFA5
:1093FC004FF0004C6FF0004C0027BCFBF3FA3846E2
:10940C0003FB1ACC09EB040E9EF801E01EF0040FCE
:10941C0001D0303C0BE01EF0030E1BD0BEF1010F4F
:10942C000CBF4FF0370E4FF0570ECEEB0404A34297
:10943C0010DDB7F1FF3F0AD0504506D801D1644585
:10944C0003DC03FB0040012701E04FF0FF3715F868
:10945C00014BD7E77B1C0CD1002E4FF0220314BF1D
:10946C004FF000406FF00040C8F800302AB9BDE85A
:10947C00F08706B1404272B107B1691E1160BDE8B8
:10948C00F0873024002BB1D10823AFE70A23ADE7D6
:10949C00302CA3D0AAE7BDE8F08700BFB4C80320E6
:1094AC0013460A46014602480068FFF773BF00BF27
:1094BC0018C903201D400D0059400D0085400D00BA
:1094CC0089400D00000000000000000000000000BA
:1094DC00C9420D000D430D004D410D000000000070
:1094EC000000000059410D0075410D00B3400D0006
:1094FC0000000000963007772C610EEEBA510999E6
:10950C0019C46D078FF46A7035A563E9A395649E41
:10951C003288DB0EA4B8DC791EE9D5E088D9D29765
:10952C002B4CB609BD7CB17E072DB8E7911DBF90C1
:10953C006410B71DF220B06A4871B9F3DE41BE84E5
:10954C007DD4DA1AEBE4DD6D51B5D4F4C785D38341
:10955C0056986C13C0A86B647AF962FDECC9658AE5
:10956C004F5C0114D96C0663633D0FFAF50D088D41
:10957C00C8206E3B5E10694CE44160D5727167A2E5
:10958C00D1E4033C47D4044BFD850DD26BB50AA541
:10959C00FAA8B5356C98B242D6C9BBDB40F9BCAC65
:1095AC00E36CD832755CDF45CF0DD6DC593DD1ABC1
:1095BC00AC30D9263A00DE518051D7C81661D0BFE5
:1095CC00B5F4B42123C4B3569995BACF0FA5BDB841
:1095DC009EB802280888055FB2D90CC624E90BB1E5
:1095EC00877C6F2F114C6858AB1D61C13D2D66B641
:1095FC009041DC760671DB01BC20D2982A10D5EFA5
:10960C008985B1711FB5B606A5E4BF9F33D4B8E800
:10961C00A2C9077834F9000F8EA8099618980EE1A4
:10962C00BB0D6A7F2D3D6D08976C6491015C63E600
:10963C00F4516B6B62616C1CD83065854E0062F224
:10964C00ED95066C7BA5011BC1F4088257C40FF580
:10965C00C6D9B06550E9B712EAB8BE8B7C88B9FCA4
:10966C00DF1DDD62492DDA15F37CD38C654CD4FB00
:10967C005861B24DCE51B53A7400BCA3E230BBD4A4
:10968C0041A5DF4AD795D83D6DC4D1A4FBF4D6D300
:10969C006AE96943FCD96E34468867ADD0B860DAA4
:1096AC00732D0444E51D03335F4C0AAAC97C0DDD00
:1096BC003C710550AA41022710100BBE86200CC924
:1096CC0025B56857B3856F2009D466B99FE461CE80
:1096DC000EF9DE5E98C9D9292298D0B0B4A8D7C7A4
:1096EC00173DB359810DB42E3B5CBDB7AD6CBAC000
:1096FC002083B8EDB6B3BF9A0CE2B6039AD2B1741C
:10970C003947D5EAAF77D29D1526DB048316DC7377
:10971C00120B63E3843B64943E6A6D0DA85A6A7A1B
:10972C000BCF0EE49DFF099327AE000AB19E077D77
:10973C0044930FF0D2A3088768F2011EFEC206699B
:10974C005D5762F7CB67658071366C19E7066B6EF7
:10975C00761BD4FEE02BD3895A7ADA10CC4ADD671B
:10976C006FDFB9F9F9EFBE8E43BEB717D58EB06077
:10977C00E8A3D6D67E93D1A1C4C2D83852F2DF4F1B
:10978C00F167BBD16757BCA6DD06B53F4B36B24877
:10979C00DA2B0DD84C1B0AAFF64A0336607A04411B
:1097AC00C3EF60DF55DF67A8EF8E6E3179BE694677
:1097BC008CB361CB1A8366BCA0D26F2536E268529B
:1097CC0095770CCC03470BBBB91602222F260555F7
:1097DC00BE3BBAC5280BBDB2925AB42B046AB35C1B
:1097EC00A7FFD7C231CFD0B58B9ED92C1DAEDE5B77
:1097FC00B0C2649B26F263EC9CA36A750A936D025B
:10980C00A906099C3F360EEB8567077213570005B6
:10981C00824ABF95147AB8E2AE2BB17B381BB60CDA
:10982C009B8ED2920DBED5E5B7EFDC7C21DFDB0B36
:10983C00D4D2D38642E2D4F1F8B3DD686E83DA1F5A
:10984C00CD16BE815B26B9F6E177B06F7747B718B6
:10985C00E65A0888706A0FFFCA3B06665C0B01115A
:10986C00FF9E658F69AE62F8D3FF6B6145CF6C16B6
:10987C0078E20AA0EED20DD75483044EC2B303395A
:10988C00612667A7F71660D04D476949DB776E3EB6
:10989C004A6AD1AEDC5AD6D9660BDF40F03BD837DA
:1098AC0053AEBCA9C59EBBDE7FCFB247E9FFB53036
:1098BC001CF2BDBD8AC2BACA3093B353A6A3B4245A
:1098CC000536D0BA9306D7CD2957DE54BF67D923B6
:1098DC002E7A66B3B84A61C4021B685D942B6F2A5A
:1098EC0037BE0BB4A18E0CC31BDF055A8DEF022DB6
:1098FC00524553504F4E5345207C2063616C6C6233
:10990C0061636B5F6275666665723A2025732C2005
:10991C0063616C6C6261636B5F636F6D706C6574BB
:10992C00653A202563004552524F52207C206361DA
:10993C006C6C6261636B5F6275666665723A20255A
:10994C00732C2063616C6C6261636B5F636F6D7011
:10995C006C6574653A202573005374616765206CDF
:10996C00696D6974207377697463682064657465C4
:10997C006374656400537461676520706F736974F8
:10998C00696F6E206174207A65726F005374616721
:10999C00652064697374616C206C696D69742072E4
:1099AC006561636865640054656D7065726174759A
:1099BC00726520636F6E74726F6C2073797374654B
:1099CC006D2073746172746564006272657669747B
:1099DC006573742D70726F64756374696F6E00506B
:1099EC0075626C6973683A206576656E74203D20EB
:1099FC0025732C2075756964203D202573005661F4
:109A0C006C69646174696E672063617274726964F5
:109A1C0067650076616C69646174652D636172744D
:109A2C0072696467650056616C69646174696F6E14
:109A3C00206661696C6564202D206E6F7420636FE5
:109A4C006E6E656374656420746F20746865206342
:109A5C006C6F7564002563256325385825632534A0
:109A6C0058256325345825632534582563253458E7
:109A7C00256300252E32347325632538582563253C
:109A8C00385825630025732C20256420706572637B
:109A9C00656E7420636F6D706C6574652C207465D5
:109AAC006D70203D2025642E25640053554343459D
:109ABC00535300546573742066696E6973686564EA
:109ACC0000546573742066696E69736820666169F9
