:02000002D0002C
:1040000000400D008CAE0D00000006000C00050104
:084010000401DE0500000000C0
:0440180070970D0090
:10401C0009480A49884208B505D0094A824202D0AB
:10402C00121A05F057FA0748074A0021121A05F030
:10403C005CFA014808BD00BF64C90320B4AD0D0093
:10404C0010CA032010CA0320F0E7032070B504F057
:10405C004FFF074C074BE41AA40800251E46A54247
:10406C0004D056F8253098470135F8E770BD00BFED
:10407C00B0AD0D0078AD0D0001F0D0B908B502F06F
:10408C00DDFFBDE8084004F0F5BE03F04FBC03F0C3
:10409C0055BC03F053BC0078B0FA80F0400970476F
:1040AC000123037070477047014B01221A7070474F
:1040BC0020CC0320034B044A1B7883F001031360CC
:1040CC00704700BF78CA0320DCCB0320014B0122D0
:1040DC001A707047B2DA032003681847012A02D01D
:1040EC00022A02D004E0016002E00B6800B1036018
:1040FC000020704737B50C460E480F4D05F026FAD8
:10410C00204605F06EFA204410F8013CA3F123027E
:10411C00534253412B7004F02BFE2B78074A002B93
:10412C0014BF59234E2300930121024B04F0E5FAEE
:10413C0003B030BDFCDA032054D40320AC9B0D003B
:10414C00436913B183690C301847704713B50021CC
:10415C000446084603F0D4F802A90023204641F88F
:10416C00043D03F0E5F8019C0CB1012323710021FF
:10417C00012003F0C5F82CB1236820469B689847B2
:10418C000023237102B010BD10B5054B002204466C
:10419C00114640F8043B03F0C3FA204610BD00BFA3
:1041AC00A0970D0010B50446FFF7EEFF2046202126
:1041BC0005F013F8204610BD37B50C460E480F4DD0
:1041CC0005F0C4F9204605F00CFA204410F8013C27
:1041DC00A3F12302534253412B7004F0C9FD2B78F9
:1041EC00074A002B14BF59234E2300930121024B85
:1041FC0004F083FA03B030BDFCDA032054D403205E
:10420C00E29B0D0010B58368044613B103220146EE
:10421C009847204610BD000008B503F0C9F8034BC1
:10422C001860BDE8084003F0E9BA00BF18E70320A6
:10423C000368C9B29B681847F0B500258E4615492E
:10424C000571856045610160044692E8030085B004
:10425C0002AF04F10C0687E8030096E8030082E83D
:10426C00030097E8030086E803009168606990609A
:10427C006161D168A069D060A1618DE82800064A0F
:10428C002346714604F1080003F042F8204605B0BD
:10429C00F0BD00BF8C970D0059410D0007B580682B
:1042AC00002340B18DE80A001A46022103F048F8B9
:1042BC00B0FA80F0400903B05DF804FB38B50F4B41
:1042CC000360836804469BB16FF00041FFF7E6FF83
:1042DC000021A06803F04CF8237903F0FF0513B11B
:1042EC0002F0F6FFF8E72946A06803F019F8A5607C
:1042FC0004F10C00FFF786FF204638BD8C970D00AB
:10430C0010B50446FFF7DAFF20461C2104F065FFC8
:10431C00204610BD73B506460D4611461446FFF7F0
:10432C00BDFFB068002340B10193009522461946A9
:10433C0003F006F8B0FA80F0400902B070BD00003E
:10434C0040F67263984270B51CDC0F4A002352F899
:10435C00044BA04203F101050FDC116888420CDD0F
:10436C000A4E56F8232056F825309D1A031B6B4332
:10437C00081B93FBF0F0104470BD142D2B46E6D1B6
:10438C00002070BD184670BD28A90D00D4A80D00E2
:10439C001FB50C2AA8BF0C22014401A8144605F035
:1043AC003DF904AB1C4401A8002304F80C3C05F0B7
:1043BC007BF804B010BD7FB500231E460EB90E2B42
:1043CC000ED00C68055D954208BF002504F1010470
:1043DC000DF803500CBF0126002601330C60EDE7ED
:1043EC00684605F061F804B070BD000010B5084CCB
:1043FC0001444FF0FF32884208D010F8013B534083
:10440C00DBB254F8233083EA1222F4E7D04310BD18
:10441C00AC970D00021E30B516DB9110022329B1AA
:10442C00914203D0023342FA03F1F8E7023B002039
:10443C004000411C42FA03F401FB01F5A542D8BF30
:10444C000846023BF4D530BD4FF0FF3030BD0000C4
:10445C0008B504F049FE4FF4697203490020BDE829
:10446C00084002F0BDBF00BF78D4032008B504F0AB
:10447C003BFE4FF4697203490020BDE8084002F08E
:10448C00B7BF00BF78D4032008B504F02DFEBDE8FB
:10449C00084002F0B5BF000008B5FFF7F5FF044B6C
:1044AC000B221A700D225A70FF229A7008BD00BFA1
:1044BC0078D4032007B504F017FE01220DF1070193
:1044CC00002002F08DFF9DF80730FF2B02D1FFF783
:1044DC00E3FF07E0FFF7BCFF044B1A8840F60B53D1
:1044EC009A42F4D103B05DF804FB00BF78D40320EA
:1044FC00012870B50E461D4D1BD11D4B188804F0BC
:10450C0087FD044640B904F033FC1A4904F0CBF89B
:10451C00194B2C601C6016E02B68002B15DC04F08A
:10452C0027FC164904F0BFF8134B002028601860D4
:10453C0070BD2A684AF227039A4206DD04F018FC83
:10454C000F4904F0B0F8002070BD0E4C01212088FA
:10455C0004F045FD304602F023FF0021208804F0D2
:10456C003EFD304602F01CFF012070BDB4DA032082
:10457C0094C90320159C0D00E0CB0320319C0D0049
:10458C00489C0D0090C903202DE9F84F1C4BDFF817
:10459C007890C70F044688461888394604F01FFDEA
:1045AC00184B84EAE4711A68A1EBE47111441922E6
:1045BC00002C91FBF2F64FF0000402FB16121A606D
:1045CC00B4BF6FF0180A4FF0190A1D46A346B44247
:1045DC0013DA41463846FFF78BFF58B1D9F8003053
:1045EC005344002B02DDC9F8003004E0C9F800B0D8
:1045FC00C5F800B034460134E9E7BDE8F88F00BFD8
:10460C006CC90320E0CB0320B4DA0320024B002159
:10461C00188804F0E4BC00BFA0C9032008B5054B02
:10462C000121188804F0DBFC0A20BDE8084003F0E7
:10463C00B5B900BFA0C9032038B504460D46FFF735
:10464C00EDFF29462046FFF79FFFBDE83840FFF7F6
:10465C00DDBF0000134B10B54AF228021A60044665
:10466C00FFF7DCFF96211048FFF78EFF642003F064
:10467C0095F996214FF4FA60FFF786FF642003F05A
:10468C008DF94FF47A710948FFF77EFF4FF47A7178
:10469C0042F63020FFF778FF1CB1BDE81040FFF761
:1046AC00B5BF10BDB4DA0320A015FFFF48F4FFFF1F
:1046BC002DE9F04106460D469046002447424445FC
:1046CC0009DA29463046FFF75FFF29463846FFF7DF
:1046DC005BFF0134F3E7BDE8F08100002DE9F74FF3
:1046EC001E4D009392462B681D4F80EAE072A2EBA0
:1046FC00E0721A441923002892FBF3F64FF00004E1
:10470C0003FB16232B6089464FEAD078B4BF6FF0B9
:10471C00180B4FF0190B2346B44201931ADA0C9A7A
:10472C0000995046FFF7C4FF0E4B4146188804F021
:10473C0056FC49464046FFF7DBFE019B38B13A6810
:10474C005A44002A01DD3A6002E03B602B6034469B
:10475C000134E1E703B0BDE8F08F00BFE0CB0320EC
:10476C00B4DA03206CC9032038B5064C80F3080575
:10477C0044F620622946208804F09AFC0123E56067
:10478C00237238BD14CA032010B5044C00212088B4
:10479C0004F068FC00232372E36010BD14CA0320EC
:1047AC0070B5044602F004FE0F4D84F3080406466F
:1047BC0044F620622146288804F07AFC002C14BFB1
:1047CC0001230023EC602B7209D0084B1B7833B10A
:1047DC0004F0CEFA2346064A012103F08EFF02F0C4
:1047EC00E7FD801B70BD00BF14CA032051CC032011
:1047FC00639C0D00024B0146188804F033BC00BFCB
:10480C0064C90320024B0146188804F02BBC00BF7E
:10481C0070C90320024B0146188804F023BC00BF6A
:10482C0074C903200346412B084601D1FFF7E2BFB0
:10483C00312B01D1FFF7E6BF322B01D1FFF7EABFD5
:10484C0070470000024B0021188804F00BBC00BF1D
:10485C0064C90320024B0021188804F003BC00BF7C
:10486C0070C90320024B0021188804F0FBBB00BF69
:10487C0074C90320412801D1FFF7E4BF312801D1CD
:10488C00FFF7E8BF322801D1FFF7ECBF704710B536
:10489C0004460846FFF7AEFF204603F07FF8BDE85C
:1048AC001040FFF7CFBF10B504460846FFF7AAFF2C
:1048BC00204603F073F8BDE81040FFF7CBBF10B5EE
:1048CC0004460846FFF7A6FF204603F067F8BDE84C
:1048DC001040FFF7C7BF38B50C4605460846FFF732
:1048EC0089FF2046FFF78EFF2046FFF793FF2846EF
:1048FC0003F054F8FFF7A6FFFFF7ACFFBDE8384014
:10490C00FFF7B0BF08B504F01DFC03F066FC88B9D6
:10491C0004F018FC084903F013FC04F013FC03F03A
:10492C0013FC642003F03AF804F00CFCBDE80840DA
:10493C0003F053BC08BD00BFA086010008B504F00D
:10494C0001FCBDE8084003F005BC000008B5074BAE
:10495C00074800226FF00041DA61FFF7DBFC04F03E
:10496C0007FA0449BDE8084003F09DBE14CA0320B1
:10497C00E4CB03207A9C0D0008B56FF0004106488B
:10498C00FFF78CFC0020FFF70BFF04F0F1F9034953
:10499C00BDE8084003F087BEE4CB03209D9C0D00CE
:1049AC0038B5114C0021208804F05CFBA08804F081
:1049BC0042FBE1680546208804F054FB1DB9FFF763
:1049CC00DBFF00250EE02846FFF7BAFC052200EBC2
:1049DC00C003B0F5167F93FBF2F303F5A0732062CE
:1049EC00A362ECDC284638BD14CA03202DE9F04341
:1049FC002F4E8BB0F56802F0DBFCF769C7EB0009B2
:104A0C00B9F57A7F804634464ED3FFF7C9FFC6F816
:104A1C001C808046002847D017B97761B76143E006
:104A2C00336A776AB569E26AFF1A4FF47A7107FB49
:104A3C0009F393FBF1F31D44B5617669636BBE1BFF
:104A4C006B434E437A43216BA56B92FBF1F193FBC5
:104A5C00F5F56A18E56B236C96FBF9F6754395FB37
:104A6C00F3F5144B1B781544EBB104F081F9D4F831
:104A7C0020E0636A08950796A16906910A2293FBC8
:104A8C00F2F102FB113303939EFBF2F302FB13E2F0
:104A9C000291019200930597CDF810904346064A77
:104AAC00012103F02AFE676128460BB0BDE8F083B4
:104ABC0014CA032051CC0320E09C0D00F0B5054630
:104ACC0099B00E460168314804F067FD304A31490F
:104ADC0000231370304A04A8137003F0BDFE29465E
:104AEC000CA8049C03F0F7FE7C2108A803F017FF28
:104AFC0008A90CA803F03BFF3146074610A803F0A9
:104B0C00ABFE10A9384603F032FF2321074614A848
:104B1C0003F005FF14A9384603F029FF1F4B026868
:104B2C0019781F4B1B780B438DF8003021463C2322
:104B3C0002A803F007F9039C7CB16368013B636036
:104B4C005BB9236820469B689847A368013BA36028
:104B5C001BB923682046DB68984714A803F035FE80
:104B6C0010A803F032FE08A803F02FFE0CA803F0E7
:104B7C002CFE04A803F029FE04F0FAF800962B682A
:104B8C00084A012103F0B9FD19B0F0BD90DA0320F9
:104B9C0054D40320499D0D00FCDA032080CA032065
:104BAC00B8CA03205E9D0D007FB504F0E1F81449EE
:104BBC00144E154D03F077FD02F038FE0446B0B1EB
:104BCC000123337002F0F4FB104B114900F51C501B
:104BDC0010301860002368462B7003F03DFE6846C9
:104BEC000C49FFF76BFF684603F0EFFD06E004F09D
:104BFC00BFF8094903F057FD34702C7004B070BD38
:104C0C007D9D0D0095CA03203CD40320E4CA0320EB
:104C1C00929D0D00BCDA0320A59D0D00072210B556
:104C2C000C490D4804F0E5FC0C4B041E0CBF012292
:104C3C0000221A7007D104F09BF8094903F033FDE8
:104C4C00084B1C7010BD04F093F80749BDE81040E8
:104C5C0003F029BDD49D0D00C5CA032079CA0320D9
:104C6C00DC9D0D00E0CA0320E99D0D00F8B50C4F4A
:104C7C0006460024251D3D4429461822304604F0E2
:104C8C00B8FC014638B92846E82204F02EFCBDE8F1
:104C9C00F840FFF7EBBBE834B4F5687FEAD1F8BD18
:104CAC0078D40320F0B50024084F4454851A1446D8
:104CBC00A01A884204F1010007DAE65D9E4208BFA3
:104CCC0000262E5501D00446F2E7F0BDFCDA032095
:104CDC0038B5074C0749E822054602FB0040043072
:104CEC0004F0F8FBA570BDE83840FFF7BFBB00BF70
:104CFC0078D40320ECCA032010B58AB03A230A7882
:104D0C000993CB8908932C2307938C8906940593DC
:104D1C004C89049403930C8902940193044C4968C4
:104D2C0000912044034902F019FE0AB010BD00BFE7
:104D3C001CD80320FC9D0D002DE9FF41154EE825E4
:104D4C00454372193A230393516A02910193116AF4
:104D5C00009104321049114802F000FE002407466D
:104D6C0005F12C086319334493F82C30412B02D0F5
:104D7C00313B012B06D808EB040138463144FFF7D0
:104D8C00BBFF07441034C02CECD1012004B0BDE8AB
:104D9C00F08100BF78D403201A9E0D001CD803208C
:104DAC0010B5084B9C78FF2C1ABF013404F0030497
:104DBC0000242046FFF78CFF2046BDE81040FFF78B
:104DCC00BBBF00BF78D4032070B5184B1B780E46C0
:104DDC0053BB174B1A18927C32B30A2A24D0092AD7
:104DEC001FD00446B4F5FA6F1DDA1A19927C32B949
:104DFC00221A01460F48FFF7CBFA306013E00A2A5B
:104E0C00F6D0092A04F1010507D1221A01460948F6
:104E1C00FFF7BEFA3060284670BD2C2AF5D02C4620
:104E2C00E0E7013070BD204670BD00BFB1DA032051
:104E3C0054CC032066CC032070B50029054688B0FD
:104E4C001F48204C01D101601BE01F4BDA684FF466
:104E5C007A7303FB02F207DA4FF0FF3323601B4B2C
:104E6C00026000221A600DE003681944642301609B
:104E7C00594391FBF2F19942A8BF19462368994214
:104E8C0000D0216003F074FF2946064604A803F005
:104E9C0022FD0F4B196A0A2391FBF3F203FB121349
:104EAC0002932368019200930A4A04AB0121304615
:104EBC0003F023FC04A803F088FC08B070BD00BF0D
:104ECC00BCCA032040D4032054CC0320D8CA0320EE
:104EDC0014CA03202C9E0D0010B502F069FA04468A
:104EEC00FFF784FDFFF75CFCFFF796F902F060FA20
:104EFC00001B10BD10B50446FFF7EEFFA04204DA0C
:104F0C00201ABDE8104002F049BD10BDF0B51646A0
:104F1C004A1C85B007460D4602D133600C4621E091
:104F2C000A462C2103F059FD431C04460CD12A4699
:104F3C003946684603F080FD684603F084FD306016
:104F4C00684603F042FC0DE003462A4639466846A3
:104F5C0003F052FD684603F076FD3060684603F0BE
:104F6C0034FC0134204605B0F0BD000010B5012022
:104F7C00FFF7C8FC18B9BDE81040FFF7DFBC03F021
:104F8C00F7FE0F4903F08FFB002404F0DBF82146F9
:104F9C0003F019F904F0D6F80021FFF749F904F0F1
:104FAC00D1F803F017F930B903F0E2FE2346054AB5
:104FBC00012103F0A2FB01347F2CE6D1DBE700BF1B
:104FCC00529E0D00709E0D00134A144908B5002323
:104FDC001370134A0B701370124A0B721370124A2F
:104FEC001370124A1370124A1360124A1360124A59
:104FFC0013701376114A1370137682F82430104A0A
:10500C00137082F86E3202F0D3F90E4B00F56A4041
:10501C006030186008BD00BF7BCA032054CC03204D
:10502C0079CA03203CD4032054D4032078CA03202B
:10503C00BCCA032040D40320BCDA0320ECCA0320F2
:10504C001CD80320C0CA032010B507220D490E48F6
:10505C0004F0CFFA044670B903F08AFE0B4903F052
:10506C0022FB0B4B01201C70FFF7F4FAFFF7ACFF8F
:10507C00084B1C6010BD03F07BFE0749BDE81040D7
:10508C0003F011BBD49D0D00C5CA03208F9E0D00EB
:10509C0050CC0320C0CA03209D9E0D0010B50722E2
:1050AC000D490E4804F0A5FA044670B903F060FEF1
:1050BC000B4903F0F8FA0B4B01201C70FFF7CAFAEE
:1050CC00FFF782FF084B1C6010BD03F051FE07492F
:1050DC00BDE8104003F0E7BAD49D0D00C5CA03200B
:1050EC00B19E0D00D8CB0320C0CA0320C09E0D007A
:1050FC001FB503F03DFE0E4903F0D5FA0D4B01220E
:10510C001A7002F055F90C4B00F59C4020301860D9
:10511C00FFF784FA0949684603F09EFB0849684684
:10512C00FFF7CCFC684603F050FB05B05DF804FBC0
:10513C00D49E0D00E0CA03207CCA0320E29E0D0021
:10514C00ECCA03201FB5154C03F012FE214603F0E8
:10515C00AAFA134B01221A7002F02AF9114B00F52E
:10516C001C50103018602146684603F075FB4FF058
:10517C00FF316846FFF760FE684603F026FB0A49DC
:10518C00684603F069FB09496846FFF797FC6846D7
:10519C0003F01BFBFFF73AFA04B010BDB19E0D00F3
:1051AC00D8CB032074CA0320ED9E0D00ECCA03205B
:1051BC001FB503F0DDFD144903F075FA134B012202
:1051CC001A7002F0F5F8124B124900F51C50103011
:1051DC001860684603F040FB4FF0FF316846FFF75C
:1051EC002BFE684603F0F1FA0B49684603F034FBDA
:1051FC000A496846FFF762FC684603F0E6FAFFF7D7
:10520C0005FA05B05DF804FBF99E0D0050CC0320A7
:10521C00DCCA0320089F0D00169F0D00ECCA03206A
:10522C0070B50E460446154603F0C8FE012E05D196
:10523C0029462046BDE8704003F014BF70BD70B520
:10524C000E460446154603F0B9FE012E05D129463B
:10525C002046BDE8704003F0C2BE70BD30B50023DF
:10526C008BB0042253495448544D02F0B7FA544AB7
:10527C005449554802F046FC06A802F0DFFA06A98C
:10528C00284603F033FB06A803F09FFA294602A830
:10529C0003F021FB4D4902A803F075FB00240146E5
:1052AC0006A803F018FB23462246494901940094B2
:1052BC00069802F0D3FA06A803F087FA02A803F0C6
:1052CC0084FA294602A803F006FB424902A803F01F
:1052DC005AFB014606A803F0FEFA224623463E4935
:1052EC0001940094069802F0B9FA06A803F06DFA3E
:1052FC0002A803F06AFA394B0221188803F05EFE0B
:10530C00374B0221188803F059FE364B0122114607
:10531C001888FFF794FF344B2146188803F04EFE93
:10532C00324B224618880121FFF77AFF304B224678
:10533C0018880121FFF774FF2E4B22461888012193
:10534C00FFF76EFF2C4B2146188803F037FE2B4BD2
:10535C002146188803F032FE294B2146188803F0A9
:10536C002DFE284B224618880121FFF768FF264B9B
:10537C00224618880121FFF762FF244B2246188829
:10538C000121FFF75CFF224B802218880121FFF7D7
:10539C0047FF204B224618880121FFF741FF1E4B87
:1053AC00224601211888FFF73BFFFFF783F80BB06B
:1053BC0030BD00BF1CD80320229F0D0044D4032015
:1053CC002B9F0D00356C0D00E57A0D00349F0D0000
:1053DC0001410D00599F0D00C5410D0094C90320DA
:1053EC007CC9032098C903209CC9032064C90320ED
:1053FC0070C9032074C9032088C903208CC90320F9
:10540C0080C90320A0C9032090C903206CC90320C4
:10541C0078C9032084C9032068C9032008B5FFF7A5
:10542C001DFF03F0A5FC4FF4E13103F095FC034B99
:10543C0001221A70024B00221A6008BDC4CA032054
:10544C00D4CB032030B5144B144D1A7885B01C46C0
:10545C0022B101F0ADFF2B6883421AD201F0A8FFF4
:10546C0000F5EA403030286041F2883002F096FABC
:10547C0002F0DCF968B1012309492370684603F096
:10548C00EBF9084B68461968FFF718FB684603F000
:10549C009CF905B030BD00BF7ACA0320D4CB0320E1
:1054AC007B9F0D0044D4032007B5009313460A4696
:1054BC00012103F022F903B05DF804FB38B50A4B67
:1054CC001B7804460D4633B103F052FC2B462246A2
:1054DC000649FFF7E9FF064B2A4621461878BDE836
:1054EC00384003F027BB00BF51CC03208B9F0D002D
:1054FC0084C9032008B5FA214FF48370FFF7DEFF4F
:10550C00322002F04BFAFA214FF49370FFF7D6FFDA
:10551C00322002F043FAFA214FF4A570FFF7CEFFC8
:10552C00322002F03BFAFA2140F25D10FFF7C6FF81
:10553C00322002F033FAFA214FF4C470FFF7BEFFA9
:10554C00322002F02BFAFA214FF4DC70FFF7B6FF91
:10555C00322002F023FAFA214FF4F770FFF7AEFF76
:10556C00322002F01BFAFA2140F20B20BDE8084071
:10557C00FFF7A4BF2DE9F341284A00230193044609
:10558C00034600F11807164618685968154603C5F6
:10559C000833BB422A46F7D1214D206861682B465F
:1055AC0003C34FF0000801A97C22204686F8248012
:1055BC00FEF701FF01A968727C222046FEF7FBFE74
:1055CC0001A907467C222046FEF7F5FE01A9E860FA
:1055DC007C222046FEF7EFFE0199288286B23246E5
:1055EC00214405F1120004F019F8AB19314605F10C
:1055FC00120083F81280FEF7F9FE80EAE074A4EB47
:10560C00E07403F0B5FB23463A460649FFF74CFF1E
:10561C003B1B5842584102B0BDE8F081ECCA032054
:10562C0054CC0320BD9F0D0073B5044603F08AFDD6
:10563C00214602F0C4FD03F085FD0021FEF7F8FDC4
:10564C00064603F07FFD002102F0C0FD054630B197
:10565C0003F08EFB2B4632461549FFF725FF03F06E
:10566C0071FD2146042202F0A7FD03F06BFD0368D7
:10567C005B699847044603F065FD03685B699847CE
:10568C000C4B1B78054643B103F072FBE3B200935D
:10569C00094AEBB2012103F030F86A0704D4E0B2F6
:1056AC00C31E5842584100E0002002B070BD00BF3C
:1056BC00D59F0D0051CC0320F69F0D007FB5124BEA
:1056CC001C680D46041B06461049684603F0C4F8D6
:1056DC0084EAE473A3EBE4736B43684646F2A811C7
:1056EC0093FBF1F1FFF7A8FB684603F06EF803F0AB
:1056FC003FFB234632460649FFF7D6FE2946204695
:10570C00FEF742FF04B070BDB4DA03200CA00D000C
:10571C0027A00D00962144F25060FFF7CFBF9621D1
:10572C0042F63020FFF7CABF13460A46012102F0A9
:10573C00E4BF00002DE9F347444C23780646884625
:10574C0015462BB103F014FB32464149FFF7ECFF31
:10575C0003F0F8FC294602F036FD03F0F3FC0021BF
:10576C00FEF766FD824603F0EDFC0221FEF760FDBC
:10577C00074603F0E7FC012102F028FD814650B1F9
:10578C00574403F0F5FACDF8049000973346314AAC
:10579C00012102F0B2FF03F0D5FC294602F013FD03
:1057AC0003F0D0FC0621FEF743FD824603F0CAFC51
:1057BC0003685FFA88F19B689847074603F0C2FCC0
:1057CC00012102F003FD814650B1574403F0D0FA99
:1057DC00CDF80490009733461E4A012102F08DFF4C
:1057EC0003F0B0FC294602F0EEFC03F0ABFC062102
:1057FC00FEF71EFD074603F0A5FC002102F0E6FCB7
:10580C00064630B103F0B4FA33463A461249FFF774
:10581C004BFE03F097FCE9B2012202F0CDFC0546E9
:10582C0003F090FC03685B699847237806464BB1FC
:10583C0003F09EFA0196CDF800802B46074A012111
:10584C0002F05BFF02B0BDE8F08700BF51CC032033
:10585C0052A00D0070A00D00D59F0D0097A00D005B
:10586C002DE9F341534D544E544F01232B7003F04B
:10587C007FFA534902F017FF03F0D8F94FF4165191
:10588C0003F0CAF903F074FA4E4902F00CFF002140
:10589C00308803F0A4FB01F08BFD00F59C5403F061
:1058AC0067FA494902F0FFFE0834388803F0B0FB70
:1058BC00804603F05DFA2E2102F0E6FEFEF7ACFC0A
:1058CC00C82002F06BF8B8F1010F03D001F070FDA5
:1058DC00A042EAD303F04CFA074603F0A7F9036899
:1058EC001B699847002814BF59224E223749384665
:1058FC00FFF71AFF0121308803F071FB03F038FA2F
:10590C00334902F0D0FE03F091F903681B69984704
:10591C0030B901F04DFD844202D9FEF77DFCF2E76F
:10592C00642002F03BF803F023FA2A492A4E02F0D5
:10593C00BAFE002403F01CFA2E2102F0A5FE03F09F
:10594C0075F903685B699847431C1CBF30550134DB
:10595C0003F06CF903681B69984708B1172CE9DD53
:10596C0003F006FA02F093FE172C1B4A09DC1B4BC2
:10597C00114603F1180053F8046B41F8046B834291
:10598C00F9D10026167603F0F3F9134B144A009460
:10599C00012102F0B2FE03F049F903F040F903F0E3
:1059AC00E7F9104902F07FFE20462E7002B0BDE8E8
:1059BC00F08100BF21CC032098C903209CC903208F
:1059CC00BAA00D00CDA00D00E4A00D00F5A00D00B7
:1059DC001EA10D007CA10D00BCDA032034A10D002A
:1059EC004DA10D0065A10D0070B590B000250146CC
:1059FC0006460CA80795089509950A950B9502F093
:105A0C006AFF2B4606AA29460CA8FFF77FFA044624
:105A1C000CA802F0DAFE069B023B202B00F28F82D0
:105A2C00DFE813F02100250054008D027F00840074
:105A3C009F00A400C600E70009012A014C016F0178
:105A4C0074018E019301A401A701AA01AD01B1015A
:105A5C008D028D028D02B401CC01FF0106028D0274
:105A6C008D020A023A020120FEF7F4FD64E231468F
:105A7C000CA802F030FF002307AA21460CA8FFF760
:105A8C0045FA04460CA802F0A0FE31460CA802F020
:105A9C0022FF4FF47A7308AA21460CA8FFF736FAB6
:105AAC000CA802F092FE08990798BA4CFEF7C4FDB8
:105ABC0003F05EF9B84BB94A1B6801932368009355
:105ACC000121079B02F019FE246839E2FEF7A6FDBE
:105ADC00FFF720FEFEF79AFD31460CA802F0FBFE04
:105AEC00B62307AA21460CA8FFF710FA04460CA807
:105AFC0002F06BFE31460CA802F0EDFEFF2308AA63
:105B0C0021460CA8FFF702FA0CA802F05EFEA44B8B
:105B1C00079C1C60A34B089A1A60A34B01221A70B5
:105B2C000EE2FEF7B1FC02F0A7FF7FE131460CA8B4
:105B3C0002F0D1FE07AA21464FF4B9730CA8FFF767
:105B4C00E5F90CA802F041FE03F012F9974B196A23
:105B5C000A2391FBF3F203FB12139549FFF7A4FC04
:105B6C0024E0FEF799FC934B5C78E9E131460CA8F4
:105B7C0002F0B1FE4FF4FA7307AA21460CA8FFF706
:105B8C00C5F904460CA802F020FE31460CA802F020
:105B9C00A2FE2146FF2308AA0CA8FFF7B7F90CA810
:105BAC0002F013FE08990798FEF771FE079CC7E1F7
:105BBC0031460CA802F08FFE07AA4FF4FA73214667
:105BCC000CA8FFF7A3F904460CA802F0FEFD314621
:105BDC000CA802F080FE2146FF2308AA0CA8FFF7B0
:105BEC0095F90CA802F0F1FD08990798FEF75BFEF9
:105BFC001FE031460CA802F06EFE4FF4FA7307AAB0
:105C0C0021460CA8FFF782F904460CA802F0DDFD32
:105C1C0031460CA802F05FFE2146FF2308AA0CA80F
:105C2C00FFF774F90CA802F0D0FD08990798FEF75D
:105C3C0046FE089C84E131460CA802F04CFE07AAF3
:105C4C004FF4FA7321460CA8FFF760F904460CA830
:105C5C0002F0BBFD31460CA802F03DFE2146FF23AD
:105C6C0008AA0CA8FFF752F90CA802F0AEFD08998F
:105C7C000798FEF730FEDCE731460CA802F02BFE4D
:105C8C0007AA4FF4167321460CA8FFF73FF90446F8
:105C9C000CA802F09AFD31460CA802F01CFE21461D
:105CAC004FF47A7308AA0CA8FFF730F90CA802F08D
:105CBC008CFD08990798FFF701FC77E731460CA893
:105CCC0002F009FE07AA002321460CA8FFF71EF9D3
:105CDC0004460CA802F079FD31460CA802F0FBFD3D
:105CEC0021464FF47A7308AA0CA8FFF70FF90CA8F9
:105CFC0002F06BFDFEF792FC08990798FFF7DEFCAB
:105D0C0018E1FEF78BFCFFF70AFD13E131460CA8F6
:105D1C0002F0E1FD4FF4B97307AA21460CA8FFF776
:105D2C00F5F80CA802F051FD079C40F25623621EB8
:105D3C009A4200F205811D4B00225C62DA61FFE0A1
:105D4C00FEF76CFCFFF7E6FCF4E031460CA802F021
:105D5C00C2FD802307AA21460CA8FFF7D7F80CA890
:105D6C0002F033FD0798FEF7FFFC1FE7FEF70CFD72
:105D7C005CE0FEF7EBFD59E0FEF7FEFD56E00E4B46
:105D8C0001241C70DCE00C4B1D70D8E0FFF7EEF822
:105D9C004CE000BFB4DA0320E0CB032099A10D0046
:105DAC008CDA032038D4032020CC032014CA03201F
:105DBC00C8A10D0078D4032051CC0320FEF72EFC93
:105DCC00FFF7A8FCFEF722FC31460CA802F083FD7D
:105DDC0007AAB62321460CA8FFF798F804460CA88E
:105DEC0002F0F3FC31460CA802F075FD08AA21461E
:105DFC00FF230CA8FFF78AF80CA802F0E6FC5B4B1B
:105E0C0007995B4800221A705A4B19605A4B089933
:105E1C0019605A4B01246FF000411C70FEF77AFA9E
:105E2C008EE06FF000415248FEF738FA012487E00B
:105E3C00FFF716FD044683E031460CA802F04BFD3B
:105E4C0007AA192321460CA8FFF760F804460CA8F2
:105E5C0002F0BBFC31460CA802F03DFD08AA9623CB
:105E6C0021460CA8FFF752F804460CA802F0ADFC32
:105E7C0031460CA802F02FFD09AA21460A230CA8D2
:105E8C00FFF744F80CA802F0A0FCFEF7C7FB07A82C
:105E9C0007C8FEF70DFC4DE031460CA802F01BFDC7
:105EAC00002307AA21460CA8FFF730F804460CA8DB
:105EBC0002F08BFC31460CA802F00DFD4FF47A7306
:105ECC0008AA21460CA8FFF721F804460CA802F0FA
:105EDC007CFC31460CA802F0FEFC192309AA2146D1
:105EEC000CA8FFF713F804460CA802F06EFC314620
:105EFC000CA802F0F0FC96230AAA21460CA8FFF786
:105F0C0005F804460CA802F060FC31460CA802F01F
:105F1C00E2FC02230BAA21460CA8FEF7F7FF0CA803
:105F2C0002F053FCFEF77AFB0B9B009307A80FC8FB
:105F3C00FEF7D4FBFEF76AFB114B1C6800E0002453
:105F4C0002F016FF0B9B05930A9B0493099B03938A
:105F5C00089B0293079B01930094069B094A01211D
:105F6C0002F0CBFB204610B070BD00BF51CC03201B
:105F7C0058CA03208CDA032038D4032020CC032009
:105F8C00B4DA0320DDA10D0010B5154B188803F011
:105F9C003FF8144B021E0CBF0121002119701C4646
:105FAC0008D10121104801F0BBFB4FF4AF714FF445
:105FBC00167007E0002211460B4801F0B1FBC82116
:105FCC004FF49670FFF77AFA02F0D2FE2378074965
:105FDC00002B14BF59224E22FFF7A6FB10BD00BFA9
:105FEC007CC9032055D40320E0DA032027A20D003E
:105FFC0010B51B4B1A7892B11A4C227852B1002270
:10600C0022701A7002F0B4FE174902F04CFBFFF735
:10601C00BBFF04E0322001F0C1FC01232370134BC1
:10602C001C7874B101F0C4F9114B1B68984215D956
:10603C0002F09EFE0F4902F036FBBDE81040FEF761
:10604C00B3BD0D4B1A784AB11C700C4B1B782BB19D
:10605C00FFF706FC18281CBF094B1C7010BD00BFB5
:10606C00B2DA0320B9CA03203CA20D0095CA032062
:10607C00E4CA032054A20D0094CA032055D4032073
:10608C003CD4032013460A46002102F036BB000024
:10609C002DE9F3470546174698460E4603F052F88D
:1060AC00294602F08CF803F04DF80021FEF7C0F8F9
:1060BC00824603F047F88321FEF7BAF8044603F052
:1060CC0041F8012102F082F8814660B1544402F09B
:1060DC004FFECDF8049000942B46754A012102F036
:1060EC000CFB0020E0E001F063F900F59C5909F18C
:1060FC0008092846FFF798FA70B901F059F9484594
:10610C0003D2642001F04AFCF3E702F031FE2A4688
:10611C006849FFF709FBE4E7674C23782BB102F0E1
:10612C0027FE2A466549FFF7FFFA03F00BF82946CC
:10613C0002F045F803F006F80021FEF779F88246E4
:10614C0003F000F8002102F041F8814630B102F072
:10615C000FFE4B4652465A49FFF7A6F902F0F2FFE2
:10616C0029460A2202F028F802F0ECFF03685B696A
:10617C009847054602F0E6FF03685B699847237869
:10618C0081464BB1EDB202F0F3FD00955FFA89F355
:10619C004C4A012102F0B1FA02F0D4FF03685B69AA
:1061AC0098472378C5B22BB102F0E2FD2A46464946
:1061BC00FFF768FF02F0C6FF03685B699847237816
:1061CC00814633B102F0D4FD5FFA89F23E49FFF704
:1061DC0059FF4FEA092909F47F4914234D4495FBD3
:1061EC00F3F50A9B433D1D8002F0ACFF03685B692D
:1061FC0098472378C5B22BB102F0BAFD2A46324932
:10620C00FFF740FF02F09EFF03685B699847237815
:10621C005FFA80F92BB102F0ABFD4A462A49FFF731
:10622C0031FF05EB0925358002F08CFF03685B69B3
:10623C0098472378C5B22BB102F09AFD2A46224921
:10624C00FFF720FF02F07EFF03685B699847237815
:10625C00C6B22BB102F08CFD32461B49FFF712FF80
:10626C0005EB06253D8002F06DFF03685B699847DE
:10627C002378C5B22BB102F07BFD2A461249FFF7F9
:10628C0001FF02F05FFF03685B6998472378C6B291
:10629C002BB102F06DFD32460B49FFF745FA05EBC9
:1062AC000625A8F80050012002B0BDE8F08700BF19
:1062BC0099A20D00F9A20D0051CC0320C9A20D002A
:1062CC00D59F0D00F69F0D00F5A20D002DE9F04FA6
:1062DC008FB0412807460A9115460AD031280CD0B8
:1062EC0032280ED002F044FD3A465549FFF71CFA0D
:1062FC00A3E0544C4FF0740A06E0534C4FF0750A6F
:10630C0002E0524C4FF0760A73B1514A92F82400D5
:10631C000C24B0FBF4F304FB1304E4B202EB0414FE
:10632C000130283482F824004A4B0B9301221A7056
:10633C00FEF72AFA29463846FEF774FA642001F073
:10634C002DFB52460A993846FFF7F4F9277001F0F5
:10635C002FF84FF00009052260606270C8464E4667
:10636C004D46CB4663789B4520DA0CAB00930DAAC7
:10637C000DF136030DF132015046FFF789FE60B185
:10638C00BDF832301D44BDF834301E44BDF83630F3
:10639C009844BDF83030994405E002F0E9FC3A46E7
:1063AC002D49FFF7C1F90BF1010BDBE796FBF3F677
:1063BC006681B6B295FBF3F576432581ADB298FBB9
:1063CC00F3F005FB0565A08180B299FBF3F900FBA6
:1063DC000050A4F80E90FEF71DF8064602F0C8FC1B
:1063EC00B6B2054600F0E4FF0896A38907936389CB
:1063FC000693238905931FFA89F909EBC90905232B
:10640C0099FBF3F320339BB20493E38903936378F2
:10641C000293124BB0FBF3F202FB13000A9B0190A8
:10642C0000930F4A3B460121284602F066F90B9A6D
:10643C00002338461370FEF71DFA0FB0BDE8F08F3D
:10644C0014A30D0084CA032058D4032068D403205D
:10645C00ECCA032078CA032030A30D0040420F0081
:10646C0057A30D002DE9F04104460D46164600F0E9
:10647C009FFF07460120FEF745FAB0B133462A4686
:10648C0021464120FFF722FF33462A462146312080
:10649C00FFF71CFF33462A4621463220FFF716FF32
:1064AC0002F066FC02F0F3F804E002F061FC0B4928
:1064BC0002F0F9F8FEF742FA094B1B7863B102F0CF
:1064CC0057FC044600F074FF064AC31B012120460A
:1064DC00BDE8F04102F011B9BDE8F08199A30D00BF
:1064EC0051CC0320CCA30D002DE9F041B14F3E78E7
:1064FC008CB005460C46002E40F0F181FEF7ECFC0A
:10650C000C2D5CDC0B2D80F21781042D00F09F808C
:10651C0019DC012D68D0022D78D0002D40F0DF81E0
:10652C0002F0F6FAA44BA549D86108A802F094F938
:10653C0041F2707108A8FEF77FFC08A802F045F93B
:10654C004FF47A70AAE1062D00F0BB80C0F2978060
:10655C00092D00F0C6800A2D40F0C18102A9204609
:10656C00FEF732FC03A9FEF72FFC9549044608A858
:10657C0002F072F9934B1968A1F58C41503900293E
:10658C00B8BF49429623594308A88F4B91FBF3F1AE
:10659C00FEF752FC08A802F018F9FFF7BBF88B497C
:1065AC0008A802F059F941F2707108A8FEF744FCF2
:1065BC0008A802F00AF9012203990298B9E0102DFB
:1065CC0000F0EA8006DC0E2D00F0C88000F3E180BC
:1065DC00604285E1132D00F06481632D00F0798118
:1065EC00122D40F07C81FDE002A92046FEF7ECFB69
:1065FC007749044608A802F02FF9029908A8FEF77B
:10660C001BFC08A802F0E1F8029847E102A9204619
:10661C00FEF7DAFB03A9FEF7D7FB6E49044608A880
:10662C0002F01AF9029B83EAE371A1EBE371039B7D
:10663C0008A84B43644993FBF1F1FEF7FDFB08A856
:10664C0002F0C3F8029B0399C820584336E002A914
:10665C002046FEF7B9FB03A9FEF7B6FB5E490446DC
:10666C0008A802F0F9F8029908A8FEF7E5FB08A8BB
:10667C0002F0ABF802990398FEF720FF2FE102A974
:10668C002046FEF7A1FB03A9FEF79EFB51490446E9
:10669C0008A802F0E1F8029B83EAE371A1EBE37135
:1066AC00039B08A84B4346F2A81193FBF1F1FEF7AC
:1066BC00C3FB08A802F089F803990298FDF764FF60
:1066CC000DE102A92046FEF77FFB03A9FEF77CFB38
:1066DC0004A9FEF779FB044602A807C8FDF7E8FFFA
:1066EC00FDE0374908A802F0B7F8364B1968A1F558
:1066FC008C4150390029B8BF49429623594308A808
:10670C00314B91FBF3F1FEF797FB08A802F05DF813
:10671C00FFF700F82D4908A802F09EF841F27071BD
:10672C0008A8FEF789FB08A802F04FF80122FF2108
:10673C00B620FFF797FED2E0204602A9FEF744FBF5
:10674C000446029BB34240F3CB803B78002B40F0D5
:10675C00C780204600F0D2F80136F2E702A92046A5
:10676C00FEF732FB1D49044608A802F075F83146C5
:10677C0008A8FEF761FB08A802F027F8029A40F27D
:10678C005623511E994200F2AA80154B5A62DE61C3
:10679C00A5E0FEF7C4FFA2E002A92046FEF714FB19
:1067AC0003A9FEF711FB039904460298FEF786FF36
:1067BC0095E000BFB1DA0320ECCA0320DDA30D0085
:1067CC000AA40D00B4DA0320400D030030A40D0020
:1067DC00EBA30D00F3A30D0002A40D0048A40D00C3
:1067EC0014CA032002A92046FEF7EEFA03A9FEF70D
:1067FC00EBFA04A9FEF7E8FA3B4B1B78044633B1DD
:10680C0002F0B6FA049B394A012101F076FF00260A
:10681C00049BB34236DD3D78002D33D105A92046CB
:10682C00FEF7D2FA06A9FEF7CFFA07A9FEF7CCFAC3
:10683C00069AC8235343044606934FF47A78059B73
:10684C00AB421DDD2A4908A802F006F8069B83EA34
:10685C00E371A1EBE371029B4B43079993FBF8F3B4
:10686C0008A81944FEF7E8FA08A801F0AEFF02994F
:10687C000698FDF789FE0798FEF73CFB0135DEE72D
:10688C000136C5E71B4908A801F0E6FF039908A8E3
:10689C00FEF7D2FA08A801F098FF0398FEF72AFB3E
:1068AC001DE002A92046FEF78FFA03A9FEF78CFA29
:1068BC0004A9FEF789FA05A9FEF786FA06A9FEF7E0
:1068CC0083FA069B0093044602A80FC8FDF706FF47
:1068DC0005E002F01DF9084B1862FEF761FA20463C
:1068EC000CB0BDE8F08100BF51CC03206AA40D00B0
:1068FC00F3A30D0086A40D00ECCA032013B501A967
:10690C000446FEF761FA014664B9019B53B1114B81
:10691C0001221A7002F02CFA0F4901F0C4FE4FF05C
:10692C00FF3015E001980B4CFFF7DEFD019B632B4C
:10693C000BD0002809DD23783BB901A9FEF744FAF6
:10694C0001460198FFF7D0FDF0E70028B8BF4042A0
:10695C0002B010BDB1DA0320A5A40D001FB52C4B5D
:10696C0001221A7002F004FA2A4901F09CFE2A4B0B
:10697C002849002468461C6001F06EFF21466846D9
:10698C00FEF75AFA684601F020FF00F047FF4FF47B
:10699C00FA6001F003F800F049FF044638B102F048
:1069AC00E7F91E4901F07FFEFDF736FCEFE7FDF736
:1069BC0051FE4FF4FA614FF41670FEF77FFD4FF461
:1069CC00FA6000F0EBFF2146204600F099FC2046CF
:1069DC00FFF794FF2146012000F092FC00F016FF17
:1069EC004FF4FA6000F0DAFF00F020FF38B902F043
:1069FC00BFF90B4901F057FEFDF70EFCF0E7094B10
:106A0C00094A1B7883F00103137004B010BD00BF5A
:106A1C007BCA0320BDA40D00D8CA0320CAA40D0054
:106A2C00CCA40D00B1DA032096CA032013460A4603
:106A3C00012101F062BE000007B502F099F92E4960
:106A4C0001F031FEFEF792FA02F092F92B4901F0B7
:106A5C002AFE0120FDF7FEFD02F08AF9284901F01B
:106A6C0022FEFF214FF4FA70FDF711FF4FF4FA707C
:106A7C0000F094FFFF214FF4FA70FDF714FF4FF470
:106A8C00FA7000F08BFFFF214FF4FA70FDF717FF3F
:106A9C0002F06EF91B4901F006FEFEF72BFDFEF726
:106AAC0093FAFFF771FA184B1849188800220092D4
:106ABC004FF0FF3301F096FB02F05AF9144B1549D5
:106ACC001A68FFF7B3FF02F053F9134A9178137861
:106ADC000191527800920121104A01F00EFEFDF74F
:106AEC0035FF00F065FC0E4B00F59C50083018602B
:106AFC0003B05DF804FB00BFCEA40D00F4A40D00A0
:106B0C0004A50D0014A50D007CC90320D9400D006F
:106B1C0044D4032029A50D0078D4032037A50D00FB
:106B2C00D8DA032010B502F023F9114A012101F043
:106B3C00E4FD104B1049114800221A70072202F094
:106B4C0058FD044658B902F013F90D4A012101F021
:106B5C00D4FD0C4B1C70BDE81040FFF76DBF02F06C
:106B6C0007F9094A0121BDE8104001F0C6BD00BF7C
:106B7C0090A50D007ACA0320D49D0D00C5CA032030
:106B8C00ADA50D00C4CA0320D6A50D0030B5144B1D
:106B9C0085B001220C461A70054600F009FC114B19
:106BAC0000F59C402030186002F0E2F822460E49B5
:106BBC00FFF73CFF2846FEF7BFF802F0D9F80B4967
:106BCC0001F071FD0A49684601F046FE214668460F
:106BDC00FDF774FF684601F0F8FD05B030BD00BF4D
:106BEC00E8CA0320B8DA032007A60D001CD803203E
:106BFC0025A60D0010B502F0BBF8094901F053FDB4
:106C0C00084B0020E82202FB00310C7924B104313E
:106C1C00BDE81040FFF7BABF01300428F3D110BD16
:106C2C0031A60D0078D4032010B58368182B11D130
:106C3C000A4C19222146002301F0B7FE00232376CB
:106C4C0002F096F822460649FFF7F0FEFDF7ACFF7E
:106C5C00012010BD4FF0FF3010BD00BFBCDA032087
:106C6C0050A60D0070B500F0A3FB124B1A688242BF
:106C7C001D461AD8104A0023E82101FB032634795B
:106C8C004CB10E4B1C7894B102F072F8321D0C49C9
:106C9C00FFF7CCFE0CE00133042BEED100F088FBA7
:106CAC0000F56A406030286002E0002400E0012416
:106CBC00204670BDC0CA032078D4032051CC0320D9
:106CCC006EA60D0038B5404B1B781BB33F4C257896
:106CDC003DB102F04DF83E4901F0E5FC0023237074
:106CEC0027E03C4C237833B102F042F83A4901F0EA
:106CFC00DAFC257031E0394B1B78F3B100F058FB0E
:106D0C00374B1B68834218D202F032F8354901F038
:106D1C00CAFC0EE0344B1B7883B300F049FB334BB9
:106D2C001B6898422AD902F023F8314901F0BBFCC8
:106D3C0020E0BDE83840FEF705BA2E4B1B78002B3F
:106D4C0041D000F035FB2C4B1B68984200D838BD65
:106D5C0002F00EF8294901F0A6FCBDE83840FEF718
:106D6C0027BA274C2378C3B102F002F8254901F069
:106D7C009AFC2570BDE83840FEF7BAB9224C25784C
:106D8C00002DEED001F0F4FF204901F08CFC002323
:106D9C002370BDE83840FFF7E1BD1D4B1B785BB19C
:106DAC0000F006FB1B4B1B6898420CD901F0E0FF6E
:106DBC00194901F078FC02E0FFF754FF18B1BDE867
:106DCC003840FFF717BF38BD7BCA0320B1DA032068
:106DDC008AA60D0096CA03209AA60D00D8CB0320D4
:106DEC0074CA0320DDA60D00E0CA03207CCA032070
:106DFC005AA70D0050CC0320DCCA03201CA70D00A1
:106E0C00D5DA0320DDA30D0079CA0320A9A60D0055
:106E1C00E8CA0320B8DA0320C1A60D0038B5072252
:106E2C000D490E4802F0E5FB054668B90C4C01F023
:106E3C009FFF22680B49FFF7F9FD0B4B20681D7073
:106E4C00BDE83840FDF712BF01F092FF0749BDE8DD
:106E5C00384001F028BC00BFD49D0D00C5CA0320EA
:106E6C004CCC032096A70D00E8CA0320CEA70D003A
:106E7C001A4B1B491B48002270B51A70072202F0EE
:106E8C00B8FB194C194DB0FA80F04009207001F094
:106E9C006FFF23781649002B14BF59224E22FEF7A0
:106EAC0043FC23789BB12868FEF764FB064638B197
:106EBC00104B01221A7001F05BFF2A680E490AE0A0
:106ECC0001F056FF0D4901F0EEFB267070BD01F08C
:106EDC004FFF2A680A49FFF7A9FD70BD95CA032028
:106EEC00D49D0D00C5CA03203CD403204CCC0320F8
:106EFC00E2A70D00D5DA0320FAA70D002CA80D008F
:106F0C0048A80D0030B53F4B3F4800221A7085B0A1
:106F1C007C232021FDF7C6FE7C23024610213B4832
:106F2C00FDF7C0FE3A4A3B4B111819601C4640F65F
:106F3C00C313984208DC115C232903D1344B002283
:106F4C001A5401E00130F4E701F012FF0546304815
:106F5C0002F047FB236802932B4C2C4B019301212D
:106F6C00034600942C4A284601F0C7FB2B492046C7
:106F7C0002F009FB40B101F0FBFE0094274B284ABC
:106F8C00012101F0BAFB3BE02649204602F0FBFA56
:106F9C0020B905B0BDE83040FFF7C4BD22492046FA
:106FAC0002F0F1FA20B905B0BDE83040FFF760BF40
:106FBC001E49204602F0E7FA20B905B0BDE8304082
:106FCC00FDF72CBE1A49204602F0DDFA20B905B0B7
:106FDC00BDE83040FEF738B81649204602F0D3FA27
:106FEC0020B905B0BDE83040FEF758B8124920462C
:106FFC0002F0C9FA20B905B0BDE83040FFF70EBF6A
:10700C0005B030BD54D4032097CA0320C5CA032051
:10701C00FCDA03204CCC03205EA80D0090DA032090
:10702C0093A80D007B9F0D00929D0D00E29E0D001C
:10703C00169F0D00ED9E0D0025A60D007FB52E4E62
:10704C002E4C01F095FE03681B69984740B301F084
:10705C008FFE03685B6998472368F05401F088FE43
:10706C0003681B6998472368054638B1013328210A
:10707C0093FBF1F201FB12332360E2E7F05401F0D1
:10708C0077FE1D4901F00FFB1B492560684601F096
:10709C00E3FB6846FEF7A8FC684601F096FBD0E7D8
:1070AC00174B1B783BB101F063FE164901F0FBFA5C
:1070BC00FFF728FF1DE0144B1C7814B1FEF7C2F942
:1070CC0017E0FEF795FFFFF7FDFD104B1A783AB16C
:1070DC001C700F4B19680F4B22461868FFF7C2F94A
:1070EC000D4B1A682AB100221A60FDF77FFCFDF7E0
:1070FC0057FB04B070BD00BF22CC0320C0E40320BA
:10710C0054D40320BDA80D00C4CA032020CC0320F6
:10711C0038D403208CDA0320DCCB03202DE9F04398
:10712C00534B544F544EDFF88C8101251D70534B3B
:10713C0087B002241C7000F073F900221E21204637
:10714C0000F030FB4FF014090346CDF800902246B6
:10715C0001954FF47F01384601F0E4F83246414680
:10716C00384602F035F800220A21204600F01AFBBE
:10717C00434FCDF800900346224601954FF47F41D2
:10718C00384601F0CFF83F4CDFF82C91324641469F
:10719C00384602F01DF83C4B029302AA00233B4FE9
:1071AC00DFF81881049741F288312046CDF814900D
:1071BC00FDF742F802A8FDF725F832464146204675
:1071CC0002F006F8324A334B12681A60324A0497BE
:1071DC0012685A604FF448721A614FF4B972002465
:1071EC004FF47A715A622D4F99636422DC601C72E1
:1071FC005C619C61DA621D635D63DD631D64284B19
:10720C00029302AA23463846CDF81490FDF714F8E1
:10721C0002A8FCF7F7FF3846224F3246414601F0F0
:10722C00D7FF2149384601F017FB32461F49384633
:10723C0001F0CEFF1E4B0D225A702146FF220B2669
:10724C0028461E709A7000F08DFA01F07DFE2346E0
:10725C00224642F6A23101F07FFE01F075FE234674
:10726C002246314601F080FE07B0BDE8F08300BF36
:10727C00B8CA032000CC032010CA032080CA032004
:10728C00DCDA032058CA0320B5400D00E9400D009C
:10729C0068C9032014CA032088C90320E4CB032047
:1072AC00C1400D0044D40320A4AA0D00D7870D00C3
:1072BC0078D4032095410D00E5400D00C9420D0026
:1072CC0008B5024B1B689B68019308BD480203007C
:1072DC0008B5024B1B68DB68019308BD480203002C
:1072EC0008B5024B1B681B69019308BD48020300DB
:1072FC0008B5024B1B685B69019308BD480203008B
:10730C0008B5024B1B68DB69019308BD48020300FA
:10731C0008B5024B1B681B6A019308BD48020300A9
:10732C0008B5024B1B685B6A019308BD4802030059
:10733C0008B5024B1B689B6A019308BD4802030009
:10734C0008B5024B1B68DB6A019308BD48020300B9
:10735C0008B5024B1B685B6C019308BD4802030027
:10736C0008B5024B1B689B6C019308BD48020300D7
:10737C0008B5024B1B681B6F019308BD4802030044
:10738C0008B5024B1B689B6E019308BD34020300C9
:10739C0008B5024B1B685B68019308BD180203001B
:1073AC0008B5024B1B68DB68019308BD180203008B
:1073BC0008B5024B1B685B69019308BD18020300FA
:1073CC0008B5024B1B68DB69019308BD180203006A
:1073DC0008B5024B1B689B6A019308BD1802030099
:1073EC0008B5024B1B685B6C019308BD18020300C7
:1073FC0008B5024B1B689B6C019308BD1802030077
:10740C0008B5024B1B68DB6C019308BD1802030026
:10741C0008B5024B1B689B6D019308BD1802030055
:10742C0008B5024B1B681B68019308BD2C020300B6
:10743C0008B5024B1B685B68019308BD2C02030066
:10744C0008B5024B1B689B68019308BD2C02030016
:10745C0008B5024B1B68DB68019308BD2C020300C6
:10746C0008B5024B1B681B69019308BD2C02030075
:10747C0008B5024B1B685B69019308BD2C02030025
:10748C0008B5024B1B689B69019308BD2C020300D5
:10749C0008B5024B1B68DB69019308BD2C02030085
:1074AC0008B5024B1B689B6A019308BD2C020300B4
:1074BC0008B5024B1B681B6B019308BD2C02030023
:1074CC0008B5024B1B689B6F019308BD2C0203008F
:1074DC0008B5024B1B68DB6F019308BD2C0203003F
:1074EC0008B5024B1B681B68019308BD28020300FA
:1074FC0008B5024B1B68DB68019308BD280203002A
:10750C0008B5024B1B681B69019308BD28020300D8
:10751C0008B5024B1B689B69019308BD2802030048
:10752C0008B5024B1B68DB69019308BD28020300F8
:10753C0008B5024B1B681B6A019308BD28020300A7
:10754C0008B5024B1B685B6A019308BD2802030057
:10755C0008B5024B1B689B6A019308BD2802030007
:10756C0008B5024B1B68DB6A019308BD28020300B7
:10757C0008B5024B1B681B6B019308BD2802030066
:10758C0008B5024B1B685B6B019308BD2802030016
:10759C0008B5024B1B681B6C019308BD2802030045
:1075AC0008B5024B1B681B6D019308BD2802030034
:1075BC0008B5024B1B685B69019308BD64020300AC
:1075CC0008B5024B1B689B68019308BD6802030059
:1075DC0008B5024B1B68DB68019308BD6802030009
:1075EC0008B5024B1B681B68019308BD24020300FD
:1075FC0008B5024B1B68DB69019308BD3002030020
:10760C0008B5024B1B681B6A019308BD30020300CE
:10761C0008B5024B1B681B68019308BD3C020300B4
:10762C0008B5024B1B689B68019308BD3C02030024
:10763C0008B5024B1B68DB68019308BD3C020300D4
:10764C0008B5024B1B681B69019308BD3C02030083
:10765C0008B5024B1B685B69019308BD3C02030033
:10766C0008B5024B1B689B69019308BD3C020300E3
:10767C0008B5024B1B68DB69019308BD3C02030093
:10768C0008B5024B1B681B6A019308BD3C02030042
:10769C0008B5024B1B689B6A019308BD3C020300B2
:1076AC0008B5024B1B68DB6A019308BD3C02030062
:1076BC0008B5024B1B681B68019308BD4C02030004
:1076CC0008B5024B1B685B68019308BD4C020300B4
:1076DC0008B5024B1B681B69019308BD4C020300E3
:1076EC0008B5024B1B685B69019308BD4C02030093
:1076FC0008B5024B1B689B69019308BD4C02030043
:10770C0008B5024B1B68DB69019308BD4C020300F2
:10771C0008B5024B1B681B6A019308BD4C020300A1
:10772C0008B5034B1B68D3F88030019308BD0000EB
:10773C006002030008B5024B1B681B68019308BD6F
:10774C002002030008B5024B1B685B68019308BD5F
:10775C002002030008B5024B1B685B69019308BD4E
:10776C002002030008B5024B1B68DB6A019308BDBD
:10777C002002030008B5024B1B68DB6C019308BDAB
:10778C002002030008B5024B1B685B6D019308BD1A
:10779C002002030008B5024B1B689B6D019308BDCA
:1077AC002002030008B5024B1B68DB6F019308BD78
:1077BC002002030008B5034B1B68D3F888300193F3
:1077CC0008BD00002002030008B5034B1B68D3F86A
:1077DC009430019308BD00002002030008B5024B51
:1077EC001B681B68019308BD4402030008B5024BDB
:1077FC001B685B68019308BD4402030008B5024B8B
:10780C001B689B68019308BD4402030008B5024B3A
:10781C001B68DB68019308BD4402030008B5024BEA
:10782C001B681B69019308BD4402030008B5024B99
:10783C001B685B69019308BD4402030008B5024B49
:10784C001B68DB69019308BD4402030008B5024BB9
:10785C001B681B6A019308BD4402030008B5024B68
:10786C001B685B6A019308BD4402030008B5024B18
:10787C001B681B6B019308BD4402030008B5024B47
:10788C001B68DB6B019308BD4402030008B5024B77
:10789C001B685B68019308BD4002030008B5024BEE
:1078AC001B689B68019308BD4002030008B5024B9E
:1078BC001B68DB68019308BD4002030008B5024B4E
:1078CC001B681B69019308BD4002030008B5024BFD
:1078DC001B685B69019308BD4002030008B5024BAD
:1078EC001B689B69019308BD4002030008B5024B5D
:1078FC001B68DB69019308BD4002030008B5024B0D
:10790C001B681B6A019308BD4002030008B5024BBB
:10791C001B681B6B019308BD4002030008B5024BAA
:10792C001B685B6B019308BD4002030008B5024B5A
:10793C001B681B68019308BD1C02030008B5024BB1
:10794C001B685B68019308BD1C02030008B5024B61
:10795C001B689B68019308BD1C02030008B5024B11
:10796C001B68DB68019308BD1C02030008B5024BC1
:10797C001B685B6A019308BD1C02030008B5024B2F
:10798C001B68DB6A019308BD1C02030008B5024B9F
:10799C001B681B6B019308BD1C0203000021FFF741
:1079AC00D9BE10B5836804460BB901F032FCC3682C
:1079BC009847A3681BB103222146204698472046CE
:1079CC001021BDE8104001F008BC10B50446006859
:1079DC0008B1FFF7C5FC204610BD10B5036804467E
:1079EC009B689847A368013BA3602BB9236820468A
:1079FC00DB68BDE81040184710BD0B68036013B17D
:107A0C005A6801325A60704710B50446006828B1B4
:107A1C004368013B43600BB9FFF7DFFF204610BD05
:107A2C0010B5064C002320462360FFF791FC20463E
:107A3C00034A0449BDE8104001F0CABBC4E403206A
:107A4C0010CA0320D7790D0070470020704710B57D
:107A5C001021044601F0C1FB204610BD08B508B149
:107A6C00FFF7F5FF08BD0022026010B54FF69C72BF
:107A7C008280B1F9044084808A8002680C680460BA
:107A8C000A6010BD10B504460068FFF757FF20468A
:107A9C0010BD38B5C468F4B12378022B03D104F1BE
:107AAC000C00FFF7EFFF656835B12846FCF7AAFB21
:107ABC001021284601F091FBA56835B12846FCF74A
:107ACC00A1FB1021284601F088FB20461421BDE8BB
:107ADC00384001F082BB38BD10B588B0044668460A
:107AEC0000F0BAFE694604A800F0F5FE04A8A04711
:107AFC00044604A800F069FE684600F066FE2046C5
:107B0C0008B010BDF0B5102485B007460E461546DA
:107B1C0000212246684601F0E8FC00226946104626
:107B2C00ADF80040029703960195FFF75FFE05B094
:107B3C00F0BD13B5044691E8050000234B600B60C3
:107B4C002060626001A801930093FFF75DFF20465F
:107B5C0002B010BDF7B50C4602AD54F8043B45F825
:107B6C00083D06460F4601A82146FFF746FF294669
:107B7C003046FFF7DEFF01A8FFF746FF2046FFF770
:107B8C0043FF3846082101F028FB304603B0F0BD16
:107B9C0013B50B46044603C88DE8030093E80300B5
:107BAC0084E803009DE8030083E8030002B010BDE5
:107BBC0038B500230446036010200D46FCF765FA27
:107BCC0028B1012343608360024B0360C5602060D1
:107BDC00204638BD84A90D00826810B50AB901F0A1
:107BEC0018FBC368BDE81040184708B5006800F1E1
:107BFC001001FFF7F1FF08BD826810B50AB901F05A
:107C0C0008FBC368BDE81040184708B5006800F1D0
:107C1C001001FFF7F1FF08BD38B5002383608B68B6
:107C2C0004460D462BB102229847EB68E360AB6823
:107C3C00A360204638BD0000F0B589B004686846E2
:107C4C00FFF711FF00238DF808304FF00202D4E843
:107C5C004F3F002B03D1C4E8412F0029F7D102D0AC
:107C6C008DF8083063E014F10C0503D06946284602
:107C7C00FFF7F9FEBFF35F8F01236370002004F15F
:107C8C000803BFF35F8F53E8006F43E80002002A3C
:107C9C00F9D1BFF35F8F002E49D0FFF76BFD20B1F8
:107CAC0029463046FFF798FF3AE0314602A8FFF725
:107CBC00B3FFE068B4F9105008B101F077FC0690FE
:107CCC001020ADF81C50FCF7E0F90546E8B1002790
:107CDC0087601820FCF7D9F9044688B10146876003
:107CEC0002A8FFF755FF049BA268A360059B0492B2
:107CFC0006A9E268E36004F110000592FFF7B3FEF9
:107D0C000D4BEB600D4B2C60AB6006A8FFF7BAFE79
:107D1C0002A8FCF777FA002229460948FFF732FD42
:107D2C003046FCF76FFA1021304601F056FA6846DF
:107D3C00FFF7A8FE09B0F0BDF77B0D006D7E0D00BE
:107D4C00AF790D002DE9F04F8BB006460F469046EB
:107D5C0099469DF850A0FFF769FD07AD834630BBEF
:107D6C004FF62E73059005A92846ADF81830FFF78D
:107D7C007AFE1420FCF789F9044658B102230370EB
:107D8C0001234370C0F804B0C0F808B029460C3089
:107D9C00FFF769FE3046214640F8044BFFF708FF19
:107DAC002846FFF76FFE05A8FFF76CFE52E0002493
:107DBC000C2314206C60AC600793FCF766F9014649
:107DCC0018B1047044704460846004A80391FFF7F8
:107DDC00EFFE224B08930820FCF757F9044628B114
:107DEC00039B40F8043B04A9FFF707FE00955FFADC
:107DFC008AF34A46414638460994FFF727FD20B9D5
:107E0C00039B5B7803F0FF0283B1039B059304A9EA
:107E1C0006A8FFF7F2FD05A93046FFF78AFE06A873
:107E2C00FFF7F2FD04A8FFF7EFFD13E04FF69C738C
:107E3C0005A903A80592ADF81830FFF7FDFE05A8BB
:107E4C00FFF720FE05A80999FFF784FE06A8FFF7A7
:107E5C00DBFDDAE730460BB0BDE8F08FDD7F0D00BF
:107E6C00022AF8B5044606D0032A17D0012A22D1DB
:107E7C000B6803601FE018200E68FCF706F9054636
:107E8C0050B13146FFF7C8FE3069B6F9147008B12D
:107E9C0001F08CFB2861AF8225600CE0046854B1C2
:107EAC0004F11000FFF7EEFD2046FCF7ABF91821AA
:107EBC00204601F092F90020F8BD38B5002383600C
:107ECC008B6804460D462BB102229847EB68E360A1
:107EDC00AB68A360204638BD022A70B5044606D0B4
:107EEC00032A11D0012A18D10B68036015E0142065
:107EFC000E68FCF7CAF8054620B13146FFF7DDFFE6
:107F0C00337C2B74256008E0046834B12046FCF700
:107F1C0079F91421204601F060F9002070BD0000B1
:107F2C00F0B5002387B00C46BFF35F8F50E8006FAD
:107F3C0040E80032002AF9D1BFF35F8F002E3FD00A
:107F4C001846FFF717FC074620B121463046FFF7CD
:107F5C0053FE2EE0314601A8FFF7AFFF23788DF8D2
:107F6C0014301020FCF791F80546D0B1876014202E
:107F7C00FCF78BF8044678B18760014601A8FFF73F
:107F8C0007FE039BA268A360049B0392E268E36074
:107F9C009DF81430049223740A4BEB600A4B2C604E
:107FAC00AB6001A8FCF72EF9002229460748FFF721
:107FBC00E9FB3046FCF726F91021304601F00DF9AB
:107FCC0007B0F0BD177C0D00E57E0D00AF790D00FC
:107FDC0030B585B004460D4668461146FFF7BAFD2C
:107FEC007CB124B228460DB101F0E0FA029002A94E
:107FFC006846ADF80C40FFF71FFE02A8FFF742FDE4
:10800C001DE000988DF808404FF00102D0E84F3F7A
:10801C00A34203D1C0E8412F0029F7D102D08DF83B
:10802C0008300CE010F10C014FF0010318BF037382
:10803C00BFF35F8F043000F8033CFFF771FF01A81A
:10804C00FFF7E2FC05B030BD002211464068FFF797
:10805C0055BC002211464068FFF760BC0022406806
:10806C00FFF754BC002281F001014068FFF73EBCD1
:10807C0000231A4619464068FFF730BC00231A4605
:10808C0019464068FFF722BC002211464068FFF7F2
:10809C0015BC002211464068FFF700BC00220221EB
:1080AC004068FFF703BC00231A464068FFF7EEBB9D
:1080BC00024B03225A60024A1A607047C8E403203C
:1080CC00A0A90D007047F8B5064615460C468F184A
:1080DC00BC4206D0336814F8011B9B6830469847A5
:1080EC00F6E72846F8BD0022007CFFF721BA0021F4
:1080FC00007CFFF725BA0021007CFFF729BA00218C
:10810C00007CFFF72DBA0021007CFFF731BA10B5C7
:10811C001421044601F061F8204610BD10B5044648
:10812C00002363604FF47A73A360044B21740846F8
:10813C0023601146FFF72CFA204610BDD4A90D0080
:10814C000022007CFFF7CCB900231A461946007CAC
:10815C00FFF7CEB90021007CFFF7D2B970B50C4601
:10816C0086B0142506462A46002101A801F0BDF967
:10817C0023788DF8083063680393E3680493002236
:10818C00237A307CADF8045001A90593FFF708FA67
:10819C0006B070BD1FB500338DF800104FF06401B0
:1081AC00039118BF0123694601928DF80830FFF73F
:1081BC00D5FF05B05DF804FB0123FFF7EBBF0022F0
:1081CC00007CFFF7A5B9C9B2FFF7F9BF0022007C0C
:1081DC00FFF7A6B90121FFF7F9BF0021007CFFF7DB
:1081EC00CFB90047F0B585B01C460E46174605467C
:1081FC00FFF74EF9002084424FF0040303908DF8F2
:10820C000C30A5BF9DF828308DF80E30034603AB1B
:10821C00009332463B460649A8BF8DF80D402846D0
:10822C00FFF72EF9B0FA80F0400905B0F0BD00BFA1
:10823C00EF810D00704710B51821044600F0CDFFFA
:10824C00204610BDF0B5037D062B8DB00E4600F117
:10825C0004074FF0000402D000F1080518E00CAD43
:10826C00394605F8304D2F232A460A20FFF7A0F98E
:10827C00284601F0B6F933680246DB6829463046D9
:10828C0098470FE024B12E21304600F0FDF904444C
:10829C0015F8011D0A22304600F00FFABD420444C5
:1082AC00F0D120460DB0F0BD10B5054B044611229F
:1082BC0040F8043B002101F018F9204610BD00BF26
:1082CC00FCA90D000346074A10B543F8042B01F135
:1082DC00100251F8044B43F8044B9142F9D10A783F
:1082EC001A7010BDFCA90D0010B59DF8084044EAA9
:1082FC00032343EA024242EA01610423416003750D
:10830C0010BD37B50D788B784A78C978009129461D
:10831C00FFF7EAFF03B030BD0A680B4692680146CE
:10832C001846104770B50E4C04601C2444609DF830
:10833C0014409DF8106004F0030444EA8604002500
:10834C00E4B20474427485744161427C85600F2AE6
:10835C0008BF044BC56006BF8361C061038370BD59
:10836C00A0970D0025830D00014B024A1A6070473F
:10837C00D0E4032073AA0D00002211464068FFF7D9
:10838C00BDBA002211464068FFF7C8BA0022406807
:10839C00FFF7BCBA002281F001014068FFF7A6BAD2
:1083AC0000231A4601214068FFF798BA00231A46A9
:1083BC0019464068FFF78ABA002211464068FFF759
:1083CC007DBA002211464068FFF768BA00220221EC
:1083DC004068FFF76BBA00231A464068FFF756BA9D
:1083EC0038B5054688B104684CB1A3681BB10322AB
:1083FC002146204698471021204600F0EEFE2846E4
:10840C001421BDE8384000F0E8BE38BD10B1036857
:10841C005B681847704710B503680446BBB15868D1
:10842C00FEF74EFF78B923685A7C12B95868FEF7EC
:10843C0057FF23685868FEF75BFF20680023236012
:10844C0028B1FFF7CDFF206808B1FFF7C9FF204620
:10845C0010BD38B50446D0F8C40108B1FBF719FEBD
:10846C00D4F8C00108B1FEF77BFFD4F8BC5135B18C
:10847C002846FFF7D0FF0421284600F0AEFE206806
:10848C0008B1FFF7C3FF204638BD000010B5044B00
:10849C00044640F8083BFFF7DCFF204610BD00BF48
:1084AC00E4AA0D0038B50E4C0E4B236000250223B8
:1084BC0004F5E4706360A560C4F8C451C4F8C851F5
:1084CC00FEF746FF084BC4F8CC5184F8D05123601A
:1084DC002046064A0649BDE8384000F079BE00BF88
:1084EC00D4E4032018AB0D00E4AA0D0010CA03203D
:1084FC0099840D0000231A464068FFF7C7B9002283
:10850C0002214068FFF7D2B9002211464068FFF7FC
:10851C00C5B9002211464068FFF7D0B900231A46AE
:10852C0019464068FFF7D2B900231A46194640682D
:10853C00FFF7D4B9002281F001014068FFF7D6B9EA
:10854C0000224068FFF7E2B9002211464068FFF7AD
:10855C00E5B9002211464068FFF7D0B92DE9F04388
:10856C00002495B016460D460746FFF79DFE2146A2
:10857C0020220CA8009400F0B8FF40230C93214655
:10858C006B460CAA3046FFF723F80446002844D16A
:10859C00024601216868FFF791F9022180462246C4
:1085AC006868FFF78BF9009E81462146002E34D077
:1085BC00002932D17368022B02D00A2B09D02AE091
:1085CC00B8F1000F27D0716938460431FFF799FED6
:1085DC0020E0B9F1000F1ED07469112201A800F03F
:1085EC0084FF06238DF8143001AD04F10803183410
:1085FC00186859682A4603C20833A3421546F7D1B6
:10860C0001A906A807ADFFF75DFE0FCD3C1D0FC4F9
:10861C002B6823700121F669C8E70098FEF7D0FF9C
:10862C00384615B0BDE8F083024B034A1A600022AD
:10863C005A607047A8E6032018AB0D00F8B5064643
:10864C000D468F180024BD420CD0336815F8011B61
:10865C009B6830469847002801DB0444F3E7002C64
:10866C0008BF04462046F8BD70B505460C460846C2
:10867C0049B100F0B6FF2B68024621462846DB685C
:10868C00BDE87040184770BD03689B68184738B543
:10869C000D210546FFF7F8FF0A2104462846FFF78F
:1086AC00F3FF204438BD38B50546FFF7DDFF04461F
:1086BC002846FFF7ECFF204438BD30B58BB00B4695
:1086CC0000218DF82410012A98BF0A220DF12304F1
:1086DC00B3FBF2F505FB123303F0FF03092B94BF38
:1086EC0030333733DBB2214604F801392B46002DE9
:1086FC00EED1FFF7B9FF0BB030BD0CB42DE9F04350
:10870C0087B000AF07F13804054654F8049B3C6071
:10871C000E4623464A461421381DFFF727F9132825
:10872C0005D8391D2846FFF79FFF044613E000F1DA
:10873C00080323F00703E846ADEB030D411C234669
:10874C004A4668463C60FFF711F969462846FFF730
:10875C008BFF0446C5461EB12846FFF798FF04441C
:10876C0020461C37BD46BDE8F04302B0704710B53B
:10877C000446FBF747FD204610BD00000348044AA1
:10878C0004490023836000F023BD00BFB0E6032042
:10879C0010CA03207B870D00704710B50C210446CE
:1087AC0000F01BFD204610BD10B5054B03600446C0
:1087BC0001710846FEF71CFF0023A360204610BD84
:1087CC004CAB0D000079FEF71BBF10B504460068DA
:1087DC00FFF7B4F8204610BD10B50446006808B188
:1087EC00FFF7ACF800232360A360636010BD38B5BD
:1087FC0004460D4600680131FFF7A8F810B184E873
:10880C002100012038BD10B50368044613B143683C
:10881C008B4207D22046FFF7EAFF20B1A3680BB9C1
:10882C0022681370012010BD70B50E461146044627
:10883C001546FFF7E8FF18B92046FFF7CDFF09E012
:10884C002A463146A560206800F044FE2268A368E1
:10885C000021D154204670BD38B500230446036076
:10886C004360836003730D4639B1084600F0B9FECE
:10887C00294602462046FFF7D7FF204638BD38B5BB
:10888C00054600680C4660B16A688B689A4206D34C
:10889C00096800F082FEA368AB6000230AE0FFF7D2
:1088AC004DF823682B6063686B60A368AB60002392
:1088BC0023606360A36038BD884210B50B46044644
:1088CC0007D0096819B19A68FFF7AEFF01E0FFF70E
:1088DC0083FF204610BD10B500230446036043609F
:1088EC0083600373FFF7E8FF204610BD884210B584
:1088FC00044601D0FFF7C3FF204610BD38B505462E
:10890C000C4641B1084600F06CFE21460246284652
:10891C00FFF78AFF01E0FFF75FFF284638BD13B56C
:10892C0000238DF80410036043608360037301A976
:10893C0004468DF80530FFF7E1FF204602B010BD6C
:10894C0070B504460E4609B9002070BD6AB1836843
:10895C00D5182946FFF757FF0028F5D02068A368E3
:10896C003146184400F019FEA560012070BD10B509
:10897C008A6809680446FFF7E3FF10B92046FFF741
:10898C002BFF204610BD38B504460D4641B10846B4
:10899C0000F027FE294602462046FFF7D1FF10B90A
:1089AC002046FFF719FF204638BD70B50E469AB128
:1089BC0091B185689D4202D800230B7070BD541E86
:1089CC00ED1A0168AC4228BF2C46194422463046A9
:1089DC0000F024FE0023335570BD10B5836893421C
:1089EC0006D90468A01800F0C0FD08B1001B10BD2A
:1089FC004FF0FF3010BD0000F8B59A420F461D46EF
:108A0C000C4988BF13461446064684BF2C461D46A7
:108A1C00FFF722FFBA6894420AD83968954294BF8E
:108A2C00C4EB0502C4EB020221443046FFF7FCFE06
:108A3C003046F8BDA4AA0D0010B504468B68FFF7AC
:108A4C00DBFF204610BD006808B100F031BD704757
:108A5C0010B50446006818B1FEF770FF00232360C0
:108A6C0010BD10B50446FFF7F3FF204610BD0146BC
:108A7C0000228C20FEF784BC0020FFF7F8BF00001A
:108A8C0010B5094C00204FF6FF732060A080A07138
:108A9C0020816381FEF756FE2046044A0449BDE856
:108AAC00104000F095BB00BFC0E6032010CA0320A5
:108ABC006F8A0D0008B50020FEF7D8FE28B1FEF72E
:108ACC00B5FE80F00100C0B208BD012008BD10B594
:108ADC000020FEF79DFC044668B9FEF72BFE01282A
:108AEC000BD12046FEF756FE38B9FFF7E3FF30B93D
:108AFC00FEF784FEF9E7012010BD002010BDFFF742
:108B0C00D9FF0020FEF784FC003018BF012010BDF7
:108B1C0008B5FFF7DCFFBDE80840FEF751BC0000CC
:108B2C00024B1A68024B1A60704700BFA4C903209D
:108B3C00CCE60320F8B585B2044628460E46174607
:108B4C0000F01AFA60B102212846FEF771FC0228E7
:108B5C0006D13A4631462046BDE8F840FEF740BD06
:108B6C00F8BD70474174704708B5007CFEF790FD66
:108B7C0020EAE07008BD08B5007CFEF761FD20EA34
:108B8C00E07008BD08B5007CFEF76AFD30EA2000F5
:108B9C0028BF4FF0FF3008BD08B5007CFEF758FD2C
:108BAC0030EA200028BF4FF0FF3008BD007CFEF7F4
:108BBC005FBD10B51421044600F00FFB204610BD1C
:108BCC0070B5457C04460E4625B9007CFEF760FD69
:108BDC00002805DD3146207CBDE87040FEF728BD3D
:108BEC00284670BD10B50446084611460022626046
:108BFC004FF47A72A260054A2260012220746274DA
:108C0C001A46FEF705FD204610BD00BF88AB0D00CF
:108C1C000023007CFEF744BD0022FFF7F9BF007C67
:108C2C00FEF7FEBC007CFEF72BBD0000F8B5194C1E
:108C3C0025684DB98420FBF728FA064618B1842222
:108C4C00294600F052FC2660134D2E684EB9842044
:108C5C00FBF71BFA074618B18422314600F045FC9D
:108C6C002F600E4F396811F0010611D13846FBF711
:108C7C0012FA68B122682B6809483146FFF7B2FF37
:108C8C003846FBF70DFA074A0749054800F0A0FAE9
:108C9C000348F8BDECE60320E4E60320E8E60320F5
:108CAC00D0E6032010CA03206F8B0D00417470476F
:108CBC00704708B50021007CFEF71AFD30EA200051
:108CCC0028BF4FF0FF3008BD08B50121007CFEF72E
:108CDC000FFD30EA200028BF4FF0FF3008BD08B56B
:108CEC00007CFEF7FDFC20EAE07008BD08B5007CB6
:108CFC00FEF7EEFC20EAE07008BD007CFEF708BD34
:108D0C0010B51421044600F068FA204610BD38B5A1
:108D1C000446007C0D46FEF7E3FC002801DC607C79
:108D2C0028B12946207CFEF7EBFC20EAE07038BD28
:108D3C0010B50446002363604FF47A73A360054BAF
:108D4C00236001230846217463741146FEF7B0FCBE
:108D5C00204610BDB8AB0D000022007CFEF7B0BC65
:108D6C0010B514220446002100F0BFFB204610BDB4
:108D7C0030B50E4D87B001A8FFF7F2FF296811F04E
:108D8C00010410D12846FBF786F960B101AA2146EF
:108D9C000748FFF7CDFF2846FBF782F9054A06493D
:108DAC00034800F015FA024807B030BDF0E6032086
:108DBC00F4E6032010CA0320BD8C0D0000221146DE
:108DCC004068FEF77BBD002211464068FEF796BD59
:108DDC00002211464068FEF7A1BD00224068FEF754
:108DEC0095BD002281F001014068FEF77FBD002394
:108DFC001A4619464068FEF771BD00231A461946FB
:108E0C004068FEF763BD002211464068FEF746BD80
:108E1C00002202214068FEF749BD00231A46406833
:108E2C00FEF734BD024B04225A60024A1A607047A6
:108E3C0008E70320E8AB0D0008B50C4B33B1FFF786
:108E4C0097FF03681B699847002809DC084B63B13E
:108E5C00FFF7ECFE03681B699847002803DC08BD8C
:108E6C00AFF30080F2E7AFF3008008BD0000000014
:108E7C000000000008B5FFF7DFFFFEF799FA014B81
:108E8C00186008BD18E703200248034A0349121A68
:108E9C0000F020BB00F4032004F40320B0AD0D005F
:108EAC0007B5002300931A466FF07701FEF78CFC90
:108EBC0003B05DF804FB000007B543880A2B08D00B
:108ECC00502B09D1094B1B683BB103B05DF804EB87
:108EDC001847FFF7E5FF06E0002300931A466FF0F2
:108EEC007701FEF771FC03B05DF804FB10E703207B
:108EFC0038B5104C104D2368AB42104B0CBF0122FF
:108F0C0000221A7002D0FFF7BFFF2560FEF740FA6F
:108F1C00044600F0F3FA0A4B13B12046AFF300807D
:108F2C0000210748FEF7AAFC00210648BDE838409E
:108F3C00FEF740BC00F403201E1C279A14E7032004
:108F4C0000000000C58E0D0008B5024B1B681B68A5
:108F5C00019308BD5C02030008B5024B1B685B68FB
:108F6C00019308BD5C02030008B5024B1B689B68AB
:108F7C00019308BD5C02030010B5044600F008F92B
:108F8C00FFF720FC28B1A4F10B03022B01D8002021
:108F9C0010BD00F0D7F8FFF720F908B1012CF6D975
:108FAC00FFF744FEFFF73EFE18B1A4F10903012BB5
:108FBC00EDD9232C8CBF0020012010BD232838B5FF
:108FCC0004460D460AD8FF2908D0FFF7D5FF28B173
:108FDC0029462046BDE83840FEF732BA38BD38B5D0
:108FEC0004460D46FEF734FAFF2810D0062804D8A4
:108FFC004D2323FA00F0C30709D42046FFF7BCFF2A
:10900C0028B129462046BDE83840FEF729BA38BDBC
:10901C0010B50446FEF71CFA0438C0B2012808D972
:10902C002046FFF7A9FF20B12046BDE81040FEF70F
:10903C001FBA002010BD0D2810B504469CBF0E347D
:10904C00A4B22046FFF798FF50B103212046FEF74B
:10905C00EFF9032804D12046BDE81040FEF728BAEA
:10906C00002010BD38B504460D46FFF785FFF0B162
:10907C0004212046FEF7DCF9042805D1A9B22046CC
:10908C00BDE83840FEF70CBA02212046FEF7D0F9B5
:10909C0002280CD12046FEF7DBF9012801D0042868
:1090AC0005D129462046BDE83840FEF709BA38BD3F
:1090BC0070B504460D461646FFF75EFF98B10221C7
:1090CC002046FEF7B5F902280DD12046FEF7C0F96F
:1090DC00012801D0042806D1324629462046BDE895
:1090EC007040FEF7F5B970BD10B5074C2368DB076F
:1090FC0008D42046FAF7CFFF20B1FEF769F92046D5
:10910C00FAF7CEFF014810BD1CE7032020E703202F
:10911C0070B5044614252A46094E002100F0E5F9E5
:10912C00258020253146A5602561284600F06FF882
:10913C0031466060284600F06AF8E060204670BD59
:10914C0014AC0D0030B50E4D296811F0010487B038
:10915C0013D12846FAF79FFF78B101A8FFF7D8FF83
:10916C0001AA21460748FEF7D9FF2846FAF798FFCF
:10917C00054A0649034800F02BF8024807B030BDF9
:10918C0024E7032028E7032010CA0320D1800D0018
:10919C0038B50B4D296811F001040FD12846FAF7A8
:1091AC007AFF58B121460748FFF7FEFA2846FAF72E
:1091BC0077FF054A0549034800F00AF8014838BD15
:1091CC0048E703203CE7032010CA0320A5870D00C5
:1091DC000B460146184600F06FB9FAF758BF00006D
:1091EC00024B1868BFF35F8F704700BF4CE703203A
:1091FC0010B5002814BF044601242046FEF796FB48
:10920C0020B9FFF7EDFF08B18047F6E710BDFFF777
:10921C00EFBF08B5FEF7B2FB244B1A68D0075CBF52
:10922C0001221A60224B1A68D1075CBF01221A6016
:10923C00204B1A68D2075CBF01221A601E4B1A68B9
:10924C00D0075CBF01221A601C4B1A68D1075CBFA7
:10925C0001221A601A4B1A68D2075CBF01221A60ED
:10926C00184B1A68D0075CBF01221A60164B1A689B
:10927C00D1075CBF01221A60144B1A68D2075CBF7D
:10928C0001221A60124B1A68D0075CBF01221A60C7
:10929C00104B1A68D1075CBF01221A600E4B1A687A
:1092AC00D2075CBF01221A60704700BF7CE7032025
:1092BC0078E7032074E7032070E703206CE70320B2
:1092CC0068E7032064E7032060E703205CE70320E2
:1092DC0058E7032054E7032050E70320184B1A6883
:1092EC00D1075CBF01221A60164B1A68D2075CBF0B
:1092FC0001221A60144B1A68D0075CBF01221A6055
:10930C00124B1A68D1075CBF01221A60104B1A6805
:10931C00D2075CBF01221A600E4B1A68D0075CBFE3
:10932C0001221A600C4B1A68D1075CBF01221A602B
:10933C000A4B1A68D2075CBF01221A60704700BF43
:10934C009CE7032098E7032094E7032090E7032091
:10935C008CE7032088E7032084E7032080E70320C1
:10936C00184B1A68D1075CBF01221A60164B1A6899
:10937C00D2075CBF01221A60144B1A68D0075CBF7D
:10938C0001221A60124B1A68D1075CBF01221A60C5
:10939C00104B1A68D2075CBF01221A600E4B1A6878
:1093AC00D0075CBF01221A600C4B1A68D1075CBF56
:1093BC0001221A600A4B1A68D2075CBF01221A609C
:1093CC00704700BFBCE70320B8E70320B4E70320D5
:1093DC00B0E70320ACE70320A8E70320A4E70320B1
:1093EC00A0E70320244B1A68D0075CBF01221A6047
:1093FC00224B1A68D1075CBF01221A60204B1A68F5
:10940C00D2075CBF01221A601E4B1A68D0075CBFE2
:10941C0001221A601C4B1A68D1075CBF01221A602A
:10942C001A4B1A68D2075CBF01221A60184B1A68D3
:10943C00D0075CBF01221A60164B1A68D1075CBFBB
:10944C0001221A60144B1A68D2075CBF01221A6001
:10945C00124B1A68D0075CBF01221A60104B1A68B5
:10946C00D1075CBF01221A600E4B1A68D2075CBF91
:10947C0001221A60704700BFECE70320E8E70320E5
:10948C00E4E70320E0E70320DCE70320D8E7032030
:10949C00D4E70320D0E70320CCE70320C8E7032060
:1094AC00C4E70320C0E703200A22002100F050B9D2
:1094BC000A22002100F04CB910B5054C13462CB112
:1094CC000A4601460220AFF3008010BD204610BDB5
:1094DC000000000010B5431E0A44914204D011F85C
:1094EC00014B03F8014FF8E710BD024403469342C9
:1094FC0002D003F8011BFAE77047000038B5124B95
:10950C001C68A36B0546D3B91820FEF70FFA43F27B
:10951C000E33A06303804AF6CD33438041F23423EB
:10952C0083804EF26D63C3804DF6EC63038105239B
:10953C0043810B23838101220023C0E90423A36B05
:10954C0000221D615A6138BD0CCA032010B50246B9
:10955C00134601321C78002CFAD1013B11F8012B77
:10956C0003F8012F002AF9D110BDC9B2034610F837
:10957C00012B1AB19142F9D11846704700290CBF42
:10958C0018460020704710F8012B11F8013B012AF6
:10959C0028BF9A42F7D0D01A7047034611F8012B16
:1095AC0003F8012B002AF9D170470000024B014649
:1095BC00186800F003B800BF0CCA032070B506464B
:1095CC0008460C4600F00DF8451C29463046FEF7BF
:1095DC00DDF9064618B12A462146FFF77BFF3046D7
:1095EC0070BD034613F8012B002AFBD1181A013861
:1095FC00704730B582B1451E013915F8013F11F89D
:10960C00014FA34206D1EC431444E04201D0002B9D
:10961C00F3D11C46181B30BD104630BD10B50346A7
:10962C0042B111F8014B03F8014B013A002CF7D170
:10963C001A4400E010BD934202D003F8014BFAE744
:10964C0010BD00002DE9F04780464048D0F800904E
:10965C000F463D4615F8014B09EB0400407800F02D
:10966C00080000F0FF0608B12F46F2E72D2C03D1BD
:10967C00BD1C7C78012603E02B2C04BF7C78BD1C20
:10968C0013B1102B0AD15BE0302C57D1287800F0A5
:10969C00DF0058284DD16C7810230235002E14BFF2
:1096AC004FF0004C6FF0004C0027BCFBF3FA38462F
:1096BC0003FB1ACC09EB040E9EF801E01EF0040F1C
:1096CC0001D0303C0BE01EF0030E1BD0BEF1010F9D
:1096DC000CBF4FF0370E4FF0570ECEEB0404A342E5
:1096EC0010DDB7F1FF3F0AD0504506D801D16445D3
:1096FC0003DC03FB0040012701E04FF0FF3715F8B6
:10970C00014BD7E77B1C0CD1002E4FF0220314BF6A
:10971C004FF000406FF00040C8F800302AB9BDE8A7
:10972C00F08706B1404272B107B1691E1160BDE805
:10973C00F0873024002BB1D10823AFE70A23ADE723
:10974C00302CA3D0AAE7BDE8F08700BFA8C903203E
:10975C0013460A46014602480068FFF773BF00BF74
:10976C000CCA03201D400D0059400D0085400D0012
:10977C0089400D0000000000000000000000000007
:10978C00C9420D000D430D004D410D0000000000BD
:10979C000000000095410D00B1410D00B3400D00DB
:1097AC0000000000963007772C610EEEBA51099933
:1097BC0019C46D078FF46A7035A563E9A395649E8F
:1097CC003288DB0EA4B8DC791EE9D5E088D9D297B3
:1097DC002B4CB609BD7CB17E072DB8E7911DBF900F
:1097EC006410B71DF220B06A4871B9F3DE41BE8433
:1097FC007DD4DA1AEBE4DD6D51B5D4F4C785D3838F
:10980C0056986C13C0A86B647AF962FDECC9658A32
:10981C004F5C0114D96C0663633D0FFAF50D088D8E
:10982C00C8206E3B5E10694CE44160D5727167A232
:10983C00D1E4033C47D4044BFD850DD26BB50AA58E
:10984C00FAA8B5356C98B242D6C9BBDB40F9BCACB2
:10985C00E36CD832755CDF45CF0DD6DC593DD1AB0E
:10986C00AC30D9263A00DE518051D7C81661D0BF32
:10987C00B5F4B42123C4B3569995BACF0FA5BDB88E
:10988C009EB802280888055FB2D90CC624E90BB132
:10989C00877C6F2F114C6858AB1D61C13D2D66B68E
:1098AC009041DC760671DB01BC20D2982A10D5EFF2
:1098BC008985B1711FB5B606A5E4BF9F33D4B8E84E
:1098CC00A2C9077834F9000F8EA8099618980EE1F2
:1098DC00BB0D6A7F2D3D6D08976C6491015C63E64E
:1098EC00F4516B6B62616C1CD83065854E0062F272
:1098FC00ED95066C7BA5011BC1F4088257C40FF5CE
:10990C00C6D9B06550E9B712EAB8BE8B7C88B9FCF1
:10991C00DF1DDD62492DDA15F37CD38C654CD4FB4D
:10992C005861B24DCE51B53A7400BCA3E230BBD4F1
:10993C0041A5DF4AD795D83D6DC4D1A4FBF4D6D34D
:10994C006AE96943FCD96E34468867ADD0B860DAF1
:10995C00732D0444E51D03335F4C0AAAC97C0DDD4D
:10996C003C710550AA41022710100BBE86200CC971
:10997C0025B56857B3856F2009D466B99FE461CECD
:10998C000EF9DE5E98C9D9292298D0B0B4A8D7C7F1
:10999C00173DB359810DB42E3B5CBDB7AD6CBAC04D
:1099AC002083B8EDB6B3BF9A0CE2B6039AD2B17469
:1099BC003947D5EAAF77D29D1526DB048316DC73C5
:1099CC00120B63E3843B64943E6A6D0DA85A6A7A69
:1099DC000BCF0EE49DFF099327AE000AB19E077DC5
:1099EC0044930FF0D2A3088768F2011EFEC20669E9
:1099FC005D5762F7CB67658071366C19E7066B6E45
:109A0C00761BD4FEE02BD3895A7ADA10CC4ADD6768
:109A1C006FDFB9F9F9EFBE8E43BEB717D58EB060C4
:109A2C00E8A3D6D67E93D1A1C4C2D83852F2DF4F68
:109A3C00F167BBD16757BCA6DD06B53F4B36B248C4
:109A4C00DA2B0DD84C1B0AAFF64A0336607A044168
:109A5C00C3EF60DF55DF67A8EF8E6E3179BE6946C4
:109A6C008CB361CB1A8366BCA0D26F2536E26852E8
:109A7C0095770CCC03470BBBB91602222F26055544
:109A8C00BE3BBAC5280BBDB2925AB42B046AB35C68
:109A9C00A7FFD7C231CFD0B58B9ED92C1DAEDE5BC4
:109AAC00B0C2649B26F263EC9CA36A750A936D02A8
:109ABC00A906099C3F360EEB856707721357000504
:109ACC00824ABF95147AB8E2AE2BB17B381BB60C28
