:02000002D0002C
:1040000000400D00ACA90D00000006000C000501E9
:084010000401DE0500000000C0
:04401800F0930D0014
:10401C0009480A49884208B505D0094A824202D0AB
:10402C00121A05F097F80748074A0021121A05F0F2
:10403C009CF8014808BD00BF9CC80320D4A80D0003
:10404C0048C9032048C90320F0E7032070B504F0E9
:10405C008FFD074C074BE41AA40800251E46A54209
:10406C0004D056F8253098470135F8E770BD00BFED
:10407C00CCA80D0094A80D0001F0D4B908B502F03D
:10408C0019FEBDE8084004F035BD03F0A9BA03F0F1
:10409C00AFBA03F0ADBA0078B0FA80F040097047BF
:1040AC000123037070477047014B01221A7070474F
:1040BC0058CA0320034B044A1B7883F00103136096
:1040CC00704700BFB0C9032034CA0320014B012242
:1040DC001A707047D2D9032003681847012A02D0FE
:1040EC00022A02D004E0016002E00B6800B1036018
:1040FC000020704737B50C460E480F4D05F066F89A
:10410C00204605F0AEF8204410F8013CA3F1230240
:10411C00534253412B7004F06BFC2B78074A002B55
:10412C0014BF59234E2300930121024B04F03FF995
:10413C0003B030BDFCD9032094D303202C980D0080
:10414C00436913B183690C301847704713B50021CC
:10415C000446084602F02EFF02A90023204641F82F
:10416C00043D02F03FFF019C0CB10123237100219F
:10417C00012002F01FFF2CB1236820469B68984752
:10418C000023237102B010BD10B5054B002204466C
:10419C00114640F8043B03F01DF9204610BD00BF4A
:1041AC0020940D0010B50446FFF7EEFF20462021A9
:1041BC0004F053FE204610BD37B50C460E480F4D8B
:1041CC0005F004F8204605F04CF8204410F8013CAA
:1041DC00A3F12302534253412B7004F009FC2B78BA
:1041EC00074A002B14BF59234E2300930121024B85
:1041FC0004F0DDF803B030BDFCD9032094D30320C8
:10420C005F980D0010B58368044613B10322014674
:10421C009847204610BD0368C9B29B681847000038
:10422C00F0B500258E461549057185604561016024
:10423C00044692E8030085B002AF04F10C0687E84F
:10424C00030096E8030082E8030097E8030086E881
:10425C0003009168606990606161D168A069D06069
:10426C00A1618DE82800064A2346714604F1080036
:10427C0002F0A8FE204605B0F0BD00BF0C940D0066
:10428C0059410D0007B58068002340B18DE80A0044
:10429C001A46022102F0AEFEB0FA80F0400903B0DB
:1042AC005DF804FB38B50F4B0360836804469BB183
:1042BC006FF00041FFF7E6FF0021A06802F0B2FEAC
:1042CC00237903F0FF0513B102F05CFEF8E72946F1
:1042DC00A06802F07FFEA56004F10C00FFF792FFCE
:1042EC00204638BD0C940D0010B50446FFF7DAFFDC
:1042FC0020461C2104F0B1FD204610BD73B50646C6
:10430C000D4611461446FFF7BDFFB068002340B1BF
:10431C00019300952246194602F06CFEB0FA80F02B
:10432C00400902B070BD000040F67263984270B54F
:10433C001CDC0F4A002352F8044BA04203F1010588
:10434C000FDC116888420CDD0A4E56F8232056F813
:10435C0025309D1A031B6B43081B93FBF0F0104494
:10436C0070BD142D2B46E6D1002070BD184670BDD3
:10437C0044A40D00F0A30D001FB50C2AA8BF0C22FD
:10438C00014401A8144604F089FF04AB1C4401A8A5
:10439C00002304F80C3C04F0C7FE04B010BD30B58B
:1043AC00002385B00C68055D954208BF002504F11B
:1043BC0001040DF803500C6002D001330E2BF1D127
:1043CC00684604F0B1FE05B030BD000010B5084CD5
:1043DC0001444FF0FF32884208D010F8013B5340A3
:1043EC00DBB254F8233083EA1222F4E7D04310BD39
:1043FC002C940D00021E30B516DB9110022329B14E
:10440C00914203D0023342FA03F1F8E7023B002059
:10441C004000411C42FA03F401FB01F5A542D8BF50
:10442C000846023BF4D530BD4FF0FF3030BD0000E4
:10443C0008B504F099FC4FF4697203490020BDE8FB
:10444C00084002F027BE00BF98D3032008B504F043
:10445C008BFC4FF4697203490020BDE8084002F060
:10446C0021BE00BF98D3032008B504F07DFCBDE845
:10447C00084002F01FBE000008B5FFF7F5FF044B23
:10448C000B221A700D225A70FF229A7008BD00BFC1
:10449C0098D3032007B504F067FC01220DF1070146
:1044AC00002002F0F7FD9DF80730FF2B02D1FFF73B
:1044BC00E3FF07E0FFF7BCFF044B1A8840F60B53F1
:1044CC009A42F4D103B05DF804FB00BF98D30320EB
:1044DC00012870B50E461D4D1BD11D4B188804F0DC
:1044EC00D7FB044640B904F083FA1A4903F035FFB0
:1044FC00194B2C601C6016E02B68002B15DC04F0AB
:10450C0077FA164903F029FF134B00202860186036
:10451C0070BD2A684AF227039A4206DD04F068FA55
:10452C000F4903F01AFF002070BD0E4C01212088AA
:10453C0004F095FB304602F08DFD0021208804F03C
:10454C008EFB304602F086FD012070BDD4D90320CD
:10455C00CCC8032095980D0038CA0320B1980D00E3
:10456C00C8980D00C8C803202DE9F84F1C4BDFF884
:10457C007890C70F044688461888394604F06FFBBC
:10458C00184B84EAE4711A68A1EBE4711144192206
:10459C00002C91FBF2F64FF0000402FB16121A608D
:1045AC00B4BF6FF0180A4FF0190A1D46A346B44267
:1045BC0013DA41463846FFF78BFF58B1D9F8003073
:1045CC005344002B02DDC9F8003004E0C9F800B0F8
:1045DC00C5F800B034460134E9E7BDE8F88F00BFF8
:1045EC00A8C8032038CA0320D4D90320024B0021C9
:1045FC00188804F034BB00BFD8C8032008B5054B9D
:10460C000121188804F02BFB0A20BDE8084003F0B8
:10461C001FB800BFD8C8032038B504460D46FFF7B5
:10462C00EDFF29462046FFF79FFFBDE83840FFF716
:10463C00DDBF0000134B10B54AF228021A60044685
:10464C00FFF7DCFF96211048FFF78EFF642002F085
:10465C00FFFF96214FF4FA60FFF786FF642002F00B
:10466C00F7FF4FF47A710948FFF77EFF4FF47A7128
:10467C0042F63020FFF778FF1CB1BDE81040FFF781
:10468C00B5BF10BDD4D90320A015FFFF48F4FFFF20
:10469C0038B5064C80F3080544F62062294620887C
:1046AC0004F046FB0123E560237238BD4CC903209E
:1046BC0010B5044C0021208804F014FB0023237255
:1046CC00E36010BD4CC9032070B5044602F0CAFC6F
:1046DC000F4D84F30804064644F6206221462888D0
:1046EC0004F026FB002C14BF01230023EC602B727A
:1046FC0009D0084B1B7833B104F07AF92346064AEB
:10470C00012103F054FE02F0ADFC801B70BD00BF14
:10471C004CC9032089CA0320E3980D00024B0146C3
:10472C00188804F0DFBA00BF9CC80320024B014676
:10473C00188804F0D7BA00BFACC80320024B01465E
:10474C00188804F0CFBA00BFB0C803200346412B31
:10475C00084601D1FFF7E2BF312B01D1FFF7E6BFCD
:10476C00322B01D1FFF7EABF70470000024B00214A
:10477C00188804F0B7BA00BF9CC80320024B002174
:10478C00188804F0AFBA00BFACC80320024B00215C
:10479C00188804F0A7BA00BFB0C80320412801D183
:1047AC00FFF7E4BF312801D1FFF7E8BF322801D170
:1047BC00FFF7ECBF704710B504460846FFF7AEFF95
:1047CC00204602F045FFBDE81040FFF7CFBF10B503
:1047DC0004460846FFF7AAFF204602F039FFBDE861
:1047EC001040FFF7CBBF10B504460846FFF7A6FFF5
:1047FC00204602F02DFFBDE81040FFF7C7BF38B5CB
:10480C000C4605460846FFF789FF2046FFF78EFF4A
:10481C002046FFF793FF284602F01AFFFFF7A6FF8A
:10482C00FFF7ACFFBDE83840FFF7B0BF08B504F0A8
:10483C00C9FA03F02CFB88B904F0C4FA084903F058
:10484C00D9FA04F0BFFA03F0D9FA642002F000FFA1
:10485C0004F0B8FABDE8084003F019BB08BD00BF6E
:10486C00A086010008B504F0ADFABDE8084003F0DD
:10487C00CBBA000008B5074B074800226FF0004187
:10488C00DA61FFF73BFD04F0B3F80449BDE80840DA
:10489C0003F063BD4CC903203CCA0320FA980D00F9
:1048AC0008B56FF000410648FFF7ECFC0020FFF75D
:1048BC000BFF04F09DF80349BDE8084003F04DBD23
:1048CC003CCA03201D990D0038B5114C00212088DD
:1048DC0004F008FAA08804F0EEF9E1680546208897
:1048EC0004F000FA1DB9FFF7DBFF00250EE02846A7
:1048FC00FFF71AFD052200EBC003B0F5167F93FB02
:10490C00F2F303F5A0732062A362ECDC284638BDF9
:10491C004CC903202DE9F0432F4E8BB0F56802F003
:10492C00A1FBF769C7EB0009B9F57A7F80463446DD
:10493C004ED3FFF7C9FFC6F81C808046002847D02D
:10494C0017B97761B76143E0336A776AB569E26A90
:10495C00FF1A4FF47A7107FB09F393FBF1F31D4433
:10496C00B5617669636BBE1B6B434E437A43216B17
:10497C00A56B92FBF1F193FBF5F56A18E56B236CD3
:10498C0096FBF9F6754395FBF3F5144B1B78154420
:10499C00EBB104F02DF8D4F820E0636A0895079683
:1049AC00A16906910A2293FBF2F102FB11330393E6
:1049BC009EFBF2F302FB13E2029101920093059726
:1049CC00CDF810904346064A012103F0F0FC6761D4
:1049DC0028460BB0BDE8F0834CC9032089CA0320DC
:1049EC0060990D00274A2DE9F3410346044600F176
:1049FC001807164618685968154603C50833BB4294
:104A0C002A46F7D10027204D37762068616886F852
:104A1C0024702B4602AE03C3192346F8043D7C22B6
:104A2C00314620462F72FFF7BAFC314668727C2261
:104A3C002046FFF7B4FC314680467C222046FFF727
:104A4C00AEFC3146E8607C222046FFF7A8FC0199B9
:104A5C00288286B23246214405F1120004F01EFC75
:104A6C00AB19314605F112009F74FFF7AFFC00281B
:104A7C00B8BF4042C8EB00035842584102B0BDE8F1
:104A8C00F08100BF70D203208CCA0320F0B505461C
:104A9C0095B00E4601682B4804F0BFFB2A4A2B49FF
:104AAC00002313702A4A04A8137003F02FFD294623
:104ABC000CA8049C03F069FD7C2108A803F089FD77
:104ACC0008A90CA803F0ADFD3146074610A803F069
:104ADC001DFD10A9384603F0A4FD1E4B0268197881
:104AEC001D4B1B780B438DF8003021463C2302A84C
:104AFC0002F082FF039C7CB16368013B63605BB98D
:104B0C00236820469B689847A368013BA3601BB9A8
:104B1C0023682046DB68984710A803F0B0FC08A86F
:104B2C0003F0ADFC0CA803F0AAFC04A803F0A7FC4E
:104B3C0003F05EFF00962B68084A012103F037FC56
:104B4C0015B0F0BDB0D9032094D30320C9990D0042
:104B5C00FCD90320B4C90320FCC90320DE990D0045
:104B6C007FB503F045FF1549154E164D03F0F5FBC7
:104B7C0002F0B6FC0446B0B10123337002F072FAB5
:104B8C00114B124900F51C50103018600023684678
:104B9C002B7003F0BBFC68460D49FFF777FF6846A6
:104BAC0003F06DFC08E003F023FF0A4903F0D5FB8A
:104BBC00094B34702C701C7004B070BDFD990D0045
:104BCC00D9C903205CD3032020CA0320129A0D00FC
:104BDC00DCD90320259A0D0059CA0320F8B50C4FD7
:104BEC0006460024251D3D4429461822304604F073
:104BFC0040FB014638B92846E82204F0B6FABDE875
:104C0C00F840FFF723BCE834B4F5687FEAD1F8BD6F
:104C1C0098D30320F0B50024084F4454851A144649
:104C2C00A01A884204F1010007DAE65D9E4208BF33
:104C3C0000262E5501D00446F2E7F0BDFCD9032026
:104C4C00034BE82202FB00300021043004F08DBA43
:104C5C0098D3032008B50A4B00201870FFF7F0FF1B
:104C6C000120FFF7EDFF0220FFF7EAFF0320FFF71B
:104C7C00E7FF044BFF229A70BDE80840FFF7E6BB44
:104C8C0024CA032098D3032038B5074C0749E822DF
:104C9C00054602FB0040043004F05CFAA570BDE848
:104CAC003840FFF7D3BB00BF98D3032070D203204A
:104CBC0010B58AB03A230A780993CB8908932C2330
:104CCC0007938C89069405934C89049403930C895F
:104CDC0002940193044C496800912044034902F06A
:104CEC0097FC0AB010BD00BF3CD70320549A0D00AE
:104CFC002DE9FF41174FE8264643BA197C2303934D
:104D0C00516A02910193116A0091043212491348BD
:104D1C0002F07EFC0025044606F12C08AB193B443E
:104D2C0093F82C30412B02D0313B012B06D808EBE9
:104D3C00050120463944FFF7BBFF04441035C02D54
:104D4C00ECD1064B1C440120002304F8013C04B0B8
:104D5C00BDE8F08198D303206D9A0D003CD7032059
:104D6C0010B5084B9C78FF2C1ABF013404F00304D7
:104D7C0000242046FFF788FF2046BDE81040FFF7CF
:104D8C00B7BF00BF98D3032070B5164B1B780E46E7
:104D9C0033BB154B1A18927C7C2A21D03A2A1CD092
:104DAC000446B4F5FA6F1ADA1A19927C3A2A06D12B
:104DBC00221A01460D48FFF7DFFA30600FE02C2A6B
:104DCC0004F1010507D1221A01460848FFF7D4FA6D
:104DDC003060284670BD2C46E3E7013070BD20469C
:104DEC0070BD00BFD1D903208CCA03209ECA0320FA
:104DFC0030B50029054685B019481A4C01D101601F
:104E0C0018E0194BDA684FF47A7303FB02F204DAF8
:104E1C004FF0FF33026023600DE0036819446423F4
:104E2C000160594391FBF2F19942A8BF19462368DE
:104E3C00994200D0216003F0DBFD0C4B196A0A2368
:104E4C0091FBF3F203FB121302932368019200937C
:104E5C00074A2B68012103F0AAFA05B030BD00BF48
:104E6C0000CA032060D303208CCA03204CC9032042
:104E7C007D9A0D0010B502F0F5F80A4B1B7804462C
:104E8C001BB9FFF747FDFFF71FFC074B188803F012
:104E9C00FFFE431E58425841044B187002F0E2F8D2
:104EAC00001B10BDB0C90320BCC80320D1D90320FE
:104EBC002DE9F047DFF83CA005460E4690461F460C
:104ECC000024C0F10009444512DA31462846FFF7A8
:104EDC004BFB0FB1FFF7CEFF31464846FFF744FBC3
:104EEC000FB1FFF7C7FF9AF800300BB90134EAE7AE
:104EFC00BDE8F087D1D90320F8B5114F0446002541
:104F0C004FF4FA7690FBF6F6B54209DAFFF7B2FFEA
:104F1C00C0F5FA7002F09CFB3B7883B90135F3E7DE
:104F2C004FF4FA7294FBF2F302FB1344FFF7A2FF67
:104F3C00844204DD201ABDE8F84002F089BBF8BDBC
:104F4C00D1D90320F0B516464A1C85B007460D464C
:104F5C0002D133600C4621E00A462C2103F097FB6A
:104F6C00431C04460CD12A463946684603F0BEFB66
:104F7C00684603F0C2FB3060684603F080FA0DE02F
:104F8C0003462A463946684603F090FB684603F010
:104F9C00B4FB3060684603F072FA0134204605B069
:104FAC00F0BD000010B50120FFF740FC18B9BDE8BA
:104FBC001040FFF757BC03F01BFD0F4903F0CDF970
:104FCC00002403F0FFFE214602F057FF03F0FAFE27
:104FDC000021FFF720F903F0F5FE02F055FF30B980
:104FEC0003F006FD2346054A012103F0E0F90134E4
:104FFC007F2CE6D1DBE700BFA39A0D00C19A0D0010
:10500C00134A144908B500231370134A0B7013701C
:10501C00124A0B721370124A1370124A1370124A0E
:10502C001360124A1360124A13701376114A1370EC
:10503C00137682F82430104A137082F86E3202F024
:10504C0011F80E4B00F56A406030186008BD00BFC7
:10505C00B3C903208CCA0320B1C903205CD303203D
:10506C0094D30320B0C9032000CA032060D30320CB
:10507C00DCD9032070D203203CD7032004CA0320C0
:10508C0010B507220D490E4804F0F3F8044670B928
:10509C0003F0AEFC0B4903F060F90B4B01201C70C4
:1050AC00FFF7C8FAFFF7ACFF084B1C6010BD03F00C
:1050BC009FFC0749BDE8104003F04FB9E09A0D0082
:1050CC0009CA0320E89A0D0088CA032004CA0320E9
:1050DC00F69A0D0010B507220D490E4804F0C9F8D8
:1050EC00044670B903F084FC0B4903F036F90B4B02
:1050FC0001201C70FFF79EFAFFF782FF084B1C6023
:10510C0010BD03F075FC0749BDE8104003F025B94C
:10511C00E09A0D0009CA03200A9B0D0030CA032037
:10512C0004CA0320199B0D001FB5174C03F060FC3B
:10513C00214603F012F9154B01221A7001F092FF6F
:10514C00134B00F51C50103018602146684603F0D4
:10515C00DDF94FF0FF316846FFF74AFE684603F071
:10516C008EF90C49684603F0D1F90B496846FFF7F4
:10517C008DFC684603F083F9FFF738FA074B0022E1
:10518C001A7004B010BD00BF0A9B0D0030CA03207A
:10519C00ACC903202D9B0D0070D2032059CA0320EB
:1051AC001FB503F025FC164903F0D7F8154B012267
:1051BC001A7001F057FF144B144900F51C501030B5
:1051CC001860684603F0A2F94FF0FF316846FFF70C
:1051DC000FFE684603F053F90D49684603F096F943
:1051EC000C496846FFF752FC684603F048F9FFF794
:1051FC00FDF9094B00221A7005B05DF804FB00BFE5
:10520C00399B0D0088CA03201CCA0320489B0D0043
:10521C00569B0D0070D2032059CA032070B50E4660
:10522C000446154603F00AFD012E05D129462046F9
:10523C00BDE8704003F056BD70BD70B50E46044617
:10524C00154603F0FBFC012E05D129462046BDE88E
:10525C00704003F004BD70BD30B500228BB001214D
:10526C005548564D02F0B6F80023042254495548CF
:10527C0002F00EF9544A5549554802F09DFA06A819
:10528C0002F036F906A9284603F08AF906A803F0BD
:10529C00F6F8294602A803F078F94E4902A803F063
:1052AC00CCF90024014606A803F06FF923462246E8
:1052BC00494901940094069802F02AF906A803F0D3
:1052CC00DEF802A803F0DBF8294602A803F05DF92A
:1052DC00424902A803F0B1F9014606A803F055F9BA
:1052EC00224623463E4901940094069802F010F998
:1052FC0006A803F0C4F802A803F0C1F8394B022148
:10530C00188803F09BFC384B0221188803F096FC9C
:10531C00364B012211461888FFF78FFF344B21467C
:10532C00188803F08BFC334B224618880121FFF7B9
:10533C0075FF314B224618880121FFF76FFF2F4B69
:10534C00224618880121FFF769FF2D4B214618884A
:10535C0003F074FC2B4B2146188803F06FFC2A4B8E
:10536C002146188803F06AFC284B22461888012134
:10537C00FFF763FF264B224618880121FFF75DFFDC
:10538C00244B224618880121FFF757FF224B80221D
:10539C0018880121FFF742FF204B22461888012173
:1053AC00FFF73CFF1E4B224601211888FFF736FF02
:1053BC00FFF770F80BB030BD68D3032084D3032003
:1053CC003CD70320629B0D006B9B0D0071690D0097
:1053DC0099770D00749B0D00C5410D00999B0D0034
:1053EC0001410D00CCC80320BCC80320D0C8032049
:1053FC00D4C803209CC80320ACC80320B0C8032029
:10540C00C4C80320A0C80320B8C80320D8C80320F0
:10541C00C8C80320A8C80320B4C80320C0C80320F0
:10542C00A4C8032008B5FFF717FF03F0E1FA4FF407
:10543C00E13103F0D1FA034B01221A70024B002226
:10544C001A6008BD08CA03202CCA032030B5144BBF
:10545C00144D1A7885B01C4622B101F003FE2B685E
:10546C0083421AD201F0FEFD00F5EA40303028608C
:10547C0041F2883002F0ECF802F032F868B1012306
:10548C0009492370684603F041F8084B68461968CF
:10549C00FFF7FCFA684602F0F2FF05B030BD00BF22
:1054AC00B2C903202CCA0320BB9B0D0084D303205C
:1054BC0007B5009313460A46012102F078FF03B0AA
:1054CC005DF804FB38B50A4B1B7805460C4633B126
:1054DC0003F08EFA23462A460649FFF7E9FF064BEE
:1054EC002A4621461878BDE8384003F07DB900BF44
:1054FC0089CA0320CB9B0D00C0C8032073B504469A
:10550C0003F060FC214602F0B4FC03F05BFC0021CC
:10551C00FEF781FE064603F055FC002102F0B0FCBC
:10552C00054630B103F064FA2B4632461549FFF7B5
:10553C00BFFF03F047FC2146042202F097FC03F066
:10554C0041FC03685B699847044603F03BFC036825
:10555C005B6998470C4B1B78054643B103F048FA3E
:10556C00E3B20093094AEBB2012102F020FF6A0773
:10557C0004D4E0B2C31E5842584100E0002002B0EF
:10558C0070BD00BFFD9B0D0089CA03201E9C0D0041
:10559C007FB5124B1C680D46041B06461049684625
:1055AC0002F0B4FF84EAE473A3EBE4736B43684644
:1055BC0046F2A81193FBF1F1FFF71AFC684602F0D2
:1055CC005EFF03F015FA234632460649FFF770FFDB
:1055DC0029462046FEF7C8FF04B070BDD4D903207D
:1055EC00349C0D004F9C0D00962144F25060FFF747
:1055FC00CFBF962142F63020FFF7CABF0A460121E1
:10560C0002F0D5BE13460A46012102F0D0BE0000BE
:10561C002DE9F347444C23780646884615462BB1B2
:10562C0003F0E6F932464149FFF7ECFF03F0CAFB01
:10563C00294602F022FC03F0C5FB0021FEF7EBFD2E
:10564C00824603F0BFFB0221FEF7E5FD074603F09F
:10565C00B9FB012102F014FC814650B1574403F010
:10566C00C7F9CDF8049000973346314A012102F076
:10567C009EFE03F0A7FB294602F0FFFB03F0A2FB02
:10568C000621FEF7C8FD824603F09CFB03685FFA17
:10569C0088F19B689847074603F094FB012102F0C0
:1056AC00EFFB814650B1574403F0A2F9CDF80490BA
:1056BC00009733461E4A012102F079FE03F082FB6B
:1056CC00294602F0DAFB03F07DFB0621FEF7A3FD71
:1056DC00074603F077FB002102F0D2FB064630B1FF
:1056EC0003F086F933463A461249FFF7E1FE03F020
:1056FC0069FBE9B2012202F0B9FB054603F062FB3B
:10570C0003685B699847237806464BB103F070F940
:10571C000196CDF800802B46074A012102F047FE86
:10572C0002B0BDE8F08700BF89CA03207A9C0D0047
:10573C00989C0D00FD9B0D00BF9C0D002DE9F743BF
:10574C005A4D5B4EDFF89C81DFF8749101232B706E
:10575C0003F04EF9574902F000FE03F0C1F84FF484
:10576C00165103F0B3F803F043F9534902F0F5FD79
:10577C000021308803F073FA01F074FC00F59C549E
:10578C0003F036F94D4902F0E8FD0834B8F8000092
:10579C0003F07EFA074603F02BF92E2102F0CEFD22
:1057AC0001F060FCC9F8000001F082FEC82001F095
:1057BC004FFF012F424F03D001F054FCA042E5D320
:1057CC0003F016F9804603F08BF803681B699847C1
:1057DC00002814BF59224E223A494046FFF712FFC7
:1057EC000121308803F03BFA03F002F9364902F04C
:1057FC00B4FD03F075F803681B69984748B901F0CC
:10580C0031FC844205D901F02DFC386001F050FECA
:10581C00EFE7642001F01CFF03F0EAF82B492C4E53
:10582C0002F09BFD002403F0E3F82E2102F086FD2C
:10583C0003F056F803685B699847431C1CBF30554E
:10584C00013403F04DF803681B69984708B1172C15
:10585C00E9DD03F0CDF802F074FD172C1C4A0CDCCA
:10586C001C4B114603F1180053F8046B41F8046B00
:10587C008342F9D1184B002119700026167603F0DB
:10588C00B7F8134B154A0094012102F090FD03F078
:10589C0027F803F01EF803F0ABF81149FFF7AEFE42
:1058AC0020462E7003B0BDE8F08300BF5ACA032017
:1058BC00D0C80320E29C0D00F59C0D000C9D0D0042
:1058CC0018E703201D9D0D00469D0D00A79D0D00A2
:1058DC00DCD903205C9D0D0059CA0320759D0D0079
:1058EC008D9D0D00D4C8032070B58EB000250146E7
:1058FC0006460AA807950895099502F046FE2B4620
:10590C0006AA29460AA8FFF71DFB04460AA802F0BE
:10591C00B6FD069B013B202B00F24C82DFE813F016
:10592C0021002400280057004A0286008B00A600A4
:10593C00AB00CD00EE0010013101530176017B016B
:10594C0095019A01AB01AE01B101B401B8014A0253
:10595C004A024A02BB01D4010A0211024A024A025B
:10596C001502FFF777F925E20120FEF763FE1EE230
:10597C0031460AA802F009FE002307AA21460AA80C
:10598C00FFF7E0FA04460AA802F079FD31460AA8AE
:10599C0002F0FBFD4FF47A7308AA21460AA8FFF720
:1059AC00D1FA0AA802F06BFD08990798BB4CFEF7D8
:1059BC0033FE03F01DF8BA4BBA4A1B6801932368F7
:1059CC0000930121079B02F0F2FC2468F3E1FEF73F
:1059DC0015FEFFF709FEFEF709FEB34B0022314618
:1059EC000AA883F8242002F0D0FDB62307AA21468A
:1059FC000AA8FFF7A7FA04460AA802F040FD3146B0
:105A0C000AA802F0C2FDFF2308AA21460AA8FFF744
:105A1C0099FA0AA802F033FDA44B079C1C60A44B16
:105A2C00089A1A60A34B01221A70C4E1FEF71CFD00
:105A3C0002F07CFE83E131460AA802F0A6FD07AA1B
:105A4C0021464FF4B9730AA8FFF77CFA0AA802F0B2
:105A5C0016FD02F0CDFF984B196A0A2391FBF3F265
:105A6C0003FB12139549FFF723FD24E0FEF704FD19
:105A7C00934B5C789FE131460AA802F086FD4FF407
:105A8C00FA7307AA21460AA8FFF75CFA04460AA88B
:105A9C0002F0F5FC31460AA802F077FD2146FF23FF
:105AAC0008AA0AA8FFF74EFA0AA802F0E8FC08991F
:105ABC000798FEF780FE079C7DE131460AA802F0AC
:105ACC0064FD07AA4FF4FA7321460AA8FFF73AFAC5
:105ADC0004460AA802F0D3FC31460AA802F055FD90
:105AEC002146FF2308AA0AA8FFF72CFA0AA802F0FD
:105AFC00C6FC08990798FEF76AFE1FE031460AA813
:105B0C0002F043FD4FF4FA7307AA21460AA8FFF7E7
:105B1C0019FA04460AA802F0B2FC31460AA802F0AF
:105B2C0034FD2146FF2308AA0AA8FFF70BFA0AA89E
:105B3C0002F0A5FC08990798FEF755FE089C3AE17F
:105B4C0031460AA802F021FD07AA4FF4FA73214648
:105B5C000AA8FFF7F7F904460AA802F090FC3146B0
:105B6C000AA802F012FD2146FF2308AA0AA8FFF793
:105B7C00E9F90AA802F083FC08990798FEF73FFEA2
:105B8C00DCE731460AA802F000FD07AA4FF41673B1
:105B9C0021460AA8FFF7D6F904460AA802F06FFCC2
:105BAC0031460AA802F0F1FC21464FF47A7308AA98
:105BBC000AA8FFF7C7F90AA802F061FC0899079830
:105BCC00FFF780FC77E731460AA802F0DEFC07AA53
:105BDC00002321460AA8FFF7B5F904460AA802F0EB
:105BEC004EFC31460AA802F0D0FC21464FF47A73E1
:105BFC0008AA0AA8FFF7A6F90AA802F040FCFEF7CB
:105C0C00FDFC08990798FFF7C3FCCEE0FEF7F6FC05
:105C1C00FFF7EFFCC9E031460AA802F0B6FC4FF4DE
:105C2C00B97307AA21460AA8FFF78CF90AA802F053
:105C3C0026FC079C40F25623621E9A4200F2BB805F
:105C4C001D4B00225C62DA61B5E0FEF7D7FCFFF772
:105C5C00CBFCAAE031460AA802F097FC802307AAE5
:105C6C0021460AA8FFF76EF90AA802F008FC07986B
:105C7C00FEF70EFD1FE7FEF71BFD60E0FEF7FAFDD9
:105C8C005DE0FEF70DFE5AE00E4B01241C7092E015
:105C9C000C4B1D708EE0FFF785F950E0D4D9032032
:105CAC0038CA0320C49D0D0070D20320ACD9032048
:105CBC0058D3032058CA03204CC90320F39D0D0070
:105CCC0098D3032089CA0320FEF798FCFFF78CFCBD
:105CDC00FEF78CFC31460AA802F057FC07AAB62343
:105CEC0021460AA8FFF72EF904460AA802F0C7FBC2
:105CFC0031460AA802F049FC08AA2146FF230AA84B
:105D0C00FFF720F90AA802F0BAFB354B0799354882
:105D1C0000221A70344B83F82420344B1960344B16
:105D2C0008991960334B01246FF000411C70FEF789
:105D3C00E5FA40E06FF000412A48FEF7A3FA01248F
:105D4C0039E0FFF7FBFC044635E031460AA802F0C7
:105D5C001CFC192307AA21460AA8FFF7F3F80446EE
:105D6C000AA802F08CFB31460AA802F00EFC96231E
:105D7C0008AA21460AA8FFF7E5F804460AA802F08B
:105D8C007EFB31460AA802F000FC0A2309AA214630
:105D9C000AA8FFF7D7F80AA802F071FBFEF72EFC51
:105DAC0007A8002307C8FFF783F8FEF71FFC124B68
:105DBC001C6800E0002402F01BFE002305930493F2
:105DCC00099B0393089B0293079B01930094069BEA
:105DDC000A4A012102F0EBFA20460EB070BD00BF5A
:105DEC0089CA032090C9032070D20320ACD90320A8
:105DFC0058D3032058CA0320D4D90320089E0D0081
:105E0C0010B5154B188802F043FF144B021E0CBF43
:105E1C000121002119701C460CD10121104801F000
:105E2C00D9FA4FF4C8710846FFF74CFB0D4B012211
:105E3C001A7005E04FF496714FF4C870FFF742FBEF
:105E4C0002F0D6FD23780849002B14BF59224E22AC
:105E5C00FFF7D8FB10BD00BFBCC8032059CA0320F4
:105E6C0068D30320D8C90320529E0D0010B51B4BDC
:105E7C001A7892B11A4C227852B1002222701A7000
:105E8C0002F0B6FD174902F068FAFFF7B9FF04E01B
:105E9C00322001F0DDFB01232370134B1C785CB125
:105EAC0001F0E0F8114B1B68984216D902F0A0FDE6
:105EBC000F4902F052FA0AE00E4B1A786AB11C70C4
:105ECC000D4B1B784BB1FFF739FC182803D1BDE8FB
:105EDC001040FEF745BE094B1C7010BDD2D90320F3
:105EEC00FDC90320689E0D00D9C9032020CA0320D8
:105EFC00809E0D00D8C9032059CA03205CD303200F
:105F0C0013460A46002102F052BA00002DE9F3476D
:105F1C000546174698460E4602F054FF294601F0F6
:105F2C00A8FF02F04FFF0021FEF775F9824602F040
:105F3C0049FF8321FEF76FF9044602F043FF01216C
:105F4C0001F09EFF814660B1544402F051FDCDF842
:105F5C00049000942B46754A012102F028FA002087
:105F6C00E0E001F07FF800F59C5909F1080928469A
:105F7C00FFF7C4FA70B901F075F8484503D26420F4
:105F8C0001F066FBF3E702F033FD2A466849FFF7A0
:105F9C0039FBE4E7674C23782BB102F029FD2A4644
:105FAC006549FFF72FFB02F00DFF294601F061FF59
:105FBC0002F008FF0021FEF72EF9824602F002FFE4
:105FCC00002101F05DFF814630B102F011FD4B461E
:105FDC0052465A49FFF76CFA02F0F4FE29460A229F
:105FEC0001F044FF02F0EEFE03685B69984705463A
:105FFC0002F0E8FE03685B699847237881464BB151
:10600C00EDB202F0F5FC00955FFA89F34C4A0121E0
:10601C0002F0CDF902F0D6FE03685B69984723784D
:10602C00C5B22BB102F0E4FC2A464649FFF768FFE3
:10603C0002F0C8FE03685B6998472378814633B148
:10604C0002F0D6FC5FFA89F23E49FFF759FF4FEA9E
:10605C00092909F47F4914234D4495FBF3F50A9B58
:10606C00433D1D8002F0AEFE03685B6998472378C0
:10607C00C5B22BB102F0BCFC2A463249FFF740FFF7
:10608C0002F0A0FE03685B69984723785FFA80F9F9
:10609C002BB102F0ADFC4A462A49FFF731FF05EB64
:1060AC000925358002F08EFE03685B6998472378DA
:1060BC00C5B22BB102F09CFC2A462249FFF720FF07
:1060CC0002F080FE03685B6998472378C6B22BB157
:1060DC0002F08EFC32461B49FFF712FF05EB06253A
:1060EC003D8002F06FFE03685B6998472378C5B268
:1060FC002BB102F07DFC2A461249FFF701FF02F09A
:10610C0061FE03685B6998472378C6B22BB102F035
:10611C006FFC32460B49FFF775FA05EB0625A8F81C
:10612C000050012002B0BDE8F08700BFC59E0D00F5
:10613C00259F0D0089CA0320F59E0D00FD9B0D00C7
:10614C001E9C0D00219F0D002DE9F04F91B04128B0
:10615C0006460B9117460AD031280BD032280CD0AA
:10616C0002F046FC32466049FFF74CFAB9E04FF0BA
:10617C00740904E04FF0750901E04FF076095B4CAF
:10618C0094F824300C25B3FBF5F005FB10300133EB
:10619C0084F82430564B01221A705FFA80FBFEF70C
:1061AC0087FA39463046FEF7D1FA642001F050FAEE
:1061BC004A460B993046FFF72BFA04EB0B130C9362
:1061CC0083F8286000F04EFF0C9B4FF0000805226E
:1061DC00D86283F82920474645464446C2460C9966
:1061EC000C9B91F82910414A8A4503F1290320DAC6
:1061FC000EAB00930FAA0DF13E030DF13A01484688
:10620C00FFF784FE60B1BDF83A301C44BDF83C3059
:10621C001D44BDF83E301F44BDF83830984405E0AD
:10622C0002F0E6FB32463349FFF7ECF90AF1010ABA
:10623C00D5E70BF1030A4FEA0A1A02EB0A0995FBA0
:10624C00F1F5A9F80250ADB294FBF1F46D4322F8CC
:10625C000A4097FBF1F7A4B204FB0450A9F80470B0
:10626C00BFB298FBF1F807FB0700A9F806800D9365
:10627C000C92FEF7BFF8054602F0BAFBADB204462D
:10628C0000F0F0FE0895B9F804100791B9F8021067
:10629C000C9A069132F80A2005921FFA88F808EB3E
:1062AC00C808052298FBF2F2203292B20492B9F897
:1062BC0006200D9B03921B7802930F4BB0FBF3F25D
:1062CC0002FB13000B9B019000930C4A33460121F7
:1062DC00204602F06CF8064B002230461A70FEF78E
:1062EC005DFA11B0BDE8F08F409F0D0070D2032015
:1062FC00B0C903205C9F0D0040420F00839F0D002E
:10630C002DE9F04105460E46144600F0ABFE07465B
:10631C000120FEF78BFAE0B1324629464120FFF707
:10632C0013FF0CB1FEF7A6FD324629463120FFF7CC
:10633C000BFF0CB1FEF79EFD324629463220FFF7CB
:10634C0003FF0CB1FEF796FD02F052FB01F0F9FFD2
:10635C0004E002F04DFB0B4901F0FFFFFEF782FA5F
:10636C00094B1B7863B102F043FB044600F07AFE44
:10637C00064AC31B01212046BDE8F04102F017B8C4
:10638C00BDE8F081C59F0D0089CA0320F89F0D0060
:10639C00F0B5924B1D7889B00C461E46002D40F08E
:1063AC001A81042800F0C38043DC012800F08980A6
:1063BC0011DC002840F00B81894904A802F0A6F8F2
:1063CC0041F2707104A8FEF713FD04A802F057F80F
:1063DC004FF47A7086E0022800F08780032840F0A2
:1063EC00F68001A92046FEF7CFFC02A9FEF7CCFCF3
:1063FC0003A9FEF7C9FC7B49044604A802F086F801
:10640C00019B83EAE371A1EBE371029B5943039B6C
:10641C0004A84B4346F2A81193FBF1F1FEF7E8FCFC
:10642C0004A802F02CF801A8012307C8FEF740FDD0
:10643C00CDE0142800F0AC8037DC0A2800F08F8007
:10644C000B2840F0C48001A92046FEF79DFC02A950
:10645C00FEF79AFC6449044604A802F057F8634B13
:10646C001968A1F58C4150390029B8BF49429623CF
:10647C00594304A846F2A81391FBF3F1FEF7B8FCBC
:10648C0004A801F0FCFFFFF7AFF8594904A802F08B
:10649C003DF841F2707104A8FEF7AAFC04A801F0C3
:1064AC00EEFF2A46029901986FE0152800F08880CB
:1064BC00632840F08C8002F09BFA4E4901F04DFFAE
:1064CC0087E001A92046FEF75FFC4B49044604A86F
:1064DC0002F01CF8019904A8FEF78AFC04A801F04C
:1064EC00CEFF0198FEF708FD73E001A92046FEF7E8
:1064FC004BFC02A9FEF748FC4049044604A802F0F4
:10650C0005F8019B83EAE371A1EBE371029B04A8FC
:10651C004B4346F2A81193FBF1F1FEF769FC04A87A
:10652C0001F0ADFF02990198FEF71EF84FE001A9AA
:10653C002046FEF729FC02A9FEF726FC304904464A
:10654C0004A801F0E3FF019904A8FEF751FC04A88C
:10655C0001F095FF02990198FEF7B4FF37E002F0C5
:10656C0047FA2849FFF74AF8FFF73EF8204904A8F4
:10657C0001F0CCFF41F2707104A8FEF739FC04A8BD
:10658C0001F07DFF2A46FF21B620FFF7B9FE20E07F
:10659C0001A92046FEF7F8FB044602F029FA019BFC
:1065AC00194A012101F003FF671C019BAB4210DD6E
:1065BC00337873B9384600F02BF801350446F4E70C
:1065CC0002F016FA114901F0C8FE604204E0FEF731
:1065DC0051FC601C00E0084609B0F0BDD1D9032085
:1065EC0009A00D0021A00D0061A00D00D4D903203D
:1065FC0059A00D0092A00D0012A00D001AA00D00C4
:10660C002DA00D0035A00D006BA00D0084A00D0079
:10661C0030B585B003A90546FEF7B6FB014665B952
:10662C00039B53B1184B01221A7002F0E1F9174980
:10663C0001F093FE4FF0FF3023E00398FFF7A8FE24
:10664C00044602F0D5F9039B019300942B46104AA3
:10665C000D4D012101F0ABFE039B632B0DD0002CE3
:10666C000BDD2B784BB903A92046FEF78DFB0146B9
:10667C000398FFF78DFE0446EEE784EAE470A0EB86
:10668C00E47005B030BD00BFD1D903209EA00D0031
:10669C00B6A00D001FB52D4B2D49012268461A706E
:1066AC0001F034FF00216846FEF7A2FB684601F0BA
:1066BC00E6FE02F087F8274BD86100F009FF4FF493
:1066CC00FA6000F0C5FF00F00BFF044628B102F0A1
:1066DC008FF9214901F041FEEFE7FDF7ABFF4FF4D5
:1066EC0016714FF47A70FEF7EDFE40F2DC5000F0BC
:1066FC00AFFFFEF7D5F82146204600F05BFC2046A4
:10670C00FFF786FF2146012000F054FCFEF728FB22
:10671C00FEF7B0F800F0D4FE4FF4FA6000F098FFEA
:10672C0000F0DEFE28B902F063F90C4901F015FE09
:10673C00F0E70B4B0B4A1B780B4883F001031370EB
:10674C000121002200F046FE04B010BDB3C90320A5
:10675C00DAA00D0070D20320E7A00D00E9A00D0017
:10676C00D1D90320DAC90320BCC9032013460A4639
:10677C00012101F01CBE000007B502F039F92F49C8
:10678C0001F0EBFDFEF70EFC02F032F92C4901F0A2
:10679C00E4FD0120FDF74EFF02F02AF9294901F032
:1067AC00DCFDFF214FF4FA70FEF705F84FF4FA7098
:1067BC0000F04EFFFF214FF4FA70FEF708F84FF48B
:1067CC00FA7000F045FFFF214FF4FA70FEF70BF85A
:1067DC0002F00EF91C4901F0C0FD4FF4A571FA202E
:1067EC00FEF770FEFEF70CFCFFF70AFB174B18497F
:1067FC001888002200924FF0FF3301F04DFB02F09D
:10680C00F7F8144B14491A68FFF7B0FF02F0F0F8D0
:10681C00124A917813780191527800920121104A12
:10682C0001F0C5FDFEF726F800F01CFC0D4B00F541
:10683C009C500830186003B05DF804FBEBA00D0011
:10684C0011A10D0021A10D002DA00D00BCC803202D
:10685C00D9400D0084D3032031A10D0098D303201F
:10686C003FA10D00F8D9032010B502F0C1F80F4973
:10687C00FEF7C4FE0E4B0F490F4800221A70072278
:10688C0002F0F7FC044650B902F0B2F80B49FEF7DF
:10689C00B5FE0B4B1C70BDE81040FFF76DBF02F04E
:1068AC00A7F80849FEF7AAFE10BD00BF98A10D007D
:1068BC00B2C90320E09A0D0009CA0320B5A10D004E
:1068CC0008CA0320DEA10D0030B5144B85B001229F
:1068DC000C461A70054600F0C5FB114B00F59C40A8
:1068EC002030186002F084F822460E49FFF73EFF74
:1068FC002846FEF7FDF902F07BF80B4901F02DFD5F
:10690C000A49684601F002FE21466846FEF7BEF8C9
:10691C00684601F0B4FD05B030BD00BF24CA0320A9
:10692C00D8D903200FA20D003CD703202DA20D00B7
:10693C0010B502F05DF8094901F00FFD084B00207D
:10694C00E82202FB00310C7924B10431BDE810407F
:10695C00FFF7BABF01300428F3D110BD39A20D00E6
:10696C0098D3032010B58368182B11D10A4C192227
:10697C002146002301F073FE0023237602F038F841
:10698C0022460649FFF7F2FEFEF7EAF8012010BD99
:10699C004FF0FF3010BD00BFDCD9032058A20D0012
:1069AC0070B500F05FFB124B1A6882421D461AD874
:1069BC00104A0023E82101FB032634794CB10E4B1D
:1069CC001C7894B102F014F8321D0C49FFF7CEFE7E
:1069DC000CE00133042BEED100F044FB00F56A40CF
:1069EC006030286002E0002400E00124204670BDE5
:1069FC0004CA032098D3032089CA032076A20D0071
:106A0C0038B51E4B1A78D2B11D4C257855B101F012
:106A1C00EFFF1C4901F0A1FC00232370BDE83840B6
:106A2C00FEF782BB184C23783BB301F0E1FF17490A
:106A3C0001F093FC2570BDE83840FEF7B1BB144B58
:106A4C00197821B11A70BDE83840FFF723BE114BFD
:106A5C001B785BB100F006FB0F4B1B6898420CD9FE
:106A6C0001F0C6FF0D4901F078FC02E0FFF798FF3A
:106A7C0018B1BDE83840FFF75BBF38BDB3C9032080
:106A8C00D1D9032092A20D00DAC90320A2A20D00D5
:106A9C00F5D9032024CA0320D8D90320B1A20D00B4
:106AAC0038B507220D490E4802F0E3FB054668B9DC
:106ABC000C4C01F09DFF22680B49FFF757FE0B4B66
:106ACC0020681D70BDE83840FEF788B801F090FFD3
:106ADC000749BDE8384001F040BC00BFE09A0D000A
:106AEC0009CA032084CA0320CDA20D0024CA0320A6
:106AFC0005A30D001C4B1D491D48002270B51A70D2
:106B0C00072202F0B6FB1B4C1B4DB0FA80F040097B
:106B1C00207001F06DFF23781849002B14BF592207
:106B2C004E22FEF76FFD2678AEB12868FDF75AFFAE
:106B3C00064648B1124B01221A7001F059FF2A681F
:106B4C001049FFF713FE70BD01F052FF0E4901F022
:106B5C0004FC267005E001F04BFF2A680B49FFF797
:106B6C0005FE0B4B1E7070BDD9C90320E09A0D00B9
:106B7C0009CA03205CD3032084CA032019A30D0087
:106B8C00F5D9032031A30D005DA30D0079A30D00F1
:106B9C0059CA032030B53A4B3A4800221A7085B0D6
:106BAC007C232021FEF736F87C2302461021364840
:106BBC00FEF730F8354A364B111819601C4640F672
:106BCC00C313984208DC115C232903D12F4B0022FC
:106BDC001A5401E00130F4E701F00AFF05462B4896
:106BEC0002F03FFB23680293264C274B01930121B3
:106BFC0003460094274A284601F0D9FB2649204633
:106C0C0002F001FB40B101F0F3FE0094224B234A49
:106C1C00012101F0CCFB31E02149204602F0F3FACE
:106C2C0020B905B0BDE83040FFF71EBE1D49204617
:106C3C0002F0E9FA20B905B0BDE83040FFF75ABFC1
:106C4C001949204602F0DFFA20B905B0BDE8304002
:106C5C00FEF716BA1549204602F0D5FA20B905B050
:106C6C00BDE83040FEF736BA1149204602F0CBFAA7
:106C7C0020B905B0BDE83040FFF712BF05B030BDFC
:106C8C0094D30320DBC9032009CA0320FCD90320B9
:106C9C0084CA03208FA30D00B0D90320C4A30D0018
:106CAC00BB9B0D00129A0D00569B0D002D9B0D00E9
:106CBC002DA20D007FB53A4E3A4C01F099FE0368B7
:106CCC001B69984740B301F093FE03685B699847D2
:106CDC002368F05401F08CFE03681B699847236805
:106CEC00054638B10133282193FBF1F201FB123335
:106CFC002360E2E7F05401F07BFE294901F02DFB03
:106D0C0027492560684601F001FC6846FEF7ECFD5A
:106D1C00684601F0B4FBD0E7234B1B7813B1FFF7A7
:106D2C0039FF3BE0214B1C7814B1FEF78FFB0EE0D2
:106D3C00FFF79CF8FFF764FE1D4B1A783AB11C70F4
:106D4C001C4B19681C4B22461868FFF7D9FA1B4BD1
:106D5C001A682AB100221A60FDF7DCFDFDF7B4FCBD
:106D6C00174B1C781CB100220121164814E0164B5D
:106D7C00164D1B6AB3F5AF7F06DA00F073F900F518
:106D8C009C500830286009E000F06CF92B689842A0
:106D9C0004D90F482246012100F01CFB04B070BD41
:106DAC005BCA0320C0E3032094D3032008CA03204A
:106DBC0058CA032058D30320ACD9032034CA03206B
:106DCC0059CA032068D303204CC9032028CA0320C6
:106DDC00BCC903202DE9F043524B534D534E544F35
:106DEC00DFF8889101241C70524B87B002221A7074
:106DFC0000F070F900221421204600F02DFB4FF01A
:106E0C001E080346CDF80080224601944FF47F0102
:106E1C00284601F0E1F832463946284602F018F8C7
:106E2C0000221421204600F017FB434DCDF80080C2
:106E3C000346224601944FF47F41284601F0CCF8DA
:106E4C003246394628463D4D3D4FDFF8248101F04E
:106E5C00FFFF3C4B029302AA002341F288312846E3
:106E6C000497CDF81490FDF7DBF902A8FDF7CAF9E9
:106E7C0032464146284601F0EBFF334A334B126849
:106E8C001A60334A049712685A604FF448721A61B8
:106E9C004FF4B97200254FF47A715A622D4F9963F1
:106EAC006422DD601D725D619D61DA621C635C634E
:106EBC00DC631C64284B029302AA2B463846CDF89F
:106ECC001490FDF7ADF902A8FDF79CF93846234F55
:106EDC003246414601F0BCFF2149384601F016FB11
:106EEC0032462049384601F0B3FF1F4B0D225A7031
:106EFC002946FF220B2620461E709A7000F08CFA51
:106F0C0001F062FE2B462A4642F6A23101F064FEE5
:106F1C0001F05AFE2B462A46314601F065FE07B0B9
:106F2C00BDE8F083FCC9032064D3032048C90320C7
:106F3C0095410D00B4C90320B8C9032090C90320A2
:106F4C00E9400D00B5400D00A4C803204CC9032036
:106F5C00C4C803203CCA0320C1400D0084D30320C5
:106F6C00C0A50D008B840D0098D30320E5400D00C7
:106F7C00B1420D0008B5024B1B689B68019308BD1C
:106F8C004802030008B5024B1B68DB68019308BD7F
:106F9C004802030008B5024B1B681B69019308BD2E
:106FAC004802030008B5024B1B685B69019308BDDE
:106FBC004802030008B5024B1B68DB69019308BD4E
:106FCC004802030008B5024B1B681B6A019308BDFD
:106FDC004802030008B5024B1B685B6A019308BDAD
:106FEC004802030008B5024B1B689B6A019308BD5D
:106FFC004802030008B5024B1B68DB6A019308BD0D
:10700C004802030008B5024B1B685B6C019308BD7A
:10701C004802030008B5024B1B689B6C019308BD2A
:10702C004802030008B5024B1B681B6F019308BD97
:10703C004802030008B5024B1B689B6E019308BD08
:10704C003402030008B5024B1B685B68019308BD52
:10705C001802030008B5024B1B68DB68019308BDDE
:10706C001802030008B5024B1B685B69019308BD4D
:10707C001802030008B5024B1B68DB69019308BDBD
:10708C001802030008B5024B1B689B6A019308BDEC
:10709C001802030008B5024B1B685B6C019308BD1A
:1070AC001802030008B5024B1B689B6C019308BDCA
:1070BC001802030008B5024B1B68DB6C019308BD7A
:1070CC001802030008B5024B1B689B6D019308BDA9
:1070DC001802030008B5024B1B681B68019308BD1E
:1070EC002C02030008B5024B1B685B68019308BDBA
:1070FC002C02030008B5024B1B689B68019308BD6A
:10710C002C02030008B5024B1B68DB68019308BD19
:10711C002C02030008B5024B1B681B69019308BDC8
:10712C002C02030008B5024B1B685B69019308BD78
:10713C002C02030008B5024B1B689B69019308BD28
:10714C002C02030008B5024B1B68DB69019308BDD8
:10715C002C02030008B5024B1B689B6A019308BD07
:10716C002C02030008B5024B1B681B6B019308BD76
:10717C002C02030008B5024B1B689B6F019308BDE2
:10718C002C02030008B5024B1B68DB6F019308BD92
:10719C002C02030008B5024B1B681B68019308BD49
:1071AC002802030008B5024B1B68DB68019308BD7D
:1071BC002802030008B5024B1B681B69019308BD2C
:1071CC002802030008B5024B1B689B69019308BD9C
:1071DC002802030008B5024B1B68DB69019308BD4C
:1071EC002802030008B5024B1B681B6A019308BDFB
:1071FC002802030008B5024B1B685B6A019308BDAB
:10720C002802030008B5024B1B689B6A019308BD5A
:10721C002802030008B5024B1B68DB6A019308BD0A
:10722C002802030008B5024B1B681B6B019308BDB9
:10723C002802030008B5024B1B685B6B019308BD69
:10724C002802030008B5024B1B681B6C019308BD98
:10725C002802030008B5024B1B681B6D019308BD87
:10726C002802030008B5024B1B685B69019308BD3B
:10727C006402030008B5024B1B689B68019308BDB0
:10728C006802030008B5024B1B68DB68019308BD5C
:10729C006802030008B5024B1B681B68019308BD0C
:1072AC002402030008B5024B1B68DB69019308BD7F
:1072BC003002030008B5024B1B681B6A019308BD22
:1072CC003002030008B5024B1B681B68019308BD14
:1072DC003C02030008B5024B1B689B68019308BD78
:1072EC003C02030008B5024B1B68DB68019308BD28
:1072FC003C02030008B5024B1B681B69019308BDD7
:10730C003C02030008B5024B1B685B69019308BD86
:10731C003C02030008B5024B1B689B69019308BD36
:10732C003C02030008B5024B1B68DB69019308BDE6
:10733C003C02030008B5024B1B681B6A019308BD95
:10734C003C02030008B5024B1B689B6A019308BD05
:10735C003C02030008B5024B1B68DB6A019308BDB5
:10736C003C02030008B5024B1B681B68019308BD67
:10737C004C02030008B5024B1B685B68019308BD07
:10738C004C02030008B5024B1B681B69019308BD36
:10739C004C02030008B5024B1B685B69019308BDE6
:1073AC004C02030008B5024B1B689B69019308BD96
:1073BC004C02030008B5024B1B68DB69019308BD46
:1073CC004C02030008B5024B1B681B6A019308BDF5
:1073DC004C02030008B5034B1B68D3F880300193B3
:1073EC0008BD00006002030008B5024B1B681B6857
:1073FC00019308BD2002030008B5024B1B685B68B3
:10740C00019308BD2002030008B5024B1B685B69A1
:10741C00019308BD2002030008B5024B1B68DB6A10
:10742C00019308BD2002030008B5024B1B68DB6CFE
:10743C00019308BD2002030008B5024B1B685B6D6D
:10744C00019308BD2002030008B5024B1B689B6D1D
:10745C00019308BD2002030008B5024B1B68DB6FCB
:10746C00019308BD2002030008B5034B1B68D3F839
:10747C008830019308BD00002002030008B5034BBF
:10748C001B68D3F89430019308BD00002002030060
:10749C0008B5024B1B681B68019308BD440203002E
:1074AC0008B5024B1B685B68019308BD44020300DE
:1074BC0008B5024B1B689B68019308BD440203008E
:1074CC0008B5024B1B68DB68019308BD440203003E
:1074DC0008B5024B1B681B69019308BD44020300ED
:1074EC0008B5024B1B685B69019308BD440203009D
:1074FC0008B5024B1B68DB69019308BD440203000D
:10750C0008B5024B1B681B6A019308BD44020300BB
:10751C0008B5024B1B685B6A019308BD440203006B
:10752C0008B5024B1B681B6B019308BD440203009A
:10753C0008B5024B1B68DB6B019308BD44020300CA
:10754C0008B5024B1B685B68019308BD4002030041
:10755C0008B5024B1B689B68019308BD40020300F1
:10756C0008B5024B1B68DB68019308BD40020300A1
:10757C0008B5024B1B681B69019308BD4002030050
:10758C0008B5024B1B685B69019308BD4002030000
:10759C0008B5024B1B689B69019308BD40020300B0
:1075AC0008B5024B1B68DB69019308BD4002030060
:1075BC0008B5024B1B681B6A019308BD400203000F
:1075CC0008B5024B1B681B6B019308BD40020300FE
:1075DC0008B5024B1B685B6B019308BD40020300AE
:1075EC0008B5024B1B681B68019308BD1C02030005
:1075FC0008B5024B1B685B68019308BD1C020300B5
:10760C0008B5024B1B689B68019308BD1C02030064
:10761C0008B5024B1B68DB68019308BD1C02030014
:10762C0008B5024B1B685B6A019308BD1C02030082
:10763C0008B5024B1B68DB6A019308BD1C020300F2
:10764C0008B5024B1B681B6B019308BD1C020300A1
:10765C000021FFF7D9BE10B5836804460BB901F0C1
:10766C0018FCC3689847A3681BB103222146204627
:10767C00984720461021BDE8104001F0EEBB10B534
:10768C000446006808B1FFF7C5FC204610BD10B5D4
:10769C00036804469B689847A368013BA3602BB919
:1076AC0023682046DB68BDE81040184710BD0B6806
:1076BC00036013B15A6801325A60704710B5044622
:1076CC00006828B14368013B43600BB9FFF7DFFF4B
:1076DC00204610BD10B5064C002320462360FFF752
:1076EC0091FC2046034A0449BDE8104001F0B0BBB0
:1076FC00C4E3032048C903208B760D00704700209B
:10770C00704710B51021044601F0A7FB204610BDB0
:10771C0008B508B1FFF7F5FF08BD0022026010B5EF
:10772C004FF69C728280B1F9044084808A80026892
:10773C000C6804600A6010BD10B504460068FFF7C1
:10774C0057FF204610BD38B5C468F4B12378022B1E
:10775C0003D104F10C00FFF7EFFF656835B1284643
:10776C00FCF750FD1021284601F077FBA56835B1D8
:10777C002846FCF747FD1021284601F06EFB2046F9
:10778C001421BDE8384001F068BB38BD10B588B095
:10779C000446684600F0BAFE694604A800F0F5FEFF
:1077AC0004A8A047044604A800F069FE684600F04F
:1077BC0066FE204608B010BDF0B5102485B0074613
:1077CC000E46154600212246684601F0CEFC0022EA
:1077DC0069461046ADF80040029703960195FFF7F5
:1077EC005FFE05B0F0BD13B5044691E8050000231B
:1077FC004B600B602060626001A801930093FFF75F
:10780C005DFF204602B010BDF7B50C4602AD54F832
:10781C00043B45F8083D06460F4601A82146FFF7F4
:10782C0046FF29463046FFF7DEFF01A8FFF746FF6B
:10783C002046FFF743FF3846082101F00EFB304687
:10784C0003B0F0BD13B50B46044603C88DE8030026
:10785C0093E8030084E803009DE8030083E8030039
:10786C0002B010BD38B500230446036010200D464D
:10787C00FCF70BFC28B1012343608360024B0360CF
:10788C00C5602060204638BDA0A40D00826810B5EC
:10789C000AB901F0FEFAC368BDE81040184708B5F4
:1078AC00006800F11001FFF7F1FF08BD826810B508
:1078BC000AB901F0EEFAC368BDE81040184708B5E4
:1078CC00006800F11001FFF7F1FF08BD38B5002387
:1078DC0083608B6804460D462BB102229847EB68F7
:1078EC00E360AB68A360204638BD0000F0B589B0FA
:1078FC0004686846FFF711FF00238DF808304FF03D
:10790C000202D4E84F3F002B03D1C4E8412F0029D9
:10791C00F7D102D08DF8083063E014F10C0503D0D8
:10792C0069462846FFF7F9FEBFF35F8F01236370AA
:10793C00002004F10803BFF35F8F53E8006F43E8A6
:10794C000002002AF9D1BFF35F8F002E49D0FFF758
:10795C006BFD20B129463046FFF798FF3AE03146DF
:10796C0002A8FFF7B3FFE068B4F9105008B101F0BA
:10797C005DFC06901020ADF81C50FCF786FB05460C
:10798C00E8B1002787601820FCF77FFB044688B11C
:10799C000146876002A8FFF755FF049BA268A3600D
:1079AC00059B049206A9E268E36004F110000592BD
:1079BC00FFF7B3FE0D4BEB600D4B2C60AB6006A8D4
:1079CC00FFF7BAFE02A8FCF71DFC00222946094865
:1079DC00FFF732FD3046FCF715FC1021304601F064
:1079EC003CFA6846FFF7A8FE09B0F0BDAB780D0075
:1079FC00217B0D0063760D002DE9F04F8BB0064610
:107A0C000F46904699469DF850A0FFF769FD07ADCB
:107A1C00834630BB4FF62E73059005A92846ADF86A
:107A2C001830FFF77AFE1420FCF72FFB044658B1F0
:107A3C000223037001234370C0F804B0C0F808B0EF
:107A4C0029460C30FFF769FE3046214640F8044BBE
:107A5C00FFF708FF2846FFF76FFE05A8FFF76CFE3F
:107A6C0052E000240C2314206C60AC600793FCF7EC
:107A7C000CFB014618B1047044704460846004A887
:107A8C000391FFF7EFFE224B08930820FCF7FDFA59
:107A9C00044628B1039B40F8043B04A9FFF707FEFA
:107AAC0000955FFA8AF34A46414638460994FFF737
:107ABC0027FD20B9039B5B7803F0FF0283B1039B86
:107ACC00059304A906A8FFF7F2FD05A93046FFF7B8
:107ADC008AFE06A8FFF7F2FD04A8FFF7EFFD13E0FE
:107AEC004FF69C7305A903A80592ADF81830FFF763
:107AFC00FDFE05A8FFF720FE05A80999FFF784FEF7
:107B0C0006A8FFF7DBFDDAE730460BB0BDE8F08FD7
:107B1C00917C0D00022AF8B5044606D0032A17D032
:107B2C00012A22D10B6803601FE018200E68FCF7B5
:107B3C00ACFA054650B13146FFF7C8FE3069B6F9CC
:107B4C00147008B101F072FB2861AF8225600CE063
:107B5C00046854B104F11000FFF7EEFD2046FCF769
:107B6C0051FB1821204601F078F90020F8BD38B5FA
:107B7C00002383608B6804460D462BB10222984784
:107B8C00EB68E360AB68A360204638BD022A70B591
:107B9C00044606D0032A11D0012A18D10B680360C1
:107BAC0015E014200E68FCF770FA054620B131463A
:107BBC00FFF7DDFF337C2B74256008E0046834B1DB
:107BCC002046FCF71FFB1421204601F046F900204B
:107BDC0070BD0000F0B5002387B00C46BFF35F8F7B
:107BEC0050E8006F40E80032002AF9D1BFF35F8FF4
:107BFC00002E3FD01846FFF717FC074620B1214650
:107C0C003046FFF753FE2EE0314601A8FFF7AFFFD9
:107C1C0023788DF814301020FCF737FA0546D0B1D4
:107C2C0087601420FCF731FA044678B1876001466E
:107C3C0001A8FFF707FE039BA268A360049B0392B5
:107C4C00E268E3609DF81430049223740A4BEB60F5
:107C5C000A4B2C60AB6001A8FCF7D4FA0022294631
:107C6C000748FFF7E9FB3046FCF7CCFA1021304609
:107C7C0001F0F3F807B0F0BDCB780D00997B0D0047
:107C8C0063760D0030B585B004460D466846114646
:107C9C00FFF7BAFD7CB124B228460DB101F0C6FA4B
:107CAC00029002A96846ADF80C40FFF71FFE02A82F
:107CBC00FFF742FD1DE000988DF808404FF00102DF
:107CCC00D0E84F3FA34203D1C0E8412F0029F7D1A0
:107CDC0002D08DF808300CE010F10C014FF00103CC
:107CEC0018BF0373BFF35F8F043000F8033CFFF73A
:107CFC0071FF01A8FFF7E2FC05B030BD0022114670
:107D0C004068FFF755BC002211464068FFF760BC85
:107D1C0000224068FFF754BC002281F0010140684A
:107D2C00FFF73EBC00231A4619464068FFF730BCEB
:107D3C0000231A4619464068FFF722BC0022114660
:107D4C004068FFF715BC002211464068FFF700BCE5
:107D5C00002202214068FFF703BC00231A4640684A
:107D6C00FFF7EEBB024B03225A60024A1A607047BF
:107D7C00C8E30320BCA40D007047F8B506461546B1
:107D8C000C468F18BC4206D0336814F8011B9B6854
:107D9C0030469847F6E72846F8BD0022007CFFF7EE
:107DAC0021BA0021007CFFF725BA0021007CFFF7E7
:107DBC0029BA0021007CFFF72DBA0021007CFFF7C7
:107DCC0031BA10B51421044601F047F8204610BD15
:107DDC0010B50446002363604FF47A73A360044B20
:107DEC002174084623601146FFF72CFA204610BD7B
:107DFC00F0A40D000022007CFFF7CCB900231A463A
:107E0C001946007CFFF7CEB90021007CFFF7D2B9F0
:107E1C0070B50C4686B0142506462A46002101A8EA
:107E2C0001F0A3F923788DF8083063680393E368B5
:107E3C0004930022237A307CADF8045001A90593F9
:107E4C00FFF708FA06B070BD1FB500338DF80010AF
:107E5C004FF06401039118BF0123694601928DF81C
:107E6C000830FFF7D5FF05B05DF804FB0123FFF7E1
:107E7C00EBBF0022007CFFF7A5B9C9B2FFF7F9BF31
:107E8C000022007CFFF7A6B90121FFF7F9BF002102
:107E9C00007CFFF7CFB90047F0B585B01C460E4605
:107EAC0017460546FFF74EF9002084424FF00403B5
:107EBC0003908DF80C30A5BF9DF828308DF80E304E
:107ECC00034603AB009332463B460649A8BF8DF8E8
:107EDC000D402846FFF72EF9B0FA80F0400905B0A6
:107EEC00F0BD00BFA37E0D00704710B518210446ED
:107EFC0000F0B3FF204610BDF0B5037D062B8DB00E
:107F0C000E4600F104074FF0000402D000F1080502
:107F1C0018E00CAD394605F8304D2F232A460A20BF
:107F2C00FFF7A0F9284601F09CF933680246DB689C
:107F3C002946304698470FE024B12E21304600F0F8
:107F4C00FDF9044415F8011D0A22304600F00FFA21
:107F5C00BD420444F0D120460DB0F0BD10B5054B28
:107F6C000446112240F8043B002101F0FEF82046A3
:107F7C0010BD00BF18A50D000346074A10B543F805
:107F8C00042B01F1100251F8044B43F8044B9142BD
:107F9C00F9D10A781A7010BD18A50D0010B59DF80E
:107FAC00084044EA032343EA024242EA0161042303
:107FBC004160037510BD37B50D788B784A78C97858
:107FCC0000912946FFF7EAFF03B030BD0A680B4663
:107FDC00926801461846104770B50E4C04601C247C
:107FEC0044609DF814409DF8106004F0030444EACA
:107FFC0086040025E4B20474427485744161427CA9
:10800C0085600F2A08BF044BC56006BF8361C06141
:10801C00038370BD20940D00D97F0D00014B024AE3
:10802C001A607047D0E303208FA50D000022114683
:10803C004068FFF7BDBA002211464068FFF7C8BA86
:10804C0000224068FFF7BCBA002281F001014068B1
:10805C00FFF7A6BA00231A4601214068FFF798BA29
:10806C0000231A4619464068FFF78ABA00221146C7
:10807C004068FFF77DBA002211464068FFF768BAE6
:10808C00002202214068FFF76BBA00231A464068B1
:10809C00FFF756BA38B5054688B104684CB1A368E9
:1080AC001BB103222146204698471021204600F0A0
:1080BC00D4FE28461421BDE8384000F0CEBE38BDB1
:1080CC0010B103685B681847704710B50368044625
:1080DC00BBB15868FEF74EFF78B923685A7C12B9C9
:1080EC005868FEF757FF23685868FEF75BFF206857
:1080FC000023236028B1FFF7CDFF206808B1FFF7FC
:10810C00C9FF204610BD38B50446D0F8C40108B1EB
:10811C00FBF7BFFFD4F8C00108B1FEF77BFFD4F822
:10812C00BC5135B12846FFF7D0FF0421284600F09A
:10813C0094FE206808B1FFF7C3FF204638BD00004D
:10814C0010B5044B044640F8083BFFF7DCFF204613
:10815C0010BD00BF00A60D0038B50E4C0E4B2360B1
:10816C000025022304F5E4706360A560C4F8C451D3
:10817C00C4F8C851FEF746FF084BC4F8CC5184F83C
:10818C00D05123602046064A0649BDE8384000F02D
:10819C005FBE00BFD4E3032034A60D0000A60D0083
:1081AC0048C903204D810D0000231A464068FFF793
:1081BC00C7B9002202214068FFF7D2B9002211464C
:1081CC004068FFF7C5B9002211464068FFF7D0B9E7
:1081DC0000231A4619464068FFF7D2B900231A4605
:1081EC0019464068FFF7D4B9002281F001014068BC
:1081FC00FFF7D6B900224068FFF7E2B9002211461A
:10820C004068FFF7E5B9002211464068FFF7D0B986
:10821C002DE9F043002495B016460D460746FFF7AE
:10822C009DFE214620220CA8009400F09EFF4023C6
:10823C000C9321466B460CAA3046FFF723F80446F4
:10824C00002844D1024601216868FFF791F9022108
:10825C00804622466868FFF78BF9009E81462146CE
:10826C00002E34D0002932D17368022B02D00A2B95
:10827C0009D02AE0B8F1000F27D0716938460431D3
:10828C00FFF799FE20E0B9F1000F1ED0746911229E
:10829C0001A800F06AFF06238DF8143001AD04F13B
:1082AC0008031834186859682A4603C20833A342D5
:1082BC001546F7D101A906A807ADFFF75DFE0FCD56
:1082CC003C1D0FC42B6823700121F669C8E7009888
:1082DC00FEF7D0FF384615B0BDE8F083024B034AD9
:1082EC001A6000225A607047A8E5032034A60D00DE
:1082FC00F8B506460D468F180024BD420CD03368E5
:10830C0015F8011B9B6830469847002801DB044494
:10831C00F3E7002C08BF04462046F8BD70B50546AF
:10832C000C46084649B100F09CFF2B6802462146DA
:10833C002846DB68BDE87040184770BD03689B6831
:10834C00184738B50D210546FFF7F8FF0A210446FA
:10835C002846FFF7F3FF204438BD38B50546FFF734
:10836C00DDFF04462846FFF7ECFF204438BD30B54E
:10837C008BB00B4600218DF82410012A98BF0A22DD
:10838C000DF12304B3FBF2F505FB123303F0FF03ED
:10839C00092B94BF30333733DBB2214604F8013953
:1083AC002B46002DEED1FFF7B9FF0BB030BD0CB44E
:1083BC002DE9F04387B000AF07F13804054654F8B7
:1083CC00049B3C600E4623464A461421381DFFF799
:1083DC0027F9132805D8391D2846FFF79FFF0446B7
:1083EC0013E000F1080323F00703E846ADEB030D9F
:1083FC00411C23464A4668463C60FFF711F9694622
:10840C002846FFF78BFF0446C5461EB12846FFF7EA
:10841C0098FF044420461C37BD46BDE8F04302B02B
:10842C00704710B50446FBF7EDFE204610BD00006A
:10843C000348044A04490023836000F009BD00BFCF
:10844C00B0E5032048C903202F840D00704710B5F8
:10845C000C21044600F001FD204610BD10B5054B63
:10846C000360044601710846FEF71CFF0023A3605D
:10847C00204610BD68A60D000079FEF71BBF10B595
:10848C0004460068FFF7B4F8204610BD10B504464A
:10849C00006808B1FFF7ACF800232360A3606360A9
:1084AC0010BD38B504460D4600680131FFF7A8F839
:1084BC0010B184E82100012038BD10B503680446D2
:1084CC0013B143688B4207D22046FFF7EAFF20B175
:1084DC00A3680BB922681370012010BD70B50E464D
:1084EC00114604461546FFF7E8FF18B92046FFF77A
:1084FC00CDFF09E02A463146A560206800F02AFE2F
:10850C002268A3680021D154204670BD38B50023E1
:10851C00044603604360836003730D4639B108461B
:10852C0000F09FFE294602462046FFF7D7FF204663
:10853C0038BD38B5054600680C4660B16A688B6872
:10854C009A4206D3096800F068FEA368AB6000236A
:10855C000AE0FFF74DF823682B6063686B60A36833
:10856C00AB60002323606360A36038BD884210B504
:10857C000B46044607D0096819B19A68FFF7AEFF9D
:10858C0001E0FFF783FF204610BD10B50023044621
:10859C000360436083600373FFF7E8FF204610BD60
:1085AC00884210B5044601D0FFF7C3FF204610BD2A
:1085BC0038B505460C4641B1084600F052FE21463E
:1085CC0002462846FFF78AFF01E0FFF75FFF2846C7
:1085DC0038BD13B500238DF804100360436083602D
:1085EC00037301A904468DF80530FFF7E1FF20461F
:1085FC0002B010BD70B504460E4609B9002070BD1E
:10860C006AB18368D5182946FFF757FF0028F5D0C3
:10861C002068A3683146184400F0FFFDA5600120D6
:10862C0070BD10B58A6809680446FFF7E3FF10B9FE
:10863C002046FFF72BFF204610BD38B504460D46EB
:10864C0041B1084600F00DFE294602462046FFF7D0
:10865C00D1FF10B92046FFF719FF204638BD70B581
:10866C000E469AB191B185689D4202D800230B70D9
:10867C0070BD541EED1A0168AC4228BF2C4619443B
:10868C002246304600F00AFE0023335570BD10B56B
:10869C008368934206D90468A01800F0A6FD08B1BF
:1086AC00001B10BD4FF0FF3010BD0000F8B59A4212
:1086BC000F461D460C4988BF13461446064684BF18
:1086CC002C461D46FFF722FFBA6894420AD8396837
:1086DC00954294BFC4EB0502C4EB02022144304620
:1086EC00FFF7FCFE3046F8BDC0A50D0010B50446E2
:1086FC008B68FFF7DBFF204610BD006808B100F067
:10870C0017BD704710B50446006818B1FEF770FF2E
:10871C000023236010BD10B50446FFF7F3FF20467D
:10872C0010BD014600228C20FEF784BC0020FFF710
:10873C00F8BF000010B5094C00204FF6FF73206005
:10874C00A080A07120816381FEF756FE2046044A6A
:10875C000449BDE8104000F07BBB00BFC0E503201E
:10876C0048C9032023870D0008B50020FEF7D8FE6A
:10877C0028B1FEF7B5FE80F00100C0B208BD0120A3
:10878C0008BD10B50020FEF79DFC044668B9FEF745
:10879C002BFE01280BD12046FEF756FE38B9FFF709
:1087AC00E3FF30B9FEF784FEF9E7012010BD00208D
:1087BC0010BDFFF7D9FF0020FEF784FC003018BF76
:1087CC00012010BD08B5FFF7DCFFBDE80840FEF73F
:1087DC0051BC0000024B1A68024B1A60704700BF74
:1087EC00DCC80320CCE50320F8B585B20446284646
:1087FC000E46174600F000FA60B102212846FEF73B
:10880C0071FC022806D13A4631462046BDE8F840B4
:10881C00FEF740BDF8BD70474174704708B5007C49
:10882C00FEF790FD20EAE07008BD08B5007CFEF76D
:10883C0061FD20EAE07008BD08B5007CFEF76AFD1A
:10884C0030EA200028BF4FF0FF3008BD08B5007C8F
:10885C00FEF758FD30EA200028BF4FF0FF3008BD6E
:10886C00007CFEF75FBD10B51421044600F0F5FA4C
:10887C00204610BD70B5457C04460E4625B9007CDB
:10888C00FEF760FD002805DD3146207CBDE8704018
:10889C00FEF728BD284670BD10B5044608461146A3
:1088AC00002262604FF47A72A260054A22600122B3
:1088BC00207462741A46FEF705FD204610BD00BFF9
:1088CC00A4A60D000023007CFEF744BD0022FFF798
:1088DC00F9BF007CFEF7FEBC007CFEF72BBD000050
:1088EC0038B50C4D296811F0010411D12846FBF75D
:1088FC00D2FB68B1084A094B09482146FFF7CCFF67
:10890C002846FBF7CDFB074A0749054800F0A0FABB
:10891C00034838BD68E603206CE60320E4E5032039
:10892C00D0E5032048C9032023880D00417470470B
:10893C00704708B50021007CFEF734FD30EA2000BA
:10894C0028BF4FF0FF3008BD08B50121007CFEF7B1
:10895C0029FD30EA200028BF4FF0FF3008BD08B5D4
:10896C00007CFEF717FD20EAE07008BD08B5007C1E
:10897C00FEF708FD20EAE07008BD007CFEF722BD82
:10898C0010B51421044600F068FA204610BD38B525
:10899C000446007C0D46FEF7FDFC002801DC607CE3
:1089AC0028B12946207CFEF705FD20EAE07038BD91
:1089BC0010B50446002363604FF47A73A360054B33
:1089CC00236001230846217463741146FEF7CAFC28
:1089DC00204610BDD4A60D000022007CFEF7CABCB8
:1089EC0010B514220446002100F0BFFB204610BD38
:1089FC0030B50E4D87B001A8FFF7F2FF296811F0D2
:108A0C00010410D12846FBF746FB60B101AA2146B0
:108A1C000748FFF7CDFF2846FBF742FB054A0649FE
:108A2C00034800F015FA024807B030BDF0E6032009
:108A3C00F4E6032048C903203D890D0000221146AD
:108A4C004068FEF795BD002211464068FEF7B0BDA8
:108A5C00002211464068FEF7BBBD00224068FEF7BD
:108A6C00AFBD002281F001014068FEF799BD0023E3
:108A7C001A4619464068FEF78BBD00231A46194664
:108A8C004068FEF77DBD002211464068FEF760BDD0
:108A9C00002202214068FEF763BD00231A4640689D
:108AAC00FEF74EBD024B04225A60024A1A60704710
:108ABC0008E7032004A70D0008B50C4B33B1FFF7F2
:108ACC0097FF03681B699847002809DC084B63B1C2
:108ADC00FFF706FF03681B699847002803DC08BDF5
:108AEC00AFF30080F2E7AFF3008008BD0000000098
:108AFC000000000008B5FFF7DFFFFEF7B3FA014BEB
:108B0C00186008BD18E703200248034A0349121AEB
:108B1C0000F020BB00F4032004F40320D0A80D00C7
:108B2C0007B5002300931A466FF07701FEF7A6FCF9
:108B3C0003B05DF804FB000007B543880A2B08D08E
:108B4C00502B09D1094B1B683BB103B05DF804EB0A
:108B5C001847FFF7E5FF06E0002300931A466FF075
:108B6C007701FEF78BFC03B05DF804FB10E70320E4
:108B7C0038B5104C104D2368AB42104B0CBF012282
:108B8C0000221A7002D0FFF7BFFF2560FEF75AFAD9
:108B9C00044600F0F3FA0A4B13B12046AFF3008001
:108BAC0000210748FEF7C4FC00210648BDE8384008
:108BBC00FEF75ABC00F403201E1C279A14E703206E
:108BCC0000000000458B0D0008B5024B1B681B68AC
:108BDC00019308BD5C02030008B5024B1B685B687F
:108BEC00019308BD5C02030008B5024B1B689B682F
:108BFC00019308BD5C02030010B5044600F008F9AF
:108C0C00FFF73AFC28B1A4F10B03022B01D800208A
:108C1C0010BD00F0D7F8FFF73AF908B1012CF6D9DE
:108C2C00FFF75EFEFFF758FE18B1A4F10903012B04
:108C3C00EDD9232C8CBF0020012010BD232838B582
:108C4C0004460D460AD8FF2908D0FFF7D5FF28B1F6
:108C5C0029462046BDE83840FEF74CBA38BD38B539
:108C6C0004460D46FEF74EFAFF2810D0062804D80D
:108C7C004D2323FA00F0C30709D42046FFF7BCFFAD
:108C8C0028B129462046BDE83840FEF743BA38BD26
:108C9C0010B50446FEF736FA0438C0B2012808D9DC
:108CAC002046FFF7A9FF20B12046BDE81040FEF793
:108CBC0039BA002010BD0D2810B504469CBF0E34E7
:108CCC00A4B22046FFF798FF50B103212046FEF7CF
:108CDC0009FA032804D12046BDE81040FEF742BA39
:108CEC00002010BD38B504460D46FFF785FFF0B1E6
:108CFC0004212046FEF7F6F9042805D1A9B2204636
:108D0C00BDE83840FEF726BA02212046FEF7EAF904
:108D1C0002280CD12046FEF7F5F9012801D00428D1
:108D2C0005D129462046BDE83840FEF723BA38BDA8
:108D3C0070B504460D461646FFF75EFF98B102214A
:108D4C002046FEF7CFF902280DD12046FEF7DAF9BE
:108D5C00012801D0042806D1324629462046BDE818
:108D6C007040FEF70FBA70BD10B5074C2368DB07D7
:108D7C0008D42046FBF78FF920B1FEF783F9204683
:108D8C00FBF78EF9014810BD1CE7032020E70320F8
:108D9C0070B5044614252A46094E002100F0E5F969
:108DAC00258020253146A5602561284600F06FF806
:108DBC0031466060284600F06AF8E060204670BDDD
:108DCC0030A70D0030B50E4D296811F0010487B0A5
:108DDC0013D12846FBF75FF978B101A8FFF7D8FF4C
:108DEC0001AA21460748FEF7F3FF2846FBF758F97E
:108DFC00054A0649034800F02BF8024807B030BD7D
:108E0C0024E7032028E7032048C90320857D0D00B3
:108E1C0038B50B4D296811F001040FD12846FBF72A
:108E2C003AF958B121460748FFF718FB2846FBF7DB
:108E3C0037F9054A0549034800F00AF8014838BDDE
:108E4C0048E703203CE7032048C9032059840D0060
:108E5C000B460146184600F06FB9FBF718B9000035
:108E6C00024B1868BFF35F8F704700BF4CE70320BD
:108E7C0010B5002814BF044601242046FEF7B0FBB1
:108E8C0020B9FFF7EDFF08B18047F6E710BDFFF7FB
:108E9C00EFBF08B5FEF7CCFB244B1A68D0075CBFBC
:108EAC0001221A60224B1A68D1075CBF01221A609A
:108EBC00204B1A68D2075CBF01221A601E4B1A683D
:108ECC00D0075CBF01221A601C4B1A68D1075CBF2B
:108EDC0001221A601A4B1A68D2075CBF01221A6071
:108EEC00184B1A68D0075CBF01221A60164B1A681F
:108EFC00D1075CBF01221A60144B1A68D2075CBF01
:108F0C0001221A60124B1A68D0075CBF01221A604A
:108F1C00104B1A68D1075CBF01221A600E4B1A68FD
:108F2C00D2075CBF01221A60704700BF7CE70320A8
:108F3C0078E7032074E7032070E703206CE7032035
:108F4C0068E7032064E7032060E703205CE7032065
:108F5C0058E7032054E7032050E70320184B1A6806
:108F6C00D1075CBF01221A60164B1A68D2075CBF8E
:108F7C0001221A60144B1A68D0075CBF01221A60D8
:108F8C00124B1A68D1075CBF01221A60104B1A6889
:108F9C00D2075CBF01221A600E4B1A68D0075CBF67
:108FAC0001221A600C4B1A68D1075CBF01221A60AF
:108FBC000A4B1A68D2075CBF01221A60704700BFC7
:108FCC009CE7032098E7032094E7032090E7032015
:108FDC008CE7032088E7032084E7032080E7032045
:108FEC00184B1A68D1075CBF01221A60164B1A681D
:108FFC00D2075CBF01221A60144B1A68D0075CBF01
:10900C0001221A60124B1A68D1075CBF01221A6048
:10901C00104B1A68D2075CBF01221A600E4B1A68FB
:10902C00D0075CBF01221A600C4B1A68D1075CBFD9
:10903C0001221A600A4B1A68D2075CBF01221A601F
:10904C00704700BFBCE70320B8E70320B4E7032058
:10905C00B0E70320ACE70320A8E70320A4E7032034
:10906C00A0E70320244B1A68D0075CBF01221A60CA
:10907C00224B1A68D1075CBF01221A60204B1A6878
:10908C00D2075CBF01221A601E4B1A68D0075CBF66
:10909C0001221A601C4B1A68D1075CBF01221A60AE
:1090AC001A4B1A68D2075CBF01221A60184B1A6857
:1090BC00D0075CBF01221A60164B1A68D1075CBF3F
:1090CC0001221A60144B1A68D2075CBF01221A6085
:1090DC00124B1A68D0075CBF01221A60104B1A6839
:1090EC00D1075CBF01221A600E4B1A68D2075CBF15
:1090FC0001221A60704700BFECE70320E8E7032069
:10910C00E4E70320E0E70320DCE70320D8E70320B3
:10911C00D4E70320D0E70320CCE70320C8E70320E3
:10912C00C4E70320C0E703200A22002100F050B955
:10913C000A22002100F04CB910B5054C13462CB195
:10914C000A4601460220AFF3008010BD204610BD38
:10915C000000000010B5431E0A44914204D011F8DF
:10916C00014B03F8014FF8E710BD0244034693424C
:10917C0002D003F8011BFAE77047000038B5124B18
:10918C001C68A36B0546D3B91820FEF729FA43F2E5
:10919C000E33A06303804AF6CD33438041F234236F
:1091AC0083804EF26D63C3804DF6EC63038105231F
:1091BC0043810B23838101220023C0E90423A36B89
:1091CC0000221D615A6138BD44C9032010B5024606
:1091DC00134601321C78002CFAD1013B11F8012BFB
:1091EC0003F8012F002AF9D110BDC9B2034610F8BB
:1091FC00012B1AB19142F9D11846704700290CBFC6
:10920C0018460020704710F8012B11F8013B012A79
:10921C0028BF9A42F7D0D01A7047034611F8012B99
:10922C0003F8012B002AF9D170470000024B0146CC
:10923C00186800F003B800BF44C9032070B5064697
:10924C0008460C4600F00DF8451C29463046FEF742
:10925C00F7F9064618B12A462146FFF77BFF304640
:10926C0070BD034613F8012B002AFBD1181A0138E4
:10927C00704730B582B1451E013915F8013F11F820
:10928C00014FA34206D1EC431444E04201D0002B21
:10929C00F3D11C46181B30BD104630BD10B503462B
:1092AC0042B111F8014B03F8014B013A002CF7D1F4
:1092BC001A4400E010BD934202D003F8014BFAE7C8
:1092CC0010BD00002DE9F04780464048D0F80090D2
:1092DC000F463D4615F8014B09EB0400407800F0B1
:1092EC00080000F0FF0608B12F46F2E72D2C03D141
:1092FC00BD1C7C78012603E02B2C04BF7C78BD1CA4
:10930C0013B1102B0AD15BE0302C57D1287800F028
:10931C00DF0058284DD16C7810230235002E14BF75
:10932C004FF0004C6FF0004C0027BCFBF3FA3846B2
:10933C0003FB1ACC09EB040E9EF801E01EF0040F9F
:10934C0001D0303C0BE01EF0030E1BD0BEF1010F20
:10935C000CBF4FF0370E4FF0570ECEEB0404A34268
:10936C0010DDB7F1FF3F0AD0504506D801D1644556
:10937C0003DC03FB0040012701E04FF0FF3715F839
:10938C00014BD7E77B1C0CD1002E4FF0220314BFEE
:10939C004FF000406FF00040C8F800302AB9BDE82B
:1093AC00F08706B1404272B107B1691E1160BDE889
:1093BC00F0873024002BB1D10823AFE70A23ADE7A7
:1093CC00302CA3D0AAE7BDE8F08700BFE0C803208B
:1093DC0013460A46014602480068FFF773BF00BFF8
:1093EC0044C903201D400D0059400D0085400D005F
:1093FC0089400D000000000000000000000000008B
:10940C00B1420D00F5420D004D410D000000000071
:10941C000000000095410D00B1410D00B3400D005E
:10942C0000000000963007772C610EEEBA510999B6
:10943C0019C46D078FF46A7035A563E9A395649E12
:10944C003288DB0EA4B8DC791EE9D5E088D9D29736
:10945C002B4CB609BD7CB17E072DB8E7911DBF9092
:10946C006410B71DF220B06A4871B9F3DE41BE84B6
:10947C007DD4DA1AEBE4DD6D51B5D4F4C785D38312
:10948C0056986C13C0A86B647AF962FDECC9658AB6
:10949C004F5C0114D96C0663633D0FFAF50D088D12
:1094AC00C8206E3B5E10694CE44160D5727167A2B6
:1094BC00D1E4033C47D4044BFD850DD26BB50AA512
:1094CC00FAA8B5356C98B242D6C9BBDB40F9BCAC36
:1094DC00E36CD832755CDF45CF0DD6DC593DD1AB92
:1094EC00AC30D9263A00DE518051D7C81661D0BFB6
:1094FC00B5F4B42123C4B3569995BACF0FA5BDB812
:10950C009EB802280888055FB2D90CC624E90BB1B5
:10951C00877C6F2F114C6858AB1D61C13D2D66B611
:10952C009041DC760671DB01BC20D2982A10D5EF75
:10953C008985B1711FB5B606A5E4BF9F33D4B8E8D1
:10954C00A2C9077834F9000F8EA8099618980EE175
:10955C00BB0D6A7F2D3D6D08976C6491015C63E6D1
:10956C00F4516B6B62616C1CD83065854E0062F2F5
:10957C00ED95066C7BA5011BC1F4088257C40FF551
:10958C00C6D9B06550E9B712EAB8BE8B7C88B9FC75
:10959C00DF1DDD62492DDA15F37CD38C654CD4FBD1
:1095AC005861B24DCE51B53A7400BCA3E230BBD475
:1095BC0041A5DF4AD795D83D6DC4D1A4FBF4D6D3D1
:1095CC006AE96943FCD96E34468867ADD0B860DA75
:1095DC00732D0444E51D03335F4C0AAAC97C0DDDD1
:1095EC003C710550AA41022710100BBE86200CC9F5
:1095FC0025B56857B3856F2009D466B99FE461CE51
:10960C000EF9DE5E98C9D9292298D0B0B4A8D7C774
:10961C00173DB359810DB42E3B5CBDB7AD6CBAC0D0
:10962C002083B8EDB6B3BF9A0CE2B6039AD2B174EC
:10963C003947D5EAAF77D29D1526DB048316DC7348
:10964C00120B63E3843B64943E6A6D0DA85A6A7AEC
:10965C000BCF0EE49DFF099327AE000AB19E077D48
:10966C0044930FF0D2A3088768F2011EFEC206696C
:10967C005D5762F7CB67658071366C19E7066B6EC8
:10968C00761BD4FEE02BD3895A7ADA10CC4ADD67EC
:10969C006FDFB9F9F9EFBE8E43BEB717D58EB06048
:1096AC00E8A3D6D67E93D1A1C4C2D83852F2DF4FEC
:1096BC00F167BBD16757BCA6DD06B53F4B36B24848
:1096CC00DA2B0DD84C1B0AAFF64A0336607A0441EC
:1096DC00C3EF60DF55DF67A8EF8E6E3179BE694648
:1096EC008CB361CB1A8366BCA0D26F2536E268526C
:1096FC0095770CCC03470BBBB91602222F260555C8
:10970C00BE3BBAC5280BBDB2925AB42B046AB35CEB
:10971C00A7FFD7C231CFD0B58B9ED92C1DAEDE5B47
:10972C00B0C2649B26F263EC9CA36A750A936D022B
:10973C00A906099C3F360EEB856707721357000587
:10974C00824ABF95147AB8E2AE2BB17B381BB60CAB
:10975C009B8ED2920DBED5E5B7EFDC7C21DFDB0B07
:10976C00D4D2D38642E2D4F1F8B3DD686E83DA1F2B
:10977C00CD16BE815B26B9F6E177B06F7747B71887
:10978C00E65A0888706A0FFFCA3B06665C0B01112B
:10979C00FF9E658F69AE62F8D3FF6B6145CF6C1687
:1097AC0078E20AA0EED20DD75483044EC2B303392B
:1097BC00612667A7F71660D04D476949DB776E3E87
:1097CC004A6AD1AEDC5AD6D9660BDF40F03BD837AB
:1097DC0053AEBCA9C59EBBDE7FCFB247E9FFB53007
:1097EC001CF2BDBD8AC2BACA3093B353A6A3B4242B
:1097FC000536D0BA9306D7CD2957DE54BF67D92387
:10980C002E7A66B3B84A61C4021B685D942B6F2A2A
:10981C0037BE0BB4A18E0CC31BDF055A8DEF022D86
:10982C004552524F52207C2063616C6C6261636BB9
:10983C005F6275666665723A2025732C2063616CD5
:10984C006C6261636B5F636F6D706C6574653A20FD
:10985C00257300524553504F4E5345207C20636175
:10986C006C6C6261636B5F6275666665723A20252B
:10987C00732C2063616C6C6261636B5F636F6D70E2
:10988C006C6574653A202563005374616765206CC0
:10989C00696D697420737769746368206465746595
:1098AC006374656400537461676520706F736974C9
:1098BC00696F6E206174207A65726F0053746167F2
:1098CC00652064697374616C206C696D69742072B5
:1098DC0065616368656400486561746572207365D1
:1098EC007420746F20706F77657220256400546546
:1098FC006D706572617475726520636F6E74726FD2
:10990C006C2073797374656D207374617274656403
:10991C000054656D706572617475726520636F6E4D
:10992C0074726F6C2073797374656D2073746F70BF
:10993C007065640054656D70657261747572653A1A
:10994C002025642E2564CB9A432C2025642E256477
:10995C00CB9A4600726177203D2025642C20542040
:10996C003D2025642E2564CB9A432C2074617267AC
:10997C006574203D2025642E25642C206474203DC4
:10998C002025642C206572726F72203D2025642C7A
:10999C0020696E74656772616C203D2025642C20F3
:1099AC0064657269766174697665203D2025642C46
:1099BC00206F7574707574203D202564006272658B
:1099CC007669746573742D70726F64756374696FE6
:1099DC006E005075626C6973683A206576656E74BA
:1099EC00203D2025732C2075756964203D2025733E
:1099FC000056616C69646174696E6720636172748E
:109A0C0072696467650076616C69646174652D6365
:109A1C0061727472696467650056616C6964617423
:109A2C00696F6E206661696C6564202D206E6F74A1
:109A3C0020636F6E6E656374656420746F20746848
:109A4C006520636C6F756400256325632558256359
:109A5C0025582563255825632558256325582563E6
:109A6C0000252E323473256325582563255825632C
:109A7C000025732C2025642070657263656E74203C
:109A8C00636F6D706C6574652C2074656D70203D12
:109A9C002025642E2564005374617274696E6720EE
:109AAC006F70746963616C20493243206275732056
:109ABC007363616E00493243206465766963652087
:109ACC00666F756E64206174206164647265737373
