:02000002D0002C
:1040000000400D004CA90D00000006000C00050149
:084010000401DE0500000000C0
:0440180080930D0084
:10401C0009480A49884208B505D0094A824202D0AB
:10402C00121A05F05FF80748074A0021121A05F02A
:10403C0064F8014808BD00BF60C8032074A80D00D7
:10404C000CC903200CC90320F0E7032070B504F061
:10405C0057FD074C074BE41AA40800251E46A54241
:10406C0004D056F8253098470135F8E770BD00BFED
:10407C0064A80D002CA80D0001F06AB808B502F078
:10408C0001FEBDE8084004F0FDBC03F0A7BA03F044
:10409C00ADBA03F0ABBA0078B0FA80F040097047C3
:1040AC000123037070477047014B01221A7070474F
:1040BC0044CA0320034B044A1B7883F001031360AA
:1040CC00704700BF74C9032000CA0320014B0122B2
:1040DC001A707047D2D9032003681847012A02D0FE
:1040EC00022A02D004E0016002E00B6800B1036018
:1040FC000020704737B50C460E480F4D05F02EF8D2
:10410C00204605F076F8204410F8013CA3F1230278
:10411C00534253412B7004F033FC2B78074A002B8D
:10412C0014BF59234E2300930121024B04F03DF997
:10413C0003B030BDFCD9032084D30320BC970D0001
:10414C00436913B183690C301847704713B50021CC
:10415C000446084602F054FF02A90023204641F809
:10416C00043D02F065FF019C0CB101232371002179
:10417C00012002F045FF2CB1236820469B6898472C
:10418C000023237102B010BD10B5054B002204466C
:10419C00114640F8043B03F033F9204610BD00BF34
:1041AC00B0930D0010B50446FFF7EEFF204620211A
:1041BC0004F01BFE204610BD37B50C460E480F4DC3
:1041CC0004F0CCFF204605F014F8204410F8013C14
:1041DC00A3F12302534253412B7004F0D1FB2B78F3
:1041EC00074A002B14BF59234E2300930121024B85
:1041FC0004F0DBF803B030BDFCD9032084D30320DA
:10420C00F2970D0010B58368044613B103220146E2
:10421C009847204610BD0368C9B29B681847000038
:10422C00F0B500258E461549057185604561016024
:10423C00044692E8030085B002AF04F10C0687E84F
:10424C00030096E8030082E8030097E8030086E881
:10425C0003009168606990606161D168A069D06069
:10426C00A1618DE82800064A2346714604F1080036
:10427C0002F0CEFE204605B0F0BD00BF9C930D00B1
:10428C0059410D0007B58068002340B18DE80A0044
:10429C001A46022102F0D4FEB0FA80F0400903B0B5
:1042AC005DF804FB38B50F4B0360836804469BB183
:1042BC006FF00041FFF7E6FF0021A06802F0D8FE86
:1042CC00237903F0FF0513B102F082FEF8E72946CB
:1042DC00A06802F0A5FEA56004F10C00FFF792FFA8
:1042EC00204638BD9C930D0010B50446FFF7DAFF4D
:1042FC0020461C2104F079FD204610BD73B50646FE
:10430C000D4611461446FFF7BDFFB068002340B1BF
:10431C00019300952246194602F092FEB0FA80F005
:10432C00400902B070BD000040F67263984270B54F
:10433C001CDC0F4A002352F8044BA04203F1010588
:10434C000FDC116888420CDD0A4E56F8232056F813
:10435C0025309D1A031B6B43081B93FBF0F0104494
:10436C0070BD142D2B46E6D1002070BD184670BDD3
:10437C00DCA30D0088A30D001FB50C2AA8BF0C22CE
:10438C00014401A8144604F051FF04AB1C4401A8DD
:10439C00002304F80C3C04F08FFE04B010BD30B5C3
:1043AC00002385B00C68055D954208BF002504F11B
:1043BC0001040DF803500C6002D001330E2BF1D127
:1043CC00684604F079FE05B030BD000010B5084C0D
:1043DC0001444FF0FF32884208D010F8013B5340A3
:1043EC00DBB254F8233083EA1222F4E7D04310BD39
:1043FC00BC930D00021E30B516DB9110022329B1BF
:10440C00914203D0023342FA03F1F8E7023B002059
:10441C004000411C42FA03F401FB01F5A542D8BF50
:10442C000846023BF4D530BD4FF0FF3030BD0000E4
:10443C0008B504F061FC4FF46D7203490020BDE82F
:10444C00084002F045BE00BF86D3032008B504F037
:10445C0053FC4FF46D7203490020BDE8084002F094
:10446C003FBE00BF86D3032008B504F045FCBDE871
:10447C00084002F03DBE000008B5FFF7F5FF044B05
:10448C000D221A700E225A70FF229A7008BD00BFBE
:10449C0086D3032007B504F02FFC01220DF1070190
:1044AC00002002F015FE9DF80730FF2B02D1FFF71C
:1044BC00E3FF07E0FFF7BCFF044B1A8840F60D63DF
:1044CC009A42F4D103B05DF804FB00BF86D30320FD
:1044DC00012870B50E461D4D1BD11D4B188804F0DC
:1044EC009FFB044640B904F04BFA1A4903F033FF22
:1044FC00194B2C601C6016E02B68002B15DC04F0AB
:10450C003FFA164903F027FF134B00202860186070
:10451C0070BD2A684AF227039A4206DD04F030FA8D
:10452C000F4903F018FF002070BD0E4C01212088AC
:10453C0004F05DFB304602F0B3FD0021208804F04E
:10454C0056FB304602F0ACFD012070BDD4D90320DF
:10455C0090C8032025980D0004CA032041980D0033
:10456C0058980D008CC803202DE9F84F1C4BDFF830
:10457C007890C70F044688461888394604F037FBF4
:10458C00184B84EAE4711A68A1EBE4711144192206
:10459C00002C91FBF2F64FF0000402FB16121A608D
:1045AC00B4BF6FF0180A4FF0190A1D46A346B44267
:1045BC0013DA41463846FFF78BFF58B1D9F8003073
:1045CC005344002B02DDC9F8003004E0C9F800B0F8
:1045DC00C5F800B034460134E9E7BDE8F88F00BFF8
:1045EC006CC8032004CA0320D4D9032008B5054B9A
:1045FC000021188804F0FBFA1420BDE8084003F0F1
:10460C0025B800BF9CC8032008B5054B01211888AC
:10461C0004F0EDFA0A20BDE8084003F017B800BF1B
:10462C009CC8032038B504460D46FFF7EDFF29461C
:10463C002046FFF799FFBDE83840FFF7D7BF0000D1
:10464C00134B10B54AF228021A600446FFF7DCFF40
:10465C0096211048FFF788FF642002F0F7FF96219F
:10466C004FF4FA60FFF780FF642002F0EFFF4FF485
:10467C007A710948FFF778FF4FF47A7142F63020CF
:10468C00FFF772FF1CB1BDE81040FFF7AFBF10BDC4
:10469C00D4D90320A015FFFF48F4FFFF38B5064C12
:1046AC0080F3080544F620622946208804F008FBB4
:1046BC000123E560237238BD10C9032010B5044CEA
:1046CC000021208804F0D6FA00232372E36010BD89
:1046DC0010C90320024B0146188804F0CBBA00BF66
:1046EC0060C80320024B0146188804F0C3BA00BF0F
:1046FC0070C80320024B0146188804F0BBBA00BFF7
:10470C0078C803200346412B084601D1FFF7E2BFCE
:10471C00312B01D1FFF7E6BF322B01D1FFF7EABFF6
:10472C0070470000024B0021188804F0A3BA00BFA8
:10473C0060C80320024B0021188804F09BBA00BF0C
:10474C0070C80320024B0021188804F093BA00BFF4
:10475C0078C80320412801D1FFF7E4BF312801D1EB
:10476C00FFF7E8BF322801D1FFF7ECBF704710B557
:10477C0004460846FFF7AEFF204602F067FFBDE88F
:10478C001040FFF7CFBF10B504460846FFF7AAFF4D
:10479C00204602F05BFFBDE81040FFF7CBBF10B521
:1047AC0004460846FFF7A6FF204602F04FFFBDE87F
:1047BC001040FFF7C7BF38B50C4605460846FFF753
:1047CC0089FF2046FFF78EFF2046FFF793FF284610
:1047DC0002F03CFFFFF7A6FFFFF7ACFFBDE8384047
:1047EC00FFF7B0BF08B504F0B5FA03F04EFB88B97B
:1047FC0004F0B0FA084903F0FBFA04F0ABFA03F04A
:10480C00FBFA642002F022FF04F0A4FABDE8084091
:10481C0003F03BBB08BD00BFA086010008B504F047
:10482C0099FABDE8084003F0EDBA000008B5074B53
:10483C00074800226FF00041DA61FFF75FFD04F0DA
:10484C009FF80449BDE8084003F085BD10C903205A
:10485C0008CA032073980D00254A2DE9F34103463D
:10486C00044600F11801164653F8040B42F8040BE9
:10487C008B42F9D100271F4D377620686168777617
:10488C002B4602AE03C3192346F8043D7C22314665
:10489C0020462F72FFF783FD314668727C2220463A
:1048AC00FFF77DFD314680467C222046FFF777FDE1
:1048BC003146E8607C222046FFF771FD0199288281
:1048CC0086B23246214405F1120004F0AFFCAB195C
:1048DC00314605F112009F74FFF778FD0028B8BF30
:1048EC004042C8EB00035842584102B0BDE8F08189
:1048FC005CD2032078CA0320F0B5054695B00E466D
:10490C0001682B4804F051FC2A4A2B4900231370F0
:10491C002A4A04A8137003F0F7FD29460CA8049C3E
:10492C0003F031FE7C2108A803F051FE08A90CA865
:10493C0003F075FE3146074610A803F0E5FD10A9FB
:10494C00384603F06CFE1E4B026819781D4B1B7821
:10495C000B438DF8003021463C2302A803F04AF8A3
:10496C00039C7CB16368013B63605BB923682046A0
:10497C009B689847A368013BA3601BB9236820463A
:10498C00DB68984710A803F078FD08A803F075FDC4
:10499C000CA803F072FD04A803F06FFD03F0F0FF08
:1049AC0000962B68084A012103F0FFFC15B0F0BDFE
:1049BC00B0D9032084D3032096980D00FCD9032092
:1049CC0078C90320C0C90320AB980D007FB503F054
:1049DC00D7FF1549154E164D03F0BDFC02F086FDB0
:1049EC000446B0B10123337002F062FB114B124943
:1049FC0000F51C5010301860002368462B7003F033
:104A0C0083FD68460D49FFF777FF684603F035FDD7
:104A1C0008E003F0B5FF0A4903F09DFC094B347024
:104A2C002C701C7004B070BDCA980D009DC9032079
:104A3C004CD30320ECC90320DF980D00DCD90320F4
:104A4C00F2980D0045CA0320F8B50C4F0646002419
:104A5C00251D3D4429461822304604F0D2FB014660
:104A6C0038B92846EC2204F048FBBDE8F840FFF7C3
:104A7C00EDBCEC34B4F56C7FEAD1F8BD86D30320E1
:104A8C00F0B50024084F4454851A1446A01A8842E5
:104A9C0004F1010007DAE65D9E4208BF00262E55A0
:104AAC0001D00446F2E7F0BDFCD90320034BEC2205
:104ABC0002FB00300021043004F01FBB86D303201E
:104ACC0008B50A4B00201870FFF7F0FF0120FFF724
:104ADC00EDFF0220FFF7EAFF0320FFF7E7FF044B8F
:104AEC00FF229A70BDE80840FFF7B0BCF0C9032064
:104AFC0086D3032038B5074C0749EC22054602FB48
:104B0C000040043004F0EEFAA570BDE83840FFF721
:104B1C009DBC00BF86D303205CD2032010B588B0A7
:104B2C003A230A7807930B8906932C230593CC8898
:104B3C00049403938C8802940193044C498800914B
:104B4C002044034902F062FD08B010BD3BD703209E
:104B5C0021990D002DE9F341154FEC2646434121D7
:104B6C007C23BA198DE80A0004321249124802F06B
:104B7C004DFD0025044606F11E08AB193B449B7FF6
:104B8C00412B02D0313B012B06D808EB0501204606
:104B9C003944FFF7C3FF04440A35D22DEDD1064B3F
:104BAC001C440120002304F8013C02B0BDE8F08154
:104BBC0086D3032036990D003BD7032010B5084B44
:104BCC009C78FF2C1ABF013404F003040024204607
:104BDC00FFF790FF2046BDE81040FFF7BBBF00BFBA
:104BEC0086D3032070B5164B1B780E4633BB154B82
:104BFC001A18927C7C2A21D03A2A1CD00446B4F58F
:104C0C00FA6F1ADA1A19927C3A2A06D1221A01463C
:104C1C000D48FFF7B1FB30600FE02C2A04F10105C1
:104C2C0007D1221A01460848FFF7A6FB3060284638
:104C3C0070BD2C46E3E7013070BD204670BD00BF4F
:104C4C00D1D9032078CA03208ACA032030B50029A1
:104C5C00054685B019481A4C01D1016018E0194B72
:104C6C00DA684FF47A7303FB02F204DA4FF0FF3385
:104C7C00026023600DE0036819446423016059430A
:104C8C0091FBF2F19942A8BF19462368994200D0D2
:104C9C00216003F075FE0C4B196A0A2391FBF3F2A9
:104CAC0003FB12130293236801920093074A2B68AB
:104CBC00012103F07AFB05B030BD00BFC4C903204D
:104CCC0050D3032078CA032010C9032042990D0049
:104CDC00F0B516464A1C85B007460D4602D1336026
:104CEC000C4621E00A462C2103F0CFFC431C044661
:104CFC000CD12A463946684603F0F6FC684603F0A8
:104D0C00FAFC3060684603F0B8FB0DE003462A4617
:104D1C003946684603F0C8FC684603F0ECFC30608A
:104D2C00684603F0AAFB0134204605B0F0BD000034
:104D3C00124A134908B500231370124A0B701370F2
:104D4C00114A0B721370114A1370114A1370114AE5
:104D5C001360114A1360114A13701376104A1370C2
:104D6C00137653760F4A137082F86E3202F0A0F964
:104D7C000D4B00F56A406030186008BD77C9032000
:104D8C0078CA032075C903204CD3032084D3032095
:104D9C0074C90320C4C9032050D30320DCD90320D9
:104DAC005CD203203BD70320C8C9032010B50722CF
:104DBC000D490E4804F025FA044670B903F0E0FDE5
:104DCC000B4903F0C8FA0B4B01201C70FFF738FCA1
:104DDC00FFF7AEFF084B1C6010BD03F0D1FD074977
:104DEC00BDE8104003F0B7BA68990D00D4C9032090
:104DFC0070990D0074CA0320C8C903207E990D0058
:104E0C0010B507220D490E4804F0FBF9044670B9A1
:104E1C0003F0B6FD0B4903F09EFA0B4B01201C70FE
:104E2C00FFF70EFCFFF784FF084B1C6010BD03F06E
:104E3C00A7FD0749BDE8104003F08DBA68990D0035
:104E4C00D4C9032092990D00FCC90320C8C90320C2
:104E5C00A1990D001FB5174C03F092FD214603F0EC
:104E6C007AFA154B01221A7002F022F9134B00F555
:104E7C001C50103018602146684603F045FB4FF07B
:104E8C00FF316846FFF7E2FE684603F0F6FA0C497C
:104E9C00684603F039FB0B496846FFF72DFD684661
:104EAC0003F0EBFAFFF7A2FB074B00221A7004B0D9
:104EBC0010BD00BF92990D00FCC9032070C90320DE
:104ECC00B5990D005CD2032045CA03201FB503F031
:104EDC0057FD164903F03FFA154B01221A7002F0E8
:104EEC00E7F8144B144900F51C5010301860684654
:104EFC0003F00AFB4FF0FF316846FFF7A7FE684648
:104F0C0003F0BBFA0D49684603F0FEFA0C496846FB
:104F1C00FFF7F2FC684603F0B0FAFFF767FB094BAA
:104F2C0000221A7005B05DF804FB00BFC1990D009A
:104F3C0074CA0320E8C90320D0990D00DE990D0036
:104F4C005CD2032045CA032070B50E4604461546B4
:104F5C0003F03CFE012E05D129462046BDE87040E9
:104F6C0003F088BE70BD70B50E460446154603F0BE
:104F7C002DFE012E05D129462046BDE8704003F0D8
:104F8C0036BE70BD30B500228BB001215548564D50
:104F9C0002F036FA002304225449554802F07EFAF6
:104FAC00544A5549554802F005FC06A802F0A6FAE9
:104FBC0006A9284603F0F2FA06A803F05EFA294681
:104FCC0002A803F0E0FA4E4902A803F034FB0024D7
:104FDC00014606A803F0D7FA234622464949019414
:104FEC000094069802F09AFA06A803F046FA02A872
:104FFC0003F043FA294602A803F0C5FA424902A875
:10500C0003F019FB014606A803F0BDFA224623461D
:10501C003E4901940094069802F080FA06A803F029
:10502C002CFA02A803F029FA394B0221188803F054
:10503C00CDFD384B0221188803F0C8FD364B0122F8
:10504C0011461888FFF78FFF344B2146188803F060
:10505C00BDFD334B224618880121FFF775FF314BFC
:10506C00224618880121FFF76FFF2F4B2246188824
:10507C000121FFF769FF2D4B2146188803F0A6FD8F
:10508C002B4B2146188803F0A1FD2A4B214618888A
:10509C0003F09CFD284B224618880121FFF763FF83
:1050AC00264B224618880121FFF75DFF244B224630
:1050BC0018880121FFF757FF224B80221888012105
:1050CC00FFF742FF204B224618880121FFF73CFFD7
:1050DC001E4B224601211888FFF736FFFFF7DAF93D
:1050EC000BB030BD58D3032074D303203BD703201F
:1050FC00EA990D00F3990D0041690D0095770D00AB
:10510C00FC990D0001410D00219A0D00C5410D00C7
:10511C0090C8032080C8032094C8032098C803209B
:10512C0060C8032070C8032078C8032088C80320F7
:10513C0064C803207CC803209CC803208CC80320AF
:10514C006CC8032074C8032084C8032068C80320DB
:10515C0008B5FFF717FF03F013FC4FF4E13103F030
:10516C0003FC034B01221A70024B00221A6008BD8B
:10517C003AD70320F8C9032030B5144B144D1A78D4
:10518C0085B01C4622B101F093FF2B6883421AD2E2
:10519C0001F08EFF00F5EA403030286041F2883093
:1051AC0002F054FA02F0A2F968B101230949237004
:1051BC00684603F0A9F9084B68461968FFF79CFB91
:1051CC00684603F05AF905B030BD00BF76C903201C
:1051DC00F8C90320439A0D0074D3032007B500933C
:1051EC0013460A46012103F0E0F803B05DF804FB16
:1051FC0038B50A4B1B7805460C4633B103F0C0FB9F
:10520C0023462A460649FFF7E9FF064B2A46214664
:10521C001878BDE8384003F0AFBA00BF75CA032058
:10522C00539A0D0084C8032073B5044603F092FD15
:10523C00214602F01CFE03F08DFD0021FEF7EBFF72
:10524C00064603F087FD002102F018FE054630B13A
:10525C0003F096FB2B4632461549FFF7BFFF03F0D0
:10526C0079FD2146042202F0FFFD03F073FD036873
:10527C005B699847044603F06DFD03685B699847CA
:10528C000C4B1B78054643B103F07AFBE3B2009359
:10529C00094AEBB2012103F088F86A0704D4E0B2A2
:1052AC00C31E5842584100E0002002B070BD00BF40
:1052BC00859A0D0075CA0320A69A0D007FB5124B76
:1052CC001C680D46041B06461049684603F01CF981
:1052DC0084EAE473A3EBE4736B43684646F2A811CB
:1052EC0093FBF1F1FFF7B2FC684603F0C6F803F04C
:1052FC0047FB234632460649FFF770FF29462046F6
:10530C00FFF732F904B070BDD4D90320BC9A0D005C
:10531C00D79A0D004FF47A7144F65710FFF7CEBFB1
:10532C004FF47A7142F63020FFF7C8BF0A460121CC
:10533C0003F03BB813460A46012103F036B80000CF
:10534C0070B5044601F0B4FE0E4D84F30804064615
:10535C0044F620622146288803F0B2FC002C14BFCE
:10536C0001230023EC602B7208D0074B1B782BB168
:10537C0003F006FB22460549FFF7DCFF01F098FE1F
:10538C00801B70BD10C9032075CA0320029B0D0041
:10539C0008B56FF000410648FEF774FF0020FFF7D8
:1053AC00CFFF03F0EDFA0349BDE8084002F0D3BF8C
:1053BC0008CA0320199B0D0038B5114C0021208818
:1053CC0003F058FCA08803F03EFCE16805462088F9
:1053DC0003F050FC1DB9FFF7DBFF00250EE028465B
:1053EC00FEF7A2FF052200EBC003B0F5167F93FB7E
:1053FC00F2F303F5A0732062A362ECDC284638BDFF
:10540C0010C903202DE9F0432F4E8BB0F56801F045
:10541C004FFEF769C7EB0009B9F57A7F8046344631
:10542C004ED3FFF7C9FFC6F81C808046002847D032
:10543C0017B97761B76143E0336A776AB569E26A95
:10544C00FF1A4FF47A7107FB09F393FBF1F31D4438
:10545C00B5617669636BBE1B6B434E437A43216B1C
:10546C00A56B92FBF1F193FBF5F56A18E56B236CD8
:10547C0096FBF9F6754395FBF3F5144B1B78154425
:10548C00EBB103F07DFAD4F820E0636A0895079637
:10549C00A16906910A2293FBF2F102FB11330393EB
:1054AC009EFBF2F302FB13E202910192009305972B
:1054BC00CDF810904346064A012102F076FF676151
:1054CC0028460BB0BDE8F08310C9032075CA032031
:1054DC005C9B0D0010B501F0EBFD0A4B1B780446EC
:1054EC001BB9FFF78FFFFFF72BFF074B188803F053
:1054FC0097FB431E58425841044B187001F0D8FDDD
:10550C00001B10BD74C9032080C80320D1D903200F
:10551C002DE9F047DFF83CA005460E4690461F46A5
:10552C000024C0F10009444512DA31462846FFF741
:10553C001BF80FB1FFF7CEFF31464846FFF714F8C2
:10554C000FB1FFF7C7FF9AF800300BB90134EAE747
:10555C00BDE8F087D1D90320F8B5114F04460025DA
:10556C004FF4FA7690FBF6F6B54209DAFFF7B2FF84
:10557C00C0F5FA7002F06AF83B7883B90135F3E7AD
:10558C004FF4FA7294FBF2F302FB1344FFF7A2FF01
:10559C00844204DD201ABDE8F84002F057B8F8BD8B
:1055AC00D1D9032010B50120FFF71CF918B9BDE8BB
:1055BC001040FFF733B903F0E3F90E4902F0CBFECC
:1055CC00002403F0C7FB214602F055FC03F0C2FB9C
:1055DC000021FEF720FE03F0BDFB02F053FC28B9BE
:1055EC0003F0CEF922460449FFF7A4FE01347F2CC8
:1055FC00E7D1DCE7C59B0D00E39B0D0013460A4683
:10560C00012102F0D2BE00002DE9F347444C23786F
:10561C000646884615462BB103F0B2F9324641498D
:10562C00FFF7ECFF03F096FB294602F024FC03F095
:10563C0091FB0021FEF7EFFD824603F08BFB02216C
:10564C00FEF7E9FD074603F085FB012102F016FC8D
:10565C00814650B1574403F093F9CDF8049000976C
:10566C003346314A012102F0A0FE03F073FB2946B8
:10567C0002F001FC03F06EFB0621FEF7CCFD824626
:10568C0003F068FB03685FFA88F19B68984707464C
:10569C0003F060FB012102F0F1FB814650B157444D
:1056AC0003F06EF9CDF80490009733461E4A0121A1
:1056BC0002F07BFE03F04EFB294602F0DCFB03F00C
:1056CC0049FB0621FEF7A7FD074603F043FB00212B
:1056DC0002F0D4FB064630B103F052F933463A4699
:1056EC001249FFF77BFD03F035FBE9B2012202F012
:1056FC00BBFB054603F02EFB03685B6998472378D8
:10570C0006464BB103F03CF90196CDF800802B46D0
:10571C00074A012102F049FE02B0BDE8F08700BF44
:10572C0075CA0320029C0D00209C0D00859A0D006B
:10573C00479C0D002DE9F7435A4D5B4EDFF89C81D9
:10574C00DFF8749101232B7003F01AF9574902F01A
:10575C0002FE03F08DF84FF4165103F07FF803F0BE
:10576C000FF9534902F0F7FD0021308803F03FFA9E
:10577C0001F09EFC00F59C5403F002F94D4902F037
:10578C00EAFD0834B8F8000003F04AFA074603F0C3
:10579C00F7F82E2102F0D0FD01F08AFCC9F80000C8
:1057AC0001F08CFEC82001F051FF012F424F03D0B5
:1057BC0001F07EFCA042E5D303F0E2F8804603F052
:1057CC0057F803681B699847002814BF59224E22CA
:1057DC003A494046FFF712FF0121308803F007FADF
:1057EC0003F0CEF8364902F0B6FD03F041F8036839
:1057FC001B69984748B901F05BFC844205D901F05C
:10580C0057FC386001F05AFEEFE7642001F01EFFF0
:10581C0003F0B6F82B492C4E02F09DFD002403F04A
:10582C00AFF82E2102F088FD03F022F803685B69C3
:10583C009847431C1CBF3055013403F019F803681A
:10584C001B69984708B1172CE9DD03F099F802F0B1
:10585C0076FD172C1C4A0CDC1C4B114603F118006E
:10586C0053F8046B41F8046B8342F9D1184B0021B7
:10587C0019700026167603F083F8134B154A009422
:10588C00012102F092FD02F0F3FF02F0EAFF03F0B7
:10589C0077F81149FFF74AFD20462E7003B0BDE89A
:1058AC00F08300BF46CA032094C803206A9C0D00F5
:1058BC007D9C0D00949C0D0018E70320A59C0D0009
:1058CC00CE9C0D002F9D0D00DCD90320E49C0D0017
:1058DC0045CA0320FD9C0D00159D0D0098C80320A2
:1058EC0070B58EB00025014606460AA807950895A6
:1058FC00099502F048FE2B4606AA29460AA8FFF78E
:10590C00E7F904460AA802F0B8FD069B013B202BE0
:10591C0000F25282DFE813F0210024002800570027
:10592C005D007B0080009B00A000C200E30005012D
:10593C00260148016C0172018C019201A301A601A0
:10594C00A901AC01B001500250025002B301D001C8
:10595C0010021702500250021B02FFF7B1F82BE2A3
:10596C000120FEF76DFE24E231460AA802F00BFE80
:10597C00002307AA21460AA8FFF7AAF904460AA899
:10598C0002F07BFD31460AA802F0FDFD4FF47A735C
:10599C0008AA21460AA8FFF79BF90AA802F06DFD98
:1059AC0008990798B74CFEF73DFE02F0E9FFB64B9D
:1059BC00B64A1B680193236800930121079B02F0F0
:1059CC00F4FC2468F9E10020FEF73AFEFFF7A2FC94
:1059DC000025AF4B31460AA85D7602F0D4FD0123B9
:1059EC0007AA21460AA8FFF773F90AA802F045FD99
:1059FC00A84B079CB6221A60A74BFF221A60A74B34
:105A0C0001221A70A64B1C60A64B1D60D5E1FEF757
:105A1C002BFD02F089FE94E131460AA802F0B3FD99
:105A2C0007AA21464FF4B9730AA8FFF751F90AA83F
:105A3C0002F023FD02F0A4FF9B4B196A0A2391FB91
:105A4C00F3F203FB12139949FFF7C8FB24E0FEF7AE
:105A5C0013FD974B5C78B0E131460AA802F093FD38
:105A6C004FF4FA7307AA21460AA8FFF731F9044646
:105A7C000AA802F002FD31460AA802F084FD214674
:105A8C00FF2308AA0AA8FFF723F90AA802F0F5FCDD
:105A9C0008990798FEF76BFE079C8EE131460AA821
:105AAC0002F071FD07AA4FF4FA7321460AA8FFF71A
:105ABC000FF904460AA802F0E0FC31460AA802F0ED
:105ACC0062FD2146FF2308AA0AA8FFF701F90AA8DC
:105ADC0002F0D3FC08990798FEF755FE1FE03146FB
:105AEC000AA802F050FD4FF4FA7307AA21460AA83F
:105AFC00FFF7EEF804460AA802F0BFFC31460AA8EC
:105B0C0002F041FD2146FF2308AA0AA8FFF7E0F89E
:105B1C000AA802F0B2FC08990798FEF740FE089C10
:105B2C004BE131460AA802F02EFD07AA4FF4FA7396
:105B3C0021460AA8FFF7CCF804460AA802F09DFCFF
:105B4C0031460AA802F01FFD2146FF2308AA0AA825
:105B5C00FFF7BEF80AA802F090FC08990798FEF728
:105B6C002AFEDCE731460AA802F00DFD07AA4FF425
:105B7C00167321460AA8FFF7ABF804460AA802F0F0
:105B8C007CFC31460AA802F0FEFC21464FF47A73E5
:105B9C0008AA0AA8FFF79CF80AA802F06EFC08995C
:105BAC000798FFF725FB77E731460AA802F0EBFCD4
:105BBC0007AA002321460AA8FFF78AF804460AA878
:105BCC0002F05BFC31460AA802F0DDFC21464FF4E2
:105BDC007A7308AA0AA8FFF77BF80AA802F04DFC12
:105BEC000020FEF72DFD08990798FFF767FBDEE014
:105BFC000020FEF725FDFFF793FBD8E031460AA8FD
:105C0C0002F0C1FC4FF4B97307AA21460AA8FFF7AA
:105C1C005FF80AA802F031FC079C40F25623621E82
:105C2C009A4200F2CA80204B00225C62DA61C4E026
:105C3C000020FEF705FDFFF76DFBB8E031460AA822
:105C4C0002F0A1FC802307AA21460AA8FFF740F81E
:105C5C000AA802F012FC0798FEF720FD1CE7FEF7DD
:105C6C002DFD6EE0FEF7E2FD6BE0FFF791FB68E0C7
:105C7C00104B01241C70A0E00E4B1D709CE0FFF734
:105C8C0091FC5EE0D4D9032004CA03204C9D0D0086
:105C9C005CD20320ACD9032048D3032044CA032090
:105CAC00CCC90320D0C9032010C903207B9D0D0053
:105CBC0086D3032075CA03200020FEF7C1FCFFF732
:105CCC0029FB31460AA802F05EFC4FF4FA6307AADE
:105CDC0021460AA8FEF7FCFF04460AA802F0CDFBF9
:105CEC0031460AA802F04FFC052308AA21460AA84F
:105CFC00FEF7EEFF0AA802F0C0FB3A4A002313702D
:105D0C00394A5376394BB6221A60394BFF221A6046
:105D1C00384B01221A70089B9918374A116013B13D
:105D2C00079A92FBF3F3354A354813606FF0004144
:105D3C000022FEF7E3FA04E06FF000413048FEF772
:105D4C00A1FA012439E0FFF7F5FC044635E03146B1
:105D5C000AA802F018FC192307AA21460AA8FEF784
:105D6C00B7FF04460AA802F088FB31460AA802F0E5
:105D7C000AFC962308AA21460AA8FEF7A9FF0446A6
:105D8C000AA802F07AFB31460AA802F0FCFB0A23AF
:105D9C0009AA21460AA8FEF79BFF0AA802F06DFB90
:105DAC00FEF732FC07A8002307C8FFF7B1FBFEF78C
:105DBC001DFC144B1C6800E0002402F0E1FD0023E4
:105DCC0005930493099B0393089B0293079B0193F0
:105DDC000094069B0C4A012102F0E7FA20460EB013
:105DEC0070BD00BF75CA03205CD20320ACD9032060
:105DFC0048D3032044CA0320CCC90320D0C90320B4
:105E0C0054C90320D4D90320909D0D0038B51E4BE6
:105E1C00188802F005FF1D4B021E0CBF012100214A
:105E2C0019701C461ED10121194801F0E9FA194BD1
:105E3C001B6AB3F5B47F08DD4FF4C8710846FFF751
:105E4C00D7F9154B01221A7012E005254FF4C871D1
:105E5C00C820FFF7CDF94FF4C87001F0F7FB013DF6
:105E6C00F4D105E04FF496714FF4C870FFF7C0F908
:105E7C0002F086FD23780949002B14BF59224E22CB
:105E8C00FFF7BCFB38BD00BF80C8032045CA032008
:105E9C0058D3032010C903209CC90320DA9D0D00A0
:105EAC0010B51B4B1A7892B11A4C227852B10022C1
:105EBC0022701A7002F064FD174902F04CFAFFF7D9
:105ECC00A5FF04E0322001F0C1FB01232370134B2A
:105EDC001C785CB101F0ECF8114B1B68984216D998
:105EEC0002F04EFD0F4902F036FA0AE00E4B1A781A
:105EFC006AB11C700D4B1B784BB1FFF71BFC1828BB
:105F0C0003D1BDE81040FEF761BD094B1C7010BDFC
:105F1C00D2D90320C1C90320F09D0D009DC90320D7
:105F2C00ECC90320089E0D009CC9032045CA032020
:105F3C004CD3032013460A46002102F036BA000067
:105F4C002DE9F3470546174698460E4602F002FF28
:105F5C00294601F08CFF02F0FDFE0021FEF75BF9F3
:105F6C00824602F0F7FE8321FEF755F9044602F053
:105F7C00F1FE012101F082FF814660B1544402F030
:105F8C00FFFCCDF8049000942B46754A012102F0D9
:105F9C000CFA0020E0E001F08BF800F59C5909F1B7
:105FAC0008092846FFF740F970B901F081F8484517
:105FBC0003D2642001F04AFBF3E702F0E1FC2A462D
:105FCC006849FFF71BFBE4E7674C23782BB102F021
:105FDC00D7FC2A466549FFF711FB02F0BBFE2946A8
:105FEC0001F045FF02F0B6FE0021FEF714F98246DF
:105FFC0002F0B0FE002101F041FF814630B102F009
:10600C00BFFC4B4652465A49FFF7E8F802F0A2FE95
:10601C0029460A2201F028FF02F09CFE03685B6906
:10602C009847054602F096FE03685B69984723780B
:10603C0081464BB1EDB202F0A3FC00955FFA89F3F7
:10604C004C4A012102F0B1F902F084FE03685B694D
:10605C0098472378C5B22BB102F092FC2A464649E8
:10606C00FFF768FF02F076FE03685B6998472378B8
:10607C00814633B102F084FC5FFA89F23E49FFF7A6
:10608C0059FF4FEA092909F47F4914234D4495FB24
:10609C00F3F50A9B433D1D8002F05CFE03685B69CF
:1060AC0098472378C5B22BB102F06AFC2A463249D4
:1060BC00FFF740FF02F04EFE03685B6998472378B8
:1060CC005FFA80F92BB102F05BFC4A462A49FFF7D4
:1060DC0031FF05EB0925358002F03CFE03685B6956
:1060EC0098472378C5B22BB102F04AFC2A462249C4
:1060FC00FFF720FF02F02EFE03685B6998472378B8
:10610C00C6B22BB102F03CFC32461B49FFF712FF22
:10611C0005EB06253D8002F01DFE03685B69984780
:10612C002378C5B22BB102F02BFC2A461249FFF79B
:10613C0001FF02F00FFE03685B6998472378C6B233
:10614C002BB102F01DFC32460B49FFF757FA05EB59
:10615C000625A8F80050012002B0BDE8F08700BF6A
:10616C004D9E0D00AD9E0D0075CA03207D9E0D0049
:10617C00859A0D00A69A0D00A99E0D002DE9F04FF1
:10618C008DB041280746089114460AD031280BD00F
:10619C0032280CD002F0F4FB3A464D49FFF72EFAA8
:1061AC0093E04FF0740A04E04FF0750A01E04FF0F1
:1061BC00760A484E737E1525B3FBF5F005FB1035BA
:1061CC0001337376444B01221A70FEF777FA21469D
:1061DC003846FEF797FAEDB264200A2401F036FA3D
:1061EC0004FB05645246089938464FF00009FFF746
:1061FC000BFA0523A776E376C8464E464D46CB46AA
:10620C00E27E934504F11B0320DA0AAB00930BAA40
:10621C000DF12E030DF12A015046FFF791FE60B1EE
:10622C00BDF82A301D44BDF82C301E44BDF82E306C
:10623C009844BDF82830994405E002F0A1FB3A4699
:10624C002649FFF7DBF90BF1010BD9E796FBF2F6C8
:10625C00E683B6B295FBF2F57643A583ADB298FB17
:10626C00F2F005FB0565208480B299FBF2F900FB86
:10627C000050A4F822900993FEF7BCF80546ADB285
:10628C0002F07EFB0795228C0692E28B0592A28B84
:10629C0004921FFA89F909EBC909052299FBF2F25C
:1062AC00203292B20392628C099B02921B7801936A
:1062BC00089B00930A4A3B46012102F076F8064BF4
:1062CC00002238461A70FEF745FA0DB0BDE8F08F83
:1062DC00C89E0D005CD2032074C90320E49E0D00FF
:1062EC000B9F0D002DE9F04105460E46144600F0BB
:1062FC00DFFE07460120FEF775FAE0B1324629466B
:10630C004120FFF73BFF0CB1FFF7E4F8324629467A
:10631C003120FFF733FF0CB1FFF7DCF8324629468A
:10632C003220FFF72BFF0CB1FFF7D4F802F028FB5B
:10633C0002F005F804E002F023FB0B4902F00BF825
:10634C00FEF76CFA094B1B7863B102F019FB04469B
:10635C0000F0AEFE064AC31B01212046BDE8F04109
:10636C0002F023B8BDE8F0814A9F0D0075CA0320E6
:10637C007D9F0D00F0B5904B1D7889B00C461E46E4
:10638C00002D40F01681042800F0C08043DC012869
:10639C0000F0868011DC002840F00781874904A8B2
:1063AC0002F0B2F841F2707104A8FEF74FFC04A899
:1063BC0002F063F84FF47A7083E0022800F08480D6
:1063CC00032840F0F28001A92046FEF70BFC02A93D
:1063DC00FEF708FC03A9FEF705FC7949044604A85E
:1063EC0002F092F8019B83EAE371A1EBE371029B4B
:1063FC005943039B04A84B4346F2A81193FBF1F1BC
:10640C00FEF724FC04A802F038F801A8012307C801
:10641C00FFF77EF8C9E0142800F0A98034DC0A28C4
:10642C0000F08C800B2840F0C08001A92046FEF7BC
:10643C00D9FB02A9FEF7D6FB6249044604A802F078
:10644C0063F8614B1968A1F5924157390029B8BF1F
:10645C004942192304A891FBF3F1FEF7F7FB04A8BA
:10646C0002F00BF8FEF756FF584904A802F04CF85E
:10647C0041F2707104A8FEF7E9FB04A801F0FDFFDE
:10648C002A46029901986FE0152800F0878063284E
:10649C0040F08B8002F074FA4D4901F05CFF86E00D
:1064AC0001A92046FEF79EFB4A49044604A802F0C7
:1064BC002BF8019904A8FEF7C9FB04A801F0DDFF35
:1064CC000198FFF749F872E001A92046FEF78AFB14
:1064DC0002A9FEF787FB4049044604A802F014F811
:1064EC00019B83EAE371A1EBE371029B04A84B438C
:1064FC0046F2A81193FBF1F1FEF7A8FB04A801F0FA
:10650C00BCFF02990198FEF72FF84EE001A9204636
:10651C00FEF768FB02A9FEF765FB3049044604A8A8
:10652C0001F0F2FF019904A8FEF790FB04A801F01A
:10653C00A4FF02990198FEF75BFE36E002F020FA08
:10654C002749FEF7F3FEFEF7E5FE204904A801F00B
:10655C00DBFF41F2707104A8FEF778FB04A801F090
:10656C008CFF2A46FF21B620FFF7BCFE1FE001A9D5
:10657C002046FEF737FB044602F002FA019A19494D
:10658C00FEF7D8FE671C019BAB4210DD337873B964
:10659C00384600F02BF801350446F4E702F0F0F928
:1065AC00114901F0D8FE604204E0FEF793FF601C35
:1065BC0000E0084609B0F0BDD1D903208E9F0D0034
:1065CC00A69F0D00E69F0D00D4D90320DE9F0D0081
:1065DC0017A00D00979F0D009F9F0D00B29F0D00FF
:1065EC00BA9F0D00F09F0D0009A00D0030B585B0CD
:1065FC0003A90546FEF7F6FA014665B9039B53B1AC
:10660C00184B01221A7002F0BBF9174901F0A3FED6
:10661C004FF0FF3023E00398FFF7ACFE044602F086
:10662C00AFF9039B019300942B46104A0D4D0121A9
:10663C0001F0BBFE039B632B0DD0002C0BDD2B78E4
:10664C004BB903A92046FEF7CDFA01460398FFF794
:10665C0091FE0446EEE784EAE470A0EBE47005B02A
:10666C0030BD00BFD1D9032023A00D003BA00D00ED
:10667C001FB52B4B2B49012268461A7001F044FFC1
:10668C0068460021FEF7E2FA684601F0F6FE00F0DB
:10669C0025FF4FF4FA6000F0D9FF00F027FF044605
:1066AC0028B102F06DF9204901F055FEEFE7FDF736
:1066BC00C7FF4FF416714FF47A70FEF799FD40F254
:1066CC00DC5000F0C3FFFEF763FE2146204600F0CD
:1066DC0097FC2046FFF78AFF2146012000F090FC32
:1066EC00FEF76CFAFEF7A2F800F0F0FE4FF4FA6039
:1066FC0000F0ACFF00F0FAFE28B902F041F90B49AA
:10670C0001F029FEF0E70A4B0A4A1B780A4883F08D
:10671C00010313700121002200F072FE04B010BDC1
:10672C0077C903205FA00D006CA00D006EA00D00BA
:10673C00D1D903209EC9032080C9032013460A46E1
:10674C00012101F032BE000007B502F019F92F4902
:10675C0001F001FEFEF726FF02F012F92C4901F0C0
:10676C00FAFD0120FDF76CFF02F00AF9294901F04E
:10677C00F2FDFF214FF4FA70FDF7F9FF4FF4FA70B8
:10678C0000F064FFFF214FF4FA70FDF7FCFF4FF4AB
:10679C00FA7000F05BFFFF214FF4FA70FDF7FFFF7A
:1067AC0002F0EEF81C4901F0D6FD4FF4A571FA2069
:1067BC00FEF71EFDFEF7BCFAFFF728FB174B184936
:1067CC001888002200924FF0FF3301F063FB02F0B7
:1067DC00D7F8144B14491A68FFF7B0FF02F0D0F841
:1067EC00124A917813780191527800920121104A43
:1067FC0001F0DBFDFEF71AF800F05AFC0D4B00F52A
:10680C009C500830186003B05DF804FB70A00D00BC
:10681C0096A00D00A6A00D00B29F0D0080C803200D
:10682C00D9400D0074D30320B6A00D0086D30320ED
:10683C00C4A00D00F8D9032010B502F0A1F80F493F
:10684C00FEF774FD0E4B0F490F4800221A700722F9
:10685C0002F0D7FC044650B902F092F80B49FEF74F
:10686C0065FD0B4B1C70BDE81040FFF76DBF02F0CF
:10687C0087F80849FEF75AFD10BD00BF1DA10D0099
:10688C0076C9032068990D00D4C903203AA10D00E4
:10689C003AD7032063A10D0030B5144B85B001220B
:1068AC000C461A70054600F003FC114B00F59C4099
:1068BC002030186002F064F822460E49FFF73EFFC4
:1068CC002846FEF747F902F05BF80B4901F043FD4F
:1068DC000A49684601F018FE21466846FEF70CF896
:1068EC00684601F0CAFD05B030BD00BFF0C90320F9
:1068FC00D8D9032094A10D003BD70320B2A10D00E1
:10690C0010B502F03DF8094901F025FD084B0020B7
:10691C00EC2202FB00310C7924B10431BDE81040AB
:10692C00FFF7BABF01300428F3D110BDBEA10D0092
:10693C0086D3032010B58368182B11D10A4C192269
:10694C002146002301F089FE0023237602F018F87B
:10695C0022460649FFF7F2FEFEF738F8012010BD7B
:10696C004FF0FF3010BD00BFDCD90320DDA10D00BE
:10697C0070B500F09DFB124B1A6882421D461AD866
:10698C00104A0023EC2101FB032634794CB10E4B49
:10699C001C7894B101F0F4FF321D0C49FFF7CEFEC8
:1069AC000CE00133042BEED100F082FB00F56A40C1
:1069BC006030286002E0002400E00124204670BD15
:1069CC00C8C9032086D3032075CA0320FBA10D0080
:1069DC0038B51E4B1A78D2B11D4C257855B101F043
:1069EC00CFFF1C4901F0B7FC00232370BDE83840F1
:1069FC00FEF730BA184C23783BB301F0C1FF1749AE
:106A0C0001F0A9FC2570BDE83840FEF75FBA144BC5
:106A1C00197821B11A70BDE83840FFF729BE114B27
:106A2C001B785BB100F044FB0F4B1B6898420CD9F0
:106A3C0001F0A6FF0D4901F08EFC02E0FFF798FF74
:106A4C0018B1BDE83840FFF75BBF38BD77C90320EC
:106A5C00D1D9032017A20D009EC9032027A20D0037
:106A6C00F5D90320F0C90320D8D9032036A20D0094
:106A7C0038B507220D490E4802F0C3FB054668B92C
:106A8C000C4C01F07DFF22680B49FFF757FE0B4BB6
:106A9C0020681D70BDE83840FDF7D6BF01F070FFCF
:106AAC000749BDE8384001F056BC00BF68990D009D
:106ABC00D4C9032070CA032052A20D00F0C90320D0
:106ACC008AA20D001C4B1D491D48002270B51A707E
:106ADC00072202F096FB1B4C1B4DB0FA80F04009CC
:106AEC00207001F04DFF23781849002B14BF592258
:106AFC004E22FEF783FD2678AEB12868FDF7ACFE7A
:106B0C00064648B1124B01221A7001F039FF2A686F
:106B1C001049FFF713FE70BD01F032FF0E4901F072
:106B2C001AFC267005E001F02BFF2A680B49FFF7D1
:106B3C0005FE0B4B1E7070BD9DC9032068990D009E
:106B4C00D4C903204CD3032070CA03209EA20D008D
:106B5C00F5D90320B6A20D00E2A20D00FEA20D0095
:106B6C0045CA032030B53A4B3A4800221A7085B01A
:106B7C007C232021FDF784FF7C230246102136481C
:106B8C00FDF77EFF354A364B111819601C4640F64E
:106B9C00C313984208DC115C232903D12F4B00222C
:106BAC001A5401E00130F4E701F0EAFE05462B48E7
:106BBC0002F01FFB23680293264C274B0193012103
:106BCC0003460094274A284601F0EFFB264920464D
:106BDC0002F0E1FA40B101F0D3FE0094224B234ABB
:106BEC00012101F0E2FB31E02149204602F0D3FA09
:106BFC0020B905B0BDE83040FFF71EBE1D49204648
:106C0C0002F0C9FA20B905B0BDE83040FFF75ABF11
:106C1C001949204602F0BFFA20B905B0BDE8304052
:106C2C00FEF7C4B81549204602F0B5FA20B905B0F4
:106C3C00BDE83040FEF7E4B81149204602F0ABFA4B
:106C4C0020B905B0BDE83040FFF712BF05B030BD2C
:106C5C0084D303209FC90320D4C90320FCD903206B
:106C6C0070CA032014A30D00B0D9032049A30D0052
:106C7C00439A0D00DF980D00DE990D00B5990D00BB
:106C8C00B2A10D007FB54B4E4B4C01F079FE036861
:106C9C001B69984740B301F073FE03685B69984722
:106CAC002368F05401F06CFE03681B699847236855
:106CBC00054638B10133282193FBF1F201FB123365
:106CCC002360E2E7F05401F05BFE3A4901F043FB2C
:106CDC0038492560684601F017FC6846FEF700FE4F
:106CEC00684601F0CAFBD0E7344B1B7813B1FFF7B1
:106CFC0039FF5DE0324B1C7814B1FEF73DFA30E001
:106D0C00FFF7CEF8FFF764FE2E4B1A784AB31C70CF
:106D1C002D4D2E4EFEF73CFB2C462B68002B17DD21
:106D2C0001F02EFE32682A49FEF704FB294B196844
:106D3C00294B00221868FFF7D5FA284B186818B1B0
:106D4C004FF47A71FDF710FC2368013B2360E4E7F4
:106D5C00FDF74CFC6FF000412148FDF793FAFDF76D
:106D6C0065FD204B1A682AB100221A60FEF74AFB17
:106D7C00FEF7E6FA1C4B1C781CB1002201211B48C3
:106D8C0014E01B4B1B4D1B6AB3F5B47F06DA00F005
:106D9C008FF900F59C500830286009E000F088F964
:106DAC002B68984204D914482246012100F028FB94
:106DBC0004B070BD47CA0320C0E3032084D3032072
:106DCC003AD7032044CA0320CCC90320D4D90320CA
:106DDC0073A30D0048D30320ACD90320D0C90320E2
:106DEC0054C9032000CA032045CA032058D30320EA
:106DFC0010C90320F4C9032080C903202DE9F043F6
:106E0C005A4B5B4F5B4EDFF8B09101241C705A4B10
:106E1C0087B002251D7000F073F9282300932B46D0
:106E2C00564D019422464FF47F01384601F0D2F8BA
:106E3C0032462946384601F0D3FF00221421204661
:106E4C0000F010FB4E4F01944FF01E080346CDF896
:106E5C00008022464FF47F01384601F0BBF83246E1
:106E6C002946384601F0BCFF00221421204600F0D0
:106E7C00F9FA444FCDF800800346224601944FF4B2
:106E8C007F41384601F0A6F83246294638463E4D39
:106E9C003E4FDFF8288101F0A3FF3D4B029302AA7D
:106EAC00002341F2883128460497CDF81490FDF761
:106EBC00B7F902A8FDF7A6F932464146284601F07B
:106ECC008FFF344A344B12681A60344A04971268A4
:106EDC005A604FF448721A614FF4B97200254FF49E
:106EEC007A715A622E4F99636422DD601D725D6166
:106EFC009D61DA621C635C63DC631C64294B029346
:106F0C0002AA2B463846CDF81490FDF789F902A851
:106F1C00FDF778F93846244F3246414601F060FFC0
:106F2C002249384601F0F0FA32462149384601F040
:106F3C0057FF204B0E225A702946FF220D26204661
:106F4C001E709A7000F076FA01F006FE2B462A4667
:106F5C0042F6A23101F008FE01F0FEFD2B462A4656
:106F6C00314601F009FE07B0BDE8F083C0C903202B
:106F7C0024CA03200CC9032078C9032095410D00B5
:106F8C0054D303207CC9032054C90320E9400D00CD
:106F9C00B5400D0068C8032010C9032088C8032021
:106FAC0008CA0320C1400D0074D3032058A50D005E
:106FBC0087840D0086D30320E5400D00B1420D00FF
:106FCC0008B5024B1B689B68019308BD480203007F
:106FDC0008B5024B1B68DB68019308BD480203002F
:106FEC0008B5024B1B681B69019308BD48020300DE
:106FFC0008B5024B1B685B69019308BD480203008E
:10700C0008B5024B1B68DB69019308BD48020300FD
:10701C0008B5024B1B681B6A019308BD48020300AC
:10702C0008B5024B1B685B6A019308BD480203005C
:10703C0008B5024B1B689B6A019308BD480203000C
:10704C0008B5024B1B68DB6A019308BD48020300BC
:10705C0008B5024B1B685B6C019308BD480203002A
:10706C0008B5024B1B689B6C019308BD48020300DA
:10707C0008B5024B1B681B6F019308BD4802030047
:10708C0008B5024B1B689B6E019308BD34020300CC
:10709C0008B5024B1B685B68019308BD180203001E
:1070AC0008B5024B1B68DB68019308BD180203008E
:1070BC0008B5024B1B685B69019308BD18020300FD
:1070CC0008B5024B1B689B6A019308BD18020300AC
:1070DC0008B5024B1B685B6C019308BD18020300DA
:1070EC0008B5024B1B689B6C019308BD180203008A
:1070FC0008B5024B1B68DB6C019308BD180203003A
:10710C0008B5024B1B681B68019308BD2C020300D9
:10711C0008B5024B1B685B68019308BD2C02030089
:10712C0008B5024B1B689B68019308BD2C02030039
:10713C0008B5024B1B68DB68019308BD2C020300E9
:10714C0008B5024B1B681B69019308BD2C02030098
:10715C0008B5024B1B685B69019308BD2C02030048
:10716C0008B5024B1B689B69019308BD2C020300F8
:10717C0008B5024B1B68DB69019308BD2C020300A8
:10718C0008B5024B1B689B6A019308BD2C020300D7
:10719C0008B5024B1B681B6B019308BD2C02030046
:1071AC0008B5024B1B689B6F019308BD2C020300B2
:1071BC0008B5024B1B68DB6F019308BD2C02030062
:1071CC0008B5024B1B681B68019308BD280203001D
:1071DC0008B5024B1B68DB68019308BD280203004D
:1071EC0008B5024B1B681B69019308BD28020300FC
:1071FC0008B5024B1B689B69019308BD280203006C
:10720C0008B5024B1B68DB69019308BD280203001B
:10721C0008B5024B1B681B6A019308BD28020300CA
:10722C0008B5024B1B685B6A019308BD280203007A
:10723C0008B5024B1B689B6A019308BD280203002A
:10724C0008B5024B1B68DB6A019308BD28020300DA
:10725C0008B5024B1B681B6B019308BD2802030089
:10726C0008B5024B1B685B6B019308BD2802030039
:10727C0008B5024B1B681B6C019308BD2802030068
:10728C0008B5024B1B681B6D019308BD2802030057
:10729C0008B5024B1B685B69019308BD64020300CF
:1072AC0008B5024B1B689B68019308BD680203007C
:1072BC0008B5024B1B68DB68019308BD680203002C
:1072CC0008B5024B1B681B68019308BD2402030020
:1072DC0008B5024B1B68DB69019308BD3002030043
:1072EC0008B5024B1B681B6A019308BD30020300F2
:1072FC0008B5024B1B681B68019308BD3C020300D8
:10730C0008B5024B1B689B68019308BD3C02030047
:10731C0008B5024B1B68DB68019308BD3C020300F7
:10732C0008B5024B1B681B69019308BD3C020300A6
:10733C0008B5024B1B685B69019308BD3C02030056
:10734C0008B5024B1B689B69019308BD3C02030006
:10735C0008B5024B1B68DB69019308BD3C020300B6
:10736C0008B5024B1B681B6A019308BD3C02030065
:10737C0008B5024B1B689B6A019308BD3C020300D5
:10738C0008B5024B1B68DB6A019308BD3C02030085
:10739C0008B5024B1B681B68019308BD4C02030027
:1073AC0008B5024B1B685B68019308BD4C020300D7
:1073BC0008B5024B1B681B69019308BD4C02030006
:1073CC0008B5024B1B685B69019308BD4C020300B6
:1073DC0008B5024B1B689B69019308BD4C02030066
:1073EC0008B5024B1B68DB69019308BD4C02030016
:1073FC0008B5024B1B681B6A019308BD4C020300C5
:10740C0008B5034B1B68D3F88030019308BD00000E
:10741C006002030008B5024B1B685B68019308BD52
:10742C002002030008B5024B1B685B69019308BD81
:10743C002002030008B5024B1B68DB6A019308BDF0
:10744C002002030008B5024B1B68DB6C019308BDDE
:10745C002002030008B5024B1B685B6D019308BD4D
:10746C002002030008B5024B1B68DB6F019308BDBB
:10747C002002030008B5034B1B68D3F88830019336
:10748C0008BD00002002030008B5034B1B68D3F8AD
:10749C009430019308BD00002002030008B5024B94
:1074AC001B681B68019308BD4402030008B5024B1E
:1074BC001B685B68019308BD4402030008B5024BCE
:1074CC001B689B68019308BD4402030008B5024B7E
:1074DC001B68DB68019308BD4402030008B5024B2E
:1074EC001B681B69019308BD4402030008B5024BDD
:1074FC001B685B69019308BD4402030008B5024B8D
:10750C001B68DB69019308BD4402030008B5024BFC
:10751C001B681B6A019308BD4402030008B5024BAB
:10752C001B685B6A019308BD4402030008B5024B5B
:10753C001B68DB6B019308BD4402030008B5024BCA
:10754C001B685B68019308BD4002030008B5024B41
:10755C001B689B68019308BD4002030008B5024BF1
:10756C001B68DB68019308BD4002030008B5024BA1
:10757C001B681B69019308BD4002030008B5024B50
:10758C001B685B69019308BD4002030008B5024B00
:10759C001B689B69019308BD4002030008B5024BB0
:1075AC001B68DB69019308BD4002030008B5024B60
:1075BC001B681B6A019308BD4002030008B5024B0F
:1075CC001B681B6B019308BD4002030008B5024BFE
:1075DC001B685B6B019308BD4002030008B5024BAE
:1075EC001B681B68019308BD1C02030008B5024B05
:1075FC001B685B68019308BD1C02030008B5024BB5
:10760C001B689B68019308BD1C02030008B5024B64
:10761C001B68DB68019308BD1C02030008B5024B14
:10762C001B685B6A019308BD1C02030008B5024B82
:10763C001B68DB6A019308BD1C02030008B5024BF2
:10764C001B681B6B019308BD1C0203000021FFF794
:10765C00E9BE10B5836804460BB901F0E2FBC368C0
:10766C009847A3681BB10322214620469847204621
:10767C001021BDE8104001F0B8BB10B504460068FD
:10768C0008B1FFF7EDFC204610BD10B503680446A9
:10769C009B689847A368013BA3602BB923682046DD
:1076AC00DB68BDE81040184710BD0B68036013B1D0
:1076BC005A6801325A60704710B50446006828B108
:1076CC004368013B43600BB9FFF7DFFF204610BD59
:1076DC0010B5064C002320462360FFF7B9FC20466A
:1076EC00034A0449BDE8104001F07ABBC4E303200F
:1076FC000CC9032087760D0070470020704710B529
:10770C001021044601F071FB204610BD08B508B1EC
:10771C00FFF7F5FF08BD0022026010B54FF69C7212
:10772C008280B1F9044084808A8002680C6804600D
:10773C000A6010BD10B504460068FFF757FF2046DD
:10774C0010BD38B5C468F4B12378022B03D104F111
:10775C000C00FFF7EFFF656835B12846FCF752FDCA
:10776C001021284601F041FBA56835B12846FCF7ED
:10777C0049FD1021284601F038FB20461421BDE8B4
:10778C00384001F032BB38BD10B588B004466846AD
:10779C0000F0BAFE694604A800F0F5FE04A8A04764
:1077AC00044604A800F069FE684600F066FE204618
:1077BC0008B010BDF0B5102485B007460E4615462E
:1077CC0000212246684601F098FC002269461046CA
:1077DC00ADF80040029703960195FFF767FE05B0E0
:1077EC00F0BD13B5044691E8050000234B600B6017
:1077FC002060626001A801930093FFF75DFF2046B3
:10780C0002B010BDF7B50C4602AD54F8043B45F878
:10781C00083D06460F4601A82146FFF746FF2946BC
:10782C003046FFF7DEFF01A8FFF746FF2046FFF7C3
:10783C0043FF3846082101F0D8FA304603B0F0BDBA
:10784C0013B50B46044603C88DE8030093E8030008
:10785C0084E803009DE8030083E8030002B010BD38
:10786C0038B500230446036010200D46FCF70DFCD0
:10787C0028B1012343608360024B0360C560206024
:10788C00204638BD38A40D00826810B50AB901F045
:10789C00C8FAC368BDE81040184708B5006800F185
:1078AC001001FFF7F1FF08BD826810B50AB901F0AD
:1078BC00B8FAC368BDE81040184708B5006800F175
:1078CC001001FFF7F1FF08BD38B5002383608B680A
:1078DC0004460D462BB102229847EB68E360AB6877
:1078EC00A360204638BD0000F0B589B00468684636
:1078FC00FFF711FF00238DF808304FF00202D4E897
:10790C004F3F002B03D1C4E8412F0029F7D102D0FF
:10791C008DF8083063E014F10C0503D06946284655
:10792C00FFF7F9FEBFF35F8F01236370002004F1B2
:10793C000803BFF35F8F53E8006F43E80002002A8F
:10794C00F9D1BFF35F8F002E49D0FFF77BFD20B13B
:10795C0029463046FFF798FF3AE0314602A8FFF778
:10796C00B3FFE068B4F9105008B101F027FC0690A1
:10797C001020ADF81C50FCF788FB0546E8B1002739
:10798C0087601820FCF781FB044688B101468760AC
:10799C0002A8FFF755FF049BA268A360059B049205
:1079AC0006A9E268E36004F110000592FFF7B3FE4C
:1079BC000D4BEB600D4B2C60AB6006A8FFF7BAFECD
:1079CC0002A8FCF71FFC002229460948FFF742FDDC
:1079DC003046FCF717FC1021304601F006FA6846D9
:1079EC00FFF7A8FE09B0F0BDA7780D001D7B0D00B8
:1079FC005F760D002DE9F04F8BB006460F46904692
:107A0C0099469DF850A0FFF771FD07AD834630BB3A
:107A1C004FF62E73059005A92846ADF81830FFF7E0
:107A2C007AFE1420FCF731FB044658B10223037094
:107A3C0001234370C0F804B0C0F808B029460C30DC
:107A4C00FFF769FE3046214640F8044BFFF708FF6C
:107A5C002846FFF76FFE05A8FFF76CFE52E00024E6
:107A6C000C2314206C60AC600793FCF70EFB0146F2
:107A7C0018B1047044704460846004A80391FFF74B
:107A8C00EFFE224B08930820FCF7FFFA044628B1BE
:107A9C00039B40F8043B04A9FFF707FE00955FFA2F
:107AAC008AF34A46414638460994FFF72FFD20B920
:107ABC00039B5B7803F0FF0283B1039B059304A93E
:107ACC0006A8FFF7F2FD05A93046FFF78AFE06A8C7
:107ADC00FFF7F2FD04A8FFF7EFFD13E04FF69C73E0
:107AEC0005A903A80592ADF81830FFF7FDFE05A80F
:107AFC00FFF720FE05A80999FFF784FE06A8FFF7FB
:107B0C00DBFDDAE730460BB0BDE8F08F8D7C0D0065
:107B1C00022AF8B5044606D0032A17D0012A22D12E
:107B2C000B6803601FE018200E68FCF7AEFA0546E0
:107B3C0050B13146FFF7C8FE3069B6F9147008B180
:107B4C0001F03CFB2861AF8225600CE0046854B165
:107B5C0004F11000FFF7EEFD2046FCF753FB182153
:107B6C00204601F042F90020F8BD38B500238360AF
:107B7C008B6804460D462BB102229847EB68E360F4
:107B8C00AB68A360204638BD022A70B5044606D007
:107B9C00032A11D0012A18D10B68036015E01420B8
:107BAC000E68FCF772FA054620B13146FFF7DDFF8F
:107BBC00337C2B74256008E0046834B12046FCF754
:107BCC0021FB1421204601F010F9002070BD0000AB
:107BDC00F0B5002387B00C46BFF35F8F50E8006F01
:107BEC0040E80032002AF9D1BFF35F8F002E3FD05E
:107BFC001846FFF727FC074620B121463046FFF711
:107C0C0053FE2EE0314601A8FFF7AFFF23788DF825
:107C1C0014301020FCF739FA0546D0B187601420D7
:107C2C00FCF733FA044678B18760014601A8FFF7E8
:107C3C0007FE039BA268A360049B0392E268E360C7
:107C4C009DF81430049223740A4BEB600A4B2C60A1
:107C5C00AB6001A8FCF7D6FA002229460748FFF7CB
:107C6C00F9FB3046FCF7CEFA1021304601F0BDF896
:107C7C0007B0F0BDC7780D00957B0D005F760D0049
:107C8C0030B585B004460D4668461146FFF7BAFD7F
:107C9C007CB124B228460DB101F090FA029002A9F1
:107CAC006846ADF80C40FFF71FFE02A8FFF742FD37
:107CBC001DE000988DF808404FF00102D0E84F3FCE
:107CCC00A34203D1C0E8412F0029F7D102D08DF88F
:107CDC0008300CE010F10C014FF0010318BF0373D6
:107CEC00BFF35F8F043000F8033CFFF771FF01A86E
:107CFC00FFF7E2FC05B030BD002211464068FFF7EB
:107D0C0055BC002211464068FFF760BC0022406859
:107D1C00FFF754BC002281F001014068FFF73EBC24
:107D2C0000231A4619464068FFF730BC00231A4658
:107D3C0019464068FFF722BC002211464068FFF745
:107D4C0015BC002211464068FFF700BC002202213E
:107D5C004068FFF703BC00231A464068FFF7EEBBF0
:107D6C00024B03225A60024A1A607047C8E3032090
:107D7C0054A40D007047F8B5064615460C468F18EE
:107D8C00BC4206D0336814F8011B9B6830469847F8
:107D9C00F6E72846F8BD0022007CFFF739BA00212F
:107DAC00007CFFF73DBA0021007CFFF741BA0021AF
:107DBC00007CFFF745BA0021007CFFF749BA10B5EB
:107DCC001421044601F011F8204610BD10B50446EC
:107DDC00002363604FF47A73A360044B217408464C
:107DEC0023601146FFF744FA204610BD88A40D000D
:107DFC000022007CFFF7E4B900231A461946007CE8
:107E0C00FFF7E6B90021007CFFF7EAB970B50C4624
:107E1C0086B0142506462A46002101A801F06DF90A
:107E2C0023788DF8083063680393E3680493002289
:107E3C00237A307CADF8045001A90593FFF720FAA2
:107E4C0006B070BD1FB500338DF800104FF0640103
:107E5C00039118BF0123694601928DF80830FFF792
:107E6C00D5FF05B05DF804FB0123FFF7EBBF002243
:107E7C00007CFFF7BDB9C9B2FFF7F9BF0022007C47
:107E8C00FFF7BEB90121FFF7F9BF0021007CFFF716
:107E9C00E7B90047F0B585B01C460E4617460546B7
:107EAC00FFF766F9002084424FF0040303908DF82D
:107EBC000C30A5BF9DF828308DF80E30034603AB6F
:107ECC00009332463B460649A8BF8DF80D40284624
:107EDC00FFF746F9B0FA80F0400905B0F0BD00BFDD
:107EEC009F7E0D00704710B51821044600F07DFFF1
:107EFC00204610BDF0B5037D062B8DB00E4600F16B
:107F0C0004074FF0000402D000F1080518E00CAD96
:107F1C00394605F8304D2F232A460A20FFF7B8F9C9
:107F2C00284601F066F933680246DB68294630467C
:107F3C0098470FE024B12E21304600F0FDF904449F
:107F4C0015F8011D0A22304600F00FFABD42044418
:107F5C00F0D120460DB0F0BD10B5054B04461122F2
:107F6C0040F8043B002101F0C8F8204610BD00BFCA
:107F7C00B0A40D000346074A10B543F8042B01F1D9
:107F8C00100251F8044B43F8044B9142F9D10A7892
:107F9C001A7010BDB0A40D0010B59DF8084044EA4D
:107FAC00032343EA024242EA016104234160037560
:107FBC0010BD37B50D788B784A78C9780091294671
:107FCC00FFF7EAFF03B030BD0A680B469268014622
:107FDC001846104770B50E4C04601C2444609DF884
:107FEC0014409DF8106004F0030444EA8604002554
:107FFC00E4B20474427485744161427C85600F2A3A
:10800C0008BF044BC56006BF8361C061038370BDAC
:10801C00B0930D00D57F0D00014B024A1A607047DA
:10802C00D0E3032027A50D00002211464068FFF77E
:10803C00BDBA002211464068FFF7C8BA002240685A
:10804C00FFF7BCBA002281F001014068FFF7A6BA25
:10805C0000231A4601214068FFF798BA00231A46FC
:10806C0019464068FFF78ABA002211464068FFF7AC
:10807C007DBA002211464068FFF768BA002202213F
:10808C004068FFF76BBA00231A464068FFF756BAF0
:10809C0038B5054688B104684CB1A3681BB10322FE
:1080AC002146204698471021204600F09EFE284687
:1080BC001421BDE8384000F098BE38BD10B10368FB
:1080CC005B681847704710B503680446BBB1586825
:1080DC00FEF776FF78B923685A7C12B95868FEF718
:1080EC007FFF23685868FEF783FF20680023236016
:1080FC0028B1FFF7CDFF206808B1FFF7C9FF204674
:10810C0010BD38B50446D0F8C40108B1FBF7C1FF67
:10811C00D4F8C00108B1FEF7A3FFD4F8BC5135B1B7
:10812C002846FFF7D0FF0421284600F05EFE2068A9
:10813C0008B1FFF7C3FF204638BD000010B5044B53
:10814C00044640F8083BFFF7DCFF204610BD00BF9B
:10815C0098A50D0038B50E4C0E4B2360002502235C
:10816C0004F5E4706360A560C4F8C451C4F8C85148
:10817C00FEF76EFF084BC4F8CC5184F8D051236045
:10818C002046064A0649BDE8384000F029BE00BF2B
:10819C00D4E30320CCA50D0098A50D000CC9032039
:1081AC0049810D0000231A464068FFF7C7B9002229
:1081BC0002214068FFF7D2B9002211464068FFF750
:1081CC00C5B9002211464068FFF7D0B900231A4602
:1081DC0019464068FFF7D2B900231A461946406881
:1081EC00FFF7D4B9002281F001014068FFF7D6B93E
:1081FC0000224068FFF7E2B9002211464068FFF701
:10820C00E5B9002211464068FFF7D0B92DE9F043DB
:10821C00002495B016460D460746FFF79DFE2146F5
:10822C0020220CA8009400F068FF40230C932146F8
:10823C006B460CAA3046FFF73BF80446002844D1A5
:10824C00024601216868FFF791F902218046224617
:10825C006868FFF78BF9009E81462146002E34D0CA
:10826C00002932D17368022B02D00A2B09D02AE0E4
:10827C00B8F1000F27D0716938460431FFF799FE29
:10828C0020E0B9F1000F1ED07469112201A800F092
:10829C0034FF06238DF8143001AD04F108031834B3
:1082AC00186859682A4603C20833A3421546F7D109
:1082BC0001A906A807ADFFF75DFE0FCD3C1D0FC44D
:1082CC002B6823700121F669C8E70098FEF7E8FFD8
:1082DC00384615B0BDE8F083024B034A1A60002201
:1082EC005A607047A8E50320CCA50D00F8B50646EA
:1082FC000D468F180024BD420CD0336815F8011BB5
:10830C009B6830469847002801DB0444F3E7002CB7
:10831C0008BF04462046F8BD70B505460C46084615
:10832C0049B100F066FF2B68024621462846DB68FF
:10833C00BDE87040184770BD03689B68184738B596
:10834C000D210546FFF7F8FF0A2104462846FFF7E2
:10835C00F3FF204438BD38B50546FFF7DDFF044672
:10836C002846FFF7ECFF204438BD30B58BB00B46E8
:10837C0000218DF82410012A98BF0A220DF1230444
:10838C00B3FBF2F505FB123303F0FF03092B94BF8B
:10839C0030333733DBB2214604F801392B46002D3C
:1083AC00EED1FFF7B9FF0BB030BD0CB42DE9F043A3
:1083BC0087B000AF07F13804054654F8049B3C60C5
:1083CC000E4623464A461421381DFFF727F9132879
:1083DC0005D8391D2846FFF79FFF044613E000F12E
:1083EC00080323F00703E846ADEB030D411C2346BD
:1083FC004A4668463C60FFF711F969462846FFF784
:10840C008BFF0446C5461EB12846FFF798FF04446F
:10841C0020461C37BD46BDE8F04302B0704710B58E
:10842C000446FBF7EFFE204610BD00000348044A4B
:10843C0004490023836000F0D3BC00BFB0E50320E7
:10844C000CC903202B840D00704710B50C21044679
:10845C0000F0CBFC204610BD10B5054B0360044664
:10846C0001710846FEF734FF0023A360204610BDBF
:10847C0000A60D000079FEF733BF10B50446006866
:10848C00FFF7B4F8204610BD10B50446006808B1DB
:10849C00FFF7ACF800232360A360636010BD38B510
:1084AC0004460D4600680131FFF7A8F810B184E8C6
:1084BC002100012038BD10B50368044613B1436890
:1084CC008B4207D22046FFF7EAFF20B1A3680BB915
:1084DC0022681370012010BD70B50E46114604467B
:1084EC001546FFF7E8FF18B92046FFF7CDFF09E066
:1084FC002A463146A560206800F0F4FD2268A36886
:10850C000021D154204670BD38B5002304460360C9
:10851C004360836003730D4639B1084600F069FE71
:10852C00294602462046FFF7D7FF204638BD38B50E
:10853C00054600680C4660B16A688B689A4206D39F
:10854C00096800F032FEA368AB6000230AE0FFF775
:10855C004DF823682B6063686B60A368AB600023E5
:10856C0023606360A36038BD884210B50B46044697
:10857C0007D0096819B19A68FFF7AEFF01E0FFF761
:10858C0083FF204610BD10B50023044603604360F2
:10859C0083600373FFF7E8FF204610BD884210B5D7
:1085AC00044601D0FFF7C3FF204610BD38B5054681
:1085BC000C4641B1084600F01CFE214602462846F6
:1085CC00FFF78AFF01E0FFF75FFF284638BD13B5C0
:1085DC0000238DF80410036043608360037301A9CA
:1085EC0004468DF80530FFF7E1FF204602B010BDC0
:1085FC0070B504460E4609B9002070BD6AB1836897
:10860C00D5182946FFF757FF0028F5D02068A36836
:10861C003146184400F0C9FDA560012070BD10B5AD
:10862C008A6809680446FFF7E3FF10B92046FFF794
:10863C002BFF204610BD38B504460D4641B1084607
:10864C0000F0D7FD294602462046FFF7D1FF10B9AE
:10865C002046FFF719FF204638BD70B50E469AB17B
:10866C0091B185689D4202D800230B7070BD541ED9
:10867C00ED1A0168AC4228BF2C46194422463046FC
:10868C0000F0D4FD0023335570BD10B583689342C0
:10869C0006D90468A01800F070FD08B1001B10BDCD
:1086AC004FF0FF3010BD0000F8B59A420F461D4642
:1086BC000C4988BF13461446064684BF2C461D46FB
:1086CC00FFF722FFBA6894420AD83968954294BFE2
:1086DC00C4EB0502C4EB020221443046FFF7FCFE5A
:1086EC003046F8BD58A50D0010B504468B68FFF751
:1086FC00DBFF204610BD006808B100F0E1BC7047FC
:10870C0010B50446006818B1FEF770FF0023236013
:10871C0010BD10B50446FFF7F3FF204610BD01460F
:10872C0000228C20FEF7ACBC0020FFF7F8BF000045
:10873C0010B5094C00204FF6FF732060A080A0718B
:10874C0020816381FEF766FE2046044A0449BDE899
:10875C00104000F045BB00BFC0E503200CC903204E
:10876C001F870D00024B1A68024B1A60704700BF3E
:10877C00A0C80320CCE50320F8B585B204462846F2
:10878C000E46174600F000FA60B102212846FEF7AB
:10879C00BFFC022806D13A4631462046BDE8F840D7
:1087AC00FEF78EBDF8BD70474174704708B5007C6C
:1087BC00FEF7DEFD20EAE07008BD08B5007CFEF790
:1087CC00AFFD20EAE07008BD08B5007CFEF7B8FDEF
:1087DC0030EA200028BF4FF0FF3008BD08B5007C00
:1087EC00FEF7A6FD30EA200028BF4FF0FF3008BD91
:1087FC00007CFEF7ADBD10B51421044600F0F5FA6F
:10880C00204610BD70B5457C04460E4625B9007C4B
:10881C00FEF7AEFD002805DD3146207CBDE870403A
:10882C00FEF776BD284670BD10B5044608461146C5
:10883C00002262604FF47A72A260054A2260012223
:10884C00207462741A46FEF753FD204610BD00BF1B
:10885C003CA60D000023007CFEF792BD0022FFF722
:10886C00F9BF007CFEF74CBD007CFEF779BD000023
:10887C0038B50C4D296811F0010411D12846FBF7CD
:10888C000AFC68B1084A094B09482146FFF7CCFF9E
:10889C002846FBF705FC074A0749054800F0A0FAF3
:1088AC00034838BD68E603206CE60320E4E50320AA
:1088BC00D0E503200CC90320B3870D004174704729
:1088CC00704708B50021007CFEF782FD30EA2000DD
:1088DC0028BF4FF0FF3008BD08B50121007CFEF722
:1088EC0077FD30EA200028BF4FF0FF3008BD08B5F7
:1088FC00007CFEF765FD20EAE07008BD08B5007C41
:10890C00FEF756FD20EAE07008BD007CFEF770BD56
:10891C0010B51421044600F068FA204610BD38B595
:10892C000446007C0D46FEF74BFD002801DC607C04
:10893C0028B12946207CFEF753FD20EAE07038BDB3
:10894C0010B50446002363604FF47A73A360054BA3
:10895C00236001230846217463741146FEF718FD49
:10896C00204610BD6CA60D000022007CFEF718BD41
:10897C0010B514220446002100F0BFFB204610BDA8
:10898C0030B50E4D87B001A8FFF7F2FF296811F042
:10899C00010410D12846FBF77EFB60B101AA2146E9
:1089AC000748FFF7CDFF2846FBF77AFB054A064937
:1089BC00034800F015FA024807B030BDF0E603207A
:1089CC00F4E603200CC90320CD880D0000221146CB
:1089DC004068FEF7CBBD002211464068FEF7E6BDAD
:1089EC00002211464068FEF7F1BD00224068FEF7F8
:1089FC00E5BD002281F001014068FEF7CFBD0023E8
:108A0C001A4619464068FEF7C1BD00231A4619469E
:108A1C004068FEF7B3BD002211464068FEF796BDD4
:108A2C00002202214068FEF799BD00231A464068D7
:108A3C00FEF784BD024B04225A60024A1A6070474A
:108A4C0008E703209CA60D0008B50C4B33B1FFF7CB
:108A5C0097FF03681B699847002809DC084B63B132
:108A6C00FFF706FF03681B699847002803DC08BD65
:108A7C00AFF30080F2E7AFF3008008BD0000000008
:108A8C000000000008B5FFF7DFFFFEF711FB014BFC
:108A9C00186008BD18E703200248034A0349121A5C
:108AAC0000F020BB00F4032004F4032070A80D0098
:108ABC0007B5002300931A466FF07701FEF7E4FC2C
:108ACC0003B05DF804FB000007B543880A2B08D0FF
:108ADC00502B09D1094B1B683BB103B05DF804EB7B
:108AEC001847FFF7E5FF06E0002300931A466FF0E6
:108AFC007701FEF7C9FC03B05DF804FB10E7032017
:108B0C0038B5104C104D2368AB42104B0CBF0122F2
:108B1C0000221A7002D0FFF7BFFF2560FEF7B8FAEB
:108B2C00044600F0F3FA0A4B13B12046AFF3008071
:108B3C0000210748FEF7FAFC00210648BDE8384042
:108B4C00FEF798BC00F403201E1C279A14E70320A0
:108B5C0000000000D58A0D0008B5024B1B681B688D
:108B6C00019308BD5C02030008B5024B1B685B68EF
:108B7C00019308BD5C02030008B5024B1B689B689F
:108B8C00019308BD5C02030010B5044600F008F91F
:108B9C00FFF770FC28B1A4F10B03022B01D80020C5
:108BAC0010BD00F0D7F8FFF770F908B1012CF6D919
:108BBC00FFF75EFEFFF758FE18B1A4F10903012B75
:108BCC00EDD9232C8CBF0020012010BD232838B5F3
:108BDC0004460D460AD8FF2908D0FFF7D5FF28B167
:108BEC0029462046BDE83840FEF79ABA38BD38B55C
:108BFC0004460D46FEF79CFAFF2810D0062804D830
:108C0C004D2323FA00F0C30709D42046FFF7BCFF1D
:108C1C0028B129462046BDE83840FEF791BA38BD48
:108C2C0010B50446FEF784FA0438C0B2012808D9FE
:108C3C002046FFF7A9FF20B12046BDE81040FEF703
:108C4C0087BA002010BD0D2810B504469CBF0E3409
:108C5C00A4B22046FFF798FF50B103212046FEF73F
:108C6C0057FA032804D12046BDE81040FEF790BA0D
:108C7C00002010BD38B504460D46FFF785FFF0B156
:108C8C0004212046FEF744FA042805D1A9B2204657
:108C9C00BDE83840FEF774BA02212046FEF738FAD8
:108CAC0002280CD12046FEF743FA012801D00428F3
:108CBC0005D129462046BDE83840FEF771BA38BDCB
:108CCC0070B504460D461646FFF75EFF98B10221BB
:108CDC002046FEF71DFA02280DD12046FEF728FA91
:108CEC00012801D0042806D1324629462046BDE889
:108CFC007040FEF75DBA70BD10B5074C2368DB07FA
:108D0C0008D42046FBF7C7F920B1FEF7D9F9204665
:108D1C00FBF7C6F9014810BD1CE7032020E7032030
:108D2C0070B5044614252A46094E002100F0E5F9D9
:108D3C00258020253146A5602561284600F06FF876
:108D4C0031466060284600F06AF8E060204670BD4D
:108D5C00C8A60D0030B50E4D296811F0010487B07E
:108D6C0013D12846FBF797F978B101A8FFF7D8FF84
:108D7C0001AA21460748FFF729F82846FBF790F986
:108D8C00054A0649034800F02BF8024807B030BDED
:108D9C0024E7032028E703200CC90320817D0D0064
:108DAC0038B50B4D296811F001040FD12846FBF79B
:108DBC0072F958B121460748FFF74EFB2846FBF7DE
:108DCC006FF9054A0549034800F00AF8014838BD17
:108DDC0048E703203CE703200CC9032055840D0011
:108DEC000B460146184600F06FB9FBF750B900006E
:108DFC00024B1868BFF35F8F704700BF4CE703202E
:108E0C0010B5002814BF044601242046FEF7E6FBEB
:108E1C0020B9FFF7EDFF08B18047F6E710BDFFF76B
:108E2C00EFBF08B5FEF702FC244B1A68D0075CBFF5
:108E3C0001221A60224B1A68D1075CBF01221A600A
:108E4C00204B1A68D2075CBF01221A601E4B1A68AD
:108E5C00D0075CBF01221A601C4B1A68D1075CBF9B
:108E6C0001221A601A4B1A68D2075CBF01221A60E1
:108E7C00184B1A68D0075CBF01221A60164B1A688F
:108E8C00D1075CBF01221A60144B1A68D2075CBF71
:108E9C0001221A60124B1A68D0075CBF01221A60BB
:108EAC00104B1A68D1075CBF01221A600E4B1A686E
:108EBC00D2075CBF01221A60704700BF7CE7032019
:108ECC0078E7032074E7032070E703206CE70320A6
:108EDC0068E7032064E7032060E703205CE70320D6
:108EEC0058E7032054E7032050E70320184B1A6877
:108EFC00D1075CBF01221A60164B1A68D2075CBFFF
:108F0C0001221A60144B1A68D0075CBF01221A6048
:108F1C00124B1A68D1075CBF01221A60104B1A68F9
:108F2C00D2075CBF01221A600E4B1A68D0075CBFD7
:108F3C0001221A600C4B1A68D1075CBF01221A601F
:108F4C000A4B1A68D2075CBF01221A60704700BF37
:108F5C009CE7032098E7032094E7032090E7032085
:108F6C008CE7032088E7032084E7032080E70320B5
:108F7C00184B1A68D1075CBF01221A60164B1A688D
:108F8C00D2075CBF01221A60144B1A68D0075CBF71
:108F9C0001221A60124B1A68D1075CBF01221A60B9
:108FAC00104B1A68D2075CBF01221A600E4B1A686C
:108FBC00D0075CBF01221A600C4B1A68D1075CBF4A
:108FCC0001221A600A4B1A68D2075CBF01221A6090
:108FDC00704700BFBCE70320B8E70320B4E70320C9
:108FEC00B0E70320ACE70320A8E70320A4E70320A5
:108FFC00A0E70320244B1A68D0075CBF01221A603B
:10900C00224B1A68D1075CBF01221A60204B1A68E8
:10901C00D2075CBF01221A601E4B1A68D0075CBFD6
:10902C0001221A601C4B1A68D1075CBF01221A601E
:10903C001A4B1A68D2075CBF01221A60184B1A68C7
:10904C00D0075CBF01221A60164B1A68D1075CBFAF
:10905C0001221A60144B1A68D2075CBF01221A60F5
:10906C00124B1A68D0075CBF01221A60104B1A68A9
:10907C00D1075CBF01221A600E4B1A68D2075CBF85
:10908C0001221A60704700BFECE70320E8E70320D9
:10909C00E4E70320E0E70320DCE70320D8E7032024
:1090AC00D4E70320D0E70320CCE70320C8E7032054
:1090BC00C4E70320C0E703200A22002100F050B9C6
:1090CC000A22002100F04CB910B5054C13462CB106
:1090DC000A4601460220AFF3008010BD204610BDA9
:1090EC000000000010B5431E0A44914204D011F850
:1090FC00014B03F8014FF8E710BD024403469342BD
:10910C0002D003F8011BFAE77047000038B5124B88
:10911C001C68A36B0546D3B91820FEF75FFA43F21F
:10912C000E33A06303804AF6CD33438041F23423DF
:10913C0083804EF26D63C3804DF6EC63038105238F
:10914C0043810B23838101220023C0E90423A36BF9
:10915C0000221D615A6138BD08C9032010B50246B2
:10916C00134601321C78002CFAD1013B11F8012B6B
:10917C0003F8012F002AF9D110BDC9B2034610F82B
:10918C00012B1AB19142F9D11846704700290CBF36
:10919C0018460020704710F8012B11F8013B012AEA
:1091AC0028BF9A42F7D0D01A7047034611F8012B0A
:1091BC0003F8012B002AF9D170470000024B01463D
:1091CC00186800F003B800BF08C9032070B5064644
:1091DC0008460C4600F00DF8451C29463046FEF7B3
:1091EC002DFA064618B12A462146FFF77BFF30467A
:1091FC0070BD034613F8012B002AFBD1181A013855
:10920C00704730B582B1451E013915F8013F11F890
:10921C00014FA34206D1EC431444E04201D0002B91
:10922C00F3D11C46181B30BD104630BD10B503469B
:10923C0042B111F8014B03F8014B013A002CF7D164
:10924C001A4400E010BD934202D003F8014BFAE738
:10925C0010BD00002DE9F04780464048D0F8009042
:10926C000F463D4615F8014B09EB0400407800F021
:10927C00080000F0FF0608B12F46F2E72D2C03D1B1
:10928C00BD1C7C78012603E02B2C04BF7C78BD1C14
:10929C0013B1102B0AD15BE0302C57D1287800F099
:1092AC00DF0058284DD16C7810230235002E14BFE6
:1092BC004FF0004C6FF0004C0027BCFBF3FA384623
:1092CC0003FB1ACC09EB040E9EF801E01EF0040F10
:1092DC0001D0303C0BE01EF0030E1BD0BEF1010F91
:1092EC000CBF4FF0370E4FF0570ECEEB0404A342D9
:1092FC0010DDB7F1FF3F0AD0504506D801D16445C7
:10930C0003DC03FB0040012701E04FF0FF3715F8A9
:10931C00014BD7E77B1C0CD1002E4FF0220314BF5E
:10932C004FF000406FF00040C8F800302AB9BDE89B
:10933C00F08706B1404272B107B1691E1160BDE8F9
:10934C00F0873024002BB1D10823AFE70A23ADE717
:10935C00302CA3D0AAE7BDE8F08700BFA4C8032037
:10936C0013460A46014602480068FFF773BF00BF68
:10937C0008C903201D400D0059400D0085400D000B
:10938C0089400D00000000000000000000000000FB
:10939C00B1420D00F5420D004D410D0000000000E2
:1093AC000000000095410D00B1410D00B3400D00CF
:1093BC0000000000963007772C610EEEBA51099927
:1093CC0019C46D078FF46A7035A563E9A395649E83
:1093DC003288DB0EA4B8DC791EE9D5E088D9D297A7
:1093EC002B4CB609BD7CB17E072DB8E7911DBF9003
:1093FC006410B71DF220B06A4871B9F3DE41BE8427
:10940C007DD4DA1AEBE4DD6D51B5D4F4C785D38382
:10941C0056986C13C0A86B647AF962FDECC9658A26
:10942C004F5C0114D96C0663633D0FFAF50D088D82
:10943C00C8206E3B5E10694CE44160D5727167A226
:10944C00D1E4033C47D4044BFD850DD26BB50AA582
:10945C00FAA8B5356C98B242D6C9BBDB40F9BCACA6
:10946C00E36CD832755CDF45CF0DD6DC593DD1AB02
:10947C00AC30D9263A00DE518051D7C81661D0BF26
:10948C00B5F4B42123C4B3569995BACF0FA5BDB882
:10949C009EB802280888055FB2D90CC624E90BB126
:1094AC00877C6F2F114C6858AB1D61C13D2D66B682
:1094BC009041DC760671DB01BC20D2982A10D5EFE6
:1094CC008985B1711FB5B606A5E4BF9F33D4B8E842
:1094DC00A2C9077834F9000F8EA8099618980EE1E6
:1094EC00BB0D6A7F2D3D6D08976C6491015C63E642
:1094FC00F4516B6B62616C1CD83065854E0062F266
:10950C00ED95066C7BA5011BC1F4088257C40FF5C1
:10951C00C6D9B06550E9B712EAB8BE8B7C88B9FCE5
:10952C00DF1DDD62492DDA15F37CD38C654CD4FB41
:10953C005861B24DCE51B53A7400BCA3E230BBD4E5
:10954C0041A5DF4AD795D83D6DC4D1A4FBF4D6D341
:10955C006AE96943FCD96E34468867ADD0B860DAE5
:10956C00732D0444E51D03335F4C0AAAC97C0DDD41
:10957C003C710550AA41022710100BBE86200CC965
:10958C0025B56857B3856F2009D466B99FE461CEC1
:10959C000EF9DE5E98C9D9292298D0B0B4A8D7C7E5
:1095AC00173DB359810DB42E3B5CBDB7AD6CBAC041
:1095BC002083B8EDB6B3BF9A0CE2B6039AD2B1745D
:1095CC003947D5EAAF77D29D1526DB048316DC73B9
:1095DC00120B63E3843B64943E6A6D0DA85A6A7A5D
:1095EC000BCF0EE49DFF099327AE000AB19E077DB9
:1095FC0044930FF0D2A3088768F2011EFEC20669DD
:10960C005D5762F7CB67658071366C19E7066B6E38
:10961C00761BD4FEE02BD3895A7ADA10CC4ADD675C
:10962C006FDFB9F9F9EFBE8E43BEB717D58EB060B8
:10963C00E8A3D6D67E93D1A1C4C2D83852F2DF4F5C
:10964C00F167BBD16757BCA6DD06B53F4B36B248B8
:10965C00DA2B0DD84C1B0AAFF64A0336607A04415C
:10966C00C3EF60DF55DF67A8EF8E6E3179BE6946B8
:10967C008CB361CB1A8366BCA0D26F2536E26852DC
:10968C0095770CCC03470BBBB91602222F26055538
:10969C00BE3BBAC5280BBDB2925AB42B046AB35C5C
:1096AC00A7FFD7C231CFD0B58B9ED92C1DAEDE5BB8
:1096BC00B0C2649B26F263EC9CA36A750A936D029C
:1096CC00A906099C3F360EEB8567077213570005F8
:1096DC00824ABF95147AB8E2AE2BB17B381BB60C1C
:1096EC009B8ED2920DBED5E5B7EFDC7C21DFDB0B78
:1096FC00D4D2D38642E2D4F1F8B3DD686E83DA1F9C
:10970C00CD16BE815B26B9F6E177B06F7747B718F7
:10971C00E65A0888706A0FFFCA3B06665C0B01119B
:10972C00FF9E658F69AE62F8D3FF6B6145CF6C16F7
:10973C0078E20AA0EED20DD75483044EC2B303399B
:10974C00612667A7F71660D04D476949DB776E3EF7
:10975C004A6AD1AEDC5AD6D9660BDF40F03BD8371B
:10976C0053AEBCA9C59EBBDE7FCFB247E9FFB53077
:10977C001CF2BDBD8AC2BACA3093B353A6A3B4249B
:10978C000536D0BA9306D7CD2957DE54BF67D923F7
:10979C002E7A66B3B84A61C4021B685D942B6F2A9B
:1097AC0037BE0BB4A18E0CC31BDF055A8DEF022DF7
:1097BC00524553504F4E5345207C2063616C6C6274
:1097CC0061636B5F6275666665723A2025732C2047
:1097DC0063616C6C6261636B5F636F6D706C6574FD
:1097EC00653A202563004552524F52207C2063611C
:1097FC006C6C6261636B5F6275666665723A20259C
:10980C00732C2063616C6C6261636B5F636F6D7052
:10981C006C6574653A202573005374616765206C20
:10982C00696D697420737769746368206465746505
:10983C006374656400537461676520706F73697439
:10984C00696F6E206174207A65726F005374616762
:10985C00652064697374616C206C696D6974207225
:10986C006561636865640054656D706572617475DB
:10987C00726520636F6E74726F6C2073797374658C
:10988C006D207374617274656400627265766974BC
:10989C006573742D70726F64756374696F6E0050AC
:1098AC0075626C6973683A206576656E74203D202C
:1098BC0025732C2075756964203D20257300566135
:1098CC006C69646174696E67206361727472696437
:1098DC0067650076616C69646174652D636172748F
:1098EC0072696467650056616C69646174696F6E56
:1098FC00206661696C6564202D206E6F7420636F27
:10990C006E6E656374656420746F20746865206383
:10991C006C6F7564002563256325582563255825D0
:10992C0063255825632558256300252E323473256D
:10993C0063256325630025732C20256420706572D4
:10994C0063656E7420636F6D706C6574652C207428
:10995C00656D70203D2025642E25640053554343CE
:10996C0045535300546573742066696E697368655A
:10997C006400546573742066696E6973682066614F
:10998C00696C65642100546573742063616E636552
:10999C006C6C656400546573742063616E63656CF4
:1099AC00206661696C65642100746573742D636154
:1099BC006E63656C005465737420636F6D706C65B9
:1099CC00746564005465737420636F6D706C65749A
:1099DC006500746573742D66696E697368007265D1
:1099EC006769737465720072756E5F746573740069
:1099FC002F686F6F6B2D726573706F6E73652F624E
:109A0C0072657669746573742D70726F64756374A6
:109A1C00696F6E2F002F686F6F6B2D6572726F728E
:109A2C002F6272657669746573742D70726F6475CC
:109A3C006374696F6E2F0072656769737465722D3C
:109A4C00646576696365005475726E696E67206F24
:109A5C006E2062757A7A657220666F7220647572F8
:109A6C006174696F6E202564206174206672657163
:109A7C0075656E63792025640053656E642065728C
:109A8C00726F722C2025642062797465732C20729D
:109A9C006573756C743A2025640053746174757326
:109AAC00203D2025642C204F5352203D202564005E
:109ABC004D6F76696E67206D61676E657473207487
:109ACC006F20706F736974696F6E004D6F76696E7D
