:02000002D0002C
:1040000000400D008CB30D00000006000C000501FF
:084010000401DE0500000000C0
:04401800DC9B0D0020
:10401C0009480A49884208B505D0094A824202D0AB
:10402C00121A05F071FC0748074A0021121A05F014
:10403C0076FC014808BD00BF48C50320B4B20D0092
:10404C00F4C50320F4C50320F0E7032070B505F098
:10405C0069F9074C074BE41AA40800251E46A54233
:10406C0004D056F8253098470135F8E770BD00BFED
:10407C00B0B20D0078B20D0003F086B808B503F0AD
:10408C0037FABDE8084005F00FB903F0BFBE03F0E6
:10409C00C5BE03F0C3BE0078B0FA80F0400970478B
:1040AC000123037070477047014B01221A7070474F
:1040BC00D8C90320034B044A1B7883F00103136017
:1040CC00704700BF5CC6032060C60320014B012271
:1040DC001A7070472CD5032003681847012A02D0A8
:1040EC00022A02D004E0016002E00B6800B1036018
:1040FC000020704713B50C46114805F041FC2046D2
:10410C0005F08BFCB0F5007F07DB204410F8013C78
:10411C00A3F122025342534100E00123094C2370C6
:10412C0005F040F82378084A002B14BF59234E237E
:10413C0000930121024B04F050FD02B010BD00BFF2
:10414C00FCD9032059D2032018A00D00436913B1E8
:10415C0083690C301847704713B500210446084694
:10416C0003F046FB02A90023204641F8043D03F06E
:10417C0057FB019C0CB1012323710021012003F09A
:10418C0037FB2CB1236820469B689847002323718A
:10419C0002B010BD10B5054B00220446114640F884
:1041AC00043B03F02DFD204610BD00BF0C9C0D0000
:1041BC0010B50446FFF7EEFF2046202105F027FA44
:1041CC00204610BD37B50C4605460F4805F0D8FB08
:1041DC00204605F022FCB0F5007F07DB204410F8E8
:1041EC00013CA3F122025342534100E00123074A50
:1041FC00137004F0D7FF00942B46054A012104F0FC
:10420C00ECFC03B030BD00BFFCD9032059D2032015
:10421C0043A00D0010B58368044613B10322014678
:10422C009847204610BD000008B503F031FB034B46
:10423C001860BDE8084003F051BD00BF18E703202B
:10424C000368C9B29B681847F0B500258E4615491E
:10425C000571856045610160044692E8030085B0F4
:10426C0002AF04F10C0687E8030096E8030082E82D
:10427C00030097E8030086E803009168606990608A
:10428C006161D168A069D060A1618DE82800064AFF
:10429C002346714604F1080003F0B2FA204605B03B
:1042AC00F0BD00BFF89B0D0065410D0007B580689F
:1042BC00002340B18DE80A001A46022103F0B8FA37
:1042CC00B0FA80F0400903B05DF804FB38B50F4B31
:1042DC000360836804469BB16FF00041FFF7E6FF73
:1042EC000021A06803F0BCFA237903F0FF0513B199
:1042FC0003F066FAF8E72946A06803F089FAA5608E
:10430C0004F10C00FFF786FF204638BDF89B0D002A
:10431C0010B50446FFF7DAFF20461C2105F077F9AB
:10432C00204610BD73B506460D4611461446FFF7E0
:10433C00BDFFB068002340B1019300952246194699
:10434C0003F076FAB0FA80F0400902B070BD0000BC
:10435C0040F67263984270B51CDC0F4A002352F889
:10436C00044BA04203F101050FDC116888420CDDFF
:10437C000A4E56F8232056F825309D1A031B6B4322
:10438C00081B93FBF0F0104470BD142D2B46E6D1A6
:10439C00002070BD184670BD28AE0D00D4AD0D00C8
:1043AC001FB50C2AA8BF0C22014401A8144605F025
:1043BC0051FB04AB1C4401A8002304F80C3C05F091
:1043CC008DFA04B010BD2DE9FF410D68D2F80080C4
:1043DC0046190F463046414605F04FFB801B0E2810
:1043EC00A8BF0E20024631460446684605F032FB53
:1043FC00404605F012FB04AB284420441C443860B2
:10440C000023684604F8103C05F068FA04B0BDE8D7
:10441C00F081000010B5084C01444FF0FF32884287
:10442C0008D010F8013B5340DBB254F8233083EA38
:10443C001222F4E7D04310BD189C0D00021E30B5BB
:10444C0016DB9110022329B1914203D0023342FAB8
:10445C0003F1F8E7023B00204000411C42FA03F450
:10446C0001FB01F5A542D8BF0846023BF4D530BD8F
:10447C004FF0FF3030BD000038B5064D002405F07C
:10448C004DF8204603F01CFA28550134B4F56A7F28
:10449C00F5D138BD6CD5032038B5064D002405F098
:1044AC003DF8295D2046013403F012FAB4F56A7F19
:1044BC00F5D138BD6CD5032038B504F073FE08492E
:1044CC00084D04F060FB002404F11800E4220021E4
:1044DC002844E43405F023FAB4F5647FF4D138BDF4
:1044EC0068A00D006CD5032008B5064B0A221A7083
:1044FC000C225A70FF229A70FFF7DEFFFFF7CCFFF9
:10450C00012008BD6CD50320012870B50E461D4D49
:10451C001BD11D4B188804F095FF044640B904F0DC
:10452C0041FE1A4904F02FFB194B2C601C6016E05D
:10453C002B68002B15DC04F035FE164904F023FB28
:10454C00134B00202860186070BD2A684AF22703BC
:10455C009A4206DD04F026FE0F4904F014FB0020FD
:10456C0070BD0E4C0121208804F053FF304603F03F
:10457C0087F90021208804F04CFF304603F080F9C5
:10458C00012070BD30D5032070C503209FA00D0005
:10459C0098C90320BBA00D00D2A00D0078C5032044
:1045AC002DE9F84F1C4BDFF87890C70F044688466E
:1045BC001888394604F02DFF184B84EAE4711A6808
:1045CC00A1EBE47111441922002C91FBF2F64FF08F
:1045DC00000402FB16121A60B4BF6FF0180A4FF0F9
:1045EC00190A1D46A346B44213DA41463846FFF772
:1045FC008BFF58B1D9F800305344002B02DDC9F8B9
:10460C00003004E0C9F800B0C5F800B034460134FD
:10461C00E9E7BDE8F88F00BF50C5032098C9032017
:10462C0030D50320024B0021188804F0F2BE00BFE5
:10463C0084C5032008B5054B0121188804F0E9FE58
:10464C000A20BDE8084003F019BC00BF84C5032054
:10465C0038B504460D46FFF7EDFF29462046FFF717
:10466C009FFFBDE83840FFF7DDBF0000134B10B5CE
:10467C004AF228021A600446FFF7DCFF9621104824
:10468C00FFF78EFF642003F0F9FB96214FF4FA60DC
:10469C00FFF786FF642003F0F1FB4FF47A710948B1
:1046AC00FFF77EFF4FF47A7142F63020FFF778FF68
:1046BC001CB1BDE81040FFF7B5BF10BD30D50320CD
:1046CC00A015FFFF48F4FFFF2DE9F04106460D460B
:1046DC00904600244742444509DA29463046FFF704
:1046EC005FFF29463846FFF75BFF0134F3E7BDE86F
:1046FC00F08100002DE9F74F1E4D009392462B6878
:10470C001D4F80EAE072A2EBE0721A4419230028D4
:10471C0092FBF3F64FF0000403FB16232B60894643
:10472C004FEAD078B4BF6FF0180B4FF0190B23463B
:10473C00B44201931ADA0C9A00995046FFF7C4FF61
:10474C000E4B4146188804F064FE49464046FFF77C
:10475C00DBFE019B38B13A685A44002A01DD3A600D
:10476C0002E03B602B6034460134E1E703B0BDE866
:10477C00F08F00BF98C9032030D5032050C503200B
:10478C0038B5064C80F3080544F62062294620888B
:10479C0004F0A8FE0123E560237238BDF8C50320A0
:1047AC0010B5044C0021208804F076FE00232372FF
:1047BC00E36010BDF8C5032070B5044603F068F83B
:1047CC000F4D84F30804064644F6206221462888DF
:1047DC0004F088FE002C14BF01230023EC602B7224
:1047EC0009D0084B1B7833B104F0DCFC2346064A95
:1047FC00012104F0F2F903F04BF8801B70BD00BFEF
:10480C00F8C5032003CA0320EDA00D00024B01469E
:10481C00188804F041BE00BF48C50320024B014676
:10482C00188804F039BE00BF54C50320024B014662
:10483C00188804F031BE00BF58C503200346412B35
:10484C00084601D1FFF7E2BF312B01D1FFF7E6BFDC
:10485C00322B01D1FFF7EABF70470000024B002159
:10486C00188804F019BE00BF48C50320024B002174
:10487C00188804F011BE00BF54C50320024B002160
:10488C00188804F009BE00BF58C50320412801D187
:10489C00FFF7E4BF312801D1FFF7E8BF322801D17F
:1048AC00FFF7ECBF704710B504460846FFF7AEFFA4
:1048BC00204603F0E3FABDE81040FFF7CFBF10B578
:1048CC0004460846FFF7AAFF204603F0D7FABDE8D6
:1048DC001040FFF7CBBF10B504460846FFF7A6FF04
:1048EC00204603F0CBFABDE81040FFF7C7BF38B540
:1048FC000C4605460846FFF789FF2046FFF78EFF5A
:10490C002046FFF793FF284603F0B8FAFFF7A6FFFF
:10491C00FFF7ACFFBDE83840FFF7B0BF08B504F0B7
:10492C002BFE03F0CAFE88B904F026FE084903F0FA
:10493C0077FE04F021FE03F077FE642003F09EFA6C
:10494C0004F01AFEBDE8084003F0B7BE08BD00BF76
:10495C00A086010008B504F00FFEBDE8084003F086
:10496C0069BE000008B5074B074800226FF00041F4
:10497C00DA61FFF7D7FC04F015FC0449BDE80840E8
:10498C0004F001B9F8C503209CC9032004A10D0053
:10499C0008B56FF000410648FFF788FC0020FFF7D0
:1049AC000BFF04F0FFFB0349BDE8084004F0EBB833
:1049BC009CC9032027A10D0038B5114C002120887B
:1049CC0004F06AFDA08804F050FDE16805462088DB
:1049DC0004F062FD1DB9FFF7DBFF00250EE0284651
:1049EC00FFF7B6FC052200EBC003B0F5167F93FB76
:1049FC00F2F303F5A0732062A362ECDC284638BD09
:104A0C00F8C503202DE9F0432F4E8BB0F56802F06A
:104A1C003FFFF769C7EB0009B9F57A7F804634464A
:104A2C004ED3FFF7C9FFC6F81C808046002847D03C
:104A3C0017B97761B76143E0336A776AB569E26A9F
:104A4C00FF1A4FF47A7107FB09F393FBF1F31D4442
:104A5C00B5617669636BBE1B6B434E437A43216B26
:104A6C00A56B92FBF1F193FBF5F56A18E56B236CE2
:104A7C0096FBF9F6754395FBF3F5144B1B7815442F
:104A8C00EBB104F08FFBD4F820E0636A089507962D
:104A9C00A16906910A2293FBF2F102FB11330393F5
:104AAC009EFBF2F302FB13E2029101920093059735
:104ABC00CDF810904346064A012104F08EF8676148
:104ACC0028460BB0BDE8F083F8C5032003CA0320C9
:104ADC006AA10D002DE9F041074694B00E463A4DFF
:104AEC0002B92A602B683946013310A82B6004F0F8
:104AFC0062F910A9354804F069F910A804F0D5F84A
:104B0C003146334804F055FF324A334900231370C1
:104B1C00324A04A8137004F00FF939460CA8049C0F
:104B2C0004F049F92E4908A804F006F908A90CA8C4
:104B3C0004F06BF93146804610A804F0FDF810A97A
:104B4C00404604F062F9274B02681978264B1B7813
:104B5C000B438DF8003021463C2302A803F062FB86
:104B6C00039C7CB16368013B63605BB9236820469E
:104B7C009B689847A368013BA3601BB92368204638
:104B8C00DB68984710A804F090F808A804F08DF89A
:104B9C000CA804F08AF804A804F087F804F002FBCF
:104BAC003946044610A804F006F92B6801930F4A05
:104BBC00009610AB0121204604F00FF810A804F069
:104BCC0074F814B0BDE8F08100D50320F0D40320B4
:104BDC001DD2032059D20320D3A10D00FCD90320F0
:104BEC00A3AF0D006CC60320A0C60320DDA10D00F1
:104BFC007FB504F0D7FA1549154E164D03F0C3FFD7
:104C0C0003F084F80446B8B10123337002F040FE7F
:104C1C00114B124900F51C501030186000246846E6
:104C2C002C7004F089F8684622460D49FFF752FFB4
:104C3C00684604F03AF806E004F0B4FA094903F0C7
:104C4C00A2FF34702C7004B070BD00BFF6A10D0033
:104C5C0080C60320FCD10320F4C603200BA20D0058
:104C6C0038D503201EA20D00072210B50C490D48A3
:104C7C0004F0DBFE0C4B041E0CBF012200221A7048
:104C8C0007D104F08FFA094903F07DFF084B1C7023
:104C9C0010BD04F087FA0749BDE8104003F073BF5C
:104CAC004DA20D00ADC603207CD2032055A20D00F1
:104CBC00F1C6032062A20D002DE9F0410F4F06460C
:104CCC0000244FF0E40808FB04F505F120013944F9
:104CDC001822304604F0A9FE014648B90748183599
:104CEC002844E42204F01BFEBDE8F041FFF7D4BBDE
:104CFC000134042CE7D1BDE8F08100BF6CD5032052
:104D0C002DE9FF41244F254CDFF898803946684641
:104D1C0004F012F80099204604F053FE054668464C
:104D2C0003F0C3FF00262A462146404604F092FEBB
:104D3C0008F8056001352C443946684603F0FCFF41
:104D4C000099DFF86480204604F03BFE0546684677
:104D5C0003F0ABFF2A462146404604F07BFE08F8E0
:104D6C00056001352C443946684603F0E5FF00998F
:104D7C000B4F204604F025FE0546684603F095FFD0
:104D8C002A462146384604F065FE681C20447E55B0
:104D9C0004B0BDE8F08100BFA3AF0D00FCD9032027
:104DAC0004D5032082C60320ADC60320F8B51548F0
:104DBC0004F033FE134B00245A1C02380A26092730
:104DCC0084421CDA15785C2D13D15178742904F1C6
:104DDC00010402D1591C1F7009E06E2917BF194636
:104DEC00591C01F8025B55780CBF1E705D700232C5
:104DFC0002E0591C01321D7001340B46E0E7002221
:104E0C001A70F8BDFCD903201FB5184B1B68042B76
:104E1C0019DC04F0C7F916490446684603F0CBFFC9
:104E2C006B46144A0121204603F0D7FE684603F076
:104E3C003CFF0F49684603F0BEFF01220E4968464D
:104E4C00FFF748FE0CE004F0ADF90949044668464A
:104E5C0003F0B1FF6B46094A0121204603F0BDFE69
:104E6C00684603F022FF04B010BD00BF00D503203C
:104E7C00F0D4032075A20D001DD20320A1A20D00B9
:104E8C00E4222DE9F84302FB00F6114D1149DFF83D
:104E9C00448006F118040746281904F035FD06F184
:104EAC00FC094C450ADA04F039FBA31B43442046A9
:104EBC0013F8181C02F00CFD0134F2E7AF7004F08B
:104ECC002DFBA9780220BDE8F84302F001BD00BF1C
:104EDC006CD5032014D903201FB5CB890A78039312
:104EEC008B8902934B8901930B89044C00934B687B
:104EFC000349204402F0A2FF04B010BD7DD2032070
:104F0C00E7A20D002DE9F743E4244443134D144963
:104F1C00144804F120032A192B440093D369926995
:104F2C0002F08CFF00260746A84604F13C09331911
:104F3C002B4493F83C3003F0FD03412B06D109EBD5
:104F4C00060138464144FFF7C7FF07441036C02E10
:104F5C00EDD1012003B0BDE8F08300BF6CD5032078
:104F6C0001A30D007DD2032010B5084B9C78FF2CBB
:104F7C0014BF0134002404F003042046FFF780FF23
:104F8C002046BDE81040FFF7BDBF00BF6CD5032025
:104F9C0070B5194B1B780E4663BB184B1A1892F858
:104FAC0023203AB30A2A25D0092A20D00446B4F586
:104FBC00FA6F1EDA1A1992F8232032B9221A014616
:104FCC000F48FFF7EDF9306013E00A2AF6D0092AF2
:104FDC0004F1010507D1221A01460948FFF7E0F94F
:104FEC003060284670BD2C2AF5D02C46DFE7013006
:104FFC0070BD204670BD00BFF0C6032004CA03205C
:10500C0027CA032070B50029054688B01F48204CDC
:10501C0001D101601BE01F4BDA684FF47A7303FB7C
:10502C0002F207DA4FF0FF3323601B4B02600022C1
:10503C001A600DE00368194464230160594391FB25
:10504C00F2F19942A8BF19462368994200D0216019
:10505C0004F0A8F82946064604A803F0ACFE0F4B52
:10506C00196A0A2391FBF3F203FB121302932368D0
:10507C00019200930A4A04AB0121304603F0ADFDC6
:10508C0004A803F012FE08B070BD00BFA4C6032034
:10509C0000D2032004CA0320D8C60320F8C503207D
:1050AC0012A30D0010B502F0F3FB0446FFF7AAFCA7
:1050BC00FFF782FBFFF7B8F802F0EAFB001B10BD0C
:1050CC0010B50446FFF7EEFFA04204DA201ABDE843
:1050DC00104002F0D3BE10BDF0B516464A1C85B088
:1050EC0007460D4602D133600C4629E01649684646
:1050FC0003F022FE2A466946384603F0AAFE04460F
:10510C00684603F0D2FD631C0CD12A46394668462A
:10511C0003F0CEFE684603F0D2FE3060684603F022
:10512C00C4FD0DE023462A463946684603F0A0FE2E
:10513C00684603F0C4FE3060684603F0B6FD0134E7
:10514C00204605B0F0BD00BF38A30D0010B50120FE
:10515C00FFF7E4FB18B9BDE81040FFF7FBBB04F008
:10516C0021F80F4903F00FFD002404F005FA214645
:10517C0003F099FA04F000FA0021FFF761F804F04B
:10518C00FBF903F097FA30B904F00CF82346054A02
:10519C00012103F022FD01347F2CE6D1DBE700BFB7
:1051AC003AA30D0058A30D00164A08B5002313703E
:1051BC00154A1370154A1370154A1370154A13705B
:1051CC00154A1360154A1360154A13701376154A65
:1051DC0013701376144A137282F8203082F821303F
:1051EC00124A13701372124A1370124A0A21537026
:1051FC00117002F04DFB104B00F56A4060301860E6
:10520C0008BD00BF65C603207CD20320FCD103205F
:10521C0059D203205CC60320A4C6032000D203206D
:10522C0038D5032052D5032014D9032004CA0320F7
:10523C007DD2032000C70320A8C6032010B5072287
:10524C000D490E4804F0F1FB044670B903F0AAFFB7
:10525C000B4903F098FC0B4B01201C70FFF706FA6E
:10526C00FFF7A2FF084B1C6010BD03F09BFF074922
:10527C00BDE8104003F087BC4DA20D00ADC6032065
:10528C0077A30D0002CA0320A8C6032085A30D0036
:10529C0010B507220D490E4804F0C7FB044670B93F
:1052AC0003F080FF0B4903F06EFC0B4B01201C70CC
:1052BC00FFF7DCF9FFF778FF084B1C6010BD03F01B
:1052CC0071FF0749BDE8104003F05DBC4DA20D0015
:1052DC00ADC6032099A30D0095C90320A8C60320D1
:1052EC00A8A30D001FB503F05DFF0F4903F04BFCA5
:1052FC000E4B01221A7002F0CBFA0D4B00F59C40BC
:10530C0020301860FFF796F90A49684603F014FD3F
:10531C00002209496846FFF7DDFB684603F0C5FC2F
:10532C0005B05DF804FB00BFBCA30D00F1C6032063
:10533C0068C60320CAA30D001CD903201FB5164C48
:10534C0003F030FF214603F01EFC144B01221A70AF
:10535C0002F09EFA124B00F51C50103018602146DA
:10536C00684603F0E9FC4FF0FF316846FFF74AFE50
:10537C00684603F09AFC0B49684603F0DDFC0022FA
:10538C0009496846FFF7A6FB684603F08EFCFFF759
:10539C0049F904B010BD00BF99A30D0095C90320B5
:1053AC0058C60320D5A30D001CD903201FB503F04C
:1053BC00F9FE154903F0E7FB144B01221A7002F0B9
:1053CC0067FA134B134900F51C50103018606846EF
:1053DC0003F0B2FC4FF0FF316846FFF713FE68464E
:1053EC0003F063FC0C49684603F0A6FC00220B4951
:1053FC006846FFF76FFB684603F057FCFFF712F99E
:10540C0005B05DF804FB00BFE1A30D0002CA032048
:10541C00ECC60320F0A30D00FEA30D001CD9032045
:10542C0070B50E460446154603F0E2FF012E05D179
:10543C0029462046BDE8704004F02EB870BD70B50A
:10544C000E460446154603F0D3FF012E05D129461E
:10545C002046BDE8704003F0DCBF70BD70B5002382
:10546C008AB0042259495A485A4D5B4E02F026FC28
:10547C005A4A5B495B4802F0B5FD06A802F04EFCA7
:10548C0006A9284603F0A2FC06A803F00EFC564918
:10549C0002A803F051FC294602A803F0B6FC002434
:1054AC00014606A803F087FC234622464F49019487
:1054BC000094069802F042FC06A803F0F6FB02A842
:1054CC0003F0F3FB4A4902A803F036FC294602A874
:1054DC0003F09BFC014606A803F06DFC2346224614
:1054EC00444901940094069802F028FC06A803F0A5
:1054FC00DCFB02A803F0D9FB1922234631462846CF
:10550C0003F08FFC3C4B34761888022103F070FFBB
:10551C003A4B0221188803F06BFF394B01221146DC
:10552C001888FFF78CFF374B2146188803F060FF73
:10553C00354B224618880121FFF772FF334B224668
:10554C0018880121FFF76CFF314B22461888012186
:10555C00FFF766FF2F4B2146188803F049FF2E4BAF
:10556C002146188803F044FF2C4B2146188803F081
:10557C003FFF2B4B224618880121FFF760FF294B78
:10558C00224618880121FFF75AFF274B224618881C
:10559C000121FFF754FF254B802218880121FFF7CA
:1055AC003FFF234B224618880121FFF739FF214B7F
:1055BC00224618880121FFF733FF03F0F3FD4FF467
:1055CC00E13103F0E3FD0AB070BD00BF7DD20320D2
:1055DC000AA40D00DCC6032004D2032013A40D0082
:1055EC00C1710D00C57F0D001CA40D0001410D0003
:1055FC0035A40D00D1410D0070C5032064C50320F6
:10560C007CC5032080C5032048C5032054C5032056
:10561C0058C503206CC5032074C503205CC503204A
:10562C0084C5032078C5032050C5032060C5032022
:10563C0068C503204CC5032007B503F0B3FD0C4926
:10564C0003F0A1FA03F06AFF012200200DF107011B
:10565C0002F046F99DF80730FF2B064B0DBF0122D7
:10566C000022012000201A7003B05DF804FB00BF7B
:10567C004BA40D00ACC6032030B50A4C257885B080
:10568C006DB90949684603F057FB2A460749684635
:10569C00FFF720FA684603F008FB0123237005B0DE
:1056AC0030BD00BF64C6032071A40D0004D20320DA
:1056BC0007B5009313460A46012103F08EFA03B096
:1056CC005DF804FB38B50A4B1B7804460D4633B124
:1056DC0003F068FD2B4622460649FFF7E9FF064B0F
:1056EC002A4621461878BDE8384003F057BC00BF65
:1056FC0003CA032081A40D0068C5032008B5FA2154
:10570C004FF48370FFF7DEFF322002F0B7FBFA2173
:10571C004FF49370FFF7D6FF322002F0AFFBFA2163
:10572C004FF4A570FFF7CEFF322002F0A7FBFA2151
:10573C0040F25D10FFF7C6FF322002F09FFBFA210A
:10574C004FF4C470FFF7BEFF322002F097FBFA2132
:10575C004FF4DC70FFF7B6FF322002F08FFBFA211A
:10576C004FF4F770FFF7AEFF322002F087FBFA21FF
:10577C0040F20B20BDE80840FFF7A4BF2DE9F04133
:10578C000D4655490346024686B0183052F8044B74
:10579C0041F8044B8242F9D1186859684F4C504E6D
:1057AC0003C42B4605F11807083C186859683246A3
:1057BC0003C20833BB421646F7D119230193494B58
:1057CC0049494FF0000802A883F8218003F0B4FA8D
:1057DC0002AA01A92846FEF7F6FDE06002A803F034
:1057EC0064FA414902A803F0A7FA02AA01A92846C3
:1057FC00FEF7E9FD206102A803F057FA3A4902A826
:10580C0003F09AFA02AA01A92846FEF7DCFD6061B2
:10581C0002A803F04AFA344902A803F08DFA02AA4E
:10582C0001A92846FEF7CFFDA06102A803F03DFABE
:10583C002D4902A803F080FA02AA01A92846FEF716
:10584C00C2FDE06102A803F030FA274902A803F078
:10585C0073FA02AA01A92846FEF7B5FD208402A816
:10586C0003F023FA204902A803F066FA02AA01A960
:10587C002846FEF7A8FD84F8220002A803F015FACA
:10588C00194902A803F058FA02AA01A92846FEF702
:10589C009AFD074602A803F008FA268C01991348D2
:1058AC0032462944344404F0D5F8B11E0F4884F82C
:1058BC002380FEF7AFFD80EAE074A4EBE07403F004
:1058CC0071FC23463A460A49FFF7F2FE3B1B58424D
:1058DC00584106B0BDE8F08152D5032004CA03201C
:1058EC001CD9032014D90320B3A40D0027CA03200C
:1058FC00B5A40D0073B5044603F03EFE214602F03C
:10590C00CEFE03F039FE0021FEF79AFC064603F0AA
:10591C0033FE002102F0CAFE054630B103F042FC12
:10592C002B4632461549FFF7C3FE03F025FE2146F0
:10593C00042202F0B1FE03F01FFE03685B69984776
:10594C00044603F019FE03685B6998470C4B1B78FF
:10595C00054643B103F026FCE3B20093094AEBB2CF
:10596C00012103F03AF96A0704D4E0B2C31E58428D
:10597C00584100E0002002B070BD00BFCDA40D0066
:10598C0003CA0320EEA40D007FB5124B1C680D4614
:10599C00041B06461049684603F0CEF984EAE4730A
:1059AC00A3EBE4736B43684646F2A81193FBF1F149
:1059BC00FFF728FB684603F078F903F0F3FB234666
:1059CC0032460649FFF774FE29462046FEF7E8FDED
:1059DC0004B070BD30D5032004A50D001FA50D002B
:1059EC00962144F25060FFF7CFBF962142F630204B
:1059FC00FFF7CABF13460A46012103F0EEB80000B8
:105A0C00F8B501F045FF184B1A6882421F4625D89D
:105A1C00164B1A781D462AB103F0C4FB144A012117
:105A2C0003F0DBF8134A0023E42101FB032696F86C
:105A3C0020404CB12C789CB103F0B4FB96F820209C
:105A4C000D49FFF7D7FF0CE00133042BEDD101F02A
:105A5C001FFF00F56A406030386002E0002400E06F
:105A6C0001242046F8BD00BFA8C6032003CA0320AA
:105A7C004AA50D006CD5032065A50D002DE9F34753
:105A8C00444C23780646884615462BB103F08AFB16
:105A9C0032464149FFF7AEFF03F06EFD294602F096
:105AAC0002FE03F069FD0021FEF7CAFB824603F0FB
:105ABC0063FD0221FEF7C4FB074603F05DFD0121E7
:105ACC0002F0F4FD814650B1574403F06BFBCDF866
:105ADC00049000973346314A012103F07EF803F01D
:105AEC004BFD294602F0DFFD03F046FD0621FEF7D3
:105AFC00A7FB824603F040FD03685FFA88F19B68C0
:105B0C009847074603F038FD012102F0CFFD81468E
:105B1C0050B1574403F046FBCDF804900097334640
:105B2C001E4A012103F059F803F026FD294602F024
:105B3C00BAFD03F021FD0621FEF782FB074603F0B8
:105B4C001BFD002102F0B2FD064630B103F02AFB2A
:105B5C0033463A461249FFF7ABFD03F00DFDE9B2AF
:105B6C00012202F099FD054603F006FD03685B690E
:105B7C009847237806464BB103F014FB0196CDF8F9
:105B8C0000802B46074A012103F027F802B0BDE83C
:105B9C00F08700BF03CA032074A50D0092A50D0069
:105BAC00CDA40D00B9A50D002DE9F341534D544E74
:105BBC00544F01232B7003F0F5FA534902F0E3FF25
:105BCC0003F068FA4FF4165103F05AFA03F0EAFAAC
:105BDC004E4902F0D8FF0021308803F01AFC01F086
:105BEC0057FE00F59C5403F0DDFA494902F0CBFF57
:105BFC000834388803F026FC804603F0D3FA2E21B3
:105C0C0002F0B2FFFEF710FBC82002F037F9B8F132
:105C1C00010F03D001F03CFEA042EAD303F0C2FA1C
:105C2C00074603F037FA03681B699847002814BF2E
:105C3C0059224E2237493846FFF7DCFE01213088C5
:105C4C0003F0E7FB03F0AEFA334902F09CFF03F0DC
:105C5C0021FA03681B69984730B901F019FE844298
:105C6C0002D9FEF7E1FAF2E7642002F007F903F03B
:105C7C0099FA2A492A4E02F086FF002403F092FA80
:105C8C002E2102F071FF03F005FA03685B69984757
:105C9C00431C1CBF3055013403F0FCF903681B692D
:105CAC00984708B1172CE9DD03F07CFA02F05FFF8E
:105CBC00172C1B4A09DC1B4B114603F1180053F837
:105CCC00046B41F8046B8342F9D10026167603F07D
:105CDC0069FA134B144A0094012102F07EFF03F081
:105CEC00D9F903F0D0F903F05DFA104902F04BFF3B
:105CFC0020462E7002B0BDE8F08100BFD9C9032048
:105D0C007CC5032080C50320DCA50D00EFA50D008C
:105D1C0006A60D0017A60D0040A60D009EA60D00B0
:105D2C0038D5032056A60D006FA60D0087A60D00D2
:105D3C0070B590B00025014606460CA8079508954D
:105D4C0009950A950B9503F036F82B4606AA2946B9
:105D5C000CA8FFF7C1F904460CA802F0A6FF069B9D
:105D6C00023B202B00F2AE82DFE813F0210025006D
:105D7C005400AC02AC027E0099009E00C000E10011
:105D8C0003012401460169016E0188018D019E0108
:105D9C00A101A401A701AB01AC02AC02AC02AE01A3
:105DAC00C601F90100020402AC02290259020120C9
:105DBC00FEF75CFC83E231460CA802F0FCFF0023EA
:105DCC0007AA21460CA8FFF787F904460CA802F095
:105DDC006CFF31460CA802F0EEFF4FF47A7308AA60
:105DEC0021460CA8FFF778F90CA802F05EFF089981
:105DFC000798B74CFEF72CFC03F0D4F9B54BB64A18
:105E0C001B680193236800930121079B02F0E5FEB8
:105E1C00246858E2FEF70EFCFFF7E2FDFEF702FCE9
:105E2C0031460CA802F0C7FFB62307AA21460CA8DE
:105E3C00FFF752F904460CA802F037FF31460CA8C4
:105E4C0002F0B9FFFF2308AA21460CA8FFF744F97A
:105E5C000CA802F02AFFA14B079C1C60A04B089ACF
:105E6C001A6001229F4BA8E131460CA802F0A3FF57
:105E7C0007AA21464FF4B9730CA8FFF72DF90CA80B
:105E8C0002F013FF03F08EF9974B196A0A2391FB6A
:105E9C00F3F203FB12139549FFF70AFC24E0FEF71B
:105EAC0023FB934B5C780EE231460CA802F083FF87
:105EBC004FF4FA7307AA21460CA8FFF70DF9044614
:105ECC000CA802F0F2FE31460CA802F074FF214639
:105EDC00FF2308AA0CA8FFF7FFF80CA802F0E5FEB8
:105EEC0008990798FEF7DFFC079CECE131460CA8FB
:105EFC0002F061FF07AA4FF4FA7321460CA8FFF7D2
:105F0C00EBF804460CA802F0D0FE31460CA802F0C7
:105F1C0052FF2146FF2308AA0CA8FFF7DDF80CA8B6
:105F2C0002F0C3FE08990798FEF7C9FC1FE0314642
:105F3C000CA802F040FF4FF4FA7307AA21460CA8F4
:105F4C00FFF7CAF804460CA802F0AFFE31460CA8C5
:105F5C0002F031FF2146FF2308AA0CA8FFF7BCF87A
:105F6C000CA802F0A2FE08990798FEF7B4FC089C56
:105F7C00A9E131460CA802F01EFF07AA4FF4FA73F0
:105F8C0021460CA8FFF7A8F804460CA802F08DFED9
:105F9C0031460CA802F00FFF2146FF2308AA0CA8DB
:105FAC00FFF79AF80CA802F080FE08990798FEF704
:105FBC009EFCDCE731460CA802F0FDFE07AA4FF46C
:105FCC00167321460CA8FFF787F804460CA802F0BC
:105FDC006CFE31460CA802F0EEFE21464FF47A73AB
:105FEC0008AA0CA8FFF778F80CA802F05EFE089936
:105FFC000798FFF767FB77E731460CA802F0DBFE4A
:10600C0007AA002321460CA8FFF766F804460CA843
:10601C0002F04BFE31460CA802F0CDFE21464FF4A7
:10602C007A7308AA0CA8FFF757F80CA802F03DFEEB
:10603C00FEF700FB08990798FFF7A6FC3DE1FEF779
:10604C00F9FAFFF7D2FC38E131460CA802F0B3FEA6
:10605C004FF4B97307AA21460CA8FFF73DF80CA81A
:10606C0002F023FE079C40F25623621E9A4200F275
:10607C002A811D4B00225C62DA6124E1FEF7DAFA18
:10608C00FFF7AEFC19E131460CA802F094FE802318
:10609C0007AA21460CA8FFF71FF80CA802F005FE72
:1060AC000798FEF76DFB1FE7FEF77AFB5CE0FEF747
:1060BC0059FC59E0FEF76CFC56E00E4B01241C70A9
:1060CC0001E10C4B1D70FDE0FFF740F84CE000BF08
:1060DC0030D5032098C90320BBA60D00ECD40320B7
:1060EC00F8D10320D8C90320F8C50320EAA60D0077
:1060FC006CD5032003CA0320FEF79CFAFFF770FC53
:10610C00FEF790FA31460CA802F055FE07AAB6230A
:10611C0021460CA8FEF7E0FF04460CA802F0C5FDD2
:10612C0031460CA802F047FE08AA2146FF230CA812
:10613C00FEF7D2FF0CA802F0B8FD6D4B07996D4825
:10614C0000221A706C4B19606C4B089919606C4BDF
:10615C0001246FF000411C70FEF7E4F8B3E06FF01F
:10616C0000416448FEF7A2F80124ACE0FFF71CFDE7
:10617C000446A8E031460CA802F01DFEB62307AA7F
:10618C0021460CA8FEF7A8FF04460CA802F08DFDD2
:10619C0031460CA802F00FFEFF2308AA21460CA8DA
:1061AC00FEF79AFF0CA802F080FD564B079C1C6072
:1061BC00554B089A1A60554B01221A7083E03146F0
:1061CC000CA802F0F8FD07AA192321460CA8FEF72B
:1061DC0083FF04460CA802F068FD31460CA802F0BF
:1061EC00EAFD08AA962321460CA8FEF775FF044683
:1061FC000CA802F05AFD31460CA802F0DCFD09AAED
:10620C0021460A230CA8FEF767FF0CA802F04DFDEF
:10621C00FEF710FA07A807C8FEF756FA4DE031460C
:10622C000CA802F0C8FD002307AA21460CA8FEF713
:10623C0053FF04460CA802F038FD31460CA802F0BE
:10624C00BAFD4FF47A7308AA21460CA8FEF744FF56
:10625C0004460CA802F029FD31460CA802F0ABFD57
:10626C00192309AA21460CA8FEF736FF04460CA8F0
:10627C0002F01BFD31460CA802F09DFD96230AAAE4
:10628C0021460CA8FEF728FF04460CA802F00DFDD1
:10629C0031460CA802F08FFD02230BAA21460CA854
:1062AC00FEF71AFF0CA802F000FDFEF7C3F90B9BDA
:1062BC00009307A80FC8FEF71DFAFEF7B3F9144BAD
:1062CC001C6800E0002402F06DFF0B9B05930A9BF9
:1062DC000493099B0393089B0293079B01930094DF
:1062EC00069B0C4A012102F078FC204610B070BDD0
:1062FC0003CA03203CC60320ECD40320F8D10320AE
:10630C00D8C90320FCC6032090C90320A1C60320D2
:10631C0030D50320FFA60D0010B5154B188803F0DF
:10632C0091F8144B021E0CBF0121002119701C4660
:10633C0008D10121104801F063FC4FF4AF714FF408
:10634C00167007E0002211460B4801F059FCC821D9
:10635C004FF49670FFF7B6F902F024FF2378074943
:10636C00002B14BF59224E22FFF744FB10BD00BF77
:10637C0064C503205AD2032074C9032049A70D0019
:10638C0010B51B4B1A7892B11A4C227852B10022DC
:10639C0022701A7002F006FF174902F0F4FBFFF7A7
:1063AC00BBFF04E0322001F069FD01232370134B85
:1063BC001C7874B101F06CFA114B1B68984215D91A
:1063CC0002F0F0FE0F4902F0DEFBBDE81040FEF7D4
:1063DC000FBC0D4B1A784AB11C700C4B1B782BB1AF
:1063EC00FFF7E2FB18281CBF094B1C7010BD00BF47
:1063FC002CD50320A2C603205EA70D0080C6032067
:10640C00F4C6032076A70D0094C903205AD20320AA
:10641C00FCD1032013460A46002102F0DEBB00002B
:10642C002DE9F3470546174698460E4603F0A4F8A7
:10643C00294602F034F903F09FF80021FDF700FF24
:10644C00824603F099F88321FDF7FAFE044603F027
:10645C0093F8012102F02AF9814660B1544402F00C
:10646C00A1FECDF8049000942B46754A012102F050
:10647C00B4FB0020E0E001F00BFA00F59C5909F1A7
:10648C0008092846FFF736FA70B901F001FA4845B9
:10649C0003D2642001F0F2FCF3E702F083FE2A46FB
:1064AC006849FFF7A7FAE4E7674C23782BB102F0B1
:1064BC0079FE2A466549FFF79DFA03F05DF82946F7
:1064CC0002F0EDF803F058F80021FDF7B9FE824612
:1064DC0003F052F8002102F0E9F8814630B102F0E5
:1064EC0061FE4B4652465A49FFF7E2F803F044F876
:1064FC0029460A2202F0D0F803F03EF803685B69E3
:10650C009847054603F038F803685B699847237889
:10651C0081464BB1EDB202F045FE00955FFA89F36E
:10652C004C4A012102F059FB03F026F803685B6921
:10653C0098472378C5B22BB102F034FE2A4646495F
:10654C00FFF768FF03F018F803685B699847237836
:10655C00814633B102F026FE5FFA89F23E49FFF71D
:10656C0059FF4FEA092909F47F4914234D4495FB3F
:10657C00F3F50A9B433D1D8002F0FEFF03685B6947
:10658C0098472378C5B22BB102F00CFE2A4632494B
:10659C00FFF740FF02F0F0FF03685B699847237830
:1065AC005FFA80F92BB102F0FDFD4A462A49FFF74C
:1065BC0031FF05EB0925358002F0DEFF03685B69CE
:1065CC0098472378C5B22BB102F0ECFD2A4622493C
:1065DC00FFF720FF02F0D0FF03685B699847237830
:1065EC00C6B22BB102F0DEFD32461B49FFF712FF9B
:1065FC0005EB06253D8002F0BFFF03685B699847F9
:10660C002378C5B22BB102F0CDFD2A461249FFF713
:10661C0001FF02F0B1FF03685B6998472378C6B2AB
:10662C002BB102F0BFFD32460B49FFF7E3F905EB46
:10663C000625A8F80050012002B0BDE8F08700BF85
:10664C00BBA70D001BA80D0003CA0320EBA70D0070
:10665C00CDA40D00EEA40D0017A80D002DE9F04FF0
:10666C008FB0412807460A9115460AD031280CD024
:10667C0032280ED002F096FD3A465549FFF7BAF98A
:10668C00A3E0544C4FF0740A06E0534C4FF0750ADB
:10669C0002E0524C4FF0760A73B1514A92F8210045
:1066AC000C24B0FBF4F304FB1304E4B202EB04146B
:1066BC000130243482F821004A4B0B9301221A70CA
:1066CC00FEF76EF829463846FEF7B8F8642001F05C
:1066DC00D5FB52460A993846FFF7D0F9277001F0DE
:1066EC00D7F84FF00009052260606270C8464E462C
:1066FC004D46CB4663789B4520DA0CAB00930DAA34
:10670C000DF136030DF132015046FFF789FE60B1F1
:10671C00BDF832301D44BDF834301E44BDF836305F
:10672C009844BDF83030994405E002F03BFD3A4600
:10673C002D49FFF75FF90BF1010BDBE796FBF3F645
:10674C006681B6B295FBF3F576432581ADB298FB25
:10675C00F3F005FB0565A08180B299FBF3F900FB12
:10676C000050A4F80E90FDF769FE064602F01AFDE3
:10677C00B6B2054601F08CF80896A3890793638995
:10678C000693238905931FFA89F909EBC909052397
:10679C0099FBF3F320339BB20493E389039363785F
:1067AC000293124BB0FBF3F202FB13000A9B019015
:1067BC0000930F4A3B460121284602F00EFA0B9A31
:1067CC00002338461370FEF761F80FB0BDE8F08F68
:1067DC0036A80D0070C603205CD203206CD20320B7
:1067EC0014D903205CC6032052A80D0040420F00B0
:1067FC0079A80D002DE9F04104460D46164601F02E
:10680C0047F807460120FEF789F8B0B133462A460F
:10681C0021464120FFF722FF33462A4621463120EC
:10682C00FFF71CFF33462A4621463220FFF716FF9E
:10683C0002F0B8FC02F09BF904E002F0B3FC0B4947
:10684C0002F0A1F9FEF786F8094B1B7863B102F050
:10685C00A9FC044601F01CF8064AC31B0121204682
:10686C00BDE8F04102F0B9B9BDE8F081BBA80D005C
:10687C0003CA0320EEA80D002DE9F04F87B0804627
:10688C00894601F005F883460120FEF747F8C8B9A0
:10689C0002F088FC334902F076F9FEF75BF8324BD4
:1068AC001B78002B5BD002F07DFC044600F0F0FF5F
:1068BC002E4ACBEB00030121204607B0BDE8F04F78
:1068CC0002F08BB90024DFF8ACA0012627464FF06C
:1068DC0000038AF821304A46012341464120FFF744
:1068EC00BDFE01234A4641463120FFF7B7FE4A461A
:1068FC00414601233220FFF7B1FEBAF82C20BAF83A
:10690C003C10D51B002DB8BF6D42632D05DC0B1B55
:10691C00002BB8BF5B42632B10DD002441F28830A2
:10692C0005910492013601F0A9FA002CB5D1332E51
:10693C00049A0599B1D00C461746C8E7049302F0A7
:10694C0031FC049B0093592201920121084A0296C2
:10695C002B4602F042F921463A460124DEE707B005
:10696C00BDE8F08FBBA80D0003CA0320EEA80D00F4
:10697C00FFA80D0014D903202DE9F04105468CB079
:10698C000C46FEF78FFB0A2D00F078816FDC052D8D
:10699C0000F0D28037DC012D00F09B8015DC002D3F
:1069AC0040F0428202F0E8FAA94BAA49186008A804
:1069BC0002F0C2F941F2707108A8FEF723FB08A897
:1069CC0002F073F94FF47A7014E2022D00F0938008
:1069DC00042D40F0298202A92046FEF7D9FA03A91A
:1069EC00FEF7D6FA9C49044608A802F0A5F90299CC
:1069FC0008A8FEF707FB08A802F057F902990398BC
:106A0C00FEF760FE10E2072D00F0C880C0F2B680E1
:106A1C00082D00F0EB80092D40F006828F4908A864
:106A2C0002F08AF98E4B1968A1F58C415039002976
:106A3C00B8BF49429623594308A88A4B91FBF3F1FE
:106A4C00FEF7E0FA08A802F030F9FEF7C9FF864914
:106A5C0008A802F071F941F2707108A8FEF7D2FA99
:106A6C0008A802F022F90122FF21B62036E10F2DF1
:106A7C0000F060810CDC0D2D00F03F8100F33F81B4
:106A8C00204602A9FEF784FA00240546774E30E131
:106A9C00122D00F052810FDC102D40F0C58102A99F
:106AAC002046FEF775FA03A9FEF772FA039904461D
:106ABC000298FEF769FFB7E1132D00F09E81632D5C
:106ACC0040F0B28102F058FA614B5860FEF74CFA74
:106ADC00AAE102A92046FEF75BFA6549044608A81C
:106AEC0002F02AF9029908A8FEF78CFA08A802F01D
:106AFC00DCF802987EE102A92046FEF749FA03A9C8
:106B0C00FEF746FA5B49044608A802F015F9029B09
:106B1C0083EAE371A1EBE371039B08A84B43514952
:106B2C0093FBF1F1FEF76EFA08A802F0BEF8029B97
:106B3C000399C82058431EE002A92046FEF728FA04
:106B4C0003A9FEF725FA4B49044608A802F0F4F80D
:106B5C00029B83EAE371A1EBE371039B08A84B430F
:106B6C0046F2A81193FBF1F1FEF74CFA08A802F0DB
:106B7C009CF803990298FDF713FD55E102A92046F4
:106B8C00FEF706FA03A9FEF703FA04A9FEF700FACA
:106B9C00044602A807C8FDF797FD45E12F4908A850
:106BAC0002F0CAF82E4B1968A1F58C415039002916
:106BBC00B8BF49429623594308A82A4B91FBF3F1DD
:106BCC00FEF720FA08A802F070F8FEF709FF2A4930
:106BDC0008A802F0B1F841F2707108A8FEF712FA99
:106BEC0008A802F062F8FF21B6202EE002A9204688
:106BFC00FEF7CEF903A9FEF7CBF91849044608A80D
:106C0C0002F09AF8164B1968A1F58C4150390029FD
:106C1C00B8BF49429623594308A8124B91FBF3F194
:106C2C00FEF7F0F908A802F040F8FEF7D9FE124979
:106C3C0008A802F081F841F2707108A8FEF7E2F999
:106C4C0008A802F032F803990298FFF715FEEBE062
:106C5C0014D9032026A90D004BA90D0053A90D0032
:106C6C0030D50320400D03009AA90D00F0C6032077
:106C7C0034A90D003CA90D0079A90D0002A92046EC
:106C8C00FEF786F903A9FEF783F96949044608A8BB
:106C9C0002F052F8674B1968A1F58C415039002964
:106CAC00B8BF49429623594308A8634B91FBF3F1B3
:106CBC00FEF7A8F908A801F0F8FFFEF791FE5F496E
:106CCC0008A802F039F841F2707108A8FEF79AF999
:106CDC0008A801F0EAFF039902980122FFF78AFD48
:106CEC00A2E03378002B40F0A080284600F0C0F8DA
:106CFC000134029BA342F4DC97E0604295E002A9C8
:106D0C002046FEF745F94E49044608A802F014F84F
:106D1C00002108A8FEF776F908A801F0C6FF029A30
:106D2C0040F25623511E99427ED8464B5A6200229D
:106D3C00DA6179E0FEF759FE76E002A92046FEF70B
:106D4C0027F903A9FEF724F904A9FEF721F93E4B14
:106D5C001B78044633B102F025FA049B3B4A01210F
:106D6C0001F03BFF3A4F0026049BB34236DD3D78E1
:106D7C00002D33D105A92046FEF70AF906A9FEF726
:106D8C0007F907A9FEF704F9069AC82353430446EA
:106D9C0006934FF47A78059BAB421DDD2D4908A86C
:106DAC0001F0CAFF069B83EAE371A1EBE371029B3E
:106DBC004B43079993FBF8F308A81944FEF722F903
:106DCC0008A801F072FF02990698FDF7E9FB0798F5
:106DDC00FEF776F90135DEE70136C5E71E4908A84E
:106DEC0001F0AAFF039908A8FEF70CF908A801F016
:106DFC005CFF0398FEF764F916E002A92046FEF743
:106E0C00C7F803A9FEF7C4F804A9FEF7C1F805A951
:106E1C00FEF7BEF806A9FEF7BBF8069B00930446E6
:106E2C0002A80FC8FDF766FC20460CB0BDE8F08147
:106E3C0053A90D0030D50320400D03009AA90D0075
:106E4C00B2A90D00F8C5032003CA0320D4A90D0074
:106E5C00F0C603203CA90D00F0A90D00034A1278DE
:106E6C000AB9FFF789BD0846704700BFF0C603207A
:106E7C0013B501A90446FEF78BF8014664B9019BD2
:106E8C0053B1114B01221A7002F08CF90F4901F029
:106E9C007AFE4FF0FF3015E001980B4CFFF7DEFF48
:106EAC00019B632B0BD0002809DD23783BB901A98A
:106EBC00FEF76EF801460198FFF7D0FFF0E70028C7
:106ECC00B8BF404202B010BDF0C603200FAA0D009F
:106EDC001FB52C4B01221A7002F064F92A4901F0FB
:106EEC0052FE2A4B2849002468461C6001F024FFFE
:106EFC0021466846FEF786F8684601F0D6FE00F09B
:106F0C00FDFE4FF4FA6000F0B9FF00F0FFFE0446FE
:106F1C0038B102F047F91E4901F035FEFDF784F94E
:106F2C00EFE7FDF7A3FB4FF4FA614FF41670FEF791
:106F3C00C9FB4FF4FA6000F0A1FF2146204600F097
:106F4C0057FC2046FFF794FF2146012000F050FC2F
:106F5C0000F0CCFE4FF4FA6000F090FF00F0D6FE8B
:106F6C0038B902F01FF90B4901F00DFEFDF75CF981
:106F7C00F0E7094B094A1B7883F00103137004B046
:106F8C0010BD00BF65C6032027AA0D00D8C603207C
:106F9C0033A40D0034AA0D00F0C6032081C60320D3
:106FAC0013460A46012101F018BE000038B507222D
:106FBC0004460D490D4802F038FD054660B902F053
:106FCC00F1F822460A49FFF7EBFF0A4B1D702046E9
:106FDC00BDE83840FDF770BE02F0E4F80649BDE8A4
:106FEC00384001F0D0BD00BF4DA20D00ADC603204E
:106FFC0036AA0D00F8C603206EAA0D001E4B002207
:10700C0073B51A70064607220C461C481C491D4DC8
:10701C0002F00BFDB0FA80F04009287002F0C2F8C3
:10702C002B781949002B14BF59224E22FEF7E2FC93
:10703C002B78B3B121463046FEF7A0FB48B1134B79
:10704C0001221A7002F0AEF822461149FFF7A8FF90
:10705C000FE002F0A7F80F4902B0BDE8704001F054
:10706C0092BD02F09FF8009433460B4A012101F0C7
:10707C00B4FD02B070BD00BF80C60320ADC60320B6
:10708C004DA20D00FCD1032082AA0D0051D5032086
:10709C009AAA0D00C0AA0D00DCAA0D0013B5304C45
:1070AC00FDF7EAF9228840F60A439A4201D0FDF72F
:1070BC001BFAFEF74BF802F075F82A4901F063FD54
:1070CC000120FDF7D3FA02F06DF8274901F05BFDC2
:1070DC00FF214FF4FA70FDF7E6FB4FF4FA7000F065
:1070EC00CDFEFF214FF4FA70FDF7E9FB4FF4FA7077
:1070FC0000F0C4FEFF214FF4FA70FDF7ECFB02F038
:10710C0051F81A4901F03FFDFEF7F8FAFEF74CF87A
:10711C00FFF702F9164B1749188800224FF0FF337E
:10712C00009201F0CFFA02F03DF8134A1349FFF731
:10713C0037FF02F037F8A278019262782378009238
:10714C0001210F4A01F049FDFDF70CFC00F0A0FBFA
:10715C000C4B00F59C500830186002B010BD00BFFD
:10716C006CD50320FDAA0D000DAB0D001DAB0D0061
:10717C0064C50320D9400D0004D2032032AB0D00AE
:10718C0040AB0D00F8D9032008B5FEF767F9FEF700
:10719C0053FA18B1BDE80840FFF780BF02F002F8BF
:1071AC00024A0349FFF7FCFE08BD00BF04D20320CE
:1071BC00CAAB0D0010B58368182B11D10A4C1922DB
:1071CC002146002301F02DFE0023237601F0EAFF77
:1071DC0022460649FFF7E4FEFDF70AFD012010BD2B
:1071EC004FF0FF3010BD00BF38D50320E7AB0D00CA
:1071FC007FB5324B324D00221A702B78222B04D0E3
:10720C0001F0D0FF2A462F491AE0FDF7CFFDFDF71C
:10721C0077FD2D4C064601F0C5FF2C4B0093012148
:10722C002B4B029601942B4A01F0D7FC2A4B284891
:10723C00196802F0B4FB50B101F0B4FF27492A469B
:10724C00FFF7AEFE04B0BDE87040FDF7DDBD24498C
:10725C001F4802F0A4FB30B93146204604B0BDE80B
:10726C007040FFF7CBBE1F49194802F098FB20B9BC
:10727C0004B0BDE87040FDF7F7BC1B49144802F0A0
:10728C008EFB20B904B0BDE87040FDF7D7BF17499D
:10729C000F4802F084FB20B904B0BDE87040FDF744
:1072AC00F7BF13490A4802F07AFB28B9204604B00C
:1072BC00BDE87040FFF77ABE04B070BD59D2032010
:1072CC00FCD9032005AC0D0004D50320ADC603206A
:1072DC0082C603202DAC0D00F0D4032059AC0D0058
:1072EC000BA20D00CAA30D00FEA30D00D5A30D002B
:1072FC007AAC0D0030B5144B85B001220C461A70D7
:10730C00054600F0C5FA114B00F59C402030186082
:10731C0001F048FF22460E49FFF742FE2846FDF7D2
:10732C00F1FD01F03FFF0B4901F02DFC0A496846C5
:10733C0001F002FD002221466846FDF7CBFB6846B2
:10734C0001F0B3FC05B030BDF8C6032034D50320E2
:10735C0086AC0D007DD203207AAC0D0010B501F087
:10736C0021FF0B4901F00FFC0A4B0020E42202FB29
:10737C0000F15C1894F8204034B1064B20311944CC
:10738C00BDE81040FFF7B6BF01300428EFD110BDA7
:10739C00A4AC0D006CD5032038B5404B1B781BB347
:1073AC003F4C25783DB101F0FDFE3E4901F0EBFB71
:1073BC000023237027E03C4C237833B101F0F2FE1C
:1073CC003A4901F0E0FB257031E0394B1B78F3B101
:1073DC0000F05EFA374B1B68834218D201F0E2FED4
:1073EC00354901F0D0FB0EE0344B1B7883B300F031
:1073FC004FFA334B1B6898422AD901F0D3FE31491E
:10740C0001F0C1FB20E0BDE83840FDF797BF2E4BE3
:10741C001B78002B41D000F03BFA2C4B1B68984298
:10742C0000D838BD01F0BEFE294901F0ACFBBDE827
:10743C003840FDF7BBBF274C2378C3B101F0B2FE37
:10744C00254901F0A0FB2570BDE83840FDF74ABF87
:10745C00224C2578002DEED001F0A4FE204901F03D
:10746C0092FB00232370BDE83840FFF731BD1D4B64
:10747C001B785BB100F00CFA1B4B1B6898420CD9C3
:10748C0001F090FE194901F07EFB02E0FEF7B8FA1C
:10749C0018B1BDE83840FFF761BF38BD65C60320A1
:1074AC00F0C60320B4AC0D0081C60320C4AC0D00A3
:1074BC0095C9032058C6032007AD0D00F1C6032063
:1074CC0068C6032084AD0D0002CA0320ECC603205D
:1074DC0046AD0D0051D5032026A90D007CD203200A
:1074EC00D3AC0D00F8C6032034D50320EBAC0D0053
:1074FC007FB5334E334C01F055FE03681B6998473A
:10750C0040B301F04FFE03685B6998472368F05461
:10751C0001F048FE03681B6998472368054638B19B
:10752C000133282193FBF1F201FB12332360E2E7D4
:10753C00F05401F037FE224901F025FB204925606B
:10754C00684601F0F9FB6846FEF7F2FB684601F06D
:10755C00ACFBD0E71C4B1B783BB101F023FE1B4965
:10756C0001F011FBFFF744FE27E0194B1B780BB120
:10757C00FEF782F8FEF704FFFFF70EFF154B1A78A3
:10758C003AB100221A70144B1968144B1868FFF7A3
:10759C0031F9134B1A783AB100221A700E4B196854
:1075AC00104B1868FFF768F90F4B1A682AB10022C4
:1075BC001A60FDF727FAFDF7FFF804B070BD00BFA5
:1075CC00DAC90320C0E3032059D20320C0AD0D005B
:1075DC00ACC60320D8C90320F8D10320ECD4032077
:1075EC00A1C60320FCC6032060C603202DE9F0438E
:1075FC005A4B5B4F5B4EDFF8A48101251D705A4B33
:10760C0087B002241C7000F07BF900221E2120465A
:10761C0000F038FB4FF014090346CDF800902246D9
:10762C0001954FF47F01384601F0ECF832464146A3
:10763C00384601F0E7FF00220A21204600F022FB29
:10764C004A4FCDF800900346224601954FF47F41F6
:10765C00384601F0D7F8464CDFF8449132464146A3
:10766C00384601F0CFFF434B029302AA0023424F4E
:10767C00DFF83081CDF8149041F288312046049720
:10768C00FCF7E2FD02A8FCF7C5FD32464146204658
:10769C0001F0B8FF394A3A4B12681A60394A04971C
:1076AC0012685A604FF448721A614FF4B972002490
:1076BC004FF47A715A62344F99636422DC601C7205
:1076CC005C619C61DA621D635D63DD631D642F4B3D
:1076DC00029302AA23463846CDF81490FCF7B4FD69
:1076EC0002A8FCF797FDDFF8C0903846284F3246C9
:1076FC00414601F087FFDFF8B4804946384601F077
:10770C001BFB3846234F3246414601F07BFF49466E
:10771C00384601F011FB32464146384601F072FF03
:10772C001D4B0C225A702146FF220A2628461E7039
:10773C009A7000F087FA01F021FE2346224641F2AE
:10774C00FB0101F023FE01F019FE234622463146CF
:10775C0001F024FE07B0BDE8F08300BFA0C60320F3
:10776C00B8C90320F4C503206CC6032070C90320DC
:10777C003CC60320B5400D00E9400D004CC503206C
:10778C00F8C503206CC503209CC90320C1400D0023
:10779C00DCC60320F0D403206CD50320A1410D00DE
:1077AC00E5400D00D9420D00B4A40D00B78C0D00BE
:1077BC0008B5024B1B689B68019308BD4802030087
:1077CC0008B5024B1B68DB68019308BD4802030037
:1077DC0008B5024B1B681B69019308BD48020300E6
:1077EC0008B5024B1B685B69019308BD4802030096
:1077FC0008B5024B1B68DB69019308BD4802030006
:10780C0008B5024B1B681B6A019308BD48020300B4
:10781C0008B5024B1B685B6A019308BD4802030064
:10782C0008B5024B1B689B6A019308BD4802030014
:10783C0008B5024B1B68DB6A019308BD48020300C4
:10784C0008B5024B1B685B6C019308BD4802030032
:10785C0008B5024B1B689B6C019308BD48020300E2
:10786C0008B5024B1B681B6F019308BD480203004F
:10787C0008B5024B1B685B68019308BD1802030036
:10788C0008B5024B1B68DB68019308BD18020300A6
:10789C0008B5024B1B685B69019308BD1802030015
:1078AC0008B5024B1B68DB69019308BD1802030085
:1078BC0008B5024B1B689B6A019308BD18020300B4
:1078CC0008B5024B1B68DB6A019308BD1802030064
:1078DC0008B5024B1B681B6B019308BD1802030013
:1078EC0008B5024B1B685B6C019308BD18020300C2
:1078FC0008B5024B1B689B6D019308BD1802030071
:10790C0008B5024B1B681B68019308BD2C020300D1
:10791C0008B5024B1B685B68019308BD2C02030081
:10792C0008B5024B1B689B68019308BD2C02030031
:10793C0008B5024B1B68DB68019308BD2C020300E1
:10794C0008B5024B1B681B69019308BD2C02030090
:10795C0008B5024B1B685B69019308BD2C02030040
:10796C0008B5024B1B689B69019308BD2C020300F0
:10797C0008B5024B1B68DB69019308BD2C020300A0
:10798C0008B5024B1B689B6A019308BD2C020300CF
:10799C0008B5024B1B681B6B019308BD2C0203003E
:1079AC0008B5024B1B689B6F019308BD2C020300AA
:1079BC0008B5024B1B68DB6F019308BD2C0203005A
:1079CC0008B5024B1B681B68019308BD2802030015
:1079DC0008B5024B1B68DB68019308BD2802030045
:1079EC0008B5024B1B681B69019308BD28020300F4
:1079FC0008B5024B1B689B69019308BD2802030064
:107A0C0008B5024B1B68DB69019308BD2802030013
:107A1C0008B5024B1B681B6A019308BD28020300C2
:107A2C0008B5024B1B685B6A019308BD2802030072
:107A3C0008B5024B1B689B6A019308BD2802030022
:107A4C0008B5024B1B68DB6A019308BD28020300D2
:107A5C0008B5024B1B681B6B019308BD2802030081
:107A6C0008B5024B1B685B6B019308BD2802030031
:107A7C0008B5024B1B681B6C019308BD2802030060
:107A8C0008B5024B1B681B6D019308BD280203004F
:107A9C0008B5024B1B685B69019308BD64020300C7
:107AAC0008B5024B1B689B68019308BD6802030074
:107ABC0008B5024B1B68DB68019308BD6802030024
:107ACC0008B5024B1B681B68019308BD2402030018
:107ADC0008B5024B1B68DB69019308BD300203003B
:107AEC0008B5024B1B681B6A019308BD30020300EA
:107AFC0008B5024B1B681B68019308BD3C020300D0
:107B0C0008B5024B1B689B68019308BD3C0203003F
:107B1C0008B5024B1B68DB68019308BD3C020300EF
:107B2C0008B5024B1B681B69019308BD3C0203009E
:107B3C0008B5024B1B685B69019308BD3C0203004E
:107B4C0008B5024B1B689B69019308BD3C020300FE
:107B5C0008B5024B1B68DB69019308BD3C020300AE
:107B6C0008B5024B1B681B6A019308BD3C0203005D
:107B7C0008B5024B1B689B6A019308BD3C020300CD
:107B8C0008B5024B1B68DB6A019308BD3C0203007D
:107B9C0008B5024B1B681B68019308BD4C0203001F
:107BAC0008B5024B1B685B68019308BD4C020300CF
:107BBC0008B5024B1B681B69019308BD4C020300FE
:107BCC0008B5024B1B685B69019308BD4C020300AE
:107BDC0008B5024B1B689B69019308BD4C0203005E
:107BEC0008B5024B1B68DB69019308BD4C0203000E
:107BFC0008B5024B1B681B6A019308BD4C020300BD
:107C0C0008B5034B1B68D3F88030019308BD000006
:107C1C006002030008B5024B1B681B68019308BD8A
:107C2C002002030008B5024B1B685B68019308BD7A
:107C3C002002030008B5024B1B685B69019308BD69
:107C4C002002030008B5024B1B68DB6A019308BDD8
:107C5C002002030008B5024B1B68DB6C019308BDC6
:107C6C002002030008B5024B1B685B6D019308BD35
:107C7C002002030008B5024B1B689B6D019308BDE5
:107C8C002002030008B5024B1B68DB6F019308BD93
:107C9C002002030008B5034B1B68D3F8883001930E
:107CAC0008BD00002002030008B5034B1B68D3F885
:107CBC009430019308BD00002002030008B5024B6C
:107CCC001B681B68019308BD4402030008B5024BF6
:107CDC001B685B68019308BD4402030008B5024BA6
:107CEC001B689B68019308BD4402030008B5024B56
:107CFC001B68DB68019308BD4402030008B5024B06
:107D0C001B681B69019308BD4402030008B5024BB4
:107D1C001B685B69019308BD4402030008B5024B64
:107D2C001B68DB69019308BD4402030008B5024BD4
:107D3C001B681B6A019308BD4402030008B5024B83
:107D4C001B685B6A019308BD4402030008B5024B33
:107D5C001B681B6B019308BD4402030008B5024B62
:107D6C001B68DB6B019308BD4402030008B5024B92
:107D7C001B685B68019308BD4002030008B5024B09
:107D8C001B689B68019308BD4002030008B5024BB9
:107D9C001B68DB68019308BD4002030008B5024B69
:107DAC001B681B69019308BD4002030008B5024B18
:107DBC001B685B69019308BD4002030008B5024BC8
:107DCC001B689B69019308BD4002030008B5024B78
:107DDC001B68DB69019308BD4002030008B5024B28
:107DEC001B681B6A019308BD4002030008B5024BD7
:107DFC001B681B6B019308BD4002030008B5024BC6
:107E0C001B685B6B019308BD4002030008B5024B75
:107E1C001B681B68019308BD1C02030008B5024BCC
:107E2C001B685B68019308BD1C02030008B5024B7C
:107E3C001B689B68019308BD1C02030008B5024B2C
:107E4C001B68DB68019308BD1C02030008B5024BDC
:107E5C001B685B6A019308BD1C02030008B5024B4A
:107E6C001B68DB6A019308BD1C02030008B5024BBA
:107E7C001B681B6B019308BD1C0203000021FFF75C
:107E8C00D9BE10B5836804460BB901F0DCFBC3689E
:107E9C009847A3681BB103222146204698472046E9
:107EAC001021BDE8104001F0B2BB10B504460068CB
:107EBC0008B1FFF7CDFC204610BD10B50368044691
:107ECC009B689847A368013BA3602BB923682046A5
:107EDC00DB68BDE81040184710BD0B68036013B198
:107EEC005A6801325A60704710B50446006828B1D0
:107EFC004368013B43600BB9FFF7DFFF204610BD21
:107F0C0010B5064C002320462360FFF799FC204651
:107F1C00034A0449BDE8104001F074BBC4E30320DC
:107F2C00F4C50320B77E0D0070470020704710B5D4
:107F3C001021044601F06BFB204610BD08B508B1BA
:107F4C00FFF7F5FF08BD0022026010B54FF69C72DA
:107F5C008280B1F9044084808A8002680C680460D5
:107F6C000A6010BD10B504460068FFF757FF2046A5
:107F7C0010BD38B5C468F4B12378022B03D104F1D9
:107F8C000C00FFF7EFFF656835B12846FCF742F9A6
:107F9C001021284601F03BFBA56835B12846FCF7BB
:107FAC0039F91021284601F032FB20461421BDE896
:107FBC00384001F02CBB38BD10B588B0044668467B
:107FCC0000F0BAFE694604A800F0F5FE04A8A0472C
:107FDC00044604A800F069FE684600F066FE2046E0
:107FEC0008B010BDF0B5102485B007460E461546F6
:107FFC0000212246684601F092FC00226946104698
:10800C00ADF80040029703960195FFF75FFE05B0AF
:10801C00F0BD13B5044691E8050000234B600B60DE
:10802C002060626001A801930093FFF75DFF20467A
:10803C0002B010BDF7B50C4602AD54F8043B45F840
:10804C00083D06460F4601A82146FFF746FF294684
:10805C003046FFF7DEFF01A8FFF746FF2046FFF78B
:10806C0043FF3846082101F0D2FA304603B0F0BD88
:10807C0013B50B46044603C88DE8030093E80300D0
:10808C0084E803009DE8030083E8030002B010BD00
:10809C0038B500230446036010200D46FBF7F5FFAE
:1080AC0028B1012343608360024B0360C5602060EC
:1080BC00204638BD84AE0D00826810B50AB901F0B7
:1080CC00C2FAC368BDE81040184708B5006800F153
:1080DC001001FFF7F1FF08BD826810B50AB901F075
:1080EC00B2FAC368BDE81040184708B5006800F143
:1080FC001001FFF7F1FF08BD38B5002383608B68D2
:10810C0004460D462BB102229847EB68E360AB683E
:10811C00A360204638BD0000F0B589B004686846FD
:10812C00FFF711FF00238DF808304FF00202D4E85E
:10813C004F3F002B03D1C4E8412F0029F7D102D0C7
:10814C008DF8083063E014F10C0503D0694628461D
:10815C00FFF7F9FEBFF35F8F01236370002004F17A
:10816C000803BFF35F8F53E8006F43E80002002A57
:10817C00F9D1BFF35F8F002E49D0FFF76BFD20B113
:10818C0029463046FFF798FF3AE0314602A8FFF740
:10819C00B3FFE068B4F9105008B101F023FC06906D
:1081AC001020ADF81C50FBF770FF0546E8B1002716
:1081BC0087601820FBF769FF044688B10146876089
:1081CC0002A8FFF755FF049BA268A360059B0492CD
:1081DC0006A9E268E36004F110000592FFF7B3FE14
:1081EC000D4BEB600D4B2C60AB6006A8FFF7BAFE95
:1081FC0002A8FCF70FF8002229460948FFF732FDC8
:10820C003046FCF707F81021304601F000FA6846BA
:10821C00FFF7A8FE09B0F0BDD7800D004D830D000F
:10822C008F7E0D002DE9F04F8BB006460F46904621
:10823C0099469DF850A0FFF769FD07AD834630BB0A
:10824C004FF62E73059005A92846ADF81830FFF7A8
:10825C007AFE1420FBF719FF044658B10223037071
:10826C0001234370C0F804B0C0F808B029460C30A4
:10827C00FFF769FE3046214640F8044BFFF708FF34
:10828C002846FFF76FFE05A8FFF76CFE52E00024AE
:10829C000C2314206C60AC600793FBF7F6FE0146D0
:1082AC0018B1047044704460846004A80391FFF713
:1082BC00EFFE224B08930820FBF7E7FE044628B19B
:1082CC00039B40F8043B04A9FFF707FE00955FFAF7
:1082DC008AF34A46414638460994FFF727FD20B9F0
:1082EC00039B5B7803F0FF0283B1039B059304A906
:1082FC0006A8FFF7F2FD05A93046FFF78AFE06A88F
:10830C00FFF7F2FD04A8FFF7EFFD13E04FF69C73A7
:10831C0005A903A80592ADF81830FFF7FDFE05A8D6
:10832C00FFF720FE05A80999FFF784FE06A8FFF7C2
:10833C00DBFDDAE730460BB0BDE8F08FBD840D00F5
:10834C00022AF8B5044606D0032A17D0012A22D1F6
:10835C000B6803601FE018200E68FBF796FE0546BD
:10836C0050B13146FFF7C8FE3069B6F9147008B148
:10837C0001F038FB2861AF8225600CE0046854B131
:10838C0004F11000FFF7EEFD2046FBF743FF182128
:10839C00204601F03CF90020F8BD38B5002383607D
:1083AC008B6804460D462BB102229847EB68E360BC
:1083BC00AB68A360204638BD022A70B5044606D0CF
:1083CC00032A11D0012A18D10B68036015E0142080
:1083DC000E68FBF75AFE054620B13146FFF7DDFF6C
:1083EC00337C2B74256008E0046834B12046FBF71D
:1083FC0011FF1421204601F00AF9002070BD000085
:10840C00F0B5002387B00C46BFF35F8F50E8006FC8
:10841C0040E80032002AF9D1BFF35F8F002E3FD025
:10842C001846FFF717FC074620B121463046FFF7E8
:10843C0053FE2EE0314601A8FFF7AFFF23788DF8ED
:10844C0014301020FBF721FE0546D0B187601420B4
:10845C00FBF71BFE044678B18760014601A8FFF7C5
:10846C0007FE039BA268A360049B0392E268E3608F
:10847C009DF81430049223740A4BEB600A4B2C6069
:10848C00AB6001A8FBF7C6FE002229460748FFF7A0
:10849C00E9FB3046FBF7BEFE1021304601F0B7F881
:1084AC0007B0F0BDF7800D00C5830D008F7E0D0069
:1084BC0030B585B004460D4668461146FFF7BAFD47
:1084CC007CB124B228460DB101F08CFA029002A9BD
:1084DC006846ADF80C40FFF71FFE02A8FFF742FDFF
:1084EC001DE000988DF808404FF00102D0E84F3F96
:1084FC00A34203D1C0E8412F0029F7D102D08DF857
:10850C0008300CE010F10C014FF0010318BF03739D
:10851C00BFF35F8F043000F8033CFFF771FF01A835
:10852C00FFF7E2FC05B030BD002211464068FFF7B2
:10853C0055BC002211464068FFF760BC0022406821
:10854C00FFF754BC002281F001014068FFF73EBCEC
:10855C0000231A4619464068FFF730BC00231A4620
:10856C0019464068FFF722BC002211464068FFF70D
:10857C0015BC002211464068FFF700BC0022022106
:10858C004068FFF703BC00231A464068FFF7EEBBB8
:10859C00024B03225A60024A1A607047C8E3032058
:1085AC00A0AE0D007047F8B5064615460C468F1860
:1085BC00BC4206D0336814F8011B9B6830469847C0
:1085CC00F6E72846F8BD0022007CFFF721BA00210F
:1085DC00007CFFF725BA0021007CFFF729BA0021A7
:1085EC00007CFFF72DBA0021007CFFF731BA10B5E3
:1085FC001421044601F00BF8204610BD10B50446BA
:10860C00002363604FF47A73A360044B2174084613
:10861C0023601146FFF72CFA204610BDD4AE0D0096
:10862C000022007CFFF7CCB900231A461946007CC7
:10863C00FFF7CEB90021007CFFF7D2B970B50C461C
:10864C0086B0142506462A46002101A801F067F9D8
:10865C0023788DF8083063680393E3680493002251
:10866C00237A307CADF8045001A90593FFF708FA82
:10867C0006B070BD1FB500338DF800104FF06401CB
:10868C00039118BF0123694601928DF80830FFF75A
:10869C00D5FF05B05DF804FB0123FFF7EBBF00220B
:1086AC00007CFFF7A5B9C9B2FFF7F9BF0022007C27
:1086BC00FFF7A6B90121FFF7F9BF0021007CFFF7F6
:1086CC00CFB90047F0B585B01C460E461746054697
:1086DC00FFF74EF9002084424FF0040303908DF80D
:1086EC000C30A5BF9DF828308DF80E30034603AB37
:1086FC00009332463B460649A8BF8DF80D402846EC
:10870C00FFF72EF9B0FA80F0400905B0F0BD00BFBC
:10871C00CF860D00704710B51821044600F077FF86
:10872C00204610BDF0B5037D062B8DB00E4600F132
:10873C0004074FF0000402D000F1080518E00CAD5E
:10874C00394605F8304D2F232A460A20FFF7A0F9A9
:10875C00284601F062F933680246DB682946304648
:10876C0098470FE024B12E21304600F0FDF9044467
:10877C0015F8011D0A22304600F00FFABD420444E0
:10878C00F0D120460DB0F0BD10B5054B04461122BA
:10879C0040F8043B002101F0C2F8204610BD00BF98
:1087AC00FCAE0D000346074A10B543F8042B01F14B
:1087BC00100251F8044B43F8044B9142F9D10A785A
:1087CC001A7010BDFCAE0D0010B59DF8084044EABF
:1087DC00032343EA024242EA016104234160037528
:1087EC0010BD37B50D788B784A78C9780091294639
:1087FC00FFF7EAFF03B030BD0A680B4692680146EA
:10880C001846104770B50E4C04601C2444609DF84B
:10881C0014409DF8106004F0030444EA860400251B
:10882C00E4B20474427485744161427C85600F2A01
:10883C0008BF044BC56006BF8361C061038370BD74
:10884C000C9C0D0005880D00014B024A1A60704704
:10885C00D0E3032073AF0D00002211464068FFF7F0
:10886C00BDBA002211464068FFF7C8BA0022406822
:10887C00FFF7BCBA002281F001014068FFF7A6BAED
:10888C0000231A4601214068FFF798BA00231A46C4
:10889C0019464068FFF78ABA002211464068FFF774
:1088AC007DBA002211464068FFF768BA0022022107
:1088BC004068FFF76BBA00231A464068FFF756BAB8
:1088CC0038B5054688B104684CB1A3681BB10322C6
:1088DC002146204698471021204600F098FE284655
:1088EC001421BDE8384000F092BE38BD10B10368C9
:1088FC005B681847704710B503680446BBB15868ED
:10890C00FEF756FF78B923685A7C12B95868FEF7FF
:10891C005FFF23685868FEF763FF2068002323601D
:10892C0028B1FFF7CDFF206808B1FFF7C9FF20463B
:10893C0010BD38B50446D0F8C40108B1FBF7A9FB4B
:10894C00D4F8C00108B1FEF783FFD4F8BC5135B19F
:10895C002846FFF7D0FF0421284600F058FE206877
:10896C0008B1FFF7C3FF204638BD000010B5044B1B
:10897C00044640F8083BFFF7DCFF204610BD00BF63
:10898C00E4AF0D0038B50E4C0E4B236000250223CE
:10899C0004F5E4706360A560C4F8C451C4F8C85110
:1089AC00FEF74EFF084BC4F8CC5184F8D05123602D
:1089BC002046064A0649BDE8384000F023BE00BFF9
:1089CC00D4E3032018B00D00E4AF0D00F4C5032070
:1089DC0079890D0000231A464068FFF7C7B90022B9
:1089EC0002214068FFF7D2B9002211464068FFF718
:1089FC00C5B9002211464068FFF7D0B900231A46CA
:108A0C0019464068FFF7D2B900231A461946406848
:108A1C00FFF7D4B9002281F001014068FFF7D6B905
:108A2C0000224068FFF7E2B9002211464068FFF7C8
:108A3C00E5B9002211464068FFF7D0B92DE9F043A3
:108A4C00002495B016460D460746FFF79DFE2146BD
:108A5C0020220CA8009400F062FF40230C932146C6
:108A6C006B460CAA3046FFF723F80446002844D185
:108A7C00024601216868FFF791F9022180462246DF
:108A8C006868FFF78BF9009E81462146002E34D092
:108A9C00002932D17368022B02D00A2B09D02AE0AC
:108AAC00B8F1000F27D0716938460431FFF799FEF1
:108ABC0020E0B9F1000F1ED07469112201A800F05A
:108ACC002EFF06238DF8143001AD04F10803183481
:108ADC00186859682A4603C20833A3421546F7D1D1
:108AEC0001A906A807ADFFF75DFE0FCD3C1D0FC415
:108AFC002B6823700121F669C8E70098FEF7D0FFB8
:108B0C00384615B0BDE8F083024B034A1A600022C8
:108B1C005A607047A8E5032018B00D00F8B506465A
:108B2C000D468F180024BD420CD0336815F8011B7C
:108B3C009B6830469847002801DB0444F3E7002C7F
:108B4C0008BF04462046F8BD70B505460C460846DD
:108B5C0049B100F062FF2B68024621462846DB68CB
:108B6C00BDE87040184770BD03689B68184738B55E
:108B7C000D210546FFF7F8FF0A2104462846FFF7AA
:108B8C00F3FF204438BD38B50546FFF7DDFF04463A
:108B9C002846FFF7ECFF204438BD30B58BB00B46B0
:108BAC0000218DF82410012A98BF0A220DF123040C
:108BBC00B3FBF2F505FB123303F0FF03092B94BF53
:108BCC0030333733DBB2214604F801392B46002D04
:108BDC00EED1FFF7B9FF0BB030BD0CB42DE9F0436B
:108BEC0087B000AF07F13804054654F8049B3C608D
:108BFC000E4623464A461421381DFFF727F9132841
:108C0C0005D8391D2846FFF79FFF044613E000F1F5
:108C1C00080323F00703E846ADEB030D411C234684
:108C2C004A4668463C60FFF711F969462846FFF74B
:108C3C008BFF0446C5461EB12846FFF798FF044437
:108C4C0020461C37BD46BDE8F04302B0704710B556
:108C5C000446FBF7DFFA204610BD00000348044A27
:108C6C0004490023836000F0CDBC00BFB0E50320B5
:108C7C00F4C503205B8C0D00704710B50C21044625
:108C8C0000F0C5FC204610BD10B5054B0360044632
:108C9C0001710846FEF71CFF0023A360204610BD9F
:108CAC004CB00D000079FEF71BBF10B504460068F0
:108CBC00FFF7B4F8204610BD10B50446006808B1A3
:108CCC00FFF7ACF800232360A360636010BD38B5D8
:108CDC0004460D4600680131FFF7A8F810B184E88E
:108CEC002100012038BD10B50368044613B1436858
:108CFC008B4207D22046FFF7EAFF20B1A3680BB9DD
:108D0C0022681370012010BD70B50E461146044642
:108D1C001546FFF7E8FF18B92046FFF7CDFF09E02D
:108D2C002A463146A560206800F0EEFD2268A36853
:108D3C000021D154204670BD38B500230446036091
:108D4C004360836003730D4639B1084600F065FE3D
:108D5C00294602462046FFF7D7FF204638BD38B5D6
:108D6C00054600680C4660B16A688B689A4206D367
:108D7C00096800F01EFEA368AB6000230AE0FFF751
:108D8C004DF823682B6063686B60A368AB600023AD
:108D9C0023606360A36038BD884210B50B4604465F
:108DAC0007D0096819B19A68FFF7AEFF01E0FFF729
:108DBC0083FF204610BD10B50023044603604360BA
:108DCC0083600373FFF7E8FF204610BD884210B59F
:108DDC00044601D0FFF7C3FF204610BD70B5044612
:108DEC000E4609B9002070BD6AB18368D5182946B2
:108DFC00FFF779FF0028F5D02068A36831461844A6
:108E0C0000F0D7FDA560012070BD10B58A68096817
:108E1C000446FFF7E3FF10B92046FFF74DFF20464D
:108E2C0010BD70B50E469AB191B185689D4202D8BD
:108E3C0000230B7070BD541EED1A0168AC4228BFA4
:108E4C002C4619442246304600F004FE00233355CC
:108E5C0070BD10B58368934207D904680968A018DF
:108E6C0000F00BFE08B1001B10BD4FF0FF3010BD21
:108E7C00F8B59A420F461D460C4988BF1346144656
:108E8C00064684BF2C461D46FFF756FFBA6894422F
:108E9C000AD83968954294BFC4EB0502C4EB0202B0
:108EAC0021443046FFF730FF3046F8BDB4A40D0026
:108EBC0010B504468B68FFF7DBFF204610BD006839
:108ECC0008B100F00FBD704710B50446006818B12A
:108EDC00FEF7A4FF0023236010BD10B50446FFF776
:108EEC00F3FF204610BD000010B5094C00204FF6D2
:108EFC00FF732060A080A07120816381FEF792FE39
:108F0C002046044A0449BDE8104000F07BBB00BF7A
:108F1C00C0E50320F4C50320E78E0D0008B5002042
:108F2C00FEF714FF28B1FEF7F1FE80F00100C0B28D
:108F3C0008BD012008BD10B50020FEF7D9FC044681
:108F4C0068B9FEF767FE01280BD12046FEF792FEAA
:108F5C0038B9FFF7E3FF30B9FEF7C0FEF9E701209F
:108F6C0010BD002010BDFFF7D9FF0020FEF7C0FC9C
:108F7C00003018BF012010BD08B5FFF7DCFFBDE8BD
:108F8C000840FEF78DBC0000024B1A68024B1A60B9
:108F9C00704700BF88C50320CCE50320F8B585B227
:108FAC00044628460E46174600F000FA60B102212E
:108FBC002846FEF7ADFC022806D13A46314620463B
:108FCC00BDE8F840FEF77CBDF8BD704741747047B2
:108FDC0008B5007CFEF7CCFD20EAE07008BD08B5B2
:108FEC00007CFEF79DFD20EAE07008BD08B5007C12
:108FFC00FEF7A6FD30EA200028BF4FF0FF3008BD79
:10900C0008B5007CFEF794FD30EA200028BF4FF035
:10901C00FF3008BD007CFEF79BBD10B51421044643
:10902C0000F0F5FA204610BD70B5457C04460E469E
:10903C0025B9007CFEF79CFD002805DD3146207C1F
:10904C00BDE87040FEF764BD284670BD10B50446FF
:10905C0008461146002262604FF47A72A260054AFB
:10906C0022600122207462741A46FEF741FD2046EC
:10907C0010BD00BF88B00D000023007CFEF780BD42
:10908C000022FFF7F9BF007CFEF73ABD007CFEF72B
:10909C0067BD000038B50C4D296811F0010411D1E1
:1090AC002846FAF7F8FF68B1084A094B09482146E7
:1090BC00FFF7CCFF2846FAF7F3FF074A07490548A4
:1090CC0000F0A0FA034838BD68E603206CE60320E4
:1090DC00E4E50320D0E50320F4C50320D78F0D0071
:1090EC0041747047704708B50021007CFEF770FD95
:1090FC0030EA200028BF4FF0FF3008BD08B5012131
:10910C00007CFEF765FD30EA200028BF4FF0FF30F1
:10911C0008BD08B5007CFEF753FD20EAE07008BDE1
:10912C0008B5007CFEF744FD20EAE07008BD007C29
:10913C00FEF75EBD10B51421044600F068FA204617
:10914C0010BD38B50446007C0D46FEF739FD0028ED
:10915C0001DC607C28B12946207CFEF741FD20EA29
:10916C00E07038BD10B50446002363604FF47A7389
:10917C00A360054B236001230846217463741146D8
:10918C00FEF706FD204610BDB8B00D000022007C95
:10919C00FEF706BD10B514220446002100F0BFFBFB
:1091AC00204610BD30B50E4D87B001A8FFF7F2FF79
:1091BC00296811F0010410D12846FAF76CFF60B150
:1091CC0001AA21460748FFF7CDFF2846FAF768FFAA
:1091DC00054A0649034800F015FA024807B030BDAD
:1091EC00F0E60320F4E60320F4C50320F1900D0013
:1091FC00002211464068FEF7D1BD0022114640689E
:10920C00FEF7ECBD002211464068FEF7F7BD0022C8
:10921C004068FEF7EBBD002281F001014068FEF7CB
:10922C00D5BD00231A4619464068FEF7C7BD00237A
:10923C001A4619464068FEF7B9BD0022114640682F
:10924C00FEF79CBD002202214068FEF79FBD002363
:10925C001A464068FEF78ABD024B04225A60024A45
:10926C001A60704708E70320E8B00D0008B50C4BF6
:10927C0033B1FFF797FF03681B699847002809DC97
:10928C00084B63B1FFF706FF03681B69984700287A
:10929C0003DC08BDAFF30080F2E7AFF3008008BD3C
:1092AC00000000000000000008B5FFF7DFFFFEF72C
:1092BC00EFFA014B186008BD18E703200248034A77
:1092CC000349121A00F020BB00F4032004F403201D
:1092DC00B0B20D0007B5002300931A466FF077016A
:1092EC00FEF7E2FC03B05DF804FB000007B5438811
:1092FC000A2B08D0502B09D1094B1B683BB103B08A
:10930C005DF804EB1847FFF7E5FF06E00023009338
:10931C001A466FF07701FEF7C7FC03B05DF804FB4B
:10932C0010E7032038B5104C104D2368AB42104B9E
:10933C000CBF012200221A7002D0FFF7BFFF25607C
:10934C00FEF796FA044600F0F3FA0A4B13B12046E6
:10935C00AFF3008000210748FEF700FD002106480E
:10936C00BDE83840FEF796BC00F403201E1C279A7B
:10937C0014E7032000000000F9920D0008B5024B21
:10938C001B681B68019308BD5C02030008B5024B07
:10939C001B685B68019308BD5C02030008B5024BB7
:1093AC001B689B68019308BD5C02030010B5044662
:1093BC0000F008F9FFF776FC28B1A4F10B03022B9F
:1093CC0001D8002010BD00F0D7F8FFF776F908B1EE
:1093DC00012CF6D9FFF75EFEFFF758FE18B1A4F189
:1093EC000903012BEDD9232C8CBF0020012010BDCB
:1093FC00232838B504460D460AD8FF2908D0FFF7B4
:10940C00D5FF28B129462046BDE83840FEF788BA7A
:10941C0038BD38B504460D46FEF78AFAFF2810D041
:10942C00062804D84D2323FA00F0C30709D420469C
:10943C00FFF7BCFF28B129462046BDE83840FEF7AF
:10944C007FBA38BD10B50446FEF772FA0438C0B2C4
:10945C00012808D92046FFF7A9FF20B12046BDE816
:10946C001040FEF775BA002010BD0D2810B504464B
:10947C009CBF0E34A4B22046FFF798FF50B10321D5
:10948C002046FEF745FA032804D12046BDE81040DB
:10949C00FEF77EBA002010BD38B504460D46FFF726
:1094AC0085FFF0B104212046FEF732FA042805D1DD
:1094BC00A9B22046BDE83840FEF762BA0221204628
:1094CC00FEF726FA02280CD12046FEF731FA0128C5
:1094DC0001D0042805D129462046BDE83840FEF7C6
:1094EC005FBA38BD70B504460D461646FFF75EFFF1
:1094FC0098B102212046FEF70BFA02280DD1204626
:10950C00FEF716FA012801D0042806D13246294666
:10951C002046BDE87040FEF74BBA70BD10B5074C45
:10952C002368DB0708D42046FAF7B5FD20B1FEF717
:10953C00BFF92046FAF7B4FD014810BD1CE7032023
:10954C0020E7032070B5044614252A46094E002155
:10955C0000F0E5F9258020253146A56025612846D7
:10956C0000F06FF831466060284600F06AF8E06061
:10957C00204670BD14B10D0030B50E4D296811F0A8
:10958C00010487B013D12846FAF785FD78B101A8FC
:10959C00FFF7D8FF01AA21460748FFF72FF8284606
:1095AC00FAF77EFD054A0649034800F02BF80248FD
:1095BC0007B030BD24E7032028E70320F4C50320BF
:1095CC00B1850D0038B50B4D296811F001040FD190
:1095DC002846FAF760FD58B121460748FFF754FBBF
:1095EC002846FAF75DFD054A0549034800F00AF8DC
:1095FC00014838BD48E703203CE70320F4C50320AD
:10960C00858C0D000B460146184600F06FB9FAF731
:10961C003EBD0000024B1868BFF35F8F704700BF60
:10962C004CE7032010B5002814BF04460124204643
:10963C00FEF7ECFB20B9FFF7EDFF08B18047F6E72A
:10964C0010BDFFF7EFBF08B5FEF708FC244B1A68F6
:10965C00D0075CBF01221A60224B1A68D1075CBF8D
:10966C0001221A60204B1A68D2075CBF01221A60D3
:10967C001E4B1A68D0075CBF01221A601C4B1A687B
:10968C00D1075CBF01221A601A4B1A68D2075CBF63
:10969C0001221A60184B1A68D0075CBF01221A60AD
:1096AC00164B1A68D1075CBF01221A60144B1A685A
:1096BC00D2075CBF01221A60124B1A68D0075CBF3C
:1096CC0001221A60104B1A68D1075CBF01221A6084
:1096DC000E4B1A68D2075CBF01221A60704700BF9C
:1096EC007CE7032078E7032074E7032070E703206E
:1096FC006CE7032068E7032064E7032060E703209E
:10970C005CE7032058E7032054E7032050E70320CD
:10971C00184B1A68D1075CBF01221A60164B1A68E5
:10972C00D2075CBF01221A60144B1A68D0075CBFC9
:10973C0001221A60124B1A68D1075CBF01221A6011
:10974C00104B1A68D2075CBF01221A600E4B1A68C4
:10975C00D0075CBF01221A600C4B1A68D1075CBFA2
:10976C0001221A600A4B1A68D2075CBF01221A60E8
:10977C00704700BF9CE7032098E7032094E7032081
:10978C0090E703208CE7032088E7032084E703207D
:10979C0080E70320184B1A68D1075CBF01221A60BE
:1097AC00164B1A68D2075CBF01221A60144B1A6858
:1097BC00D0075CBF01221A60124B1A68D1075CBF3C
:1097CC0001221A60104B1A68D2075CBF01221A6082
:1097DC000E4B1A68D0075CBF01221A600C4B1A683A
:1097EC00D1075CBF01221A600A4B1A68D2075CBF12
:1097FC0001221A60704700BFBCE70320B8E70320C2
:10980C00B4E70320B0E70320ACE70320A8E703206C
:10981C00A4E70320A0E70320244B1A68D0075CBF01
:10982C0001221A60224B1A68D1075CBF01221A6010
:10983C00204B1A68D2075CBF01221A601E4B1A68B3
:10984C00D0075CBF01221A601C4B1A68D1075CBFA1
:10985C0001221A601A4B1A68D2075CBF01221A60E7
:10986C00184B1A68D0075CBF01221A60164B1A6895
:10987C00D1075CBF01221A60144B1A68D2075CBF77
:10988C0001221A60124B1A68D0075CBF01221A60C1
:10989C00104B1A68D1075CBF01221A600E4B1A6874
:1098AC00D2075CBF01221A60704700BFECE70320AF
:1098BC00E8E70320E4E70320E0E70320DCE70320EC
:1098CC00D8E70320D4E70320D0E70320CCE703201C
:1098DC00C8E70320C4E70320C0E703200A220021C5
:1098EC0000F06CB90A22002100F068B910B5054CE3
:1098FC0013462CB10A4601460220AFF3008010BD7E
:10990C00204610BD0000000010B5431E0A449142D1
:10991C0004D011F8014B03F8014FF8E710BD0244D5
:10992C000346934202D003F8011BFAE7704700008C
:10993C0038B5124B1C68A36B0546D3B91820FEF73B
:10994C0065FA43F20E33A06303804AF6CD334380AD
:10995C0041F2342383804EF26D63C3804DF6EC6389
:10996C000381052343810B23838101220023C0E95A
:10997C000423A36B00221D615A6138BDF0C503207E
:10998C0010B50246134601321C78002CFAD1013B6B
:10999C0011F8012B03F8012F002AF9D110BD10F892
:1099AC00012B11F8013B012A28BF9A42F7D0D01A9B
:1099BC007047034611F8012B03F8012B002AF9D14B
:1099CC00704770B503461A4612F8015B45B14C1E40
:1099DC0014F8016F16B1B542FAD101E01346F2E763
:1099EC00181A70BD024B0146186800F003B800BF8E
:1099FC00F0C5032070B5064608460C4600F00DF87D
:109A0C00451C29463046FEF731FA064618B12A465F
:109A1C002146FFF779FF304670BD034613F8012B42
:109A2C00002AFBD1181A0138704730B582B1451E97
:109A3C00013915F8013F11F8014FA34206D1EC434F
:109A4C001444E04201D0002BF3D11C46181B30BD4E
:109A5C00104630BD10B5034642B111F8014B03F866
:109A6C00014B013A002CF7D11A4400E010BD93428F
:109A7C0002D003F8014BFAE710BDF0B5037863B9D7
:109A8C000B78002B18BF0020F0BD15F8012F62B128
:109A9C0014F8017F97423046F7D00346461C0078F5
:109AAC0010B14D1E5C1EF0E7F0BD1846F0BD000075
:109ABC002DE9F04780464048D0F800900F463D46CF
:109ACC0015F8014B09EB0400407800F0080000F099
