:02000002D0002C
:1040000000400D008CB40D00000006000C000501FE
:084010000401DE0500000000C0
:04401800A09C0D005B
:10401C0009480A49884208B505D0094A824202D0AB
:10402C00121A05F0D3FC0748074A0021121A05F0B2
:10403C00D8FC014808BD00BF44C50320B4B30D0033
:10404C00F0C50320F0C50320F0E7032070B505F0A0
:10405C00CBF9074C074BE41AA40800251E46A542D1
:10406C0004D056F8253098470135F8E770BD00BFED
:10407C00A8B30D0070B30D0003F0B0B808B503F091
:10408C0079FABDE8084005F071B903F019BF03F0E7
:10409C001FBF03F01DBF0078B0FA80F040097047D5
:1040AC000123037070477047014B01221A7070474F
:1040BC00B8C90320034B044A1B7883F00103136037
:1040CC00704700BF58C603205CC60320014B012279
:1040DC001A7070470CD5032003681847012A02D0C8
:1040EC00022A02D004E0016002E00B6800B1036018
:1040FC000020704713B50C46114805F0A3FC204670
:10410C0005F0EDFCB0F5007F07DB204410F8013C16
:10411C00A3F122025342534100E00123094C2370C6
:10412C0005F0A2F82378084A002B14BF59234E231C
:10413C0000930121024B04F0AAFD02B010BD00BF98
:10414C00FCD9032039D20320DCA00D00436913B144
:10415C0083690C301847704713B500210446084694
:10416C0003F088FB02A90023204641F8043D03F02C
:10417C0099FB019C0CB1012323710021012003F058
:10418C0079FB2CB1236820469B6898470023237148
:10419C0002B010BD10B5054B00220446114640F884
:1041AC00043B03F087FD204610BD00BFD09C0D00E2
:1041BC0010B50446FFF7EEFF2046202105F089FAE2
:1041CC00204610BD37B50C4605460F4805F03AFCA5
:1041DC00204605F084FCB0F5007F07DB204410F886
:1041EC00013CA3F122025342534100E00123074A50
:1041FC00137005F039F800942B46054A012104F0A0
:10420C0046FD03B030BD00BFFCD9032039D20320DA
:10421C0007A10D0010B58368044613B103220146B3
:10422C009847204610BD000008B503F07BFB034BFC
:10423C001860BDE8084003F0ABBD00BF18E70320D1
:10424C000368C9B29B681847F0B500258E4615491E
:10425C000571856045610160044692E8030085B0F4
:10426C0002AF04F10C0687E8030096E8030082E82D
:10427C00030097E8030086E803009168606990608A
:10428C006161D168A069D060A1618DE82800064AFF
:10429C002346714604F1080003F0F4FA204605B0F9
:1042AC00F0BD00BFBC9C0D0065410D0007B58068DA
:1042BC00002340B18DE80A001A46022103F0FAFAF5
:1042CC00B0FA80F0400903B05DF804FB38B50F4B31
:1042DC000360836804469BB16FF00041FFF7E6FF73
:1042EC000021A06803F0FEFA237903F0FF0513B157
:1042FC0003F0A8FAF8E72946A06803F0CBFAA5600A
:10430C0004F10C00FFF786FF204638BDBC9C0D0065
:10431C0010B50446FFF7DAFF20461C2105F0D9F949
:10432C00204610BD73B506460D4611461446FFF7E0
:10433C00BDFFB068002340B1019300952246194699
:10434C0003F0B8FAB0FA80F0400902B070BD00007A
:10435C0040F67263984270B51CDC0F4A002352F889
:10436C00044BA04203F101050FDC116888420CDDFF
:10437C000A4E56F8232056F825309D1A031B6B4322
:10438C00081B93FBF0F0104470BD142D2B46E6D1A6
:10439C00002070BD184670BD20AF0D00CCAE0D00D6
:1043AC001FB50C2AA8BF0C22014401A8144605F025
:1043BC00B3FB04AB1C4401A8002304F80C3C05F02F
:1043CC00EFFA04B010BD2DE9FF410D68D2F8008062
:1043DC0046190F463046414605F0B1FB801B0E28AE
:1043EC00A8BF0E20024631460446684605F094FBF1
:1043FC00404605F074FB04AB284420441C44386050
:10440C000023684604F8103C05F0CAFA04B0BDE875
:10441C00F081000010B5084C01444FF0FF32884287
:10442C0008D010F8013B5340DBB254F8233083EA38
:10443C001222F4E7D04310BDDC9C0D00021E30B5F7
:10444C0016DB9110022329B1914203D0023342FAB8
:10445C0003F1F8E7023B00204000411C42FA03F450
:10446C0001FB01F5A542D8BF0846023BF4D530BD8F
:10447C004FF0FF3030BD000008B505F0B1F84FF437
:10448C006A7203490020BDE8084003F073BA00BF0C
:10449C004CD5032008B505F0A3F84FF46A72034914
:1044AC000020BDE8084003F06DBA00BF4CD50320D6
:1044BC0008B505F095F8BDE8084003F06BBA0000AC
:1044CC0008B5FFF7F5FF044B0B221A700C225A703B
:1044DC00FF229A70012008BD4CD5032038B504F09A
:1044EC00C3FE174904F0A9FB002405F079F8204617
:1044FC0003F030FA054604F0B7FE036829469B68C2
:10450C0001349847B4F56A7FEFD104F0ADFE04F0A6
:10451C0088FB04F0A9FE0B490B4D04F08EFB002424
:10452C0004F0A2FE0368295D9B6801349847B4F53A
:10453C006A7FF5D104F098FEBDE8384004F071BBF9
:10454C003FA10D0051A10D004CD50320012870B5E1
:10455C000E461D4D1BD11D4B188804F0D5FF04468B
:10456C0040B904F081FE1A4904F067FB194B2C602A
:10457C001C6016E02B68002B15DC04F075FE164948
:10458C0004F05BFB134B00202860186070BD2A6898
:10459C004AF227039A4206DD04F066FE0F4904F046
:1045AC004CFB002070BD0E4C0121208804F093FFC1
:1045BC00304603F0AFF90021208804F08CFF304620
:1045CC0003F0A8F9012070BD10D503206CC50320A1
:1045DC0063A10D0078C903207FA10D0096A10D00E9
:1045EC0074C503202DE9F84F1C4BDFF87890C70FEA
:1045FC00044688461888394604F06DFF184B84EA47
:10460C00E4711A68A1EBE47111441922002C91FB9E
:10461C00F2F64FF0000402FB16121A60B4BF6FF0F2
:10462C00180A4FF0190A1D46A346B44213DA414644
:10463C003846FFF78BFF58B1D9F800305344002BA4
:10464C0002DDC9F8003004E0C9F800B0C5F800B0CC
:10465C0034460134E9E7BDE8F88F00BF4CC50320B0
:10466C0078C9032010D50320024B0021188804F0D0
:10467C0032BF00BF80C5032008B5054B0121188847
:10468C0004F029FF0A20BDE8084003F051BC00BF2C
:10469C0080C5032038B504460D46FFF7EDFF2946CB
:1046AC002046FFF79FFFBDE83840FFF7DDBF000055
:1046BC00134B10B54AF228021A600446FFF7DCFFD0
:1046CC0096211048FFF78EFF642003F031FC9621F1
:1046DC004FF4FA60FFF786FF642003F029FC4FF4D7
:1046EC007A710948FFF77EFF4FF47A7142F6302059
:1046FC00FFF778FF1CB1BDE81040FFF7B5BF10BD48
:10470C0010D50320A015FFFF48F4FFFF2DE9F04161
:10471C0006460D46904600244742444509DA294690
:10472C003046FFF75FFF29463846FFF75BFF013441
:10473C00F3E7BDE8F08100002DE9F74F1E4D009323
:10474C0092462B681D4F80EAE072A2EBE0721A448D
:10475C001923002892FBF3F64FF0000403FB1623F9
:10476C002B6089464FEAD078B4BF6FF0180B4FF02E
:10477C00190B2346B44201931ADA0C9A009950464D
:10478C00FFF7C4FF0E4B4146188804F0A4FE4946BF
:10479C004046FFF7DBFE019B38B13A685A44002AC9
:1047AC0001DD3A6002E03B602B6034460134E1E706
:1047BC0003B0BDE8F08F00BF78C9032010D50320EB
:1047CC004CC5032038B5064C80F3080544F620622E
:1047DC002946208804F0E8FE0123E560237238BDE9
:1047EC00F4C5032010B5044C0021208804F0B6FE5B
:1047FC0000232372E36010BDF4C5032070B504469A
:10480C0003F090F80F4D84F30804064644F620623A
:10481C002146288804F0C8FE002C14BF0123002375
:10482C00EC602B7209D0084B1B7833B104F01CFDE3
:10483C002346064A012104F02AFA03F073F8801B80
:10484C0070BD00BFF4C50320E3C90320B1A10D0066
:10485C00024B0146188804F081BE00BF44C50320FA
:10486C00024B0146188804F079BE00BF50C50320E6
:10487C00024B0146188804F071BE00BF5CC50320D2
:10488C000346412B084601D1FFF7E2BF312B01D182
:10489C00FFF7E6BF322B01D1FFF7EABF70470000EC
:1048AC00024B0021188804F059BE00BF44C50320F8
:1048BC00024B0021188804F051BE00BF50C50320E4
:1048CC00024B0021188804F049BE00BF5CC50320D0
:1048DC00412801D1FFF7E4BF312801D1FFF7E8BF30
:1048EC00322801D1FFF7ECBF704710B504460846DB
:1048FC00FFF7AEFF204603F01BFBBDE81040FFF7AF
:10490C00CFBF10B504460846FFF7AAFF204603F0B8
:10491C000FFBBDE81040FFF7CBBF10B504460846AF
:10492C00FFF7A6FF204603F003FBBDE81040FFF79E
:10493C00C7BF38B50C4605460846FFF789FF204629
:10494C00FFF78EFF2046FFF793FF284603F0F0FA9F
:10495C00FFF7A6FFFFF7ACFFBDE83840FFF7B0BF8D
:10496C0008B504F06BFE03F002FF88B904F066FE94
:10497C00084903F0AFFE04F061FE03F0AFFE6420C3
:10498C0003F0D6FA04F05AFEBDE8084003F0EFBE7F
:10499C0008BD00BFA086010008B504F04FFEBDE8BD
:1049AC00084003F0A1BE000008B5074B07480022E1
:1049BC006FF00041DA61FFF7B5FC04F055FC0449D7
:1049CC00BDE8084004F039B9F4C503207CC90320C4
:1049DC00C8A10D0008B56FF000410648FFF766FC52
:1049EC000020FFF70BFF04F03FFC0349BDE8084033
:1049FC0004F023B97CC90320EBA10D0038B5114C90
:104A0C000021208804F0AAFDA08804F090FDE16844
:104A1C000546208804F0A2FD1DB9FFF7DBFF002539
:104A2C000EE02846FFF794FC052200EBC003B0F51E
:104A3C00167F93FBF2F303F5A0732062A362ECDC08
:104A4C00284638BDF4C503202DE9F0432F4E8BB01A
:104A5C00F56802F067FFF769C7EB0009B9F57A7FD3
:104A6C00804634464ED3FFF7C9FFC6F81C808046FB
:104A7C00002847D017B97761B76143E0336A776A8A
:104A8C00B569E26AFF1A4FF47A7107FB09F393FBDD
:104A9C00F1F31D44B5617669636BBE1B6B434E43EA
:104AAC007A43216BA56B92FBF1F193FBF5F56A1838
:104ABC00E56B236C96FBF9F6754395FBF3F5144BFC
:104ACC001B781544EBB104F0CFFBD4F820E0636AFB
:104ADC0008950796A16906910A2293FBF2F102FB55
:104AEC00113303939EFBF2F302FB13E2029101924A
:104AFC0000930597CDF810904346064A012104F027
:104B0C00C6F8676128460BB0BDE8F083F4C50320F6
:104B1C00E3C903202EA20D002DE9F041064694B006
:104B2C000F46364D02B92A602B683146013310A866
:104B3C002B6004F09AF910A9314804F0A1F910A8DF
:104B4C0004F00DF939462F4804F095FF2E4A2F49F1
:104B5C00002313702E4A04A8137004F047F9314651
:104B6C000CA8049C04F081F92A4908A804F03EF929
:104B7C0008A90CA804F0A3F93946804610A804F043
:104B8C0035F910A9404604F09AF9234B02681978BC
:104B9C00224B1B780B438DF8003021463C2302A896
:104BAC0003F09AFB039C7CB16368013B63605BB9C7
:104BBC00236820469B689847A368013BA3601BB9F8
:104BCC0023682046DB68984710A804F0C8F808A8AA
:104BDC0004F0C5F80CA804F0C2F804A804F0BFF85F
:104BEC0004F042FB2B680193009733680C4A0121B7
:104BFC0004F04DF814B0BDE8F08100BFE0D4032000
:104C0C00D0D40320FDD1032039D2032097A20D006C
:104C1C00FCD903209BB00D0068C603209CC6032062
:104C2C00ACA20D007FB504F01FFB1549154E164DB7
:104C3C0004F003F803F0C4F80446B8B10123337050
:104C4C0002F070FE114B124900F51C501030186028
:104C5C00002468462C7004F0C9F8684622460D49B9
:104C6C00FFF75AFF684604F07AF806E004F0FCFA05
:104C7C00094903F0E2FF34702C7004B070BD00BF22
:104C8C00C5A20D007CC60320DCD10320F0C6032096
:104C9C00DAA20D0018D50320EDA20D00072210B5E5
:104CAC000C490D4804F023FF0C4B041E0CBF0122D1
:104CBC0000221A7007D104F0D7FA094903F0BDFF9E
:104CCC00084B1C7010BD04F0CFFA0749BDE810402A
:104CDC0003F0B3BF39A30D00A9C603205CD2032097
:104CEC0072A30D00EDC603207FA30D002DE9F0414A
:104CFC000F4F064600244FF0E40808FB04F505F1BD
:104D0C00200139441822304604F0F1FE014648B91E
:104D1C00074818352844E42204F063FEBDE8F0414E
:104D2C00FFF7B8BB0134042CE7D1BDE8F08100BF1C
:104D3C004CD503202DE9FF41244F254CDFF89880FA
:104D4C003946684604F052F80099204604F09BFE60
:104D5C000546684604F003F800262A4621464046DC
:104D6C0004F0DAFE08F8056001352C443946684633
:104D7C0004F03CF80099DFF86480204604F083FED0
:104D8C000546684603F0EBFF2A462146404604F0F0
:104D9C00C3FE08F8056001352C443946684604F01A
:104DAC0025F800990B4F204604F06DFE0546684629
:104DBC0003F0D5FF2A462146384604F0ADFE681CA8
:104DCC0020447E5504B0BDE8F08100BF9BB00D00BF
:104DDC00FCD90320E4D403207EC60320A9C60320FB
:104DEC00F8B5154804F07BFE134B00245A1C02380E
:104DFC000A26092784421CDA15785C2D13D15178C8
:104E0C00742904F1010402D1591C1F7009E06E29A8
:104E1C0017BF1946591C01F8025B55780CBF1E7060
:104E2C005D70023202E0591C01321D7001340B46D8
:104E3C00E0E700221A70F8BDFCD903201FB5184B0F
:104E4C001B68042B19DC04F00FFA1649044668465B
:104E5C0004F00BF86B46144A0121204603F017FFAF
:104E6C00684603F07CFF0F49684603F0FEFF012201
:104E7C000E496846FFF750FE0CE004F0F5F90949BD
:104E8C000446684603F0F1FF6B46094A01212046AF
:104E9C0003F0FDFE684603F062FF04B010BD00BFD6
:104EAC00E0D40320D0D4032092A30D00FDD1032025
:104EBC00BEA30D00E4222DE9F84302FB00F6114DD0
:104ECC001149DFF8448006F118040746281904F04C
:104EDC007DFD06F1FC094C450ADA04F081FBA31BAD
:104EEC004344204613F8181C02F03CFD0134F2E751
:104EFC00AF7004F075FBA9780220BDE8F84302F00E
:104F0C0031BD00BF4CD50320F4D803201FB5CB898D
:104F1C000A7803938B8902934B8901930B89044C78
:104F2C0000934B680349204402F0E2FF04B010BD2B
:104F3C005DD2032004A40D002DE9F743E42444437F
:104F4C00134D1449144804F120032A192B440093DF
:104F5C00D369926902F0CCFF00260746A84604F1FB
:104F6C003C0933192B4493F83C3003F0FD03412BDF
:104F7C0006D109EB060138464144FFF7C7FF074449
:104F8C001036C02EEDD1012003B0BDE8F08300BF78
:104F9C004CD503201EA40D005DD2032010B5084B88
:104FAC009C78FF2C14BF0134002404F00304204629
:104FBC00FFF780FF2046BDE81040FFF7BDBF00BFE4
:104FCC004CD5032070B5194B1B780E4663BB184BA0
:104FDC001A1892F823203AB30A2A25D0092A20D08D
:104FEC000446B4F5FA6F1EDA1A1992F8232032B976
:104FFC00221A01460F48FFF7D3F9306013E00A2A52
:10500C00F6D0092A04F1010507D1221A01460948F4
:10501C00FFF7C6F93060284670BD2C2AF5D02C4617
:10502C00DFE7013070BD204670BD00BFECC6032029
:10503C00E4C9032007CA032070B50029054688B0CF
:10504C001F48204C01D101601BE01F4BDA684FF464
:10505C007A7303FB02F207DA4FF0FF3323601B4B2A
:10506C00026000221A600DE0036819446423016099
:10507C00594391FBF2F19942A8BF19462368994212
:10508C0000D0216004F0F0F82946064604A803F08D
:10509C00ECFE0F4B196A0A2391FBF3F203FB12137C
:1050AC0002932368019200930A4A04AB0121304613
:1050BC0003F0EDFD04A803F052FE08B070BD00BF74
:1050CC00A0C60320E0D10320E4C90320D4C60320EA
:1050DC00F4C503202FA40D0010B502F023FC0446E8
:1050EC00FFF7B2FCFFF78AFBFFF79EF802F01AFC01
:1050FC00001B10BD10B50446FFF7EEFFA04204DA0A
:10510C00201ABDE8104002F013BF10BDF0B51646D2
:10511C004A1C85B007460D4602D133600C4629E087
:10512C001649684603F062FE2A466946384603F083
:10513C00EAFE0446684603F012FE631C0CD12A46B4
:10514C003946684603F00EFF684603F012FF3060E4
:10515C00684603F004FE0DE023462A4639466846AD
:10516C0003F0E0FE684603F004FF3060684603F08D
:10517C00F6FD0134204605B0F0BD00BF55A40D006E
:10518C0010B50120FFF7ECFB18B9BDE81040FFF794
:10519C0003BC04F069F80F4903F04FFD002404F040
:1051AC004DFA214603F0D9FA04F048FA0021FFF732
:1051BC0047F804F043FA03F0D7FA30B904F054F886
:1051CC002346054A012103F062FD01347F2CE6D110
:1051DC00DBE700BF57A40D0075A40D00164A08B5F7
:1051EC0000231370154A1370154A1370154A137067
:1051FC00154A1370154A1360154A1360154A13703B
:10520C001376154A13701376144A137282F82030F1
:10521C0082F82130124A13701372124A1370124A18
:10522C000A215370117002F07DFB104B00F56A409F
:10523C006030186008BD00BF61C603205CD203203B
:10524C00DCD1032039D2032058C60320A0C603208A
:10525C00E0D1032018D5032032D50320F4D8032045
:10526C00E4C903205DD20320FCC60320A4C603209E
:10527C0010B507220D490E4804F039FC044670B9EC
:10528C0003F0F2FF0B4903F0D8FC0B4B01201C7010
:10529C00FFF70EFAFFF7A2FF084B1C6010BD03F0DE
:1052AC00E3FF0749BDE8104003F0C7BC39A30D006C
:1052BC00A9C6032094A40D00E2C90320A4C60320B0
:1052CC00A2A40D0010B507220D490E4804F00FFCE6
:1052DC00044670B903F0C8FF0B4903F0AEFC0B4B4E
:1052EC0001201C70FFF7E4F9FFF778FF084B1C60F6
:1052FC0010BD03F0B9FF0749BDE8104003F09DBC99
:10530C0039A30D00A9C60320B6A40D0075C903204E
:10531C00A4C60320C5A40D001FB503F0A5FF0F49BB
:10532C0003F08BFC0E4B01221A7002F0FBFA0D4BB2
:10533C0000F59C4020301860FFF79EF90A4968463A
:10534C0003F054FD002209496846FFF7E5FB684667
:10535C0003F005FD05B05DF804FB00BFD9A40D00FA
:10536C00EDC6032064C60320E7A40D00FCD803207F
:10537C001FB5164C03F078FF214603F05EFC144B6E
:10538C0001221A7002F0CEFA124B00F51C501030AC
:10539C0018602146684603F029FD4FF0FF3168463E
:1053AC00FFF74AFE684603F0DAFC0B49684603F047
:1053BC001DFD002209496846FFF7AEFB684603F065
:1053CC00CEFCFFF751F904B010BD00BFB6A40D0020
:1053DC0075C9032054C60320F2A40D00FCD8032089
:1053EC001FB503F041FF154903F027FC144B0122B4
:1053FC001A7002F097FA134B134900F51C50103039
:10540C001860684603F0F2FC4FF0FF316846FFF776
:10541C0013FE684603F0A3FC0C49684603F0E6FC57
:10542C0000220B496846FFF777FB684603F097FCB0
:10543C00FFF71AF905B05DF804FB00BFFEA40D00E0
:10544C00E2C90320E8C603200DA50D001BA50D0025
:10545C00FCD8032070B50E460446154604F02AF815
:10546C00012E05D129462046BDE8704004F076B8DF
:10547C0070BD70B50E460446154604F01BF8012E9F
:10548C0005D129462046BDE8704004F024B870BD13
:10549C0070B500238AB0042256495748574D584ED0
:1054AC0002F066FC574A5849584802F0F5FD06A828
:1054BC0002F08EFC06A9284603F0E2FC06A803F0D5
:1054CC004EFC534902A803F091FC294602A803F0B4
:1054DC00F6FC0024014606A803F0C7FC234622462E
:1054EC004C4901940094069802F082FC06A803F043
:1054FC0036FC02A803F033FC474902A803F076FC03
:10550C00294602A803F0DBFC014606A803F0ADFC1B
:10551C0023462246414901940094069802F068FC07
:10552C0006A803F01CFC02A803F019FC1922234660
:10553C003146284603F0CFFC394B347618880221CB
:10554C0003F0B8FF374B0221188803F0B3FF364B3A
:10555C00012211461888FFF78CFF344B214618881E
:10556C0003F0A8FF324B224618880121FFF772FF87
:10557C00304B224618880121FFF76CFF2E4B224638
:10558C0018880121FFF766FF2C4B2146188803F081
:10559C0091FF2B4B2146188803F08CFF294B214699
:1055AC00188803F087FF284B224618880121FFF743
:1055BC0060FF264B224618880121FFF75AFF244B27
:1055CC00224618880121FFF754FF224B80221888AD
:1055DC000121FFF73FFF204B224618880121FFF7DE
:1055EC0039FF1E4B224601211888FFF733FF0AB002
:1055FC0070BD00BF5DD2032027A50D00D8C60320C7
:10560C00E4D1032030A50D0045720D0079800D000A
:10561C0039A50D0001410D0052A50D00D1410D0021
:10562C006CC5032060C5032078C503207CC503200E
:10563C0044C5032050C503205CC5032068C5032066
:10564C0070C5032054C5032080C5032074C50320F6
:10565C004CC5032058C5032064C5032048C503204E
:10566C0007B503F001FE0C4903F0E7FA03F0B8FFAD
:10567C00012200200DF1070102F07CF99DF80730A2
:10568C00FF2B064B0DBF01220022012000201A70B7
:10569C0003B05DF804FB00BF68A50D00A8C603208D
:1056AC0030B5104B104D1A7885B01C4622B102F063
:1056BC0039F92B68834213D201230C4923706846B5
:1056CC0003F094FB00220A496846FFF725FA684666
:1056DC0003F045FB02F026F900F59C4020302860D1
:1056EC0005B030BD60C603206CC9032090A50D0029
:1056FC00E4D1032007B5009313460A46012103F0B9
:10570C00C6FA03B05DF804FB38B50A4B1B780446A7
:10571C000D4633B103F0A8FD2B4622460649FFF790
:10572C00E9FF064B2A4621461878BDE8384003F0BD
:10573C0097BC00BFE3C90320A0A50D0064C50320DE
:10574C0008B5FA214FF48370FFF7DEFF322002F028
:10575C00EFFBFA214FF49370FFF7D6FF322002F0E3
:10576C00E7FBFA214FF4A570FFF7CEFF322002F0D1
:10577C00DFFBFA2140F25D10FFF7C6FF322002F08A
:10578C00D7FBFA214FF4C470FFF7BEFF322002F0B2
:10579C00CFFBFA214FF4DC70FFF7B6FF322002F09A
:1057AC00C7FBFA214FF4F770FFF7AEFF322002F07F
:1057BC00BFFBFA2140F20B20BDE80840FFF7A4BF65
:1057CC002DE9F0410D4655490346024686B0183086
:1057DC0052F8044B41F8044B8242F9D118685968CD
:1057EC004F4C504E03C42B4605F11807083C186863
:1057FC005968324603C20833BB421646F7D1192307
:10580C000193494B49494FF0000802A883F82180C5
:10581C0003F0ECFA02AA01A92846FEF7D4FDE060D9
:10582C0002A803F09CFA414902A803F0DFFA02AA8D
:10583C0001A92846FEF7C7FD206102A803F08FFAE4
:10584C003A4902A803F0D2FA02AA01A92846FEF7A7
:10585C00BAFD606102A803F082FA344902A803F091
:10586C00C5FA02AA01A92846FEF7ADFDA06102A85F
:10587C0003F075FA2D4902A803F0B8FA02AA01A99F
:10588C002846FEF7A0FDE06102A803F068FA27495C
:10589C0002A803F0ABFA02AA01A92846FEF793FD71
:1058AC00208402A803F05BFA204902A803F09EFAB8
:1058BC0002AA01A92846FEF786FD84F8220002A858
:1058CC0003F04DFA194902A803F090FA02AA01A9B3
:1058DC002846FEF778FD074602A803F040FA268C0E
:1058EC000199134832462944344404F015F9B11E89
:1058FC000F4884F82380FEF78DFD80EAE074A4EB5A
:10590C00E07403F0B1FC23463A460A49FFF7F2FE75
:10591C003B1B5842584106B0BDE8F08132D50320FC
:10592C00E4C90320FCD80320F4D80320D2A50D0031
:10593C0007CA0320D4A50D0073B5044603F07EFE00
:10594C00214602F006FF03F079FE0021FEF778FCF9
:10595C00064603F073FE002102F002FF054630B14B
:10596C0003F082FC2B4632461549FFF7C3FE03F0C9
:10597C0065FE2146042202F0E9FE03F05FFE036897
:10598C005B699847044603F059FE03685B699847C6
:10599C000C4B1B78054643B103F066FCE3B2009355
:1059AC00094AEBB2012103F072F96A0704D4E0B2A0
:1059BC00C31E5842584100E0002002B070BD00BF29
:1059CC00ECA50D00E3C903200DA60D007FB5124B0D
:1059DC001C680D46041B06461049684603F006FA7F
:1059EC0084EAE473A3EBE4736B43684646F2A811B4
:1059FC0093FBF1F1FFF720FB684603F0B0F903F0DD
:105A0C0033FC234632460649FFF774FE29462046EE
:105A1C00FEF7E8FD04B070BD10D5032023A60D00E1
:105A2C003EA60D00962144F25060FFF7CFBF9621A1
:105A3C0042F63020FFF7CABF13460A46012103F095
:105A4C0026B90000F8B501F06DFF184B1A688242B8
:105A5C001F4625D8164B1A781D462AB103F004FCB4
:105A6C00144A012103F013F9134A0023E42101FB2A
:105A7C00032696F820404CB12C789CB103F0F4FB33
:105A8C0096F820200D49FFF7D7FF0CE00133042BCB
:105A9C00EDD101F047FF00F56A406030386002E05C
:105AAC00002400E001242046F8BD00BFA4C603205A
:105ABC00E3C9032069A60D004CD5032084A60D0074
:105ACC002DE9F347444C23780646884615462BB1FE
:105ADC0003F0CAFB32464149FFF7AEFF03F0AEFDBF
:105AEC00294602F03AFE03F0A9FD0021FEF7A8FBBF
:105AFC00824603F0A3FD0221FEF7A2FB074603F04A
:105B0C009DFD012102F02CFE814650B1574403F05B
:105B1C00ABFBCDF8049000973346314A012103F0DA
:105B2C00B6F803F08BFD294602F017FE03F086FD54
:105B3C000621FEF785FB824603F080FD03685FFAC1
:105B4C0088F19B689847074603F078FD012102F025
:105B5C0007FE814650B1574403F086FBCDF8049004
:105B6C00009733461E4A012103F091F803F066FDBD
:105B7C00294602F0F2FD03F061FD0621FEF760FB01
:105B8C00074603F05BFD002102F0EAFD064630B14A
:105B9C0003F06AFB33463A461249FFF7ABFD03F0BC
:105BAC004DFDE9B2012202F0D1FD054603F046FDA0
:105BBC0003685B699847237806464BB103F054FBA6
:105BCC000196CDF800802B46074A012103F05FF8BF
:105BDC0002B0BDE8F08700BFE3C9032093A60D0017
:105BEC00B1A60D00ECA50D00D8A60D002DE9F341D2
:105BFC00534D544E544F01232B7003F035FB534936
:105C0C0003F01BF803F0A8FA4FF4165103F09AFABC
:105C1C0003F02AFB4E4903F010F80021308803F002
:105C2C005AFC01F07FFE00F59C5403F01DFB494922
:105C3C0003F003F80834388803F066FC804603F060
:105C4C0013FB2E2102F0EAFFFEF7EEFAC82002F059
:105C5C006FF9B8F1010F03D001F064FEA042EAD352
:105C6C0003F002FB074603F077FA03681B699847B9
:105C7C00002814BF59224E2237493846FFF7DCFE64
:105C8C000121308803F027FC03F0EEFA334902F0CF
:105C9C00D4FF03F061FA03681B69984730B901F02F
:105CAC0041FE844202D9FEF7BFFAF2E7642002F00B
:105CBC003FF903F0D9FA2A492A4E02F0BEFF00241C
:105CCC0003F0D2FA2E2102F0A9FF03F045FA036883
:105CDC005B699847431C1CBF3055013403F03CFAF8
:105CEC0003681B69984708B1172CE9DD03F0BCFA6F
:105CFC0002F097FF172C1B4A09DC1B4B114603F1D2
:105D0C00180053F8046B41F8046B8342F9D1002658
:105D1C00167603F0A9FA134B144A0094012102F0F1
:105D2C00B6FF03F019FA03F010FA03F09DFA1049CC
:105D3C0002F083FF20462E7002B0BDE8F08100BF58
:105D4C00B9C9032078C503207CC50320FBA60D0030
:105D5C000EA70D0025A70D0036A70D005FA70D009F
:105D6C00BDA70D0018D5032075A70D008EA70D003B
:105D7C00A6A70D0070B590B00025014606460CA8EC
:105D8C000795089509950A950B9503F06EF82B4627
:105D9C0006AA29460CA8FFF7B9F904460CA802F08C
:105DAC00DEFF069B023B202B00F2B582DFE813F0EE
:105DBC002100250054007E0081008700A200A7006E
:105DCC00C900EA000C012D014F017201770191010C
:105DDC009601A701AA01AD01B001B401B302B3024F
:105DEC00B302B701CE01010207020B02B30230026B
:105DFC0060020120FEF75CFC8AE231460CA803F03D
:105E0C0034F8002307AA21460CA8FFF77FF90446B3
:105E1C000CA802F0A4FF31460CA803F026F84FF4AE
:105E2C007A7308AA21460CA8FFF770F90CA802F0A7
:105E3C0096FF08990798BB4CFEF72CFC03F014FA5C
:105E4C00B94BBA4A1B680193236800930121079B45
:105E5C0002F01DFF24685FE2FEF70EFCFFF7E2FD87
:105E6C00FEF702FC31460CA802F0FFFFB62307AA8E
:105E7C0021460CA8FFF74AF904460CA802F06FFF64
:105E8C0031460CA802F0F1FFFF2308AA21460CA80A
:105E9C00FFF73CF90CA802F062FFA54B079C1C60B5
:105EAC00A44B089A1A600122A34BAFE1FEF716FB34
:105EBC0003E0FEF7FDFA03F075F801242CE23146FD
:105ECC000CA802F0D2FF07AA21464FF4B9730CA814
:105EDC00FFF71CF90CA802F042FF03F0C5F9974B31
:105EEC00196A0A2391FBF3F203FB12139449FFF78F
:105EFC0001FC24E0FEF7E4FA924B5C780CE23146AC
:105F0C000CA802F0B2FF4FF4FA7307AA21460CA8B2
:105F1C00FFF7FCF804460CA802F021FF31460CA850
:105F2C0002F0A3FF2146FF2308AA0CA8FFF7EEF806
:105F3C000CA802F014FF08990798FEF7D6FC079CF2
:105F4C00EAE131460CA802F090FF07AA4FF4FA736D
:105F5C0021460CA8FFF7DAF804460CA802F0FFFE65
:105F6C0031460CA802F081FF2146FF2308AA0CA899
:105F7C00FFF7CCF80CA802F0F2FE08990798FEF790
:105F8C00C0FC1FE031460CA802F06FFF4FF4FA730F
:105F9C0007AA21460CA8FFF7B9F804460CA802F092
:105FAC00DEFE31460CA802F060FF2146FF2308AA52
:105FBC000CA8FFF7ABF80CA802F0D1FE08990798D3
:105FCC00FEF7ABFC089CA7E131460CA802F04DFF94
:105FDC0007AA4FF4FA7321460CA8FFF797F804466A
:105FEC000CA802F0BCFE31460CA802F03EFF214684
:105FFC00FF2308AA0CA8FFF789F80CA802F0AFFE43
:10600C0008990798FEF795FCDCE731460CA802F0DE
:10601C002CFF07AA4FF4167321460CA8FFF776F84D
:10602C0004460CA802F09BFE31460CA802F01DFFA2
:10603C0021464FF47A7308AA0CA8FFF767F80CA84E
:10604C0002F08DFE08990798FFF75EFB77E7314663
:10605C000CA802F00AFF07AA002321460CA8FFF7A0
:10606C0055F804460CA802F07AFE31460CA802F052
:10607C00FCFE21464FF47A7308AA0CA8FFF746F8E9
:10608C000CA802F06CFEFEF7F7FA08990798FFF7D8
:10609C009DFC3BE1FEF7F0FAFFF7C9FC36E1314617
:1060AC000CA802F0E2FE4FF4B97307AA21460CA823
:1060BC00FFF72CF80CA802F052FE079C40F2562376
:1060CC00621E9A4200F228811C4B00225C62DA614B
:1060DC0022E1FEF7D1FAFFF7A5FC17E131460CA837
:1060EC0002F0C3FE802307AA21460CA8FFF70EF886
:1060FC000CA802F034FE0798FEF764FB1FE7FEF7CE
:10610C0071FBDAE6FEF750FCD7E6FEF763FCD4E64B
:10611C000D4B01241C70FFE00B4B1D70FBE0FFF7D7
:10612C002FF8CAE610D5032078C90320DAA70D0092
:10613C00CCD40320D8D10320B8C90320F4C5032044
:10614C0009A80D004CD50320E3C90320FEF794FAEF
:10615C00FFF768FCFEF788FA31460CA802F085FEC2
:10616C0007AAB62321460CA8FEF7D0FF04460CA8BC
:10617C0002F0F5FD31460CA802F077FE08AA214684
:10618C00FF230CA8FEF7C2FF0CA802F0E8FD6D4B34
:10619C0007996D4800221A706C4B19606C4B08996A
:1061AC0019606C4B01246FF000411C70FEF7BAF8BB
:1061BC00B2E06FF000416448FEF778F87DE6FFF737
:1061CC0015FD0446A8E031460CA802F04EFEB6239D
:1061DC0007AA21460CA8FEF799FF04460CA802F06A
:1061EC00BEFD31460CA802F040FEFF2308AA214652
:1061FC000CA8FEF78BFF0CA802F0B1FD564B079CC8
:10620C001C60564B089A1A60554B01221A7083E099
:10621C0031460CA802F029FE07AA192321460CA826
:10622C00FEF774FF04460CA802F099FD31460CA849
:10623C0002F01BFE08AA962321460CA8FEF766FF67
:10624C0004460CA802F08BFD31460CA802F00DFEA2
:10625C0009AA21460A230CA8FEF758FF0CA802F045
:10626C007EFDFEF709FA07A807C8FEF74FFA4DE0C6
:10627C0031460CA802F0F9FD002307AA21460CA810
:10628C00FEF744FF04460CA802F069FD31460CA849
:10629C0002F0EBFD4FF47A7308AA21460CA8FEF726
:1062AC0035FF04460CA802F05AFD31460CA802F04A
:1062BC00DCFD192309AA21460CA8FEF727FF04468A
:1062CC000CA802F04CFD31460CA802F0CEFD962332
:1062DC000AAA21460CA8FEF719FF04460CA802F0E6
:1062EC003EFD31460CA802F0C0FD02230BAA21464C
:1062FC000CA8FEF70BFF0CA802F031FDFEF7BCF961
:10630C000B9B009307A80FC8FEF716FAFEF7ACF923
:10631C00144B1C6800E0002402F0A6FF0B9B0593B5
:10632C000A9B0493099B0393089B0293079B01937D
:10633C000094069B0C4A012102F0A9FC204610B0E7
:10634C0070BD00BFE3C9032038C60320CCD40320A2
:10635C00D8D10320B8C90320F8C6032070C9032084
:10636C009DC6032010D503201EA80D0010B5154B9B
:10637C00188803F0C9F8144B021E0CBF0121002130
:10638C0019701C4608D10121104801F093FC4FF400
:10639C00AF714FF4167007E0002211460B4801F064
:1063AC0089FCC8214FF49670FFF7AEF902F05CFF40
:1063BC0023780749002B14BF59224E22FFF73CFBD0
:1063CC0010BD00BF60C503203AD20320E0D90320E2
:1063DC0068A80D0010B51B4B1A7892B11A4C227894
:1063EC0052B1002222701A7002F03EFF174902F0DF
:1063FC0024FCFFF7BBFF04E0322001F099FD0123E0
:10640C002370134B1C7874B101F08CFA114B1B6880
:10641C00984215D902F028FF0F4902F00EFCBDE896
:10642C001040FEF7FFBB0D4B1A784AB11C700C4B99
:10643C001B782BB1FFF7DAFB18281CBF094B1C701B
:10644C0010BD00BF0CD503209EC603207DA80D00F7
:10645C007CC60320F0C6032095A80D0074C9032048
:10646C003AD20320DCD1032013460A46002102F065
:10647C000EBC00002DE9F3470546174698460E461C
:10648C0003F0DCF8294602F064F903F0D7F8002198
:10649C00FDF7D6FE824603F0D1F88321FDF7D0FE3E
:1064AC00044603F0CBF8012102F05AF9814660B1A1
:1064BC00544402F0D9FECDF8049000942B46754A52
:1064CC00012102F0E4FB0020E0E001F02BFA00F5E2
:1064DC009C5909F108092846FFF72EFA70B901F00A
:1064EC0021FA484503D2642001F022FDF3E702F0C3
:1064FC00BBFE2A466849FFF79FFAE4E7674C23780E
:10650C002BB102F0B1FE2A466549FFF795FA03F06C
:10651C0095F8294602F01DF903F090F80021FDF7DB
:10652C008FFE824603F08AF8002102F019F98146A9
:10653C0030B102F099FE4B4652465A49FFF7DAF851
:10654C0003F07CF829460A2202F000F903F076F8F1
:10655C0003685B699847054603F070F803685B694C
:10656C009847237881464BB1EDB202F07DFE009541
:10657C005FFA89F34C4A012102F089FB03F05EF8C3
:10658C0003685B6998472378C5B22BB102F06CFEA7
:10659C002A464649FFF768FF03F050F803685B6929
:1065AC0098472378814633B102F05EFE5FFA89F298
:1065BC003E49FFF759FF4FEA092909F47F49142393
:1065CC004D4495FBF3F50A9B433D1D8003F036F8D3
:1065DC0003685B6998472378C5B22BB102F044FE7F
:1065EC002A463249FFF740FF03F028F803685B693D
:1065FC00984723785FFA80F92BB102F035FE4A46B2
:10660C002A49FFF731FF05EB0925358003F016F811
:10661C0003685B6998472378C5B22BB102F024FE5E
:10662C002A462249FFF720FF03F008F803685B694C
:10663C0098472378C6B22BB102F016FE32461B499E
:10664C00FFF712FF05EB06253D8002F0F7FF03680C
:10665C005B6998472378C5B22BB102F005FE2A4638
:10666C001249FFF701FF02F0E9FF03685B699847E5
:10667C002378C6B22BB102F0F7FD32460B49FFF777
:10668C00DBF905EB0625A8F80050012002B0BDE8A7
:10669C00F08700BFDAA80D003AA90D00E3C903206A
:1066AC000AA90D00ECA50D000DA60D0036A90D00D4
:1066BC002DE9F04F8FB0412807460A9115460AD0B4
:1066CC0031280CD032280ED002F0CEFD3A46554976
:1066DC00FFF7B2F9A3E0544C4FF0740A06E0534CA8
:1066EC004FF0750A02E0524C4FF0760A73B1514AE2
:1066FC0092F821000C24B0FBF4F304FB1304E4B275
:10670C0002EB04140130243482F821004A4B0B9321
:10671C0001221A70FEF766F829463846FEF7B0F8E3
:10672C00642001F005FC52460A993846FFF7C8F977
:10673C00277001F0F7F84FF00009052260606270D5
:10674C00C8464E464D46CB4663789B4520DA0CAB8B
:10675C0000930DAA0DF136030DF132015046FFF7EF
:10676C0089FE60B1BDF832301D44BDF834301E4492
:10677C00BDF836309844BDF83030994405E002F04D
:10678C0073FD3A462D49FFF757F90BF1010BDBE787
:10679C0096FBF3F66681B6B295FBF3F5764325814D
:1067AC00ADB298FBF3F005FB0565A08180B299FBB7
:1067BC00F3F900FB0050A4F80E90FDF73FFE0646DF
:1067CC0002F052FDB6B2054601F0ACF80896A3896A
:1067DC00079363890693238905931FFA89F909EBBB
:1067EC00C909052399FBF3F320339BB20493E38986
:1067FC00039363780293124BB0FBF3F202FB13008A
:10680C000A9B019000930F4A3B460121284602F057
:10681C003EFA0B9A002338461370FEF759F80FB066
:10682C00BDE8F08F55A90D006CC603203CD20320A7
:10683C004CD20320F4D8032058C6032071A90D00B4
:10684C0040420F0098A90D002DE9F04104460D4679
:10685C00164601F067F807460120FEF781F8B0B143
:10686C0033462A4621464120FFF722FF33462A466B
:10687C0021463120FFF71CFF33462A4621463220A1
:10688C00FFF716FF02F0F0FC02F0CBF904E002F087
:10689C00EBFC0B4902F0D1F9FEF77EF8094B1B78A3
:1068AC0063B102F0E1FC044601F03CF8064AC31B5C
:1068BC0001212046BDE8F04102F0E9B9BDE8F081C4
:1068CC00DAA90D00E3C903200DAA0D002DE9F04F44
:1068DC0087B08046894601F025F883460120FEF7F3
:1068EC003FF8C8B902F0C0FC334902F0A6F9FEF734
:1068FC0053F8324B1B78002B5BD002F0B5FC0446EE
:10690C0001F010F82E4ACBEB00030121204607B012
:10691C00BDE8F04F02F0BBB90024DFF8ACA00126B3
:10692C0027464FF000038AF821304A46012341469E
:10693C004120FFF7BDFE01234A4641463120FFF7B7
:10694C00B7FE4A46414601233220FFF7B1FEBAF8A2
:10695C002C20BAF83C10D51B002DB8BF6D42632D0E
:10696C0005DC0B1B002BB8BF5B42632B10DD002436
:10697C0041F2883005910492013601F0D9FA002CCD
:10698C00B5D1332E049A0599B1D00C461746C8E7F9
:10699C00049302F069FC049B00935922019201219B
:1069AC00084A02962B4602F072F921463A46012417
:1069BC00DEE707B0BDE8F08FDAA90D00E3C90320CC
:1069CC000DAA0D001EAA0D00F4D803202DE9F041EC
:1069DC0005468CB00C46FEF77FFB0A2D00F0788143
:1069EC006FDC052D00F0D28037DC012D00F09B8090
:1069FC0015DC002D40F0428202F020FBA94BAA4985
:106A0C00186008A802F0F2F941F2707108A8FEF7BC
:106A1C0013FB08A802F0A3F94FF47A7014E2022DCC
:106A2C0000F09380042D40F0298202A92046FEF745
:106A3C00C9FA03A9FEF7C6FA9C49044608A802F055
:106A4C00D5F9029908A8FEF7F7FA08A802F087F919
:106A5C0002990398FEF758FE10E2072D00F0C8804B
:106A6C00C0F2B680082D00F0EB80092D40F00682B4
:106A7C008F4908A802F0BAF98E4B1968A1F58C4120
:106A8C0050390029B8BF49429623594308A88A4B6C
:106A9C0091FBF3F1FEF7D0FA08A802F060F9FEF7CB
:106AAC00C1FF864908A802F0A1F941F2707108A84B
:106ABC00FEF7C2FA08A802F052F90122FF21B62013
:106ACC0036E10F2D00F060810CDC0D2D00F03F81C4
:106ADC0000F33F81204602A9FEF774FA0024054614
:106AEC00774E30E1122D00F052810FDC102D40F06A
:106AFC00C58102A92046FEF765FA03A9FEF762FAE2
:106B0C00039904460298FEF761FFB7E1132D00F0DC
:106B1C009E81632D40F0B28102F090FA614B586077
:106B2C00FEF73CFAAAE102A92046FEF74BFA6549AA
:106B3C00044608A802F05AF9029908A8FEF77CFA54
:106B4C0008A802F00CF902987EE102A92046FEF793
:106B5C0039FA03A9FEF736FA5B49044608A802F095
:106B6C0045F9029B83EAE371A1EBE371039B08A84F
:106B7C004B43514993FBF1F1FEF75EFA08A802F082
:106B8C00EEF8029B0399C82058431EE002A9204648
:106B9C00FEF718FA03A9FEF715FA4B49044608A8A4
:106BAC0002F024F9029B83EAE371A1EBE371039BEE
:106BBC0008A84B4346F2A81193FBF1F1FEF73CFAFF
:106BCC0008A802F0CCF803990298FDF70BFD55E1EB
:106BDC0002A92046FEF7F6F903A9FEF7F3F904A97A
:106BEC00FEF7F0F9044602A807C8FDF78FFD45E152
:106BFC002F4908A802F0FAF82E4B1968A1F58C4120
:106C0C0050390029B8BF49429623594308A82A4B4A
:106C1C0091FBF3F1FEF710FA08A802F0A0F8FEF7CA
:106C2C0001FF2A4908A802F0E1F841F2707108A8A6
:106C3C00FEF702FA08A802F092F8FF21B6202EE027
:106C4C0002A92046FEF7BEF903A9FEF7BBF91849C5
:106C5C00044608A802F0CAF8164B1968A1F58C4135
:106C6C0050390029B8BF49429623594308A8124B02
:106C7C0091FBF3F1FEF7E0F908A802F070F8FEF7CB
:106C8C00D1FE124908A802F0B1F841F2707108A8BF
:106C9C00FEF7D2F908A802F062F803990298FFF700
:106CAC0015FEEBE0F4D8032045AA0D006AAA0D00EE
:106CBC0072AA0D0010D50320400D0300B9AA0D00D7
:106CCC00ECC6032053AA0D005BAA0D0098AA0D0078
:106CDC0002A92046FEF776F903A9FEF773F9694974
:106CEC00044608A802F082F8674B1968A1F58C419C
:106CFC0050390029B8BF49429623594308A8634B21
:106D0C0091FBF3F1FEF798F908A802F028F8FEF7CA
:106D1C0089FE5F4908A802F069F841F2707108A871
:106D2C00FEF78AF908A802F01AF8039902980122D2
:106D3C00FFF78AFDA2E03378002B40F0A0802846B4
:106D4C0000F0C0F80134029BA342F4DC97E06042EF
:106D5C0095E002A92046FEF735F94E49044608A8ED
:106D6C0002F044F8002108A8FEF766F908A801F023
:106D7C00F6FF029A40F25623511E99427ED8464B9A
:106D8C005A620022DA6179E0FEF751FE76E002A940
:106D9C002046FEF717F903A9FEF714F904A9FEF72C
:106DAC0011F93E4B1B78044633B102F05DFA049B9B
:106DBC003B4A012101F06BFF3A4F0026049BB34282
:106DCC0036DD3D78002D33D105A92046FEF7FAF8C3
:106DDC0006A9FEF7F7F807A9FEF7F4F8069AC823F8
:106DEC005343044606934FF47A78059BAB421DDD62
:106DFC002D4908A801F0FAFF069B83EAE371A1EB89
:106E0C00E371029B4B43079993FBF8F308A81944D1
:106E1C00FEF712F908A801F0A2FF02990698FDF7F7
:106E2C00E1FB0798FEF766F90135DEE70136C5E7A9
:106E3C001E4908A801F0DAFF039908A8FEF7FCF830
:106E4C0008A801F08CFF0398FEF754F916E002A98C
:106E5C002046FEF7B7F803A9FEF7B4F804A9FEF72D
:106E6C00B1F805A9FEF7AEF806A9FEF7ABF8069B3C
:106E7C000093044602A80FC8FDF75EFC20460CB038
:106E8C00BDE8F08172AA0D0010D50320400D03005F
:106E9C00B9AA0D00D1AA0D00F4C50320E3C9032043
:106EAC00F3AA0D00ECC603205BAA0D000FAB0D007E
:106EBC00034A12780AB9FFF789BD0846704700BF2C
:106ECC00ECC6032013B501A90446FEF77BF8014676
:106EDC0064B9019B53B1114B01221A7002F0C4F931
:106EEC000F4901F0AAFE4FF0FF3015E001980B4C52
:106EFC00FFF7DEFF019B632B0BD0002809DD237805
:106F0C003BB901A9FEF75EF801460198FFF7D0FFE7
:106F1C00F0E70028B8BF404202B010BDECC6032019
:106F2C002EAB0D001FB52C4B01221A7002F09CF9F0
:106F3C002A4901F082FE2A4B2849002468461C602D
:106F4C0001F054FF21466846FEF776F8684601F0DA
:106F5C0006FF00F02DFF4FF4FA6000F0E9FF00F09F
:106F6C002FFF044638B102F07FF91E4901F065FE8F
:106F7C00FDF75AF9EFE7FDF79BFB4FF4FA614FF47D
:106F8C001670FEF7C1FB4FF4FA6000F0D1FF2146FA
:106F9C00204600F06FFC2046FFF794FF21460120AD
:106FAC0000F068FC00F0FCFE4FF4FA6000F0C0FF4B
:106FBC0000F006FF38B902F057F90B4901F03DFE1D
:106FCC00FDF732F9F0E7094B094A1B7883F001030E
:106FDC00137004B010BD00BF61C6032046AB0D009A
:106FEC00D4C6032050A50D0053AB0D00ECC60320F6
:106FFC007DC6032013460A46012101F048BE00005D
:10700C0038B5072204460D490D4802F070FD0546BF
:10701C0060B902F029F922460A49FFF7EBFF0A4B47
:10702C001D702046BDE83840FDF760BE02F01CF92B
:10703C000649BDE8384001F000BE00BF39A30D0081
:10704C00A9C6032055AB0D00F4C603208DAB0D0073
:10705C001E4B002273B51A70064607220C461C48BC
:10706C001C491D4D02F043FDB0FA80F04009287018
:10707C0002F0FAF82B781949002B14BF59224E2232
:10708C00FEF7DAFC2B78B3B121463046FEF798FBBD
:10709C0048B1134B01221A7002F0E6F8224611494E
:1070AC00FFF7A8FF0FE002F0DFF80F4902B0BDE8D0
:1070BC00704001F0C2BD02F0D7F8009433460B4A81
:1070CC00012101F0E4FD02B070BD00BF7CC60320BD
:1070DC00A9C6032039A30D00DCD10320A1AB0D0000
:1070EC0031D50320B9AB0D00DFAB0D00FBAB0D00B0
:1070FC0013B5304CFDF7C0F9228840F60B439A4289
:10710C0001D0FDF7DDF9FEF73BF802F0ADF82A49A6
:10711C0001F093FD0120FDF7CBFA02F0A5F8274909
:10712C0001F08BFDFF214FF4FA70FDF7DEFB4FF4FD
:10713C00FA7000F0FDFEFF214FF4FA70FDF7E1FB51
:10714C004FF4FA7000F0F4FEFF214FF4FA70FDF7E3
:10715C00E4FB02F089F81A4901F06FFDFEF7F0FA32
:10716C00FEF73CF8FFF702F9164B17491888002276
:10717C004FF0FF33009201F0FFFA02F075F8134A5A
:10718C001349FFF737FF02F06FF8A278019262788B
:10719C002378009201210F4A01F079FDFDF704FCE0
:1071AC0000F0C0FB0C4B00F59C500830186002B08E
:1071BC0010BD00BF4CD503201CAC0D002CAC0D0039
:1071CC003CAC0D0060C50320D9400D00E4D1032078
:1071DC0051AC0D005FAC0D00D8D9032010B5FEF7F3
:1071EC0057F9FF214FF4FA70FDF77FFB02F03CF8E2
:1071FC004FF4E13102F02CF802F036F80B4901F0B3
:10720C001CFD40F6B83000F093FEFEF729FA044658
:10721C0018B1BDE81040FFF76BBF024601210448CE
:10722C0000F048FD034B1C6010BD00BFB8AC0D0056
:10723C009CC903206CC9032010B58368182B11D18D
:10724C000A4C19222146002301F045FE0023237627
:10725C0002F00AF822460649FFF7CCFEFDF7E2FCE5
:10726C00012010BD4FF0FF3010BD00BF18D503201A
:10727C00DFAC0D007FB5324B324D00221A702B78EB
:10728C00222B04D001F0F0FF2A462F491AE0FDF71B
:10729C00A7FDFDF74FFD2D4C064601F0E5FF2C4BED
:1072AC00009301212B4B029601942B4A01F0EFFC29
:1072BC002A4B2848196802F0D4FB50B101F0D4FFD6
:1072CC0027492A46FFF796FE04B0BDE87040FDF74B
:1072DC00B5BD24491F4802F0C4FB30B931462046E5
:1072EC0004B0BDE87040FFF7B3BE1F49194802F067
:1072FC00B8FB20B904B0BDE87040FDF7CFBC1B490A
:10730C00144802F0AEFB20B904B0BDE87040FDF7A4
:10731C00AFBF17490F4802F0A4FB20B904B0BDE879
:10732C007040FDF7CFBF13490A4802F09AFB28B909
:10733C00204604B0BDE87040FFF762BE04B070BDDB
:10734C0039D20320FCD90320FDAC0D00E4D403207A
:10735C00A9C603207EC6032025AD0D00D0D4032082
:10736C0051AD0D00DAA20D00E7A40D001BA50D0018
:10737C00F2A40D0072AD0D0030B5144B85B0012296
:10738C000C461A70054600F0CDFA114B00F59C40E6
:10739C002030186001F068FF22460E49FFF72AFEE4
:1073AC002846FDF7C9FD01F05FFF0B4901F045FCD4
:1073BC000A49684601F01AFD002221466846FDF78D
:1073CC00ABFB684601F0CBFC05B030BDF4C6032026
:1073DC0014D503207EAD0D005DD2032072AD0D00DF
:1073EC0010B501F041FF0B4901F027FC0A4B0020BE
:1073FC00E42202FB00F15C1894F8204034B1064BF7
:10740C0020311944BDE81040FFF7B6BF0130042805
:10741C00EFD110BD9CAD0D004CD5032038B5404BC1
:10742C001B781BB33F4C25783DB101F01DFF3E4945
:10743C0001F003FC0023237027E03C4C237833B18C
:10744C0001F012FF3A4901F0F8FB257031E0394B9D
:10745C001B78F3B100F066FA374B1B68834218D2E5
:10746C0001F002FF354901F0E8FB0EE0344B1B78CC
:10747C0083B300F057FA334B1B6898422AD901F0BA
:10748C00F3FE314901F0D9FB20E0BDE83840FDF7AF
:10749C006FBF2E4B1B78002B41D000F043FA2C4BC6
:1074AC001B68984200D838BD01F0DEFE294901F076
:1074BC00C4FBBDE83840FDF793BF274C2378C3B11C
:1074CC0001F0D2FE254901F0B8FB2570BDE838402B
:1074DC00FDF722BF224C2578002DEED001F0C4FE22
:1074EC00204901F0AAFB00232370BDE83840FFF7C8
:1074FC0019BD1D4B1B785BB100F014FA1B4B1B68BC
:10750C0098420CD901F0B0FE194901F096FB02E04B
:10751C00FEF798FA18B1BDE83840FFF761BF38BDE7
:10752C0061C60320ECC60320ACAD0D007DC6032064
:10753C00BCAD0D0075C9032054C60320FFAD0D0072
:10754C00EDC6032064C603207CAE0D00E2C9032007
:10755C00E8C603203EAE0D0031D5032045AA0D0030
:10756C005CD20320CBAD0D00F4C6032014D5032050
:10757C00E3AD0D007FB5334E334C01F075FE03685F
:10758C001B69984740B301F06FFE03685B6998472D
:10759C002368F05401F068FE03681B699847236860
:1075AC00054638B10133282193FBF1F201FB12336C
:1075BC002360E2E7F05401F057FE224901F03DFB55
:1075CC0020492560684601F011FC6846FEF7D2FBA5
:1075DC00684601F0C4FBD0E71C4B1B783BB101F0B3
:1075EC0043FE1B4901F029FBFFF744FE28E0194B31
:1075FC001C7814B1FEF754F822E0FEF7EBFEFFF70F
:10760C000DFF154B1A783AB11C70144B1968144BBA
:10761C0022461868FFF718F9124B1A783AB1002273
:10762C001A700E4B1968104B1868FFF74FF90F4B77
:10763C001A682AB100221A60FDF706FAFDF7DEF887
:10764C0004B070BDBAC90320C0E3032039D20320B3
:10765C00B8AE0D00A8C60320B8C90320D8D10320AA
:10766C00CCD403209DC60320F8C603205CC603209F
:10767C002DE9F0435A4B5B4F5B4EDFF8A48101259B
:10768C001D705A4B87B002241C7000F093F9002235
:10769C001E21204600F050FB4FF014090346CDF894
:1076AC000090224601954FF47F01384601F004F911
:1076BC0032464146384602F007F800220A2120469D
:1076CC0000F03AFB4A4FCDF8009003462246019554
:1076DC004FF47F41384601F0EFF8464CDFF8449107
:1076EC0032464146384601F0EFFF434B029302AA63
:1076FC000023424FDFF83081CDF8149041F28831ED
:10770C0020460497FCF7A0FD02A8FCF783FD324647
:10771C004146204601F0D8FF394A3A4B12681A60AC
:10772C00394A049712685A604FF448721A614FF440
:10773C00B97200244FF47A715A62344F99636422FF
:10774C00DC601C725C619C61DA621D635D63DD63ED
:10775C001D642F4B029302AA23463846CDF8149091
:10776C00FCF772FD02A8FCF755FDDFF8C090384617
:10777C00284F3246414601F0A7FFDFF8B480494656
:10778C00384601F033FB3846234F3246414601F070
:10779C009BFF4946384601F029FB324641463846A4
:1077AC0001F092FF1D4B0C225A702146FF220B2632
:1077BC0028461E709A7000F09FFA01F041FE234695
:1077CC00224642F6A23101F043FE01F039FE234677
:1077DC002246314601F044FE07B0BDE8F08300BFFD
:1077EC009CC6032098C90320F0C5032068C603205B
:1077FC00DCD9032038C60320B5400D00E9400D004C
:10780C0048C50320F4C5032068C503207CC90320A8
:10781C00C1400D00D8C60320D0D403204CD5032082
:10782C00A1410D00E5400D00D9420D00D3A50D007E
:10783C006B8D0D0008B5024B1B689B68019308BD4E
:10784C004802030008B5024B1B68DB68019308BDB6
:10785C004802030008B5024B1B681B69019308BD65
:10786C004802030008B5024B1B685B69019308BD15
:10787C004802030008B5024B1B68DB69019308BD85
:10788C004802030008B5024B1B681B6A019308BD34
:10789C004802030008B5024B1B685B6A019308BDE4
:1078AC004802030008B5024B1B689B6A019308BD94
:1078BC004802030008B5024B1B68DB6A019308BD44
:1078CC004802030008B5024B1B685B6C019308BDB2
:1078DC004802030008B5024B1B689B6C019308BD62
:1078EC004802030008B5024B1B681B6F019308BDCF
:1078FC004802030008B5024B1B689B6E019308BD40
:10790C003402030008B5024B1B685B68019308BD89
:10791C001802030008B5024B1B68DB68019308BD15
:10792C001802030008B5024B1B685B69019308BD84
:10793C001802030008B5024B1B68DB69019308BDF4
:10794C001802030008B5024B1B689B6A019308BD23
:10795C001802030008B5024B1B68DB6A019308BDD3
:10796C001802030008B5024B1B681B6B019308BD82
:10797C001802030008B5024B1B685B6C019308BD31
:10798C001802030008B5024B1B689B6C019308BDE1
:10799C001802030008B5024B1B68DB6C019308BD91
:1079AC001802030008B5024B1B689B6D019308BDC0
:1079BC001802030008B5024B1B681B68019308BD35
:1079CC002C02030008B5024B1B685B68019308BDD1
:1079DC002C02030008B5024B1B689B68019308BD81
:1079EC002C02030008B5024B1B68DB68019308BD31
:1079FC002C02030008B5024B1B681B69019308BDE0
:107A0C002C02030008B5024B1B685B69019308BD8F
:107A1C002C02030008B5024B1B689B69019308BD3F
:107A2C002C02030008B5024B1B68DB69019308BDEF
:107A3C002C02030008B5024B1B689B6A019308BD1E
:107A4C002C02030008B5024B1B681B6B019308BD8D
:107A5C002C02030008B5024B1B689B6F019308BDF9
:107A6C002C02030008B5024B1B68DB6F019308BDA9
:107A7C002C02030008B5024B1B681B68019308BD60
:107A8C002802030008B5024B1B68DB68019308BD94
:107A9C002802030008B5024B1B681B69019308BD43
:107AAC002802030008B5024B1B689B69019308BDB3
:107ABC002802030008B5024B1B68DB69019308BD63
:107ACC002802030008B5024B1B681B6A019308BD12
:107ADC002802030008B5024B1B685B6A019308BDC2
:107AEC002802030008B5024B1B689B6A019308BD72
:107AFC002802030008B5024B1B68DB6A019308BD22
:107B0C002802030008B5024B1B681B6B019308BDD0
:107B1C002802030008B5024B1B685B6B019308BD80
:107B2C002802030008B5024B1B681B6C019308BDAF
:107B3C002802030008B5024B1B681B6D019308BD9E
:107B4C002802030008B5024B1B685B69019308BD52
:107B5C006402030008B5024B1B689B68019308BDC7
:107B6C006802030008B5024B1B68DB68019308BD73
:107B7C006802030008B5024B1B681B68019308BD23
:107B8C002402030008B5024B1B68DB69019308BD96
:107B9C003002030008B5024B1B681B6A019308BD39
:107BAC003002030008B5024B1B681B68019308BD2B
:107BBC003C02030008B5024B1B689B68019308BD8F
:107BCC003C02030008B5024B1B68DB68019308BD3F
:107BDC003C02030008B5024B1B681B69019308BDEE
:107BEC003C02030008B5024B1B685B69019308BD9E
:107BFC003C02030008B5024B1B689B69019308BD4E
:107C0C003C02030008B5024B1B68DB69019308BDFD
:107C1C003C02030008B5024B1B681B6A019308BDAC
:107C2C003C02030008B5024B1B689B6A019308BD1C
:107C3C003C02030008B5024B1B68DB6A019308BDCC
:107C4C003C02030008B5024B1B681B68019308BD7E
:107C5C004C02030008B5024B1B685B68019308BD1E
:107C6C004C02030008B5024B1B681B69019308BD4D
:107C7C004C02030008B5024B1B685B69019308BDFD
:107C8C004C02030008B5024B1B689B69019308BDAD
:107C9C004C02030008B5024B1B68DB69019308BD5D
:107CAC004C02030008B5024B1B681B6A019308BD0C
:107CBC004C02030008B5034B1B68D3F880300193CA
:107CCC0008BD00006002030008B5024B1B681B686E
:107CDC00019308BD2002030008B5024B1B685B68CA
:107CEC00019308BD2002030008B5024B1B685B69B9
:107CFC00019308BD2002030008B5024B1B68DB6A28
:107D0C00019308BD2002030008B5024B1B68DB6C15
:107D1C00019308BD2002030008B5024B1B685B6D84
:107D2C00019308BD2002030008B5024B1B689B6D34
:107D3C00019308BD2002030008B5024B1B68DB6FE2
:107D4C00019308BD2002030008B5034B1B68D3F850
:107D5C008830019308BD00002002030008B5034BD6
:107D6C001B68D3F89430019308BD00002002030077
:107D7C0008B5024B1B681B68019308BD4402030045
:107D8C0008B5024B1B685B68019308BD44020300F5
:107D9C0008B5024B1B689B68019308BD44020300A5
:107DAC0008B5024B1B68DB68019308BD4402030055
:107DBC0008B5024B1B681B69019308BD4402030004
:107DCC0008B5024B1B685B69019308BD44020300B4
:107DDC0008B5024B1B68DB69019308BD4402030024
:107DEC0008B5024B1B681B6A019308BD44020300D3
:107DFC0008B5024B1B685B6A019308BD4402030083
:107E0C0008B5024B1B681B6B019308BD44020300B1
:107E1C0008B5024B1B68DB6B019308BD44020300E1
:107E2C0008B5024B1B685B68019308BD4002030058
:107E3C0008B5024B1B689B68019308BD4002030008
:107E4C0008B5024B1B68DB68019308BD40020300B8
:107E5C0008B5024B1B681B69019308BD4002030067
:107E6C0008B5024B1B685B69019308BD4002030017
:107E7C0008B5024B1B689B69019308BD40020300C7
:107E8C0008B5024B1B68DB69019308BD4002030077
:107E9C0008B5024B1B681B6A019308BD4002030026
:107EAC0008B5024B1B681B6B019308BD4002030015
:107EBC0008B5024B1B685B6B019308BD40020300C5
:107ECC0008B5024B1B681B68019308BD1C0203001C
:107EDC0008B5024B1B685B68019308BD1C020300CC
:107EEC0008B5024B1B689B68019308BD1C0203007C
:107EFC0008B5024B1B68DB68019308BD1C0203002C
:107F0C0008B5024B1B685B6A019308BD1C02030099
:107F1C0008B5024B1B68DB6A019308BD1C02030009
:107F2C0008B5024B1B681B6B019308BD1C020300B8
:107F3C000021FFF7D9BE10B5836804460BB901F0D8
:107F4C00E4FBC3689847A3681BB103222146204673
:107F5C00984720461021BDE8104001F0BABB10B57F
:107F6C000446006808B1FFF7B5FC204610BD10B5FB
:107F7C00036804469B689847A368013BA3602BB930
:107F8C0023682046DB68BDE81040184710BD0B681D
:107F9C00036013B15A6801325A60704710B5044639
:107FAC00006828B14368013B43600BB9FFF7DFFF62
:107FBC00204610BD10B5064C002320462360FFF769
:107FCC0081FC2046034A0449BDE8104001F07CBB0B
:107FDC00C4E30320F0C503206B7F0D007047002025
:107FEC00704710B51021044601F073FB204610BDFC
:107FFC0008B508B1FFF7F5FF08BD0022026010B507
:10800C004FF69C728280B1F9044084808A800268A9
:10801C000C6804600A6010BD10B504460068FFF7D8
:10802C0057FF204610BD38B5C468F4B12378022B35
:10803C0003D104F10C00FFF7EFFF656835B128465A
:10804C00FCF7E8F81021284601F043FBA56835B190
:10805C002846FCF7DFF81021284601F03AFB2046B1
:10806C001421BDE8384001F034BB38BD10B588B0E0
:10807C000446684600F0BAFE694604A800F0F5FE16
:10808C0004A8A047044604A800F069FE684600F066
:10809C0066FE204608B010BDF0B5102485B007462A
:1080AC000E46154600212246684601F09AFC002235
:1080BC0069461046ADF80040029703960195FFF70C
:1080CC005FFE05B0F0BD13B5044691E80500002332
:1080DC004B600B602060626001A801930093FFF776
:1080EC005DFF204602B010BDF7B50C4602AD54F84A
:1080FC00043B45F8083D06460F4601A82146FFF70C
:10810C0046FF29463046FFF7DEFF01A8FFF746FF82
:10811C002046FFF743FF3846082101F0DAFA3046D3
:10812C0003B0F0BD13B50B46044603C88DE803003D
:10813C0093E8030084E803009DE8030083E8030050
:10814C0002B010BD38B500230446036010200D4664
:10815C00FBF79BFF28B1012343608360024B036054
:10816C00C5602060204638BD7CAF0D00826810B51C
:10817C000AB901F0CAFAC368BDE81040184708B53F
:10818C00006800F11001FFF7F1FF08BD826810B51F
:10819C000AB901F0BAFAC368BDE81040184708B52F
:1081AC00006800F11001FFF7F1FF08BD38B500239E
:1081BC0083608B6804460D462BB102229847EB680E
:1081CC00E360AB68A360204638BD0000F0B589B011
:1081DC0004686846FFF711FF00238DF808304FF054
:1081EC000202D4E84F3F002B03D1C4E8412F0029F1
:1081FC00F7D102D08DF8083063E014F10C0503D0F0
:10820C0069462846FFF7F9FEBFF35F8F01236370C1
:10821C00002004F10803BFF35F8F53E8006F43E8BD
:10822C000002002AF9D1BFF35F8F002E49D0FFF76F
:10823C006BFD20B129463046FFF798FF3AE03146F6
:10824C0002A8FFF7B3FFE068B4F9105008B101F0D1
:10825C002BFC06901020ADF81C50FBF716FF0546C2
:10826C00E8B1002787601820FBF70FFF044688B1A0
:10827C000146876002A8FFF755FF049BA268A36024
:10828C00059B049206A9E268E36004F110000592D4
:10829C00FFF7B3FE0D4BEB600D4B2C60AB6006A8EB
:1082AC00FFF7BAFE02A8FBF7B5FF002229460948E2
:1082BC00FFF732FD3046FBF7ADFF1021304601F0E1
:1082CC0008FA6846FFF7A8FE09B0F0BD8B810D00D7
:1082DC0001840D00437F0D002DE9F04F8BB0064655
:1082EC000F46904699469DF850A0FFF769FD07ADE3
:1082FC00834630BB4FF62E73059005A92846ADF882
:10830C001830FFF77AFE1420FBF7BFFE044658B175
:10831C000223037001234370C0F804B0C0F808B006
:10832C0029460C30FFF769FE3046214640F8044BD5
:10833C00FFF708FF2846FFF76FFE05A8FFF76CFE56
:10834C0052E000240C2314206C60AC600793FBF704
:10835C009CFE014618B1047044704460846004A80B
:10836C000391FFF7EFFE224B08930820FBF78DFEDD
:10837C00044628B1039B40F8043B04A9FFF707FE11
:10838C0000955FFA8AF34A46414638460994FFF74E
:10839C0027FD20B9039B5B7803F0FF0283B1039B9D
:1083AC00059304A906A8FFF7F2FD05A93046FFF7CF
:1083BC008AFE06A8FFF7F2FD04A8FFF7EFFD13E015
:1083CC004FF69C7305A903A80592ADF81830FFF77A
:1083DC00FDFE05A8FFF720FE05A80999FFF784FE0E
:1083EC0006A8FFF7DBFDDAE730460BB0BDE8F08FEF
:1083FC0071850D00022AF8B5044606D0032A17D061
:10840C00012A22D10B6803601FE018200E68FBF7CD
:10841C003CFE054650B13146FFF7C8FE3069B6F94F
:10842C00147008B101F040FB2861AF8225600CE0AC
:10843C00046854B104F11000FFF7EEFD2046FBF781
:10844C00E9FE1821204601F044F90020F8BD38B5AA
:10845C00002383608B6804460D462BB1022298479B
:10846C00EB68E360AB68A360204638BD022A70B5A8
:10847C00044606D0032A11D0012A18D10B680360D8
:10848C0015E014200E68FBF700FE054620B13146BE
:10849C00FFF7DDFF337C2B74256008E0046834B1F2
:1084AC002046FBF7B7FE1421204601F012F90020FC
:1084BC0070BD0000F0B5002387B00C46BFF35F8F92
:1084CC0050E8006F40E80032002AF9D1BFF35F8F0B
:1084DC00002E3FD01846FFF717FC074620B1214667
:1084EC003046FFF753FE2EE0314601A8FFF7AFFFF1
:1084FC0023788DF814301020FBF7C7FD0546D0B15A
:10850C0087601420FBF7C1FD044678B187600146F3
:10851C0001A8FFF707FE039BA268A360049B0392CC
:10852C00E268E3609DF81430049223740A4BEB600C
:10853C000A4B2C60AB6001A8FBF76CFE00222946AD
:10854C000748FFF7E9FB3046FBF764FE1021304685
:10855C0001F0BFF807B0F0BDAB810D0079840D00C0
:10856C00437F0D0030B585B004460D466846114674
:10857C00FFF7BAFD7CB124B228460DB101F094FA94
:10858C00029002A96846ADF80C40FFF71FFE02A846
:10859C00FFF742FD1DE000988DF808404FF00102F6
:1085AC00D0E84F3FA34203D1C0E8412F0029F7D1B7
:1085BC0002D08DF808300CE010F10C014FF00103E3
:1085CC0018BF0373BFF35F8F043000F8033CFFF751
:1085DC0071FF01A8FFF7E2FC05B030BD0022114687
:1085EC004068FFF755BC002211464068FFF760BC9D
:1085FC0000224068FFF754BC002281F00101406862
:10860C00FFF73EBC00231A4619464068FFF730BC02
:10861C0000231A4619464068FFF722BC0022114677
:10862C004068FFF715BC002211464068FFF700BCFC
:10863C00002202214068FFF703BC00231A46406861
:10864C00FFF7EEBB024B03225A60024A1A607047D6
:10865C00C8E3032098AF0D007047F8B506461546E1
:10866C000C468F18BC4206D0336814F8011B9B686B
:10867C0030469847F6E72846F8BD0022007CFFF705
:10868C0021BA0021007CFFF725BA0021007CFFF7FE
:10869C0029BA0021007CFFF72DBA0021007CFFF7DE
:1086AC0031BA10B51421044601F013F8204610BD60
:1086BC0010B50446002363604FF47A73A360044B37
:1086CC002174084623601146FFF72CFA204610BD92
:1086DC00CCAF0D000022007CFFF7CCB900231A466A
:1086EC001946007CFFF7CEB90021007CFFF7D2B908
:1086FC0070B50C4686B0142506462A46002101A802
:10870C0001F06FF923788DF8083063680393E36800
:10871C0004930022237A307CADF8045001A9059310
:10872C00FFF708FA06B070BD1FB500338DF80010C6
:10873C004FF06401039118BF0123694601928DF833
:10874C000830FFF7D5FF05B05DF804FB0123FFF7F8
:10875C00EBBF0022007CFFF7A5B9C9B2FFF7F9BF48
:10876C000022007CFFF7A6B90121FFF7F9BF002119
:10877C00007CFFF7CFB90047F0B585B01C460E461C
:10878C0017460546FFF74EF9002084424FF00403CC
:10879C0003908DF80C30A5BF9DF828308DF80E3065
:1087AC00034603AB009332463B460649A8BF8DF8FF
:1087BC000D402846FFF72EF9B0FA80F0400905B0BD
:1087CC00F0BD00BF83870D00704710B5182104461B
:1087DC0000F07FFF204610BDF0B5037D062B8DB059
:1087EC000E4600F104074FF0000402D000F108051A
:1087FC0018E00CAD394605F8304D2F232A460A20D7
:10880C00FFF7A0F9284601F06AF933680246DB68E5
:10881C002946304698470FE024B12E21304600F00F
:10882C00FDF9044415F8011D0A22304600F00FFA38
:10883C00BD420444F0D120460DB0F0BD10B5054B3F
:10884C000446112240F8043B002101F0CAF82046EE
:10885C0010BD00BFF4AF0D000346074A10B543F836
:10886C00042B01F1100251F8044B43F8044B9142D4
:10887C00F9D10A781A7010BDF4AF0D0010B59DF83F
:10888C00084044EA032343EA024242EA016104231A
:10889C004160037510BD37B50D788B784A78C9786F
:1088AC0000912946FFF7EAFF03B030BD0A680B467A
:1088BC00926801461846104770B50E4C04601C2493
:1088CC0044609DF814409DF8106004F0030444EAE1
:1088DC0086040025E4B20474427485744161427CC0
:1088EC0085600F2A08BF044BC56006BF8361C06159
:1088FC00038370BDD09C0D00B9880D00014B024A5A
:10890C001A607047D0E303206BB00D0000221146B3
:10891C004068FFF7BDBA002211464068FFF7C8BA9D
:10892C0000224068FFF7BCBA002281F001014068C8
:10893C00FFF7A6BA00231A4601214068FFF798BA40
:10894C0000231A4619464068FFF78ABA00221146DE
:10895C004068FFF77DBA002211464068FFF768BAFD
:10896C00002202214068FFF76BBA00231A464068C8
:10897C00FFF756BA38B5054688B104684CB1A36800
:10898C001BB103222146204698471021204600F0B7
:10899C00A0FE28461421BDE8384000F09ABE38BD30
:1089AC0010B103685B681847704710B5036804463C
:1089BC00BBB15868FEF73EFF78B923685A7C12B9F0
:1089CC005868FEF747FF23685868FEF74BFF20688E
:1089DC000023236028B1FFF7CDFF206808B1FFF713
:1089EC00C9FF204610BD38B50446D0F8C40108B103
:1089FC00FBF74FFBD4F8C00108B1FEF76BFFD4F8BE
:108A0C00BC5135B12846FFF7D0FF0421284600F0B1
:108A1C0060FE206808B1FFF7C3FF204638BD000098
:108A2C0010B5044B044640F8083BFFF7DCFF20462A
:108A3C0010BD00BFDCB00D0038B50E4C0E4B2360E2
:108A4C000025022304F5E4706360A560C4F8C451EA
:108A5C00C4F8C851FEF736FF084BC4F8CC5184F863
:108A6C00D05123602046064A0649BDE8384000F044
:108A7C002BBE00BFD4E3032010B10D00DCB00D0001
:108A8C00F0C503202D8A0D0000231A464068FFF71D
:108A9C00C7B9002202214068FFF7D2B90022114663
:108AAC004068FFF7C5B9002211464068FFF7D0B9FE
:108ABC0000231A4619464068FFF7D2B900231A461C
:108ACC0019464068FFF7D4B9002281F001014068D3
:108ADC00FFF7D6B900224068FFF7E2B90022114631
:108AEC004068FFF7E5B9002211464068FFF7D0B99E
:108AFC002DE9F043002495B016460D460746FFF7C6
:108B0C009DFE214620220CA8009400F06AFF402311
:108B1C000C9321466B460CAA3046FFF723F804460B
:108B2C00002844D1024601216868FFF791F902211F
:108B3C00804622466868FFF78BF9009E81462146E5
:108B4C00002E34D0002932D17368022B02D00A2BAC
:108B5C0009D02AE0B8F1000F27D0716938460431EA
:108B6C00FFF799FE20E0B9F1000F1ED074691122B5
:108B7C0001A800F036FF06238DF8143001AD04F186
:108B8C0008031834186859682A4603C20833A342EC
:108B9C001546F7D101A906A807ADFFF75DFE0FCD6D
:108BAC003C1D0FC42B6823700121F669C8E700989F
:108BBC00FEF7D0FF384615B0BDE8F083024B034AF0
:108BCC001A6000225A607047A8E5032010B10D000E
:108BDC00F8B506460D468F180024BD420CD03368FC
:108BEC0015F8011B9B6830469847002801DB0444AC
:108BFC00F3E7002C08BF04462046F8BD70B50546C7
:108C0C000C46084649B100F06AFF2B680246214623
:108C1C002846DB68BDE87040184770BD03689B6848
:108C2C00184738B50D210546FFF7F8FF0A21044611
:108C3C002846FFF7F3FF204438BD38B50546FFF74B
:108C4C00DDFF04462846FFF7ECFF204438BD30B565
:108C5C008BB00B4600218DF82410012A98BF0A22F4
:108C6C000DF12304B3FBF2F505FB123303F0FF0304
:108C7C00092B94BF30333733DBB2214604F801396A
:108C8C002B46002DEED1FFF7B9FF0BB030BD0CB465
:108C9C002DE9F04387B000AF07F13804054654F8CE
:108CAC00049B3C600E4623464A461421381DFFF7B0
:108CBC0027F9132805D8391D2846FFF79FFF0446CE
:108CCC0013E000F1080323F00703E846ADEB030DB6
:108CDC00411C23464A4668463C60FFF711F9694639
:108CEC002846FFF78BFF0446C5461EB12846FFF702
:108CFC0098FF044420461C37BD46BDE8F04302B043
:108D0C00704710B50446FBF785FA204610BD0000ED
:108D1C000348044A04490023836000F0D5BC00BF1B
:108D2C00B0E50320F0C503200F8D0D00704710B582
:108D3C000C21044600F0CDFC204610BD10B5054BAF
:108D4C000360044601710846FEF71CFF0023A36074
:108D5C00204610BD44B10D000079FEF71BBF10B5C5
:108D6C0004460068FFF7B4F8204610BD10B5044661
:108D7C00006808B1FFF7ACF800232360A3606360C0
:108D8C0010BD38B504460D4600680131FFF7A8F850
:108D9C0010B184E82100012038BD10B503680446E9
:108DAC0013B143688B4207D22046FFF7EAFF20B18C
:108DBC00A3680BB922681370012010BD70B50E4664
:108DCC00114604461546FFF7E8FF18B92046FFF791
:108DDC00CDFF09E02A463146A560206800F0F6FD7B
:108DEC002268A3680021D154204670BD38B50023F9
:108DFC00044603604360836003730D4639B1084633
:108E0C0000F06DFE294602462046FFF7D7FF2046AC
:108E1C0038BD38B5054600680C4660B16A688B6889
:108E2C009A4206D3096800F026FEA368AB600023C3
:108E3C000AE0FFF74DF823682B6063686B60A3684A
:108E4C00AB60002323606360A36038BD884210B51B
:108E5C000B46044607D0096819B19A68FFF7AEFFB4
:108E6C0001E0FFF783FF204610BD10B50023044638
:108E7C000360436083600373FFF7E8FF204610BD77
:108E8C00884210B5044601D0FFF7C3FF204610BD41
:108E9C0070B504460E4609B9002070BD6AB18368EE
:108EAC00D5182946FFF779FF0028F5D02068A3686C
:108EBC003146184400F0DFFDA560012070BD10B5EF
:108ECC008A6809680446FFF7E3FF10B92046FFF7EC
:108EDC004DFF204610BD70B50E469AB191B1856814
:108EEC009D4202D800230B7070BD541EED1A016810
:108EFC00AC4228BF2C4619442246304600F00CFEEA
:108F0C000023335570BD10B58368934207D90468AC
:108F1C000968A01800F013FE08B1001B10BD4FF03B
:108F2C00FF3010BDF8B59A420F461D460C4988BF5C
:108F3C0013461446064684BF2C461D46FFF756FFC3
:108F4C00BA6894420AD83968954294BFC4EB0502BA
:108F5C00C4EB020221443046FFF730FF3046F8BD27
:108F6C00D3A50D0010B504468B68FFF7DBFF204638
:108F7C0010BD006808B100F017BD704710B504466D
:108F8C00006818B1FEF7A4FF0023236010BD10B5D4
:108F9C000446FFF7F3FF204610BD014600228C204B
:108FAC00FEF7A8BC0020FFF7F8BF000010B5094C75
:108FBC0000204FF6FF732060A080A0712081638198
:108FCC00FEF78AFE2046044A0449BDE8104000F032
:108FDC007BBB00BFC0E50320F0C503209B8F0D00B9
:108FEC0008B50020FEF70CFF28B1FEF7E9FE80F073
:108FFC000100C0B208BD012008BD10B50020FEF76D
:10900C00D1FC044668B9FEF75FFE01280BD120465F
:10901C00FEF78AFE38B9FFF7E3FF30B9FEF7B8FE6A
:10902C00F9E7012010BD002010BDFFF7D9FF00208B
:10903C00FEF7B8FC003018BF012010BD08B5FFF7D3
:10904C00DCFFBDE80840FEF775BC0000024B1A6857
:10905C00024B1A60704700BF84C50320CCE5032087
:10906C00F8B585B2044628460E46174600F000FABD
:10907C0060B102212846FEF7A5FC022806D13A462B
:10908C0031462046BDE8F840FEF774BDF8BD704788
:10909C004174704708B5007CFEF7C4FD20EAE0700F
:1090AC0008BD08B5007CFEF795FD20EAE07008BD10
:1090BC0008B5007CFEF79EFD30EA200028BF4FF07B
:1090CC00FF3008BD08B5007CFEF78CFD30EA2000AF
:1090DC0028BF4FF0FF3008BD007CFEF793BD10B5E4
:1090EC001421044600F0F5FA204610BD70B5457CFD
:1090FC0004460E4625B9007CFEF794FD002805DDDC
:10910C003146207CBDE87040FEF75CBD284670BD42
:10911C0010B5044608461146002262604FF47A727C
:10912C00A260054A22600122207462741A46FEF77E
:10913C0039FD204610BD00BF80B10D000023007C1E
:10914C00FEF778BD0022FFF7F9BF007CFEF732BDB9
:10915C00007CFEF75FBD000038B50C4D296811F09E
:10916C00010411D12846FAF796FF68B1084A094B59
:10917C0009482146FFF7CCFF2846FAF791FF074A2A
:10918C000749054800F0A0FA034838BD68E60320FB
:10919C006CE60320E4E50320D0E50320F0C50320B2
:1091AC009B900D0041747047704708B50021007CFE
:1091BC00FEF768FD30EA200028BF4FF0FF3008BDF5
:1091CC0008B50121007CFEF75DFD30EA200028BFC8
:1091DC004FF0FF3008BD08B5007CFEF74BFD20EAD0
:1091EC00E07008BD08B5007CFEF73CFD20EAE0709D
:1091FC0008BD007CFEF756BD10B51421044600F0E6
:10920C0068FA204610BD38B50446007C0D46FEF7C2
:10921C0031FD002801DC607C28B12946207CFEF75A
:10922C0039FD20EAE07038BD10B5044600236360B8
:10923C004FF47A73A360054B236001230846217415
:10924C0063741146FEF7FEFC204610BDB0B10D0054
:10925C000022007CFEF7FEBC10B51422044600214F
:10926C0000F0BFFB204610BD30B50E4D87B001A8F5
:10927C00FFF7F2FF296811F0010410D12846FAF724
:10928C000AFF60B101AA21460748FFF7CDFF284627
:10929C00FAF706FF054A0649034800F015FA02489A
:1092AC0007B030BDF0E60320F4E60320F0C5032040
:1092BC00B5910D00002211464068FEF7C9BD002291
:1092CC0011464068FEF7E4BD002211464068FEF7E7
:1092DC00EFBD00224068FEF7E3BD002281F00101E2
:1092EC004068FEF7CDBD00231A4619464068FEF7CC
:1092FC00BFBD00231A4619464068FEF7B1BD0022D7
:10930C0011464068FEF794BD002202214068FEF72A
:10931C0097BD00231A464068FEF782BD024B04221B
:10932C005A60024A1A60704708E70320E0B10D004A
:10933C0008B50C4B33B1FFF797FF03681B699847CF
:10934C00002809DC084B63B1FFF706FF03681B69B3
:10935C009847002803DC08BDAFF30080F2E7AFF3B9
:10936C00008008BD000000000000000008B5FFF7F9
:10937C00DFFFFEF7D7FA014B186008BD18E7032092
:10938C000248034A0349121A00F020BB00F40320E0
:10939C0004F40320B0B30D0007B5002300931A4664
:1093AC006FF07701FEF7DAFC03B05DF804FB000008
:1093BC0007B543880A2B08D0502B09D1094B1B68E1
:1093CC003BB103B05DF804EB1847FFF7E5FF06E08F
:1093DC00002300931A466FF07701FEF7BFFC03B031
:1093EC005DF804FB10E7032038B5104C104D2368D2
:1093FC00AB42104B0CBF012200221A7002D0FFF7B7
:10940C00BFFF2560FEF77EFA044600F0F3FA0A4B24
:10941C0013B12046AFF3008000210748FEF7F8FC9B
:10942C0000210648BDE83840FEF78EBC00F403204E
:10943C001E1C279A14E7032000000000BD930D00AA
:10944C0008B5024B1B681B68019308BD5C02030046
:10945C0008B5024B1B685B68019308BD5C020300F6
:10946C0008B5024B1B689B68019308BD5C020300A6
:10947C0010B5044600F008F9FFF76EFC28B1A4F112
:10948C000B03022B01D8002010BD00F0D7F8FFF71A
:10949C006EF908B1012CF6D9FFF75EFEFFF758FE06
:1094AC0018B1A4F10903012BEDD9232C8CBF00209A
:1094BC00012010BD232838B504460D460AD8FF29D3
:1094CC0008D0FFF7D5FF28B129462046BDE8384023
:1094DC00FEF780BA38BD38B504460D46FEF782FA61
:1094EC00FF2810D0062804D84D2323FA00F0C30718
:1094FC0009D42046FFF7BCFF28B129462046BDE819
:10950C003840FEF777BA38BD10B50446FEF76AFA54
:10951C000438C0B2012808D92046FFF7A9FF20B1B2
:10952C002046BDE81040FEF76DBA002010BD0D2896
:10953C0010B504469CBF0E34A4B22046FFF798FF2A
:10954C0050B103212046FEF73DFA032804D12046F2
:10955C00BDE81040FEF776BA002010BD38B50446C1
:10956C000D46FFF785FFF0B104212046FEF72AFADD
:10957C00042805D1A9B22046BDE83840FEF75ABAF6
:10958C0002212046FEF71EFA02280CD12046FEF7D7
:10959C0029FA012801D0042805D129462046BDE826
:1095AC003840FEF757BA38BD70B504460D4616461E
:1095BC00FFF75EFF98B102212046FEF703FA02285E
:1095CC000DD12046FEF70EFA012801D0042806D151
:1095DC00324629462046BDE87040FEF743BA70BDBE
:1095EC0010B5074C2368DB0708D42046FAF753FD67
:1095FC0020B1FEF7A7F92046FAF752FD014810BD3D
:10960C001CE7032020E7032070B5044614252A46E6
:10961C00094E002100F0E5F9258020253146A56092
:10962C002561284600F06FF831466060284600F04E
:10963C006AF8E060204670BD0CB20D0030B50E4DDE
:10964C00296811F0010487B013D12846FAF723FDDD
:10965C0078B101A8FFF7D8FF01AA21460748FFF708
:10966C0027F82846FAF71CFD054A0649034800F07E
:10967C002BF8024807B030BD24E7032028E703206D
:10968C00F0C5032065860D0038B50B4D296811F027
:10969C0001040FD12846FAF7FEFC58B121460748C1
:1096AC00FFF74CFB2846FAF7FBFC054A0549034833
:1096BC0000F00AF8014838BD48E703203CE70320D6
:1096CC00F0C50320398D0D000B460146184600F0FD
:1096DC006FB9FAF7DCBC0000024B1868BFF35F8F60
:1096EC00704700BF4CE7032010B5002814BF044698
:1096FC0001242046FEF7E4FB20B9FFF7EDFF08B18B
:10970C008047F6E710BDFFF7EFBF08B5FEF700FC8A
:10971C00244B1A68D0075CBF01221A60224B1A68CE
:10972C00D1075CBF01221A60204B1A68D2075CBFBC
:10973C0001221A601E4B1A68D0075CBF01221A6006
:10974C001C4B1A68D1075CBF01221A601A4B1A68AD
:10975C00D2075CBF01221A60184B1A68D0075CBF95
:10976C0001221A60164B1A68D1075CBF01221A60DD
:10977C00144B1A68D2075CBF01221A60124B1A688C
:10978C00D0075CBF01221A60104B1A68D1075CBF6E
:10979C0001221A600E4B1A68D2075CBF01221A60B4
:1097AC00704700BF7CE7032078E7032074E70320B1
:1097BC0070E703206CE7032068E7032064E70320CD
:1097CC0060E703205CE7032058E7032054E70320FD
:1097DC0050E70320184B1A68D1075CBF01221A60AE
:1097EC00164B1A68D2075CBF01221A60144B1A6818
:1097FC00D0075CBF01221A60124B1A68D1075CBFFC
:10980C0001221A60104B1A68D2075CBF01221A6041
:10981C000E4B1A68D0075CBF01221A600C4B1A68F9
:10982C00D1075CBF01221A600A4B1A68D2075CBFD1
:10983C0001221A60704700BF9CE7032098E70320C1
:10984C0094E7032090E703208CE7032088E70320AC
:10985C0084E7032080E70320184B1A68D1075CBF0C
:10986C0001221A60164B1A68D2075CBF01221A60DB
:10987C00144B1A68D0075CBF01221A60124B1A688D
:10988C00D1075CBF01221A60104B1A68D2075CBF6B
:10989C0001221A600E4B1A68D0075CBF01221A60B5
:1098AC000C4B1A68D1075CBF01221A600A4B1A686C
:1098BC00D2075CBF01221A60704700BFBCE70320CF
:1098CC00B8E70320B4E70320B0E70320ACE703209C
:1098DC00A8E70320A4E70320A0E70320244B1A6881
:1098EC00D0075CBF01221A60224B1A68D1075CBFFB
:1098FC0001221A60204B1A68D2075CBF01221A6041
:10990C001E4B1A68D0075CBF01221A601C4B1A68E8
:10991C00D1075CBF01221A601A4B1A68D2075CBFD0
:10992C0001221A60184B1A68D0075CBF01221A601A
:10993C00164B1A68D1075CBF01221A60144B1A68C7
:10994C00D2075CBF01221A60124B1A68D0075CBFA9
:10995C0001221A60104B1A68D1075CBF01221A60F1
:10996C000E4B1A68D2075CBF01221A60704700BF09
:10997C00ECE70320E8E70320E4E70320E0E703201B
:10998C00DCE70320D8E70320D4E70320D0E703204B
:10999C00CCE70320C8E70320C4E70320C0E703207B
:1099AC000A22002100F06CB90A22002100F068B9EB
:1099BC0010B5054C13462CB10A4601460220AFF3F4
:1099CC00008010BD204610BD0000000010B5431EE5
:1099DC000A44914204D011F8014B03F8014FF8E707
:1099EC0010BD02440346934202D003F8011BFAE770
:1099FC007047000038B5124B1C68A36B0546D3B9F1
:109A0C001820FEF75DFA43F20E33A06303804AF68A
:109A1C00CD33438041F2342383804EF26D63C38097
:109A2C004DF6EC630381052343810B2383810122D3
:109A3C000023C0E90423A36B00221D615A6138BDC9
:109A4C00ECC5032010B50246134601321C78002CDD
:109A5C00FAD1013B11F8012B03F8012F002AF9D19F
:109A6C0010BD10F8012B11F8013B012A28BF9A42B6
:109A7C00F7D0D01A7047034611F8012B03F8012BCD
:109A8C00002AF9D1704770B503461A4612F8015BEB
:109A9C0045B14C1E14F8016F16B1B542FAD101E074
:109AAC001346F2E7181A70BD024B0146186800F015
:109ABC0003B800BFECC5032070B5064608460C463B
:109ACC0000F00DF8451C29463046FEF729FA0646EB
