:02000002D0002C
:1040000000400D008CB40D00000006000D000501FD
:084010000401DC0500000000C2
:04401800349D0D00C6
:10401C0009480A49884208B505D0094A824202D0AB
:10402C00121A05F01DFD0748074A0021121A05F067
:10403C0022FD014808BD00BF00C60320B4B30D002B
:10404C00ACC60320ACC60320F0E7032070B505F026
:10405C00EFF9074C074BE41AA40800251E46A542AD
:10406C0004D056F8253098470135F8E770BD00BFED
:10407C00A4B30D0068B30D0002F086BF08B503F0C1
:10408C0083FABDE8084005F095B903F02FBF03F0A3
:10409C0035BF03F033BF0078B0FA80F040097047A9
:1040AC000123037070477047014B01221A7070474F
:1040BC00A8CA0320014B01221A60704738C703209D
:1040CC00014B01221A707047FCD503200368184776
:1040DC00012A02D0022A02D004E0016002E00B683F
:1040EC0000B103600020704708B505F01FF90249C4
:1040FC00BDE8084004F0C3BD70A10D0013B50C461B
:10410C00114805F0E9FC204605F033FDB0F5007FC1
:10411C0007DB204410F8013CA3F122025342534127
:10412C0000E00123094C237005F000F92378084ABC
:10413C00002B14BF59234E2300930121024B04F092
:10414C00C8FD02B010BD00BFCCDA032029D3032078
:10415C007AA10D0013B500210446084603F0A8FB14
:10416C0002A90023204641F8043D03F0B9FB019C51
:10417C000CB1012323710021012003F099FB2CB118
:10418C00236820469B6898470023237102B010BD1A
:10419C0010B5054B00220446114640F8043B03F0D1
:1041AC009FFD204610BD00BF649D0D0010B5044658
:1041BC00FFF7EEFF2046202105F0D7FA204610BD70
:1041CC0037B50C4605460F4805F086FC204605F031
:1041DC00D0FCB0F5007F07DB204410F8013CA3F1C4
:1041EC0022025342534100E00123074A137005F0A9
:1041FC009DF800942B46054A012104F06AFD03B09A
:10420C0030BD00BFCCDA032029D30320A5A10D00BB
:10421C0010B58368044613B1032201469847204623
:10422C0010BD38B5044670B1056835B12846FFF7A6
:10423C00EFFF1021284605F098FA20461421BDE81E
:10424C00384005F092BA38BD10B543690446BBB18D
:10425C00586803F00DFB78B963695A7C12B9586839
:10426C0003F016FB6369586803F01AFB60690023BE
:10427C00636128B1FFF7D5FF606908B1FFF7D1FF83
:10428C00201DFFF7C5FF204610BD000030B587B0DC
:10429C001D4600230446049322B1224B0593224B66
:1042AC00029204930023E360049B21603BB1022241
:1042BC0002A9201D9847059B2361049BE3601B49C1
:1042CC00142005F05DFA30B10023037403604360E1
:1042DC008360C36043746061A0B1154B83606369F4
:1042EC001449DC606069144B8DE82100092204300C
:1042FC0003F0B6FA30B963691B7C4BB9012003F0AB
:10430C001FFBF8E760690023636108B1FFF789FFC1
:10431C0003F026FB094B186002A8FFF779FF204633
:10432C0007B030BDD9400D00DD400D0004B20D00CA
:10433C00B1960D00CAA10D00A1550D0010E7032088
:10434C0008B503F00DFB034B1860BDE8084003F003
:10435C0035BD00BF10E703200368C9B29B6818473E
:10436C00F0B500258E4615490571856045610160E3
:10437C00044692E8030085B002AF04F10C0687E80E
:10438C00030096E8030082E8030097E8030086E840
:10439C0003009168606990606161D168A069D06028
:1043AC00A1618DE82800064A2346714604F10800F5
:1043BC0003F086FA204605B0F0BD00BF509D0D00FD
:1043CC0061410D0007B58068002340B18DE80A00FB
:1043DC001A46022103F08CFAB0FA80F0400903B0BF
:1043EC005DF804FB38B50F4B0360836804469BB142
:1043FC006FF00041FFF7E6FF0021A06803F090FA90
:10440C00237903F0FF0513B103F03AFAF8E72946D4
:10441C00A06803F05DFAA56004F10C00FFF7F8FE4C
:10442C00204638BD509D0D0010B50446FFF7DAFF4D
:10443C0020461C2105F099F9204610BD73B506469F
:10444C000D4611461446FFF7BDFFB068002340B17E
:10445C00019300952246194603F04AFAB0FA80F00F
:10446C00400902B070BD000040F67263984270B50E
:10447C001CDC0F4A002352F8044BA04203F1010547
:10448C000FDC116888420CDD0A4E56F8232056F8D2
:10449C0025309D1A031B6B43081B93FBF0F0104453
:1044AC0070BD142D2B46E6D1002070BD184670BD92
:1044BC0018AF0D00C4AE0D001FB50C2AA8BF0C22FE
:1044CC00014401A8144605F071FB04AB1C4401A87F
:1044DC00002304F80C3C05F0ADFA04B010BD2DE936
:1044EC00FF410D68D2F8008046190F463046414610
:1044FC0005F06FFB801B0E28A8BF0E20024631462C
:10450C000446684605F052FB404605F032FB04AB0E
:10451C00284420441C4438600023684604F8103CAE
:10452C0005F088FA04B0BDE8F081000010B5084C25
:10453C0001444FF0FF32884208D010F8013B534041
:10454C00DBB254F8233083EA1222F4E7D04310BDD7
:10455C00709D0D00021E30B516DB9110022329B19F
:10456C00914203D0023342FA03F1F8E7023B0020F8
:10457C004000411C42FA03F401FB01F5A542D8BFEF
:10458C000846023BF4D530BD4FF0FF3030BD000083
:10459C0038B5064D002405F08DF8204603F0F8F9E7
:1045AC0028550134B4F56A7FF5D138BD3CD60320CB
:1045BC0038B5064D002405F07DF8295D2046013400
:1045CC0003F0EEF9B4F56A7FF5D138BD3CD6032083
:1045DC0038B504F0ABFE0849084D04F050FB00243C
:1045EC0004F11800E42200212844E43405F043FAD5
:1045FC00B4F5647FF4D138BDD1A10D003CD60320B5
:10460C0008B5064B06221A700C225A70FF229A70BB
:10461C00FFF7DEFFFFF7CCFF012008BD3CD60320DF
:10462C00012870B50E461D4D1BD11D4B188804F08A
:10463C0091FF044640B904F079FE1A4904F01FFBBF
:10464C00194B2C601C6016E02B68002B15DC04F059
:10465C006DFE164904F013FB134B00202860186004
:10466C0070BD2A684AF227039A4206DD04F05EFE0A
:10467C000F4904F004FB002070BD0E4C0121208872
:10468C0004F04FFF304603F063F90021208804F05A
:10469C0048FF304603F05CF9012070BD00D60320C2
:1046AC0028C6032008A20D0068CA032024A20D000E
:1046BC003BA20D0030C603202DE9F84F1C4BDFF850
:1046CC007890C70F044688461888394604F029FFAD
:1046DC00184B84EAE4711A68A1EBE47111441922B5
:1046EC00002C91FBF2F64FF0000402FB16121A603C
:1046FC00B4BF6FF0180A4FF0190A1D46A346B44216
:10470C0013DA41463846FFF78BFF58B1D9F8003021
:10471C005344002B02DDC9F8003004E0C9F800B0A6
:10472C00C5F800B034460134E9E7BDE8F88F00BFA6
:10473C0008C6032068CA032000D60320024B0021C0
:10474C00188804F0EEBE00BF3CC6032008B5054B2C
:10475C000121188804F0E5FE0A20BDE8084003F0AA
:10476C00FDBB00BF3CC6032038B504460D46FFF721
:10477C00EDFF29462046FFF79FFFBDE83840FFF7C5
:10478C00DDBF0000134B10B54AF228021A60044634
:10479C00FFF7DCFF96211048FFF78EFF642003F033
:1047AC00DDFB96214FF4FA60FFF786FF642003F0DF
:1047BC00D5FB4FF47A710948FFF77EFF4FF47A71FD
:1047CC0042F63020FFF778FF1CB1BDE81040FFF730
:1047DC00B5BF10BD00D60320A015FFFF48F4FFFFA6
:1047EC002DE9F04106460D469046002447424445CB
:1047FC0009DA29463046FFF75FFF29463846FFF7AE
:10480C005BFF0134F3E7BDE8F08100002DE9F74FC1
:10481C001E4D009392462B681D4F80EAE072A2EB6E
:10482C00E0721A441923002892FBF3F64FF00004AF
:10483C0003FB16232B6089464FEAD078B4BF6FF088
:10484C00180B4FF0190B2346B44201931ADA0C9A49
:10485C0000995046FFF7C4FF0E4B4146188804F0F0
:10486C0060FE49464046FFF7DBFE019B38B13A68D3
:10487C005A44002A01DD3A6002E03B602B6034466A
:10488C000134E1E703B0BDE8F08F00BF68CA032034
:10489C0000D6032008C6032038B5064C80F3080563
:1048AC0044F620622946208804F0A4FE0123E5602A
:1048BC00237238BDD0C6032010B5044C00212088CB
:1048CC0004F072FE00232372E36010BDD0C60320F7
:1048DC0070B5044603F044F80F4D84F30804064603
:1048EC0044F620622146288804F084FE002C14BF74
:1048FC0001230023EC602B7209D0084B1B7833B1D9
:10490C0004F014FD2346064A012104F0E2F903F0F9
:10491C0027F8801B70BD00BFD0C60320D3CA03206C
:10492C0056A20D00024B0146188804F03DBE00BF94
:10493C0000C60320024B0146188804F035BE00BFA8
:10494C000CC60320024B0146188804F02DBE00BF94
:10495C0018C603200346412B084601D1FFF7E2BFDE
:10496C00312B01D1FFF7E6BF322B01D1FFF7EABFA4
:10497C0070470000024B0021188804F015BE00BFE0
:10498C0000C60320024B0021188804F00DBE00BFA6
:10499C000CC60320024B0021188804F005BE00BF92
:1049AC0018C60320412801D1FFF7E4BF312801D1FB
:1049BC00FFF7E8BF322801D1FFF7ECBF704710B505
:1049CC0004460846FFF7AEFF204603F0C7FABDE8E1
:1049DC001040FFF7CFBF10B504460846FFF7AAFFFB
:1049EC00204603F0BBFABDE81040FFF7CBBF10B573
:1049FC0004460846FFF7A6FF204603F0AFFABDE8D1
:104A0C001040FFF7C7BF38B50C4605460846FFF700
:104A1C0089FF2046FFF78EFF2046FFF793FF2846BD
:104A2C0003F09CFAFFF7A6FFFFF7ACFFBDE8384098
:104A3C00FFF7B0BF08B504F051FE03F0C6FE88B90D
:104A4C0004F04CFE084903F093FE04F047FE03F01B
:104A5C0093FE642003F082FA04F040FEBDE80840A7
:104A6C0003F0B3BE08BD00BFA086010008B504F07A
:104A7C0035FEBDE8084003F085BE000008B5074BC5
:104A8C00074800226FF00041DA61FFF7D7FC04F011
:104A9C004DFC0449BDE8084004F0F1B8D0C6032031
:104AAC006CCA03206DA20D0008B56FF000410648DA
:104ABC00FFF788FC0020FFF70BFF04F037FC0349DD
:104ACC00BDE8084004F0DBB86CCA032090A20D00CE
:104ADC0038B5114C0021208804F066FDA08804F044
:104AEC004CFDE1680546208804F05EFD1DB9FFF71A
:104AFC00DBFF00250EE02846FFF7B6FC052200EB95
:104B0C00C003B0F5167F93FBF2F303F5A07320629C
:104B1C00A362ECDC284638BDD0C603202DE9F04357
:104B2C002F4E8BB0F56802F01BFFF769C7EB00093D
:104B3C00B9F57A7F804634464ED3FFF7C9FFC6F8E5
:104B4C001C808046002847D017B97761B76143E0D5
:104B5C00336A776AB569E26AFF1A4FF47A7107FB18
:104B6C0009F393FBF1F31D44B5617669636BBE1BCE
:104B7C006B434E437A43216BA56B92FBF1F193FB94
:104B8C00F5F56A18E56B236C96FBF9F6754395FB06
:104B9C00F3F5144B1B781544EBB104F0C7FBD4F8B8
:104BAC0020E0636A08950796A16906910A2293FB97
:104BBC00F2F102FB113303939EFBF2F302FB13E2BF
:104BCC000291019200930597CDF810904346064A46
:104BDC00012104F07EF8676128460BB0BDE8F08334
:104BEC00D0C60320D3CA0320D3A20D002DE9F04177
:104BFC00074694B00E463A4D02B92A602B683946E6
:104C0C00013310A82B6004F066F910A9354804F0A4
:104C1C006DF910A804F0D9F83146334804F075FF4B
:104C2C00324A334900231370324A04A8137004F03B
:104C3C0013F939460CA8049C04F04DF92E4908A828
:104C4C0004F00AF908A90CA804F080F93146804652
:104C5C0010A804F001F910A9404604F077F9274B8D
:104C6C0002681978264B1B780B438DF800302146CF
:104C7C003C2302A803F07EFB039C7CB16368013BE0
:104C8C0063605BB9236820469B689847A368013B27
:104C9C00A3601BB923682046DB68984710A804F072
:104CAC0094F808A804F091F80CA804F08EF804A865
:104CBC0004F08BF804F03AFB3946044610A804F0D3
:104CCC000AF92B6801930F4A009610AB012120467C
:104CDC0003F0FFFF10A804F078F814B0BDE8F081E1
:104CEC00D0D50320C0D50320EDD2032029D3032037
:104CFC003CA30D00CCDA0320C7B00D0044C7032041
:104D0C0078C7032046A30D007FB504F00FFB1549AF
:104D1C00154E164D03F0B3FF03F068F80446B8B116
:104D2C000123337002F01CFE114B124900F51C508C
:104D3C0010301860002468462C7004F08DF868461A
:104D4C0022460D49FFF752FF684604F03EF806E094
:104D5C0004F0ECFA094903F092FF34702C7004B0A3
:104D6C0070BD00BF5FA30D0058C70320CCD2032039
:104D7C00E4C7032074A30D0008D6032087A30D00FD
:104D8C00072210B50C490D4804F0FBFE0C4B041E19
:104D9C000CBF012200221A7007D104F0C7FA09498E
:104DAC0003F06DFF084B1C7010BD04F0BFFA0749EF
:104DBC00BDE8104003F063BFB6A30D00A0C70320ED
:104DCC004CD30320BEA30D00E1C70320CBA30D00E1
:104DDC002DE9F0410F4F064600244FF0E40808FB84
:104DEC0004F505F1200139441822304604F0C9FEBF
:104DFC00014648B9074818352844E42204F03BFE24
:104E0C00BDE8F041FFF7D4BB0134042CE7D1BDE879
:104E1C00F08100BF3CD603202DE9FF41244F254CE7
:104E2C00DFF898803946684604F016F80099204659
:104E3C0004F073FE0546684603F0C7FF00262A46B9
:104E4C002146404604F0B2FE08F8056001352C44BA
:104E5C003946684604F000F80099DFF86480204673
:104E6C0004F05BFE0546684603F0AFFF2A46214678
:104E7C00404604F09BFE08F8056001352C44394689
:104E8C00684603F0E9FF00990B4F204604F045FEFD
:104E9C000546684603F099FF2A462146384604F039
:104EAC0085FE681C20447E5504B0BDE8F08100BF2F
:104EBC00C7B00D00CCDA0320D4D503205AC7032089
:104ECC00A0C70320F8B5154804F053FE134B00247B
:104EDC005A1C02380A26092784421CDA15785C2DE4
:104EEC0013D15178742904F1010402D1591C1F709B
:104EFC0009E06E2917BF1946591C01F8025B557859
:104F0C000CBF1E705D70023202E0591C01321D7024
:104F1C0001340B46E0E700221A70F8BDCCDA03200E
:104F2C001FB5184B1B68042B19DC04F0FFF916494C
:104F3C000446684603F0CFFF6B46144A0121204615
:104F4C0003F0C7FE684603F040FF0F49684603F0C4
:104F5C00C2FF01220E496846FFF748FE0CE004F040
:104F6C00E5F909490446684603F0B5FF6B46094A62
:104F7C000121204603F0ADFE684603F026FF04B085
:104F8C0010BD00BFD0D50320C0D50320DEA30D007B
:104F9C00EDD203200AA40D00E4222DE9F84302FB14
:104FAC0000F6114D1149DFF8448006F1180407464C
:104FBC00281904F055FD06F1FC094C450ADA04F0F9
:104FCC0079FBA31B4344204613F8181C02F0E8FCA1
:104FDC000134F2E7AF7004F06DFBA9780220BDE854
:104FEC00F84302F0DDBC00BF3CD60320E4D903201B
:104FFC001FB5CB890A7803938B8902934B89019354
:10500C000B89044C00934B680349204402F086FF43
:10501C0004B010BD4DD3032050A40D002DE9F7436F
:10502C00E4244443134D1449144804F120032A1971
:10503C002B440093D369926902F070FF0026074657
:10504C00A84604F13C0933192B4493F83C3003F087
:10505C00FD03412B06D109EB060138464144FFF70D
:10506C00C7FF07441036C02EEDD1012003B0BDE8B8
:10507C00F08300BF3CD603206AA40D004DD303205F
:10508C0010B5084B9C78FF2C14BF0134002404F09D
:10509C0003042046FFF780FF2046BDE81040FFF7D1
:1050AC00BDBF00BF3CD6032070B5194B1B780E4614
:1050BC0063BB184B1A1892F823203AB30A2A25D04E
:1050CC00092A20D00446B4F5FA6F1EDA1A1992F8A0
:1050DC00232032B9221A01460F48FFF7EDF9306050
:1050EC0013E00A2AF6D0092A04F1010507D1221A85
:1050FC0001460948FFF7E0F93060284670BD2C2ABC
:10510C00F5D02C46DFE7013070BD204670BD00BFE6
:10511C00E0C70320D4CA0320F7CA032070B50029C6
:10512C00054688B01F48204C01D101601BE01F4B85
:10513C00DA684FF47A7303FB02F207DA4FF0FF33AD
:10514C0023601B4B026000221A600DE003681944B7
:10515C0064230160594391FBF2F19942A8BF1946AF
:10516C002368994200D0216004F0E0F829460646F5
:10517C0004A803F0B0FE0F4B196A0A2391FBF3F25B
:10518C0003FB121302932368019200930A4A04ABA7
:10519C000121304603F09DFD04A803F016FE08B073
:1051AC0070BD00BF98C70320D0D20320D4CA0320FF
:1051BC00C8C70320D0C603207BA40D0010B502F095
:1051CC00CFFB0446FFF7AAFCFFF782FBFFF7B8F80A
:1051DC0002F0C6FB001B10BD10B50446FFF7EEFF36
:1051EC00A04204DA201ABDE8104002F0B7BE10BD90
:1051FC00F0B516464A1C85B007460D4602D1336001
:10520C000C4629E01649684603F026FE2A466946F4
:10521C00384603F0BFFE0446684603F0D6FD631C17
:10522C000CD12A463946684603F0ECFE684603F07A
:10523C00F0FE3060684603F0C8FD0DE023462A46B8
:10524C003946684603F0B6FE684603F0E2FE30606D
:10525C00684603F0BAFD0134204605B0F0BD00BF2E
:10526C00A1A40D0010B50120FFF7E4FB18B9BDE8AF
:10527C001040FFF7FBBB04F059F80F4903F0FFFC9B
:10528C00002404F02BFA214603F095FA04F026FAD8
:10529C000021FFF761F804F021FA03F093FA30B91A
:1052AC0004F044F82346054A012103F012FD0134B1
:1052BC007F2CE6D1DBE700BFA3A40D00C1A40D0039
:1052CC00164A08B500231370154A1370154A13704B
:1052DC00154A1370154A1370154A1360154A13605A
:1052EC00154A13701376154A13701376144A1372F9
:1052FC0082F8203082F82130124A13701372124A4D
:10530C001370124A0A215370117002F029FB104BD2
:10531C0000F56A406030186008BD00BF3CC7032030
:10532C004CD30320CCD2032029D3032034C7032031
:10533C0098C70320D0D2032008D6032022D60320FE
:10534C00E4D90320D4CA03204DD30320F0C7032093
:10535C009CC7032010B507220D490E4804F011FC20
:10536C00044670B903F0E2FF0B4903F088FC0B4BC9
:10537C0001201C70FFF706FAFFF7A2FF084B1C6018
:10538C0010BD03F0D3FF0749BDE8104003F077BC14
:10539C00B6A30D00A0C70320E0A40D00D2CA0320C1
:1053AC009CC70320EEA40D0010B507220D490E4832
:1053BC0004F0E7FB044670B903F0B8FF0B4903F0A7
:1053CC005EFC0B4B01201C70FFF7DCF9FFF778FF3C
:1053DC00084B1C6010BD03F0A9FF0749BDE8104045
:1053EC0003F04DBCB6A30D00A0C7032002A50D0011
:1053FC0065CA03209CC7032011A50D001FB503F03F
:10540C0095FF0F4903F03BFC0E4B01221A7002F082
:10541C00A7FA0D4B00F59C4020301860FFF796F969
:10542C000A49684603F018FD002209496846FFF74F
:10543C00DDFB684603F0C9FC05B05DF804FB00BF5A
:10544C0025A50D00E1C7032040C7032033A50D009F
:10545C00ECD903201FB5164C03F068FF214603F06E
:10546C000EFC144B01221A7002F07AFA124B00F562
:10547C001C50103018602146684603F0EDFC4FF0CC
:10548C00FF316846FFF74AFE684603F09EFC0B4965
:10549C00684603F0E1FC002209496846FFF7A6FBC9
:1054AC00684603F092FCFFF749F904B010BD00BF49
:1054BC0002A50D0065CA032030C703203EA50D00D0
:1054CC00ECD903201FB503F031FF154903F0D7FBCE
:1054DC00144B01221A7002F043FA134B134900F5D6
:1054EC001C5010301860684603F0B6FC4FF0FF31CA
:1054FC006846FFF713FE684603F067FC0C496846E4
:10550C0003F0AAFC00220B496846FFF76FFB6846C4
:10551C0003F05BFCFFF712F905B05DF804FB00BF6C
:10552C004AA50D00D2CA0320DCC7032059A50D00E3
:10553C0067A50D00ECD9032070B50E460446154640
:10554C0003F0DEFF012E05D129462046BDE8704050
:10555C0004F02AB870BD70B50E460446154603F02B
:10556C00CFFF012E05D129462046BDE8704003F03F
:10557C00D8BF70BD826810B50AB904F010F9C368C1
:10558C00BDE81040184708B5436913B10C30FFF75C
:10559C00F1FF08BD38B582680123044603741D462B
:1055AC0012B1C068904703E0006808B1FFF7E2FF52
:1055BC0065740020BDE8384002F0AAB907B5009325
:1055CC0013460A46012103F084FB03B05DF804FB8B
:1055DC0038B50A4B1B7804460D4633B103F0A6FED2
:1055EC002B4622460649FFF7E9FF064B2A46214681
:1055FC001878BDE8384003F07BBD00BFD3CA032048
:10560C0073A50D0020C6032008B5FA214FF4837052
:10561C00FFF7DEFF322002F0A1FCFA214FF4937069
:10562C00FFF7D6FF322002F099FCFA214FF4A57057
:10563C00FFF7CEFF322002F091FCFA2140F25D1010
:10564C00FFF7C6FF322002F089FCFA214FF4C47038
:10565C00FFF7BEFF322002F081FCFA214FF4DC7020
:10566C00FFF7B6FF322002F079FCFA214FF4F77005
:10567C00FFF7AEFF322002F071FCFA2140F20B2052
:10568C00BDE80840FFF7A4BF2DE9F0410D46554990
:10569C000346024686B0183052F8044B41F8044BCE
:1056AC008242F9D1186859684F4C504E03C42B46AE
:1056BC0005F11807083C18685968324603C20833CC
:1056CC00BB421646F7D119230193494B49494FF078
:1056DC00000802A883F8218003F0BEFB02AA01A9EE
:1056EC002846FEF7FCFEE06002A803F06EFB414981
:1056FC0002A803F0B1FB02AA01A92846FEF7EFFEAF
:10570C00206102A803F061FB3A4902A803F0A4FB54
:10571C0002AA01A92846FEF7E2FE606102A803F086
:10572C0054FB344902A803F097FB02AA01A92846AE
:10573C00FEF7D5FEA06102A803F047FB2D4902A895
:10574C0003F08AFB02AA01A92846FEF7C8FEE06115
:10575C0002A803F03AFB274902A803F07DFB02AA3A
:10576C0001A92846FEF7BBFE208402A803F02DFBFE
:10577C00204902A803F070FB02AA01A92846FEF7F3
:10578C00AEFE84F8220002A803F01FFB194902A800
:10579C0003F062FB02AA01A92846FEF7A0FE074609
:1057AC0002A803F012FB268C0199134832462944B7
:1057BC00344404F0FBF9B11E0F4884F82380FEF743
:1057CC00B5FE80EAE074A4EBE07403F0AFFD234671
:1057DC003A460A49FFF7F2FE3B1B5842584106B0C5
:1057EC00BDE8F08122D60320D4CA0320ECD90320D3
:1057FC00E4D90320A5A50D00F7CA0320A7A50D0029
:10580C0073B5044603F06AFF214602F0D0FF03F0A3
:10581C0065FF0021FEF7A0FD064603F05FFF0021A7
:10582C0002F0CCFF054630B103F080FD2B4632462A
:10583C001549FFF7C3FE03F051FF2146042202F085
:10584C00AEFF03F04BFF03685B699847044603F017
:10585C0045FF03685B6998470C4B1B78054643B1C1
:10586C0003F064FDE3B20093094AEBB2012103F0AB
:10587C0030FA6A0704D4E0B2C31E5842584100E023
:10588C00002002B070BD00BFBFA50D00D3CA03201D
:10589C00E0A50D007FB5124B1C680D46041B064697
:1058AC001049684603F0D8FA84EAE473A3EBE47376
:1058BC006B43684646F2A81193FBF1F1FFF72EFCFF
:1058CC00684603F082FA03F031FD2346324606495E
:1058DC00FFF774FE29462046FEF7EEFE04B070BDBD
:1058EC0000D60320F6A50D0011A60D00962145F655
:1058FC004210FFF7CFBF962142F63020FFF7CABF08
:10590C0013460A46012103F0E4B90000F8B502F091
:10591C0027F8184B1A6882421F4625D8164B1A785E
:10592C001D462AB103F002FD144A012103F0D1F9FE
:10593C00134A0023E42101FB032696F820404CB1C6
:10594C002C789CB103F0F2FC96F820200D49FFF75F
:10595C00D7FF0CE00133042BEDD102F001F800F578
:10596C006A406030386002E0002400E001242046E8
:10597C00F8BD00BF9CC70320D3CA03203CA60D0072
:10598C003CD6032057A60D002DE9F347444C237851
:10599C000646884615462BB103F0C8FC32464149F1
:1059AC00FFF7AEFF03F09AFE294602F004FF03F066
:1059BC0095FE0021FEF7D0FC824603F08FFE0221FB
:1059CC00FEF7CAFC074603F089FE012102F0F6FE41
:1059DC00814650B1574403F0A9FCCDF804900097D0
:1059EC003346314A012103F074F903F077FE29465E
:1059FC0002F0E1FE03F072FE0621FEF7ADFC8246DA
:105A0C0003F06CFE03685FFA88F19B6898470746C1
:105A1C0003F064FE012102F0D1FE814650B15744DF
:105A2C0003F084FCCDF80490009733461E4A012104
:105A3C0003F04FF903F052FE294602F0BCFE03F0CE
:105A4C004DFE0621FEF788FC074603F047FE0021B9
:105A5C0002F0B4FE064630B103F068FC33463A4619
:105A6C001249FFF7ABFD03F039FE2946012202F083
:105A7C0099FE054603F032FE03685B69984723786C
:105A8C0006464BB103F052FC0196CDF800802B4634
:105A9C00074A012103F01DF902B0BDE8F08700BFF1
:105AAC00D3CA032066A60D0084A60D00BFA50D0069
:105ABC00ABA60D002DE9F341534D544E544F012329
:105ACC002B7003F033FC534903F0D9F803F08CFB33
:105ADC004FF4165103F07EFB03F028FC4E4903F003
:105AEC00CEF80021308803F01CFD01F039FF00F5E1
:105AFC009C5403F01BFC494903F0C1F80834388866
:105B0C0003F028FD804603F011FC2E2103F0A8F8C9
:105B1C00FEF716FCC82002F021FAB8F1010F03D0F1
:105B2C0001F01EFFA042EAD303F000FC074603F08D
:105B3C005BFB03681B699847002814BF59224E224F
:105B4C0037493846FFF7DCFE0121308803F0E9FCC9
:105B5C0003F0ECFB334903F092F803F045FB0368C8
:105B6C001B69984730B901F0FBFE844202D9FEF75D
:105B7C00E7FBF2E7642002F0F1F903F0D7FB2A49C6
:105B8C002A4E03F07CF8002403F0D0FB2E2103F006
:105B9C0067F803F029FB03685B699847431C1CBF3B
:105BAC003055013403F020FB03681B69984708B19A
:105BBC00172CE9DD03F0BAFB03F055F8172C1B4A40
:105BCC0009DC1B4B114603F1180053F8046B41F828
:105BDC00046B8342F9D10026167603F0A7FB134B16
:105BEC00144A0094012103F074F803F0FDFA03F059
:105BFC00F4FA03F09BFB104903F041F820462E7099
:105C0C0002B0BDE8F08100BFA9CA032034C603204E
:105C1C0038C60320CEA60D00E1A60D00F8A60D0097
:105C2C0009A70D0032A70D0090A70D0008D6032080
:105C3C0048A70D0061A70D0079A70D0070B590B0B5
:105C4C000025014606460CA80795089509950A9566
:105C5C000B9503F040F92B4606AA29460CA8FFF732
:105C6C00C7FA04460CA803F0B0F8069B023B202BA5
:105C7C0000F2AE82DFE813F0210025005400AC02E4
:105C8C00AC027E0099009E00C000E10003012401DB
:105C9C00460169016E0188018D019E01A101A401DB
:105CAC00A701AB01AC02AC02AC02AE01C601F9011A
:105CBC0000020402AC02290259020120FEF762FD27
:105CCC0083E231460CA803F006F9002307AA21460B
:105CDC000CA8FFF78DFA04460CA803F076F83146B1
:105CEC000CA803F0F8F84FF47A7308AA21460CA814
:105CFC00FFF77EFA0CA803F068F808990798B74CE0
:105D0C00FEF732FD03F012FBB54BB64A1B6801934C
:105D1C00236800930121079B02F0DBFF246858E203
:105D2C00FEF714FDFFF7E2FDFEF708FD31460CA867
:105D3C0003F0D1F8B72307AA21460CA8FFF758FAAD
:105D4C0004460CA803F041F831460CA803F0C3F844
:105D5C00802308AA21460CA8FFF74AFA0CA803F0E6
:105D6C0034F8A14B079C1C60A04B089A1A600122C6
:105D7C009F4BA8E131460CA803F0ADF807AA2146C9
:105D8C004FF4B9730CA8FFF733FA0CA803F01DF805
:105D9C0003F0CCFA974B196A0A2391FBF3F203FB3D
:105DAC0012139549FFF70AFC24E0FEF729FC934BEC
:105DBC005C780EE231460CA803F08DF84FF4FA73C0
:105DCC0007AA21460CA8FFF713FA04460CA802F008
:105DDC00FCFF31460CA803F07EF82146802308AA6C
:105DEC000CA8FFF705FA0CA802F0EFFF089907982A
:105DFC00FEF7E5FD079CECE131460CA803F06BF8CF
:105E0C0007AA4FF4FA7321460CA8FFF7F1F90446E0
:105E1C000CA802F0DAFF31460CA803F05CF821461E
:105E2C00802308AA0CA8FFF7E3F90CA802F0CDFF19
:105E3C0008990798FEF7CFFD1FE031460CA803F038
:105E4C004AF84FF4FA7307AA21460CA8FFF7D0F9C9
:105E5C0004460CA802F0B9FF31460CA803F03BF83D
:105E6C002146802308AA0CA8FFF7C2F90CA802F05F
:105E7C00ACFF08990798FEF7BAFD089CA9E13146DA
:105E8C000CA803F028F807AA4FF4FA7321460CA8C3
:105E9C00FFF7AEF904460CA802F097FF31460CA8A8
:105EAC0003F019F82146802308AA0CA8FFF7A0F9E3
:105EBC000CA802F08AFF08990798FEF7A4FDDCE70E
:105ECC0031460CA803F007F807AA4FF416732146C5
:105EDC000CA8FFF78DF904460CA802F076FF3146AA
:105EEC000CA802F0F8FF21464FF47A7308AA0CA80C
:105EFC00FFF77EF90CA802F068FF08990798FFF7E6
:105F0C0067FB77E731460CA802F0E5FF07AA0023F0
:105F1C0021460CA8FFF76CF904460CA802F055FFBB
:105F2C0031460CA802F0D7FF21464FF47A7308AA29
:105F3C000CA8FFF75DF90CA802F047FFFEF706FC72
:105F4C0008990798FFF7A6FC3DE1FEF7FFFBFFF76A
:105F5C00D2FC38E131460CA802F0BDFF4FF4B97306
:105F6C0007AA21460CA8FFF743F90CA802F02DFF55
:105F7C00079C40F25623621E9A4200F22A811D4B66
:105F8C0000225C62DA6124E1FEF7E0FBFFF7AEFC75
:105F9C0019E131460CA802F09EFF802307AA214686
:105FAC000CA8FFF725F90CA802F00FFF0798FEF7D5
:105FBC0073FC1FE7FEF780FC5CE0FEF75FFD59E029
:105FCC00FEF772FD56E00E4B01241C7001E10C4BE8
:105FDC001D70FDE0FFF746F94CE000BF00D6032032
:105FEC0068CA0320ADA70D00BCD50320C8D203207E
:105FFC00A8CA0320D0C60320DCA70D003CD6032082
:10600C00D3CA0320FEF7A2FBFFF770FCFEF796FB4A
:10601C0031460CA802F05FFF07AAB72321460CA853
:10602C00FFF7E6F804460CA802F0CFFE31460CA8A8
:10603C0002F051FF08AA214680230CA8FFF7D8F8DC
:10604C000CA802F0C2FE6D4B07996D4800221A7025
:10605C006C4B19606C4B089919606C4B01246FF0F8
:10606C0000411C70FEF7EAF9B3E06FF000416448A0
:10607C00FEF7A8F90124ACE0FFF71CFD0446A8E0EC
:10608C0031460CA802F027FFB72307AA21460CA81B
:10609C00FFF7AEF804460CA802F097FE31460CA8A8
:1060AC0002F019FF802308AA21460CA8FFF7A0F8DC
:1060BC000CA802F08AFE564B079C1C60554B089AA4
:1060CC001A60554B01221A7083E031460CA802F07D
:1060DC0002FF07AA192321460CA8FFF789F80446EA
:1060EC000CA802F072FE31460CA802F0F4FE08AACD
:1060FC00962321460CA8FFF77BF804460CA802F067
:10610C0064FE31460CA802F0E6FE09AA21460A23D9
:10611C000CA8FFF76DF80CA802F057FEFEF716FB63
:10612C0007A807C8FEF75CFB4DE031460CA802F04F
:10613C00D2FE002307AA21460CA8FFF759F8044603
:10614C000CA802F042FE31460CA802F0C4FE4FF43B
:10615C007A7308AA21460CA8FFF74AF804460CA843
:10616C0002F033FE31460CA802F0B5FE192309AA41
:10617C0021460CA8FFF73CF804460CA802F025FEBB
:10618C0031460CA802F0A7FE96230AAA21460CA8B9
:10619C00FFF72EF804460CA802F017FE31460CA8A7
:1061AC0002F099FE02230BAA21460CA8FFF720F857
:1061BC000CA802F00AFEFEF7C9FA0B9B009307A885
:1061CC000FC8FEF723FBFEF7B9FA144B1C6800E06E
:1061DC00002403F0ABF80B9B05930A9B0493099BDB
:1061EC000393089B0293079B01930094069B0C4A14
:1061FC00012102F06EFD204610B070BDD3CA032001
:10620C0014C70320BCD50320C8D20320A8CA03207E
:10621C00ECC7032060CA032094C7032000D60320D8
:10622C00F1A70D0010B5154B188803F093F9144B1A
:10623C00021E0CBF0121002119701C4608D101213E
:10624C00104801F04DFD4FF4AF714FF4167007E09C
:10625C00002211460B4801F043FDC8214FF4967003
:10626C00FFF7B6F903F062F823780749002B14BF47
:10627C0059224E22FFF744FB10BD00BF1CC6032061
:10628C002AD30320B4C603203BA80D0010B51B4B2A
:10629C001A7892B11A4C227852B1002222701A70DC
:1062AC0003F044F8174902F0EAFCFFF7BBFF04E0E7
:1062BC00322001F053FE01232370134B1C7874B170
:1062CC0001F04EFB114B1B68984215D903F02EF8C8
:1062DC000F4902F0D4FCBDE81040FEF715BD0D4B84
:1062EC001A784AB11C700C4B1B782BB1FFF7E2FBF0
:1062FC0018281CBF094B1C7010BD00BFFCD5032017
:10630C0095C7032050A80D0058C70320E4C70320ED
:10631C0068A80D0064CA03202AD30320CCD2032022
:10632C0013460A46002102F0D4BC00002DE9F347C5
:10633C000546174698460E4603F0D0F9294602F05A
:10634C0036FA03F0CBF90021FEF706F8824603F08B
:10635C00C5F98321FEF700F8044603F0BFF90121CB
:10636C0002F02CFA814660B1544402F0DFFFCDF804
:10637C00049000942B46754A012102F0AAFC0020DF
:10638C00E0E001F0EDFA00F59C5909F10809284606
:10639C00FFF736FA70B901F0E3FA484503D26420EE
:1063AC0001F0DCFDF3E702F0C1FF2A466849FFF774
:1063BC00A7FAE4E7674C23782BB102F0B7FF2A4623
:1063CC006549FFF79DFA03F089F9294602F0EFF9C8
:1063DC0003F084F90021FDF7BFFF824603F07EF93C
:1063EC00002102F0EBF9814630B102F09FFF4B46E1
:1063FC0052465A49FFF7E2F803F070F929460A228F
:10640C0002F0CDF903F06AF903685B699847054619
:10641C0003F064F903685B699847237881464BB1B4
:10642C00EDB202F083FF00955FFA89F34C4A01212B
:10643C0002F04FFC03F052F903685B69984723782C
:10644C00C5B22BB102F072FF2A464649FFF768FF2E
:10645C0003F044F903685B6998472378814633B1AC
:10646C0002F064FF5FFA89F23E49FFF759FF4FEAE9
:10647C00092909F47F4914234D4495FBF3F50A9B34
:10648C00433D1D8003F02AF903685B699847237824
:10649C00C5B22BB102F04AFF2A463249FFF740FF42
:1064AC0003F01CF903685B69984723785FFA80F95D
:1064BC002BB102F03BFF4A462A49FFF731FF05EBAF
:1064CC000925358003F00AF903685B69984723783E
:1064DC00C5B22BB102F02AFF2A462249FFF720FF52
:1064EC0003F0FCF803685B6998472378C6B22BB1BC
:1064FC0002F01CFF32461B49FFF712FF05EB062585
:10650C003D8003F0EBF803685B6998472378C5B2CC
:10651C002BB102F00BFF2A461249FFF701FF03F0E3
:10652C00DDF803685B6998472378C6B22BB102F09B
:10653C00FDFE32460B49FFF7E3F905EB0625A8F8FB
:10654C000050012002B0BDE8F08700BFADA80D00DF
:10655C000DA90D00D3CA0320DDA80D00BFA50D00A9
:10656C00E0A50D0009A90D002DE9F04F8FB04128D1
:10657C0007460B910AD031280CD032280ED002F0ED
:10658C00D5FE3A465049FFF7BBF99AE04F4C4FF015
:10659C00740A06E04E4C4FF0750A02E04D4C4FF079
:1065AC00760A73B14C4D95F821000C24B0FBF4F332
:1065BC0004FB1304E4B205EB04140130243485F815
:1065CC00210011463846FEF7C5F9642001F0C6FCDF
:1065DC00277001F0C5F94FF0000903236060637068
:1065EC00C8464E464D46CB4663789B4525DA524607
:1065FC000B993846FFF7C8F90CAB00930DAA0DF1B7
:10660C0036030DF132015046FFF790FE60B1BDF834
:10661C0032301D44BDF834301E44BDF83630984439
:10662C00BDF83030994405E002F080FE3A462B4923
:10663C00FFF766F90BF1010BD6E796FBF3F66681D3
:10664C00B6B295FBF3F576432581ADB298FBF3F02A
:10665C0005FB0565A08180B299FBF3F900FB0050A6
:10666C00A4F80E90FDF776FF064602F05FFEB6B278
:10667C00054601F075F90896A3890793638906937B
:10668C00238905931FFA89F909EBC909052399FB9D
:10669C00F3F320339BB20493E3890393637802935F
:1066AC000F4BB0FBF3F202FB13000B9B019000931A
:1066BC000C4A3B460121284602F00BFB3846FEF7FC
:1066CC0071F90FB0BDE8F08F28A90D0048C7032061
:1066DC002CD303203CD30320E4D9032044A90D0080
:1066EC0040420F006BA90D002DE9F04104460D4608
:1066FC00164601F035F907460120FEF79BF990B1DB
:10670C0033462A4621464120FFF72EFF33462A46C0
:10671C0021463120FFF728FF33462A4621463220F6
:10672C00FFF722FF04E002F001FE0B4902F0A7FA8A
:10673C00FEF79CF9094B1B7863B102F0F7FD044698
:10674C0001F00EF9064AC31B01212046BDE8F041B9
:10675C0002F0BFBABDE8F081ADA90D00D3CA032089
:10676C00E0A90D002DE9F04F87B08046894601F075
:10677C00F7F883460120FEF75DF9C8B902F0D6FDA3
:10678C00334902F07CFAFEF771F9324B1B78002B7F
:10679C005BD002F0CBFD044601F0E2F82E4ACBEBC5
:1067AC0000030121204607B0BDE8F04F02F091BA7A
:1067BC000024DFF8ACA0012627464FF000038AF82E
:1067CC0021304A46012341464120FFF7CDFE0123EB
:1067DC004A4641463120FFF7C7FE4A46414601234F
:1067EC003220FFF7C1FEBAF82C20BAF83C10D51BAA
:1067FC00002DB8BF6D42632D05DC0B1B002BB8BF01
:10680C005B42632B10DD002441F288300591049229
:10681C00013601F0A3FB002CB5D1332E049A059957
:10682C00B1D00C461746C8E7049302F07FFD049BD9
:10683C000093592201920121084A02962B4602F03C
:10684C0048FA21463A460124DEE707B0BDE8F08F4E
:10685C00ADA90D00D3CA0320E0A90D00F1A90D00CC
:10686C00E4D903202DE9F04105468CB00C46FEF727
:10687C00A5FC0A2D00F078816FDC052D00F0D2808C
:10688C0037DC012D00F09B8015DC002D40F042829E
:10689C0002F01CFCA94BAA49186008A802F0DCFA0B
:1068AC0041F2707108A8FEF739FC08A802F08DFAC5
:1068BC004FF47A7014E2022D00F09380042D40F016
:1068CC00298202A92046FEF7EFFB03A9FEF7ECFB99
:1068DC009C49044608A802F0BFFA029908A8FEF7E2
:1068EC001DFC08A802F071FA02990398FEF770FEDD
:1068FC0010E2072D00F0C880C0F2B680082D00F021
:10690C00EB80092D40F006828F4908A802F0A4FA0A
:10691C008E4B1968A1F5B24142390029B8BF4942E2
:10692C009623594308A88A4B91FBF3F1FEF7F6FB2B
:10693C0008A802F04AFAFEF7D9FF864908A802F027
:10694C008BFA41F2707108A8FEF7E8FB08A802F078
:10695C003CFA01228021B72036E10F2D00F0608136
:10696C000CDC0D2D00F03F8100F33F81204602A985
:10697C00FEF79AFB00240546774E30E1122D00F00D
:10698C0052810FDC102D40F0C58102A92046FEF784
:10699C008BFB03A9FEF788FB039904460298FEF7CC
:1069AC0079FFB7E1132D00F09E81632D40F0B28189
:1069BC0002F08CFB614B5860FEF762FBAAE102A966
:1069CC002046FEF771FB6549044608A802F044FA1C
:1069DC00029908A8FEF7A2FB08A802F0F6F90298A3
:1069EC007EE102A92046FEF75FFB03A9FEF75CFBE4
:1069FC005B49044608A802F02FFA029B83EAE37174
:106A0C00A1EBE371039B08A84B43514993FBF1F1B4
:106A1C00FEF784FB08A802F0D8F9029B0399C82062
:106A2C0058431EE002A92046FEF73EFB03A9FEF7E1
:106A3C003BFB4B49044608A802F00EFA029B83EA82
:106A4C00E371A1EBE371039B08A84B4346F2A81139
:106A5C0093FBF1F1FEF762FB08A802F0B6F903997B
:106A6C000298FDF729FE55E102A92046FEF71CFB12
:106A7C0003A9FEF719FB04A9FEF716FB044602A8AE
:106A8C0007C8FDF7ADFE45E12F4908A802F0E4F96F
:106A9C002E4B1968A1F5B24142390029B8BF4942C1
:106AAC009623594308A82A4B91FBF3F1FEF736FBCA
:106ABC0008A802F08AF9FEF719FF2A4908A802F083
:106ACC00CBF941F2707108A8FEF728FB08A802F078
:106ADC007CF98021B7202EE002A92046FEF7E4FACB
:106AEC0003A9FEF7E1FA1849044608A802F0B4F924
:106AFC00164B1968A1F5B24142390029B8BF494279
:106B0C009623594308A8124B91FBF3F1FEF706FBB1
:106B1C0008A802F05AF9FEF7E9FE124908A802F09B
:106B2C009BF941F2707108A8FEF7F8FA08A802F078
:106B3C004CF903990298FFF715FEEBE0E4D903201A
:106B4C0018AA0D003DAA0D0045AA0D0000D6032081
:106B5C00400D03008CAA0D00E0C7032026AA0D00EF
:106B6C002EAA0D006BAA0D0002A92046FEF79CFA76
:106B7C0003A9FEF799FA6949044608A802F06CF9D2
:106B8C00674B1968A1F5B24142390029B8BF494297
:106B9C009623594308A8634B91FBF3F1FEF7BEFA19
:106BAC0008A802F012F9FEF7A1FE5F4908A802F04E
:106BBC0053F941F2707108A8FEF7B0FA08A802F078
:106BCC0004F9039902980122FFF78EFDA2E03378B5
:106BDC00002B40F0A080284600F0C0F80134029B46
:106BEC00A342F4DC97E0604295E002A92046FEF750
:106BFC005BFA4E49044608A802F02EF9002108A8B9
:106C0C00FEF78CFA08A802F0E0F8029A40F256233C
:106C1C00511E99427ED8464B5A620022DA6179E0C5
:106C2C00FEF769FE76E002A92046FEF73DFA03A9BD
:106C3C00FEF73AFA04A9FEF737FA3E4B1B780446E6
:106C4C0033B102F073FB049B3B4A012102F041F883
:106C5C003A4F0026049BB34236DD3D78002D33D1EC
:106C6C0005A92046FEF720FA06A9FEF71DFA07A98A
:106C7C00FEF71AFA069AC8235343044606934FF4B8
:106C8C007A78059BAB421DDD2D4908A802F0E4F88B
:106C9C00069B83EAE371A1EBE371029B4B430799DB
:106CAC0093FBF8F308A81944FEF738FA08A802F089
:106CBC008CF802990698FDF7FFFC0798FEF78CFA02
:106CCC000135DEE70136C5E71E4908A802F0C4F815
:106CDC00039908A8FEF722FA08A802F076F80398A0
:106CEC00FEF77AFA16E002A92046FEF7DDF903A9B1
:106CFC00FEF7DAF904A9FEF7D7F905A9FEF7D4F9DE
:106D0C0006A9FEF7D1F9069B0093044602A80FC80A
:106D1C00FDF77CFD20460CB0BDE8F08145AA0D00C6
:106D2C0000D60320400D03008CAA0D00A4AA0D0070
:106D3C00D0C60320D3CA0320C6AA0D00E0C7032087
:106D4C002EAA0D00E2AA0D00034A12780AB9FFF729
:106D5C0089BD0846704700BFE0C7032013B501A9E1
:106D6C000446FEF7A1F9014664B9019B53B1114BDE
:106D7C0001221A7002F0DAFA0F4901F080FF4FF08D
:106D8C00FF3015E001980B4CFFF7DEFF019B632BE6
:106D9C000BD0002809DD23783BB901A9FEF784F953
:106DAC0001460198FFF7D0FFF0E70028B8BF40423A
:106DBC0002B010BDE0C7032001AB0D001FB52C4B7A
:106DCC0001221A7002F0B2FA2A4901F058FF2A4B3C
:106DDC002849002468461C6002F03EF821466846AB
:106DEC00FEF79CF9684601F0F0FF00F0F7FF4FF456
:106DFC00FA6001F0B3F800F0F9FF044638B102F084
:106E0C0095FA1E4901F03BFFFDF79AFAEFE7FDF703
:106E1C00B9FC4FF4FA614FF41670FEF7D9FB4FF43E
:106E2C00FA6001F09BF82146204600F041FD204617
:106E3C00FFF794FF2146012000F03AFD00F0C6FF59
:106E4C004FF4FA6001F08AF800F0D0FF38B902F084
:106E5C006DFA0B4901F013FFFDF772FAF0E7094BDD
:106E6C00094A1B7883F00103137004B010BD00BFF6
:106E7C003CC7032019AB0D00C8C7032020AC0D0084
:106E8C0026AB0D00E0C7032059C7032013460A4662
:106E9C00012101F01EBF000038B5072204460D4940
:106EAC000D4802F06EFE054660B902F03FFA22462C
:106EBC000A49FFF7EBFF0A4B1D702046BDE838402E
:106ECC00FDF786BF02F032FA0649BDE8384001F002
:106EDC00D6BE00BFB6A30D00A0C7032028AB0D0083
:106EEC00E8C7032060AB0D001E4B002273B51A706F
:106EFC00064607220C461C481C491D4D02F041FE5B
:106F0C00B0FA80F04009287002F010FA2B78194979
:106F1C00002B14BF59224E22FEF7F2FC2B78B3B192
:106F2C0021463046FEF7B0FB48B1134B01221A70D4
:106F3C0002F0FCF922461149FFF7A8FF0FE002F01E
:106F4C00F5F90F4902B0BDE8704001F098BE02F0AF
:106F5C00EDF9009433460B4A012101F0BAFE02B060
:106F6C0070BD00BF58C70320A0C70320B6A30D00F7
:106F7C00CCD2032074AB0D0021D603208CAB0D00BA
:106F8C00B2AB0D00CEAB0D0030B500238BB004229C
:106F9C0089498A488A4D00F001FF8A4A8A498B4800
:106FAC0001F0C8F88A4A8B49884801F0C3F806A852
:106FBC0000F024FF06A9884801F098FF06A801F00C
:106FCC0004FF864902A801F047FF834902A801F09B
:106FDC00BDFF0024014606A801F07DFF2346224692
:106FEC007F4901940094069800F018FF06A801F060
:106FFC00ECFE02A801F0E9FE7A4902A801F02CFF90
:10700C00754902A801F0A2FF014606A801F063FF32
:10701C0023462246744901940094069800F0FEFE23
:10702C0006A801F0D2FE02A801F0CFFE19222346D9
:10703C002946694801F096FF6C4B2C766C4D1888EC
:10704C00022102F05DFA0221288802F059FA694BFC
:10705C00012211461888FEF77EFA674B21461888E4
:10706C0002F04EFA654B224618880121FEF764FAAD
:10707C00634B224618880121FEF75EFA614B2246CB
:10708C0018880121FEF758FA5F4B2146188802F048
:10709C0037FA5E4B2146188802F032FA5C4B2146D7
:1070AC00188802F02DFA5B4B224618880121FEF756
:1070BC0052FA594B224618880121FEF74CFA574BCD
:1070CC00224618880121FEF746FA554B8022188873
:1070DC000121FEF731FA534B224618880121FEF7A5
:1070EC002BFA514B22461888504C0121FEF724FAFA
:1070FC0002F01CF94FF4E13102F00CF9FDF748FAFB
:10710C00228840F606439A4201D0FDF779FAFEF741
:10711C00A9F802F00BF9464901F0B1FD0120FDF789
:10712C0031FB02F003F9434901F0A9FD80214FF432
:10713C00FA70FDF744FC4FF4FA7000F00FFF802159
:10714C004FF4FA70FDF747FC4FF4FA7000F006FFAD
:10715C0080214FF4FA70FDF74AFC02F0E7F836494B
:10716C0001F08DFDFEF750FAFEF7AAF8FFF75AF87A
:10717C0000224FF0FF3328883049009201F02AFB9F
:10718C0002F0D4F80E4A2E49FFF780FE02F0CEF83A
:10719C00A27823780192627800920121294A01F0A9
:1071AC0098FDFDF76BFC00F0DBFB274B00F59C50CA
:1071BC00083018600BB030BD4DD30320EFAB0D0081
:1071CC00D4D20320F8AB0D00495C0D0015810D00E5
:1071DC0000AC0D0059720D00CCC7032009AC0D009A
:1071EC0009410D0022AC0D00CD410D0028C6032035
:1071FC001CC6032034C6032038C6032000C6032057
:10720C000CC6032018C6032024C603202CC603205A
:10721C0010C603203CC6032030C6032008C603203A
:10722C0014C6032020C6032004C603203CD603202A
:10723C0038AC0D0048AC0D0058AC0D00CD400D0025
:10724C006DAC0D007BAC0D00C8DA032010B5836863
:10725C00182B11D10A4C19222146002301F082FE71
:10726C000023237602F062F822460649FFF70EFE51
:10727C00FDF74AFD012010BD4FF0FF3010BD00BFDF
:10728C0008D60320D4AC0D007FB5324B324D002212
:10729C001A702B78222B04D002F048F82A462F497A
:1072AC001AE0FDF70FFEFDF7B7FD2D4C064602F078
:1072BC003DF82C4B009301212B4B029601942B4A49
:1072CC0001F007FD2A4B2848196802F014FC50B154
:1072DC0002F02CF827492A46FFF7D8FD04B0BDE888
:1072EC007040FDF71DBE24491F4802F004FC30B964
:1072FC003146204604B0BDE87040FFF7F5BD1F498C
:10730C00194802F0F8FB20B904B0BDE87040FDF755
:10731C0037BD1B49144802F0EEFB20B904B0BDE8A0
:10732C007040FEF717B817490F4802F0E4FB20B97C
:10733C0004B0BDE87040FEF737B813490A4802F0B4
:10734C00DAFB28B9204604B0BDE87040FFF7A4BDB5
:10735C0004B070BD29D30320CCDA0320F2AC0D00AD
:10736C00D4D50320A0C703205AC703201AAD0D00A3
:10737C00C0D5032046AD0D0074A30D0033A50D0040
:10738C0067A50D003EA50D0067AD0D0030B5144B83
:10739C0085B001220C461A70054600F0E1FA114B3B
:1073AC0000F59C402030186001F0C0FF22460E49C9
:1073BC00FFF76CFD2846FDF731FE01F0B7FF0B49D6
:1073CC0001F05DFC0A49684601F046FD00222146A9
:1073DC006846FDF70BFC684601F0F7FC05B030BDC4
:1073EC00E8C7032004D6032073AD0D004DD3032052
:1073FC0067AD0D0010B501F099FF0B4901F03FFC92
:10740C000A4B0020E42202FB00F15C1894F82040A7
:10741C0034B1064B20311944BDE81040FFF7B6BF1C
:10742C0001300428EFD110BD91AD0D003CD60320E6
:10743C0038B5404B1B781BB33F4C25783DB101F060
:10744C0075FF3E4901F01BFC0023237027E03C4CE8
:10745C00237833B101F06AFF3A4901F010FC257032
:10746C0031E0394B1B78F3B100F07AFA374B1B68DB
:10747C00834218D201F05AFF354901F000FC0EE0AE
:10748C00344B1B7883B300F06BFA334B1B68984278
:10749C002AD901F04BFF314901F0F1FB20E0BDE8A6
:1074AC003840FDF7D7BF2E4B1B78002B41D000F096
:1074BC0057FA2C4B1B68984200D838BD01F036FFA8
:1074CC00294901F0DCFBBDE83840FDF7FBBF274C38
:1074DC002378C3B101F02AFF254901F0D0FB2570B8
:1074EC00BDE83840FDF78ABF224C2578002DEED040
:1074FC0001F01CFF204901F0C2FB00232370BDE802
:10750C003840FFF75BBC1D4B1B785BB100F028FAD1
:10751C001B4B1B6898420CD901F008FF194901F06C
:10752C00AEFB02E0FEF7F2F918B1BDE83840FFF708
:10753C0061BF38BD3CC70320E0C70320A1AD0D00DF
:10754C0059C70320B1AD0D0065CA032030C7032015
:10755C00F4AD0D00E1C7032040C7032071AE0D0050
:10756C00D2CA0320DCC7032033AE0D0021D6032082
:10757C0018AA0D004CD30320C0AD0D00E8C70320A2
:10758C0004D60320D8AD0D007FB5304E304C01F041
:10759C00CDFE03681B69984740B301F0C7FE036832
:1075AC005B6998472368F05401F0C0FE03681B69BF
:1075BC0098472368054638B10133282193FBF1F233
:1075CC0001FB12332360E2E7F05401F0AFFE1F49D8
:1075DC0001F055FB1D492560684601F03DFC6846ED
:1075EC00FEF72CFB684601F0F0FBD0E7194B1C783A
:1075FC003CB101F09BFE184901F041FBFFF744FE42
:10760C0022E0FEF743FEFFF713FF144B1A783AB152
:10761C001C70134B1968134B22461868FFF764F85B
:10762C00114B1A783AB100221A700D4B19680F4B96
:10763C001868FFF797F80E4B1A682AB100221A60E7
:10764C00FDF76CFAFDF744F904B070BDAACA03202B
:10765C0090E4032029D30320ADAE0D00A8CA03206B
:10766C00C8D20320BCD5032094C70320ECC7032049
:10767C0038C703202DE9F043614B624F624EDFF8AF
:10768C00CC8101251D70614B87B002241C7000F069
:10769C0097F94FF400735E4A4EF660213846FCF7BA
:1076AC00F5FD32465B49384602F05AF800221E219D
:1076BC00204600F057FB584F01954FF01409034634
:1076CC00CDF8009022464FF47F01384601F022F9A4
:1076DC0032464146384602F043F800220A21204641
:1076EC0000F040FB4D4FCDF800900346224601952B
:1076FC004FF47F41384601F00DF9494CDFF85091B9
:10770C0032464146384602F02BF8464B029302AA09
:10771C000023454FDFF83C81CDF8149041F28831BD
:10772C0020460497FCF71CFE02A8FCF771FD3246BC
:10773C004146204602F014F83C4A3D4B12681A6050
:10774C003C4A049712685A604FF448721A614FF41D
:10775C00B97200244FF47A715A62374F99636422DC
:10776C00DC601C725C619C61DA621D635D63DD63CD
:10777C001D64324B029302AA23463846CDF814906E
:10778C00FCF7EEFD02A8FCF743FDDFF8CC90384681
:10779C002B4F3246414601F0E3FFDFF8C0804946EB
:1077AC00384601F059FB3846264F3246414601F027
:1077BC00D7FF4946384601F04FFB32464146384622
:1077CC0001F0CEFF204B0C225A702146FF220626D8
:1077DC0028461E709A7000F0A5FA01F055FE23465B
:1077EC00224641F2FB0101F057FE01F04DFE23460B
:1077FC002246314601F058FE07B0BDE8F08300BFC9
:10780C0078C703207CC70320ACC6032044C70320E1
:10781C00F5400D0055420D0088CA0320B0C6032068
:10782C0014C70320B5400D00DD400D0004C6032035
:10783C00D0C6032024C603206CCA0320C1400D000F
:10784C00CCC70320C0D503203CD603209D410D009E
:10785C00D9400D00F1430D00A6A50D00D78D0D00EC
:10786C0008B5024B1B685B68019308BD4802030016
:10787C0008B5024B1B689B68019308BD48020300C6
:10788C0008B5024B1B68DB68019308BD4802030076
:10789C0008B5024B1B681B69019308BD4802030025
:1078AC0008B5024B1B685B69019308BD48020300D5
:1078BC0008B5024B1B68DB69019308BD4802030045
:1078CC0008B5024B1B681B6A019308BD48020300F4
:1078DC0008B5024B1B685B6A019308BD48020300A4
:1078EC0008B5024B1B689B6A019308BD4802030054
:1078FC0008B5024B1B68DB6A019308BD4802030004
:10790C0008B5024B1B685B6C019308BD4802030071
:10791C0008B5024B1B68DB6E019308BD48020300DF
:10792C0008B5024B1B681B6F019308BD480203008E
:10793C0008B5024B1B685B68019308BD1802030075
:10794C0008B5024B1B689B68019308BD1802030025
:10795C0008B5024B1B68DB68019308BD18020300D5
:10796C0008B5024B1B685B69019308BD1802030044
:10797C0008B5024B1B68DB69019308BD18020300B4
:10798C0008B5024B1B689B6A019308BD18020300E3
:10799C0008B5024B1B68DB6A019308BD1802030093
:1079AC0008B5024B1B681B6B019308BD1802030042
:1079BC0008B5024B1B689B6D019308BD18020300B0
:1079CC0008B5024B1B681B68019308BD2C02030011
:1079DC0008B5024B1B685B68019308BD2C020300C1
:1079EC0008B5024B1B689B68019308BD2C02030071
:1079FC0008B5024B1B68DB68019308BD2C02030021
:107A0C0008B5024B1B681B69019308BD2C020300CF
:107A1C0008B5024B1B685B69019308BD2C0203007F
:107A2C0008B5024B1B689B69019308BD2C0203002F
:107A3C0008B5024B1B68DB69019308BD2C020300DF
:107A4C0008B5024B1B689B6A019308BD2C0203000E
:107A5C0008B5024B1B681B6B019308BD2C0203007D
:107A6C0008B5024B1B689B6F019308BD2C020300E9
:107A7C0008B5024B1B68DB6F019308BD2C02030099
:107A8C0008B5024B1B681B68019308BD2802030054
:107A9C0008B5024B1B68DB68019308BD2802030084
:107AAC0008B5024B1B681B69019308BD2802030033
:107ABC0008B5024B1B685B69019308BD28020300E3
:107ACC0008B5024B1B689B69019308BD2802030093
:107ADC0008B5024B1B68DB69019308BD2802030043
:107AEC0008B5024B1B681B6A019308BD28020300F2
:107AFC0008B5024B1B685B6A019308BD28020300A2
:107B0C0008B5024B1B689B6A019308BD2802030051
:107B1C0008B5024B1B68DB6A019308BD2802030001
:107B2C0008B5024B1B681B6B019308BD28020300B0
:107B3C0008B5024B1B685B6B019308BD2802030060
:107B4C0008B5024B1B681B6C019308BD280203008F
:107B5C0008B5024B1B685B69019308BD6402030006
:107B6C0008B5024B1B689B68019308BD68020300B3
:107B7C0008B5024B1B68DB68019308BD6802030063
:107B8C0008B5024B1B681B68019308BD2402030057
:107B9C0008B5024B1B68DB69019308BD300203007A
:107BAC0008B5024B1B681B6A019308BD3002030029
:107BBC0008B5024B1B681B6C019308BD3002030017
:107BCC0008B5024B1B685B6C019308BD30020300C7
:107BDC0008B5024B1B681B68019308BD3C020300EF
:107BEC0008B5024B1B689B68019308BD3C0203005F
:107BFC0008B5024B1B68DB68019308BD3C0203000F
:107C0C0008B5024B1B681B69019308BD3C020300BD
:107C1C0008B5024B1B685B69019308BD3C0203006D
:107C2C0008B5024B1B689B69019308BD3C0203001D
:107C3C0008B5024B1B68DB69019308BD3C020300CD
:107C4C0008B5024B1B681B6A019308BD3C0203007C
:107C5C0008B5024B1B689B6A019308BD3C020300EC
:107C6C0008B5024B1B68DB6A019308BD3C0203009C
:107C7C0008B5024B1B681B68019308BD4C0203003E
:107C8C0008B5024B1B685B68019308BD4C020300EE
:107C9C0008B5024B1B681B69019308BD4C0203001D
:107CAC0008B5024B1B685B69019308BD4C020300CD
:107CBC0008B5024B1B689B69019308BD4C0203007D
:107CCC0008B5024B1B68DB69019308BD4C0203002D
:107CDC0008B5024B1B681B6A019308BD4C020300DC
:107CEC0008B5034B1B68D3F88030019308BD000026
:107CFC006002030008B5024B1B681B68019308BDAA
:107D0C002002030008B5024B1B685B68019308BD99
:107D1C002002030008B5024B1B685B69019308BD88
:107D2C002002030008B5024B1B68DB6A019308BDF7
:107D3C002002030008B5024B1B68DB6C019308BDE5
:107D4C002002030008B5024B1B685B6D019308BD54
:107D5C002002030008B5024B1B689B6D019308BD04
:107D6C002002030008B5024B1B68DB6F019308BDB2
:107D7C002002030008B5034B1B68D3F8883001932D
:107D8C0008BD00002002030008B5034B1B68D3F8A4
:107D9C009430019308BD00002002030008B5024B8B
:107DAC001B681B68019308BD4402030008B5024B15
:107DBC001B685B68019308BD4402030008B5024BC5
:107DCC001B689B68019308BD4402030008B5024B75
:107DDC001B68DB68019308BD4402030008B5024B25
:107DEC001B681B69019308BD4402030008B5024BD4
:107DFC001B685B69019308BD4402030008B5024B84
:107E0C001B68DB69019308BD4402030008B5024BF3
:107E1C001B681B6A019308BD4402030008B5024BA2
:107E2C001B685B6A019308BD4402030008B5024B52
:107E3C001B681B6B019308BD4402030008B5024B81
:107E4C001B68DB6B019308BD4402030008B5024BB1
:107E5C001B685B68019308BD4002030008B5024B28
:107E6C001B689B68019308BD4002030008B5024BD8
:107E7C001B68DB68019308BD4002030008B5024B88
:107E8C001B681B69019308BD4002030008B5024B37
:107E9C001B685B69019308BD4002030008B5024BE7
:107EAC001B689B69019308BD4002030008B5024B97
:107EBC001B68DB69019308BD4002030008B5024B47
:107ECC001B681B6A019308BD4002030008B5024BF6
:107EDC001B681B6B019308BD4002030008B5024BE5
:107EEC001B685B6B019308BD4002030008B5024B95
:107EFC001B681B68019308BD1C02030008B5024BEC
:107F0C001B685B68019308BD1C02030008B5024B9B
:107F1C001B689B68019308BD1C02030008B5024B4B
:107F2C001B68DB68019308BD1C02030008B5024BFB
:107F3C001B685B6A019308BD1C02030008B5024B69
:107F4C001B68DB6A019308BD1C02030008B5024BD9
:107F5C001B681B6B019308BD1C0203000021FFF77B
:107F6C00D9BE10B5836804460BB901F018FCC36880
:107F7C009847A3681BB10322214620469847204608
:107F8C001021BDE8104001F0F0BB10B503680446A9
:107F9C009B689847A368013BA3602BB923682046D4
:107FAC00DB68BDE81040184710BD0B68036013B1C7
:107FBC005A6801325A60704710B50446006828B1FF
:107FCC004368013B43600BB9FFF7DFFF204610BD50
:107FDC00024800230360FFF793BC00BF94E4032026
:107FEC00002211464068FFF749BF00221146406845
:107FFC00FFF764BF002211464068FFF76FBF0022F5
:10800C004068FFF763BF002281F001014068FFF771
:10801C004DBF00231A4619464068FFF73FBF0023A7
:10802C001A4619464068FFF731BF002211464068D6
:10803C00FFF714BF002202214068FFF717BF00238F
:10804C001A464068FFF702BF38B5084C28252A4667
:10805C000021204601F00FFD4FF0FF336360044B0D
:10806C00258004225A60034A1A6038BDA0E403201C
:10807C0098E4032074AF0D0070470020704710B5D2
:10808C001021044601F071FB204610BD08B508B163
:10809C00FFF7F5FF08BD0022026010B54FF69C7289
:1080AC008280B1F9044084808A8002680C68046084
:1080BC000A6010BD10B504460068FFF71FFF20468C
:1080CC0010BD38B5C468F4B12378022B03D104F188
:1080DC000C00FFF7EFFF656835B12846FCF798F800
:1080EC001021284601F041FBA56835B12846FCF764
:1080FC008FF81021284601F038FB20461421BDE8EA
:10810C00384001F032BB38BD10B588B00446684623
:10811C0000F0A2FE694604A800F0DDFE04A8A0470A
:10812C00044604A800F051FE684600F04EFE2046BE
:10813C0008B010BDF0B5102485B007460E461546A4
:10814C0000212246684601F096FC00226946104642
:10815C00ADF80040029703960195FFF727FE05B096
:10816C00F0BD13B5044691E8050000234B600B608D
:10817C002060626001A801930093FFF71DFF204669
:10818C0002B010BDF7B50C4602AD54F8043B45F8EF
:10819C00083D06460F4601A82146FFF706FF294673
:1081AC003046FFF7DEFF01A8FFF706FF2046FFF77A
:1081BC0003FF3846082101F0D8FA304603B0F0BD71
:1081CC0013B50B46044603C88DE8030093E803007F
:1081DC0084E803009DE8030083E8030002B010BDAF
:1081EC0038B500230446036010200D46FBF74DFF05
:1081FC0028B1012343608360024B0360C56020609B
:10820C00204638BDA8AF0D00826810B50AB901F040
:10821C00C6FAC368BDE81040184708B5006800F1FD
:10822C001001FFF7F1FF08BD826810B50AB901F023
:10823C00B6FAC368BDE81040184708B5006800F1ED
:10824C001001FFF7F1FF08BD38B5002383608B6880
:10825C0004460D462BB102229847EB68E360AB68ED
:10826C00A360204638BD0000F0B589B004686846AC
:10827C00FFF711FF00238DF808304FF00202D4E80D
:10828C004F3F002B03D1C4E8412F0029F7D102D076
:10829C008DF8083063E014F10C0503D069462846CC
:1082AC00FFF7F9FEBFF35F8F01236370002004F129
:1082BC000803BFF35F8F53E8006F43E80002002A06
:1082CC00F9D1BFF35F8F002E49D0FFF733FD20B1FA
:1082DC0029463046FFF798FF3AE0314602A8FFF7EF
:1082EC00B3FFE068B4F9105008B101F027FC069018
:1082FC001020ADF81C50FBF7C8FE0546E8B100276E
:10830C0087601820FBF7C1FE044688B101468760E0
:10831C0002A8FFF755FF049BA268A360059B04927B
:10832C0006A9E268E36004F110000592FFF7B3FEC2
:10833C000D4BEB600D4B2C60AB6006A8FFF7BAFE43
:10834C0002A8FBF765FF002229460948FFF7FAFC53
:10835C003046FBF75DFF1021304601F006FA684607
:10836C00FFF7A8FE09B0F0BD27820D009D840D001B
:10837C006F7F0D002DE9F04F8BB006460F469046EF
:10838C0099469DF850A0FFF731FD07AD834630BBF1
:10839C004FF62E73059005A92846ADF81830FFF757
:1083AC007AFE1420FBF771FE044658B102230370C9
:1083BC0001234370C0F804B0C0F808B029460C3053
:1083CC00FFF769FE3046214640F8044BFFF708FFE3
:1083DC002846FFF76FFE05A8FFF76CFE52E000245D
:1083EC000C2314206C60AC600793FBF74EFE014627
:1083FC0018B1047044704460846004A80391FFF7C2
:10840C00EFFE224B08930820FBF73FFE044628B1F1
:10841C00039B40F8043B04A9FFF7C7FD00955FFAE6
:10842C008AF34A46414638460994FFF7EFFC20B9D7
:10843C00039B5B7803F0FF0283B1039B059304A9B4
:10844C0006A8FFF7B2FD05A93046FFF78AFE06A87D
:10845C00FFF7B2FD04A8FFF7AFFD13E04FF69C73D6
:10846C0005A903A80592ADF81830FFF7FDFE05A885
:10847C00FFF720FE05A80999FFF784FE06A8FFF771
:10848C009BFDDAE730460BB0BDE8F08F0D860D0092
:10849C00022AF8B5044606D0032A17D0012A22D1A5
:1084AC000B6803601FE018200E68FBF7EEFD054615
:1084BC0050B13146FFF7C8FE3069B6F9147008B1F7
:1084CC0001F03CFB2861AF8225600CE0046854B1DC
:1084DC0004F11000FFF7EEFD2046FBF799FE182182
:1084EC00204601F042F90020F8BD38B50023836026
:1084FC008B6804460D462BB102229847EB68E3606B
:10850C00AB68A360204638BD022A70B5044606D07D
:10851C00032A11D0012A18D10B68036015E014202E
:10852C000E68FBF7B2FD054620B13146FFF7DDFFC3
:10853C00337C2B74256008E0046834B12046FBF7CB
:10854C0067FE1421204601F010F9002070BD0000D8
:10855C00F0B5002387B00C46BFF35F8F50E8006F77
:10856C0040E80032002AF9D1BFF35F8F002E3FD0D4
:10857C001846FFF7DFFB074620B121463046FFF7D0
:10858C0053FE2EE0314601A8FFF7AFFF23788DF89C
:10859C0014301020FBF779FD0546D0B1876014200C
:1085AC00FBF773FD044678B18760014601A8FFF71D
:1085BC0007FE039BA268A360049B0392E268E3603E
:1085CC009DF81430049223740A4BEB600A4B2C6018
:1085DC00AB6001A8FBF71CFE002229460748FFF7F9
:1085EC00B1FB3046FBF714FE1021304601F0BDF80C
:1085FC0007B0F0BD47820D0015850D006F7F0D0093
:10860C0030B585B004460D4668461146FFF7BAFDF5
:10861C007CB124B228460DB101F090FA029002A967
:10862C006846ADF80C40FFF71FFE02A8FFF742FDAD
:10863C001DE000988DF808404FF00102D0E84F3F44
:10864C00A34203D1C0E8412F0029F7D102D08DF805
:10865C0008300CE010F10C014FF0010318BF03734C
:10866C00BFF35F8F043000F8033CFFF771FF01A8E4
:10867C00FFF7A2FC05B030BD002211464068FFF7A1
:10868C001DBC002211464068FFF728BC0022406840
:10869C00FFF71CBC002281F001014068FFF706BC0B
:1086AC0000231A4619464068FFF7F8BB00231A4608
:1086BC0019464068FFF7EABB002211464068FFF7F5
:1086CC00DDBB002211464068FFF7C8BB0022022127
:1086DC004068FFF7CBBB00231A464068FFF7B6BBD8
:1086EC00024B03225A60024A1A607047C8E4032006
:1086FC00C4AF0D007047F8B5064615460C468F18EA
:10870C00BC4206D0336814F8011B9B68304698476E
:10871C00F6E72846F8BD0022007CFFF7E1B90021FE
:10872C00007CFFF7E5B90021007CFFF7E9B90021D7
:10873C00007CFFF7EDB90021007CFFF7F1B910B513
:10874C001421044601F011F8204610BD10B5044662
:10875C004FF47A730846A3600021044B20746160C7
:10876C002360FFF7EDF9204610BD00BFF8AF0D00F8
:10877C000022007CFFF784B900231A461946007CBE
:10878C00FFF786B90021007CFFF78AB913B50024E6
:10879C00007C0094FFF78CF9C0B202B010BD01232D
:1087AC00FFF7F4BF0123D2B2C9B2FFF7EFBF00222B
:1087BC00007CFFF785B9C9B2FFF7F9BF0022007C36
:1087CC00FFF786B90121FFF7F9BF0021007CFFF705
:1087DC00AFB90047F0B585B01C460E4617460546A6
:1087EC00FFF726F9002084424FF0040303908DF824
:1087FC000C30A5BF9DF828308DF80E30034603AB26
:10880C00009332463B460649A8BF8DF80D402846DA
:10881C00FFF706F9B0FA80F0400905B0F0BD00BFD3
:10882C00DF870D00704710B51821044600F09DFF3E
:10883C00204610BDF0B5037D062B8DB00E4600F121
:10884C0004074FF0000402D000F1080518E00CAD4D
:10885C00394605F8304D2F232A460A20FFF778F9C0
:10886C00284601F086F933680246DB682946304613
:10887C0098470FE024B12E21304600F0F1F9044462
:10888C0015F8011D0A22304600F003FABD420444DB
:10889C00F0D120460DB0F0BD10B5054B04461122A9
:1088AC0040F8043B002101F0E6F8204610BD00BF63
:1088BC0020B00D000346074A10B543F8042B01F114
:1088CC00100251F8044B43F8044B9142F9D10A7849
:1088DC001A7010BD20B00D0010B59DF8084044EA88
:1088EC00032343EA024242EA016104234160037517
:1088FC0010BD37B50D788B784A78C9780091294628
:10890C00FFF7EAFF03B030BD0A680B4692680146D8
:10891C001846104770B50E4C04601C2444609DF83A
:10892C0014409DF8106004F0030444EA860400250A
:10893C00E4B20474427485744161427C85600F2AF0
:10894C0008BF044BC56006BF8361C061038370BD63
:10895C00649D0D0015890D00014B024A1A60704789
:10896C00D0E4032097B00D00002211464068FFF7B9
:10897C00A5BA002211464068FFF7B0BA0022406841
:10898C00FFF7A4BA002281F001014068FFF78EBA0C
:10899C0000231A4601214068FFF780BA00231A46CB
:1089AC0019464068FFF772BA002211464068FFF77B
:1089BC0065BA002211464068FFF750BA0022022126
:1089CC004068FFF753BA00231A464068FFF73EBAD7
:1089DC0038B5054688B104684CB1A3681BB10322B5
:1089EC002146204698471021204600F0BEFE28461E
:1089FC001421BDE8384000F0B8BE38BD10B1036892
:108A0C005B681847704710B503680446BBB15868DB
:108A1C00FEF72EFF78B923685A7C12B95868FEF716
:108A2C0037FF23685868FEF73BFF2068002323605C
:108A3C0028B1FFF7CDFF206808B1FFF7C9FF20462A
:108A4C0010BD000038B50C4B03600446D0F8CC01C7
:108A5C0008B1FBF71EFBD4F8C45135B12846FFF71B
:108A6C00D2FF0421284600F080FEA06808B1FFF771
:108A7C00C5FF204638BD00BF08B10D0038B50E4CFF
:108A8C000E4B23600025022304F5E4706360A5609F
:108A9C00C4F8C451C4F8C851FEF732FF084BC4F8EF
:108AAC00CC5184F8D05123602046064A0649BDE8D3
:108ABC00384000F055BE00BFD4E403203CB10D009B
:108ACC0008B10D00ACC60320518A0D0000231A46D4
:108ADC004068FFF7BBB9002202214068FFF7C6B916
:108AEC00002211464068FFF7B9B9002211464068D0
:108AFC00FFF7C4B900231A4619464068FFF7C6B9F8
:108B0C0000231A4619464068FFF7C8B9002281F0C5
:108B1C0001014068FFF7CAB900224068FFF7D6B9D7
:108B2C00002211464068FFF7D9B90022114640686F
:108B3C00FFF7C4B92DE9F043002495B016460D4655
:108B4C000746FFF7A9FE214620220CA8009400F04E
:108B5C0092FF40230C9321466B460CAA3046FFF73C
:108B6C0007F80446002844D1024601216868FFF743
:108B7C0085F90221804622466868FFF77FF9009E3E
:108B8C0081462146002E34D0002932D17368022B45
:108B9C0002D00A2B09D02AE0B8F1000F27D0716956
:108BAC0038460431FFF7A5FE20E0B9F1000F1ED0C6
:108BBC007469112201A800F05EFF06238DF81430B1
:108BCC0001AD04F108031834186859682A4603C229
:108BDC000833A3421546F7D101A906A807ADFFF744
:108BEC0069FE0FCD3C1D0FC42B6823700121F66963
:108BFC00C8E70098FEF7B4FF384615B0BDE8F0831F
:108C0C00024B034A1A6000225A607047A8E6032000
:108C1C003CB10D00F8B506460D468F180024BD4238
:108C2C000CD0336815F8011B9B6830469847002818
:108C3C0001DB0444F3E7002C08BF04462046F8BDD2
:108C4C0070B505460C46084649B100F092FF2B68FA
:108C5C00024621462846DB68BDE87040184770BDC7
:108C6C0003689B68184738B50D210546FFF7F8FFD8
:108C7C000A2104462846FFF7F3FF204438BD38B5D7
:108C8C000546FFF7DDFF04462846FFF7ECFF2044BE
:108C9C0038BD30B58BB00B4600218DF82410012A5D
:108CAC0098BF0A220DF12304B3FBF2F505FB123336
:108CBC0003F0FF03092B94BF30333733DBB221466B
:108CCC0004F801392B46002DEED1FFF7B9FF0BB09C
:108CDC0030BD0CB42DE9F04387B000AF07F1380478
:108CEC00054654F8049B3C600E4623464A46142124
:108CFC00381DFFF71BF9132805D8391D2846FFF737
:108D0C009FFF044613E000F1080323F00703E84635
:108D1C00ADEB030D411C23464A4668463C60FFF709
:108D2C0005F969462846FFF78BFF0446C5461EB178
:108D3C002846FFF798FF044420461C37BD46BDE883
:108D4C00F04302B0704710B50446FBF761FA2046B9
:108D5C0010BD00000348044A04490023836000F05E
:108D6C00FFBC00BFB0E60320ACC60320538D0D0042
:108D7C00704710B50C21044600F0F7FC204610BDDE
:108D8C000021FEF715BF0021FEF71ABF10B5054BE9
:108D9C000360044601710846FEF7FAFE0023A36047
:108DAC00204610BD70B10D0038B504460079FFF7B0
:108DBC00E7FF38B92079FEF7F3FE05462079FFF777
:108DCC00E2FF00E00025284638BD10B504460068D7
:108DDC00FFF794F8204610BD10B50446006808B1A2
:108DEC00FFF78CF800232360A360636010BD38B5D7
:108DFC0004460D4600680131FFF788F810B184E88D
:108E0C002100012038BD10B50368044613B1436836
:108E1C008B4207D22046FFF7EAFF20B1A3680BB9BB
:108E2C0022681370012010BD70B50E461146044621
:108E3C001546FFF7E8FF18B92046FFF7CDFF09E00C
:108E4C002A463146A560206800F00AFE2268A36815
:108E5C000021D154204670BD38B500230446036070
:108E6C004360836003730D4639B1084600F081FE00
:108E7C00294602462046FFF7D7FF204638BD38B5B5
:108E8C00054600680C4660B16A688B689A4206D346
:108E9C00096800F03AFEA368AB6000230AE0FFF714
:108EAC002DF823682B6063686B60A368AB600023AC
:108EBC0023606360A36038BD884210B50B4604463E
:108ECC0007D0096819B19A68FFF7AEFF01E0FFF708
:108EDC0083FF204610BD10B5002304460360436099
:108EEC0083600373FFF7E8FF204610BD884210B57E
:108EFC00044601D0FFF7C3FF204610BD38B5054628
:108F0C000C4641B1084600F034FE21460246284684
:108F1C00FFF78AFF01E0FFF75FFF284638BD70B509
:108F2C0004460E4609B9002070BD6AB18368D51895
:108F3C002946FFF768FF0028F5D02068A368314662
:108F4C00184400F0E2FDA560012070BD10B58A68E0
:108F5C0009680446FFF7E3FF10B92046FFF73CFF12
:108F6C00204610BD70B50E469AB191B185689D42F0
:108F7C0002D800230B7070BD541EED1A0168AC4270
:108F8C0028BF2C4619442246304600F00FFE002321
:108F9C00335570BD10B58368934207D904680968CE
:108FAC00A01800F016FE08B1001B10BD4FF0FF30EA
:108FBC0010BD00002DE9F0419A420E461C461049A6
:108FCC0088BF13461546074684BF25461C46FFF747
:108FDC0043FFB1688D420FD88C4228BF0C463368D2
:108FEC00002213F804801A55316838462944FFF7DB
:108FFC0085FF336803F804803846BDE8F08100BF74
:10900C00A6A50D0010B504468B68FFF7D3FF2046CC
:10901C0010BD006808B100F011BD704710B50446D2
:10902C00006818B1FEF76AFF0023236010BD10B56D
:10903C000446FFF7F3FF204610BD000010B5094CA5
:10904C0000204FF6FF732060A080A0712081638107
:10905C00FEF758FE2046044A0449BDE8104000F0D3
:10906C007FBB00BFC0E60320ACC603203B900D00C5
:10907C0008B50020FEF7DAFE28B1FEF7B7FE80F047
:10908C000100C0B208BD012008BD10B50020FEF7DC
:10909C008FFC044668B9FEF72DFE01280BD1204643
:1090AC00FEF758FE38B9FFF7E3FF30B9FEF786FE3E
:1090BC00F9E7012010BD002010BDFFF7D9FF0020FB
:1090CC00FEF776FC003018BF012010BD08B5FFF785
:1090DC00DCFFBDE80840FEF74BBC0000024B1A68F1
:1090EC00024B1A60704700BF40C60320CCE6032039
:1090FC00F8B585B2044628460E46174600F0DCF952
:10910C0060B102212846FEF763FC022806D13A46DC
:10911C0031462046BDE8F840FEF732BDF8BD704739
:10912C004174704708B5007CFEF792FD20EAE070B0
:10913C0008BD08B5007CFEF763FD20EAE07008BDB1
:10914C0008B5007CFEF76CFD30EA200028BF4FF01C
:10915C00FF3008BD08B5007CFEF75AFD30EA200050
:10916C0028BF4FF0FF3008BD007CFEF761BD10B585
:10917C001421044600F0F9FA204610BD70B5457C68
:10918C0004460E4625B9007CFEF762FD002805DD7D
:10919C003146207CBDE87040FEF72ABD284670BDE4
:1091AC0010B5044608461146002262604FF47A72EC
:1091BC00A260054A22600122207462741A46FEF7EE
:1091CC0007FD204610BD00BFACB10D000023007C94
:1091DC00FEF746BD0022FFF7F9BF007CFEF700BD8D
:1091EC00007CFEF72DBD0000F8B5194C25684DB973
:1091FC008420FAF74AFF064618B18422294600F06B
:10920C003AFC2660134D2E684EB98420FAF73DFFC8
:10921C00074618B18422314600F02DFC2F600E4F0A
:10922C00396811F0010611D13846FAF734FF68B1EC
:10923C0022682B6809483146FFF7B2FF3846FAF727
:10924C002FFF074A0749054800F08AFA0348F8BD82
:10925C00ECE60320E4E60320E8E60320D0E6032056
:10926C00ACC603202B910D0041747047704708B5B4
:10927C000021007CFEF71CFD30EA200028BF4FF0D7
:10928C00FF3008BD08B50121007CFEF711FD30EA66
:10929C00200028BF4FF0FF3008BD08B5007CFEF75A
:1092AC00FFFC20EAE07008BD08B5007CFEF7F0FC7E
:1092BC0020EAE07008BD007CFEF70ABD10B5142151
:1092CC00044600F052FA204610BD38B50446007C26
:1092DC000D46FEF7E5FC002801DC607C28B1294630
:1092EC00207CFEF7EDFC20EAE07038BD10B504469A
:1092FC00002363604FF47A73A360054B2360012352
:10930C000846217463741146FEF7B2FC204610BD6A
:10931C00DCB10D000022007CFEF7B2BC10B51422AB
:10932C000446002100F0A7FB204610BD30B50E4DC1
:10933C0087B001A8FFF7F2FF296811F0010410D1E2
:10934C002846FAF7A8FE60B101AA21460748FFF7A4
:10935C00CDFF2846FAF7A4FE054A0649034800F05B
:10936C00FFF9024807B030BDF0E60320F4E6032015
:10937C00ACC6032079920D0008B50C4B33B1FFF746
:10938C00D5FF03681B699847002809DC084B63B1BB
:10939C00FFF72AFF03681B699847002803DC08BD08
:1093AC00AFF30080F2E7AFF3008008BD00000000CF
:1093BC000000000008B5FFF7DFFFFEF7D1FA014B04
:1093CC00186008BD10E703200248034A0349121A2B
:1093DC0000F046BB00F4032004F40320B0B30D00EE
:1093EC0007B5002300931A466FF07701FEF7CCFC0B
:1093FC0003B05DF804FB000007B543880A2B08D0C6
:10940C00502B09D1094B1B683BB103B05DF804EB41
:10941C001847FFF7E5FF06E0002300931A466FF0AC
:10942C007701FEF7B1FC03B05DF804FB08E70320FD
:10943C0038B5104C104D2368AB42104B0CBF0122B9
:10944C0000221A7002D0FFF7BFFF2560FEF770FAFA
:10945C00044600F019FB0A4B13B12046AFF3008011
:10946C0000210748FEF7EAFC00210648BDE8384019
:10947C00FEF780BC00F403201E1C279A0CE7032087
:10948C000000000005940D0008B5024B1B681B681A
:10949C00019308BD5C02030008B5024B1B685B68B6
:1094AC00019308BD5C02030008B5024B1B689B6866
:1094BC00019308BD5C02030010B504460F48FFF78A
:1094CC0073FC28B1A4F10B03022B01D8002010BDB2
:1094DC0000F004F9FFF779F908B1012CF6D9FFF780
:1094EC0083FEFFF77DFE18B1A4F10903012BEDD922
:1094FC00232C8CBF0020012010BD00BF34E70320BB
:10950C00232838B504460D460AD8FF2908D0FFF7A2
:10951C00D3FF28B129462046BDE83840FEF760BA93
:10952C0038BD38B504460D46FEF762FAFF2810D058
:10953C00062804D84D2323FA00F0C30709D420468B
:10954C00FFF7BAFF28B129462046BDE83840FEF7A0
:10955C0057BA38BD10B50446FEF74AFA0438C0B203
:10956C00012808D92046FFF7A7FF20B12046BDE807
:10957C001040FEF74DBA002010BD0D2810B5044662
:10958C009CBF0E34A4B22046FFF796FF50B10321C6
:10959C002046FEF71DFA032804D12046BDE81040F2
:1095AC00FEF756BA002010BD38B504460D46FFF73D
:1095BC0083FFF0B104212046FEF70AFA042805D1F6
:1095CC00A9B22046BDE83840FEF73ABA022120463F
:1095DC00FEF7FEF902280CD12046FEF709FA012805
:1095EC0001D0042805D129462046BDE83840FEF7B5
:1095FC0037BA38BD70B504460D461646FFF75CFF0A
:10960C0098B102212046FEF7E3F902280DD120463D
:10961C00FEF7EEF9012801D0042806D1324629467E
:10962C002046BDE87040FEF723BA70BD30B51C4D26
:10963C0089B004462068FEF783F9FEF791F92B6890
:10964C002268C01A9042F5D3236833B3E36823B37E
:10965C00251D236928469847002304A968460293D0
:10966C000693FEF7ADFD029B069A02920693079AAB
:10967C00039B0793294604A80392FEF7A1FD069BC2
:10968C00E268E360079B069204A8226923610792B3
:10969C00FAF7BEFD6846FAF7BBFD09B030BD00BF56
:1096AC0010E7032008B5FFF7C1FF0020BDE8084014
:1096BC00FEF7F6B810B5074C2368DB0708D4204634
:1096CC00FAF7E9FC20B1FEF75BF92046FAF7E8FC63
:1096DC00014810BD14E7032018E7032038B50B4DE3
:1096EC00296811F001040FD12846FAF7D4FC58B1BF
:1096FC0021460748FFF72AF82846FAF7D1FC054A15
:10970C000549034800F02CF8014838BD1CE703203C
:10971C0020E70320ACC6032001870D0070B50C4C6C
:10972C000C4E0D4D00212046FFF730FB20460B4C14
:10973C003246294600F014F801212046FFF726FB9B
:10974C00324629462046BDE8704000F009B800BFFB
:10975C0034E70320ACC603207D8D0D0040E70320C9
:10976C000B460146184600F06DB9FAF790BC0000A4
:10977C00024B1868BFF35F8F704700BF4CE70320A4
:10978C0010B5002814BF044601242046FEF7AEFB9A
:10979C0020B9FFF7EDFF08B18047F6E710BD08B51B
:1097AC00FEF7CCFB244B1A68D0075CBF01221A6071
:1097BC00224B1A68D1075CBF01221A60204B1A6831
:1097CC00D2075CBF01221A601E4B1A68D0075CBF1F
:1097DC0001221A601C4B1A68D1075CBF01221A6067
:1097EC001A4B1A68D2075CBF01221A60184B1A6810
:1097FC00D0075CBF01221A60164B1A68D1075CBFF8
:10980C0001221A60144B1A68D2075CBF01221A603D
:10981C00124B1A68D0075CBF01221A60104B1A68F1
:10982C00D1075CBF01221A600E4B1A68D2075CBFCD
:10983C0001221A60704700BF7CE7032078E7032001
:10984C0074E7032070E703206CE7032068E703202C
:10985C0064E7032060E703205CE7032058E703205C
:10986C0054E7032050E70320184B1A68D1075CBF5C
:10987C0001221A60164B1A68D2075CBF01221A60CB
:10988C00144B1A68D0075CBF01221A60124B1A687D
:10989C00D1075CBF01221A60104B1A68D2075CBF5B
:1098AC0001221A600E4B1A68D0075CBF01221A60A5
:1098BC000C4B1A68D1075CBF01221A600A4B1A685C
:1098CC00D2075CBF01221A60704700BF9CE70320DF
:1098DC0098E7032094E7032090E703208CE703200C
:1098EC0088E7032084E7032080E70320184B1A68DD
:1098FC00D1075CBF01221A60164B1A68D2075CBFF5
:10990C0001221A60144B1A68D0075CBF01221A603E
:10991C00124B1A68D1075CBF01221A60104B1A68EF
:10992C00D2075CBF01221A600E4B1A68D0075CBFCD
:10993C0001221A600C4B1A68D1075CBF01221A6015
:10994C000A4B1A68D2075CBF01221A60704700BF2D
:10995C00BCE70320B8E70320B4E70320B0E70320FB
:10996C00ACE70320A8E70320A4E70320A0E703202B
:10997C00244B1A68D0075CBF01221A60224B1A686C
:10998C00D1075CBF01221A60204B1A68D2075CBF5A
:10999C0001221A601E4B1A68D0075CBF01221A60A4
:1099AC001C4B1A68D1075CBF01221A601A4B1A684B
:1099BC00D2075CBF01221A60184B1A68D0075CBF33
:1099CC0001221A60164B1A68D1075CBF01221A607B
:1099DC00144B1A68D2075CBF01221A60124B1A682A
:1099EC00D0075CBF01221A60104B1A68D1075CBF0C
:1099FC0001221A600E4B1A68D2075CBF01221A6052
:109A0C00704700BFECE70320E8E70320E4E70320FE
:109A1C00E0E70320DCE70320D8E70320D4E70320AA
:109A2C00D0E70320CCE70320C8E70320C4E70320DA
:109A3C00C0E703200A22002100F06CB90A220021A1
:109A4C0000F068B910B5054C13462CB10A46014616
:109A5C000220AFF3008010BD204610BD00000000B6
:109A6C0010B5431E0A44914204D011F8014B03F87F
:109A7C00014FF8E710BD02440346934202D003F8AD
:109A8C00011BFAE77047000038B5124B1C68A36B3A
:109A9C000546D3B91820FEF729FA43F20E33A0631A
:109AAC0003804AF6CD33438041F2342383804EF257
:109ABC006D63C3804DF6EC630381052343810B2357
:109ACC00838101220023C0E90423A36B00221D61C2
