:02000002D0002C
:1040000000400D00F8B30D00000006000D00050192
:0840100004017E050000000020
:04401800A89C0D0053
:10401C0009480A49884208B505D0094A824202D0AB
:10402C00121A05F0D7FC0748074A0021121A05F0AE
:10403C00DCFC014808BD00BF00C6032020B30D0006
:10404C00ACC60320ACC60320F0E7032070B505F026
:10405C00BBF9074C074BE41AA40800251E46A542E1
:10406C0004D056F8253098470135F8E770BD00BFED
:10407C0018B30D00DCB20D0002F082BF08B503F0DE
:10408C0081FABDE8084005F06DB903F025BF03F0D7
:10409C002BBF03F029BF0078B0FA80F040097047BD
:1040AC000123037070477047014B01221A7070474F
:1040BC00A8CA0320014B01221A60704738C703209D
:1040CC00014B01221A707047FCD503200368184776
:1040DC00012A02D0022A02D004E0016002E00B683F
:1040EC0000B103600020704708B505F0F7F80249ED
:1040FC00BDE8084004F0B9BDE4A00D0013B50C46B2
:10410C00114805F0A3FC204605F0EDFCB0F5007F4E
:10411C0007DB204410F8013CA3F122025342534127
:10412C0000E00123094C237005F0D8F82378084AE5
:10413C00002B14BF59234E2300930121024B04F092
:10414C00CDFD02B010BD00BFCCDA032029D3032073
:10415C00EEA00D0013B500210446084603F0A6FBA3
:10416C0002A90023204641F8043D03F0B7FB019C53
:10417C000CB1012323710021012003F097FB2CB11A
:10418C00236820469B6898470023237102B010BD1A
:10419C0010B5054B00220446114640F8043B03F0D1
:1041AC0095FD204610BD00BFD89C0D0010B50446EF
:1041BC00FFF7EEFF2046202105F091FA204610BDB6
:1041CC0037B50C4605460F4805F040FC204605F077
:1041DC008AFCB0F5007F07DB204410F8013CA3F10A
:1041EC0022025342534100E00123074A137005F0A9
:1041FC0075F800942B46054A012104F06FFD03B0BD
:10420C0030BD00BFCCDA032029D3032019A10D0047
:10421C0010B58368044613B1032201469847204623
:10422C0010BD38B5044670B1056835B12846FFF7A6
:10423C00EFFF1021284605F052FA20461421BDE864
:10424C00384005F04CBA38BD10B543690446BBB1D3
:10425C00586803F00BFB78B963695A7C12B958683B
:10426C0003F014FB6369586803F018FB60690023C2
:10427C00636128B1FFF7D5FF606908B1FFF7D1FF83
:10428C00201DFFF7C5FF204610BD000030B587B0DC
:10429C001D4600230446049322B1224B0593224B66
:1042AC00029204930023E360049B21603BB1022241
:1042BC0002A9201D9847059B2361049BE3601B49C1
:1042CC00142005F017FA30B1002303740360436027
:1042DC008360C36043746061A0B1154B83606369F4
:1042EC001449DC606069144B8DE82100092204300C
:1042FC0003F0B4FA30B963691B7C4BB9012003F0AD
:10430C0025FBF8E760690023636108B1FFF789FFBB
:10431C0003F02CFB094B186002A8FFF779FF20462D
:10432C0007B030BDD9400D00DD400D0078B10D0057
:10433C0025960D003EA10D00A9550D0008E70320A0
:10434C0008B503F013FB034B1860BDE8084003F0FD
:10435C002BBD00BF08E703200368C9B29B68184750
:10436C00F0B500258E4615490571856045610160E3
:10437C00044692E8030085B002AF04F10C0687E80E
:10438C00030096E8030082E8030097E8030086E840
:10439C0003009168606990606161D168A069D06028
:1043AC00A1618DE82800064A2346714604F10800F5
:1043BC0003F084FA204605B0F0BD00BFC49C0D008C
:1043CC0061410D0007B58068002340B18DE80A00FB
:1043DC001A46022103F08AFAB0FA80F0400903B0C1
:1043EC005DF804FB38B50F4B0360836804469BB142
:1043FC006FF00041FFF7E6FF0021A06803F096FA8A
:10440C00237903F0FF0513B103F038FAF8E72946D6
:10441C00A06803F05BFAA56004F10C00FFF7F8FE4E
:10442C00204638BDC49C0D0010B50446FFF7DAFFDA
:10443C0020461C2105F053F9204610BD73B50646E5
:10444C000D4611461446FFF7BDFFB068002340B17E
:10445C00019300952246194603F048FAB0FA80F011
:10446C00400902B070BD000040F67263984270B50E
:10447C001CDC0F4A002352F8044BA04203F1010547
:10448C000FDC116888420CDD0A4E56F8232056F8D2
:10449C0025309D1A031B6B43081B93FBF0F0104453
:1044AC0070BD142D2B46E6D1002070BD184670BD92
:1044BC008CAE0D0038AE0D001FB50C2AA8BF0C2217
:1044CC00014401A8144605F02BFB04AB1C4401A8C5
:1044DC00002304F80C3C05F067FA04B010BD2DE97C
:1044EC00FF410D68D2F8008046190F463046414610
:1044FC0005F029FB801B0E28A8BF0E200246314672
:10450C000446684605F00CFB404605F0ECFA04AB9B
:10451C00284420441C4438600023684604F8103CAE
:10452C0005F042FA04B0BDE8F081000010B5084C6B
:10453C0001444FF0FF32884208D010F8013B534041
:10454C00DBB254F8233083EA1222F4E7D04310BDD7
:10455C00E49C0D00021E30B516DB9110022329B12C
:10456C00914203D0023342FA03F1F8E7023B0020F8
:10457C004000411C42FA03F401FB01F5A542D8BFEF
:10458C000846023BF4D530BD4FF0FF3030BD000083
:10459C0038B5064D002405F047F8204603F0FEF927
:1045AC0028550134B4F56A7FF5D138BD3CD60320CB
:1045BC0038B5064D002405F037F8295D2046013446
:1045CC0003F0F4F9B4F56A7FF5D138BD3CD603207D
:1045DC0038B504F083FE0849084D04F046FB00246E
:1045EC0004F11800E42200212844E43405F0FDF91C
:1045FC00B4F5647FF4D138BD45A10D003CD6032041
:10460C0008B5064B06221A700C225A70FF229A70BB
:10461C00FFF7DEFFFFF7CCFF012008BD3CD60320DF
:10462C00012870B50E461D4D1BD11D4B188804F08A
:10463C004BFF044640B904F051FE1A4904F015FB37
:10464C00194B2C601C6016E02B68002B15DC04F059
:10465C0045FE164904F009FB134B00202860186036
:10466C0070BD2A684AF227039A4206DD04F036FE32
:10467C000F4904F0FAFA002070BD0E4C012120887D
:10468C0004F009FF304603F069F90021208804F09A
:10469C0002FF304603F062F9012070BD00D6032002
:1046AC002CC603207CA10D0068CA032098A10D0024
:1046BC00AFA10D0030C603202DE9F84F1C4BDFF8DD
:1046CC007890C70F044688461888394604F0E3FEF4
:1046DC00184B84EAE4711A68A1EBE47111441922B5
:1046EC00002C91FBF2F64FF0000402FB16121A603C
:1046FC00B4BF6FF0180A4FF0190A1D46A346B44216
:10470C0013DA41463846FFF78BFF58B1D9F8003021
:10471C005344002B02DDC9F8003004E0C9F800B0A6
:10472C00C5F800B034460134E9E7BDE8F88F00BFA6
:10473C0010C6032068CA032000D60320024B0021B8
:10474C00188804F0A8BE00BF3CC6032008B5054B72
:10475C000121188804F09FFE0A20BDE8084003F0F0
:10476C00F3BB00BF3CC6032038B504460D46FFF72B
:10477C00EDFF29462046FFF79FFFBDE83840FFF7C5
:10478C00DDBF0000134B10B54AF228021A60044634
:10479C00FFF7DCFF96211048FFF78EFF642003F033
:1047AC00D3FB96214FF4FA60FFF786FF642003F0E9
:1047BC00CBFB4FF47A710948FFF77EFF4FF47A7107
:1047CC0042F63020FFF778FF1CB1BDE81040FFF730
:1047DC00B5BF10BD00D60320A015FFFF48F4FFFFA6
:1047EC002DE9F04106460D469046002447424445CB
:1047FC0009DA29463046FFF75FFF29463846FFF7AE
:10480C005BFF0134F3E7BDE8F08100002DE9F74FC1
:10481C00204D009392462B681F4F80EAE072A2EB6A
:10482C00E0721A441923044692FBF3F64FEAD0784F
:10483C0003FB16230A202B60894603F085FB002C12
:10484C004FF00004B4BF6FF0180B4FF0190B234658
:10485C00B44201931ADA0C9A00995046FFF7C0FF44
:10486C000E4B4146188804F016FE49464046FFF7A9
:10487C00D7FE019B38B13A685A44002A01DD3A60F0
:10488C0002E03B602B6034460134E1E703B0BDE845
:10489C00F08F00BF68CA032000D6032010C6032087
:1048AC0038B5064C80F3080544F62062294620886A
:1048BC0004F05AFE0123E560237238BDD0C60320F4
:1048CC0010B5044C0021208804F028FE002323722C
:1048DC00E36010BDD0C6032070B5044603F046F863
:1048EC000F4D84F30804064644F6206221462888BE
:1048FC0004F03AFE002C14BF01230023EC602B7251
:10490C0009D0084B1B7833B104F0E8FC2346064A67
:10491C00012104F0E3F903F029F8801B70BD00BFFE
:10492C00D0C60320D3CA0320CAA10D00024B0146F6
:10493C00188804F0F3BD00BF04C60320024B0146E7
:10494C00188804F0EBBD00BF14C60320024B0146CF
:10495C00188804F0E3BD00BF1CC603200346412B9E
:10496C00084601D1FFF7E2BF312B01D1FFF7E6BFBB
:10497C00322B01D1FFF7EABF70470000024B002138
:10498C00188804F0CBBD00BF04C60320024B0021E5
:10499C00188804F0C3BD00BF14C60320024B0021CD
:1049AC00188804F0BBBD00BF1CC60320412801D1F0
:1049BC00FFF7E4BF312801D1FFF7E8BF322801D15E
:1049CC00FFF7ECBF704710B504460846FFF7AEFF83
:1049DC00204603F0B9FABDE81040FFF7CFBF10B581
:1049EC0004460846FFF7AAFF204603F0ADFABDE8DF
:1049FC001040FFF7CBBF10B504460846FFF7A6FFE3
:104A0C00204603F0A1FABDE81040FFF7C7BF38B548
:104A1C000C4605460846FFF789FF2046FFF78EFF38
:104A2C002046FFF793FF284603F08EFAFFF7A6FF08
:104A3C00FFF7ACFFBDE83840FFF7B0BF08B504F096
:104A4C0007FE03F0B8FE88B904F002FE084903F033
:104A5C0085FE04F0FDFD03F085FE642003F074FA7E
:104A6C0004F0F6FDBDE8084003F0A5BE08BD00BF8C
:104A7C00A086010008B504F0EBFDBDE8084003F08A
:104A8C0077BE000008B5074B074800226FF00041C5
:104A9C00DA61FFF7D3FC04F021FC0449BDE80840BF
:104AAC0004F0E3B8D0C603206CCA0320E1A10D00CA
:104ABC0008B56FF000410648FFF784FC0020FFF7B3
:104ACC000BFF04F00BFC0349BDE8084004F0CDB823
:104ADC006CCA032004A20D0038B5114C00212088AB
:104AEC0004F01CFDA08804F002FDE1680546208856
:104AFC0004F014FD1DB9FFF7DBFF00250EE028467E
:104B0C00FFF7B2FC052200EBC003B0F5167F93FB58
:104B1C00F2F303F5A0732062A362ECDC284638BDE7
:104B2C00D0C603202DE9F0432F4E8BB0F56802F070
:104B3C001DFFF769C7EB0009B9F57A7F804634464B
:104B4C004ED3FFF7C9FFC6F81C808046002847D01B
:104B5C0017B97761B76143E0336A776AB569E26A7E
:104B6C00FF1A4FF47A7107FB09F393FBF1F31D4421
:104B7C00B5617669636BBE1B6B434E437A43216B05
:104B8C00A56B92FBF1F193FBF5F56A18E56B236CC1
:104B9C0096FBF9F6754395FBF3F5144B1B7815440E
:104BAC00EBB104F09BFBD4F820E0636A0895079600
:104BBC00A16906910A2293FBF2F102FB11330393D4
:104BCC009EFBF2F302FB13E2029101920093059714
:104BDC00CDF810904346064A012104F07FF8676136
:104BEC0028460BB0BDE8F083D0C60320D3CA0320FF
:104BFC0047A20D002DE9F041074694B00E463A4D00
:104C0C0002B92A602B683946013310A82B6004F0D6
:104C1C0058F910A9354804F05FF910A804F0CBF846
:104C2C003146334804F02BFF324A334900231370CA
:104C3C00324A04A8137004F005F939460CA8049CF8
:104C4C0004F03FF92E4908A804F0FCF808A90CA8B8
:104C5C0004F072F93146804610A804F0F3F810A95C
:104C6C00404604F069F9274B02681978264B1B78EB
:104C7C000B438DF8003021463C2302A803F070FB57
:104C8C00039C7CB16368013B63605BB9236820467D
:104C9C009B689847A368013BA3601BB92368204617
:104CAC00DB68984710A804F086F808A804F083F88D
:104CBC000CA804F080F804A804F07DF804F00EFBB6
:104CCC003946044610A804F0FCF82B6801930F4AEF
:104CDC00009610AB0121204604F000F810A804F057
:104CEC006AF814B0BDE8F081D0D50320C0D50320FC
:104CFC00EDD2032029D30320B0A20D00CCDA03207F
:104D0C003BB00D0044C7032078C70320BAA20D00A6
:104D1C007FB504F0E3FA1549154E164D03F0A5FFC7
:104D2C0003F05AF80446B8B10123337002F01EFEAA
:104D3C00114B124900F51C501030186000246846C5
:104D4C002C7004F07FF8684622460D49FFF752FF9D
:104D5C00684604F030F806E004F0C0FA094903F0A4
:104D6C0084FF34702C7004B070BD00BFD3A20D0052
:104D7C0058C70320CCD20320E4C70320E8A20D00BF
:104D8C0008D60320FBA20D00072210B50C490D48D4
:104D9C0004F0B1FE0C4B041E0CBF012200221A7051
:104DAC0007D104F09BFA094903F05FFF084B1C7014
:104DBC0010BD04F093FA0749BDE8104003F055BF4D
:104DCC002AA30D00A0C703204CD3032032A30D004F
:104DDC00E1C703203FA30D002DE9F0410F4F06461C
:104DEC0000244FF0E40808FB04F505F120013944D8
:104DFC001822304604F07FFE014648B907481835A2
:104E0C002844E42204F0F1FDBDE8F041FFF7D0BBEB
:104E1C000134042CE7D1BDE8F08100BF3CD603205F
:104E2C002DE9FF41244F254CDFF898803946684620
:104E3C0004F008F80099204604F029FE054668465F
:104E4C0003F0B9FF00262A462146404604F068FECE
:104E5C0008F8056001352C443946684603F0F2FF2A
:104E6C000099DFF86480204604F011FE0546684680
:104E7C0003F0A1FF2A462146404604F051FE08F8F3
:104E8C00056001352C443946684603F0DBFF009978
:104E9C000B4F204604F0FBFD0546684603F08BFFE4
:104EAC002A462146384604F03BFE681C20447E55B9
:104EBC0004B0BDE8F08100BF3BB00D00CCDA03209C
:104ECC00D4D503205AC70320A0C70320F8B5154832
:104EDC0004F009FE134B00245A1C02380A26092739
:104EEC0084421CDA15785C2D13D15178742904F1A5
:104EFC00010402D1591C1F7009E06E2917BF194615
:104F0C00591C01F8025B55780CBF1E705D700232A3
:104F1C0002E0591C01321D7001340B46E0E70022FF
:104F2C001A70F8BDCCDA03201FB5184B1B68042B84
:104F3C0019DC04F0D3F916490446684603F0C1FFA6
:104F4C006B46144A0121204603F0C8FE684603F064
:104F5C0032FF0F49684603F0B4FF01220E49684640
:104F6C00FFF748FE0CE004F0B9F90949044668461D
:104F7C0003F0A7FF6B46094A0121204603F0AEFE61
:104F8C00684603F018FF04B010BD00BFD0D5032055
:104F9C00C0D5032052A30D00EDD203207EA30D003B
:104FAC00E4222DE9F84302FB00F6114D1149DFF81C
:104FBC00448006F118040746281904F00BFD06F18D
:104FCC00FC094C450ADA04F02FFBA31B4344204692
:104FDC0013F8181C02F0EAFC0134F2E7AF7004F08D
:104FEC0023FBA9780220BDE8F84302F0DFBC00BF28
:104FFC003CD60320E4D903201FB5CB890A78039350
:10500C008B8902934B8901930B89044C00934B6859
:10501C000349204402F078FF04B010BD4DD30320A7
:10502C00C4A30D002DE9F743E4244443134D144964
:10503C00144804F120032A192B440093D369926974
:10504C0002F062FF00260746A84604F13C0933191A
:10505C002B4493F83C3003F0FD03412B06D109EBB4
:10506C00060138464144FFF7C7FF07441036C02EEF
:10507C00EDD1012003B0BDE8F08300BF3CD6032086
:10508C00DEA30D004DD3032010B5084B9C78FF2CEC
:10509C0014BF0134002404F003042046FFF780FF02
:1050AC002046BDE81040FFF7BDBF00BF3CD6032033
:1050BC0070B5194B1B780E4663BB184B1A1892F837
:1050CC0023203AB30A2A25D0092A20D00446B4F565
:1050DC00FA6F1EDA1A1992F8232032B9221A0146F5
:1050EC000F48FFF7E9F9306013E00A2AF6D0092AD5
:1050FC0004F1010507D1221A01460948FFF7DCF932
:10510C003060284670BD2C2AF5D02C46DFE70130E4
:10511C0070BD204670BD00BFE0C70320D4CA032079
:10512C00F7CA032070B50029054688B01F48204CEB
:10513C0001D101601BE01F4BDA684FF47A7303FB5B
:10514C0002F207DA4FF0FF3323601B4B02600022A0
:10515C001A600DE00368194464230160594391FB04
:10516C00F2F19942A8BF19462368994200D02160F8
:10517C0004F0B4F82946064604A803F0A2FE0F4B2F
:10518C00196A0A2391FBF3F203FB121302932368AF
:10519C00019200930A4A04AB0121304603F09EFDB4
:1051AC0004A803F008FE08B070BD00BF98C7032028
:1051BC00D0D20320D4CA0320C8C70320D0C60320F2
:1051CC00EFA30D0010B502F0D1FB0446FFF7AAFCCB
:1051DC00FFF782FBFFF7B4F802F0C8FB001B10BD11
:1051EC0010B50446FFF7EEFFA04204DA201ABDE822
:1051FC00104002F0A9BE10BDF0B516464A1C85B091
:10520C0007460D4602D133600C4629E01649684624
:10521C0003F018FE2A466946384603F0B1FE0446F0
:10522C00684603F0C8FD631C0CD12A463946684613
:10523C0003F0DEFE684603F0E2FE3060684603F0E1
:10524C00BAFD0DE023462A463946684603F0A8FE0F
:10525C00684603F0D4FE3060684603F0ACFD0134C0
:10526C00204605B0F0BD00BF15A40D0010B50120FF
:10527C00FFF7E4FB18B9BDE81040FFF7FBBB04F0E7
:10528C002DF80F4903F0F1FC002404F0E1F921465C
:10529C0003F087FA04F0DCF90021FFF75DF804F065
:1052AC00D7F903F085FA30B904F018F82346054A0B
:1052BC00012103F013FD01347F2CE6D1DBE700BFA5
:1052CC0017A40D0035A40D00164A08B50023137061
:1052DC00154A1370154A1370154A1370154A13703A
:1052EC00154A1360154A1360154A13701376154A44
:1052FC0013701376144A137282F8203082F821301E
:10530C00124A13701372124A1370124A0A21537004
:10531C00117002F02BFB104B00F56A4060301860E6
:10532C0008BD00BF3CC703204CD30320CCD20320C4
:10533C0029D3032034C7032098C70320D0D20320DD
:10534C0008D6032022D60320E4D90320D4CA032094
:10535C004DD30320F0C703209CC7032010B50722B0
:10536C000D490E4804F0C7FB044670B903F0B6FFB4
:10537C000B4903F07AFC0B4B01201C70FFF702FA6F
:10538C00FFF7A2FF084B1C6010BD03F0A7FF0749F5
:10539C00BDE8104003F069BC2AA30D00A0C7032090
:1053AC0054A40D00D2CA03209CC7032062A40D0094
:1053BC0010B507220D490E4804F09DFB044670B948
:1053CC0003F08CFF0B4903F050FC0B4B01201C70BD
:1053DC00FFF7D8F9FFF778FF084B1C6010BD03F0FE
:1053EC007DFF0749BDE8104003F03FBC2AA30D0028
:1053FC00A0C7032076A40D0065CA03209CC7032018
:10540C0085A40D001FB503F069FF0F4903F02DFCB7
:10541C000E4B01221A7002F0A9FA0D4B00F59C40BC
:10542C0020301860FFF792F90A49684603F00AFD2C
:10543C00002209496846FFF7DDFB684603F0BBFC18
:10544C0005B05DF804FB00BF99A40D00E1C7032073
:10545C0040C70320A7A40D00ECD903201FB5164CA0
:10546C0003F03CFF214603F000FC144B01221A70A0
:10547C0002F07CFA124B00F51C50103018602146DB
:10548C00684603F0DFFC4FF0FF316846FFF74AFE39
:10549C00684603F090FC0B49684603F0D3FC0022ED
:1054AC0009496846FFF7A6FB684603F084FCFFF742
:1054BC0045F904B010BD00BF76A40D0065CA0320E9
:1054CC0030C70320B2A40D00ECD903201FB503F0A4
:1054DC0005FF154903F0C9FB144B01221A7002F0A9
:1054EC0045FA134B134900F51C50103018606846F0
:1054FC0003F0A8FC4FF0FF316846FFF713FE684637
:10550C0003F059FC0C49684603F09CFC00220B4943
:10551C006846FFF76FFB684603F04DFCFFF70EF98A
:10552C0005B05DF804FB00BFBEA40D00D2CA032079
:10553C00DCC70320CDA40D00DBA40D00ECD90320A7
:10554C0070B50E460446154603F094FF012E05D1A6
:10555C0029462046BDE8704003F0E0BF70BD70B531
:10556C000E460446154603F085FF012E05D129464B
:10557C002046BDE8704003F08EBF70BD826810B548
:10558C000AB904F0C6F8C368BDE81040184708B55E
:10559C00436913B10C30FFF7F1FF08BD38B58268D1
:1055AC000123044603741D4612B1C068904703E002
:1055BC00006808B1FFF7E2FF65740020BDE83840D1
:1055CC0002F0ACB907B5009313460A46012103F06B
:1055DC0085FB03B05DF804FB38B50A4B1B78044619
:1055EC000D4633B103F07AFE2B4622460649FFF7EF
:1055FC00E9FF064B2A4621461878BDE8384003F0EF
:10560C004FBD00BFD3CA0320E7A40D0028C603205A
:10561C0008B5FA214FF48370FFF7DEFF322002F059
:10562C0093FCFA214FF49370FFF7D6FF322002F06F
:10563C008BFCFA214FF4A570FFF7CEFF322002F05D
:10564C0083FCFA2140F25D10FFF7C6FF322002F016
:10565C007BFCFA214FF4C470FFF7BEFF322002F03E
:10566C0073FCFA214FF4DC70FFF7B6FF322002F026
:10567C006BFCFA214FF4F770FFF7AEFF322002F00B
:10568C0063FCFA2140F20B20BDE80840FFF7A4BFF1
:10569C002DE9F0410D4655490346024686B01830B7
:1056AC0052F8044B41F8044B8242F9D118685968FE
:1056BC004F4C504E03C42B4605F11807083C186894
:1056CC005968324603C20833BB421646F7D1192338
:1056DC000193494B49494FF0000802A883F82180F7
:1056EC0003F0B0FB02AA01A92846FEF7F8FEE06021
:1056FC0002A803F060FB414902A803F0A3FB02AA35
:10570C0001A92846FEF7EBFE206102A803F053FB2B
:10571C003A4902A803F096FB02AA01A92846FEF713
:10572C00DEFE606102A803F046FB344902A803F0D8
:10573C0089FB02AA01A92846FEF7D1FEA06102A8A6
:10574C0003F039FB2D4902A803F07CFB02AA01A946
:10575C002846FEF7C4FEE06102A803F02CFB2749A3
:10576C0002A803F06FFB02AA01A92846FEF7B7FEB8
:10577C00208402A803F01FFB204902A803F062FB5F
:10578C0002AA01A92846FEF7AAFE84F8220002A864
:10579C0003F011FB194902A803F054FB02AA01A95A
:1057AC002846FEF79CFE074602A803F004FB268C55
:1057BC000199134832462944344404F0B1F9B11E1E
:1057CC000F4884F82380FEF7B1FE80EAE074A4EB66
:1057DC00E07403F083FD23463A460A49FFF7F2FED4
:1057EC003B1B5842584106B0BDE8F08122D603203D
:1057FC00D4CA0320ECD90320E4D9032019A50D0049
:10580C00F7CA03201BA50D0073B5044603F020FF57
:10581C00214602F0C2FF03F01BFF0021FEF79CFDA6
:10582C00064603F015FF002102F0BEFF054630B11D
:10583C0003F054FD2B4632461549FFF7C3FE03F027
:10584C0007FF2146042202F0A0FF03F001FF0368CA
:10585C005B699847044603F0FBFE03685B69984755
:10586C000C4B1B78054643B103F038FDE3B20093B3
:10587C00094AEBB2012103F031FA6A0704D4E0B211
:10588C00C31E5842584100E0002002B070BD00BF5A
:10589C0033A50D00D3CA032054A50D007FB5124BC0
:1058AC001C680D46041B06461049684603F0CAFAEC
:1058BC0084EAE473A3EBE4736B43684646F2A811E5
:1058CC0093FBF1F1FFF72EFC684603F074FA03F03A
:1058DC0005FD234632460649FFF774FE294620464D
:1058EC00FEF7EAFE04B070BD00D603206AA50D00D9
:1058FC0085A50D00962144F27C70FFF7CFBF962151
:10590C0042F63020FFF7CABF13460A46012103F0C6
:10591C00E5B90000F8B502F029F8184B1A68824274
:10592C001F4625D8164B1A781D462AB103F0D6FC13
:10593C00144A012103F0D2F9134A0023E42101FB9C
:10594C00032696F820404CB12C789CB103F0C6FC91
:10595C0096F820200D49FFF7D7FF0CE00133042BFC
:10596C00EDD102F003F800F56A406030386002E0D7
:10597C00002400E001242046F8BD00BF9CC7032092
:10598C00D3CA0320B0A50D003CD60320CBA50D0037
:10599C002DE9F347444C23780646884615462BB12F
:1059AC0003F09CFC32464149FFF7AEFF03F050FE7A
:1059BC00294602F0F6FE03F04BFE0021FEF7CCFC6C
:1059CC00824603F045FE0221FEF7C6FC074603F0B3
:1059DC003FFE012102F0E8FE814650B1574403F02E
:1059EC007DFCCDF8049000973346314A012103F039
:1059FC0075F903F02DFE294602F0D3FE03F028FEC4
:105A0C000621FEF7A9FC824603F022FE03685FFA2A
:105A1C0088F19B689847074603F01AFE012102F0B3
:105A2C00C3FE814650B1574403F058FCCDF80490A6
:105A3C00009733461E4A012103F050F903F008FE8B
:105A4C00294602F0AEFE03F003FE0621FEF784FCAD
:105A5C00074603F0FDFD002102F0A6FE064630B11C
:105A6C0003F03CFC33463A461249FFF7ABFD03F01A
:105A7C00EFFD2946012202F08BFE054603F0E8FDFE
:105A8C0003685B699847237806464BB103F026FC04
:105A9C000196CDF800802B46074A012103F01EF930
:105AAC0002B0BDE8F08700BFD3CA0320DAA50D0011
:105ABC00F8A50D0033A50D001FA60D002DE9F3412F
:105ACC00534D544E544F01232B7003F007FC534994
:105ADC0003F0CBF803F060FB4FF4165103F052FBCC
:105AEC0003F0FCFB4E4903F0C0F80021308803F0B2
:105AFC00D2FC01F03BFF00F59C5403F0EFFB49494D
:105B0C0003F0B3F80834388803F0DEFC804603F069
:105B1C00E5FB2E2103F09AF8FEF712FCC82002F0E8
:105B2C0013FAB8F1010F03D001F020FFA042EAD321
:105B3C0003F0D4FB074603F02FFB03681B6998475F
:105B4C00002814BF59224E2237493846FFF7DCFE95
:105B5C000121308803F09FFC03F0C0FB334903F0B4
:105B6C0084F803F019FB03681B69984730B901F0FE
:105B7C00FDFE844202D9FEF7E3FBF2E7642002F05B
:105B8C00E3F903F0ABFB2A492A4E03F06EF800242C
:105B9C0003F0A4FB2E2103F059F803F0FDFA03687F
:105BAC005B699847431C1CBF3055013403F0F4FA71
:105BBC0003681B69984708B1172CE9DD03F08EFBCD
:105BCC0003F047F8172C1B4A09DC1B4B114603F159
:105BDC00180053F8046B41F8046B8342F9D100268A
:105BEC00167603F07BFB134B144A0094012103F04F
:105BFC0075F803F0D1FA03F0C8FA03F06FFB104903
:105C0C0003F033F820462E7002B0BDE8F08100BFDF
:105C1C00A9CA032034C6032038C6032042A60D00AF
:105C2C0055A60D006CA60D007DA60D00A6A60D00B8
:105C3C0004A70D0008D60320BCA60D00D5A60D00A8
:105C4C00EDA60D0070B590B00025014606460CA8D7
:105C5C000795089509950A950B9503F032F92B4693
:105C6C0006AA29460CA8FFF7C7FA04460CA803F0AD
:105C7C00A2F8069B023B202B00F2AE82DFE813F069
:105C8C00210025005400AC02AC027E0099009E005D
:105C9C00C000E10003012401460169016E01880185
:105CAC008D019E01A101A401A701AB01AC02AC02C4
:105CBC00AC02AE01C601F90100020402AC022902D9
:105CCC0059020120FEF75EFD83E231460CA803F079
:105CDC00F8F8002307AA21460CA8FFF78DFA044612
:105CEC000CA803F068F831460CA803F0EAF84FF45E
:105CFC007A7308AA21460CA8FFF77EFA0CA803F0C9
:105D0C005AF808990798B74CFEF72EFD03F0E6FAFF
:105D1C00B54BB64A1B680193236800930121079B7E
:105D2C0002F0DCFF246858E2FEF710FDFFF7E2FDFD
:105D3C00FEF704FD31460CA803F0C3F8B72307AAFD
:105D4C0021460CA8FFF758FA04460CA803F033F8C8
:105D5C0031460CA803F0B5F8802308AA21460CA8FC
:105D6C00FFF74AFA0CA803F026F8A14B079C1C601D
:105D7C00A04B089A1A6001229F4BA8E131460CA84F
:105D8C0003F09FF807AA21464FF4B9730CA8FFF74C
:105D9C0033FA0CA803F00FF803F0A0FA974B196A2A
:105DAC000A2391FBF3F203FB12139549FFF70AFC4C
:105DBC0024E0FEF725FC934B5C780EE231460CA8F0
:105DCC0003F07FF84FF4FA7307AA21460CA8FFF7EB
:105DDC0013FA04460CA802F0EEFF31460CA803F0AF
:105DEC0070F82146802308AA0CA8FFF705FA0CA826
:105DFC0002F0E1FF08990798FEF7E5FD079CECE13E
:105E0C0031460CA803F05DF807AA4FF4FA7321464B
:105E1C000CA8FFF7F1F904460CA802F0CCFF3146B0
:105E2C000CA803F04EF82146802308AA0CA8FFF713
:105E3C00E3F90CA802F0BFFF08990798FEF7CFFD15
:105E4C001FE031460CA803F03CF84FF4FA7307AA94
:105E5C0021460CA8FFF7D0F904460CA802F0ABFFC2
:105E6C0031460CA803F02DF82146802308AA0CA873
:105E7C00FFF7C2F90CA802F09EFF08990798FEF7ED
:105E8C00BAFD089CA9E131460CA803F01AF807AA40
:105E9C004FF4FA7321460CA8FFF7AEF904460CA890
:105EAC0002F089FF31460CA803F00BF82146802341
:105EBC0008AA0CA8FFF7A0F90CA802F07CFF08991F
:105ECC000798FEF7A4FDDCE731460CA802F0F9FFB9
:105EDC0007AA4FF4167321460CA8FFF78DF9044658
:105EEC000CA802F068FF31460CA802F0EAFF21462C
:105EFC004FF47A7308AA0CA8FFF77EF90CA802F0ED
:105F0C005AFF08990798FFF767FB77E731460CA80B
:105F1C0002F0D7FF07AA002321460CA8FFF76CF963
:105F2C0004460CA802F047FF31460CA802F0C9FF4A
:105F3C0021464FF47A7308AA0CA8FFF75DF90CA858
:105F4C0002F039FFFEF702FC08990798FFF7A6FC50
:105F5C003DE1FEF7FBFBFFF7D2FC38E131460CA824
:105F6C0002F0AFFF4FF4B97307AA21460CA8FFF754
:105F7C0043F90CA802F01FFF079C40F25623621E47
:105F8C009A4200F22A811D4B00225C62DA6124E104
:105F9C00FEF7DCFBFFF7AEFC19E131460CA802F072
:105FAC0090FF802307AA21460CA8FFF725F90CA81F
:105FBC0002F001FF0798FEF773FC1FE7FEF780FC69
:105FCC005CE0FEF75FFD59E0FEF772FD56E00E4B0C
:105FDC0001241C7001E10C4B1D70FDE0FFF746F92C
:105FEC004CE000BF00D6032068CA032021A70D0097
:105FFC00BCD50320C8D20320A8CA0320D0C60320D6
:10600C0050A70D003CD60320D3CA0320FEF79EFBFD
:10601C00FFF770FCFEF792FB31460CA802F051FF23
:10602C0007AAB72321460CA8FFF7E6F804460CA8EC
:10603C0002F0C1FE31460CA802F043FF08AA21462B
:10604C0080230CA8FFF7D8F80CA802F0B4FE6D4B17
:10605C0007996D4800221A706C4B19606C4B0899AB
:10606C0019606C4B01246FF000411C70FEF7E6F9CF
:10607C00B3E06FF000416448FEF7A4F90124ACE0F2
:10608C00FFF71CFD0446A8E031460CA802F019FFEE
:10609C00B72307AA21460CA8FFF7AEF804460CA8B4
:1060AC0002F089FE31460CA802F00BFF802308AAEF
:1060BC0021460CA8FFF7A0F80CA802F07CFE564B6A
:1060CC00079C1C60554B089A1A60554B01221A709C
:1060DC0083E031460CA802F0F4FE07AA19232146EE
:1060EC000CA8FFF789F804460CA802F064FE3146B0
:1060FC000CA802F0E6FE08AA962321460CA8FFF78E
:10610C007BF804460CA802F056FE31460CA802F0AF
:10611C00D8FE09AA21460A230CA8FFF76DF80CA893
:10612C0002F049FEFEF712FB07A807C8FEF758FB62
:10613C004DE031460CA802F0C4FE002307AA21460C
:10614C000CA8FFF759F804460CA802F034FE3146AF
:10615C000CA802F0B6FE4FF47A7308AA21460CA8DC
:10616C00FFF74AF804460CA802F025FE31460CA8AD
:10617C0002F0A7FE192309AA21460CA8FFF73CF848
:10618C0004460CA802F017FE31460CA802F099FE4A
:10619C0096230AAA21460CA8FFF72EF804460CA851
:1061AC0002F009FE31460CA802F08BFE02230BAA6A
:1061BC0021460CA8FFF720F80CA802F0FCFDFEF716
:1061CC00C5FA0B9B009307A80FC8FEF71FFBFEF741
:1061DC00B5FA144B1C6800E0002403F07FF80B9B0D
:1061EC0005930A9B0493099B0393089B0293079BBB
:1061FC0001930094069B0C4A012102F06FFD20468E
:10620C0010B070BDD3CA032014C70320BCD5032023
:10621C00C8D20320A8CA0320ECC7032060CA0320FD
:10622C0094C7032000D6032065A70D0010B5154BAD
:10623C00188803F049F9144B021E0CBF01210021F0
:10624C0019701C4608D10121104801F03FFD4FF494
:10625C00AF714FF4167007E0002211460B4801F0A5
:10626C0035FDC8214FF49670FFF7B6F903F036F8F8
:10627C0023780749002B14BF59224E22FFF744FB09
:10628C0010BD00BF20C603202AD30320B4C60320B0
:10629C00AFA70D0010B51B4B1A7892B11A4C22788F
:1062AC0052B1002222701A7003F018F8174902F04C
:1062BC00DCFCFFF7BBFF04E0322001F045FE0123BC
:1062CC002370134B1C7874B101F050FB114B1B68FD
:1062DC00984215D903F002F80F4902F0C6FCBDE84C
:1062EC001040FEF715BD0D4B1A784AB11C700C4BC3
:1062FC001B782BB1FFF7E2FB18281CBF094B1C7055
:10630C0010BD00BFFCD5032095C70320C4A70D000A
:10631C0058C70320E4C70320DCA70D0064CA032080
:10632C002AD30320CCD2032013460A46002102F0C4
:10633C00D5BC00002DE9F3470546174698460E4696
:10634C0003F086F9294602F028FA03F081F90021BE
:10635C00FEF702F8824603F07BF98321FDF7FCFF80
:10636C00044603F075F9012102F01EFA814660B172
:10637C00544402F0B3FFCDF8049000942B46754AB8
:10638C00012102F0ABFC0020E0E001F0EFFA00F597
:10639C009C5909F108092846FFF736FA70B901F043
:1063AC00E5FA484503D2642001F0CEFDF3E702F094
:1063BC0095FF2A466849FFF7A7FAE4E7674C23786C
:1063CC002BB102F08BFF2A466549FFF79DFA03F0CB
:1063DC003FF9294602F0E1F903F03AF90021FDF703
:1063EC00BBFF824603F034F9002102F0DDF981464F
:1063FC0030B102F073FF4B4652465A49FFF7E2F8B0
:10640C0003F026F929460A2202F0BFF903F020F91D
:10641C0003685B699847054603F01AF903685B69E2
:10642C009847237881464BB1EDB202F057FF0095A7
:10643C005FFA89F34C4A012102F050FC03F008F991
:10644C0003685B6998472378C5B22BB102F046FF0D
:10645C002A464649FFF768FF03F0FAF803685B69C0
:10646C0098472378814633B102F038FF5FFA89F2FE
:10647C003E49FFF759FF4FEA092909F47F491423D4
:10648C004D4495FBF3F50A9B433D1D8003F0E0F86A
:10649C0003685B6998472378C5B22BB102F01EFFE5
:1064AC002A463249FFF740FF03F0D2F803685B69D4
:1064BC00984723785FFA80F92BB102F00FFF4A4618
:1064CC002A49FFF731FF05EB0925358003F0C0F8A9
:1064DC0003685B6998472378C5B22BB102F0FEFEC6
:1064EC002A462249FFF720FF03F0B2F803685B69E4
:1064FC0098472378C6B22BB102F0F0FE32461B4906
:10650C00FFF712FF05EB06253D8003F0A1F80368A9
:10651C005B6998472378C5B22BB102F0DFFE2A469F
:10652C001249FFF701FF03F093F803685B69984782
:10653C002378C6B22BB102F0D1FE32460B49FFF7DD
:10654C00E3F905EB0625A8F80050012002B0BDE8E0
:10655C00F08700BF21A80D0081A80D00D3CA03202D
:10656C0051A80D0033A50D0054A50D007DA80D00FC
:10657C002DE9F04F8FB0412807460B910AD03128F6
:10658C000CD032280ED002F0A9FE3A465049FFF743
:10659C00BBF99AE04F4C4FF0740A06E04E4C4FF0AA
:1065AC00750A02E04D4C4FF0760A73B14C4D95F8DC
:1065BC0021000C24B0FBF4F304FB1304E4B205EB50
:1065CC0004140130243485F8210011463846FEF7B6
:1065DC00C5F9642001F0B8FC52460B993846FFF718
:1065EC00D7F9277001F0C2F94FF000090A23606057
:1065FC006370C8464E464D46CB4663789B4520DAC1
:10660C000CAB00930DAA0DF136030DF1320150467F
:10661C00FFF790FE60B1BDF832301D44BDF8343048
:10662C001E44BDF836309844BDF83030994405E02E
:10663C0002F054FE3A462B49FFF766F90BF1010BB9
:10664C00DBE796FBF3F66681B6B295FBF3F5764382
:10665C002581ADB298FBF3F005FB0565A08180B2F6
:10666C0099FBF3F900FB0050A4F80E90FDF772FFB4
:10667C00064602F033FEB6B2054601F077F90896ED
:10668C00A389079363890693238905931FFA89F9D4
:10669C0009EBC909052399FBF3F320339BB204934F
:1066AC00E3890393637802930F4BB0FBF3F202FB85
:1066BC0013000B9B019000930C4A3B46012128468A
:1066CC0002F00CFB3846FEF771F90FB0BDE8F08F05
:1066DC009CA80D0048C703202CD303203CD30320D7
:1066EC00E4D90320B8A80D0040420F00DFA80D002C
:1066FC002DE9F04104460D46164601F037F90746E0
:10670C000120FEF79BF990B133462A4621464120E1
:10671C00FFF72EFF33462A4621463120FFF728FF8C
:10672C0033462A4621463220FFF722FF04E002F0CE
:10673C00D5FD0B4902F099FAFEF79CF9094B1B7831
:10674C0063B102F0CBFD044601F010F9064AC31BFD
:10675C0001212046BDE8F04102F0C0BABDE8F0814D
:10676C0021A90D00D3CA032054A90D002DE9F04F27
:10677C0087B08046894601F0F9F883460120FEF780
:10678C005DF9C8B902F0AAFD334902F06EFAFEF7C2
:10679C0071F9324B1B78002B5BD002F09FFD044645
:1067AC0001F0E4F82E4ACBEB00030121204607B0A0
:1067BC00BDE8F04F02F092BA0024DFF8ACA001263D
:1067CC0027464FF000038AF821304A460123414600
:1067DC004120FFF7CDFE01234A4641463120FFF709
:1067EC00C7FE4A46414601233220FFF7C1FEBAF8E4
:1067FC002C20BAF83C10D51B002DB8BF6D42632D70
:10680C0005DC0B1B002BB8BF5B42632B10DD002497
:10681C0041F2883005910492013601F095FB002C71
:10682C00B5D1332E049A0599B1D00C461746C8E75A
:10683C00049302F053FD049B009359220192012111
:10684C00084A02962B4602F049FA21463A460124A0
:10685C00DEE707B0BDE8F08F21A90D00D3CA0320F5
:10686C0054A90D0065A90D00E4D903202DE9F041D0
:10687C0005468CB00C46FEF7A5FC0A2D00F078817D
:10688C006FDC052D00F0D28037DC012D00F09B80F1
:10689C0015DC002D40F0428202F0F0FBA94BAA4916
:1068AC00186008A802F0CEFA41F2707108A8FEF741
:1068BC0039FC08A802F07FFA4FF47A7014E2022D2A
:1068CC0000F09380042D40F0298202A92046FEF7A7
:1068DC00EFFB03A9FEF7ECFB9C49044608A802F069
:1068EC00B1FA029908A8FEF71DFC08A802F063FA99
:1068FC0003990298FEF770FE10E2072D00F0C88095
:10690C00C0F2B680082D00F0EB80092D40F0068215
:10691C008F4908A802F096FA8E4B1968A1F58E41A2
:10692C007C390029B8BF49429623594308A88A4BA1
:10693C0091FBF3F1FEF7F6FB08A802F03CFAFEF728
:10694C00D9FF864908A802F07DFA41F2707108A8B7
:10695C00FEF7E8FB08A802F02EFA01228021B720EE
:10696C0036E10F2D00F060810CDC0D2D00F03F8125
:10697C0000F33F81204602A9FEF79AFB002405464E
:10698C00774E30E1122D00F052810FDC102D40F0CB
:10699C00C58102A92046FEF78BFB03A9FEF788FBF5
:1069AC00039904460298FEF779FFB7E1132D00F026
:1069BC009E81632D40F0B28102F060FB614B586008
:1069CC00FEF762FBAAE102A92046FEF771FB6549BE
:1069DC00044608A802F036FA029908A8FEF7A2FBB2
:1069EC0008A802F0E8F902987EE102A92046FEF719
:1069FC005FFB03A9FEF75CFB5B49044608A802F0A9
:106A0C0021FA029B83EAE371A1EBE371039B08A8D3
:106A1C004B43514993FBF1F1FEF784FB08A802F0BC
:106A2C00CAF9029B0399C82058431EE002A92046CC
:106A3C00FEF73EFB03A9FEF73BFB4B49044608A8B7
:106A4C0002F000FA029B83EAE371A1EBE371039B72
:106A5C0008A84B4346F2A81193FBF1F1FEF762FB39
:106A6C0008A802F0A8F903990298FDF725FE55E154
:106A7C0002A92046FEF71CFB03A9FEF719FB04A98B
:106A8C00FEF716FB044602A807C8FDF7A9FE45E170
:106A9C002F4908A802F0D6F92E4B1968A1F58E41A2
:106AAC007C390029B8BF49429623594308A82A4B80
:106ABC0091FBF3F1FEF736FB08A802F07CF9FEF728
:106ACC0019FF2A4908A802F0BDF941F2707108A813
:106ADC00FEF728FB08A802F06EF98021B7202EE003
:106AEC0002A92046FEF7E4FA03A9FEF7E1FA1849D9
:106AFC00044608A802F0A6F9164B1968A1F58E41B8
:106B0C007C390029B8BF49429623594308A8124B37
:106B1C0091FBF3F1FEF706FB08A802F04CF9FEF727
:106B2C00E9FE124908A802F08DF941F2707108A82B
:106B3C00FEF7F8FA08A802F03EF903990298FFF75D
:106B4C0015FEEBE0E4D903208CA90D00B1A90D00D2
:106B5C00B9A90D0000D60320400D030000AA0D00BA
:106B6C00E0C703209AA90D00A2A90D00DFA90D0012
:106B7C0002A92046FEF79CFA03A9FEF799FA694987
:106B8C00044608A802F05EF9674B1968A1F58E411E
:106B9C007C390029B8BF49429623594308A8634B56
:106BAC0091FBF3F1FEF7BEFA08A802F004F9FEF728
:106BBC00A1FE5F4908A802F045F941F2707108A8DE
:106BCC00FEF7B0FA08A802F0F6F803990298012231
:106BDC00FFF78EFDA2E03378002B40F0A080284612
:106BEC0000F0C0F80134029BA342F4DC97E0604251
:106BFC0095E002A92046FEF75BFA4E49044608A828
:106C0C0002F020F9002108A8FEF78CFA08A802F07F
:106C1C00D2F8029A40F25623511E99427ED8464B26
:106C2C005A620022DA6179E0FEF769FE76E002A989
:106C3C002046FEF73DFA03A9FEF73AFA04A9FEF73F
:106C4C0037FA3E4B1B78044633B102F047FB049BEA
:106C5C003B4A012102F042F83A4F0026049BB34212
:106C6C0036DD3D78002D33D105A92046FEF720FAFC
:106C7C0006A9FEF71DFA07A9FEF71AFA069AC82309
:106C8C005343044606934FF47A78059BAB421DDDC3
:106C9C002D4908A802F0D6F8069B83EAE371A1EB14
:106CAC00E371029B4B43079993FBF8F308A8194433
:106CBC00FEF738FA08A802F07EF802990698FDF75C
:106CCC00FBFC0798FEF78CFA0135DEE70136C5E7C9
:106CDC001E4908A802F0B6F8039908A8FEF722FA94
:106CEC0008A802F068F80398FEF77AFA16E002A9F1
:106CFC002046FEF7DDF903A9FEF7DAF904A9FEF741
:106D0C00D7F905A9FEF7D4F906A9FEF7D1F9069B28
:106D1C000093044602A80FC8FDF778FD20460CB07E
:106D2C00BDE8F081B9A90D0000D60320400D030089
:106D3C0000AA0D0018AA0D00D0C60320D3CA032048
:106D4C003AAA0D00E0C70320A2A90D0056AA0D0017
:106D5C00034A12780AB9FFF789BD0846704700BF8D
:106D6C00E0C7032013B501A90446FEF7A1F90146BB
:106D7C0064B9019B53B1114B01221A7002F0AEFAA7
:106D8C000F4901F072FF4FF0FF3015E001980B4CEA
:106D9C00FFF7DEFF019B632B0BD0002809DD237866
:106DAC003BB901A9FEF784F901460198FFF7D0FF22
:106DBC00F0E70028B8BF404202B010BDE0C7032086
:106DCC0075AA0D001FB5284B01221A7002F086FA25
:106DDC00264901F04AFF264B2449002468461C60D2
:106DEC0002F030F821466846FEF79CF9684601F03F
:106DFC00E2FF00F0E9FF4FF4FA6001F0A5F800F0B3
:106E0C00EBFF044638B102F069FA1A4901F02DFF84
:106E1C00FDF796FAEFE7FDF7B5FC4FF4FA614FF486
:106E2C001670FEF7D9FB4FF4FA6001F08DF820468E
:106E3C00FFF798FF00F0C0FF4FF4FA6001F084F800
:106E4C0000F0CAFF38B902F049FA0B4901F00DFF06
:106E5C00FDF776FAF0E7094B094A1B7883F001033A
:106E6C00137004B010BD00BF3CC703208DAA0D00E9
:106E7C00C8C7032094AB0D009AAA0D00E0C70320ED
:106E8C0059C7032013460A46012101F027BF000011
:106E9C0038B5072204460D490D4802F02CFE054674
:106EAC0060B902F01BFA22460A49FFF7EBFF0A4BC6
:106EBC001D702046BDE83840FDF78EBF02F00EFA7B
:106ECC000649BDE8384001F0D0BE00BF2AA30D0032
:106EDC00A0C703209CAA0D00E8C70320D4AA0D006C
:106EEC001E4B002273B51A70064607220C461C482E
:106EFC001C491D4D02F0FFFDB0FA80F040092870CE
:106F0C0002F0ECF92B781949002B14BF59224E22B0
:106F1C00FEF7FAFC2B78B3B121463046FEF7B8FBEE
:106F2C0048B1134B01221A7002F0D8F922461149CC
:106F3C00FFF7A8FF0FE002F0D1F90F4902B0BDE84E
:106F4C00704001F092BE02F0C9F9009433460B4A2E
:106F5C00012101F0C3FE02B070BD00BF58C7032071
:106F6C00A0C703202AA30D00CCD20320E8AA0D0051
:106F7C0021D6032000AB0D0026AB0D0042AB0D005B
:106F8C0030B500238BB004228A498B488B4D00F01E
:106F9C00FBFE8B4A8B498C4801F0C2F88B4A8C491A
:106FAC00894801F0BDF806A800F01EFF06A9894823
:106FBC0001F092FF06A801F0FEFE874902A801F03D
:106FCC0041FF844902A801F0B7FF0024014606A83E
:106FDC0001F077FF234622468049019400940698DD
:106FEC0000F012FF06A801F0E6FE02A801F0E3FE95
:106FFC007B4902A801F026FF764902A801F09CFF0C
:10700C00014606A801F05DFF23462246754901940E
:10701C000094069800F0F8FE06A801F0CCFE02A839
:10702C0001F0C9FE1922234629466A4801F090FF57
:10703C006D4B2C766D4D1888022102F01BFA022143
:10704C00288802F017FA6A4B012211461888FEF7BD
:10705C0086FA684B2146188802F00CFA664BFF2220
:10706C0018880121FEF76CFA644BFF221888012165
:10707C00FEF766FA624BFF2218880121FEF760FAD0
:10708C00604B2146188802F0F5F95F4B22461888B0
:10709C000121FEF764FA5D4B224618880121FEF7A8
:1070AC005EFA5B4B224618880121FEF758FA594BC1
:1070BC00012211461888FEF752FA574B012211464D
:1070CC001888FEF74CFA554B802218880121FEF7E0
:1070DC0037FA534B224618880121FEF731FA514BEF
:1070EC0022461888504C0121FEF72AFA02F0F6F8D5
:1070FC004FF4E13102F0E6F8FDF74AFA228840F647
:10710C0006439A4201D0FDF77BFAFEF7AFF802F086
:10711C00E5F8464901F0A9FD0120FDF733FB02F02B
:10712C00DDF8434901F0A1FD80214FF4FA70FDF721
:10713C004AFC4FF4FA7000F007FF80214FF4FA700C
:10714C00FDF74DFC4FF4FA7000F0FEFE80214FF479
:10715C00FA70FDF750FC02F0C1F8364901F085FDDC
:10716C00FEF756FAFEF7B0F8FFF760F800224FF082
:10717C00FF3328883049009201F022FB02F0AEF870
:10718C000E4A2E49FFF77EFE02F0A8F8A27823786B
:10719C000192627800920121294A01F09FFDFDF7CE
:1071AC0071FC00F0E3FB274B00F59C500830186095
:1071BC000BB030BD4DD3032063AB0D00D4D20320F4
:1071CC006CAB0D00515C0D0001810D0074AB0D001A
:1071DC0055720D00CCC703207DAB0D0009410D008D
:1071EC0096AB0D00CD410D002CC6032020C603200C
:1071FC0034C6032038C6032004C6032014C603205B
:10720C001CC6032000C603203CC6032030C6032046
:10721C0010C6032024C6032008C6032018C603206A
:10722C0028C603200CC603203CD60320ACAB0D00B3
:10723C00BCAB0D00CCAB0D00CD400D00E1AB0D0097
:10724C00EFAB0D00C8DA032010B58368182B11D1F1
:10725C000A4C19222146002301F07AFE00232376E2
:10726C0002F03CF822460649FFF70CFEFDF750FDF4
:10727C00012010BD4FF0FF3010BD00BF08D6032019
:10728C0048AC0D007FB5324B324D00221A702B7872
:10729C00222B04D002F022F82A462F491AE0FDF7DF
:1072AC0015FEFDF7BDFD2D4C064602F017F82C4BD4
:1072BC00009301212B4B029601942B4A01F00EFDF9
:1072CC002A4B2848196802F0D0FB50B102F006F89E
:1072DC0027492A46FFF7D6FD04B0BDE87040FDF7FC
:1072EC0023BE24491F4802F0C0FB30B9314620466A
:1072FC0004B0BDE87040FFF7F3BD1F49194802F018
:10730C00B4FB20B904B0BDE87040FDF73DBD1B498E
:10731C00144802F0AAFB20B904B0BDE87040FEF797
:10732C001DB817490F4802F0A0FB20B904B0BDE806
:10733C007040FEF73DB813490A4802F096FB28B995
:10734C00204604B0BDE87040FFF7A2BD04B070BD8C
:10735C0029D30320CCDA032066AC0D00D4D503204E
:10736C00A0C703205AC703208EAC0D00C0D5032044
:10737C00BAAC0D00E8A20D00A7A40D00DBA40D0013
:10738C00B2A40D00DBAC0D0030B5144B85B001225E
:10739C000C461A70054600F0E9FA114B00F59C40BA
:1073AC002030186001F09AFF22460E49FFF76AFD63
:1073BC002846FDF737FE01F091FF0B4901F055FC13
:1073CC000A49684601F03EFD002221466846FDF759
:1073DC0011FC684601F0EFFC05B030BDE8C7032096
:1073EC0004D60320E7AC0D004DD30320DBAC0D001D
:1073FC0010B501F073FF0B4901F037FC0A4B00206C
:10740C00E42202FB00F15C1894F8204034B1064BE6
:10741C0020311944BDE81040FFF7B6BF01300428F5
:10742C00EFD110BD05AD0D003CD6032038B5404B57
:10743C001B781BB33F4C25783DB101F04FFF3E4903
:10744C0001F013FC0023237027E03C4C237833B16C
:10745C0001F044FF3A4901F008FC257031E0394B4A
:10746C001B78F3B100F082FA374B1B68834218D2B9
:10747C0001F034FF354901F0F8FB0EE0344B1B787A
:10748C0083B300F073FA334B1B6898422AD901F08E
:10749C0025FF314901F0E9FB20E0BDE83840FDF75C
:1074AC00DDBF2E4B1B78002B41D000F05FFA2C4B2C
:1074BC001B68984200D838BD01F010FF294901F033
:1074CC00D4FBBDE83840FEF701B8274C2378C3B194
:1074DC0001F004FF254901F0C8FB2570BDE83840D8
:1074EC00FDF790BF224C2578002DEED001F0F6FE72
:1074FC00204901F0BAFB00232370BDE83840FFF7A8
:10750C0061BC1D4B1B785BB100F030FA1B4B1B6848
:10751C0098420CD901F0E2FE194901F0A6FB02E0F9
:10752C00FEF7F8F918B1BDE83840FFF761BF38BD78
:10753C003CC70320E0C7032015AD0D0059C703203D
:10754C0025AD0D0065CA032030C7032068AD0D00C2
:10755C00E1C7032040C70320E5AD0D00D2CA0320CC
:10756C00DCC70320A7AD0D0021D603208CA90D008C
:10757C004CD3032034AD0D00E8C7032004D6032000
:10758C004CAD0D007FB5304E304C01F0A7FE0368BA
:10759C001B69984740B301F0A1FE03685B699847EB
:1075AC002368F05401F09AFE03681B69984723681E
:1075BC00054638B10133282193FBF1F201FB12335C
:1075CC002360E2E7F05401F089FE1F4901F04DFB06
:1075DC001D492560684601F035FC6846FEF732FB14
:1075EC00684601F0E8FBD0E7194B1C783CB101F080
:1075FC0075FE184901F039FBFFF744FE22E0FEF757
:10760C0049FEFFF713FF144B1A783AB11C70134B59
:10761C001968134B22461868FFF76AF8114B1A7851
:10762C003AB100221A700D4B19680F4B1868FFF70E
:10763C009DF80E4B1A682AB100221A60FDF772FAF7
:10764C00FDF74AF904B070BDAACA032090E40320E8
:10765C0029D3032021AE0D00A8CA0320C8D20320D1
:10766C00BCD5032094C70320ECC7032038C70320E4
:10767C002DE9F043614B624F624EDFF8CC8101255E
:10768C001D70614B87B002241C7000F09FF94FF401
:10769C0000735E4A4EF660213846FCF7F7FD324621
:1076AC005B49384602F016F800221E21204600F0F5
:1076BC004FFB584F01954FF014090346CDF800903D
:1076CC0022464FF47F01384601F01AF93246414602
:1076DC00384601F0FFFF00220A21204600F038FB5B
:1076EC004D4FCDF800900346224601954FF47F4153
:1076FC00384601F005F9494CDFF8509132464146C5
:10770C00384601F0E7FF464B029302AA0023454F8F
:10771C00DFF83C81CDF8149041F288312046049773
:10772C00FCF71EFE02A8FCF773FD324641462046CC
:10773C0001F0D0FF3C4A3D4B12681A603C4A04975A
:10774C0012685A604FF448721A614FF4B9720024EF
:10775C004FF47A715A62374F99636422DC601C7261
:10776C005C619C61DA621D635D63DD631D64324B99
:10777C00029302AA23463846CDF81490FCF7F0FD8C
:10778C0002A8FCF745FDDFF8CC9038462B4F32466B
:10779C00414601F09FFFDFF8C0804946384601F0B2
:1077AC0051FB3846264F3246414601F093FF49467D
:1077BC00384601F047FB32464146384601F08AFF15
:1077CC00204B0C225A702146FF22062628461E709A
:1077DC009A7000F09DFA01F011FE2346224641F208
:1077EC00FB0101F013FE01F009FE2346224631464F
:1077FC0001F014FE07B0BDE8F08300BF78C703208A
:10780C007CC70320ACC6032044C70320F5400D0001
:10781C0055420D0088CA0320B0C6032014C70320AC
:10782C00B5400D00DD400D000CC60320D0C6032072
:10783C0000C603206CCA0320C1400D00CCC7032036
:10784C00C0D503203CD603209D410D00D9400D002E
:10785C00F1430D001AA50D00C38D0D0008B5024BA8
:10786C001B685B68019308BD4802030008B5024B16
:10787C001B689B68019308BD4802030008B5024BC6
:10788C001B68DB68019308BD4802030008B5024B76
:10789C001B681B69019308BD4802030008B5024B25
:1078AC001B685B69019308BD4802030008B5024BD5
:1078BC001B68DB69019308BD4802030008B5024B45
:1078CC001B681B6A019308BD4802030008B5024BF4
:1078DC001B685B6A019308BD4802030008B5024BA4
:1078EC001B689B6A019308BD4802030008B5024B54
:1078FC001B68DB6A019308BD4802030008B5024B04
:10790C001B681B6B019308BD4802030008B5024BB2
:10791C001B685B6C019308BD4802030008B5024B61
:10792C001B68DB6E019308BD4802030008B5024BCF
:10793C001B681B6F019308BD4802030008B5024B7E
:10794C001B685B68019308BD1802030008B5024B65
:10795C001B689B68019308BD1802030008B5024B15
:10796C001B68DB68019308BD1802030008B5024BC5
:10797C001B685B69019308BD1802030008B5024B34
:10798C001B68DB69019308BD1802030008B5024BA4
:10799C001B689B6A019308BD1802030008B5024BD3
:1079AC001B68DB6A019308BD1802030008B5024B83
:1079BC001B681B6B019308BD1802030008B5024B32
:1079CC001B689B6D019308BD1802030008B5024BA0
:1079DC001B681B68019308BD2C02030008B5024B01
:1079EC001B685B68019308BD2C02030008B5024BB1
:1079FC001B689B68019308BD2C02030008B5024B61
:107A0C001B68DB68019308BD2C02030008B5024B10
:107A1C001B681B69019308BD2C02030008B5024BBF
:107A2C001B685B69019308BD2C02030008B5024B6F
:107A3C001B689B69019308BD2C02030008B5024B1F
:107A4C001B68DB69019308BD2C02030008B5024BCF
:107A5C001B689B6A019308BD2C02030008B5024BFE
:107A6C001B681B6B019308BD2C02030008B5024B6D
:107A7C001B689B6F019308BD2C02030008B5024BD9
:107A8C001B68DB6F019308BD2C02030008B5024B89
:107A9C001B681B68019308BD2802030008B5024B44
:107AAC001B68DB68019308BD2802030008B5024B74
:107ABC001B681B69019308BD2802030008B5024B23
:107ACC001B685B69019308BD2802030008B5024BD3
:107ADC001B689B69019308BD2802030008B5024B83
:107AEC001B68DB69019308BD2802030008B5024B33
:107AFC001B681B6A019308BD2802030008B5024BE2
:107B0C001B685B6A019308BD2802030008B5024B91
:107B1C001B689B6A019308BD2802030008B5024B41
:107B2C001B68DB6A019308BD2802030008B5024BF1
:107B3C001B681B6B019308BD2802030008B5024BA0
:107B4C001B685B6B019308BD2802030008B5024B50
:107B5C001B681B6C019308BD2802030008B5024B7F
:107B6C001B685B69019308BD6402030008B5024BF6
:107B7C001B689B68019308BD6802030008B5024BA3
:107B8C001B68DB68019308BD6802030008B5024B53
:107B9C001B681B68019308BD2402030008B5024B47
:107BAC001B68DB69019308BD3002030008B5024B6A
:107BBC001B681B6A019308BD3002030008B5024B19
:107BCC001B681B68019308BD3C02030008B5024BFF
:107BDC001B689B68019308BD3C02030008B5024B6F
:107BEC001B68DB68019308BD3C02030008B5024B1F
:107BFC001B681B69019308BD3C02030008B5024BCE
:107C0C001B685B69019308BD3C02030008B5024B7D
:107C1C001B689B69019308BD3C02030008B5024B2D
:107C2C001B68DB69019308BD3C02030008B5024BDD
:107C3C001B681B6A019308BD3C02030008B5024B8C
:107C4C001B689B6A019308BD3C02030008B5024BFC
:107C5C001B68DB6A019308BD3C02030008B5024BAC
:107C6C001B681B68019308BD4C02030008B5024B4E
:107C7C001B685B68019308BD4C02030008B5024BFE
:107C8C001B681B69019308BD4C02030008B5024B2D
:107C9C001B685B69019308BD4C02030008B5024BDD
:107CAC001B689B69019308BD4C02030008B5024B8D
:107CBC001B68DB69019308BD4C02030008B5024B3D
:107CCC001B681B6A019308BD4C02030008B5034BEB
:107CDC001B68D3F88030019308BD000060020300DC
:107CEC0008B5024B1B681B68019308BD20020300FA
:107CFC0008B5024B1B685B68019308BD20020300AA
:107D0C0008B5024B1B685B69019308BD2002030098
:107D1C0008B5024B1B68DB6A019308BD2002030007
:107D2C0008B5024B1B68DB6C019308BD20020300F5
:107D3C0008B5024B1B685B6D019308BD2002030064
:107D4C0008B5024B1B689B6D019308BD2002030014
:107D5C0008B5024B1B68DB6F019308BD20020300C2
:107D6C0008B5034B1B68D3F88830019308BD00009D
:107D7C002002030008B5034B1B68D3F89430019321
:107D8C0008BD00002002030008B5024B1B681B68ED
:107D9C00019308BD4402030008B5024B1B685B68E5
:107DAC00019308BD4402030008B5024B1B689B6895
:107DBC00019308BD4402030008B5024B1B68DB6845
:107DCC00019308BD4402030008B5024B1B681B69F4
:107DDC00019308BD4402030008B5024B1B685B69A4
:107DEC00019308BD4402030008B5024B1B68DB6914
:107DFC00019308BD4402030008B5024B1B681B6AC3
:107E0C00019308BD4402030008B5024B1B685B6A72
:107E1C00019308BD4402030008B5024B1B681B6BA1
:107E2C00019308BD4402030008B5024B1B68DB6BD1
:107E3C00019308BD4402030008B5024B1B685B6844
:107E4C00019308BD4002030008B5024B1B689B68F8
:107E5C00019308BD4002030008B5024B1B68DB68A8
:107E6C00019308BD4002030008B5024B1B681B6957
:107E7C00019308BD4002030008B5024B1B685B6907
:107E8C00019308BD4002030008B5024B1B689B69B7
:107E9C00019308BD4002030008B5024B1B68DB6967
:107EAC00019308BD4002030008B5024B1B681B6A16
:107EBC00019308BD4002030008B5024B1B681B6B05
:107ECC00019308BD4002030008B5024B1B685B6BB5
:107EDC00019308BD4002030008B5024B1B681B68E8
:107EEC00019308BD1C02030008B5024B1B685B68BC
:107EFC00019308BD1C02030008B5024B1B689B686C
:107F0C00019308BD1C02030008B5024B1B68DB681B
:107F1C00019308BD1C02030008B5024B1B685B6A89
:107F2C00019308BD1C02030008B5024B1B68DB6AF9
:107F3C00019308BD1C02030008B5024B1B681B6BA8
:107F4C00019308BD1C0203000021FFF7D9BE10B538
:107F5C00836804460BB901F0DCFBC3689847A3683F
:107F6C001BB1032221462046984720461021BDE82C
:107F7C00104001F0B4BB10B5036804469B689847E9
:107F8C00A368013BA3602BB923682046DB68BDE8DE
:107F9C001040184710BD0B68036013B15A680132CA
:107FAC005A60704710B50446006828B14368013B1D
:107FBC0043600BB9FFF7DFFF204610BD02480023DA
:107FCC000360FFF7A3BC00BF94E40320002211461A
:107FDC004068FFF749BF002211464068FFF764BFB5
:107FEC00002211464068FFF76FBF00224068FFF780
:107FFC0063BF002281F001014068FFF74DBF0023F1
:10800C001A4619464068FFF73FBF00231A46194627
:10801C004068FFF731BF002211464068FFF714BFDC
:10802C00002202214068FFF717BF00231A46406860
:10803C00FFF702BF38B5084C28252A4600212046F8
:10804C0001F0D3FC4FF0FF336360044B2580042216
:10805C005A60034A1A6038BDA0E4032098E4032058
:10806C00E8AE0D0070470020704710B51021044693
:10807C0001F035FB204610BD08B508B1FFF7F5FF40
:10808C0008BD0022026010B54FF69C728280B1F9D7
:10809C00044084808A8002680C6804600A6010BD09
:1080AC0010B504460068FFF71FFF204610BD38B519
:1080BC00C468F4B12378022B03D104F10C00FFF750
:1080CC00EFFF656835B12846FCF7A2F81021284669
:1080DC0001F005FBA56835B12846FCF799F810218D
:1080EC00284601F0FCFA20461421BDE8384001F086
:1080FC00F6BA38BD10B588B00446684600F0A2FE4A
:10810C00694604A800F0DDFE04A8A047044604A8B4
:10811C0000F051FE684600F04EFE204608B010BD3F
:10812C00F0B5102485B007460E46154600212246B0
:10813C00684601F05AFC002269461046ADF8004032
:10814C00029703960195FFF727FE05B0F0BD13B516
:10815C00044691E8050000234B600B6020606260D0
:10816C0001A801930093FFF71DFF204602B010BD3C
:10817C00F7B50C4602AD54F8043B45F8083D0646ED
:10818C000F4601A82146FFF706FF29463046FFF7A8
:10819C00DEFF01A8FFF706FF2046FFF703FF384676
:1081AC00082101F09CFA304603B0F0BD13B50B4624
:1081BC00044603C88DE8030093E8030084E8030039
:1081CC009DE8030083E8030002B010BD38B500231E
:1081DC000446036010200D46FBF757FF28B101231E
:1081EC0043608360024B0360C5602060204638BD4D
:1081FC001CAF0D00826810B50AB901F08AFAC36889
:10820C00BDE81040184708B5006800F11001FFF7F1
:10821C00F1FF08BD826810B50AB901F07AFAC3689B
:10822C00BDE81040184708B5006800F11001FFF7D1
:10823C00F1FF08BD38B5002383608B6804460D46FA
:10824C002BB102229847EB68E360AB68A360204631
:10825C0038BD0000F0B589B004686846FFF711FF1F
:10826C0000238DF808304FF00202D4E84F3F002B6A
:10827C0003D1C4E8412F0029F7D102D08DF8083082
:10828C0063E014F10C0503D069462846FFF7F9FEAC
:10829C00BFF35F8F01236370002004F10803BFF369
:1082AC005F8F53E8006F43E80002002AF9D1BFF357
:1082BC005F8F002E49D0FFF733FD20B129463046A1
:1082CC00FFF798FF3AE0314602A8FFF7B3FFE068EA
:1082DC00B4F9105008B101F0EBFB06901020ADF88A
:1082EC001C50FBF7D2FE0546E8B10027876018202A
:1082FC00FBF7CBFE044688B10146876002A8FFF766
:10830C0055FF049BA268A360059B049206A9E26832
:10831C00E36004F110000592FFF7B3FE0D4BEB6028
:10832C000D4B2C60AB6006A8FFF7BAFE02A8FBF75A
:10833C006FFF002229460948FFF7FAFC3046FBF78D
:10834C0067FF1021304601F0CAF96846FFF7A8FE16
:10835C0009B0F0BD13820D0089840D005B7F0D0008
:10836C002DE9F04F8BB006460F46904699469DF886
:10837C0050A0FFF731FD07AD834630BB4FF62E738F
:10838C00059005A92846ADF81830FFF77AFE1420A1
:10839C00FBF77BFE044658B10223037001234370A4
:1083AC00C0F804B0C0F808B029460C30FFF769FEDD
:1083BC003046214640F8044BFFF708FF2846FFF7EC
:1083CC006FFE05A8FFF76CFE52E000240C2314206E
:1083DC006C60AC600793FBF758FE014618B1047053
:1083EC0044704460846004A80391FFF7EFFE224BB5
:1083FC0008930820FBF749FE044628B1039B40F87C
:10840C00043B04A9FFF7C7FD00955FFA8AF34A46BF
:10841C00414638460994FFF7EFFC20B9039B5B7883
:10842C0003F0FF0283B1039B059304A906A8FFF791
:10843C00B2FD05A93046FFF78AFE06A8FFF7B2FD8C
:10844C0004A8FFF7AFFD13E04FF69C7305A903A832
:10845C000592ADF81830FFF7FDFE05A8FFF720FEDA
:10846C0005A80999FFF784FE06A8FFF79BFDDAE73C
:10847C0030460BB0BDE8F08FF9850D00022AF8B537
:10848C00044606D0032A17D0012A22D10B680360B8
:10849C001FE018200E68FBF7F8FD054650B1314679
:1084AC00FFF7C8FE3069B6F9147008B101F000FB93
:1084BC002861AF8225600CE0046854B104F110000F
:1084CC00FFF7EEFD2046FBF7A3FE1821204601F036
:1084DC0006F90020F8BD38B5002383608B6804468C
:1084EC000D462BB102229847EB68E360AB68A360A2
:1084FC00204638BD022A70B5044606D0032A11D096
:10850C00012A18D10B68036015E014200E68FBF7E4
:10851C00BCFD054620B13146FFF7DDFF337C2B74E3
:10852C00256008E0046834B12046FBF771FE142185
:10853C00204601F0D4F8002070BD0000F0B50023F7
:10854C0087B00C46BFF35F8F50E8006F40E80032F5
:10855C00002AF9D1BFF35F8F002E3FD01846FFF7EA
:10856C00DFFB074620B121463046FFF753FE2EE0D5
:10857C00314601A8FFF7AFFF23788DF81430102097
:10858C00FBF783FD0546D0B187601420FBF77DFD1A
:10859C00044678B18760014601A8FFF707FE039BEC
:1085AC00A268A360049B0392E268E3609DF8143018
:1085BC00049223740A4BEB600A4B2C60AB6001A84D
:1085CC00FBF726FE002229460748FFF7B1FB304691
:1085DC00FBF71EFE1021304601F081F807B0F0BD0C
:1085EC0033820D0001850D005B7F0D0030B585B029
:1085FC0004460D4668461146FFF7BAFD7CB124B21D
:10860C0028460DB101F054FA029002A96846ADF863
:10861C000C40FFF71FFE02A8FFF742FD1DE000987B
:10862C008DF808404FF00102D0E84F3FA34203D130
:10863C00C0E8412F0029F7D102D08DF808300CE0AA
:10864C0010F10C014FF0010318BF0373BFF35F8FE0
:10865C00043000F8033CFFF771FF01A8FFF7A2FC00
:10866C0005B030BD002211464068FFF71DBC00224A
:10867C0011464068FFF728BC00224068FFF71CBC7D
:10868C00002281F001014068FFF706BC00231A4666
:10869C0019464068FFF7F8BB00231A461946406894
:1086AC00FFF7EABB002211464068FFF7DDBB002252
:1086BC0011464068FFF7C8BB002202214068FFF753
:1086CC00CBBB00231A464068FFF7B6BB024B032214
:1086DC005A60024A1A607047C8E4032038AF0D0094
:1086EC007047F8B5064615460C468F18BC4206D0A6
:1086FC00336814F8011B9B6830469847F6E7284608
:10870C00F8BD0022007CFFF7F1B90021007CFFF7D7
:10871C00F5B90021007CFFF7F9B90021007CFFF7C7
:10872C00FDB90021007CFFF701BA10B514210446F5
:10873C0000F0D5FF204610BD10B504464FF47A73F7
:10874C000846A3600021044B207461602360FFF78E
:10875C00FDF9204610BD00BF6CAF0D000022007C5F
:10876C00FFF794B900231A461946007CFFF796B917
:10877C000021007CFFF79AB913B50024007C00940B
:10878C00FFF79CF9C0B202B010BD0123FFF7F4BF94
:10879C000123D2B2C9B2FFF7EFBF0022007CFFF772
:1087AC0095B9C9B2FFF7F9BF0022007CFFF796B963
:1087BC000121FFF7F9BF0021007CFFF7BFB900478B
:1087CC00F0B585B01C460E4617460546FFF736F940
:1087DC00002084424FF0040303908DF80C30A5BFA9
:1087EC009DF828308DF80E30034603AB00933246CB
:1087FC003B460649A8BF8DF80D402846FFF716F9F1
:10880C00B0FA80F0400905B0F0BD00BFCB870D0079
:10881C00704710B51821044600F061FF204610BDCA
:10882C00F0B5037D062B8DB00E4600F104074FF01A
:10883C00000402D000F1080518E00CAD394605F82B
:10884C00304D2F232A460A20FFF788F9284601F0DD
:10885C004AF933680246DB682946304698470FE0F0
:10886C0024B12E21304600F0F1F9044415F8011D15
:10887C000A22304600F030FABD420444F0D12046C2
:10888C000DB0F0BD10B5054B0446112240F8043B69
:10889C00002101F0AAF8204610BD00BF94AF0D00D6
:1088AC000346074A10B543F8042B01F1100251F8A6
:1088BC00044B43F8044B9142F9D10A781A7010BD5D
:1088CC0094AF0D0010B59DF8084044EA032343EA29
:1088DC00024242EA016104234160037510BD37B5C1
:1088EC000D788B784A78C97800912946FFF7EAFF12
:1088FC0003B030BD0A680B46926801461846104713
:10890C0070B50E4C04601C2444609DF814409DF816
:10891C00106004F0030444EA86040025E4B20474F5
:10892C00427485744161427C85600F2A08BF044BF8
:10893C00C56006BF8361C061038370BDD89C0D0008
:10894C0001890D00014B024A1A607047D0E40320E4
:10895C000BB00D00002211464068FFF7A5BA0022AB
:10896C0011464068FFF7B0BA00224068FFF7A4BA7E
:10897C00002281F001014068FFF78EBA00231A46ED
:10898C0001214068FFF780BA00231A461946406857
:10899C00FFF772BA002211464068FFF765BA002251
:1089AC0011464068FFF750BA002202214068FFF7D9
:1089BC0053BA00231A464068FFF73EBA38B505464D
:1089CC0088B104684CB1A3681BB103222146204630
:1089DC0098471021204600F082FE28461421BDE85D
:1089EC00384000F07CBE38BD10B103685B68184796
:1089FC00704710B503680446BBB15868FEF736FFE4
:108A0C0078B923685A7C12B95868FEF73FFF23687F
:108A1C005868FEF743FF20680023236028B1FFF756
:108A2C00CDFF206808B1FFF7C9FF204610BD00003C
:108A3C0038B50C4B03600446D0F8CC0108B1FBF7F9
:108A4C0028FBD4F8C45135B12846FFF7D2FF0421D6
:108A5C00284600F044FEA06808B1FFF7C5FF204689
:108A6C0038BD00BF7CB00D0038B50E4C0E4B2360EA
:108A7C000025022304F5E4706360A560C4F8C451BA
:108A8C00C4F8C851FEF742FF084BC4F8CC5184F827
:108A9C00D05123602046064A0649BDE8384000F014
:108AAC0019BE00BFD4E40320B0B00D007CB00D00A3
:108ABC00ACC603203D8A0D0000231A464068FFF720
:108ACC00BBB9002202214068FFF7C6B9002211464B
:108ADC004068FFF7B9B9002211464068FFF7C4B9E6
:108AEC0000231A4619464068FFF7C6B900231A46F8
:108AFC0019464068FFF7C8B9002281F001014068AF
:108B0C00FFF7CAB900224068FFF7D6B90022114618
:108B1C004068FFF7D9B9002211464068FFF7C4B985
:108B2C002DE9F043002495B016460D460746FFF795
:108B3C00A9FE214620220CA8009400F056FF4023E9
:108B4C000C9321466B460CAA3046FFF717F80446E7
:108B5C00002844D1024601216868FFF785F90221FB
:108B6C00804622466868FFF77FF9009E81462146C1
:108B7C00002E34D0002932D17368022B02D00A2B7C
:108B8C0009D02AE0B8F1000F27D0716938460431BA
:108B9C00FFF7A5FE20E0B9F1000F1ED07469112279
:108BAC0001A800F022FF06238DF8143001AD04F16A
:108BBC0008031834186859682A4603C20833A342BC
:108BCC001546F7D101A906A807ADFFF769FE0FCD31
:108BDC003C1D0FC42B6823700121F669C8E700986F
:108BEC00FEF7C4FF384615B0BDE8F083024B034ACC
:108BFC001A6000225A607047A8E60320B0B00D003E
:108C0C00F8B506460D468F180024BD420CD03368CB
:108C1C0015F8011B9B6830469847002801DB04447B
:108C2C00F3E7002C08BF04462046F8BD70B5054696
:108C3C000C46084649B100F056FF2B680246214607
:108C4C002846DB68BDE87040184770BD03689B6818
:108C5C00184738B50D210546FFF7F8FF0A210446E1
:108C6C002846FFF7F3FF204438BD38B50546FFF71B
:108C7C00DDFF04462846FFF7ECFF204438BD30B535
:108C8C008BB00B4600218DF82410012A98BF0A22C4
:108C9C000DF12304B3FBF2F505FB123303F0FF03D4
:108CAC00092B94BF30333733DBB2214604F801393A
:108CBC002B46002DEED1FFF7B9FF0BB030BD10B431
:108CCC002AB903685DF8044B9B68C9B21847D2B245
:108CDC005DF8044BFFF7D3BFFFF7F1BF0CB42DE9E0
:108CEC00F04387B000AF07F13804054654F8049BF5
:108CFC003C600E4623464A461421381DFFF70CF9FA
:108D0C00132805D8391D2846FFF790FF044613E0B9
:108D1C0000F1080323F00703E846ADEB030D411CFB
:108D2C0023464A4668463C60FFF7F6F869462846F3
:108D3C00FFF77CFF0446C5461EB12846FFF789FFA6
:108D4C00044420461C37BD46BDE8F04302B07047D2
:108D5C0010B50446FBF75CFA204610BD0348044AE4
:108D6C0004490023836000F0B5BC00BFB0E60320CB
:108D7C00ACC603205D8D0D00704710B51021044664
:108D8C0000F0ADFC204610BD70B5084B03600446E6
:108D9C0000250E4640F80C5FFEF7B0FD30462671FC
:108DAC00FEF7FCFEA560204670BD00BFE4B00D00D0
:108DBC000079FEF7FBBE10B504460068FFF794F887
:108DCC00204610BD10B50446006808B1FFF78CF8BA
:108DDC0000232360A360636010BD38B504460D46C4
:108DEC0000680131FFF788F810B184E821000120F8
:108DFC0038BD10B50368044613B143688B4207D2E3
:108E0C002046FFF7EAFF20B1A3680BB92268137064
:108E1C00012010BD70B50E46114604461546FFF7ED
:108E2C00E8FF18B92046FFF7CDFF09E02A46314686
:108E3C00A560206800F0CEFD2268A3680021D15403
:108E4C00204670BD38B50023044603604360836040
:108E5C0003730D4639B1084600F045FE294602461B
:108E6C002046FFF7D7FF204638BD38B505460068C9
:108E7C000C4660B16A688B689A4206D3096800F0A8
:108E8C00FEFDA368AB6000230AE0FFF72DF8236812
:108E9C002B6063686B60A368AB6000232360636026
:108EAC00A36038BD884210B50B46044607D009684C
:108EBC0019B19A68FFF7AEFF01E0FFF783FF204678
:108ECC0010BD10B500230446036043608360037338
:108EDC00FFF7E8FF204610BD884210B5044601D0CC
:108EEC00FFF7C3FF204610BD38B505460C4641B10F
:108EFC00084600F0F8FD214602462846FFF78AFF97
:108F0C0001E0FFF75FFF284638BD70B504460E46FA
:108F1C0009B9002070BD6AB18368D5182946FFF7DE
:108F2C0068FF0028F5D02068A3683146184400F08B
:108F3C00A6FDA560012070BD10B58A6809680446BD
:108F4C00FFF7E3FF10B92046FFF73CFF204610BDAA
:108F5C0070B50E469AB191B185689D4202D8002336
:108F6C000B7070BD541EED1A0168AC4228BF2C4624
:108F7C0019442246304600F0D3FD0023335570BD12
:108F8C0010B58368934207D904680968A01800F0EB
:108F9C00DAFD08B1001B10BD4FF0FF3010BD000012
:108FAC002DE9F0419A420E461C46104988BF1346E3
:108FBC001546074684BF25461C46FFF743FFB1689C
:108FCC008D420FD88C4228BF0C463368002213F810
:108FDC0004801A55316838462944FFF785FF3368F9
:108FEC0003F804803846BDE8F08100BF1AA50D00D7
:108FFC0010B504468B68FFF7D3FF204610BD006800
:10900C0008B100F0D5BC7047044B00204FF6FF723E
:10901C00187058809A80FEF76BBE00BFC0E6032024
:10902C0008B50020FEF7F8FE28B1FEF7D5FE80F05B
:10903C000100C0B208BD012008BD10B50020FEF72C
:10904C00BDFC044668B9FEF74BFE01280BD1204647
:10905C00FEF776FE38B9FFF7E3FF30B9FEF7A4FE52
:10906C00F9E7012010BD002010BDFFF7D9FF00204B
:10907C00FEF7A4FC003018BF012010BD08B5FFF7A7
:10908C00DCFFBDE80840FEF779BC0000024B1A6813
:10909C00024B1A60704700BF40C60320C8E603208D
:1090AC00F8B585B2044628460E46174600F0BEF9C0
:1090BC0060B102212846FEF791FC022806D13A46FF
:1090CC0031462046BDE8F840FEF760BDF8BD70475C
:1090DC004174704708B5007CFEF7B0FD20EAE070E3
:1090EC0008BD08B5007CFEF781FD20EAE07008BDE4
:1090FC0008B5007CFEF78AFD30EA200028BF4FF04F
:10910C00FF3008BD08B5007CFEF778FD30EA200082
:10911C0028BF4FF0FF3008BD007CFEF77FBD10B5B7
:10912C001421044600F0DBFA204610BD70B5457CD6
:10913C0004460E4625B9007CFEF780FD002805DDAF
:10914C003146207CBDE87040FEF748BD284670BD16
:10915C0010B5044608461146002262604FF47A723C
:10916C00A260054A22600122207462741A46FEF73E
:10917C0025FD204610BD00BF20B10D000023007C52
:10918C00FEF764BD0022FFF7F9BF007CFEF71EBDA1
:10919C00007CFEF74BBD0000F8B5194C25684DB9A5
:1091AC008420FAF772FF064618B18422294600F093
:1091BC001CFC2660134D2E684EB98420FAF765FF0F
:1091CC00074618B18422314600F00FFC2F600E4F79
:1091DC00396811F0010611D13846FAF75CFF68B115
:1091EC0022682B6809483146FFF7B2FF3846FAF778
:1091FC0057FF074A0749054800F06CFA0348F8BDC9
:10920C00E8E60320E0E60320E4E60320CCE60320B6
:10921C00ACC60320DB900D0041747047704708B555
:10922C000021007CFEF73AFD30EA200028BF4FF009
:10923C00FF3008BD08B50121007CFEF72FFD30EA98
:10924C00200028BF4FF0FF3008BD08B5007CFEF7AA
:10925C001DFD20EAE07008BD08B5007CFEF70EFD90
:10926C0020EAE07008BD007CFEF728BD10B5142183
:10927C00044600F034FA204610BD38B50446007C94
:10928C000D46FEF703FD002801DC607C28B1294661
:10929C00207CFEF70BFD20EAE07038BD10B50446CB
:1092AC00002363604FF47A73A360054B23600123A2
:1092BC000846217463741146FEF7D0FC204610BD9D
:1092CC0050B10D000022007CFEF7D0BC10B514226A
:1092DC000446002100F089FB204610BD30B50E4D30
:1092EC0087B001A8FFF7F2FF296811F0010410D133
:1092FC002846FAF7D0FE60B101AA21460748FFF7CD
:10930C00CDFF2846FAF7CCFE054A0649034800F083
:10931C00E1F9024807B030BDECE60320F0E603208B
:10932C00ACC6032029920D0008B50C4B33B1FFF7E6
:10933C00D5FF03681B699847002809DC084B63B10B
:10934C00FFF72AFF03681B699847002803DC08BD58
:10935C00AFF30080F2E7AFF3008008BD000000001F
:10936C000000000008B5FFF7DFFFFEF7FFFA014B26
:10937C00186008BD08E7032007B5002300931A46C0
:10938C006FF07701FEF7F6FC03B05DF804FB00000C
:10939C0007B543880A2B08D0502B09D1094B1B6801
:1093AC003BB103B05DF804EB1847FFF7E5FF06E0AF
:1093BC00002300931A466FF07701FEF7DBFC03B035
:1093CC005DF804FB04E7032010B5FEF7B7FA04467A
:1093DC0000F014FB074B13B12046AFF300800021C3
:1093EC000448FEF721FD00210348BDE81040FEF7BC
:1093FC00B7BC00BF000000009D930D0008B5024BE8
:10940C001B681B68019308BD5C02030008B5024B86
:10941C001B685B68019308BD5C02030008B5024B36
:10942C001B689B68019308BD5C02030010B50446E1
:10943C000F48FFF7BDFC28B1A4F10B03022B01D898
:10944C00002010BD00F004F9FFF7B5F908B1012CAC
:10945C00F6D9FFF7A1FEFFF79BFE18B1A4F10903A3
:10946C00012BEDD9232C8CBF0020012010BD00BF97
:10947C002CE70320232838B504460D460AD8FF29CB
:10948C0008D0FFF7D3FF28B129462046BDE8384065
:10949C00FEF7ACBA38BD38B504460D46FEF7AEFA49
:1094AC00FF2810D0062804D84D2323FA00F0C30758
:1094BC0009D42046FFF7BAFF28B129462046BDE85B
:1094CC003840FEF7A3BA38BD10B50446FEF796FA3D
:1094DC000438C0B2012808D92046FFF7A7FF20B1F5
:1094EC002046BDE81040FEF799BA002010BD0D28AB
:1094FC0010B504469CBF0E34A4B22046FFF796FF6D
:10950C0050B103212046FEF769FA032804D1204606
:10951C00BDE81040FEF7A2BA002010BD38B50446D5
:10952C000D46FFF783FFF0B104212046FEF756FAF3
:10953C00042805D1A9B22046BDE83840FEF786BA0A
:10954C0002212046FEF74AFA02280CD12046FEF7EB
:10955C0055FA012801D0042805D129462046BDE83A
:10956C003840FEF783BA38BD70B504460D46164632
:10957C00FFF75CFF98B102212046FEF72FFA022874
:10958C000DD12046FEF73AFA012801D0042806D165
:10959C00324629462046BDE87040FEF76FBA70BDD2
:1095AC0030B51C4D89B004462068FEF7CFF9FEF7A4
:1095BC00DDF92B682268C01A9042F5D3236833B3C7
:1095CC00E36823B3251D236928469847002304A983
:1095DC00684602930693FEF7E9FD029B069A0292F7
:1095EC000693079A039B0793294604A80392FEF758
:1095FC00DDFD069BE268E360079B069204A82269E6
:10960C0023610792FAF704FE6846FAF701FE09B0E7
:10961C0030BD00BF08E7032008B5FFF7C1FF0020ED
:10962C00BDE80840FEF73AB910B5074C2368DB07D4
:10963C0008D42046FAF72FFD20B1FEF7A7F92046F3
:10964C00FAF72EFD014810BD0CE7032010E70320AC
:10965C0038B50B4D296811F001040FD12846FAF7E3
:10966C001AFD58B121460748FFF766F82846FAF765
:10967C0017FD054A0549034800F02CF8014838BD90
:10968C0014E7032018E70320ACC60320ED860D0079
:10969C0070B50C4C0C4E0D4D00212046FFF774FBA1
:1096AC0020460B4C3246294600F014F80121204686
:1096BC00FFF76AFB324629462046BDE8704000F0B1
:1096CC0009B800BF2CE70320ACC60320858D0D0024
:1096DC003CE703200B460146184600F06DB9FAF73B
:1096EC00D6BC0000024B1868BFF35F8F704700BFF9
:1096FC004CE7032010B5002814BF04460124204673
:10970C00FEF7EAFB20B9FFF7EDFF08B18047F6E75B
:10971C0010BD08B5FEF708FC244B1A68D0075CBFD7
:10972C0001221A60224B1A68D1075CBF01221A6011
:10973C00204B1A68D2075CBF01221A601E4B1A68B4
:10974C00D0075CBF01221A601C4B1A68D1075CBFA2
:10975C0001221A601A4B1A68D2075CBF01221A60E8
:10976C00184B1A68D0075CBF01221A60164B1A6896
:10977C00D1075CBF01221A60144B1A68D2075CBF78
:10978C0001221A60124B1A68D0075CBF01221A60C2
:10979C00104B1A68D1075CBF01221A600E4B1A6875
:1097AC00D2075CBF01221A60704700BF7CE7032020
:1097BC0078E7032074E7032070E703206CE70320AD
:1097CC0068E7032064E7032060E703205CE70320DD
:1097DC0058E7032054E7032050E70320184B1A687E
:1097EC00D1075CBF01221A60164B1A68D2075CBF06
:1097FC0001221A60144B1A68D0075CBF01221A6050
:10980C00124B1A68D1075CBF01221A60104B1A6800
:10981C00D2075CBF01221A600E4B1A68D0075CBFDE
:10982C0001221A600C4B1A68D1075CBF01221A6026
:10983C000A4B1A68D2075CBF01221A60704700BF3E
:10984C009CE7032098E7032094E7032090E703208C
:10985C008CE7032088E7032084E7032080E70320BC
:10986C00184B1A68D1075CBF01221A60164B1A6894
:10987C00D2075CBF01221A60144B1A68D0075CBF78
:10988C0001221A60124B1A68D1075CBF01221A60C0
:10989C00104B1A68D2075CBF01221A600E4B1A6873
:1098AC00D0075CBF01221A600C4B1A68D1075CBF51
:1098BC0001221A600A4B1A68D2075CBF01221A6097
:1098CC00704700BFBCE70320B8E70320B4E70320D0
:1098DC00B0E70320ACE70320A8E70320A4E70320AC
:1098EC00A0E70320244B1A68D0075CBF01221A6042
:1098FC00224B1A68D1075CBF01221A60204B1A68F0
:10990C00D2075CBF01221A601E4B1A68D0075CBFDD
:10991C0001221A601C4B1A68D1075CBF01221A6025
:10992C001A4B1A68D2075CBF01221A60184B1A68CE
:10993C00D0075CBF01221A60164B1A68D1075CBFB6
:10994C0001221A60144B1A68D2075CBF01221A60FC
:10995C00124B1A68D0075CBF01221A60104B1A68B0
:10996C00D1075CBF01221A600E4B1A68D2075CBF8C
:10997C0001221A60704700BFECE70320E8E70320E0
:10998C00E4E70320E0E70320DCE70320D8E703202B
:10999C00D4E70320D0E70320CCE70320C8E703205B
:1099AC00C4E70320C0E703200A22002100F06CB9B1
:1099BC000A22002100F068B910B5054C13462CB1F1
:1099CC000A4601460220AFF3008010BD204610BDB0
:1099DC000000000010B5431E0A44914204D011F857
:1099EC00014B03F8014FF8E710BD024403469342C4
:1099FC0002D003F8011BFAE77047000038B5124B90
:109A0C001C68A36B0546D3B91820FEF765FA43F220
:109A1C000E33A06303804AF6CD33438041F23423E6
:109A2C0083804EF26D63C3804DF6EC630381052396
:109A3C0043810B23838101220023C0E90423A36B00
:109A4C0000221D615A6138BDA8C6032010B502461C
:109A5C00134601321C78002CFAD1013B11F8012B72
:109A6C0003F8012F002AF9D110BD10F8012B11F8C1
:109A7C00013B012A28BF9A42F7D0D01A70470346FF
:109A8C0011F8012B03F8012B002AF9D1704770B59E
:109A9C0003461A4612F8015B45B14C1E14F8016FCF
:109AAC0016B1B542FAD101E01346F2E7181A70BDAF
:109ABC00024B0146186800F003B800BFA8C603208B
:109ACC0070B5064608460C4600F00DF8451C2946B4
