:02000002D0002C
:1040000000400D00B8B20D00000006000D000501D3
:0840100004017E050000000020
:04401800709B0D008C
:10401C0009480A49884208B505D0094A824202D0AB
:10402C00121A05F03BFC0748074A0021121A05F04A
:10403C0040FC014808BD00BF00C60320E0B10D00E4
:10404C00ACC60320ACC60320F0E7032070B505F026
:10405C001FF9074C074BE41AA40800251E46A5427D
:10406C0004D056F8253098470135F8E770BD00BFED
:10407C00E0B10D00A4B10D0002F0ECBE08B503F0E8
:10408C00E9F9BDE8084005F0D1B803F08DBE03F0A6
:10409C0093BE03F091BE0078B0FA80F040097047EF
:1040AC000123037070477047014B01221A7070474F
:1040BC00A8CA0320014B01221A60704738C703209D
:1040CC00014B01221A707047FCD503200368184776
:1040DC00012A02D0022A02D004E0016002E00B683F
:1040EC0000B103600020704708B505F05BF8024989
:1040FC00BDE8084004F01DBDAC9F0D0013B50C4687
:10410C00114805F007FC204605F051FCB0F5007F86
:10411C0007DB204410F8013CA3F122025342534127
:10412C0000E00123094C237005F03CF82378084A81
:10413C00002B14BF59234E2300930121024B04F092
:10414C0031FD02B010BD00BFCCDA032029D303200F
:10415C00B69F0D0013B500210446084603F00EFB74
:10416C0002A90023204641F8043D03F01FFB019CEB
:10417C000CB1012323710021012003F0FFFA2CB1B3
:10418C00236820469B6898470023237102B010BD1A
:10419C0010B5054B00220446114640F8043B03F0D1
:1041AC00FDFC204610BD00BFA09B0D0010B50446C1
:1041BC00FFF7EEFF2046202105F0F5F9204610BD53
:1041CC0037B50C4605460F4805F0A4FB204605F014
:1041DC00EEFBB0F5007F07DB204410F8013CA3F1A7
:1041EC0022025342534100E00123074A137004F0AA
:1041FC00D9FF00942B46054A012104F0D3FC03B0EF
:10420C0030BD00BFCCDA032029D30320E19F0D0081
:10421C0010B58368044613B1032201469847204623
:10422C0010BD38B5044670B1056835B12846FFF7A6
:10423C00EFFF1021284605F0B6F920461421BDE801
:10424C00384005F0B0B938BD10B543690446BBB170
:10425C00586803F073FA78B963695A7C12B95868D4
:10426C0003F07CFA6369586803F080FA60690023F4
:10427C00636128B1FFF7D5FF606908B1FFF7D1FF83
:10428C00201DFFF7C5FF204610BD000030B587B0DC
:10429C001D4600230446049322B1224B0593224B66
:1042AC00029204930023E360049B21603BB1022241
:1042BC0002A9201D9847059B2361049BE3601B49C1
:1042CC00142005F07BF930B10023037403604360C4
:1042DC008360C36043746061A0B1154B83606369F4
:1042EC001449DC606069144B8DE82100092204300C
:1042FC0003F01CFA30B963691B7C4BB9012003F045
:10430C008DFAF8E760690023636108B1FFF789FF54
:10431C0003F094FA094B186002A8FFF779FF2046C6
:10432C0007B030BDD9400D00DD400D0040B00D0090
:10433C00ED940D0006A00D00A1550D0008E703201B
:10434C0008B503F07BFA034B1860BDE8084003F096
:10435C0093BC00BF08E703200368C9B29B681847E9
:10436C00F0B500258E4615490571856045610160E3
:10437C00044692E8030085B002AF04F10C0687E80E
:10438C00030096E8030082E8030097E8030086E840
:10439C0003009168606990606161D168A069D06028
:1043AC00A1618DE82800064A2346714604F10800F5
:1043BC0003F0ECF9204605B0F0BD00BF8C9B0D005E
:1043CC0061410D0007B58068002340B18DE80A00FB
:1043DC001A46022103F0F2F9B0FA80F0400903B05A
:1043EC005DF804FB38B50F4B0360836804469BB142
:1043FC006FF00041FFF7E6FF0021A06803F0FEF923
:10440C00237903F0FF0513B103F0A0F9F8E729466F
:10441C00A06803F0C3F9A56004F10C00FFF7F8FEE7
:10442C00204638BD8C9B0D0010B50446FFF7DAFF13
:10443C0020461C2105F0B7F8204610BD73B5064682
:10444C000D4611461446FFF7BDFFB068002340B17E
:10445C00019300952246194603F0B0F9B0FA80F0AA
:10446C00400902B070BD000040F67263984270B50E
:10447C001CDC0F4A002352F8044BA04203F1010547
:10448C000FDC116888420CDD0A4E56F8232056F8D2
:10449C0025309D1A031B6B43081B93FBF0F0104453
:1044AC0070BD142D2B46E6D1002070BD184670BD92
:1044BC0054AD0D0000AD0D001FB50C2AA8BF0C2289
:1044CC00014401A8144605F08FFA04AB1C4401A862
:1044DC00002304F80C3C05F0CBF904B010BD2DE919
:1044EC00FF410D68D2F8008046190F463046414610
:1044FC0005F08DFA801B0E28A8BF0E20024631460F
:10450C000446684605F070FA404605F050FA04ABD4
:10451C00284420441C4438600023684604F8103CAE
:10452C0005F0A6F904B0BDE8F081000010B5084C08
:10453C0001444FF0FF32884208D010F8013B534041
:10454C00DBB254F8233083EA1222F4E7D04310BDD7
:10455C00AC9B0D00021E30B516DB9110022329B165
:10456C00914203D0023342FA03F1F8E7023B0020F8
:10457C004000411C42FA03F401FB01F5A542D8BFEF
:10458C000846023BF4D530BD4FF0FF3030BD000083
:10459C0038B5064D002404F0ABFF204603F066F955
:1045AC0028550134B4F56A7FF5D138BD3CD60320CB
:1045BC0038B5064D002404F09BFF295D20460134DC
:1045CC0003F05CF9B4F56A7FF5D138BD3CD6032015
:1045DC0038B504F0E7FD0849084D04F0AAFA0024A8
:1045EC0004F11800E42200212844E43405F061F9B8
:1045FC00B4F5647FF4D138BD0DA00D003CD603207A
:10460C0008B5064B06221A700C225A70FF229A70BB
:10461C00FFF7DEFFFFF7CCFF012008BD3CD60320DF
:10462C00012870B50E461D4D1BD11D4B188804F08A
:10463C00AFFE044640B904F0B5FD1A4904F079FA0E
:10464C00194B2C601C6016E02B68002B15DC04F059
:10465C00A9FD164904F06DFA134B00202860186070
:10466C0070BD2A684AF227039A4206DD04F09AFDCF
:10467C000F4904F05EFA002070BD0E4C0121208819
:10468C0004F06DFE304603F0D1F80021208804F0D0
:10469C0066FE304603F0CAF8012070BD00D6032038
:1046AC0028C6032044A00D0068CA032060A00D009A
:1046BC0077A00D0030C603202DE9F84F1C4BDFF816
:1046CC007890C70F044688461888394604F047FE90
:1046DC00184B84EAE4711A68A1EBE47111441922B5
:1046EC00002C91FBF2F64FF0000402FB16121A603C
:1046FC00B4BF6FF0180A4FF0190A1D46A346B44216
:10470C0013DA41463846FFF78BFF58B1D9F8003021
:10471C005344002B02DDC9F8003004E0C9F800B0A6
:10472C00C5F800B034460134E9E7BDE8F88F00BFA6
:10473C0008C6032068CA032000D60320024B0021C0
:10474C00188804F00CBE00BF3CC6032008B5054B0E
:10475C000121188804F003FE0A20BDE8084003F08C
:10476C005BBB00BF3CC6032038B504460D46FFF7C3
:10477C00EDFF29462046FFF79FFFBDE83840FFF7C5
:10478C00DDBF0000134B10B54AF228021A60044634
:10479C00FFF7DCFF96211048FFF78EFF642003F033
:1047AC003BFB96214FF4FA60FFF786FF642003F081
:1047BC0033FB4FF47A710948FFF77EFF4FF47A719F
:1047CC0042F63020FFF778FF1CB1BDE81040FFF730
:1047DC00B5BF10BD00D60320A015FFFF48F4FFFFA6
:1047EC002DE9F04106460D469046002447424445CB
:1047FC0009DA29463046FFF75FFF29463846FFF7AE
:10480C005BFF0134F3E7BDE8F08100002DE9F74FC1
:10481C001E4D009392462B681D4F80EAE072A2EB6E
:10482C00E0721A441923002892FBF3F64FF00004AF
:10483C0003FB16232B6089464FEAD078B4BF6FF088
:10484C00180B4FF0190B2346B44201931ADA0C9A49
:10485C0000995046FFF7C4FF0E4B4146188804F0F0
:10486C007EFD49464046FFF7DBFE019B38B13A68B6
:10487C005A44002A01DD3A6002E03B602B6034466A
:10488C000134E1E703B0BDE8F08F00BF68CA032034
:10489C0000D6032008C6032038B5064C80F3080563
:1048AC0044F620622946208804F0C2FD0123E5600D
:1048BC00237238BDD0C6032010B5044C00212088CB
:1048CC0004F090FD00232372E36010BDD0C60320DA
:1048DC0070B5044602F0B2FF0F4D84F3080406468F
:1048EC0044F620622146288804F0A2FD002C14BF57
:1048FC0001230023EC602B7209D0084B1B7833B1D9
:10490C0004F050FC2346064A012104F04BF902F056
:10491C0095FF801B70BD00BFD0C60320D3CA0320F7
:10492C0092A00D00024B0146188804F05BBD00BF3D
:10493C0000C60320024B0146188804F053BD00BF8B
:10494C000CC60320024B0146188804F04BBD00BF77
:10495C0018C603200346412B084601D1FFF7E2BFDE
:10496C00312B01D1FFF7E6BF322B01D1FFF7EABFA4
:10497C0070470000024B0021188804F033BD00BFC3
:10498C0000C60320024B0021188804F02BBD00BF89
:10499C000CC60320024B0021188804F023BD00BF75
:1049AC0018C60320412801D1FFF7E4BF312801D1FB
:1049BC00FFF7E8BF322801D1FFF7ECBF704710B505
:1049CC0004460846FFF7AEFF204603F025FABDE883
:1049DC001040FFF7CFBF10B504460846FFF7AAFFFB
:1049EC00204603F019FABDE81040FFF7CBBF10B515
:1049FC0004460846FFF7A6FF204603F00DFABDE873
:104A0C001040FFF7C7BF38B50C4605460846FFF700
:104A1C0089FF2046FFF78EFF2046FFF793FF2846BD
:104A2C0003F0FAF9FFF7A6FFFFF7ACFFBDE838403B
:104A3C00FFF7B0BF08B504F06FFD03F01FFE88B997
:104A4C0004F06AFD084903F0F1FD04F065FD03F084
:104A5C00F1FD642003F0E0F904F05EFDBDE80840D0
:104A6C0003F00CBE08BD00BFA086010008B504F021
:104A7C0053FDBDE8084003F0E3BD000008B5074B4B
:104A8C00074800226FF00041DA61FFF7D7FC04F011
:104A9C0089FB0449BDE8084004F04BB8D0C603209C
:104AAC006CCA0320A9A00D0008B56FF000410648A0
:104ABC00FFF788FC0020FFF70BFF04F073FB0349A2
:104ACC00BDE8084004F035B86CCA0320CCA00D003A
:104ADC0038B5114C0021208804F084FCA08804F027
:104AEC006AFCE1680546208804F07CFC1DB9FFF7E0
:104AFC00DBFF00250EE02846FFF7B6FC052200EB95
:104B0C00C003B0F5167F93FBF2F303F5A07320629C
:104B1C00A362ECDC284638BDD0C603202DE9F04357
:104B2C002F4E8BB0F56802F089FEF769C7EB0009D0
:104B3C00B9F57A7F804634464ED3FFF7C9FFC6F8E5
:104B4C001C808046002847D017B97761B76143E0D5
:104B5C00336A776AB569E26AFF1A4FF47A7107FB18
:104B6C0009F393FBF1F31D44B5617669636BBE1BCE
:104B7C006B434E437A43216BA56B92FBF1F193FB94
:104B8C00F5F56A18E56B236C96FBF9F6754395FB06
:104B9C00F3F5144B1B781544EBB104F003FBD4F87C
:104BAC0020E0636A08950796A16906910A2293FB97
:104BBC00F2F102FB113303939EFBF2F302FB13E2BF
:104BCC000291019200930597CDF810904346064A46
:104BDC00012103F0E7FF676128460BB0BDE8F083C5
:104BEC00D0C60320D3CA03200FA10D002DE9F0413C
:104BFC00074694B00E463A4D02B92A602B683946E6
:104C0C00013310A82B6004F0C0F810A9354804F04B
:104C1C00C7F810A804F033F83146334804F093FE7B
:104C2C00324A334900231370324A04A8137004F03B
:104C3C006DF839460CA8049C04F0A7F82E4908A876
:104C4C0004F064F808A90CA804F0DAF831468046A0
:104C5C0010A804F05BF810A9404604F0D1F8274BDB
:104C6C0002681978264B1B780B438DF800302146CF
:104C7C003C2302A803F0DCFA039C7CB16368013B83
:104C8C0063605BB9236820469B689847A368013B27
:104C9C00A3601BB923682046DB68984710A803F073
:104CAC00EEFF08A803F0EBFF0CA803F0E8FF04A844
:104CBC0003F0E5FF04F076FA3946044610A804F038
:104CCC0064F82B6801930F4A009610AB0121204623
:104CDC0003F068FF10A803F0D2FF14B0BDE8F08118
:104CEC00D0D50320C0D50320EDD2032029D3032037
:104CFC0078A10D00CCDA032003AF0D0044C70320CC
:104D0C0078C7032082A10D007FB504F04BFA15493A
:104D1C00154E164D03F00DFF02F0C6FF0446B8B158
:104D2C000123337002F08AFD114B124900F51C501F
:104D3C0010301860002468462C7003F0E7FF6846BA
:104D4C0022460D49FFF752FF684603F098FF06E034
:104D5C0004F028FA094903F0ECFE34702C7004B00E
:104D6C0070BD00BF9BA10D0058C70320CCD20320FF
:104D7C00E4C70320B0A10D0008D60320C3A10D0089
:104D8C00072210B50C490D4804F019FE0C4B041EFB
:104D9C000CBF012200221A7007D104F003FA094952
:104DAC0003F0C7FE084B1C7010BD04F0FBF907495B
:104DBC00BDE8104003F0BDBEF2A10D00A0C703205A
:104DCC004CD30320FAA10D00E1C7032007A20D006C
:104DDC002DE9F0410F4F064600244FF0E40808FB84
:104DEC0004F505F1200139441822304604F0E7FDA2
:104DFC00014648B9074818352844E42204F059FD07
:104E0C00BDE8F041FFF7D4BB0134042CE7D1BDE879
:104E1C00F08100BF3CD603202DE9FF41244F254CE7
:104E2C00DFF898803946684603F070FF00992046F9
:104E3C0004F091FD0546684603F021FF00262A4642
:104E4C002146404604F0D0FD08F8056001352C449D
:104E5C003946684603F05AFF0099DFF86480204613
:104E6C0004F079FD0546684603F009FF2A46214601
:104E7C00404604F0B9FD08F8056001352C4439466C
:104E8C00684603F043FF00990B4F204604F063FD86
:104E9C000546684603F0F3FE2A462146384604F0E0
:104EAC00A3FD681C20447E5504B0BDE8F08100BF12
:104EBC0003AF0D00CCDA0320D4D503205AC703204E
:104ECC00A0C70320F8B5154804F071FD134B00245E
:104EDC005A1C02380A26092784421CDA15785C2DE4
:104EEC0013D15178742904F1010402D1591C1F709B
:104EFC0009E06E2917BF1946591C01F8025B557859
:104F0C000CBF1E705D70023202E0591C01321D7024
:104F1C0001340B46E0E700221A70F8BDCCDA03200E
:104F2C001FB5184B1B68042B19DC04F03BF9164910
:104F3C000446684603F029FF6B46144A01212046BB
:104F4C0003F030FE684603F09AFE0F49684603F002
:104F5C001CFF01220E496846FFF748FE0CE004F0E6
:104F6C0021F909490446684603F00FFF6B46094ACC
:104F7C000121204603F016FE684603F080FE04B0C3
:104F8C0010BD00BFD0D50320C0D503201AA20D0040
:104F9C00EDD2032046A20D00E4222DE9F84302FBDA
:104FAC0000F6114D1149DFF8448006F1180407464C
:104FBC00281904F073FC06F1FC094C450ADA04F0DC
:104FCC0097FAA31B4344204613F8181C02F056FC16
:104FDC000134F2E7AF7004F08BFAA9780220BDE837
:104FEC00F84302F04BBC00BF3CD60320E4D90320AD
:104FFC001FB5CB890A7803938B8902934B89019354
:10500C000B89044C00934B680349204402F0E4FEE6
:10501C0004B010BD4DD303208CA20D002DE9F74335
:10502C00E4244443134D1449144804F120032A1971
:10503C002B440093D369926902F0CEFE00260746FA
:10504C00A84604F13C0933192B4493F83C3003F087
:10505C00FD03412B06D109EB060138464144FFF70D
:10506C00C7FF07441036C02EEDD1012003B0BDE8B8
:10507C00F08300BF3CD60320A6A20D004DD3032025
:10508C0010B5084B9C78FF2C14BF0134002404F09D
:10509C0003042046FFF780FF2046BDE81040FFF7D1
:1050AC00BDBF00BF3CD6032070B5194B1B780E4614
:1050BC0063BB184B1A1892F823203AB30A2A25D04E
:1050CC00092A20D00446B4F5FA6F1EDA1A1992F8A0
:1050DC00232032B9221A01460F48FFF7EDF9306050
:1050EC0013E00A2AF6D0092A04F1010507D1221A85
:1050FC0001460948FFF7E0F93060284670BD2C2ABC
:10510C00F5D02C46DFE7013070BD204670BD00BFE6
:10511C00E0C70320D4CA0320F7CA032070B50029C6
:10512C00054688B01F48204C01D101601BE01F4B85
:10513C00DA684FF47A7303FB02F207DA4FF0FF33AD
:10514C0023601B4B026000221A600DE003681944B7
:10515C0064230160594391FBF2F19942A8BF1946AF
:10516C002368994200D0216004F01CF829460646B9
:10517C0004A803F00AFE0F4B196A0A2391FBF3F201
:10518C0003FB121302932368019200930A4A04ABA7
:10519C000121304603F006FD04A803F070FD08B0B1
:1051AC0070BD00BF98C70320D0D20320D4CA0320FF
:1051BC00C8C70320D0C60320B7A20D0010B502F05B
:1051CC003DFB0446FFF7AAFCFFF782FBFFF7B8F89C
:1051DC0002F034FB001B10BD10B50446FFF7EEFFC8
:1051EC00A04204DA201ABDE8104002F015BE10BD32
:1051FC00F0B516464A1C85B007460D4602D1336001
:10520C000C4629E01649684603F080FD2A4669469B
:10521C00384603F019FE0446684603F030FD631C63
:10522C000CD12A463946684603F046FE684603F020
:10523C004AFE3060684603F022FD0DE023462A4604
:10524C003946684603F010FE684603F03CFE3060B9
:10525C00684603F014FD0134204605B0F0BD00BFD4
:10526C00DDA20D0010B50120FFF7E4FB18B9BDE875
:10527C001040FFF7FBBB03F095FF0F4903F059FCFF
:10528C00002404F049F9214603F0EEF904F044F946
:10529C000021FFF761F804F03FF903F0ECF930B9A5
:1052AC0003F080FF2346054A012103F07BFC013407
:1052BC007F2CE6D1DBE700BFDFA20D00FDA20D00C5
:1052CC00164A08B500231370154A1370154A13704B
:1052DC00154A1370154A1370154A1360154A13605A
:1052EC00154A13701376154A13701376144A1372F9
:1052FC0082F8203082F82130124A13701372124A4D
:10530C001370124A0A215370117002F097FA104B65
:10531C0000F56A406030186008BD00BF3CC7032030
:10532C004CD30320CCD2032029D3032034C7032031
:10533C0098C70320D0D2032008D6032022D60320FE
:10534C00E4D90320D4CA03204DD30320F0C7032093
:10535C009CC7032010B507220D490E4804F02FFB03
:10536C00044670B903F01EFF0B4903F0E2FB0B4B34
:10537C0001201C70FFF706FAFFF7A2FF084B1C6018
:10538C0010BD03F00FFF0749BDE8104003F0D1BB7F
:10539C00F2A10D00A0C703201CA30D00D2CA03204C
:1053AC009CC703202AA30D0010B507220D490E48F7
:1053BC0004F005FB044670B903F0F4FE0B4903F04E
:1053CC00B8FB0B4B01201C70FFF7DCF9FFF778FFE3
:1053DC00084B1C6010BD03F0E5FE0749BDE810400A
:1053EC0003F0A7BBF2A10D00A0C703203EA30D0044
:1053FC0065CA03209CC703204DA30D001FB503F005
:10540C00D1FE0F4903F095FB0E4B01221A7002F0EE
:10541C0015FA0D4B00F59C4020301860FFF796F9FB
:10542C000A49684603F072FC002209496846FFF7F6
:10543C00DDFB684603F023FC05B05DF804FB00BF00
:10544C0061A30D00E1C7032040C703206FA30D002B
:10545C00ECD903201FB5164C03F0A4FE214603F033
:10546C0068FB144B01221A7002F0E8F9124B00F59C
:10547C001C50103018602146684603F047FC4FF072
:10548C00FF316846FFF74AFE684603F0F8FB0B490C
:10549C00684603F03BFC002209496846FFF7A6FB6F
:1054AC00684603F0ECFBFFF749F904B010BD00BFF0
:1054BC003EA30D0065CA032030C703207AA30D005C
:1054CC00ECD903201FB503F06DFE154903F031FB39
:1054DC00144B01221A7002F0B1F9134B134900F569
:1054EC001C5010301860684603F010FC4FF0FF3170
:1054FC006846FFF713FE684603F0C1FB0C4968468B
:10550C0003F004FC00220B496846FFF76FFB68466A
:10551C0003F0B5FBFFF712F905B05DF804FB00BF13
:10552C0086A30D00D2CA0320DCC7032095A30D006F
:10553C00A3A30D00ECD9032070B50E460446154606
:10554C0003F0FCFE012E05D129462046BDE8704033
:10555C0003F048BF70BD70B50E460446154603F007
:10556C00EDFE012E05D129462046BDE8704003F022
:10557C00F6BE70BD826810B50AB904F02EF8C36887
:10558C00BDE81040184708B5436913B10C30FFF75C
:10559C00F1FF08BD38B582680123044603741D462B
:1055AC0012B1C068904703E0006808B1FFF7E2FF52
:1055BC0065740020BDE8384002F018B907B50093B7
:1055CC0013460A46012103F0EDFA03B05DF804FB23
:1055DC0038B50A4B1B7804460D4633B103F0E2FD97
:1055EC002B4622460649FFF7E9FF064B2A46214681
:1055FC001878BDE8384003F0B7BC00BFD3CA03200D
:10560C00AFA30D0020C6032008B5FA214FF4837018
:10561C00FFF7DEFF322002F0FFFBFA214FF493700C
:10562C00FFF7D6FF322002F0F7FBFA214FF4A570FA
:10563C00FFF7CEFF322002F0EFFBFA2140F25D10B3
:10564C00FFF7C6FF322002F0E7FBFA214FF4C470DB
:10565C00FFF7BEFF322002F0DFFBFA214FF4DC70C3
:10566C00FFF7B6FF322002F0D7FBFA214FF4F770A8
:10567C00FFF7AEFF322002F0CFFBFA2140F20B20F5
:10568C00BDE80840FFF7A4BF2DE9F0410D46554990
:10569C000346024686B0183052F8044B41F8044BCE
:1056AC008242F9D1186859684F4C504E03C42B46AE
:1056BC0005F11807083C18685968324603C20833CC
:1056CC00BB421646F7D119230193494B49494FF078
:1056DC00000802A883F8218003F018FB02AA01A994
:1056EC002846FEF7FCFEE06002A803F0C8FA414928
:1056FC0002A803F00BFB02AA01A92846FEF7EFFE55
:10570C00206102A803F0BBFA3A4902A803F0FEFAA2
:10571C0002AA01A92846FEF7E2FE606102A803F086
:10572C00AEFA344902A803F0F1FA02AA01A92846FC
:10573C00FEF7D5FEA06102A803F0A1FA2D4902A83C
:10574C0003F0E4FA02AA01A92846FEF7C8FEE061BC
:10575C0002A803F094FA274902A803F0D7FA02AA88
:10576C0001A92846FEF7BBFE208402A803F087FAA5
:10577C00204902A803F0CAFA02AA01A92846FEF79A
:10578C00AEFE84F8220002A803F079FA194902A8A7
:10579C0003F0BCFA02AA01A92846FEF7A0FE0746B0
:1057AC0002A803F06CFA268C01991348324629445E
:1057BC00344404F019F9B11E0F4884F82380FEF725
:1057CC00B5FE80EAE074A4EBE07403F0EBFC234636
:1057DC003A460A49FFF7F2FE3B1B5842584106B0C5
:1057EC00BDE8F08122D60320D4CA0320ECD90320D3
:1057FC00E4D90320E1A30D00F7CA0320E3A30D00B5
:10580C0073B5044603F088FE214602F029FF03F02D
:10581C0083FE0021FEF7A0FD064603F07DFE00216D
:10582C0002F025FF054630B103F0BCFC2B46324696
:10583C001549FFF7C3FE03F06FFE2146042202F068
:10584C000CFF03F069FE03685B699847044603F09C
:10585C0063FE03685B6998470C4B1B78054643B1A4
:10586C0003F0A0FCE3B20093094AEBB2012103F070
:10587C0099F96A0704D4E0B2C31E5842584100E0BB
:10588C00002002B070BD00BFFBA30D00D3CA0320E3
:10589C001CA40D007FB5124B1C680D46041B06465C
:1058AC001049684603F032FA84EAE473A3EBE4731C
:1058BC006B43684646F2A81193FBF1F1FFF72EFCFF
:1058CC00684603F0DCF903F06DFC234632460649CA
:1058DC00FFF774FE29462046FEF7EEFE04B070BDBD
:1058EC0000D6032032A40D004DA40D00962145F6E0
:1058FC004210FFF7CFBF962142F63020FFF7CABF08
:10590C0013460A46012103F04DB90000F8B501F029
:10591C0095FF184B1A6882421F4625D8164B1A78E9
:10592C001D462AB103F03EFC144A012103F03AF95A
:10593C00134A0023E42101FB032696F820404CB1C6
:10594C002C789CB103F02EFC96F820200D49FFF723
:10595C00D7FF0CE00133042BEDD101F06FFF00F504
:10596C006A406030386002E0002400E001242046E8
:10597C00F8BD00BF9CC70320D3CA032078A40D0038
:10598C003CD6032093A40D002DE9F341534D544E06
:10599C00544F01232B7003F005FC534903F0C9F855
:1059AC0003F05EFB4FF4165103F050FB03F0FAFBCF
:1059BC004E4903F0BEF80021308803F0D0FC01F012
:1059CC003DFF00F59C5403F0EDFB494903F0B1F8A1
:1059DC000834388803F0DCFC804603F0E3FB2E210E
:1059EC0003F098F8FEF7ACFCC82002F015FAB8F1F9
:1059FC00010F03D001F022FFA042EAD303F0D2FB47
:105A0C00074603F02DFB03681B699847002814BF59
:105A1C0059224E2237493846FFF772FF0121308850
:105A2C0003F09DFC03F0BEFB334903F082F803F056
:105A3C0017FB03681B69984730B901F0FFFE8442DD
:105A4C0002D9FEF77DFCF2E7642002F0E5F903F0E1
:105A5C00A9FB2A492A4E03F06CF8002403F0A2FBA0
:105A6C002E2103F057F803F0FBFA03685B699847A3
:105A7C00431C1CBF3055013403F0F2FA03681B6958
:105A8C00984708B1172CE9DD03F08CFB03F045F8BF
:105A9C00172C1B4A09DC1B4B114603F1180053F859
:105AAC00046B41F8046B8342F9D10026167603F09F
:105ABC0079FB134B144A0094012103F073F803F0A3
:105ACC00CFFA03F0C6FA03F06DFB104903F031F87E
:105ADC0020462E7002B0BDE8F08100BFA9CA032099
:105AEC0034C6032038C603200AA50D001DA50D00E1
:105AFC0034A50D0045A50D006EA50D00CCA50D001F
:105B0C0008D6032084A50D009DA50D00B5A50D009C
:105B1C0070B590B00025014606460CA8079508956F
:105B2C0009950A950B9503F030F92B4606AA2946E0
:105B3C000CA8FFF75DFB04460CA803F0A0F8069B2D
:105B4C00023B202B00F2AE82DFE813F0210025008F
:105B5C005400AC02AC027E0099009E00C000E10033
:105B6C0003012401460169016E0188018D019E012A
:105B7C00A101A401A701AB01AC02AC02AC02AE01C5
:105B8C00C601F90100020402AC02290259020120EB
:105B9C00FEF7F8FD83E231460CA803F0F6F800237B
:105BAC0007AA21460CA8FFF723FB04460CA803F018
:105BBC0066F831460CA803F0E8F84FF47A7308AA9B
:105BCC0021460CA8FFF714FB0CA803F058F8089911
:105BDC000798B74CFEF7C8FD03F0E4FAB54BB64A8C
:105BEC001B680193236800930121079B02F0DAFFE5
:105BFC00246858E2FEF7AAFDFFF778FEFEF79EFD3B
:105C0C0031460CA803F0C1F8B72307AA21460CA80B
:105C1C00FFF7EEFA04460CA803F031F831460CA855
:105C2C0003F0B3F8802308AA21460CA8FFF7E0FA8A
:105C3C000CA803F024F8A14B079C1C60A04B089AFD
:105C4C001A6001229F4BA8E131460CA803F09DF885
:105C5C0007AA21464FF4B9730CA8FFF7C9FA0CA890
:105C6C0003F00DF803F09EFA974B196A0A2391FB87
:105C7C00F3F203FB12139549FFF7A0FC24E0FEF7A7
:105C8C00BFFC934B5C780EE231460CA803F07DF818
:105C9C004FF4FA7307AA21460CA8FFF7A9FA044699
:105CAC000CA802F0ECFF31460CA803F06EF821466C
:105CBC00802308AA0CA8FFF79BFA0CA802F0DFFFC0
:105CCC0008990798FEF77BFE079CECE131460CA87F
:105CDC0003F05BF807AA4FF4FA7321460CA8FFF700
:105CEC0087FA04460CA802F0CAFF31460CA803F050
:105CFC004CF82146802308AA0CA8FFF779FA0CA8C7
:105D0C0002F0BDFF08990798FEF765FE1FE03146CB
:105D1C000CA803F03AF84FF4FA7307AA21460CA822
:105D2C00FFF766FA04460CA802F0A9FF31460CA84E
:105D3C0003F02BF82146802308AA0CA8FFF758FA89
:105D4C000CA802F09CFF08990798FEF750FE089CDF
:105D5C00A9E131460CA803F018F807AA4FF4FA731E
:105D6C0021460CA8FFF744FA04460CA802F087FF62
:105D7C0031460CA803F009F82146802308AA0CA888
:105D8C00FFF736FA0CA802F07AFF08990798FEF78D
:105D9C003AFEDCE731460CA802F0F7FF07AA4FF4F5
:105DAC00167321460CA8FFF723FA04460CA802F040
:105DBC0066FF31460CA802F0E8FF21464FF47A73D7
:105DCC0008AA0CA8FFF714FA0CA802F058FF0899BF
:105DDC000798FFF7FDFB77E731460CA802F0D5FFDB
:105DEC0007AA002321460CA8FFF702FA04460CA8C8
:105DFC0002F045FF31460CA802F0C7FF21464FF4D4
:105E0C007A7308AA0CA8FFF7F3F90CA802F037FF75
:105E1C00FEF79CFC08990798FFF73CFD3DE1FEF767
:105E2C0095FCFFF768FD38E131460CA802F0ADFF98
:105E3C004FF4B97307AA21460CA8FFF7D9F90CA89F
:105E4C0002F01DFF079C40F25623621E9A4200F29C
:105E5C002A811D4B00225C62DA6124E1FEF776FC9C
:105E6C00FFF744FD19E131460CA802F08EFF8023A8
:105E7C0007AA21460CA8FFF7BBF90CA802F0FFFEFD
:105E8C000798FEF709FD1FE7FEF716FD5CE0FEF72D
:105E9C00F5FD59E0FEF708FE56E00E4B01241C7090
:105EAC0001E10C4B1D70FDE0FFF7DCF94CE000BF8D
:105EBC0000D6032068CA0320E9A50D00BCD5032039
:105ECC00C8D20320A8CA0320D0C6032018A60D00F0
:105EDC003CD60320D3CA0320FEF738FCFFF706FD9F
:105EEC00FEF72CFC31460CA802F04FFF07AAB72393
:105EFC0021460CA8FFF77CF904460CA802F0BFFE63
:105F0C0031460CA802F041FF08AA214680230CA8B8
:105F1C00FFF76EF90CA802F0B2FE6D4B07996D48B5
:105F2C0000221A706C4B19606C4B089919606C4B01
:105F3C0001246FF000411C70FEF780FAB3E06FF0A3
:105F4C0000416448FEF73EFA0124ACE0FFF71CFD6B
:105F5C000446A8E031460CA802F017FFB72307AAA5
:105F6C0021460CA8FFF744F904460CA802F087FE62
:105F7C0031460CA802F009FF802308AA21460CA880
:105F8C00FFF736F90CA802F07AFE564B079C1C6002
:105F9C00554B089A1A60554B01221A7083E0314612
:105FAC000CA802F0F2FE07AA192321460CA8FFF751
:105FBC001FF904460CA802F062FE31460CA802F050
:105FCC00E4FE08AA962321460CA8FFF711F9044613
:105FDC000CA802F054FE31460CA802F0D6FE09AA19
:105FEC0021460A230CA8FFF703F90CA802F047FE80
:105FFC00FEF7ACFB07A807C8FEF7F2FB4DE03146F5
:10600C000CA802F0C2FE002307AA21460CA8FFF739
:10601C00EFF804460CA802F032FE31460CA802F050
:10602C00B4FE4FF47A7308AA21460CA8FFF7E0F8E7
:10603C0004460CA802F023FE31460CA802F0A5FE83
:10604C00192309AA21460CA8FFF7D2F804460CA87C
:10605C0002F015FE31460CA802F097FE96230AAA10
:10606C0021460CA8FFF7C4F804460CA802F007FE62
:10607C0031460CA802F089FE02230BAA21460CA87B
:10608C00FFF7B6F80CA802F0FAFDFEF75FFB0B9BCE
:10609C00009307A80FC8FEF7B9FBFEF74FFB144B94
:1060AC001C6800E0002403F07DF80B9B05930A9B11
:1060BC000493099B0393089B0293079B0193009401
:1060CC00069B0C4A012102F06DFD204610B070BDFC
:1060DC00D3CA032014C70320BCD50320C8D2032085
:1060EC00A8CA0320ECC7032060CA032094C703206E
:1060FC0000D603202DA60D0010B5154B188803F003
:10610C0047F9144B021E0CBF0121002119701C46CB
:10611C0008D10121104801F041FD4FF4AF714FF44B
:10612C00167007E0002211460B4801F037FDC8211C
:10613C004FF49670FFF74CFA03F034F823780749C4
:10614C00002B14BF59224E22FFF7DAFB10BD00BF03
:10615C001CC603202AD30320B4C6032077A60D0047
:10616C0010B51B4B1A7892B11A4C227852B10022FE
:10617C0022701A7003F016F8174902F0DAFCFFF7D8
:10618C00BBFF04E0322001F047FE01232370134BC8
:10619C001C7874B101F052FB114B1B68984215D955
:1061AC0003F000F80F4902F0C4FCBDE81040FEF704
:1061BC00ABBD0D4B1A784AB11C700C4B1B782BB134
:1061CC00FFF7E2FB18281CBF094B1C7010BD00BF69
:1061DC00FCD5032095C703208CA60D0058C70320BF
:1061EC00E4C70320A4A60D0064CA03202AD303200D
:1061FC00CCD2032013460A46002102F0D3BC000087
:10620C002DE9F3470546174698460E4603F084F9E8
:10621C00294602F025FA03F07FF90021FEF79CF8DD
:10622C00824603F079F98321FEF796F8044603F0D1
:10623C0073F9012102F01BFA814660B1544402F05B
:10624C00B1FFCDF8049000942B46754A012102F061
:10625C00A9FC0020E0E001F0F1FA00F59C5909F1ED
:10626C0008092846FFF7CCFA70B901F0E7FA48455F
:10627C0003D2642001F0D0FDF3E702F093FF2A462D
:10628C006849FFF73DFBE4E7674C23782BB102F03C
:10629C0089FF2A466549FFF733FB03F03DF9294690
:1062AC0002F0DEF903F038F90021FEF755F88246CA
:1062BC0003F032F9002102F0DAF9814630B102F034
:1062CC0071FF4B4652465A49FFF778F903F024F90F
:1062DC0029460A2202F0C1F903F01EF903685B6932
:1062EC009847054603F018F903685B6998472378CB
:1062FC0081464BB1EDB202F055FF00955FFA89F380
:10630C004C4A012102F04EFC03F006F903685B696C
:10631C0098472378C5B22BB102F044FF2A46464970
:10632C00FFF768FF03F0F8F803685B699847237878
:10633C00814633B102F036FF5FFA89F23E49FFF72E
:10634C0059FF4FEA092909F47F4914234D4495FB61
:10635C00F3F50A9B433D1D8003F0DEF803685B698F
:10636C0098472378C5B22BB102F01CFF2A4632495C
:10637C00FFF740FF03F0D0F803685B699847237878
:10638C005FFA80F92BB102F00DFF4A462A49FFF75C
:10639C0031FF05EB0925358003F0BEF803685B6916
:1063AC0098472378C5B22BB102F0FCFE2A4622494D
:1063BC00FFF720FF03F0B0F803685B699847237878
:1063CC00C6B22BB102F0EEFE32461B49FFF712FFAC
:1063DC0005EB06253D8003F09FF803685B69984741
:1063EC002378C5B22BB102F0DDFE2A461249FFF725
:1063FC0001FF03F091F803685B6998472378C6B2F4
:10640C002BB102F0CFFE32460B49FFF779FA05EBC0
:10641C000625A8F80050012002B0BDE8F08700BFA7
:10642C00E9A60D0049A70D00D3CA032019A70D003A
:10643C00FBA30D001CA40D0045A70D002DE9F04F8A
:10644C008FB0412807460B910AD031280CD0322846
:10645C000ED002F0A7FE3A464E49FFF751FA95E0EE
:10646C004D4C4FF0740B06E04C4C4FF0750B02E0AA
:10647C004B4C4FF0760B73B14A4D95F821000C2420
:10648C00B0FBF4F304FB1304E4B205EB0414013089
:10649C00243485F8210011463846FEF75BFA642057
:1064AC0001F0BAFC277001F0C9F94FF00009032381
:1064BC0060606370C8464E464D46CA4663789A453E
:1064CC0020DA0CAB00930DAA0DF136030DF132015D
:1064DC005846FFF795FE60B1BDF832301D44BDF84B
:1064EC0034301E44BDF836309844BDF830309944F1
:1064FC0005E002F057FE3A462B49FFF701FA0AF184
:10650C00010ADBE796FBF3F66681B6B295FBF3F571
:10651C0076432581ADB298FBF3F005FB0565A081B0
:10652C0080B299FBF3F900FB0050A4F80E90FEF733
:10653C0011F8064602F036FEB6B2054601F07EF9B9
:10654C000896A389079363890693238905931FFAF9
:10655C0089F909EBC909052399FBF3F320339BB2A5
:10656C000493E389039363780293104BB0FBF3F22B
:10657C0002FB13000B9B019000930D4A3B4601213B
:10658C00284602F00FFB3846FEF70CFA0FB0BDE8B8
:10659C00F08F00BF64A70D0048C703202CD3032045
:1065AC003CD30320E4D9032080A70D0040420F0008
:1065BC00A7A70D002DE9F04104460D46164601F043
:1065CC003DF907460120FEF735FA90B133462A46CD
:1065DC0021464120FFF732FF33462A46214631201F
:1065EC00FFF72CFF33462A4621463220FFF726FFC1
:1065FC0004E002F0D7FD0B4902F09BFAFEF736FAE5
:10660C00094B1B7863B102F0CDFD044601F016F97D
:10661C00064AC31B01212046BDE8F04102F0C2BA74
:10662C00BDE8F081E9A70D00D3CA03201CA80D001A
:10663C002DE9F04F87B08046894601F0FFF883467C
:10664C000120FEF7F7F9C8B902F0ACFD334902F0AE
:10665C0070FAFEF70BFA324B1B78002B5BD002F072
:10666C00A1FD044601F0EAF82E4ACBEB0003012110
:10667C00204607B0BDE8F04F02F094BA0024DFF8D2
:10668C00ACA0012627464FF000038AF821304A4679
:10669C00012341464120FFF7D1FE01234A464146E2
:1066AC003120FFF7CBFE4A46414601233220FFF74B
:1066BC00C5FEBAF82C20BAF83C10D51B002DB8BF7B
:1066CC006D42632D05DC0B1B002BB8BF5B42632BAB
:1066DC0010DD002441F2883005910492013601F05E
:1066EC009BFB002CB5D1332E049A0599B1D00C46E6
:1066FC001746C8E7049302F055FD049B00935922FA
:10670C0001920121084A02962B4602F04BFA2146CF
:10671C003A460124DEE707B0BDE8F08FE9A70D008B
:10672C00D3CA03201CA80D002DA80D00E4D903200A
:10673C002DE9F04105468CB00C46FEF73FFD0A2DC5
:10674C0000F078816FDC052D00F0D28037DC012D54
:10675C0000F09B8015DC002D40F0428202F0F2FB31
:10676C00A94BAA49186008A802F0D0FA41F270713E
:10677C0008A8FEF7D3FC08A802F081FA4FF47A704F
:10678C0014E2022D00F09380042D40F0298202A91E
:10679C002046FEF789FC03A9FEF786FC9C490446BB
:1067AC0008A802F0B3FA029908A8FEF7B7FC08A8EB
:1067BC0002F065FA02990398FEF70AFF10E2072D22
:1067CC0000F0C880C0F2B680082D00F0EB80092DD7
:1067DC0040F006828F4908A802F098FA8E4B19688F
:1067EC00A1F5B24142390029B8BF49429623594319
:1067FC0008A88A4B91FBF3F1FEF790FC08A802F075
:10680C003EFAFFF773F8864908A802F07FFA41F2C6
:10681C00707108A8FEF782FC08A802F030FA012279
:10682C008021B72036E10F2D00F060810CDC0D2D9E
:10683C0000F03F8100F33F81204602A9FEF734FCB3
:10684C0000240546774E30E1122D00F052810FDC0A
:10685C00102D40F0C58102A92046FEF725FC03A9A6
:10686C00FEF722FC039904460298FFF713F8B7E1F0
:10687C00132D00F09E81632D40F0B28102F062FB7B
:10688C00614B5860FEF7FCFBAAE102A92046FEF71B
:10689C000BFC6549044608A802F038FA029908A8CE
:1068AC00FEF73CFC08A802F0EAF902987EE102A986
:1068BC002046FEF7F9FB03A9FEF7F6FB5B490446FD
:1068CC0008A802F023FA029B83EAE371A1EBE371BF
:1068DC00039B08A84B43514993FBF1F1FEF71EFCB7
:1068EC0008A802F0CCF9029B0399C82058431EE07B
:1068FC0002A92046FEF7D8FB03A9FEF7D5FB4B49AE
:10690C00044608A802F002FA029B83EAE371A1EBA9
:10691C00E371039B08A84B4346F2A81193FBF1F1DA
:10692C00FEF7FCFB08A802F0AAF903990298FDF700
:10693C00C3FE55E102A92046FEF7B6FB03A9FEF7FC
:10694C00B3FB04A9FEF7B0FB044602A807C8FDF789
:10695C0047FF45E12F4908A802F0D8F92E4B1968DA
:10696C00A1F5B24142390029B8BF49429623594397
:10697C0008A82A4B91FBF3F1FEF7D0FB08A802F014
:10698C007EF9FEF7B3FF2A4908A802F0BFF941F2DD
:10699C00707108A8FEF7C2FB08A802F070F98021FC
:1069AC00B7202EE002A92046FEF77EFB03A9FEF7D6
:1069BC007BFB1849044608A802F0A8F9164B196885
:1069CC00A1F5B24142390029B8BF49429623594337
:1069DC0008A8124B91FBF3F1FEF7A0FB08A802F0FC
:1069EC004EF9FEF783FF124908A802F08FF941F225
:1069FC00707108A8FEF792FB08A802F040F9039901
:106A0C000298FFF715FEEBE0E4D9032054A80D0023
:106A1C0079A80D0081A80D0000D60320400D0300BD
:106A2C00C8A80D00E0C7032062A80D006AA80D00DD
:106A3C00A7A80D0002A92046FEF736FB03A9FEF716
:106A4C0033FB6949044608A802F060F9674B1968E2
:106A5C00A1F5B24142390029B8BF494296235943A6
:106A6C0008A8634B91FBF3F1FEF758FB08A802F062
:106A7C0006F9FEF73BFF5F4908A802F047F941F21F
:106A8C00707108A8FEF74AFB08A802F0F8F8039901
:106A9C0002980122FFF78EFDA2E03378002B40F024
:106AAC00A080284600F0C0F80134029BA342F4DC1D
:106ABC0097E0604295E002A92046FEF7F5FA4E49B0
:106ACC00044608A802F022F9002108A8FEF726FBCC
:106ADC0008A802F0D4F8029A40F25623511E9942AB
:106AEC007ED8464B5A620022DA6179E0FEF703FF4A
:106AFC0076E002A92046FEF7D7FA03A9FEF7D4FAEE
:106B0C0004A9FEF7D1FA3E4B1B78044633B102F0D0
:106B1C0049FB049B3B4A012102F044F83A4F002602
:106B2C00049BB34236DD3D78002D33D105A92046B8
:106B3C00FEF7BAFA06A9FEF7B7FA07A9FEF7B4FAF8
:106B4C00069AC8235343044606934FF47A78059B60
:106B5C00AB421DDD2D4908A802F0D8F8069B83EA4C
:106B6C00E371A1EBE371029B4B43079993FBF8F3A1
:106B7C0008A81944FEF7D2FA08A802F080F8029986
:106B8C000698FDF799FD0798FEF726FB0135DEE721
:106B9C000136C5E71E4908A802F0B8F8039908A801
:106BAC00FEF7BCFA08A802F06AF80398FEF714FB8B
:106BBC0016E002A92046FEF777FA03A9FEF774FA4D
:106BCC0004A9FEF771FA05A9FEF76EFA06A9FEF7FD
:106BDC006BFA069B0093044602A80FC8FDF716FE3D
:106BEC0020460CB0BDE8F08181A80D0000D6032032
:106BFC00400D0300C8A80D00E0A80D00D0C603206E
:106C0C00D3CA032002A90D00E0C703206AA80D0017
:106C1C001EA90D00034A12780AB9FFF789BD084670
:106C2C00704700BFE0C7032013B501A90446FEF767
:106C3C003BFA014664B9019B53B1114B01221A7006
:106C4C0002F0B0FA0F4901F074FF4FF0FF3015E07D
:106C5C0001980B4CFFF7DEFF019B632B0BD0002838
:106C6C0009DD23783BB901A9FEF71EFA014601980C
:106C7C00FFF7D0FFF0E70028B8BF404202B010BDCC
:106C8C00E0C703203DA90D001FB52C4B01221A7043
:106C9C0002F088FA2A4901F04CFF2A4B28490024BB
:106CAC0068461C6002F032F821466846FEF736FA58
:106CBC00684601F0E4FF00F0EFFF4FF4FA6001F0DA
:106CCC00ABF800F0F1FF044638B102F06BFA1E4944
:106CDC0001F02FFFFDF734FBEFE7FDF753FD4FF409
:106CEC00FA614FF41670FEF773FC4FF4FA6001F082
:106CFC0093F82146204600F041FD2046FFF794FF13
:106D0C002146012000F03AFD00F0BEFF4FF4FA607E
:106D1C0001F082F800F0C8FF38B902F043FA0B49D1
:106D2C0001F007FFFDF70CFBF0E7094B094A1B7854
:106D3C0083F00103137004B010BD00BF3CC70320E7
:106D4C0055A90D00C8C703205CAA0D0062A90D004F
:106D5C00E0C7032059C7032013460A46012101F05E
:106D6C0021BF000038B5072204460D490D4802F03A
:106D7C0026FE054660B902F015FA22460A49FFF7CD
:106D8C00EBFF0A4B1D702046BDE83840FEF720B8DB
:106D9C0002F008FA0649BDE8384001F0CABE00BF4F
:106DAC00F2A10D00A0C7032064A90D00E8C70320C1
:106DBC009CA90D001E4B002273B51A7006460722C3
:106DCC000C461C481C491D4D02F0F9FDB0FA80F030
:106DDC004009287002F0E6F92B781949002B14BFF2
:106DEC0059224E22FEF78CFD2B78B3B1214630464A
:106DFC00FEF74AFC48B1134B01221A7002F0D2F98B
:106E0C0022461149FFF7A8FF0FE002F0CBF90F491A
:106E1C0002B0BDE8704001F08CBE02F0C3F90094E2
:106E2C0033460B4A012101F0BDFE02B070BD00BF1C
:106E3C0058C70320A0C70320F2A10D00CCD2032019
:106E4C00B0A90D0021D60320C8A90D00EEA90D0094
:106E5C000AAA0D0030B500238BB0042289498A4858
:106E6C008A4D00F0F9FE8A4A8A498B4801F0C0F835
:106E7C008A4A8B49884801F0BBF806A800F01CFF31
:106E8C0006A9884801F08CFF06A801F0F8FE864997
:106E9C0002A801F03BFF834902A801F0B1FF0024D6
:106EAC00014606A801F071FF234622467F49019452
:106EBC000094069800F010FF06A801F0E0FE02A86E
:106ECC0001F0DDFE7A4902A801F020FF754902A805
:106EDC0001F096FF014606A801F057FF2346224613
:106EEC00744901940094069800F0F6FE06A801F08F
:106EFC00C6FE02A801F0C3FE1922234629466948A2
:106F0C0001F08AFF6C4B2C766C4D1888022102F034
:106F1C0015FA0221288802F011FA694B0122114658
:106F2C001888FEF718FB674B2146188802F006FA02
:106F3C00654B224618880121FEF7FEFA634B224668
:106F4C0018880121FEF7F8FA614B224618880121B6
:106F5C00FEF7F2FA5F4B2146188802F0EFF95E4B10
:106F6C002146188802F0EAF95C4B2146188802F099
:106F7C00E5F95B4B224618880121FEF7ECFA594BD8
:106F8C00224618880121FEF7E6FA574B224618884C
:106F9C000121FEF7E0FA554B802218880121FEF7FB
:106FAC00CBFA534B224618880121FEF7C5FA514BF8
:106FBC0022461888504C0121FEF7BEFA02F0F2F876
:106FCC004FF4E13102F0E2F8FDF7E2FA228840F6E4
:106FDC0006439A4201D0FDF713FBFEF743F902F08A
:106FEC00E1F8464901F0A5FD0120FDF7CBFB02F0CD
:106FFC00D9F8434901F09DFD80214FF4FA70FDF75B
:10700C00DEFC4FF4FA7000F007FF80214FF4FA70A9
:10701C00FDF7E1FC4FF4FA7000F0FEFE80214FF416
:10702C00FA70FDF7E4FC02F0BDF8364901F081FD81
:10703C00FEF7EAFAFEF744F9FFF75EF800224FF08C
:10704C00FF3328883049009201F01EFB02F0AAF8A9
:10705C000E4A2E49FFF780FE02F0A4F8A27823789E
:10706C000192627800920121294A01F09BFDFDF703
:10707C0005FD00F0E3FB274B00F59C500830186031
:10708C000BB030BD4DD303202BAA0D00D4D203205E
:10709C0034AA0D001D5B0D00D17F0D003CAA0D0024
:1070AC0025710D00CCC7032045AA0D0009410D0028
:1070BC005EAA0D00CD410D0028C603201CC603207E
:1070CC0034C6032038C6032000C603200CC6032098
:1070DC0018C6032024C603202CC6032010C6032088
:1070EC003CC6032030C6032008C6032014C6032068
:1070FC0020C6032004C603203CD6032074AA0D002E
:10710C0084AA0D0094AA0D00CD400D00A9AA0D0073
:10711C00B7AA0D00C8DA032010B58368182B11D15B
:10712C000A4C19222146002301F076FE0023237617
:10713C0002F038F822460649FFF70EFEFDF7E4FD93
:10714C00012010BD4FF0FF3010BD00BF08D603204A
:10715C0010AB0D007FB5324B324D00221A702B78DC
:10716C00222B04D002F01EF82A462F491AE0FDF714
:10717C00A9FEFDF751FE2D4C064602F013F82C4BE0
:10718C00009301212B4B029601942B4A01F00AFD2E
:10719C002A4B2848196802F0CCFB50B102F002F8D7
:1071AC0027492A46FFF7D8FD04B0BDE87040FDF72B
:1071BC00B7BE24491F4802F0BCFB30B9314620460B
:1071CC0004B0BDE87040FFF7F5BD1F49194802F047
:1071DC00B0FB20B904B0BDE87040FDF7D1BD1B4930
:1071EC00144802F0A6FB20B904B0BDE87040FEF7CD
:1071FC00B1B817490F4802F09CFB20B904B0BDE8A8
:10720C007040FEF7D1B813490A4802F092FB28B936
:10721C00204604B0BDE87040FFF7A4BD04B070BDBB
:10722C0029D30320CCDA03202EAB0D00D4D50320B8
:10723C00A0C703205AC7032056AB0D00C0D50320AE
:10724C0082AB0D00B0A10D006FA30D00A3A30D0028
:10725C007AA30D00A3AB0D0030B5144B85B0012201
:10726C000C461A70054600F0E9FA114B00F59C40EB
:10727C002030186001F096FF22460E49FFF76CFD96
:10728C002846FDF7CBFE01F08DFF0B4901F051FCB8
:10729C000A49684601F03AFD002221466846FDF78E
:1072AC00A5FC684601F0EBFC05B030BDE8C7032037
:1072BC0004D60320AFAB0D004DD30320A3AB0D00C0
:1072CC0010B501F06FFF0B4901F033FC0A4B0020A5
:1072DC00E42202FB00F15C1894F8204034B1064B18
:1072EC0020311944BDE81040FFF7B6BF0130042827
:1072FC00EFD110BDCDAB0D003CD6032038B5404BC3
:10730C001B781BB33F4C25783DB101F04BFF3E4938
:10731C0001F00FFC0023237027E03C4C237833B1A1
:10732C0001F040FF3A4901F004FC257031E0394B83
:10733C001B78F3B100F082FA374B1B68834218D2EA
:10734C0001F030FF354901F0F4FB0EE0344B1B78B3
:10735C0083B300F073FA334B1B6898422AD901F0BF
:10736C0021FF314901F0E5FB20E0BDE83840FEF794
:10737C0071B82E4B1B78002B41D000F05FFA2C4BD0
:10738C001B68984200D838BD01F00CFF294901F068
:10739C00D0FBBDE83840FEF795B8274C2378C3B135
:1073AC0001F000FF254901F0C4FB2570BDE8384011
:1073BC00FEF724B8224C2578002DEED001F0F2FE19
:1073CC00204901F0B6FB00232370BDE83840FFF7DD
:1073DC005BBC1D4B1B785BB100F030FA1B4B1B6880
:1073EC0098420CD901F0DEFE194901F0A2FB02E033
:1073FC00FEF78CFA18B1BDE83840FFF761BF38BD15
:10740C003CC70320E0C70320DDAB0D0059C70320A8
:10741C00EDAB0D0065CA032030C7032030AC0D0066
:10742C00E1C7032040C70320ADAC0D00D2CA032036
:10743C00DCC703206FAC0D0021D6032054A80D002F
:10744C004CD30320FCAB0D00E8C7032004D603206B
:10745C0014AC0D007FB5304E304C01F0A3FE036828
:10746C001B69984740B301F09DFE03685B69984720
:10747C002368F05401F096FE03681B699847236853
:10748C00054638B10133282193FBF1F201FB12338D
:10749C002360E2E7F05401F085FE1F4901F049FB3F
:1074AC001D492560684601F031FC6846FEF730FB4B
:1074BC00684601F0E4FBD0E7194B1C783CB101F0B5
:1074CC0071FE184901F035FBFFF744FE22E0FEF790
:1074DC0047FEFFF713FF144B1A783AB11C70134B8D
:1074EC001968134B22461868FFF764F8114B1A7889
:1074FC003AB100221A700D4B19680F4B1868FFF740
:10750C0097F80E4B1A682AB100221A60FDF706FB99
:10751C00FDF7DEF904B070BDAACA032090E4032085
:10752C0029D30320E9AC0D00A8CA0320C8D203203C
:10753C00BCD5032094C70320ECC7032038C7032015
:10754C002DE9F043614B624F624EDFF8CC8101258F
:10755C001D70614B87B002241C7000F09FF94FF432
:10756C0000735E4A4EF660213846FCF78FFE3246B9
:10757C005B49384602F012F800221E21204600F02A
:10758C004FFB584F01954FF014090346CDF800906E
:10759C0022464FF47F01384601F016F93246414637
:1075AC00384601F0FBFF00220A21204600F038FB90
:1075BC004D4FCDF800900346224601954FF47F4184
:1075CC00384601F001F9494CDFF8509132464146FA
:1075DC00384601F0E3FF464B029302AA0023454FC5
:1075EC00DFF83C81CDF8149041F2883120460497A5
:1075FC00FCF7B6FE02A8FCF70BFE324641462046CD
:10760C0001F0CCFF3C4A3D4B12681A603C4A04978F
:10761C0012685A604FF448721A614FF4B972002420
:10762C004FF47A715A62374F99636422DC601C7292
:10763C005C619C61DA621D635D63DD631D64324BCA
:10764C00029302AA23463846CDF81490FCF788FE24
:10765C0002A8FCF7DDFDDFF8CC9038462B4F324604
:10766C00414601F09BFFDFF8C0804946384601F0E7
:10767C004DFB3846264F3246414601F08FFF4946B6
:10768C00384601F043FB32464146384601F086FF4E
:10769C00204B0C225A702146FF22062628461E70CB
:1076AC009A7000F09DFA01F00DFE2346224641F23D
:1076BC00FB0101F00FFE01F005FE23462246314688
:1076CC0001F010FE07B0BDE8F08300BF78C70320BF
:1076DC007CC70320ACC6032044C70320F5400D0033
:1076EC0055420D0088CA0320B0C6032014C70320DE
:1076FC00B5400D00DD400D0004C60320D0C60320AC
:10770C0024C603206CCA0320C1400D00CCC7032043
:10771C00C0D503203CD603209D410D00D9400D005F
:10772C00F1430D00E2A30D008B8C0D0008B5024B4C
:10773C001B685B68019308BD4802030008B5024B47
:10774C001B689B68019308BD4802030008B5024BF7
:10775C001B68DB68019308BD4802030008B5024BA7
:10776C001B681B69019308BD4802030008B5024B56
:10777C001B685B69019308BD4802030008B5024B06
:10778C001B68DB69019308BD4802030008B5024B76
:10779C001B681B6A019308BD4802030008B5024B25
:1077AC001B685B6A019308BD4802030008B5024BD5
:1077BC001B689B6A019308BD4802030008B5024B85
:1077CC001B68DB6A019308BD4802030008B5024B35
:1077DC001B681B6B019308BD4802030008B5024BE4
:1077EC001B685B6C019308BD4802030008B5024B93
:1077FC001B68DB6E019308BD4802030008B5024B01
:10780C001B681B6F019308BD4802030008B5024BAF
:10781C001B685B68019308BD1802030008B5024B96
:10782C001B689B68019308BD1802030008B5024B46
:10783C001B68DB68019308BD1802030008B5024BF6
:10784C001B685B69019308BD1802030008B5024B65
:10785C001B68DB69019308BD1802030008B5024BD5
:10786C001B689B6A019308BD1802030008B5024B04
:10787C001B68DB6A019308BD1802030008B5024BB4
:10788C001B681B6B019308BD1802030008B5024B63
:10789C001B689B6D019308BD1802030008B5024BD1
:1078AC001B681B68019308BD2C02030008B5024B32
:1078BC001B685B68019308BD2C02030008B5024BE2
:1078CC001B689B68019308BD2C02030008B5024B92
:1078DC001B68DB68019308BD2C02030008B5024B42
:1078EC001B681B69019308BD2C02030008B5024BF1
:1078FC001B685B69019308BD2C02030008B5024BA1
:10790C001B689B69019308BD2C02030008B5024B50
:10791C001B68DB69019308BD2C02030008B5024B00
:10792C001B689B6A019308BD2C02030008B5024B2F
:10793C001B681B6B019308BD2C02030008B5024B9E
:10794C001B689B6F019308BD2C02030008B5024B0A
:10795C001B68DB6F019308BD2C02030008B5024BBA
:10796C001B681B68019308BD2802030008B5024B75
:10797C001B68DB68019308BD2802030008B5024BA5
:10798C001B681B69019308BD2802030008B5024B54
:10799C001B685B69019308BD2802030008B5024B04
:1079AC001B689B69019308BD2802030008B5024BB4
:1079BC001B68DB69019308BD2802030008B5024B64
:1079CC001B681B6A019308BD2802030008B5024B13
:1079DC001B685B6A019308BD2802030008B5024BC3
:1079EC001B689B6A019308BD2802030008B5024B73
:1079FC001B68DB6A019308BD2802030008B5024B23
:107A0C001B681B6B019308BD2802030008B5024BD1
:107A1C001B685B6B019308BD2802030008B5024B81
:107A2C001B681B6C019308BD2802030008B5024BB0
:107A3C001B685B69019308BD6402030008B5024B27
:107A4C001B689B68019308BD6802030008B5024BD4
:107A5C001B68DB68019308BD6802030008B5024B84
:107A6C001B681B68019308BD2402030008B5024B78
:107A7C001B68DB69019308BD3002030008B5024B9B
:107A8C001B681B6A019308BD3002030008B5024B4A
:107A9C001B681B68019308BD3C02030008B5024B30
:107AAC001B689B68019308BD3C02030008B5024BA0
:107ABC001B68DB68019308BD3C02030008B5024B50
:107ACC001B681B69019308BD3C02030008B5024BFF
:107ADC001B685B69019308BD3C02030008B5024BAF
:107AEC001B689B69019308BD3C02030008B5024B5F
:107AFC001B68DB69019308BD3C02030008B5024B0F
:107B0C001B681B6A019308BD3C02030008B5024BBD
:107B1C001B689B6A019308BD3C02030008B5024B2D
:107B2C001B68DB6A019308BD3C02030008B5024BDD
:107B3C001B681B68019308BD4C02030008B5024B7F
:107B4C001B685B68019308BD4C02030008B5024B2F
:107B5C001B681B69019308BD4C02030008B5024B5E
:107B6C001B685B69019308BD4C02030008B5024B0E
:107B7C001B689B69019308BD4C02030008B5024BBE
:107B8C001B68DB69019308BD4C02030008B5024B6E
:107B9C001B681B6A019308BD4C02030008B5034B1C
:107BAC001B68D3F88030019308BD0000600203000D
:107BBC0008B5024B1B681B68019308BD200203002B
:107BCC0008B5024B1B685B68019308BD20020300DB
:107BDC0008B5024B1B685B69019308BD20020300CA
:107BEC0008B5024B1B68DB6A019308BD2002030039
:107BFC0008B5024B1B68DB6C019308BD2002030027
:107C0C0008B5024B1B685B6D019308BD2002030095
:107C1C0008B5024B1B689B6D019308BD2002030045
:107C2C0008B5024B1B68DB6F019308BD20020300F3
:107C3C0008B5034B1B68D3F88830019308BD0000CE
:107C4C002002030008B5034B1B68D3F89430019352
:107C5C0008BD00002002030008B5024B1B681B681E
:107C6C00019308BD4402030008B5024B1B685B6816
:107C7C00019308BD4402030008B5024B1B689B68C6
:107C8C00019308BD4402030008B5024B1B68DB6876
:107C9C00019308BD4402030008B5024B1B681B6925
:107CAC00019308BD4402030008B5024B1B685B69D5
:107CBC00019308BD4402030008B5024B1B68DB6945
:107CCC00019308BD4402030008B5024B1B681B6AF4
:107CDC00019308BD4402030008B5024B1B685B6AA4
:107CEC00019308BD4402030008B5024B1B681B6BD3
:107CFC00019308BD4402030008B5024B1B68DB6B03
:107D0C00019308BD4402030008B5024B1B685B6875
:107D1C00019308BD4002030008B5024B1B689B6829
:107D2C00019308BD4002030008B5024B1B68DB68D9
:107D3C00019308BD4002030008B5024B1B681B6988
:107D4C00019308BD4002030008B5024B1B685B6938
:107D5C00019308BD4002030008B5024B1B689B69E8
:107D6C00019308BD4002030008B5024B1B68DB6998
:107D7C00019308BD4002030008B5024B1B681B6A47
:107D8C00019308BD4002030008B5024B1B681B6B36
:107D9C00019308BD4002030008B5024B1B685B6BE6
:107DAC00019308BD4002030008B5024B1B681B6819
:107DBC00019308BD1C02030008B5024B1B685B68ED
:107DCC00019308BD1C02030008B5024B1B689B689D
:107DDC00019308BD1C02030008B5024B1B68DB684D
:107DEC00019308BD1C02030008B5024B1B685B6ABB
:107DFC00019308BD1C02030008B5024B1B68DB6A2B
:107E0C00019308BD1C02030008B5024B1B681B6BD9
:107E1C00019308BD1C0203000021FFF7D9BE10B569
:107E2C00836804460BB901F0D8FBC3689847A36874
:107E3C001BB1032221462046984720461021BDE85D
:107E4C00104001F0B0BB10B5036804469B6898471E
:107E5C00A368013BA3602BB923682046DB68BDE80F
:107E6C001040184710BD0B68036013B15A680132FB
:107E7C005A60704710B50446006828B14368013B4E
:107E8C0043600BB9FFF7DFFF204610BD024800230B
:107E9C000360FFF7A3BC00BF94E40320002211464B
:107EAC004068FFF749BF002211464068FFF764BFE6
:107EBC00002211464068FFF76FBF00224068FFF7B1
:107ECC0063BF002281F001014068FFF74DBF002322
:107EDC001A4619464068FFF73FBF00231A46194659
:107EEC004068FFF731BF002211464068FFF714BF0E
:107EFC00002202214068FFF717BF00231A46406892
:107F0C00FFF702BF38B5084C28252A460021204629
:107F1C0001F0CFFC4FF0FF336360044B258004224B
:107F2C005A60034A1A6038BDA0E4032098E4032089
:107F3C00B0AD0D0070470020704710B510210446FD
:107F4C0001F031FB204610BD08B508B1FFF7F5FF75
:107F5C0008BD0022026010B54FF69C728280B1F908
:107F6C00044084808A8002680C6804600A6010BD3A
:107F7C0010B504460068FFF71FFF204610BD38B54A
:107F8C00C468F4B12378022B03D104F10C00FFF781
:107F9C00EFFF656835B12846FCF73AF91021284601
:107FAC0001F001FBA56835B12846FCF731F9102129
:107FBC00284601F0F8FA20461421BDE8384001F0BB
:107FCC00F2BA38BD10B588B00446684600F09EFE83
:107FDC00694604A800F0D9FE04A8A047044604A8EA
:107FEC0000F04DFE684600F04AFE204608B010BD79
:107FFC00F0B5102485B007460E46154600212246E2
:10800C00684601F056FC002269461046ADF8004067
:10801C00029703960195FFF727FE05B0F0BD13B547
:10802C00044691E8050000234B600B602060626001
:10803C0001A801930093FFF71DFF204602B010BD6D
:10804C00F7B50C4602AD54F8043B45F8083D06461E
:10805C000F4601A82146FFF706FF29463046FFF7D9
:10806C00DEFF01A8FFF706FF2046FFF703FF3846A7
:10807C00082101F098FA304603B0F0BD13B50B4659
:10808C00044603C88DE8030093E8030084E803006A
:10809C009DE8030083E8030002B010BD38B500234F
:1080AC000446036010200D46FBF7EFFF28B10123B7
:1080BC0043608360024B0360C5602060204638BD7E
:1080CC00E4AD0D00826810B50AB901F086FAC368F8
:1080DC00BDE81040184708B5006800F11001FFF723
:1080EC00F1FF08BD826810B50AB901F076FAC368D1
:1080FC00BDE81040184708B5006800F11001FFF703
:10810C00F1FF08BD38B5002383608B6804460D462B
:10811C002BB102229847EB68E360AB68A360204662
:10812C0038BD0000F0B589B004686846FFF711FF50
:10813C0000238DF808304FF00202D4E84F3F002B9B
:10814C0003D1C4E8412F0029F7D102D08DF80830B3
:10815C0063E014F10C0503D069462846FFF7F9FEDD
:10816C00BFF35F8F01236370002004F10803BFF39A
:10817C005F8F53E8006F43E80002002AF9D1BFF388
:10818C005F8F002E49D0FFF733FD20B129463046D2
:10819C00FFF798FF3AE0314602A8FFF7B3FFE0681B
:1081AC00B4F9105008B101F0E7FB06901020ADF8BF
:1081BC001C50FBF76AFF0546E8B1002787601820C2
:1081CC00FBF763FF044688B10146876002A8FFF7FE
:1081DC0055FF049BA268A360059B049206A9E26864
:1081EC00E36004F110000592FFF7B3FE0D4BEB605A
:1081FC000D4B2C60AB6006A8FFF7BAFE02A8FCF78B
:10820C0007F8002229460948FFF7FAFC3046FBF72D
:10821C00FFFF1021304601F0C6F96846FFF7A8FEB3
:10822C0009B0F0BDE3800D0059830D002B7E0D00CD
:10823C002DE9F04F8BB006460F46904699469DF8B7
:10824C0050A0FFF731FD07AD834630BB4FF62E73C0
:10825C00059005A92846ADF81830FFF77AFE1420D2
:10826C00FBF713FF044658B102230370012343703C
:10827C00C0F804B0C0F808B029460C30FFF769FE0E
:10828C003046214640F8044BFFF708FF2846FFF71D
:10829C006FFE05A8FFF76CFE52E000240C2314209F
:1082AC006C60AC600793FBF7F0FE014618B10470EC
:1082BC0044704460846004A80391FFF7EFFE224BE6
:1082CC0008930820FBF7E1FE044628B1039B40F815
:1082DC00043B04A9FFF7C7FD00955FFA8AF34A46F1
:1082EC00414638460994FFF7EFFC20B9039B5B78B5
:1082FC0003F0FF0283B1039B059304A906A8FFF7C3
:10830C00B2FD05A93046FFF78AFE06A8FFF7B2FDBD
:10831C0004A8FFF7AFFD13E04FF69C7305A903A863
:10832C000592ADF81830FFF7FDFE05A8FFF720FE0B
:10833C0005A80999FFF784FE06A8FFF79BFDDAE76D
:10834C0030460BB0BDE8F08FC9840D00022AF8B599
:10835C00044606D0032A17D0012A22D10B680360E9
:10836C001FE018200E68FBF790FE054650B1314611
:10837C00FFF7C8FE3069B6F9147008B101F0FCFAC9
:10838C002861AF8225600CE0046854B104F1100040
:10839C00FFF7EEFD2046FBF73BFF1821204601F0CE
:1083AC0002F90020F8BD38B5002383608B680446C1
:1083BC000D462BB102229847EB68E360AB68A360D3
:1083CC00204638BD022A70B5044606D0032A11D0C7
:1083DC00012A18D10B68036015E014200E68FBF716
:1083EC0054FE054620B13146FFF7DDFF337C2B747C
:1083FC00256008E0046834B12046FBF709FF14211E
:10840C00204601F0D0F8002070BD0000F0B500232C
:10841C0087B00C46BFF35F8F50E8006F40E8003226
:10842C00002AF9D1BFF35F8F002E3FD01846FFF71B
:10843C00DFFB074620B121463046FFF753FE2EE006
:10844C00314601A8FFF7AFFF23788DF814301020C8
:10845C00FBF71BFE0546D0B187601420FBF715FE19
:10846C00044678B18760014601A8FFF707FE039B1D
:10847C00A268A360049B0392E268E3609DF8143049
:10848C00049223740A4BEB600A4B2C60AB6001A87E
:10849C00FBF7BEFE002229460748FFF7B1FB30462A
:1084AC00FBF7B6FE1021304601F07DF807B0F0BDA9
:1084BC0003810D00D1830D002B7E0D0030B585B0EE
:1084CC0004460D4668461146FFF7BAFD7CB124B24E
:1084DC0028460DB101F050FA029002A96846ADF899
:1084EC000C40FFF71FFE02A8FFF742FD1DE00098AD
:1084FC008DF808404FF00102D0E84F3FA34203D162
:10850C00C0E8412F0029F7D102D08DF808300CE0DB
:10851C0010F10C014FF0010318BF0373BFF35F8F11
:10852C00043000F8033CFFF771FF01A8FFF7A2FC31
:10853C0005B030BD002211464068FFF71DBC00227B
:10854C0011464068FFF728BC00224068FFF71CBCAE
:10855C00002281F001014068FFF706BC00231A4697
:10856C0019464068FFF7F8BB00231A4619464068C5
:10857C00FFF7EABB002211464068FFF7DDBB002283
:10858C0011464068FFF7C8BB002202214068FFF784
:10859C00CBBB00231A464068FFF7B6BB024B032245
:1085AC005A60024A1A607047C8E4032000AE0D00FE
:1085BC007047F8B5064615460C468F18BC4206D0D7
:1085CC00336814F8011B9B6830469847F6E7284639
:1085DC00F8BD0022007CFFF7F1B90021007CFFF709
:1085EC00F5B90021007CFFF7F9B90021007CFFF7F9
:1085FC00FDB90021007CFFF701BA10B51421044627
:10860C0000F0D1FF204610BD10B504464FF47A732C
:10861C000846A3600021044B207461602360FFF7BF
:10862C00FDF9204610BD00BF34AE0D000022007CC9
:10863C00FFF794B900231A461946007CFFF796B948
:10864C000021007CFFF79AB913B50024007C00943C
:10865C00FFF79CF9C0B202B010BD0123FFF7F4BFC5
:10866C000022007CFFF79AB9C9B2FFF7F9BF0022CC
:10867C00007CFFF79BB90121FFF7F9BF0021007CBB
:10868C00FFF7C4B900470000F0B585B01C460E4694
:10869C0017460546FFF73AF9002084424FF00403D1
:1086AC0003908DF80C30A5BF9DF828308DF80E3056
:1086BC00034603AB009332463B460649A8BF8DF8F0
:1086CC000D402846FFF71AF9B0FA80F0400905B0C2
:1086DC00F0BD00BF91860D00704710B518210446FF
:1086EC0000F061FF204610BDF0B5037D062B8DB068
:1086FC000E4600F104074FF0000402D000F108050B
:10870C0018E00CAD394605F8304D2F232A460A20C7
:10871C00FFF78CF9284601F04AF933680246DB680A
:10872C002946304698470FE024B12E21304600F000
:10873C00F1F9044415F8011D0A22304600F030FA14
:10874C00BD420444F0D120460DB0F0BD10B5054B30
:10875C000446112240F8043B002101F0AAF82046FF
:10876C0010BD00BF5CAE0D000346074A10B543F8C0
:10877C00042B01F1100251F8044B43F8044B9142C5
:10878C00F9D10A781A7010BD5CAE0D0010B59DF8C9
:10879C00084044EA032343EA024242EA016104230B
:1087AC004160037510BD37B50D788B784A78C97860
:1087BC0000912946FFF7EAFF03B030BD0A680B466B
:1087CC00926801461846104770B50E4C04601C2484
:1087DC0044609DF814409DF8106004F0030444EAD2
:1087EC0086040025E4B20474427485744161427CB1
:1087FC0085600F2A08BF044BC56006BF8361C0614A
:10880C00038370BDA09B0D00C9870D00014B024A6C
:10881C001A607047D0E40320D3AE0D00002211463D
:10882C004068FFF7A9BA002211464068FFF7B4BAB6
:10883C0000224068FFF7A8BA002281F001014068CD
:10884C00FFF792BA00231A4601214068FFF784BA59
:10885C0000231A4619464068FFF776BA00221146E3
:10886C004068FFF769BA002211464068FFF754BA16
:10887C00002202214068FFF757BA00231A464068CD
:10888C00FFF742BA38B5054688B104684CB1A36805
:10889C001BB103222146204698471021204600F0A8
:1088AC0082FE28461421BDE8384000F07CBE38BD5D
:1088BC0010B103685B681847704710B5036804462D
:1088CC00BBB15868FEF73AFF78B923685A7C12B9E5
:1088DC005868FEF743FF23685868FEF747FF206887
:1088EC000023236028B1FFF7CDFF206808B1FFF704
:1088FC00C9FF204610BD000038B50C4B0360044680
:10890C00D0F8CC0108B1FBF7C4FBD4F8C45135B195
:10891C002846FFF7D2FF0421284600F044FEA06849
:10892C0008B1FFF7C5FF204638BD00BF44AF0D00AE
:10893C0038B50E4C0E4B23600025022304F5E47071
:10894C006360A560C4F8C451C4F8C851FEF746FF73
:10895C00084BC4F8CC5184F8D05123602046064A09
:10896C000649BDE8384000F019BE00BFD4E403202E
:10897C0078AF0D0044AF0D00ACC6032005890D0087
:10898C0000231A464068FFF7BFB900220221406855
:10899C00FFF7CAB9002211464068FFF7BDB90022A3
:1089AC0011464068FFF7C8B900231A4619464068BB
:1089BC00FFF7CAB900231A4619464068FFF7CCB92D
:1089CC00002281F001014068FFF7CEB90022406817
:1089DC00FFF7DAB9002211464068FFF7DDB9002233
:1089EC0011464068FFF7C8B92DE9F043002495B053
:1089FC0016460D460746FFF7A9FE214620220CA875
:108A0C00009400F056FF40230C9321466B460CAAB1
:108A1C003046FFF71BF80446002844D102460121DA
:108A2C006868FFF789F90221804622466868FFF7DB
:108A3C0083F9009E81462146002E34D0002932D184
:108A4C007368022B02D00A2B09D02AE0B8F1000F70
:108A5C0027D0716938460431FFF7A5FE20E0B9F143
:108A6C00000F1ED07469112201A800F022FF06230A
:108A7C008DF8143001AD04F10803183418685968E6
:108A8C002A4603C20833A3421546F7D101A906A80A
:108A9C0007ADFFF769FE0FCD3C1D0FC42B6823708B
:108AAC000121F669C8E70098FEF7C8FF384615B0F3
:108ABC00BDE8F083024B034A1A6000225A607047EB
:108ACC00A8E6032078AF0D00F8B506460D468F18C2
:108ADC000024BD420CD0336815F8011B9B6830464E
:108AEC009847002801DB0444F3E7002C08BF044638
:108AFC002046F8BD70B505460C46084649B100F055
:108B0C0056FF2B68024621462846DB68BDE87040BC
:108B1C00184770BD03689B68184738B50D2105468A
:108B2C00FFF7F8FF0A2104462846FFF7F3FF20441D
:108B3C0038BD38B50546FFF7DDFF04462846FFF77C
:108B4C00ECFF204438BD30B58BB00B4600218DF8BE
:108B5C002410012A98BF0A220DF12304B3FBF2F56D
:108B6C0005FB123303F0FF03092B94BF303337336B
:108B7C00DBB2214604F801392B46002DEED1FFF76C
:108B8C00B9FF0BB030BD10B42AB903685DF8044BC3
:108B9C009B68C9B21847D2B25DF8044BFFF7D3BF3C
:108BAC00FFF7F1BF0CB42DE9F04387B000AF07F12C
:108BBC003804054654F8049B3C600E4623464A464E
:108BCC001421381DFFF710F9132805D8391D284634
:108BDC00FFF790FF044613E000F1080323F00703AE
:108BEC00E846ADEB030D411C23464A4668463C6003
:108BFC00FFF7FAF869462846FFF77CFF0446C5469E
:108C0C001EB12846FFF789FF044420461C37BD4699
:108C1C00BDE8F04302B0704710B50446FBF7F8FA14
:108C2C00204610BD0348044A04490023836000F029
:108C3C00B5BC00BFB0E60320ACC60320258C0D00EC
:108C4C00704710B51021044600F0ADFC204610BD55
:108C5C0070B5084B0360044600250E4640F80C5FC7
:108C6C00FEF7B4FD30462671FEF700FFA5602046E6
:108C7C0070BD00BFACAF0D000079FEF7FFBE10B5A4
:108C8C0004460068FFF798F8204610BD10B504465E
:108C9C00006808B1FFF790F800232360A3606360BD
:108CAC0010BD38B504460D4600680131FFF78CF84D
:108CBC0010B184E82100012038BD10B503680446CA
:108CCC0013B143688B4207D22046FFF7EAFF20B16D
:108CDC00A3680BB922681370012010BD70B50E4645
:108CEC00114604461546FFF7E8FF18B92046FFF772
:108CFC00CDFF09E02A463146A560206800F0CEFD84
:108D0C002268A3680021D154204670BD38B50023D9
:108D1C00044603604360836003730D4639B1084613
:108D2C0000F045FE294602462046FFF7D7FF2046B5
:108D3C0038BD38B5054600680C4660B16A688B686A
:108D4C009A4206D3096800F0FEFDA368AB600023CD
:108D5C000AE0FFF731F823682B6063686B60A36847
:108D6C00AB60002323606360A36038BD884210B5FC
:108D7C000B46044607D0096819B19A68FFF7AEFF95
:108D8C0001E0FFF783FF204610BD10B50023044619
:108D9C000360436083600373FFF7E8FF204610BD58
:108DAC00884210B5044601D0FFF7C3FF204610BD22
:108DBC0038B505460C4641B1084600F0F8FD214691
:108DCC0002462846FFF78AFF01E0FFF75FFF2846BF
:108DDC0038BD70B504460E4609B9002070BD6AB1A5
:108DEC008368D5182946FFF768FF0028F5D020685E
:108DFC00A3683146184400F0A6FDA560012070BDA3
:108E0C0010B58A6809680446FFF7E3FF10B92046DD
:108E1C00FFF73CFF204610BD70B50E469AB191B1DC
:108E2C0085689D4202D800230B7070BD541EED1A4C
:108E3C000168AC4228BF2C4619442246304600F04B
:108E4C00D3FD0023335570BD10B58368934207D909
:108E5C0004680968A01800F0DAFD08B1001B10BD09
:108E6C004FF0FF3010BD00002DE9F0419A420E4644
:108E7C001C46104988BF13461546074684BF254635
:108E8C001C46FFF743FFB1688D420FD88C4228BFB8
:108E9C000C463368002213F804801A5531683846A2
:108EAC002944FFF785FF336803F804803846BDE892
:108EBC00F08100BFE2A30D0010B504468B68FFF7EC
:108ECC00D3FF204610BD006808B100F0D5BC704738
:108EDC00044B00204FF6FF72187058809A80FEF7F2
:108EEC006FBE00BFC0E6032008B50020FEF7FCFEF5
:108EFC0028B1FEF7D9FE80F00100C0B208BD0120F8
:108F0C0008BD10B50020FEF7C1FC044668B9FEF799
:108F1C004FFE01280BD12046FEF77AFE38B9FFF739
:108F2C00E3FF30B9FEF7A8FEF9E7012010BD0020E1
:108F3C0010BDFFF7D9FF0020FEF7A8FC003018BFCA
:108F4C00012010BD08B5FFF7DCFFBDE80840FEF7B7
:108F5C007DBC0000024B1A68024B1A60704700BFC0
:108F6C0040C60320C8E60320F8B585B2044628465F
:108F7C000E46174600F0BEF960B102212846FEF7F6
:108F8C0095FC022806D13A4631462046BDE8F84009
:108F9C00FEF764BDF8BD70474174704708B5007C9E
:108FAC00FEF7B4FD20EAE07008BD08B5007CFEF7C2
:108FBC0085FD20EAE07008BD08B5007CFEF78EFD4B
:108FCC0030EA200028BF4FF0FF3008BD08B5007C08
:108FDC00FEF77CFD30EA200028BF4FF0FF3008BDC3
:108FEC00007CFEF783BD10B51421044600F0DBFABB
:108FFC00204610BD70B5457C04460E4625B9007C54
:10900C00FEF784FD002805DD3146207CBDE870406C
:10901C00FEF74CBD284670BD10B5044608461146F7
:10902C00002262604FF47A72A260054A226001222B
:10903C00207462741A46FEF729FD204610BD00BF4D
:10904C00E8AF0D000023007CFEF768BD0022FFF79F
:10905C00F9BF007CFEF722BD007CFEF74FBD00007F
:10906C00F8B5194C25684DB98420FBF70EF8064667
:10907C0018B18422294600F01CFC2660134D2E6882
:10908C004EB98420FBF701F8074618B1842231460B
:10909C0000F00FFC2F600E4F396811F0010611D152
:1090AC003846FAF7F8FF68B122682B680948314650
:1090BC00FFF7B2FF3846FAF7F3FF074A07490548AE
:1090CC0000F06CFA0348F8BDE8E60320E0E6032064
:1090DC00E4E60320CCE60320ACC60320A38F0D00EE
:1090EC0041747047704708B50021007CFEF73EFDC7
:1090FC0030EA200028BF4FF0FF3008BD08B5012131
:10910C00007CFEF733FD30EA200028BF4FF0FF3023
:10911C0008BD08B5007CFEF721FD20EAE07008BD13
:10912C0008B5007CFEF712FD20EAE07008BD007C5B
:10913C00FEF72CBD10B51421044600F034FA20467D
:10914C0010BD38B50446007C0D46FEF707FD00281F
:10915C0001DC607C28B12946207CFEF70FFD20EA5B
:10916C00E07038BD10B50446002363604FF47A7389
:10917C00A360054B236001230846217463741146D8
:10918C00FEF7D4FC204610BD18B00D000022007C68
:10919C00FEF7D4BC10B514220446002100F089FB64
:1091AC00204610BD30B50E4D87B001A8FFF7F2FF79
:1091BC00296811F0010410D12846FAF76CFF60B150
:1091CC0001AA21460748FFF7CDFF2846FAF768FFAA
:1091DC00054A0649034800F0E1F9024807B030BDE2
:1091EC00ECE60320F0E60320ACC60320F1900D0062
:1091FC0008B50C4B33B1FFF7D5FF03681B699847D3
:10920C00002809DC084B63B1FFF72AFF03681B69D0
:10921C009847002803DC08BDAFF30080F2E7AFF3FA
:10922C00008008BD000000000000000008B5FFF73A
:10923C00DFFFFEF703FB014B186008BD08E70320B6
:10924C0007B5002300931A466FF07701FEF7FAFC7E
:10925C0003B05DF804FB000007B543880A2B08D067
:10926C00502B09D1094B1B683BB103B05DF804EBE3
:10927C001847FFF7E5FF06E0002300931A466FF04E
:10928C007701FEF7DFFC03B05DF804FB04E7032075
:10929C0010B5FEF7BBFA044600F014FB074B13B1F4
:1092AC002046AFF3008000210448FEF725FD002185
:1092BC000348BDE81040FEF7BBBC00BF0000000037
:1092CC0065920D0008B5024B1B681B68019308BD25
:1092DC005C02030008B5024B1B685B68019308BD78
:1092EC005C02030008B5024B1B689B68019308BD28
:1092FC005C02030010B504460F48FFF7BDFC28B113
:10930C00A4F10B03022B01D8002010BD00F004F9CE
:10931C00FFF7B4F908B1012CF6D9FFF7A1FEFFF75E
:10932C009BFE18B1A4F10903012BEDD9232C8CBFA2
:10933C000020012010BD00BF2CE70320232838B5E6
:10934C0004460D460AD8FF2908D0FFF7D3FF28B1F1
:10935C0029462046BDE83840FEF7B0BA38BD38B5CE
:10936C0004460D46FEF7B2FAFF2810D0062804D8A2
:10937C004D2323FA00F0C30709D42046FFF7BAFFA8
:10938C0028B129462046BDE83840FEF7A7BA38BDBB
:10939C0010B50446FEF79AFA0438C0B2012808D971
:1093AC002046FFF7A7FF20B12046BDE81040FEF78E
:1093BC009DBA002010BD0D2810B504469CBF0E347C
:1093CC00A4B22046FFF796FF50B103212046FEF7CA
:1093DC006DFA032804D12046BDE81040FEF7A6BA6A
:1093EC00002010BD38B504460D46FFF783FFF0B1E1
:1093FC0004212046FEF75AFA042805D1A9B22046CA
:10940C00BDE83840FEF78ABA02212046FEF74EFA34
:10941C0002280CD12046FEF759FA012801D0042865
:10942C0005D129462046BDE83840FEF787BA38BD3D
:10943C0070B504460D461646FFF75CFF98B1022145
:10944C002046FEF733FA02280DD12046FEF73EFAED
:10945C00012801D0042806D1324629462046BDE811
:10946C007040FEF773BA70BD30B51C4D89B0044620
:10947C002068FEF7D3F9FEF7E1F92B682268C01AD1
:10948C009042F5D3236833B3E36823B3251D2369D6
:10949C0028469847002304A9684602930693FEF7D2
:1094AC00EDFD029B069A02920693079A039B079383
:1094BC00294604A80392FEF7E1FD069BE268E360EF
:1094CC00079B069204A8226923610792FAF7A0FE73
:1094DC006846FAF79DFE09B030BD00BF08E70320CF
:1094EC0008B5FFF7C1FF0020BDE80840FEF73EB904
:1094FC0010B5074C2368DB0708D42046FAF7CBFDE0
:10950C0020B1FEF7ABF92046FAF7CAFD014810BDB1
:10951C000CE7032010E7032038B50B4D296811F038
:10952C0001040FD12846FAF7B6FD58B12146074879
:10953C00FFF76AF82846FAF7B3FD054A05490348D0
:10954C0000F02CF8014838BD14E7032018E703207D
:10955C00ACC60320BD850D0070B50C4C0C4E0D4DEA
:10956C0000212046FFF774FB20460B4C324629465F
:10957C0000F014F801212046FFF76AFB3246294619
:10958C002046BDE8704000F009B800BF2CE703206E
:10959C00ACC603204D8C0D003CE703200B46014666
:1095AC00184600F06DB9FAF772BD0000024B18684E
:1095BC00BFF35F8F704700BF4CE7032010B5002846
:1095CC0014BF044601242046FEF7EEFB20B9FFF73A
:1095DC00EDFF08B18047F6E710BD08B5FEF70CFCAF
:1095EC00244B1A68D0075CBF01221A60224B1A6800
:1095FC00D1075CBF01221A60204B1A68D2075CBFEE
:10960C0001221A601E4B1A68D0075CBF01221A6037
:10961C001C4B1A68D1075CBF01221A601A4B1A68DE
:10962C00D2075CBF01221A60184B1A68D0075CBFC6
:10963C0001221A60164B1A68D1075CBF01221A600E
:10964C00144B1A68D2075CBF01221A60124B1A68BD
:10965C00D0075CBF01221A60104B1A68D1075CBF9F
:10966C0001221A600E4B1A68D2075CBF01221A60E5
:10967C00704700BF7CE7032078E7032074E70320E2
:10968C0070E703206CE7032068E7032064E70320FE
:10969C0060E703205CE7032058E7032054E703202E
:1096AC0050E70320184B1A68D1075CBF01221A60DF
:1096BC00164B1A68D2075CBF01221A60144B1A6849
:1096CC00D0075CBF01221A60124B1A68D1075CBF2D
:1096DC0001221A60104B1A68D2075CBF01221A6073
:1096EC000E4B1A68D0075CBF01221A600C4B1A682B
:1096FC00D1075CBF01221A600A4B1A68D2075CBF03
:10970C0001221A60704700BF9CE7032098E70320F2
:10971C0094E7032090E703208CE7032088E70320DD
:10972C0084E7032080E70320184B1A68D1075CBF3D
:10973C0001221A60164B1A68D2075CBF01221A600C
:10974C00144B1A68D0075CBF01221A60124B1A68BE
:10975C00D1075CBF01221A60104B1A68D2075CBF9C
:10976C0001221A600E4B1A68D0075CBF01221A60E6
:10977C000C4B1A68D1075CBF01221A600A4B1A689D
:10978C00D2075CBF01221A60704700BFBCE7032000
:10979C00B8E70320B4E70320B0E70320ACE70320CD
:1097AC00A8E70320A4E70320A0E70320244B1A68B2
:1097BC00D0075CBF01221A60224B1A68D1075CBF2C
:1097CC0001221A60204B1A68D2075CBF01221A6072
:1097DC001E4B1A68D0075CBF01221A601C4B1A681A
:1097EC00D1075CBF01221A601A4B1A68D2075CBF02
:1097FC0001221A60184B1A68D0075CBF01221A604C
:10980C00164B1A68D1075CBF01221A60144B1A68F8
:10981C00D2075CBF01221A60124B1A68D0075CBFDA
:10982C0001221A60104B1A68D1075CBF01221A6022
:10983C000E4B1A68D2075CBF01221A60704700BF3A
:10984C00ECE70320E8E70320E4E70320E0E703204C
:10985C00DCE70320D8E70320D4E70320D0E703207C
:10986C00CCE70320C8E70320C4E70320C0E70320AC
:10987C000A22002100F06CB90A22002100F068B91C
:10988C0010B5054C13462CB10A4601460220AFF325
:10989C00008010BD204610BD0000000010B5431E16
:1098AC000A44914204D011F8014B03F8014FF8E738
:1098BC0010BD02440346934202D003F8011BFAE7A1
:1098CC007047000038B5124B1C68A36B0546D3B922
:1098DC001820FEF769FA43F20E33A06303804AF6B0
:1098EC00CD33438041F2342383804EF26D63C380C9
:1098FC004DF6EC630381052343810B238381012205
:10990C000023C0E90423A36B00221D615A6138BDFA
:10991C00A8C6032010B50246134601321C78002C51
:10992C00FAD1013B11F8012B03F8012F002AF9D1D0
:10993C0010BD10F8012B11F8013B012A28BF9A42E7
:10994C00F7D0D01A7047034611F8012B03F8012BFE
:10995C00002AF9D1704770B503461A4612F8015B1C
:10996C0045B14C1E14F8016F16B1B542FAD101E0A5
:10997C001346F2E7181A70BD024B0146186800F046
:10998C0003B800BFA8C6032070B5064608460C46AF
:10999C0000F00DF8451C29463046FEF735FA064610
:1099AC0018B12A462146FFF779FF304670BD0346B1
:1099BC0013F8012B002AFBD1181A0138704730B567
:1099CC0082B1451E013915F8013F11F8014FA34230
:1099DC0006D1EC431444E04201D0002BF3D11C46D9
:1099EC00181B30BD104630BD10B5034642B111F8FE
:1099FC00014B03F8014B013A002CF7D11A4400E05B
:109A0C0010BD934202D003F8014BFAE710BDF0B53C
:109A1C00037863B90B78002B18BF0020F0BD15F844
:109A2C00012F62B114F8017F97423046F7D00346FC
:109A3C00461C007810B14D1E5C1EF0E7F0BD1846B8
:109A4C00F0BD00002DE9F04780464048D0F800906A
:109A5C000F463D4615F8014B09EB0400407800F029
:109A6C00080000F0FF0608B12F46F2E72D2C03D1B9
:109A7C00BD1C7C78012603E02B2C04BF7C78BD1C1C
:109A8C0013B1102B0AD15BE0302C57D1287800F0A1
:109A9C00DF0058284DD16C7810230235002E14BFEE
:109AAC004FF0004C6FF0004C0027BCFBF3FA38462B
:109ABC0003FB1ACC09EB040E9EF801E01EF0040F18
:109ACC0001D0303C0BE01EF0030E1BD0BEF1010F99
